{
  "contractName": "LotteryCore",
  "abi": [
    {
      "inputs": [
        {
          "internalType": "uint64",
          "name": "subscriptionId",
          "type": "uint64"
        },
        {
          "internalType": "address",
          "name": "generatorLotteryAddress",
          "type": "address"
        },
        {
          "internalType": "address",
          "name": "WeeklyLotteryAddress",
          "type": "address"
        },
        {
          "internalType": "address",
          "name": "MonthlyLotteryAddress",
          "type": "address"
        },
        {
          "internalType": "address",
          "name": "LiquidityPoolAddr",
          "type": "address"
        }
      ],
      "stateMutability": "nonpayable",
      "type": "constructor"
    },
    {
      "inputs": [
        {
          "internalType": "address",
          "name": "have",
          "type": "address"
        },
        {
          "internalType": "address",
          "name": "want",
          "type": "address"
        }
      ],
      "name": "OnlyCoordinatorCanFulfill",
      "type": "error"
    },
    {
      "anonymous": false,
      "inputs": [
        {
          "indexed": false,
          "internalType": "address",
          "name": "sender",
          "type": "address"
        },
        {
          "indexed": false,
          "internalType": "uint256",
          "name": "value",
          "type": "uint256"
        }
      ],
      "name": "LogDepositReceived",
      "type": "event"
    },
    {
      "anonymous": false,
      "inputs": [
        {
          "indexed": true,
          "internalType": "address",
          "name": "previousOwner",
          "type": "address"
        },
        {
          "indexed": true,
          "internalType": "address",
          "name": "newOwner",
          "type": "address"
        }
      ],
      "name": "OwnershipTransferred",
      "type": "event"
    },
    {
      "anonymous": false,
      "inputs": [
        {
          "indexed": false,
          "internalType": "address",
          "name": "potPlayer",
          "type": "address"
        },
        {
          "indexed": false,
          "internalType": "uint256",
          "name": "playerId",
          "type": "uint256"
        },
        {
          "indexed": false,
          "internalType": "uint256",
          "name": "PlayerValue",
          "type": "uint256"
        },
        {
          "indexed": false,
          "internalType": "uint256",
          "name": "ticketNumber",
          "type": "uint256"
        }
      ],
      "name": "PlayerRegister",
      "type": "event"
    },
    {
      "anonymous": false,
      "inputs": [
        {
          "indexed": false,
          "internalType": "address",
          "name": "potPlayer",
          "type": "address"
        },
        {
          "indexed": false,
          "internalType": "uint256[]",
          "name": "playerId",
          "type": "uint256[]"
        },
        {
          "indexed": false,
          "internalType": "uint256",
          "name": "playCount",
          "type": "uint256"
        },
        {
          "indexed": false,
          "internalType": "uint256",
          "name": "playerValue",
          "type": "uint256"
        },
        {
          "indexed": false,
          "internalType": "uint256",
          "name": "ticketNumber",
          "type": "uint256"
        }
      ],
      "name": "PlayerTotalValue",
      "type": "event"
    },
    {
      "anonymous": false,
      "inputs": [
        {
          "indexed": false,
          "internalType": "bool",
          "name": "isReadySelectWinner",
          "type": "bool"
        }
      ],
      "name": "ReadyForSelectWinner",
      "type": "event"
    },
    {
      "anonymous": false,
      "inputs": [
        {
          "indexed": false,
          "internalType": "address",
          "name": "potWinner",
          "type": "address"
        },
        {
          "indexed": false,
          "internalType": "uint256",
          "name": "winnerPrize",
          "type": "uint256"
        }
      ],
      "name": "SelectWinnerAddress",
      "type": "event"
    },
    {
      "anonymous": false,
      "inputs": [
        {
          "indexed": false,
          "internalType": "uint256",
          "name": "winnerIndex",
          "type": "uint256"
        },
        {
          "indexed": false,
          "internalType": "uint256",
          "name": "potBalance",
          "type": "uint256"
        },
        {
          "indexed": false,
          "internalType": "uint256",
          "name": "winnerPrize",
          "type": "uint256"
        }
      ],
      "name": "SelectWinnerIndex",
      "type": "event"
    },
    {
      "anonymous": false,
      "inputs": [
        {
          "indexed": false,
          "internalType": "uint256",
          "name": "vrfCalledTime",
          "type": "uint256"
        }
      ],
      "name": "StartSelectngWinner",
      "type": "event"
    },
    {
      "anonymous": false,
      "inputs": [
        {
          "indexed": false,
          "internalType": "address",
          "name": "receiver",
          "type": "address"
        },
        {
          "indexed": false,
          "internalType": "uint256",
          "name": "TrxValue",
          "type": "uint256"
        }
      ],
      "name": "TotalPayment",
      "type": "event"
    },
    {
      "stateMutability": "payable",
      "type": "fallback",
      "payable": true
    },
    {
      "inputs": [],
      "name": "owner",
      "outputs": [
        {
          "internalType": "address",
          "name": "",
          "type": "address"
        }
      ],
      "stateMutability": "view",
      "type": "function",
      "constant": true
    },
    {
      "inputs": [],
      "name": "potStartTime",
      "outputs": [
        {
          "internalType": "uint256",
          "name": "",
          "type": "uint256"
        }
      ],
      "stateMutability": "view",
      "type": "function",
      "constant": true
    },
    {
      "inputs": [],
      "name": "potWinnerPrize",
      "outputs": [
        {
          "internalType": "uint256",
          "name": "",
          "type": "uint256"
        }
      ],
      "stateMutability": "view",
      "type": "function",
      "constant": true
    },
    {
      "inputs": [
        {
          "internalType": "uint256",
          "name": "requestId",
          "type": "uint256"
        },
        {
          "internalType": "uint256[]",
          "name": "randomWords",
          "type": "uint256[]"
        }
      ],
      "name": "rawFulfillRandomWords",
      "outputs": [],
      "stateMutability": "nonpayable",
      "type": "function"
    },
    {
      "inputs": [],
      "name": "realPLayerCount",
      "outputs": [
        {
          "internalType": "uint256",
          "name": "",
          "type": "uint256"
        }
      ],
      "stateMutability": "view",
      "type": "function",
      "constant": true
    },
    {
      "inputs": [],
      "name": "renounceOwnership",
      "outputs": [],
      "stateMutability": "nonpayable",
      "type": "function"
    },
    {
      "inputs": [
        {
          "internalType": "uint256",
          "name": "",
          "type": "uint256"
        }
      ],
      "name": "s_randomWords",
      "outputs": [
        {
          "internalType": "uint256",
          "name": "",
          "type": "uint256"
        }
      ],
      "stateMutability": "view",
      "type": "function",
      "constant": true
    },
    {
      "inputs": [],
      "name": "s_requestId",
      "outputs": [
        {
          "internalType": "uint256",
          "name": "",
          "type": "uint256"
        }
      ],
      "stateMutability": "view",
      "type": "function",
      "constant": true
    },
    {
      "inputs": [
        {
          "internalType": "address",
          "name": "newOwner",
          "type": "address"
        }
      ],
      "name": "transferOwnership",
      "outputs": [],
      "stateMutability": "nonpayable",
      "type": "function"
    },
    {
      "stateMutability": "payable",
      "type": "receive",
      "payable": true
    },
    {
      "inputs": [],
      "name": "balanceInPot",
      "outputs": [
        {
          "internalType": "uint256",
          "name": "",
          "type": "uint256"
        }
      ],
      "stateMutability": "view",
      "type": "function",
      "constant": true
    },
    {
      "inputs": [],
      "name": "withdraw",
      "outputs": [],
      "stateMutability": "nonpayable",
      "type": "function"
    },
    {
      "inputs": [],
      "name": "potInitialize",
      "outputs": [
        {
          "internalType": "bool",
          "name": "success",
          "type": "bool"
        }
      ],
      "stateMutability": "nonpayable",
      "type": "function"
    },
    {
      "inputs": [],
      "name": "potPause",
      "outputs": [
        {
          "internalType": "bool",
          "name": "success",
          "type": "bool"
        }
      ],
      "stateMutability": "nonpayable",
      "type": "function"
    },
    {
      "inputs": [],
      "name": "play",
      "outputs": [
        {
          "internalType": "bool",
          "name": "success",
          "type": "bool"
        }
      ],
      "stateMutability": "payable",
      "type": "function",
      "payable": true
    },
    {
      "inputs": [],
      "name": "select_Winner",
      "outputs": [
        {
          "internalType": "bool",
          "name": "success",
          "type": "bool"
        }
      ],
      "stateMutability": "nonpayable",
      "type": "function"
    },
    {
      "inputs": [],
      "name": "select_Winner_Continue",
      "outputs": [
        {
          "internalType": "bool",
          "name": "success",
          "type": "bool"
        }
      ],
      "stateMutability": "nonpayable",
      "type": "function"
    },
    {
      "inputs": [],
      "name": "planB_VRFDelay",
      "outputs": [
        {
          "internalType": "bool",
          "name": "isActive",
          "type": "bool"
        }
      ],
      "stateMutability": "nonpayable",
      "type": "function"
    },
    {
      "inputs": [
        {
          "internalType": "address",
          "name": "_WeeklyPotAddress",
          "type": "address"
        }
      ],
      "name": "set_WeeklyPotAddress",
      "outputs": [],
      "stateMutability": "nonpayable",
      "type": "function"
    },
    {
      "inputs": [
        {
          "internalType": "address",
          "name": "_MonthlyPotAddress",
          "type": "address"
        }
      ],
      "name": "set_MonthlyPotAddress",
      "outputs": [],
      "stateMutability": "nonpayable",
      "type": "function"
    },
    {
      "inputs": [
        {
          "internalType": "address",
          "name": "_contractAddr",
          "type": "address"
        }
      ],
      "name": "set_generatorLotteryAddress",
      "outputs": [],
      "stateMutability": "nonpayable",
      "type": "function"
    },
    {
      "inputs": [
        {
          "internalType": "address",
          "name": "_LiquidityPoolAddress",
          "type": "address"
        }
      ],
      "name": "set_LiquidityPoolAddress",
      "outputs": [],
      "stateMutability": "nonpayable",
      "type": "function"
    },
    {
      "inputs": [
        {
          "internalType": "address",
          "name": "_DirectorAddress",
          "type": "address"
        }
      ],
      "name": "setDirector",
      "outputs": [],
      "stateMutability": "nonpayable",
      "type": "function"
    },
    {
      "inputs": [],
      "name": "listPlayers",
      "outputs": [
        {
          "internalType": "address[]",
          "name": "",
          "type": "address[]"
        }
      ],
      "stateMutability": "view",
      "type": "function",
      "constant": true
    },
    {
      "inputs": [],
      "name": "getLotteryTickets",
      "outputs": [
        {
          "internalType": "uint256[]",
          "name": "",
          "type": "uint256[]"
        }
      ],
      "stateMutability": "view",
      "type": "function",
      "constant": true
    },
    {
      "inputs": [],
      "name": "isPotActive",
      "outputs": [
        {
          "internalType": "bool",
          "name": "",
          "type": "bool"
        }
      ],
      "stateMutability": "view",
      "type": "function",
      "constant": true
    },
    {
      "inputs": [],
      "name": "getTicketPrice",
      "outputs": [
        {
          "internalType": "uint256",
          "name": "",
          "type": "uint256"
        }
      ],
      "stateMutability": "pure",
      "type": "function",
      "constant": true
    },
    {
      "inputs": [],
      "name": "getTicketAmount",
      "outputs": [
        {
          "internalType": "uint256",
          "name": "",
          "type": "uint256"
        }
      ],
      "stateMutability": "view",
      "type": "function",
      "constant": true
    },
    {
      "inputs": [],
      "name": "getPlayersNumber",
      "outputs": [
        {
          "internalType": "uint256",
          "name": "",
          "type": "uint256"
        }
      ],
      "stateMutability": "view",
      "type": "function",
      "constant": true
    },
    {
      "inputs": [],
      "name": "getWinners",
      "outputs": [
        {
          "internalType": "address",
          "name": "",
          "type": "address"
        },
        {
          "internalType": "uint256",
          "name": "",
          "type": "uint256"
        }
      ],
      "stateMutability": "view",
      "type": "function",
      "constant": true
    },
    {
      "inputs": [],
      "name": "isReadySelectWinner",
      "outputs": [
        {
          "internalType": "bool",
          "name": "",
          "type": "bool"
        }
      ],
      "stateMutability": "view",
      "type": "function",
      "constant": true
    },
    {
      "inputs": [],
      "name": "isWinnerSelected",
      "outputs": [
        {
          "internalType": "bool",
          "name": "",
          "type": "bool"
        }
      ],
      "stateMutability": "view",
      "type": "function",
      "constant": true
    },
    {
      "inputs": [],
      "name": "getStartedTime",
      "outputs": [
        {
          "internalType": "uint256",
          "name": "",
          "type": "uint256"
        }
      ],
      "stateMutability": "view",
      "type": "function",
      "constant": true
    },
    {
      "inputs": [],
      "name": "getPotDirector",
      "outputs": [
        {
          "internalType": "address",
          "name": "",
          "type": "address"
        }
      ],
      "stateMutability": "view",
      "type": "function",
      "constant": true
    },
    {
      "inputs": [],
      "name": "getAllContractAddresses",
      "outputs": [
        {
          "internalType": "address",
          "name": "gAddress",
          "type": "address"
        },
        {
          "internalType": "address",
          "name": "lAddress",
          "type": "address"
        },
        {
          "internalType": "address",
          "name": "wAddress",
          "type": "address"
        },
        {
          "internalType": "address",
          "name": "mAddress",
          "type": "address"
        }
      ],
      "stateMutability": "view",
      "type": "function",
      "constant": true
    },
    {
      "inputs": [
        {
          "internalType": "address",
          "name": "PlayerAddress",
          "type": "address"
        }
      ],
      "name": "getPlayerAmounts",
      "outputs": [
        {
          "internalType": "uint256",
          "name": "",
          "type": "uint256"
        },
        {
          "internalType": "uint256",
          "name": "",
          "type": "uint256"
        }
      ],
      "stateMutability": "view",
      "type": "function",
      "constant": true
    },
    {
      "inputs": [
        {
          "internalType": "address",
          "name": "PlayerAddress",
          "type": "address"
        }
      ],
      "name": "getPlayerValue",
      "outputs": [
        {
          "internalType": "uint256",
          "name": "",
          "type": "uint256"
        }
      ],
      "stateMutability": "view",
      "type": "function",
      "constant": true
    }
  ],
  "bytecode": "0x60a0604052600380546001600160a01b0319908116736168499c0cffcacd319c818142124b7a15e857ab17909155600480549091167301be23585060835e02b77ef475b0cc51aa1e07091790557fd89b2bf150e3b9e13446986e571fb9cab24b13cea0a43ea20a6049a85cc807cc6005556006805466010003000186a06001600160501b03199091161790556000600e819055600f8190556010819055601155348015620000ac57600080fd5b50604051620028ea380380620028ea833981016040819052620000cf9162000219565b6003546001600160a01b0316620000e633620001ac565b6001600160a01b03908116608052600354600180549183166001600160a01b0319928316179055600454600280549184166001600160e01b031990921691909117600160a01b6001600160401b03999099169890980297909717909655600d80546001600160b01b0319163361ffff60a01b19161790556012805460ff1916905542600e5560098054871695821695909517909455600a80548616918516919091179055600b8054851692841692909217909155600c8054909316911617905562000296565b600080546001600160a01b038381166001600160a01b0319831681178455604051919092169283917f8be0079c531659141344cd1fd0a4f28419497f9722a3daafe3b4186f6b6457e09190a35050565b80516001600160a01b03811681146200021457600080fd5b919050565b600080600080600060a086880312156200023257600080fd5b85516001600160401b03811681146200024a57600080fd5b94506200025a60208701620001fc565b93506200026a60408701620001fc565b92506200027a60608701620001fc565b91506200028a60808701620001fc565b90509295509295909350565b608051612631620002b9600039600081816108ae015261090901526126316000f3fe6080604052600436106102535760003560e01c8063715018a611610138578063bfdf8b12116100b0578063df15c37e1161007f578063e8b05e3811610064578063e8b05e3814610844578063f2fde38b14610863578063f6eaffc81461088357610395565b8063df15c37e146107eb578063e89e106a1461082e57610395565b8063bfdf8b1214610789578063c5ae6f3e146107a1578063c7c15ac9146107bf578063d7573c11146107d557610395565b80638b8ed6511161010757806393e84cd9116100ec57806393e84cd9146107335780639e94d5ab1461073b578063a8078b7a1461077457610395565b80638b8ed651146106ec5780638da5cb5b1461070157610395565b8063715018a614610688578063766eef111461069d5780638613e4cf146106b257806387bb7ae0146106d257610395565b80633f4600c3116101cb5780635efaf0441161019a57806364605d511161017f57806364605d511461063c5780636c2534371461065e5780636cf699581461067357610395565b80635efaf044146105fc578063614f6f871461061c57610395565b80633f4600c3146105855780633fa420c41461059b578063442db8fb146105bb5780634442713c146105dd57610395565b80632ac75ab5116102225780633818b9ef116102075780633818b9ef1461050e5780633b33b61a146105235780633ccfd60b1461057057610395565b80632ac75ab5146104a65780633298944a146104bb57610395565b806314e599871461041f5780631fe543e31461044157806326ba4319146104615780632ac37c8d1461048157610395565b3661039557600d54600160a01b900460ff166102dc5760405162461bcd60e51b815260206004820152603b60248201527f54686520506f7420686173206e6f74206265656e20526561647920746f20506c60448201527f617920796574204f72205468652047616d65206973204f76657221000000000060648201526084015b60405180910390fd5b662386f26fc1000034101580156102fa5750678ac7230489e8000034105b6103545760405162461bcd60e51b815260206004820152602560248201527f56616c75652073686f756c64206265206265747765656e20302e303120262031604482015264181021272160d91b60648201526084016102d3565b341561039357604080513381523460208201527f3916187166447a01764df803fb1147a37c55a4ca1c7271a7a75c0ab1079b2d95910160405180910390a15b005b600d54600160a01b900460ff166104145760405162461bcd60e51b815260206004820152603b60248201527f54686520506f7420686173206e6f74206265656e20526561647920746f20506c60448201527f617920796574204f72205468652047616d65206973204f76657221000000000060648201526084016102d3565b36156102dc57600080fd5b34801561042b57600080fd5b50475b6040519081526020015b60405180910390f35b34801561044d57600080fd5b5061039361045c3660046122e7565b6108a3565b34801561046d57600080fd5b5061039361047c3660046123b1565b610944565b34801561048d57600080fd5b506104966109d3565b6040519015158152602001610438565b3480156104b257600080fd5b50610496610a5a565b3480156104c757600080fd5b506104f96104d63660046123b1565b6001600160a01b0316600090815260136020526040902080546001909101549091565b60408051928352602083019190915201610438565b34801561051a57600080fd5b50610496610bf7565b34801561052f57600080fd5b50600954600a54600b54600c54604080516001600160a01b039586168152938516602085015291841691830191909152919091166060820152608001610438565b34801561057c57600080fd5b50610393610e34565b34801561059157600080fd5b5061042e60115481565b3480156105a757600080fd5b506103936105b63660046123b1565b610ebd565b3480156105c757600080fd5b506105d0610f4c565b60405161043891906123e1565b3480156105e957600080fd5b50600d54600160a01b900460ff16610496565b34801561060857600080fd5b506103936106173660046123b1565b610fa4565b34801561062857600080fd5b506103936106373660046123b1565b611033565b34801561064857600080fd5b506106516110c2565b6040516104389190612425565b34801561066a57600080fd5b50610496611123565b34801561067f57600080fd5b5060155461042e565b34801561069457600080fd5b5061039361120e565b3480156106a957600080fd5b5060145461042e565b3480156106be57600080fd5b506103936106cd3660046123b1565b611274565b3480156106de57600080fd5b50662386f26fc1000061042e565b3480156106f857600080fd5b506104966112f0565b34801561070d57600080fd5b506000546001600160a01b03165b6040516001600160a01b039091168152602001610438565b610496611477565b34801561074757600080fd5b5061042e6107563660046123b1565b6001600160a01b031660009081526013602052604090206001015490565b34801561078057600080fd5b5061042e61195c565b34801561079557600080fd5b5060125460ff16610496565b3480156107ad57600080fd5b506018546001600160a01b031661071b565b3480156107cb57600080fd5b5061042e60105481565b3480156107e157600080fd5b5061042e600e5481565b3480156107f757600080fd5b5061080f6017546011546001600160a01b0390911691565b604080516001600160a01b039093168352602083019190915201610438565b34801561083a57600080fd5b5061042e60085481565b34801561085057600080fd5b50600d54600160a81b900460ff16610496565b34801561086f57600080fd5b5061039361087e3660046123b1565b611971565b34801561088f57600080fd5b5061042e61089e366004612466565b611a50565b336001600160a01b037f00000000000000000000000000000000000000000000000000000000000000001614610936576040517f1cf993f40000000000000000000000000000000000000000000000000000000081523360048201526001600160a01b037f00000000000000000000000000000000000000000000000000000000000000001660248201526044016102d3565b6109408282611a71565b5050565b6000546001600160a01b0316331461099e5760405162461bcd60e51b815260206004820181905260248201527f4f776e61626c653a2063616c6c6572206973206e6f7420746865206f776e657260448201526064016102d3565b6001600160a01b0381166109b157600080fd5b601880546001600160a01b0319166001600160a01b0392909216919091179055565b6018546000906001600160a01b03163314806109f95750600d546001600160a01b031633145b610a3c5760405162461bcd60e51b81526020600482015260146024820152735065726d697373696f6e2044656e69656420212160601b60448201526064016102d3565b50600d805461ffff60a01b191690556012805460ff19169055600190565b6018546000906001600160a01b0316331480610a805750600d546001600160a01b031633145b610ac35760405162461bcd60e51b81526020600482015260146024820152735065726d697373696f6e2044656e69656420212160601b60448201526064016102d3565b600d54600160a81b900460ff161515600114610b375760405162461bcd60e51b815260206004820152602d60248201527f54686520506f74206973206e6f7420726561647920666f722053656c6563746960448201526c3733903a3432902bb4b73732b960991b60648201526084016102d3565b60125460ff1615610bb05760405162461bcd60e51b815260206004820152602660248201527f5468652057696e6e657220686173204e6f74206265656e2053656c656374656460448201527f205965742021000000000000000000000000000000000000000000000000000060648201526084016102d3565b42600f8190556040519081527f3b0b75510568e9c6916c9a7c853a3892b9634e5ca8717abbec6cea1b7f4ac2d79060200160405180910390a1610bf1611acc565b50600190565b6018546000906001600160a01b0316331480610c1d5750600d546001600160a01b031633145b610c605760405162461bcd60e51b81526020600482015260146024820152735065726d697373696f6e2044656e69656420212160601b60448201526064016102d3565b600d54600160a81b900460ff161515600114610cd45760405162461bcd60e51b815260206004820152602d60248201527f54686520506f74206973206e6f7420726561647920666f722053656c6563746960448201526c3733903a3432902bb4b73732b960991b60648201526084016102d3565b60125460ff161515600114610d3a5760405162461bcd60e51b815260206004820152602660248201527f5468652057696e6e657220686173206265656e2053656c6563746564206265666044820152656f726520212160d01b60648201526084016102d3565b60006015805490506007600081548110610d5657610d5661247f565b9060005260206000200154610d6b91906124ab565b905060158181548110610d8057610d8061247f565b90600052602060002001549050600080600080610d9c85611c0f565b604080518a8152476020820152908101859052939750919550935091507f274f2e5ea35472f60f411beb007713c0f1c1b574f260789eedee1789cd49d9f59060600160405180910390a1610df1854786611ccf565b50610dfc8585611e58565b610e07838383611ef8565b610e0f61207d565b5050600d805461ffff60a01b1916905550506012805460ff1916905550600192915050565b6000546001600160a01b03163314610e8e5760405162461bcd60e51b815260206004820181905260248201527f4f776e61626c653a2063616c6c6572206973206e6f7420746865206f776e657260448201526064016102d3565b60405133904780156108fc02916000818181858888f19350505050158015610eba573d6000803e3d6000fd5b50565b6000546001600160a01b03163314610f175760405162461bcd60e51b815260206004820181905260248201527f4f776e61626c653a2063616c6c6572206973206e6f7420746865206f776e657260448201526064016102d3565b6001600160a01b038116610f2a57600080fd5b600b80546001600160a01b0319166001600160a01b0392909216919091179055565b60606015805480602002602001604051908101604052809291908181526020018280548015610f9a57602002820191906000526020600020905b815481526020019060010190808311610f86575b5050505050905090565b6000546001600160a01b03163314610ffe5760405162461bcd60e51b815260206004820181905260248201527f4f776e61626c653a2063616c6c6572206973206e6f7420746865206f776e657260448201526064016102d3565b6001600160a01b03811661101157600080fd5b600a80546001600160a01b0319166001600160a01b0392909216919091179055565b6000546001600160a01b0316331461108d5760405162461bcd60e51b815260206004820181905260248201527f4f776e61626c653a2063616c6c6572206973206e6f7420746865206f776e657260448201526064016102d3565b6001600160a01b0381166110a057600080fd5b600c80546001600160a01b0319166001600160a01b0392909216919091179055565b60606014805480602002602001604051908101604052809291908181526020018280548015610f9a57602002820191906000526020600020905b81546001600160a01b031681526001909101906020018083116110fc575050505050905090565b6018546000906001600160a01b03163314806111495750600d546001600160a01b031633145b61118c5760405162461bcd60e51b81526020600482015260146024820152735065726d697373696f6e2044656e69656420212160601b60448201526064016102d3565b600d54600160a01b900460ff16156111e65760405162461bcd60e51b815260206004820152601b60248201527f54686520506f742069732073746172746564206265666f72652021000000000060448201526064016102d3565b50600d805461ffff60a01b1916600160a01b17905542600e556012805460ff19169055600190565b6000546001600160a01b031633146112685760405162461bcd60e51b815260206004820181905260248201527f4f776e61626c653a2063616c6c6572206973206e6f7420746865206f776e657260448201526064016102d3565b6112726000612138565b565b6000546001600160a01b031633146112ce5760405162461bcd60e51b815260206004820181905260248201527f4f776e61626c653a2063616c6c6572206973206e6f7420746865206f776e657260448201526064016102d3565b600980546001600160a01b0319166001600160a01b0392909216919091179055565b6018546000906001600160a01b03163314806113165750600d546001600160a01b031633145b6113595760405162461bcd60e51b81526020600482015260146024820152735065726d697373696f6e2044656e69656420212160601b60448201526064016102d3565b600d54600160a81b900460ff1615156001146113cd5760405162461bcd60e51b815260206004820152602d60248201527f54686520506f74206973206e6f7420726561647920666f722053656c6563746960448201526c3733903a3432902bb4b73732b960991b60648201526084016102d3565b60125460ff161561142f5760405162461bcd60e51b815260206004820152602660248201527f5468652057696e6e657220686173206265656e2053656c6563746564206265666044820152656f726520212160d01b60648201526084016102d3565b600f54429060009082111561146e57600f5461144b90836124d5565b905061012c81111561146e576012805460ff191660019081179091559250505090565b60009250505090565b600d54600090600160a01b900460ff166114f95760405162461bcd60e51b815260206004820152603b60248201527f54686520506f7420686173206e6f74206265656e20526561647920746f20506c60448201527f617920796574204f72205468652047616d65206973204f76657221000000000060648201526084016102d3565b662386f26fc1000034101580156115175750678ac7230489e8000034105b6115715760405162461bcd60e51b815260206004820152602560248201527f56616c75652073686f756c64206265206265747765656e20302e303120262031604482015264181021272160d91b60648201526084016102d3565b33600090815260136020526040902060010154678ac7230489e800008111156115dc5760405162461bcd60e51b815260206004820152601660248201527f596f7520706c6179656420746f6f206d7563682021210000000000000000000060448201526064016102d3565b6000806115f034662386f26fc10000612188565b915091508060001461166a5760405162461bcd60e51b815260206004820152602e60248201527f56616c75652073686f756c6420626520616e20496e7465676572206d7574697060448201527f6c65206f6620302e303120424e4200000000000000000000000000000000000060648201526084016102d3565b601480546001818101835560008381527fce6d7b5282bd9a3661ae061feed1dbda4e52ab073b1f9285be6e155d9c38d4ec90920180546001600160a01b03191633179055915490916116bb916124d5565b60155490915060005b8481101561171357601580546001810182556000919091527f55f448fdea98c4d29eb340757ef0a66cd03dbb9538908a6a81d96026b71ec475018390558061170b816124ec565b9150506116c4565b506015546040805160608101825284815260208101849052908101829052601680546001810182556000919091526117729160039182027fd833147d7dc355ba459fc788f669e58cfaf9dc25ddcd0702e87d69c7b5124289019161222a565b50601654336000908152601360205260408120805460019290611796908490612505565b909155505033600090815260136020526040812060010180543492906117bd908490612505565b909155505033600090815260136020526040812060020180548892906117e4908490612505565b9091555050336000818152601360209081526040822060048101805460018181018355918552838520018990556003820180548083018255908552928420909201859055929091529054900361184a5760108054906000611844836124ec565b91905055505b67016345785d8a000047101580156118655750600560105410155b1561189957600d80547fffffffffffffffffffff00ffffffffffffffffffffffffffffffffffffffffff16600160a81b1790555b604080513381526020810186905234818301526060810188905290517f8de5754e4ed9d4994bdb4b2b8c12dfcd51b0e994c1d34a7f20fe7f3d3fbb7bc29181900360800190a1336000908152601360205260409020546001101561195257336000818152601360205260409081902080546001820154600283015493517ff0b342fc13c65867c873cfbf6e19b5285bae679018bdf3376a4baca5ff066e0d9561194995909460040193929161251d565b60405180910390a15b5050505050505090565b6000600e544261196c91906124d5565b905090565b6000546001600160a01b031633146119cb5760405162461bcd60e51b815260206004820181905260248201527f4f776e61626c653a2063616c6c6572206973206e6f7420746865206f776e657260448201526064016102d3565b6001600160a01b038116611a475760405162461bcd60e51b815260206004820152602660248201527f4f776e61626c653a206e6577206f776e657220697320746865207a65726f206160448201527f646472657373000000000000000000000000000000000000000000000000000060648201526084016102d3565b610eba81612138565b60078181548110611a6057600080fd5b600091825260209091200154905081565b8051611a84906007906020840190612268565b506012805460ff191660019081179091556040519081527f320b3a07d7df24a614650bb07173e3a57f3e687cb2e87e07ab99e0854d09493c9060200160405180910390a15050565b6018546001600160a01b0316331480611aef5750600d546001600160a01b031633145b611b325760405162461bcd60e51b81526020600482015260146024820152735065726d697373696f6e2044656e69656420212160601b60448201526064016102d3565b6001546005546002546006546040517f5d3b1d300000000000000000000000000000000000000000000000000000000081526004810193909352600160a01b90910467ffffffffffffffff166024830152640100000000810461ffff16604483015263ffffffff808216606484015266010000000000009091041660848201526001600160a01b0390911690635d3b1d309060a4016020604051808303816000875af1158015611be6573d6000803e3d6000fd5b505050506040513d601f19601f82011682018060405250810190611c0a919061258d565b600855565b6000806000806000479050600060148781548110611c2f57611c2f61247f565b60009182526020808320909101546001600160a01b03168083526013909152604090912060010154909150611c6481846124d5565b9650611c71876002612188565b509650611c7e8188612505565b96506000611c8c88856124d5565b9050611c99816014612188565b50965086955085905087611cae8260026125a6565b611cb890866124d5565b611cc291906124d5565b9450505050509193509193565b600080600060148681548110611ce757611ce761247f565b6000918252602082200154601780546001600160a01b0319166001600160a01b0392831690811790915560118790556009546040517f3305bd30000000000000000000000000000000000000000000000000000000008152306004820152336024820152604481018a905260648101929092526084820193909352911690633305bd309060a4016020604051808303816000875af1158015611d8d573d6000803e3d6000fd5b505050506040513d601f19601f82011682018060405250810190611db191906125c5565b6009546017546040517fa0f569340000000000000000000000000000000000000000000000000000000081523360048201526001600160a01b03918216602482015260448101889052929450169063a0f56934906064016020604051808303816000875af1158015611e27573d6000803e3d6000fd5b505050506040513d601f19601f82011682018060405250810190611e4b919061258d565b5060019695505050505050565b600060148381548110611e6d57611e6d61247f565b60009182526020822001546040516001600160a01b039091169250829184156108fc02918591818181858888f19350505050158015611eb0573d6000803e3d6000fd5b50604080516001600160a01b0383168152602081018490527f9b320e270eb528aa46b3a21b196f1da153ccb2d5637e892594474e969fe6b7a9910160405180910390a1505050565b600b546040516001600160a01b0390911690819085156108fc029086906000818181858888f19350505050158015611f34573d6000803e3d6000fd5b50604080516001600160a01b0383168152602081018690527fd36f5f37e53a101e11e745c4b553773a94d17d9d7cec00640ac8331369a76d11910160405180910390a150600c546040516001600160a01b0390911690819084156108fc029085906000818181858888f19350505050158015611fb4573d6000803e3d6000fd5b50604080516001600160a01b0383168152602081018590527fd36f5f37e53a101e11e745c4b553773a94d17d9d7cec00640ac8331369a76d11910160405180910390a150600a546040516001600160a01b0390911690819083156108fc029084906000818181858888f19350505050158015612034573d6000803e3d6000fd5b50604080516001600160a01b0383168152602081018490527fd36f5f37e53a101e11e745c4b553773a94d17d9d7cec00640ac8331369a76d11910160405180910390a150505050565b60008060005b601454612092906001906124d5565b811161211357601481815481106120ab576120ab61247f565b60009182526020808320909101546001600160a01b03168083526013909152604082208281556001810183905560028101839055909350906120f060038301826122a2565b6120fe6004830160006122a2565b5050808061210b906124ec565b915050612083565b50612120601460006122a2565b61212c601560006122a2565b50506000601055600190565b600080546001600160a01b038381166001600160a01b0319831681178455604051919092169283917f8be0079c531659141344cd1fd0a4f28419497f9722a3daafe3b4186f6b6457e09190a35050565b600080600084116122015760405162461bcd60e51b815260206004820152602b60248201527f4469766973696f6e206973204e6f7420506f737369626c65202c20427567206960448201527f6e204e756d62657273202100000000000000000000000000000000000000000060648201526084016102d3565b61220b83856125e7565b915061221782846125a6565b61222190856124d5565b90509250929050565b8260038101928215612258579160200282015b8281111561225857825182559160200191906001019061223d565b506122649291506122bc565b5090565b828054828255906000526020600020908101928215612258579160200282018281111561225857825182559160200191906001019061223d565b5080546000825590600052602060002090810190610eba91905b5b8082111561226457600081556001016122bd565b634e487b7160e01b600052604160045260246000fd5b600080604083850312156122fa57600080fd5b8235915060208084013567ffffffffffffffff8082111561231a57600080fd5b818601915086601f83011261232e57600080fd5b813581811115612340576123406122d1565b8060051b604051601f19603f83011681018181108582111715612365576123656122d1565b60405291825284820192508381018501918983111561238357600080fd5b938501935b828510156123a157843584529385019392850192612388565b8096505050505050509250929050565b6000602082840312156123c357600080fd5b81356001600160a01b03811681146123da57600080fd5b9392505050565b6020808252825182820181905260009190848201906040850190845b81811015612419578351835292840192918401916001016123fd565b50909695505050505050565b6020808252825182820181905260009190848201906040850190845b818110156124195783516001600160a01b031683529284019291840191600101612441565b60006020828403121561247857600080fd5b5035919050565b634e487b7160e01b600052603260045260246000fd5b634e487b7160e01b600052601260045260246000fd5b6000826124ba576124ba612495565b500690565b634e487b7160e01b600052601160045260246000fd5b6000828210156124e7576124e76124bf565b500390565b6000600182016124fe576124fe6124bf565b5060010190565b60008219821115612518576125186124bf565b500190565b600060a082016001600160a01b0388168352602060a08185015281885480845260c0860191508960005282600020935060005b8181101561256c57845483526001948501949284019201612550565b50506040850197909752505050606081019290925260809091015292915050565b60006020828403121561259f57600080fd5b5051919050565b60008160001904831182151516156125c0576125c06124bf565b500290565b6000602082840312156125d757600080fd5b815180151581146123da57600080fd5b6000826125f6576125f6612495565b50049056fea26469706673582212209666088aeb57742d3adce5bbeb1035e106b8a7f74f3e5c39a698914e759412de64736f6c634300080d0033",
  "immutableReferences": {
    "10": [
      {
        "length": 32,
        "start": 2222
      },
      {
        "length": 32,
        "start": 2313
      }
    ]
  },
  "source": "// SPDX-License-Identifier: GNU-GPLv3\npragma solidity ^0.8.0;\n// pragma experimental ABIEncoderV2;\n\nimport \"@openzeppelin/contracts/access/Ownable.sol\";\nimport \"@openzeppelin/contracts/utils/math/SafeMath.sol\";\n\nimport \"@chainlink/contracts/src/v0.8/interfaces/LinkTokenInterface.sol\";\nimport \"@chainlink/contracts/src/v0.8/interfaces/VRFCoordinatorV2Interface.sol\";\nimport \"@chainlink/contracts/src/v0.8/VRFConsumerBaseV2.sol\";\n\n\n// import \"./VRFv2SubscriptionManager.sol\";\n// import \"./VRFv2Consumer.sol\";\n\n// import \"truffle/Console.sol\";\n// import \"hardhat/console.sol\";\n\nimport \"./LotteryInterface.sol\";\n\n/**\n************************************************************************************\n************************************************************************************\n*/\n\n/**\n  * @title Core SmartContract for BNB Game Lottery \n  * @author Batis Abhari (https://github.com/baties - ContactMe: abhari_Batis@hotmail.com)\n  * @notice This SmartContract is responsible for implimentation of Lottery Core System and communication with the Players \n  * @dev  \n*/\ncontract LotteryCore is Ownable, VRFConsumerBaseV2 {\n\n  VRFCoordinatorV2Interface COORDINATOR;\n  LinkTokenInterface LINKTOKEN;\n  uint64 s_subscriptionId;\n\n  // Rinkeby coordinator. For other networks,\n  // see https://docs.chain.link/docs/vrf-contracts/#configurations\n  address vrfCoordinator = 0x6168499c0cFfCaCD319c818142124B7A15E857ab;  // Rinkeby\n  // address vrfCoordinator = 0x6A2AAd07396B36Fe02a22b33cf443582f682c82f;  // BSC TestNet coordinator\n\n  // Rinkeby LINK token contract. For other networks,\n  // see https://docs.chain.link/docs/vrf-contracts/#configurations\n  address link = 0x01BE23585060835E02B77ef475b0Cc51aA1e0709;  // Rinkeby\n  // address link = 0x84b9B910527Ad5C03A9Ca831909E21e236EA7b06;  //  BSC TestNet LINK token\n\n  // The gas lane to use, which specifies the maximum gas price to bump to.\n  // For a list of available gas lanes on each network,\n  // see https://docs.chain.link/docs/vrf-contracts/#configurations\n  bytes32 keyHash = 0xd89b2bf150e3b9e13446986e571fb9cab24b13cea0a43ea20a6049a85cc807cc;  // Rinkeby\n  // bytes32 keyHash = 0xd4bb89654db74673a187bd804519e65e3f71a52bc55f11da7601a13dcf505314;  //  BSC TestNet keyhash\n  \n\n  uint32 callbackGasLimit = 100000;\n  uint16 requestConfirmations = 3;\n  uint32 numWords =  1;\n\n  uint256[] public s_randomWords;\n  uint256 public s_requestId;\n\n\n  // address private _VRF;\n  address private generatorLotteryAddr;\n  address private LiquidityPoolAddress;\n  // address private MultiSigWalletAddress;\n  address private WeeklyPotAddress;\n  address private MonthlyPotAddress;   \n  address private LotteryOwner;\n\n  uint constant TICKET_PRICE = 10 * 1e15; // finney (0.01 Ether)\n\n  bool private lPotActive;  \n  bool private lReadySelectWinner; \n  uint public potStartTime = 0;\n  uint private vrfCalledTime = 0;\n  uint public realPLayerCount = 0;\n  uint public potWinnerPrize = 0;\n  bool private lWinnerSelected;\n\n  struct PotPlayerStr{\n    uint PaymentCount;\n    uint paymentValue;\n    uint TicketNumbers;\n    uint[] TicketsId;\n    uint[] PlayersId;\n  }\n\n  mapping (address => PotPlayerStr) private PotPlayersMap;  \n  address[] private potPlayersArray;  \n  uint[] private potTickets;\n  uint[3][] private potTicketIds;  /* ToDo: Change Search routine base on the Start and End of Tickets for each Address (ID)  */ \n  address private potWinnerAddress;\n  address private potDirector;  /* ToDo: All Main Action must be controlled only by Owner or Director */\n   \n  /* ToDo : Lottery Pot Generator Structure as a Wrapper for Lottery Core */\n  // struct LotteryPot{\n  //   string potLabel;\n  //   uint entryCount;\n  //   uint potSerial;\n  //   uint potValue;\n  //   // mapping(address => PotPlayer) players;\n  // }\n\n  event SelectWinnerIndex(uint winnerIndex, uint potBalance, uint winnerPrize);\n  event SelectWinnerAddress(address potWinner, uint winnerPrize);\n  event PlayerRegister(address potPlayer, uint playerId, uint PlayerValue, uint ticketNumber);\n  event PlayerTotalValue(address potPlayer, uint[] playerId, uint playCount, uint playerValue, uint ticketNumber);\n  event TotalPayment(address receiver, uint TrxValue);\n  event ReadyForSelectWinner(bool isReadySelectWinner);\n  event StartSelectngWinner(uint vrfCalledTime);\n  event LogDepositReceived(address sender, uint value);\n\n  // constructor(address VRF, address generatorLotteryAddress, address WeeklyLotteryAddress, address MonthlyLotteryAddress, address LiquidityPoolAddr) {\n  constructor(uint64 subscriptionId, address generatorLotteryAddress, address WeeklyLotteryAddress, address MonthlyLotteryAddress, address LiquidityPoolAddr) VRFConsumerBaseV2(vrfCoordinator) {\n    COORDINATOR = VRFCoordinatorV2Interface(vrfCoordinator);\n    LINKTOKEN = LinkTokenInterface(link);\n    s_subscriptionId = subscriptionId;\n    LotteryOwner = msg.sender;\n    lPotActive = false;\n    lReadySelectWinner = false;\n    lWinnerSelected = false;\n    potStartTime = block.timestamp;\n    generatorLotteryAddr = generatorLotteryAddress;\n    LiquidityPoolAddress = LiquidityPoolAddr ;\n    WeeklyPotAddress = WeeklyLotteryAddress ;\n    MonthlyPotAddress = MonthlyLotteryAddress ;   \n    // _VRF = VRF;\n  }\n\n  /* ToDo : Add & Complete Fallback routine */\n  fallback() external payable isGameOn {\n    require(msg.data.length == 0); \n    require(msg.value >= 0.01 ether && msg.value < 10 ether, \"Value should be between 0.01 & 10 BNB\");\n    if (msg.value > 0) {\n        emit LogDepositReceived(msg.sender,msg.value);\n    }\n  }\n\n  receive() external payable isGameOn {\n    require(msg.value >= 0.01 ether && msg.value < 10 ether, \"Value should be between 0.01 & 10 BNB\");\n    if (msg.value > 0) {\n        emit LogDepositReceived(msg.sender,msg.value);\n    }\n  }\n\n  // modifier onlyOwner() {\n  //   require(msg.sender == LotteryOwner, \"Owner Only! . You have not the right Access.\");\n  //   _;\n  // }\n\n  modifier isAllowedManager() {\n      require( msg.sender == potDirector || msg.sender == LotteryOwner , \"Permission Denied !!\" );\n      _;\n  }\n\n  modifier isGameOn() {\n      require(lPotActive , \"The Pot has not been Ready to Play yet Or The Game is Over!\");  // && !lReadySelectWinner \n      _;\n  }\n\n  modifier isPotValuable() {\n      require( (address(this).balance >= 0.1 ether && potPlayersArray.length >= 5) , \"The Pot is not Filled Enough !\");\n      _;\n  }\n\n  function balanceInPot() public view returns(uint){\n    return address(this).balance;\n  }\n\n  function withdraw() external onlyOwner {\n    payable(msg.sender).transfer(address(this).balance);\n  }\n\n  /**\n    * @notice Request Random Words From VRF Coordinator\n    * @dev For more Details refer to : https://docs.chain.link/docs/chainlink-vrf-best-practices/#getting-multiple-random-numbers\n  */\n  function requestRandomWords() internal isAllowedManager {    \n    // Will revert if subscription is not set and funded.\n    s_requestId = COORDINATOR.requestRandomWords(\n      keyHash,\n      s_subscriptionId,\n      requestConfirmations,\n      callbackGasLimit,\n      numWords\n    );\n  }\n\n  /**\n    * @notice VRF Coordinator Call Back this Function after generating Random Number\n    * @dev For more Details refer to : https://docs.chain.link/docs/chainlink-vrf-best-practices/#getting-multiple-random-numbers\n  */\n  function fulfillRandomWords(\n    uint256, /* requestId */\n    uint256[] memory randomWords\n  ) internal override {\n    s_randomWords = randomWords;\n    // select_Winner_Continue();\n    lWinnerSelected = true;\n    emit ReadyForSelectWinner(lWinnerSelected);\n  }\n\n  /* ToDo : Replace This function with OpenZeppelin SafeMath */\n  /**\n    * @notice Function for deviding two Integer Numbers and return the results.\n    * @dev Safe Function for Devision Operation.\n    * @param numerator : The Integer Number which is being devided on another Integer Number.\n    * @param denominator : The Integer Number which another Int NUmber is devided by this.  \n    * @return quotient and remainder of the Devision, Both are Integer Numbers. \n  */\n  function getDivided(uint numerator, uint denominator) private pure returns(uint quotient, uint remainder) {\n    require( denominator >= 0, \"Division is Not Possible , Bug in Numbers !\");\n    require( numerator > 0, \"Division is Not Possible , Bug in Numbers !\");\n    quotient  = numerator / denominator; \n    remainder = numerator - denominator * quotient;\n  }\n\n  /**\n    * @notice The Local Random Generator Function.\n    * @dev The Local Random Generator Function for Local Development and Running the Tests.\n    * @return None. \n  */\n  function randomGenerator() private view returns (uint) {\n    return uint(\n      keccak256(\n        abi.encodePacked(\n          block.difficulty, block.timestamp, potTickets ))) ;\n  }\n  \n  // function getlRandomWords() external view returns (uint256) {\n  //    return s_randomWords[0];\n  // }\n\n  // function lrequestRandomWords(address _VRFv2) public isAllowedManager {\n  //   VRFv2Consumer(_VRFv2).requestRandomWords() ;\n  // }\n\n  // function getRandomValue(address _VRFv2) public view onlyOwner returns (uint256 randomWords) {\n  //   // uint8 zeroOne = uint8(randomGenerator() % 2);\n  //   // randomWords = randomGenerator();\n  //   randomWords = VRFv2Consumer(_VRFv2).getlRandomWords();\n  // }\n\n  // function rRandomValue() public onlyOwner {\n  //   requestRandomWords();\n  // }\n\n  /**\n    * @notice Hourly Lottery Pot Initialization.\n    * @dev AtFirst The Hourly Lottery have been Initialized for Default but after each Pot it Must be Initialized for next Pot .\n    * @return success Flag \n  */\n  function potInitialize() external isAllowedManager returns(bool success) {\n    require(lPotActive == false, \"The Pot is started before !\");\n    lPotActive = true ;\n    lReadySelectWinner = false;\n    potStartTime = block.timestamp;\n    lWinnerSelected = false;\n    success = true;\n  }\n\n  /**\n    * @notice Hourly Lottery Pot is Pausable, This is the Trigger.\n    * @dev THis Function just Pauses the current Pot Play and Select Winner Routines and Use only for Emergency .\n    * @return success Flag \n  */\n  function potPause() external isAllowedManager returns(bool success) {\n    lPotActive = false ;\n    lReadySelectWinner = false;\n    lWinnerSelected = false;\n    success = true;\n  }\n\n  /**\n    * @notice Players' Operation and Calculation after Sending Transaction to the SmartContract. \n    * @dev Payable Function. \n    * @dev This Function is resposible for Accepting new Gamers in Hourly Lottery \n    * @return success Flag\n  */\n  function play() public payable isGameOn returns(bool success) {\n    require(msg.value >= 0.01 ether && msg.value < 10 ether, \"Value should be between 0.01 & 10 BNB\");\n\n    uint userPotAmount = PotPlayersMap[msg.sender].paymentValue;\n    require(userPotAmount <= 10 ether, \"You played too much !!\");\n\n    /* ToDo: Replace with SafeMath */\n    (uint ticketNumber, uint remainder ) = getDivided(msg.value, TICKET_PRICE); // 10000000000000000\n    require(remainder == 0, \"Value should be an Integer mutiple of 0.01 BNB\");\n\n    potPlayersArray.push( msg.sender );\n    uint id = potPlayersArray.length - 1; \n\n    uint ticketStart = potTickets.length;\n    for (uint jj = 0; jj < ticketNumber; jj++) {\n      potTickets.push( id );\n    }\n    uint ticketEnd = potTickets.length;\n    potTicketIds.push([id, ticketStart, ticketEnd]);\n    uint id2 = potTicketIds.length;\n\n    PotPlayersMap[msg.sender].PaymentCount += 1;\n    PotPlayersMap[msg.sender].paymentValue += msg.value;\n    PotPlayersMap[msg.sender].TicketNumbers += ticketNumber;\n    PotPlayersMap[msg.sender].PlayersId.push( id );\n    PotPlayersMap[msg.sender].TicketsId.push( id2);\n    if (PotPlayersMap[msg.sender].PaymentCount == 1) {\n      realPLayerCount++;\n    }\n\n    if (address(this).balance >= 0.1 ether && realPLayerCount >= 5) {  // // potPlayersArray.length\n      lReadySelectWinner = true;\n    } \n\n    emit PlayerRegister(msg.sender, id, msg.value, ticketNumber) ;\n    if (PotPlayersMap[msg.sender].PaymentCount > 1) {\n        emit PlayerTotalValue(msg.sender, PotPlayersMap[msg.sender].PlayersId, PotPlayersMap[msg.sender].PaymentCount, PotPlayersMap[msg.sender].paymentValue, PotPlayersMap[msg.sender].TicketNumbers) ;\n    }    \n\n    return success;\n  }\n\n  /**\n    * @notice Hourly Lottery Pot Winner Selection, This Winner is Selected among Hourly Member List.\n    * @dev Hourly Lottery Pot Winner Selection Start Process, This Function Just Called Request Random Number Routine For Communicate with VRF Coordinator.\n    * @return success Flag \n  */\n  function select_Winner() public isAllowedManager returns(bool success) {  \n\n    require(lReadySelectWinner == true, \"The Pot is not ready for Selecting the Winner\");\n    require(lWinnerSelected == false, \"The Winner has Not been Selected Yet !\");\n\n    // lPotActive = false;\n    vrfCalledTime = block.timestamp;\n    emit StartSelectngWinner(vrfCalledTime);\n    requestRandomWords();\n\n    success = true;\n\n  }\n\n  /**\n    * @notice Hourly Lottery Pot Winner Selection Continue, This Function Selects The Winner With Random Number Generated.\n    * @dev Hourly Lottery Pot Winner Selection Continue, This Function Only Call after fulfillRandomWords is Called. \n    * @dev This Function is responsible for Updating Lottery Data, Pay the Winner Prize & then clear and Release the Memory\n    * @return success Flag \n  */\n  function select_Winner_Continue() public isAllowedManager returns(bool success) {  \n    \n    require(lReadySelectWinner == true, \"The Pot is not ready for Selecting the Winner\");\n    // if (planB_VRFDelay() == false) {\n      require(lWinnerSelected == true, \"The Winner has been Selected before !!\");\n    // }\n\n    uint winnerIndex = s_randomWords[0] % potTickets.length;    // l_randomWords\n    winnerIndex = potTickets[winnerIndex];\n    (uint winnerPrize, uint weeklyPot, uint monthlyPot, uint liquidityAmount) = Calculation(winnerIndex);\n    \n    emit SelectWinnerIndex(winnerIndex, address(this).balance, winnerPrize);\n\n    UpdateLotteryData(winnerIndex, address(this).balance, winnerPrize);\n    WinnerPrizePayment(winnerIndex, winnerPrize); \n    FinalPayment(weeklyPot, monthlyPot, liquidityAmount);\n    ClearDataBase();\n    // console.log(\"Select Winner Done !\");\n\n    lPotActive = false;\n    lReadySelectWinner = false;\n    lWinnerSelected = false;\n    success = true;\n\n  }\n\n  /**\n    * @notice Release Smart Contract Memory .\n    * @dev Clear All Storages .\n    * @return True\n  */\n  function ClearDataBase() private returns (bool) {\n    /* ToDo : Clear The Map Data and RElease the Memory */  \n    address playerAddress;\n    for (uint256 index = 0; index <= potPlayersArray.length - 1; index++) {\n        playerAddress = potPlayersArray[index];\n        // if (PotPlayersMap[playerAddress].PaymentCount > 0) {\n        //     PotPlayersMap[playerAddress].PaymentCount = 0;\n        //     PotPlayersMap[playerAddress].paymentValue = 0;\n        //     PotPlayersMap[playerAddress].TicketNumbers = 0;\n        //     delete PotPlayersMap[playerAddress].PlayersId;\n        //     delete PotPlayersMap[playerAddress].TicketsId;\n        // }\n        delete PotPlayersMap[playerAddress];\n    }\n    delete potPlayersArray;\n    delete potTickets;\n    realPLayerCount = 0;\n    return true;\n  }\n\n  /**\n    * @notice Calculation of Pot Winner Prize.\n    * @dev Findout the 50% of the Total Pot and The Winner payment and Calculation of Weekly & Monthly Pot Prizes.\n  */\n  function Calculation(uint _winnerIndex) private view returns (uint winnerPrize, uint weeklyPot, uint monthlyPot, uint liquidityAmount){\n\n    uint totalPot = address(this).balance;\n    address WinnerAddress = potPlayersArray[_winnerIndex];\n    uint WinnerPotAmount = PotPlayersMap[WinnerAddress].paymentValue;\n\n    winnerPrize = totalPot - WinnerPotAmount;\n    /* ToDo : Replace Calculation Parts with OpenZeppelin SafeMath ) */\n    (winnerPrize, ) = getDivided(winnerPrize, 2);\n    winnerPrize += WinnerPotAmount; \n\n    uint otherPots = totalPot - winnerPrize;\n    (otherPots, ) = getDivided(otherPots, 20);\n    weeklyPot = otherPots;\n    monthlyPot = otherPots;\n    liquidityAmount = totalPot - 2 * otherPots - winnerPrize;\n\n  }\n\n  /**\n    * @notice Pay Pot Prize to the Winner.\n    * @dev Transfer Pot Prize to the Winner.\n  */\n  function WinnerPrizePayment(uint _winnerIndex, uint _winnerPrize) private {\n\n    address payable potWinner = payable(potPlayersArray[_winnerIndex]);  \n    potWinner.transfer(_winnerPrize);\n    emit SelectWinnerAddress(potWinner, _winnerPrize);\n    // potPlayers[winnerIndex].transfer(address(this).balance);\n\n  }\n\n  /**\n    * @notice Remaining Pot Money Transfer.\n    * @dev Transfer remaining Money to the Weekly Pot, Monthly Pot & Liquidity Pool.\n  */\n  function FinalPayment(uint weeklyPot, uint monthlyPot, uint liquidityAmount) private {   // onlyOwner \n\n    // uint TrxValue = address(this).balance;\n    // address payable receiver = payable(WeeklyPotAddress);\n    // TrxValue = address(this).balance; \n    // receiver.transfer(TrxValue);\n    // emit TotalPayment(receiver, TrxValue);\n\n    address payable receiver = payable(WeeklyPotAddress);\n    receiver.transfer(weeklyPot);\n    emit TotalPayment(receiver, weeklyPot);\n\n    receiver = payable(MonthlyPotAddress);\n    receiver.transfer(monthlyPot);\n    emit TotalPayment(receiver, monthlyPot);\n\n    receiver = payable(LiquidityPoolAddress);\n    receiver.transfer(liquidityAmount);\n    emit TotalPayment(receiver, liquidityAmount);\n\n  }\n\n  /**\n    * @notice Save The Winner Address for Weekly Lottery\n    * @dev Update Generator Smart Contract For Saving Hourly Winner Address\n  */\n  function UpdateLotteryData(uint _winnerIndex, uint _balance, uint _winnerPrize) private returns(bool) {\n    bool _success;\n    uint _winnerId;\n    // address _winnerAddress = potPlayersArray[_winnerIndex];\n    potWinnerAddress = potPlayersArray[_winnerIndex];\n    potWinnerPrize = _winnerPrize;\n    _success = LotteryInterface(generatorLotteryAddr).setlotteryStructs(address(this), msg.sender, _balance, potWinnerAddress, 0);  \n    _winnerId = LotteryInterface(generatorLotteryAddr).setlotteryWinnersArrayMap(msg.sender, potWinnerAddress, _winnerPrize);  \n    return true;\n  }\n\n  /**\n    * @notice This Function is Only a PLan B for When The VRF Coordinator does not respond in a short time .\n    * @dev Only If after 5 min the VRF Coordinator does not respond This function Change the lWinnerSelected to True so the Last Random Word used instead of a new one .\n    * @return isActive Flag \n  */\n  function planB_VRFDelay() public isAllowedManager returns(bool isActive){ \n    require(lReadySelectWinner == true, \"The Pot is not ready for Selecting the Winner\");\n    require(lWinnerSelected == false, \"The Winner has been Selected before !!\");\n    uint nowTime = block.timestamp;\n    uint waitTime = 0;\n    if (nowTime > vrfCalledTime) {\n      waitTime = nowTime - vrfCalledTime ;\n      if (waitTime > 5 minutes) {\n          lWinnerSelected = true;\n          isActive = true;\n      } else {\n        isActive = false;\n      }\n    } else {\n      isActive = false;\n    }\n  }\n\n  function set_WeeklyPotAddress(address _WeeklyPotAddress) external onlyOwner {\n    require(_WeeklyPotAddress != address(0) );\n    WeeklyPotAddress = _WeeklyPotAddress;\n  }\n\n  function set_MonthlyPotAddress(address _MonthlyPotAddress) external onlyOwner {\n    require(_MonthlyPotAddress != address(0) );\n    MonthlyPotAddress = _MonthlyPotAddress;\n  }\n\n  function set_generatorLotteryAddress(address _contractAddr) external onlyOwner {\n    generatorLotteryAddr = _contractAddr;\n  }\n\n  function set_LiquidityPoolAddress(address _LiquidityPoolAddress) external onlyOwner {\n    require(_LiquidityPoolAddress != address(0) );\n    LiquidityPoolAddress = _LiquidityPoolAddress;\n  }\n\n  // function set_MultiSigWalletAddress(address _MultiSigWalletAddress) external onlyOwner {\n  //   require(_MultiSigWalletAddress != address(0) );\n  //   MultiSigWalletAddress = _MultiSigWalletAddress;\n  // }\n\n  function setDirector(address _DirectorAddress) external onlyOwner {\n    require(_DirectorAddress != address(0) );\n    potDirector = _DirectorAddress;\n  }\n\n  function listPlayers() public view returns (address[] memory){  \n    return potPlayersArray;  \n  }\n\n  function getLotteryTickets() public view returns(uint[] memory) {\n    return potTickets;\n  }\n\n  function isPotActive() public view returns(bool) {\n    return lPotActive;\n  }\n\n  function getTicketPrice() public pure returns(uint) {\n    return TICKET_PRICE;\n  }\n\n  function getTicketAmount() public view returns(uint) {\n    return potTickets.length;\n  }\n\n  function getPlayersNumber() public view returns(uint) {\n    return potPlayersArray.length;\n  }\n\n  function getWinners() public view returns(address, uint) {\n    return ( potWinnerAddress, potWinnerPrize ) ;  \n  }  \n\n  function isReadySelectWinner() public view returns(bool) {\n    return lReadySelectWinner;\n  }\n\n  function isWinnerSelected() public view returns(bool) {\n    return lWinnerSelected;\n  }\n\n  function getStartedTime() public view returns(uint) {\n    return block.timestamp - potStartTime;\n  }\n\n  function getPotDirector() public view returns(address) {\n    return potDirector;\n  }\n\n  // function getVerifier() public view returns(address) {\n  //   return _VRF;\n  // }\n\n  // function getAllContractAddresses() public view returns(address[] memory) {\n  //   address[] memory contractAddresses;\n  //   contractAddresses[0] = generatorLotteryAddr;\n  //   contractAddresses[1] = LiquidityPoolAddress;\n  //   contractAddresses[2] = WeeklyPotAddress;\n  //   contractAddresses[3] = MonthlyPotAddress;\n  //   return contractAddresses;\n  // }\n  function getAllContractAddresses() public view returns(address gAddress, address lAddress, address wAddress, address mAddress) {\n    gAddress = generatorLotteryAddr ;\n    lAddress = LiquidityPoolAddress ;\n    wAddress = WeeklyPotAddress ;\n    mAddress = MonthlyPotAddress ;\n    return (gAddress, lAddress, wAddress, mAddress); \n  }\n\n  function getPlayerAmounts(address PlayerAddress) public view returns(uint, uint) {\n    uint PaymentCount = PotPlayersMap[PlayerAddress].PaymentCount;\n    uint PaymentValue = PotPlayersMap[PlayerAddress].paymentValue;\n    return (PaymentCount, PaymentValue);\n  }\n\n  function getPlayerValue(address PlayerAddress) public view returns(uint) {\n    uint PaymentValue = PotPlayersMap[PlayerAddress].paymentValue;\n    return PaymentValue;\n  }\n\n}\n\n\n/**\n************************************************************************************\n************************************************************************************\n**/\n",
  "sourcePath": "/home/batis/SrcCode/myPRJ/SmartContBlockChain/BSCLottery/contracts/LotteryCore.sol",
  "compiler": {
    "name": "solc",
    "version": "0.8.13+commit.abaa5c0e.Emscripten.clang"
  },
  "schemaVersion": "3.4.3",
  "updatedAt": "2022-07-03T13:29:42.016Z",
  "networkType": "ethereum",
  "devdoc": {
    "author": "Batis Abhari (https://github.com/baties - ContactMe: abhari_Batis@hotmail.com)",
    "kind": "dev",
    "methods": {
      "owner()": {
        "details": "Returns the address of the current owner."
      },
      "planB_VRFDelay()": {
        "details": "Only If after 5 min the VRF Coordinator does not respond This function Change the lWinnerSelected to True so the Last Random Word used instead of a new one .",
        "returns": {
          "isActive": "Flag "
        }
      },
      "play()": {
        "details": "Payable Function. This Function is resposible for Accepting new Gamers in Hourly Lottery ",
        "returns": {
          "success": "Flag"
        }
      },
      "potInitialize()": {
        "details": "AtFirst The Hourly Lottery have been Initialized for Default but after each Pot it Must be Initialized for next Pot .",
        "returns": {
          "success": "Flag "
        }
      },
      "potPause()": {
        "details": "THis Function just Pauses the current Pot Play and Select Winner Routines and Use only for Emergency .",
        "returns": {
          "success": "Flag "
        }
      },
      "renounceOwnership()": {
        "details": "Leaves the contract without owner. It will not be possible to call `onlyOwner` functions anymore. Can only be called by the current owner. NOTE: Renouncing ownership will leave the contract without an owner, thereby removing any functionality that is only available to the owner."
      },
      "select_Winner()": {
        "details": "Hourly Lottery Pot Winner Selection Start Process, This Function Just Called Request Random Number Routine For Communicate with VRF Coordinator.",
        "returns": {
          "success": "Flag "
        }
      },
      "select_Winner_Continue()": {
        "details": "Hourly Lottery Pot Winner Selection Continue, This Function Only Call after fulfillRandomWords is Called. This Function is responsible for Updating Lottery Data, Pay the Winner Prize & then clear and Release the Memory",
        "returns": {
          "success": "Flag "
        }
      },
      "transferOwnership(address)": {
        "details": "Transfers ownership of the contract to a new account (`newOwner`). Can only be called by the current owner."
      }
    },
    "title": "Core SmartContract for BNB Game Lottery ",
    "version": 1
  },
  "userdoc": {
    "kind": "user",
    "methods": {
      "planB_VRFDelay()": {
        "notice": "This Function is Only a PLan B for When The VRF Coordinator does not respond in a short time ."
      },
      "play()": {
        "notice": "Players' Operation and Calculation after Sending Transaction to the SmartContract. "
      },
      "potInitialize()": {
        "notice": "Hourly Lottery Pot Initialization."
      },
      "potPause()": {
        "notice": "Hourly Lottery Pot is Pausable, This is the Trigger."
      },
      "select_Winner()": {
        "notice": "Hourly Lottery Pot Winner Selection, This Winner is Selected among Hourly Member List."
      },
      "select_Winner_Continue()": {
        "notice": "Hourly Lottery Pot Winner Selection Continue, This Function Selects The Winner With Random Number Generated."
      }
    },
    "notice": "This SmartContract is responsible for implimentation of Lottery Core System and communication with the Players ",
    "version": 1
  }
}