{
  "contractName": "LotteryGenerator",
  "abi": [
    {
      "inputs": [],
      "stateMutability": "nonpayable",
      "type": "constructor"
    },
    {
      "anonymous": false,
      "inputs": [
        {
          "indexed": false,
          "internalType": "address",
          "name": "newLottery",
          "type": "address"
        }
      ],
      "name": "LotteryCreated",
      "type": "event"
    },
    {
      "anonymous": false,
      "inputs": [
        {
          "indexed": true,
          "internalType": "address",
          "name": "previousOwner",
          "type": "address"
        },
        {
          "indexed": true,
          "internalType": "address",
          "name": "newOwner",
          "type": "address"
        }
      ],
      "name": "OwnershipTransferred",
      "type": "event"
    },
    {
      "stateMutability": "payable",
      "type": "fallback",
      "payable": true
    },
    {
      "inputs": [
        {
          "internalType": "uint256",
          "name": "",
          "type": "uint256"
        }
      ],
      "name": "LotteryWinnersArray",
      "outputs": [
        {
          "internalType": "address",
          "name": "",
          "type": "address"
        }
      ],
      "stateMutability": "view",
      "type": "function",
      "constant": true
    },
    {
      "inputs": [
        {
          "internalType": "uint256",
          "name": "",
          "type": "uint256"
        }
      ],
      "name": "LotteryWinnersArrayPrizes",
      "outputs": [
        {
          "internalType": "uint256",
          "name": "",
          "type": "uint256"
        }
      ],
      "stateMutability": "view",
      "type": "function",
      "constant": true
    },
    {
      "inputs": [
        {
          "internalType": "address",
          "name": "",
          "type": "address"
        }
      ],
      "name": "LotteryWinnersMap",
      "outputs": [
        {
          "internalType": "uint256",
          "name": "playersId",
          "type": "uint256"
        },
        {
          "internalType": "uint256",
          "name": "winnerCount",
          "type": "uint256"
        }
      ],
      "stateMutability": "view",
      "type": "function",
      "constant": true
    },
    {
      "inputs": [
        {
          "internalType": "uint256",
          "name": "",
          "type": "uint256"
        }
      ],
      "name": "MonthlyWinnersArray",
      "outputs": [
        {
          "internalType": "address",
          "name": "",
          "type": "address"
        }
      ],
      "stateMutability": "view",
      "type": "function",
      "constant": true
    },
    {
      "inputs": [
        {
          "internalType": "uint256",
          "name": "",
          "type": "uint256"
        }
      ],
      "name": "MonthlyWinnersArrayPrizes",
      "outputs": [
        {
          "internalType": "uint256",
          "name": "",
          "type": "uint256"
        }
      ],
      "stateMutability": "view",
      "type": "function",
      "constant": true
    },
    {
      "inputs": [
        {
          "internalType": "address",
          "name": "",
          "type": "address"
        }
      ],
      "name": "MonthlyWinnersMap",
      "outputs": [
        {
          "internalType": "uint256",
          "name": "playersId",
          "type": "uint256"
        },
        {
          "internalType": "uint256",
          "name": "winnerCount",
          "type": "uint256"
        }
      ],
      "stateMutability": "view",
      "type": "function",
      "constant": true
    },
    {
      "inputs": [
        {
          "internalType": "uint256",
          "name": "",
          "type": "uint256"
        }
      ],
      "name": "WeeklyWinnersArray",
      "outputs": [
        {
          "internalType": "address",
          "name": "",
          "type": "address"
        }
      ],
      "stateMutability": "view",
      "type": "function",
      "constant": true
    },
    {
      "inputs": [
        {
          "internalType": "uint256",
          "name": "",
          "type": "uint256"
        }
      ],
      "name": "WeeklyWinnersArrayPrizes",
      "outputs": [
        {
          "internalType": "uint256",
          "name": "",
          "type": "uint256"
        }
      ],
      "stateMutability": "view",
      "type": "function",
      "constant": true
    },
    {
      "inputs": [
        {
          "internalType": "address",
          "name": "",
          "type": "address"
        }
      ],
      "name": "WeeklyWinnersMap",
      "outputs": [
        {
          "internalType": "uint256",
          "name": "playersId",
          "type": "uint256"
        },
        {
          "internalType": "uint256",
          "name": "winnerCount",
          "type": "uint256"
        }
      ],
      "stateMutability": "view",
      "type": "function",
      "constant": true
    },
    {
      "inputs": [
        {
          "internalType": "uint256",
          "name": "",
          "type": "uint256"
        }
      ],
      "name": "lotteries",
      "outputs": [
        {
          "internalType": "address",
          "name": "",
          "type": "address"
        }
      ],
      "stateMutability": "view",
      "type": "function",
      "constant": true
    },
    {
      "inputs": [],
      "name": "owner",
      "outputs": [
        {
          "internalType": "address",
          "name": "",
          "type": "address"
        }
      ],
      "stateMutability": "view",
      "type": "function",
      "constant": true
    },
    {
      "inputs": [],
      "name": "renounceOwnership",
      "outputs": [],
      "stateMutability": "nonpayable",
      "type": "function"
    },
    {
      "inputs": [
        {
          "internalType": "address",
          "name": "newOwner",
          "type": "address"
        }
      ],
      "name": "transferOwnership",
      "outputs": [],
      "stateMutability": "nonpayable",
      "type": "function"
    },
    {
      "stateMutability": "payable",
      "type": "receive",
      "payable": true
    },
    {
      "inputs": [],
      "name": "balanceInPot",
      "outputs": [
        {
          "internalType": "uint256",
          "name": "",
          "type": "uint256"
        }
      ],
      "stateMutability": "view",
      "type": "function",
      "constant": true
    },
    {
      "inputs": [],
      "name": "withdraw",
      "outputs": [],
      "stateMutability": "nonpayable",
      "type": "function"
    },
    {
      "inputs": [],
      "name": "getWinners",
      "outputs": [
        {
          "internalType": "address[]",
          "name": "",
          "type": "address[]"
        }
      ],
      "stateMutability": "view",
      "type": "function",
      "constant": true
    },
    {
      "inputs": [],
      "name": "getWeeklyWinners",
      "outputs": [
        {
          "internalType": "address[]",
          "name": "",
          "type": "address[]"
        }
      ],
      "stateMutability": "view",
      "type": "function",
      "constant": true
    },
    {
      "inputs": [],
      "name": "getMonthlyWinners",
      "outputs": [
        {
          "internalType": "address[]",
          "name": "",
          "type": "address[]"
        }
      ],
      "stateMutability": "view",
      "type": "function",
      "constant": true
    },
    {
      "inputs": [],
      "name": "getPotDirector",
      "outputs": [
        {
          "internalType": "address",
          "name": "",
          "type": "address"
        }
      ],
      "stateMutability": "view",
      "type": "function",
      "constant": true
    },
    {
      "inputs": [
        {
          "internalType": "address",
          "name": "_DirectorAddress",
          "type": "address"
        }
      ],
      "name": "setDirector",
      "outputs": [],
      "stateMutability": "nonpayable",
      "type": "function"
    },
    {
      "inputs": [
        {
          "internalType": "address",
          "name": "_lotteryAddress",
          "type": "address"
        },
        {
          "internalType": "address",
          "name": "_commander",
          "type": "address"
        },
        {
          "internalType": "uint256",
          "name": "_totalBalance",
          "type": "uint256"
        },
        {
          "internalType": "address",
          "name": "_winnerAddress",
          "type": "address"
        },
        {
          "internalType": "uint8",
          "name": "_lotteryType",
          "type": "uint8"
        }
      ],
      "name": "setlotteryStructs",
      "outputs": [
        {
          "internalType": "bool",
          "name": "",
          "type": "bool"
        }
      ],
      "stateMutability": "nonpayable",
      "type": "function"
    },
    {
      "inputs": [
        {
          "internalType": "address",
          "name": "_commander",
          "type": "address"
        },
        {
          "internalType": "address",
          "name": "_winnerAddress",
          "type": "address"
        },
        {
          "internalType": "uint256",
          "name": "_winnerPrize",
          "type": "uint256"
        }
      ],
      "name": "setlotteryWinnersArrayMap",
      "outputs": [
        {
          "internalType": "uint256",
          "name": "",
          "type": "uint256"
        }
      ],
      "stateMutability": "nonpayable",
      "type": "function"
    },
    {
      "inputs": [
        {
          "internalType": "address",
          "name": "_commander",
          "type": "address"
        },
        {
          "internalType": "address",
          "name": "_winnerAddress",
          "type": "address"
        },
        {
          "internalType": "uint256",
          "name": "_winnerPrize",
          "type": "uint256"
        }
      ],
      "name": "setWeeklyWinnersArrayMap",
      "outputs": [
        {
          "internalType": "uint256",
          "name": "",
          "type": "uint256"
        }
      ],
      "stateMutability": "nonpayable",
      "type": "function"
    },
    {
      "inputs": [
        {
          "internalType": "address",
          "name": "_commander",
          "type": "address"
        },
        {
          "internalType": "address",
          "name": "_winnerAddress",
          "type": "address"
        },
        {
          "internalType": "uint256",
          "name": "_winnerPrize",
          "type": "uint256"
        }
      ],
      "name": "setMonthlyWinnersArrayMap",
      "outputs": [
        {
          "internalType": "uint256",
          "name": "",
          "type": "uint256"
        }
      ],
      "stateMutability": "nonpayable",
      "type": "function"
    },
    {
      "inputs": [
        {
          "internalType": "address",
          "name": "_commander",
          "type": "address"
        }
      ],
      "name": "clearlotteryWinnersArrayMap",
      "outputs": [
        {
          "internalType": "bool",
          "name": "",
          "type": "bool"
        }
      ],
      "stateMutability": "nonpayable",
      "type": "function"
    },
    {
      "inputs": [
        {
          "internalType": "address",
          "name": "_commander",
          "type": "address"
        }
      ],
      "name": "clearWeeklyWinnersArrayMap",
      "outputs": [
        {
          "internalType": "bool",
          "name": "",
          "type": "bool"
        }
      ],
      "stateMutability": "nonpayable",
      "type": "function"
    },
    {
      "inputs": [
        {
          "internalType": "address",
          "name": "_commander",
          "type": "address"
        }
      ],
      "name": "clearMonthlyWinnersArrayMap",
      "outputs": [
        {
          "internalType": "bool",
          "name": "",
          "type": "bool"
        }
      ],
      "stateMutability": "nonpayable",
      "type": "function"
    }
  ],
  "bytecode": "0x608060405234801561001057600080fd5b5061001a33610031565b600380546001600160a01b03191633179055610081565b600080546001600160a01b038381166001600160a01b0319831681178455604051919092169283917f8be0079c531659141344cd1fd0a4f28419497f9722a3daafe3b4186f6b6457e09190a35050565b611382806100906000396000f3fe6080604052600436106101985760003560e01c806354a1ec73116100e0578063b14a60b111610084578063df15c37e11610061578063df15c37e146104d9578063f0446ecb146104ee578063f2fde38b1461050e578063f67112391461052e57005b8063b14a60b114610467578063befb0b891461049b578063c5ae6f3e146104bb57005b80638da5cb5b116100bd5780638da5cb5b146103e9578063a0f5693414610407578063a35e151c14610427578063a55b4f981461044757005b806354a1ec7314610380578063653ea439146103a0578063715018a6146103d457005b806328a1d4aa11610147578063330efa7211610124578063330efa72146103165780633ccfd60b146103365780634488d6791461034b5780634c56018f1461036057005b806328a1d4aa146102a657806332f655fd146102c65780633305bd30146102f657005b80631c1f5389116101755780631c1f53891461021d57806326ba431914610266578063277550e91461028657005b80631398e076146101a157806314e59987146101de578063195b6e9d146101fb57005b3661019f57005b005b3480156101ad57600080fd5b506101c16101bc366004611192565b61054e565b6040516001600160a01b0390911681526020015b60405180910390f35b3480156101ea57600080fd5b50475b6040519081526020016101d5565b34801561020757600080fd5b50610210610578565b6040516101d591906111ab565b34801561022957600080fd5b50610251610238366004611214565b6007602052600090815260409020805460019091015482565b604080519283526020830191909152016101d5565b34801561027257600080fd5b5061019f610281366004611214565b6105da565b34801561029257600080fd5b506101c16102a1366004611192565b61066e565b3480156102b257600080fd5b506101ed6102c1366004611192565b61067e565b3480156102d257600080fd5b506102e66102e1366004611214565b61069f565b60405190151581526020016101d5565b34801561030257600080fd5b506102e6610311366004611236565b61079e565b34801561032257600080fd5b506101ed610331366004611192565b6108e9565b34801561034257600080fd5b5061019f6108f9565b34801561035757600080fd5b50610210610982565b34801561036c57600080fd5b506101ed61037b36600461129e565b6109e2565b34801561038c57600080fd5b506102e661039b366004611214565b610b07565b3480156103ac57600080fd5b506102516103bb366004611214565b600a602052600090815260409020805460019091015482565b3480156103e057600080fd5b5061019f610bfc565b3480156103f557600080fd5b506000546001600160a01b03166101c1565b34801561041357600080fd5b506101ed61042236600461129e565b610c62565b34801561043357600080fd5b506101c1610442366004611192565b610d87565b34801561045357600080fd5b506102e6610462366004611214565b610d97565b34801561047357600080fd5b50610251610482366004611214565b600d602052600090815260409020805460019091015482565b3480156104a757600080fd5b506101ed6104b636600461129e565b610e8c565b3480156104c757600080fd5b506004546001600160a01b03166101c1565b3480156104e557600080fd5b50610210610fb1565b3480156104fa57600080fd5b506101ed610509366004611192565b611011565b34801561051a57600080fd5b5061019f610529366004611214565b611021565b34801561053a57600080fd5b506101c1610549366004611192565b611100565b6001818154811061055e57600080fd5b6000918252602090912001546001600160a01b0316905081565b6060600b8054806020026020016040519081016040528092919081815260200182805480156105d057602002820191906000526020600020905b81546001600160a01b031681526001909101906020018083116105b2575b5050505050905090565b6000546001600160a01b031633146106395760405162461bcd60e51b815260206004820181905260248201527f4f776e61626c653a2063616c6c6572206973206e6f7420746865206f776e657260448201526064015b60405180910390fd5b6001600160a01b03811661064c57600080fd5b600480546001600160a01b0319166001600160a01b0392909216919091179055565b600b818154811061055e57600080fd5b6009818154811061068e57600080fd5b600091825260209091200154905081565b60045460009082906001600160a01b03808316911614806106cd57506003546001600160a01b038281169116145b6107195760405162461bcd60e51b815260206004820152601c60248201527f284f776e657229205065726d697373696f6e2044656e696564202121000000006044820152606401610630565b6000805b60085461072c906001906112f0565b811015610787576008818154811061074657610746611307565b60009182526020808320909101546001600160a01b0316808352600a909152604082208281556001019190915591508061077f8161131d565b91505061071d565b5061079460086000611160565b5060019392505050565b60045460009085906001600160a01b03808316911614806107cc57506003546001600160a01b038281169116145b6108185760405162461bcd60e51b815260206004820152601c60248201527f284f776e657229205065726d697373696f6e2044656e696564202121000000006044820152606401610630565b6001600160a01b038781166000908152600260208190526040909120908101879055600390810180546001600160a01b0319169287169290921790915560ff84169081111561086957610869611336565b6001600160a01b03881660009081526002602052604090206003908101805490917fffffffffffffffffffffff00ffffffffffffffffffffffffffffffffffffffff90911690740100000000000000000000000000000000000000009084908111156108d7576108d7611336565b02179055506001979650505050505050565b6006818154811061068e57600080fd5b6000546001600160a01b031633146109535760405162461bcd60e51b815260206004820181905260248201527f4f776e61626c653a2063616c6c6572206973206e6f7420746865206f776e65726044820152606401610630565b60405133904780156108fc02916000818181858888f1935050505015801561097f573d6000803e3d6000fd5b50565b606060088054806020026020016040519081016040528092919081815260200182805480156105d0576020028201919060005260206000209081546001600160a01b031681526001909101906020018083116105b2575050505050905090565b60045460009084906001600160a01b0380831691161480610a1057506003546001600160a01b038281169116145b610a5c5760405162461bcd60e51b815260206004820152601c60248201527f284f776e657229205065726d697373696f6e2044656e696564202121000000006044820152606401610630565b600b8054600180820183557f0175b7a638427703f0dbe7bb9bbf987a2551717b34e79f33b5b1008d1fa01db990910180546001600160a01b0319166001600160a01b038816908117909155600c80548084019091557fdf6966c971051c3d54ec59162606531493a51404a002842f56009d7e5cf4a8c70186905591546000928352600d6020526040832090815501805491610af68361131d565b9091555050600b5495945050505050565b60045460009082906001600160a01b0380831691161480610b3557506003546001600160a01b038281169116145b610b815760405162461bcd60e51b815260206004820152601c60248201527f284f776e657229205065726d697373696f6e2044656e696564202121000000006044820152606401610630565b6000805b600554610b94906001906112f0565b811015610bef5760058181548110610bae57610bae611307565b60009182526020808320909101546001600160a01b031680835260079091526040822082815560010191909155915080610be78161131d565b915050610b85565b5061079460056000611160565b6000546001600160a01b03163314610c565760405162461bcd60e51b815260206004820181905260248201527f4f776e61626c653a2063616c6c6572206973206e6f7420746865206f776e65726044820152606401610630565b610c606000611110565b565b60045460009084906001600160a01b0380831691161480610c9057506003546001600160a01b038281169116145b610cdc5760405162461bcd60e51b815260206004820152601c60248201527f284f776e657229205065726d697373696f6e2044656e696564202121000000006044820152606401610630565b60058054600180820183557f036b6384b5eca791c62761152d0c79bb0604c104a5fb6f4eb0703f3154bb3db090910180546001600160a01b0319166001600160a01b038816908117909155600680548084019091557ff652222313e28459528d920b65115c16c04f3efc82aaedc97be59f3f377c0d3f018690559154600092835260076020526040832090815501805491610d768361131d565b909155505060055495945050505050565b6008818154811061055e57600080fd5b60045460009082906001600160a01b0380831691161480610dc557506003546001600160a01b038281169116145b610e115760405162461bcd60e51b815260206004820152601c60248201527f284f776e657229205065726d697373696f6e2044656e696564202121000000006044820152606401610630565b6000805b600b54610e24906001906112f0565b811015610e7f57600b8181548110610e3e57610e3e611307565b60009182526020808320909101546001600160a01b0316808352600d9091526040822082815560010191909155915080610e778161131d565b915050610e15565b50610794600b6000611160565b60045460009084906001600160a01b0380831691161480610eba57506003546001600160a01b038281169116145b610f065760405162461bcd60e51b815260206004820152601c60248201527f284f776e657229205065726d697373696f6e2044656e696564202121000000006044820152606401610630565b60088054600180820183557ff3f7a9fe364faab93b216da50a3214154f22a0a2b415b23a84c8169e8b636ee390910180546001600160a01b0319166001600160a01b038816908117909155600980548084019091557f6e1540171b6c0c960b71a7020d9f60077f6af931a8bbf590da0223dacf75c7af0186905591546000928352600a6020526040832090815501805491610fa08361131d565b909155505060085495945050505050565b606060058054806020026020016040519081016040528092919081815260200182805480156105d0576020028201919060005260206000209081546001600160a01b031681526001909101906020018083116105b2575050505050905090565b600c818154811061068e57600080fd5b6000546001600160a01b0316331461107b5760405162461bcd60e51b815260206004820181905260248201527f4f776e61626c653a2063616c6c6572206973206e6f7420746865206f776e65726044820152606401610630565b6001600160a01b0381166110f75760405162461bcd60e51b815260206004820152602660248201527f4f776e61626c653a206e6577206f776e657220697320746865207a65726f206160448201527f64647265737300000000000000000000000000000000000000000000000000006064820152608401610630565b61097f81611110565b6005818154811061055e57600080fd5b600080546001600160a01b038381166001600160a01b0319831681178455604051919092169283917f8be0079c531659141344cd1fd0a4f28419497f9722a3daafe3b4186f6b6457e09190a35050565b508054600082559060005260206000209081019061097f91905b8082111561118e576000815560010161117a565b5090565b6000602082840312156111a457600080fd5b5035919050565b6020808252825182820181905260009190848201906040850190845b818110156111ec5783516001600160a01b0316835292840192918401916001016111c7565b50909695505050505050565b80356001600160a01b038116811461120f57600080fd5b919050565b60006020828403121561122657600080fd5b61122f826111f8565b9392505050565b600080600080600060a0868803121561124e57600080fd5b611257866111f8565b9450611265602087016111f8565b93506040860135925061127a606087016111f8565b9150608086013560ff8116811461129057600080fd5b809150509295509295909350565b6000806000606084860312156112b357600080fd5b6112bc846111f8565b92506112ca602085016111f8565b9150604084013590509250925092565b634e487b7160e01b600052601160045260246000fd5b600082821015611302576113026112da565b500390565b634e487b7160e01b600052603260045260246000fd5b60006001820161132f5761132f6112da565b5060010190565b634e487b7160e01b600052602160045260246000fdfea26469706673582212205cdb713c9e076b568b9b2d76076d774ba43feab4a575ab1e9b73c114cdbe1e7664736f6c634300080d0033",
  "immutableReferences": {},
  "source": "// SPDX-License-Identifier: GNU-GPLv3\npragma solidity ^0.8.0;\n\nimport \"@openzeppelin/contracts/access/Ownable.sol\";\n\n// import \"truffle/Console.sol\";\n// import \"hardhat/console.sol\";\n\nimport \"./LotteryCore.sol\";\n\n\n/**\n  * @title Lottery Generator Smart Contract.\n  * @author Batis \n  * @notice This SmartContract is responsible for Lottery Generation.\n  * @dev Lottery Generator SmartContract - Parent of Core Lottery\n*/\ncontract LotteryGenerator is Ownable {\n\n    // uint constant TICKET_PRICE = 10 * 1e15; // finney (0.01 Ether)\n\n    enum LType {\n        Hourly,\n        Daily,\n        Weekly,\n        Monthly\n    }\n\n    address[] public lotteries;\n    struct lottery{\n        uint index;\n        address creator;\n        uint totalBalance;\n        address winnerAddress; \n        LType lotteryType;\n    }\n    mapping(address => lottery) lotteryStructs;\n\n    address private LotteryOwner;\n    address private potDirector;  /* ToDo: All Main Action must be controlled only by Owner or Director */\n\n    address[] public LotteryWinnersArray;\n    uint[] public LotteryWinnersArrayPrizes;\n    struct LotteryWinnerStr{\n        uint playersId;\n        uint winnerCount;\n    }\n    mapping (address => LotteryWinnerStr) public LotteryWinnersMap;\n\n    address[] public WeeklyWinnersArray;\n    uint[] public WeeklyWinnersArrayPrizes;\n    struct WeeklyWinnerStr{\n        uint playersId;\n        uint winnerCount;\n    }\n    mapping (address => WeeklyWinnerStr) public WeeklyWinnersMap;\n\n    address[] public MonthlyWinnersArray;\n    uint[] public MonthlyWinnersArrayPrizes;\n    struct MonthlyWinnerStr{\n        uint playersId;\n        uint winnerCount;\n    }\n    mapping (address => MonthlyWinnerStr) public MonthlyWinnersMap;\n\n    // event\n    event LotteryCreated(address newLottery);\n\n    constructor() {   \n        LotteryOwner = msg.sender;\n    }\n\n\n  /* ToDo : Add & Complete Fallback routine */\n    fallback() external payable {\n    }\n    receive() external payable {\n    }\n\n    modifier isAllowedManager() {\n        require( msg.sender == potDirector || msg.sender == LotteryOwner , \"(Manager) Permission Denied !!\" );\n        _;\n    }\n\n    modifier isAllowedOwner(address _caller) {\n        require( _caller == potDirector || _caller == LotteryOwner , \"(Owner) Permission Denied !!\" );\n        _;\n    }\n\n    function balanceInPot() public view returns(uint){\n        return address(this).balance;\n    }\n\n    function withdraw() external onlyOwner {\n        payable(msg.sender).transfer(address(this).balance);\n    }\n\n    function getWinners() external view returns(address[] memory) {\n        return LotteryWinnersArray;\n    }\n\n    function getWeeklyWinners() external view returns(address[] memory) {\n        return WeeklyWinnersArray;\n    }\n\n    function getMonthlyWinners() external view returns(address[] memory) {\n        return MonthlyWinnersArray;\n    }\n\n    function getPotDirector() public view returns(address) {\n        return potDirector;\n    }\n\n    function setDirector(address _DirectorAddress) external onlyOwner {\n        require(_DirectorAddress != address(0) );\n        potDirector = _DirectorAddress;\n    }\n\n    function setlotteryStructs(address _lotteryAddress, address _commander, uint _totalBalance, address _winnerAddress, uint8 _lotteryType) external isAllowedOwner(_commander) returns (bool) {\n        lotteryStructs[_lotteryAddress].totalBalance = _totalBalance;\n        lotteryStructs[_lotteryAddress].winnerAddress = _winnerAddress;\n        lotteryStructs[_lotteryAddress].lotteryType = LType(_lotteryType);\n        return true;\n    }\n\n    function setlotteryWinnersArrayMap(address _commander, address _winnerAddress, uint _winnerPrize) external isAllowedOwner(_commander) returns (uint) {\n        LotteryWinnersArray.push(_winnerAddress);\n        LotteryWinnersArrayPrizes.push(_winnerPrize);\n        LotteryWinnersMap[_winnerAddress].playersId = LotteryWinnersArray.length;  // -1\n        LotteryWinnersMap[_winnerAddress].winnerCount++;\n        return LotteryWinnersArray.length ;  // -1\n    }\n\n    function setWeeklyWinnersArrayMap(address _commander, address _winnerAddress, uint _winnerPrize) external isAllowedOwner(_commander) returns (uint) {\n        WeeklyWinnersArray.push(_winnerAddress);\n        WeeklyWinnersArrayPrizes.push(_winnerPrize);\n        WeeklyWinnersMap[_winnerAddress].playersId = WeeklyWinnersArray.length;  // -1\n        WeeklyWinnersMap[_winnerAddress].winnerCount++;\n        return WeeklyWinnersArray.length ;  // -1\n    }\n\n    function setMonthlyWinnersArrayMap(address _commander, address _winnerAddress, uint _winnerPrize) external isAllowedOwner(_commander) returns (uint) {\n        MonthlyWinnersArray.push(_winnerAddress);\n        MonthlyWinnersArrayPrizes.push(_winnerPrize);\n        MonthlyWinnersMap[_winnerAddress].playersId = MonthlyWinnersArray.length;  // -1\n        MonthlyWinnersMap[_winnerAddress].winnerCount++;\n        return MonthlyWinnersArray.length ;  // -1\n    }\n\n    function clearlotteryWinnersArrayMap(address _commander) external isAllowedOwner(_commander) returns (bool) {\n        address _lotteryWinAddress;\n        for (uint256 index = 0; index < LotteryWinnersArray.length - 1; index++) {\n            _lotteryWinAddress = LotteryWinnersArray[index];\n            // if (LotteryWinnersMap[_lotteryWinAddress].playersId > 0) {\n            //     LotteryWinnersMap[_lotteryWinAddress].playersId = 0;\n            //     LotteryWinnersMap[_lotteryWinAddress].winnerCount = 0;\n            // }\n            delete LotteryWinnersMap[_lotteryWinAddress];\n        }\n        delete LotteryWinnersArray;\n        return true;\n    }\n\n    function clearWeeklyWinnersArrayMap(address _commander) external isAllowedOwner(_commander) returns (bool) {\n        address _lotteryWinAddress;\n        for (uint256 index = 0; index < WeeklyWinnersArray.length - 1; index++) {\n            _lotteryWinAddress = WeeklyWinnersArray[index];\n            // if (WeeklyWinnersMap[_lotteryWinAddress].playersId > 0) {\n            //     WeeklyWinnersMap[_lotteryWinAddress].playersId = 0;\n            //     WeeklyWinnersMap[_lotteryWinAddress].winnerCount = 0;\n            // }\n            delete WeeklyWinnersMap[_lotteryWinAddress];\n        }\n        delete WeeklyWinnersArray;\n        return true;\n    }\n\n    function clearMonthlyWinnersArrayMap(address _commander) external isAllowedOwner(_commander) returns (bool) {\n        address _lotteryWinAddress;\n        for (uint256 index = 0; index < MonthlyWinnersArray.length - 1; index++) {\n            _lotteryWinAddress = MonthlyWinnersArray[index];\n            // if (MonthlyWinnersMap[_lotteryWinAddress].playersId > 0) {\n            //     MonthlyWinnersMap[_lotteryWinAddress].playersId = 0;\n            //     MonthlyWinnersMap[_lotteryWinAddress].winnerCount = 0;\n            // }\n            delete MonthlyWinnersMap[_lotteryWinAddress];\n        }\n        delete MonthlyWinnersArray;\n        return true;\n    }\n\n\n    /*\n    function createLottery(address _VRF, address weeklyAddr, address monthlyAddr, address liquidityAddr) public onlyOwner {\n\n        address generatorAddress = address(this);\n\n        // require(bytes(name).length > 0);\n        address newLottery = address(new LotteryCore(_VRF, generatorAddress, weeklyAddr, monthlyAddr, liquidityAddr));\n        lotteries.push(newLottery);\n        lotteryStructs[newLottery].index = lotteries.length - 1;\n        lotteryStructs[newLottery].creator = msg.sender;\n        lotteryStructs[newLottery].totalBalance = 0;\n        lotteryStructs[newLottery].winnerAddress = address(0);\n\n        emit LotteryCreated( newLottery );\n    }\n\n    function deleteLottery(address lotteryAddress) public  onlyOwner {\n        require(msg.sender == lotteryStructs[lotteryAddress].creator);\n        uint indexToDelete = lotteryStructs[lotteryAddress].index;\n        address lastAddress = lotteries[lotteries.length - 1];\n        lotteries[indexToDelete] = lastAddress;\n        // lotteries.length --;\n    }\n    */\n\n    // function getLotteries() public view returns(address[]) {\n    //     return lotteries;\n    // }\n\n    // Events\n    // event LotteryCreated(\n    //     address lotteryAddress\n    // );\n}\n\n\n\n",
  "sourcePath": "/home/batis/SrcCode/myPRJ/SmartContBlockChain/BSCLottery/contracts/LotteryGenerator.sol",
  "compiler": {
    "name": "solc",
    "version": "0.8.13+commit.abaa5c0e.Emscripten.clang"
  },
  "schemaVersion": "3.4.3",
  "updatedAt": "2022-06-14T14:49:22.131Z",
  "networkType": "ethereum",
  "devdoc": {
    "author": "Batis ",
    "details": "Lottery Generator SmartContract - Parent of Core Lottery",
    "kind": "dev",
    "methods": {
      "owner()": {
        "details": "Returns the address of the current owner."
      },
      "renounceOwnership()": {
        "details": "Leaves the contract without owner. It will not be possible to call `onlyOwner` functions anymore. Can only be called by the current owner. NOTE: Renouncing ownership will leave the contract without an owner, thereby removing any functionality that is only available to the owner."
      },
      "transferOwnership(address)": {
        "details": "Transfers ownership of the contract to a new account (`newOwner`). Can only be called by the current owner."
      }
    },
    "title": "Lottery Generator Smart Contract.",
    "version": 1
  },
  "userdoc": {
    "kind": "user",
    "methods": {},
    "notice": "This SmartContract is responsible for Lottery Generation.",
    "version": 1
  }
}