{
  "contractName": "LotteryCore",
  "abi": [
    {
      "inputs": [
        {
          "internalType": "uint64",
          "name": "subscriptionId",
          "type": "uint64"
        }
      ],
      "stateMutability": "nonpayable",
      "type": "constructor"
    },
    {
      "inputs": [
        {
          "internalType": "address",
          "name": "have",
          "type": "address"
        },
        {
          "internalType": "address",
          "name": "want",
          "type": "address"
        }
      ],
      "name": "OnlyCoordinatorCanFulfill",
      "type": "error"
    },
    {
      "stateMutability": "payable",
      "type": "fallback"
    },
    {
      "inputs": [
        {
          "internalType": "uint256",
          "name": "",
          "type": "uint256"
        }
      ],
      "name": "lRandomWords",
      "outputs": [
        {
          "internalType": "uint256",
          "name": "",
          "type": "uint256"
        }
      ],
      "stateMutability": "view",
      "type": "function"
    },
    {
      "inputs": [],
      "name": "lRequestId",
      "outputs": [
        {
          "internalType": "uint256",
          "name": "",
          "type": "uint256"
        }
      ],
      "stateMutability": "view",
      "type": "function"
    },
    {
      "inputs": [],
      "name": "lottoryOwner",
      "outputs": [
        {
          "internalType": "address",
          "name": "",
          "type": "address"
        }
      ],
      "stateMutability": "view",
      "type": "function"
    },
    {
      "inputs": [
        {
          "internalType": "uint256",
          "name": "",
          "type": "uint256"
        }
      ],
      "name": "potPlayers",
      "outputs": [
        {
          "internalType": "address",
          "name": "",
          "type": "address"
        }
      ],
      "stateMutability": "view",
      "type": "function"
    },
    {
      "inputs": [],
      "name": "randomNumber",
      "outputs": [
        {
          "internalType": "uint256",
          "name": "",
          "type": "uint256"
        }
      ],
      "stateMutability": "view",
      "type": "function"
    },
    {
      "inputs": [
        {
          "internalType": "uint256",
          "name": "requestId",
          "type": "uint256"
        },
        {
          "internalType": "uint256[]",
          "name": "randomWords",
          "type": "uint256[]"
        }
      ],
      "name": "rawFulfillRandomWords",
      "outputs": [],
      "stateMutability": "nonpayable",
      "type": "function"
    },
    {
      "inputs": [],
      "name": "reqId",
      "outputs": [
        {
          "internalType": "bytes32",
          "name": "",
          "type": "bytes32"
        }
      ],
      "stateMutability": "view",
      "type": "function"
    },
    {
      "inputs": [],
      "name": "requestRandomWords",
      "outputs": [],
      "stateMutability": "nonpayable",
      "type": "function"
    },
    {
      "inputs": [],
      "name": "balanceInPot",
      "outputs": [
        {
          "internalType": "uint256",
          "name": "",
          "type": "uint256"
        }
      ],
      "stateMutability": "view",
      "type": "function"
    },
    {
      "inputs": [],
      "name": "play",
      "outputs": [],
      "stateMutability": "payable",
      "type": "function"
    },
    {
      "inputs": [],
      "name": "select_Send_WinnerPrize",
      "outputs": [],
      "stateMutability": "nonpayable",
      "type": "function"
    },
    {
      "inputs": [],
      "name": "listPlayers",
      "outputs": [
        {
          "internalType": "address[]",
          "name": "",
          "type": "address[]"
        }
      ],
      "stateMutability": "view",
      "type": "function"
    }
  ],
  "bytecode": "0x60a0604052736168499c0cffcacd319c818142124b7a15e857ab600260006101000a81548173ffffffffffffffffffffffffffffffffffffffff021916908373ffffffffffffffffffffffffffffffffffffffff1602179055507301be23585060835e02b77ef475b0cc51aa1e0709600360006101000a81548173ffffffffffffffffffffffffffffffffffffffff021916908373ffffffffffffffffffffffffffffffffffffffff1602179055507fd89b2bf150e3b9e13446986e571fb9cab24b13cea0a43ea20a6049a85cc807cc60001b600455620186a0600560006101000a81548163ffffffff021916908363ffffffff1602179055506002600560046101000a81548161ffff021916908361ffff1602179055506001600560066101000a81548163ffffffff021916908363ffffffff1602179055503480156200014657600080fd5b50604051620015a3380380620015a383398181016040528101906200016c919062000344565b600260009054906101000a900473ffffffffffffffffffffffffffffffffffffffff168073ffffffffffffffffffffffffffffffffffffffff1660808173ffffffffffffffffffffffffffffffffffffffff168152505050600260009054906101000a900473ffffffffffffffffffffffffffffffffffffffff166000806101000a81548173ffffffffffffffffffffffffffffffffffffffff021916908373ffffffffffffffffffffffffffffffffffffffff160217905550600360009054906101000a900473ffffffffffffffffffffffffffffffffffffffff16600160006101000a81548173ffffffffffffffffffffffffffffffffffffffff021916908373ffffffffffffffffffffffffffffffffffffffff16021790555080600760006101000a81548167ffffffffffffffff021916908367ffffffffffffffff160217905550336005600a6101000a81548173ffffffffffffffffffffffffffffffffffffffff021916908373ffffffffffffffffffffffffffffffffffffffff1602179055505062000376565b600080fd5b600067ffffffffffffffff82169050919050565b6200031e81620002ff565b81146200032a57600080fd5b50565b6000815190506200033e8162000313565b92915050565b6000602082840312156200035d576200035c620002fa565b5b60006200036d848285016200032d565b91505092915050565b60805161120a620003996000396000818161029501526102e9015261120a6000f3fe6080604052600436106100ab5760003560e01c806388ade1ca1161006457806388ade1ca1461019a5780638997ce4e146101d757806393e84cd914610202578063a8cc67aa1461020c578063ccbac9f514610249578063e0c8628914610274576100ac565b806314e59987146100ae5780631fe543e3146100d9578063397270dd1461010257806353d51d461461012d57806364605d51146101445780638687e5991461016f576100ac565b5b005b3480156100ba57600080fd5b506100c361028b565b6040516100d091906109ce565b60405180910390f35b3480156100e557600080fd5b5061010060048036038101906100fb9190610b82565b610293565b005b34801561010e57600080fd5b50610117610353565b60405161012491906109ce565b60405180910390f35b34801561013957600080fd5b50610142610359565b005b34801561015057600080fd5b506101596104f3565b6040516101669190610cce565b60405180910390f35b34801561017b57600080fd5b50610184610581565b6040516101919190610cff565b60405180910390f35b3480156101a657600080fd5b506101c160048036038101906101bc9190610d1a565b6105a7565b6040516101ce91906109ce565b60405180910390f35b3480156101e357600080fd5b506101ec6105cb565b6040516101f99190610d60565b60405180910390f35b61020a6105d1565b005b34801561021857600080fd5b50610233600480360381019061022e9190610d1a565b610694565b6040516102409190610cff565b60405180910390f35b34801561025557600080fd5b5061025e6106d3565b60405161026b91906109ce565b60405180910390f35b34801561028057600080fd5b506102896106d9565b005b600047905090565b7f000000000000000000000000000000000000000000000000000000000000000073ffffffffffffffffffffffffffffffffffffffff163373ffffffffffffffffffffffffffffffffffffffff161461034557337f00000000000000000000000000000000000000000000000000000000000000006040517f1cf993f400000000000000000000000000000000000000000000000000000000815260040161033c929190610d7b565b60405180910390fd5b61034f8282610870565b5050565b600b5481565b6005600a9054906101000a900473ffffffffffffffffffffffffffffffffffffffff1673ffffffffffffffffffffffffffffffffffffffff163373ffffffffffffffffffffffffffffffffffffffff16146103e9576040517f08c379a00000000000000000000000000000000000000000000000000000000081526004016103e090610e27565b60405180910390fd5b60006006805490506103f961088b565b6104039190610e76565b905060006006828154811061041b5761041a610ea7565b5b9060005260206000200160009054906101000a900473ffffffffffffffffffffffffffffffffffffffff169050600067ffffffffffffffff81111561046357610462610a3f565b5b6040519080825280602002602001820160405280156104915781602001602082028036833780820191505090505b50600690805190602001906104a79291906108c1565b508073ffffffffffffffffffffffffffffffffffffffff166108fc479081150290604051600060405180830381858888f193505050501580156104ee573d6000803e3d6000fd5b505050565b6060600680548060200260200160405190810160405280929190818152602001828054801561057757602002820191906000526020600020905b8160009054906101000a900473ffffffffffffffffffffffffffffffffffffffff1673ffffffffffffffffffffffffffffffffffffffff168152602001906001019080831161052d575b5050505050905090565b6005600a9054906101000a900473ffffffffffffffffffffffffffffffffffffffff1681565b600a81815481106105b757600080fd5b906000526020600020016000915090505481565b60085481565b662386f26fc1000034101580156105f0575068056bc75e2d6310000034105b61062f576040517f08c379a000000000000000000000000000000000000000000000000000000000815260040161062690610f48565b60405180910390fd5b6006339080600181540180825580915050600190039060005260206000200160009091909190916101000a81548173ffffffffffffffffffffffffffffffffffffffff021916908373ffffffffffffffffffffffffffffffffffffffff160217905550565b600681815481106106a457600080fd5b906000526020600020016000915054906101000a900473ffffffffffffffffffffffffffffffffffffffff1681565b60095481565b6005600a9054906101000a900473ffffffffffffffffffffffffffffffffffffffff1673ffffffffffffffffffffffffffffffffffffffff163373ffffffffffffffffffffffffffffffffffffffff1614610769576040517f08c379a000000000000000000000000000000000000000000000000000000000815260040161076090610e27565b60405180910390fd5b60008054906101000a900473ffffffffffffffffffffffffffffffffffffffff1673ffffffffffffffffffffffffffffffffffffffff16635d3b1d30600454600760009054906101000a900467ffffffffffffffff16600560049054906101000a900461ffff16600560009054906101000a900463ffffffff16600560069054906101000a900463ffffffff166040518663ffffffff1660e01b8152600401610816959493929190610fc7565b602060405180830381600087803b15801561083057600080fd5b505af1158015610844573d6000803e3d6000fd5b505050506040513d601f19601f82011682018060405250810190610868919061102f565b600b81905550565b80600a908051906020019061088692919061094b565b505050565b6000444260066040516020016108a39392919061119b565b6040516020818303038152906040528051906020012060001c905090565b82805482825590600052602060002090810192821561093a579160200282015b828111156109395782518260006101000a81548173ffffffffffffffffffffffffffffffffffffffff021916908373ffffffffffffffffffffffffffffffffffffffff160217905550916020019190600101906108e1565b5b5090506109479190610998565b5090565b828054828255906000526020600020908101928215610987579160200282015b8281111561098657825182559160200191906001019061096b565b5b5090506109949190610998565b5090565b5b808211156109b1576000816000905550600101610999565b5090565b6000819050919050565b6109c8816109b5565b82525050565b60006020820190506109e360008301846109bf565b92915050565b6000604051905090565b600080fd5b600080fd5b610a06816109b5565b8114610a1157600080fd5b50565b600081359050610a23816109fd565b92915050565b600080fd5b6000601f19601f8301169050919050565b7f4e487b7100000000000000000000000000000000000000000000000000000000600052604160045260246000fd5b610a7782610a2e565b810181811067ffffffffffffffff82111715610a9657610a95610a3f565b5b80604052505050565b6000610aa96109e9565b9050610ab58282610a6e565b919050565b600067ffffffffffffffff821115610ad557610ad4610a3f565b5b602082029050602081019050919050565b600080fd5b6000610afe610af984610aba565b610a9f565b90508083825260208201905060208402830185811115610b2157610b20610ae6565b5b835b81811015610b4a5780610b368882610a14565b845260208401935050602081019050610b23565b5050509392505050565b600082601f830112610b6957610b68610a29565b5b8135610b79848260208601610aeb565b91505092915050565b60008060408385031215610b9957610b986109f3565b5b6000610ba785828601610a14565b925050602083013567ffffffffffffffff811115610bc857610bc76109f8565b5b610bd485828601610b54565b9150509250929050565b600081519050919050565b600082825260208201905092915050565b6000819050602082019050919050565b600073ffffffffffffffffffffffffffffffffffffffff82169050919050565b6000610c3582610c0a565b9050919050565b610c4581610c2a565b82525050565b6000610c578383610c3c565b60208301905092915050565b6000602082019050919050565b6000610c7b82610bde565b610c858185610be9565b9350610c9083610bfa565b8060005b83811015610cc1578151610ca88882610c4b565b9750610cb383610c63565b925050600181019050610c94565b5085935050505092915050565b60006020820190508181036000830152610ce88184610c70565b905092915050565b610cf981610c2a565b82525050565b6000602082019050610d146000830184610cf0565b92915050565b600060208284031215610d3057610d2f6109f3565b5b6000610d3e84828501610a14565b91505092915050565b6000819050919050565b610d5a81610d47565b82525050565b6000602082019050610d756000830184610d51565b92915050565b6000604082019050610d906000830185610cf0565b610d9d6020830184610cf0565b9392505050565b600082825260208201905092915050565b7f4f776e6572204f6e6c7921202e20596f752068617665206e6f7420746865207260008201527f69676874204163636573732e0000000000000000000000000000000000000000602082015250565b6000610e11602c83610da4565b9150610e1c82610db5565b604082019050919050565b60006020820190508181036000830152610e4081610e04565b9050919050565b7f4e487b7100000000000000000000000000000000000000000000000000000000600052601260045260246000fd5b6000610e81826109b5565b9150610e8c836109b5565b925082610e9c57610e9b610e47565b5b828206905092915050565b7f4e487b7100000000000000000000000000000000000000000000000000000000600052603260045260246000fd5b7f56616c75652073686f756c64206265206265747765656e20302e30312026203160008201527f303020424e420000000000000000000000000000000000000000000000000000602082015250565b6000610f32602683610da4565b9150610f3d82610ed6565b604082019050919050565b60006020820190508181036000830152610f6181610f25565b9050919050565b600067ffffffffffffffff82169050919050565b610f8581610f68565b82525050565b600061ffff82169050919050565b610fa281610f8b565b82525050565b600063ffffffff82169050919050565b610fc181610fa8565b82525050565b600060a082019050610fdc6000830188610d51565b610fe96020830187610f7c565b610ff66040830186610f99565b6110036060830185610fb8565b6110106080830184610fb8565b9695505050505050565b600081519050611029816109fd565b92915050565b600060208284031215611045576110446109f3565b5b60006110538482850161101a565b91505092915050565b6000819050919050565b611077611072826109b5565b61105c565b82525050565b600081549050919050565b600081905092915050565b60008190508160005260206000209050919050565b6110b181610c2a565b82525050565b60006110c383836110a8565b60208301905092915050565b60008160001c9050919050565b600073ffffffffffffffffffffffffffffffffffffffff82169050919050565b600061110f61110a836110cf565b6110dc565b9050919050565b600061112282546110fc565b9050919050565b6000600182019050919050565b60006111418261107d565b61114b8185611088565b935061115683611093565b8060005b8381101561118e5761116b82611116565b61117588826110b7565b975061118083611129565b92505060018101905061115a565b5085935050505092915050565b60006111a78286611066565b6020820191506111b78285611066565b6020820191506111c78284611136565b915081905094935050505056fea2646970667358221220c2d0ff34ba46f9541b91369f4eab9134c5cf5ff468262c90b2708c4981472ebe64736f6c63430008090033",
  "immutableReferences": {
    "10": [
      {
        "length": 32,
        "start": 661
      },
      {
        "length": 32,
        "start": 745
      }
    ]
  },
  "source": "// SPDX-License-Identifier: MIT\npragma solidity ^0.8.0;\n\nimport '@openzeppelin/contracts/access/Ownable.sol';\nimport \"@chainlink/contracts/src/v0.8/interfaces/LinkTokenInterface.sol\";\nimport \"@chainlink/contracts/src/v0.8/interfaces/VRFCoordinatorV2Interface.sol\";\nimport \"@chainlink/contracts/src/v0.8/VRFConsumerBaseV2.sol\";\n\ncontract LotteryCore is VRFConsumerBaseV2 {\n\n  VRFCoordinatorV2Interface COORDINATOR;\n  LinkTokenInterface LINKTOKEN;\n\n  address vrfCoordinator = 0x6168499c0cFfCaCD319c818142124B7A15E857ab;   // Rinkeby\n  address link = 0x01BE23585060835E02B77ef475b0Cc51aA1e0709;   // Rinkeby\n  bytes32 keyHash = 0xd89b2bf150e3b9e13446986e571fb9cab24b13cea0a43ea20a6049a85cc807cc;   // Rinkeby\n\n  uint32 callbackGasLimit = 100000;\n  uint16 requestConfirmations = 2;\n  uint32 numWords =  1;\n\n  address public lottoryOwner;\n  address[] public potPlayers;\n\n  uint64 lSubscriptionId;\n  bytes32 public reqId;\n  uint256 public randomNumber;\n\n  uint256[] public lRandomWords;\n  uint256 public lRequestId;\n  struct PotPlayer{\n    uint index;\n    uint pValue;\n  }\n\n  struct LotteryPot{\n    string potLabel;\n    uint entryCount;\n    uint potSerial;\n    uint potValue;\n    // mapping(address => PotPlayer) players;\n  }\n\n  // constructor(address _vrfCoordinator, address _link) VRFConsumerBase(_vrfCoordinator, _link) public {  }\n  constructor(uint64 subscriptionId) VRFConsumerBaseV2(vrfCoordinator) {\n    COORDINATOR = VRFCoordinatorV2Interface(vrfCoordinator);\n    LINKTOKEN = LinkTokenInterface(link);\n    lSubscriptionId = subscriptionId;\n    lottoryOwner = msg.sender;\n  }\n\n  modifier ownerOnly() {\n    require(msg.sender == lottoryOwner, \"Owner Only! . You have not the right Access.\");\n    _;\n  }\n\n  fallback() external payable {\n        // player name will be unknown\n  }\n\n  function requestRandomWords() external ownerOnly {\n    lRequestId = COORDINATOR.requestRandomWords(\n      keyHash,\n      lSubscriptionId,\n      requestConfirmations,\n      callbackGasLimit,\n      numWords\n    );\n  }\n\n  // function fulfillRandomness(bytes32 requestId, uint256 randomness) external override {\n  //     reqId = requestId;\n  //     randomNumber = randomness;\n  // }\n  function fulfillRandomWords(\n    uint256, /* requestId */\n    uint256[] memory randomWords\n  ) internal override {\n    lRandomWords = randomWords;\n  }\n\n  function balanceInPot() public view returns(uint){\n    return address(this).balance;\n  }\n\n  function play() public payable {\n    require(msg.value >= 0.01 ether && msg.value < 100 ether, \"Value should be between 0.01 & 100 BNB\");\n    potPlayers.push(msg.sender);\n  }\n\n  function randomGenerator() private view returns (uint) {\n    return uint(\n      keccak256(\n        abi.encodePacked(\n          block.difficulty, block.timestamp, potPlayers )));\n  }\n\n  function select_Send_WinnerPrize() public ownerOnly {\n    uint winnerIndex = randomGenerator() % potPlayers.length;\n    address payable potWinner = payable(potPlayers[winnerIndex]);\n    potPlayers = new address[](0);\n    potWinner.transfer(address(this).balance);\n    // potPlayers[winnerIndex].transfer(address(this).balance);\n  }\n\n  function listPlayers() public view returns (address[] memory){\n    return potPlayers;\n  }\n\n}\n",
  "sourcePath": "/home/batis/SrcCode/myPRJ/SmartContBlockChain/BSCLottery/contracts/LotteryCore.sol",
  "compiler": {
    "name": "solc",
    "version": "0.8.9+commit.e5eed63a.Emscripten.clang"
  },
  "schemaVersion": "3.4.3",
  "updatedAt": "2022-03-25T14:29:17.084Z",
  "devdoc": {
    "kind": "dev",
    "methods": {},
    "version": 1
  },
  "userdoc": {
    "kind": "user",
    "methods": {},
    "version": 1
  }
}