{
  "contractName": "LotteryCore",
  "abi": [
    {
      "inputs": [
        {
          "internalType": "address",
          "name": "VRF",
          "type": "address"
        },
        {
          "internalType": "address",
          "name": "generatorLotteryAddress",
          "type": "address"
        },
        {
          "internalType": "address",
          "name": "WeeklyLotteryAddress",
          "type": "address"
        },
        {
          "internalType": "address",
          "name": "MonthlyLotteryAddress",
          "type": "address"
        },
        {
          "internalType": "address",
          "name": "LiquidityPoolAddr",
          "type": "address"
        }
      ],
      "stateMutability": "nonpayable",
      "type": "constructor"
    },
    {
      "anonymous": false,
      "inputs": [
        {
          "indexed": true,
          "internalType": "address",
          "name": "previousOwner",
          "type": "address"
        },
        {
          "indexed": true,
          "internalType": "address",
          "name": "newOwner",
          "type": "address"
        }
      ],
      "name": "OwnershipTransferred",
      "type": "event"
    },
    {
      "anonymous": false,
      "inputs": [
        {
          "indexed": false,
          "internalType": "address",
          "name": "potPlayer",
          "type": "address"
        },
        {
          "indexed": false,
          "internalType": "uint256",
          "name": "playerId",
          "type": "uint256"
        },
        {
          "indexed": false,
          "internalType": "uint256",
          "name": "PlayerValue",
          "type": "uint256"
        },
        {
          "indexed": false,
          "internalType": "uint256",
          "name": "ticketNumber",
          "type": "uint256"
        }
      ],
      "name": "PlayerRegister",
      "type": "event"
    },
    {
      "anonymous": false,
      "inputs": [
        {
          "indexed": false,
          "internalType": "address",
          "name": "potPlayer",
          "type": "address"
        },
        {
          "indexed": false,
          "internalType": "uint256[]",
          "name": "playerId",
          "type": "uint256[]"
        },
        {
          "indexed": false,
          "internalType": "uint256",
          "name": "playCount",
          "type": "uint256"
        },
        {
          "indexed": false,
          "internalType": "uint256",
          "name": "playerValue",
          "type": "uint256"
        },
        {
          "indexed": false,
          "internalType": "uint256",
          "name": "ticketNumber",
          "type": "uint256"
        }
      ],
      "name": "PlayerTotalValue",
      "type": "event"
    },
    {
      "anonymous": false,
      "inputs": [
        {
          "indexed": false,
          "internalType": "address",
          "name": "potWinner",
          "type": "address"
        },
        {
          "indexed": false,
          "internalType": "uint256",
          "name": "winnerPrize",
          "type": "uint256"
        }
      ],
      "name": "SelectWinnerAddress",
      "type": "event"
    },
    {
      "anonymous": false,
      "inputs": [
        {
          "indexed": false,
          "internalType": "uint256",
          "name": "winnerIndex",
          "type": "uint256"
        },
        {
          "indexed": false,
          "internalType": "uint256",
          "name": "potBalance",
          "type": "uint256"
        },
        {
          "indexed": false,
          "internalType": "uint256",
          "name": "winnerPrize",
          "type": "uint256"
        }
      ],
      "name": "SelectWinnerIndex",
      "type": "event"
    },
    {
      "anonymous": false,
      "inputs": [
        {
          "indexed": false,
          "internalType": "address",
          "name": "receiver",
          "type": "address"
        },
        {
          "indexed": false,
          "internalType": "uint256",
          "name": "TrxValue",
          "type": "uint256"
        }
      ],
      "name": "TotalPayment",
      "type": "event"
    },
    {
      "stateMutability": "payable",
      "type": "fallback",
      "payable": true
    },
    {
      "inputs": [],
      "name": "owner",
      "outputs": [
        {
          "internalType": "address",
          "name": "",
          "type": "address"
        }
      ],
      "stateMutability": "view",
      "type": "function",
      "constant": true
    },
    {
      "inputs": [],
      "name": "potStartTime",
      "outputs": [
        {
          "internalType": "uint256",
          "name": "",
          "type": "uint256"
        }
      ],
      "stateMutability": "view",
      "type": "function",
      "constant": true
    },
    {
      "inputs": [],
      "name": "potWinnerPrize",
      "outputs": [
        {
          "internalType": "uint256",
          "name": "",
          "type": "uint256"
        }
      ],
      "stateMutability": "view",
      "type": "function",
      "constant": true
    },
    {
      "inputs": [],
      "name": "realPLayerCount",
      "outputs": [
        {
          "internalType": "uint256",
          "name": "",
          "type": "uint256"
        }
      ],
      "stateMutability": "view",
      "type": "function",
      "constant": true
    },
    {
      "inputs": [],
      "name": "renounceOwnership",
      "outputs": [],
      "stateMutability": "nonpayable",
      "type": "function"
    },
    {
      "inputs": [
        {
          "internalType": "address",
          "name": "newOwner",
          "type": "address"
        }
      ],
      "name": "transferOwnership",
      "outputs": [],
      "stateMutability": "nonpayable",
      "type": "function"
    },
    {
      "stateMutability": "payable",
      "type": "receive",
      "payable": true
    },
    {
      "inputs": [],
      "name": "balanceInPot",
      "outputs": [
        {
          "internalType": "uint256",
          "name": "",
          "type": "uint256"
        }
      ],
      "stateMutability": "view",
      "type": "function",
      "constant": true
    },
    {
      "inputs": [],
      "name": "withdraw",
      "outputs": [],
      "stateMutability": "nonpayable",
      "type": "function"
    },
    {
      "inputs": [
        {
          "internalType": "uint256",
          "name": "numerator",
          "type": "uint256"
        },
        {
          "internalType": "uint256",
          "name": "denominator",
          "type": "uint256"
        }
      ],
      "name": "getDivided",
      "outputs": [
        {
          "internalType": "uint256",
          "name": "quotient",
          "type": "uint256"
        },
        {
          "internalType": "uint256",
          "name": "remainder",
          "type": "uint256"
        }
      ],
      "stateMutability": "pure",
      "type": "function",
      "constant": true
    },
    {
      "inputs": [],
      "name": "potInitialize",
      "outputs": [],
      "stateMutability": "nonpayable",
      "type": "function"
    },
    {
      "inputs": [],
      "name": "play",
      "outputs": [],
      "stateMutability": "payable",
      "type": "function",
      "payable": true
    },
    {
      "inputs": [
        {
          "internalType": "address",
          "name": "_VRFv2",
          "type": "address"
        }
      ],
      "name": "getRandomValue",
      "outputs": [
        {
          "internalType": "uint256",
          "name": "randomWords",
          "type": "uint256"
        }
      ],
      "stateMutability": "view",
      "type": "function",
      "constant": true
    },
    {
      "inputs": [],
      "name": "select_Winner",
      "outputs": [],
      "stateMutability": "nonpayable",
      "type": "function"
    },
    {
      "inputs": [
        {
          "internalType": "address",
          "name": "_WeeklyPotAddress",
          "type": "address"
        }
      ],
      "name": "set_WeeklyPotAddress",
      "outputs": [],
      "stateMutability": "nonpayable",
      "type": "function"
    },
    {
      "inputs": [
        {
          "internalType": "address",
          "name": "_MonthlyPotAddress",
          "type": "address"
        }
      ],
      "name": "set_MonthlyPotAddress",
      "outputs": [],
      "stateMutability": "nonpayable",
      "type": "function"
    },
    {
      "inputs": [
        {
          "internalType": "address",
          "name": "_contractAddr",
          "type": "address"
        }
      ],
      "name": "set_generatorLotteryAddress",
      "outputs": [],
      "stateMutability": "nonpayable",
      "type": "function"
    },
    {
      "inputs": [
        {
          "internalType": "address",
          "name": "_LiquidityPoolAddress",
          "type": "address"
        }
      ],
      "name": "set_LiquidityPoolAddress",
      "outputs": [],
      "stateMutability": "nonpayable",
      "type": "function"
    },
    {
      "inputs": [
        {
          "internalType": "address",
          "name": "_DirectorAddress",
          "type": "address"
        }
      ],
      "name": "setDirector",
      "outputs": [],
      "stateMutability": "nonpayable",
      "type": "function"
    },
    {
      "inputs": [],
      "name": "listPlayers",
      "outputs": [
        {
          "internalType": "address[]",
          "name": "",
          "type": "address[]"
        }
      ],
      "stateMutability": "view",
      "type": "function",
      "constant": true
    },
    {
      "inputs": [],
      "name": "getLotteryTickets",
      "outputs": [
        {
          "internalType": "uint256[]",
          "name": "",
          "type": "uint256[]"
        }
      ],
      "stateMutability": "view",
      "type": "function",
      "constant": true
    },
    {
      "inputs": [],
      "name": "isPotActive",
      "outputs": [
        {
          "internalType": "bool",
          "name": "",
          "type": "bool"
        }
      ],
      "stateMutability": "view",
      "type": "function",
      "constant": true
    },
    {
      "inputs": [],
      "name": "getTicketPrice",
      "outputs": [
        {
          "internalType": "uint256",
          "name": "",
          "type": "uint256"
        }
      ],
      "stateMutability": "pure",
      "type": "function",
      "constant": true
    },
    {
      "inputs": [],
      "name": "getTicketAmount",
      "outputs": [
        {
          "internalType": "uint256",
          "name": "",
          "type": "uint256"
        }
      ],
      "stateMutability": "view",
      "type": "function",
      "constant": true
    },
    {
      "inputs": [],
      "name": "getPlayersNumber",
      "outputs": [
        {
          "internalType": "uint256",
          "name": "",
          "type": "uint256"
        }
      ],
      "stateMutability": "view",
      "type": "function",
      "constant": true
    },
    {
      "inputs": [],
      "name": "getWinners",
      "outputs": [
        {
          "internalType": "address",
          "name": "",
          "type": "address"
        },
        {
          "internalType": "uint256",
          "name": "",
          "type": "uint256"
        }
      ],
      "stateMutability": "view",
      "type": "function",
      "constant": true
    },
    {
      "inputs": [],
      "name": "isReadySelectWinner",
      "outputs": [
        {
          "internalType": "bool",
          "name": "",
          "type": "bool"
        }
      ],
      "stateMutability": "view",
      "type": "function",
      "constant": true
    },
    {
      "inputs": [],
      "name": "getStartedTime",
      "outputs": [
        {
          "internalType": "uint256",
          "name": "",
          "type": "uint256"
        }
      ],
      "stateMutability": "view",
      "type": "function",
      "constant": true
    },
    {
      "inputs": [],
      "name": "getPotDirector",
      "outputs": [
        {
          "internalType": "address",
          "name": "",
          "type": "address"
        }
      ],
      "stateMutability": "view",
      "type": "function",
      "constant": true
    },
    {
      "inputs": [],
      "name": "getAllContractAddresses",
      "outputs": [
        {
          "internalType": "address",
          "name": "gAddress",
          "type": "address"
        },
        {
          "internalType": "address",
          "name": "lAddress",
          "type": "address"
        },
        {
          "internalType": "address",
          "name": "wAddress",
          "type": "address"
        },
        {
          "internalType": "address",
          "name": "mAddress",
          "type": "address"
        }
      ],
      "stateMutability": "view",
      "type": "function",
      "constant": true
    },
    {
      "inputs": [
        {
          "internalType": "address",
          "name": "PlayerAddress",
          "type": "address"
        }
      ],
      "name": "getPlayerAmounts",
      "outputs": [
        {
          "internalType": "uint256",
          "name": "",
          "type": "uint256"
        },
        {
          "internalType": "uint256",
          "name": "",
          "type": "uint256"
        }
      ],
      "stateMutability": "view",
      "type": "function",
      "constant": true
    },
    {
      "inputs": [
        {
          "internalType": "address",
          "name": "PlayerAddress",
          "type": "address"
        }
      ],
      "name": "getPlayerValue",
      "outputs": [
        {
          "internalType": "uint256",
          "name": "",
          "type": "uint256"
        }
      ],
      "stateMutability": "view",
      "type": "function",
      "constant": true
    }
  ],
  "bytecode": "0x60806040526000600755600060085560006009553480156200002057600080fd5b5060405162001ec138038062001ec183398101604081905262000043916200014e565b6200004e33620000e1565b60068054600180546001600160a01b03199081166001600160a01b03998a1617909155600160a01b6001600160a81b03199092163360ff60a01b1916179190911760ff60a81b1916909155426007556002805482169587169590951790945560038054851691861691909117905560048054841692851692909217909155600580549092169216919091179055620001be565b600080546001600160a01b038381166001600160a01b0319831681178455604051919092169283917f8be0079c531659141344cd1fd0a4f28419497f9722a3daafe3b4186f6b6457e09190a35050565b80516001600160a01b03811681146200014957600080fd5b919050565b600080600080600060a086880312156200016757600080fd5b620001728662000131565b9450620001826020870162000131565b9350620001926040870162000131565b9250620001a26060870162000131565b9150620001b26080870162000131565b90509295509295909350565b611cf380620001ce6000396000f3fe6080604052600436106101c45760003560e01c80636c253437116100f65780639e94d5ab1161008f578063d7573c1111610061578063d7573c1114610548578063df15c37e1461055e578063e8b05e38146105a1578063f2fde38b146105c057005b80639e94d5ab146104c6578063a8078b7a146104ff578063c5ae6f3e14610514578063c7c15ac91461053257005b80638613e4cf116100c85780638613e4cf1461045257806387bb7ae0146104725780638da5cb5b1461048c57806393e84cd9146104be57005b80636c253437146103fe5780636cf6995814610413578063715018a614610428578063766eef111461043d57005b80633ccfd60b116101685780634442713c1161013a5780634442713c146103715780635efaf0441461039c578063614f6f87146103bc57806364605d51146103dc57005b80633ccfd60b146103045780633f4600c3146103195780633fa420c41461032f578063442db8fb1461034f57005b806326ba4319116101a157806326ba4319146102445780632ac75ab5146102645780633298944a146102795780633b33b61a146102b757005b806314e59987146101cd57806314e5e90e146101ef578063194d02d71461020f57005b366101cb57005b005b3480156101d957600080fd5b50475b6040519081526020015b60405180910390f35b3480156101fb57600080fd5b506101dc61020a366004611a68565b6105e0565b34801561021b57600080fd5b5061022f61022a366004611a98565b6106b7565b604080519283526020830191909152016101e6565b34801561025057600080fd5b506101cb61025f366004611a68565b610759565b34801561027057600080fd5b506101cb6107e8565b34801561028557600080fd5b5061022f610294366004611a68565b6001600160a01b03166000908152600a6020526040902080546001909101549091565b3480156102c357600080fd5b50600254600354600454600554604080516001600160a01b0395861681529385166020850152918416918301919091529190911660608201526080016101e6565b34801561031057600080fd5b506101cb6109c1565b34801561032557600080fd5b506101dc60095481565b34801561033b57600080fd5b506101cb61034a366004611a68565b610a4a565b34801561035b57600080fd5b50610364610ad9565b6040516101e69190611aba565b34801561037d57600080fd5b50600654600160a01b900460ff165b60405190151581526020016101e6565b3480156103a857600080fd5b506101cb6103b7366004611a68565b610b31565b3480156103c857600080fd5b506101cb6103d7366004611a68565b610bc0565b3480156103e857600080fd5b506103f1610c4f565b6040516101e69190611afe565b34801561040a57600080fd5b506101cb610cb0565b34801561041f57600080fd5b50600c546101dc565b34801561043457600080fd5b506101cb610d93565b34801561044957600080fd5b50600b546101dc565b34801561045e57600080fd5b506101cb61046d366004611a68565b610df9565b34801561047e57600080fd5b50662386f26fc100006101dc565b34801561049857600080fd5b506000546001600160a01b03165b6040516001600160a01b0390911681526020016101e6565b6101cb610e75565b3480156104d257600080fd5b506101dc6104e1366004611a68565b6001600160a01b03166000908152600a602052604090206001015490565b34801561050b57600080fd5b506101dc61136f565b34801561052057600080fd5b50600f546001600160a01b03166104a6565b34801561053e57600080fd5b506101dc60085481565b34801561055457600080fd5b506101dc60075481565b34801561056a57600080fd5b50610582600e546009546001600160a01b0390911691565b604080516001600160a01b0390931683526020830191909152016101e6565b3480156105ad57600080fd5b50600654600160a81b900460ff1661038c565b3480156105cc57600080fd5b506101cb6105db366004611a68565b611384565b600080546001600160a01b031633146106405760405162461bcd60e51b815260206004820181905260248201527f4f776e61626c653a2063616c6c6572206973206e6f7420746865206f776e657260448201526064015b60405180910390fd5b816001600160a01b03166371f747906040518163ffffffff1660e01b815260040160206040518083038186803b15801561067957600080fd5b505afa15801561068d573d6000803e3d6000fd5b505050506040513d601f19601f820116820180604052508101906106b19190611b3f565b92915050565b600080600084116107305760405162461bcd60e51b815260206004820152602b60248201527f4469766973696f6e206973204e6f7420506f737369626c65202c20427567206960448201527f6e204e756d6265727320210000000000000000000000000000000000000000006064820152608401610637565b61073a8385611b84565b91506107468284611b98565b6107509085611bb7565b90509250929050565b6000546001600160a01b031633146107b35760405162461bcd60e51b815260206004820181905260248201527f4f776e61626c653a2063616c6c6572206973206e6f7420746865206f776e65726044820152606401610637565b6001600160a01b0381166107c657600080fd5b600f80546001600160a01b0319166001600160a01b0392909216919091179055565b600f546001600160a01b031633148061080b57506006546001600160a01b031633145b6108575760405162461bcd60e51b815260206004820152601460248201527f5065726d697373696f6e2044656e6965642021210000000000000000000000006044820152606401610637565b600654600160a81b900460ff1615156001146108db5760405162461bcd60e51b815260206004820152602a60248201527f54686520506f74206973206e6f7420726561647920666f722053656c6563742060448201527f7468652057696e6e6572000000000000000000000000000000000000000000006064820152608401610637565b6001546000906108f3906001600160a01b03166105e0565b600c549091506000906109069083611bce565b9050600c818154811061091b5761091b611be2565b9060005260206000200154905060008060008061093785611463565b604080518a8152476020820152908101859052939750919550935091507f274f2e5ea35472f60f411beb007713c0f1c1b574f260789eedee1789cd49d9f59060600160405180910390a161098c854786611523565b5061099785856116ca565b6109a283838361176a565b6109aa6118ef565b50506006805461ffff60a01b191690555050505050565b6000546001600160a01b03163314610a1b5760405162461bcd60e51b815260206004820181905260248201527f4f776e61626c653a2063616c6c6572206973206e6f7420746865206f776e65726044820152606401610637565b60405133904780156108fc02916000818181858888f19350505050158015610a47573d6000803e3d6000fd5b50565b6000546001600160a01b03163314610aa45760405162461bcd60e51b815260206004820181905260248201527f4f776e61626c653a2063616c6c6572206973206e6f7420746865206f776e65726044820152606401610637565b6001600160a01b038116610ab757600080fd5b600480546001600160a01b0319166001600160a01b0392909216919091179055565b6060600c805480602002602001604051908101604052809291908181526020018280548015610b2757602002820191906000526020600020905b815481526020019060010190808311610b13575b5050505050905090565b6000546001600160a01b03163314610b8b5760405162461bcd60e51b815260206004820181905260248201527f4f776e61626c653a2063616c6c6572206973206e6f7420746865206f776e65726044820152606401610637565b6001600160a01b038116610b9e57600080fd5b600380546001600160a01b0319166001600160a01b0392909216919091179055565b6000546001600160a01b03163314610c1a5760405162461bcd60e51b815260206004820181905260248201527f4f776e61626c653a2063616c6c6572206973206e6f7420746865206f776e65726044820152606401610637565b6001600160a01b038116610c2d57600080fd5b600580546001600160a01b0319166001600160a01b0392909216919091179055565b6060600b805480602002602001604051908101604052809291908181526020018280548015610b2757602002820191906000526020600020905b81546001600160a01b03168152600190910190602001808311610c89575050505050905090565b600f546001600160a01b0316331480610cd357506006546001600160a01b031633145b610d1f5760405162461bcd60e51b815260206004820152601460248201527f5065726d697373696f6e2044656e6965642021210000000000000000000000006044820152606401610637565b600654600160a01b900460ff1615610d795760405162461bcd60e51b815260206004820152601b60248201527f54686520506f742069732073746172746564206265666f7265202100000000006044820152606401610637565b6006805461ffff60a01b1916600160a01b17905542600755565b6000546001600160a01b03163314610ded5760405162461bcd60e51b815260206004820181905260248201527f4f776e61626c653a2063616c6c6572206973206e6f7420746865206f776e65726044820152606401610637565b610df760006119ab565b565b6000546001600160a01b03163314610e535760405162461bcd60e51b815260206004820181905260248201527f4f776e61626c653a2063616c6c6572206973206e6f7420746865206f776e65726044820152606401610637565b600280546001600160a01b0319166001600160a01b0392909216919091179055565b600654600160a01b900460ff16610ef45760405162461bcd60e51b815260206004820152603b60248201527f54686520506f7420686173206e6f74206265656e20526561647920746f20506c60448201527f617920796574204f72205468652047616d65206973204f7665722100000000006064820152608401610637565b662386f26fc100003410158015610f13575068056bc75e2d6310000034105b610f855760405162461bcd60e51b815260206004820152602660248201527f56616c75652073686f756c64206265206265747765656e20302e30312026203160448201527f303020424e4200000000000000000000000000000000000000000000000000006064820152608401610637565b336000908152600a6020526040902060010154678ac7230489e80000811115610ff05760405162461bcd60e51b815260206004820152601660248201527f596f7520706c6179656420746f6f206d756368202121000000000000000000006044820152606401610637565b60008061100434662386f26fc100006106b7565b915091508060001461107e5760405162461bcd60e51b815260206004820152602e60248201527f56616c75652073686f756c6420626520616e20496e7465676572206d7574697060448201527f6c65206f6620302e303120424e420000000000000000000000000000000000006064820152608401610637565b600b80546001818101835560008381527f0175b7a638427703f0dbe7bb9bbf987a2551717b34e79f33b5b1008d1fa01db990920180546001600160a01b03191633179055915490916110cf91611bb7565b600c5490915060005b8481101561112757600c80546001810182556000919091527fdf6966c971051c3d54ec59162606531493a51404a002842f56009d7e5cf4a8c7018390558061111f81611bf8565b9150506110d8565b50600c546040805160608101825284815260208101849052908101829052600d80546001810182556000919091526111869160039182027fd7b6990105719101dabeb77144f2a3385c8033acd3af97e9423a695e81ad1eb501916119fb565b50600d54336000908152600a602052604081208054600192906111aa908490611c13565b9091555050336000908152600a6020526040812060010180543492906111d1908490611c13565b9091555050336000908152600a6020526040812060020180548892906111f8908490611c13565b9091555050336000818152600a60209081526040822060048101805460018181018355918552838520018990556003820180548083018255908552928420909201859055929091529054141561125e576008805490600061125883611bf8565b91905055505b67016345785d8a000047101580156112795750600560085410155b156112ad57600680547fffffffffffffffffffff00ffffffffffffffffffffffffffffffffffffffffff16600160a81b1790555b604080513381526020810186905234818301526060810188905290517f8de5754e4ed9d4994bdb4b2b8c12dfcd51b0e994c1d34a7f20fe7f3d3fbb7bc29181900360800190a1336000908152600a60205260409020546001101561136657336000818152600a60205260409081902080546001820154600283015493517ff0b342fc13c65867c873cfbf6e19b5285bae679018bdf3376a4baca5ff066e0d9561135d959094600401939291611c2b565b60405180910390a15b50505050505050565b60006007544261137f9190611bb7565b905090565b6000546001600160a01b031633146113de5760405162461bcd60e51b815260206004820181905260248201527f4f776e61626c653a2063616c6c6572206973206e6f7420746865206f776e65726044820152606401610637565b6001600160a01b03811661145a5760405162461bcd60e51b815260206004820152602660248201527f4f776e61626c653a206e6577206f776e657220697320746865207a65726f206160448201527f64647265737300000000000000000000000000000000000000000000000000006064820152608401610637565b610a47816119ab565b60008060008060004790506000600b878154811061148357611483611be2565b60009182526020808320909101546001600160a01b0316808352600a9091526040909120600101549091506114b88184611bb7565b96506114c58760026106b7565b5096506114d28188611c13565b965060006114e08885611bb7565b90506114ed8160146106b7565b50965086955085905087611502826002611b98565b61150c9086611bb7565b6115169190611bb7565b9450505050509193509193565b6000806000600b868154811061153b5761153b611be2565b6000918252602082200154600e80546001600160a01b0319166001600160a01b0392831690811790915560098790556002546040517f3305bd30000000000000000000000000000000000000000000000000000000008152306004820152336024820152604481018a905260648101929092526084820193909352911690633305bd309060a401602060405180830381600087803b1580156115dc57600080fd5b505af11580156115f0573d6000803e3d6000fd5b505050506040513d601f19601f820116820180604052508101906116149190611c9b565b600254600e546040517fa0f569340000000000000000000000000000000000000000000000000000000081523360048201526001600160a01b03918216602482015260448101889052929450169063a0f5693490606401602060405180830381600087803b15801561168557600080fd5b505af1158015611699573d6000803e3d6000fd5b505050506040513d601f19601f820116820180604052508101906116bd9190611b3f565b5060019695505050505050565b6000600b83815481106116df576116df611be2565b60009182526020822001546040516001600160a01b039091169250829184156108fc02918591818181858888f19350505050158015611722573d6000803e3d6000fd5b50604080516001600160a01b0383168152602081018490527f9b320e270eb528aa46b3a21b196f1da153ccb2d5637e892594474e969fe6b7a9910160405180910390a1505050565b6004546040516001600160a01b0390911690819085156108fc029086906000818181858888f193505050501580156117a6573d6000803e3d6000fd5b50604080516001600160a01b0383168152602081018690527fd36f5f37e53a101e11e745c4b553773a94d17d9d7cec00640ac8331369a76d11910160405180910390a1506005546040516001600160a01b0390911690819084156108fc029085906000818181858888f19350505050158015611826573d6000803e3d6000fd5b50604080516001600160a01b0383168152602081018590527fd36f5f37e53a101e11e745c4b553773a94d17d9d7cec00640ac8331369a76d11910160405180910390a1506003546040516001600160a01b0390911690819083156108fc029084906000818181858888f193505050501580156118a6573d6000803e3d6000fd5b50604080516001600160a01b0383168152602081018490527fd36f5f37e53a101e11e745c4b553773a94d17d9d7cec00640ac8331369a76d11910160405180910390a150505050565b60008060005b600b5461190490600190611bb7565b81101561198657600b818154811061191e5761191e611be2565b60009182526020808320909101546001600160a01b0316808352600a909152604082208281556001810183905560028101839055909350906119636003830182611a39565b611971600483016000611a39565b5050808061197e90611bf8565b9150506118f5565b50611993600b6000611a39565b61199f600c6000611a39565b50506000600855600190565b600080546001600160a01b038381166001600160a01b0319831681178455604051919092169283917f8be0079c531659141344cd1fd0a4f28419497f9722a3daafe3b4186f6b6457e09190a35050565b8260038101928215611a29579160200282015b82811115611a29578251825591602001919060010190611a0e565b50611a35929150611a53565b5090565b5080546000825590600052602060002090810190610a4791905b5b80821115611a355760008155600101611a54565b600060208284031215611a7a57600080fd5b81356001600160a01b0381168114611a9157600080fd5b9392505050565b60008060408385031215611aab57600080fd5b50508035926020909101359150565b6020808252825182820181905260009190848201906040850190845b81811015611af257835183529284019291840191600101611ad6565b50909695505050505050565b6020808252825182820181905260009190848201906040850190845b81811015611af25783516001600160a01b031683529284019291840191600101611b1a565b600060208284031215611b5157600080fd5b5051919050565b634e487b7160e01b600052601260045260246000fd5b634e487b7160e01b600052601160045260246000fd5b600082611b9357611b93611b58565b500490565b6000816000190483118215151615611bb257611bb2611b6e565b500290565b600082821015611bc957611bc9611b6e565b500390565b600082611bdd57611bdd611b58565b500690565b634e487b7160e01b600052603260045260246000fd5b6000600019821415611c0c57611c0c611b6e565b5060010190565b60008219821115611c2657611c26611b6e565b500190565b600060a082016001600160a01b0388168352602060a08185015281885480845260c0860191508960005282600020935060005b81811015611c7a57845483526001948501949284019201611c5e565b50506040850197909752505050606081019290925260809091015292915050565b600060208284031215611cad57600080fd5b81518015158114611a9157600080fdfea2646970667358221220fa41241eaf5ab114ad2a866aed8499cc7ad3ee16e037615c25200c836a73cc9464736f6c63430008090033",
  "immutableReferences": {},
  "source": "// SPDX-License-Identifier: MIT\npragma solidity ^0.8.0;\n// pragma experimental ABIEncoderV2;\n\n/* ToDo : Use Ownable OpenZeppelin */\nimport \"@openzeppelin/contracts/access/Ownable.sol\";\nimport \"@openzeppelin/contracts/utils/math/SafeMath.sol\";\n\n// import \"./LotteryGenerator.sol\";\nimport \"./VRFv2Consumer.sol\";\nimport \"./VRFv2SubscriptionManager.sol\";\n\n// import \"truffle/Console.sol\";\n// import \"hardhat/console.sol\";\n\nimport \"./LotteryInterface.sol\";\n\n/**\n************************************************************************************\n************************************************************************************\n*/\n\n/**\n  * @title Core SmartContract for BNB Public Lottery \n  * @author Batis \n  * @notice This SmartContract is responsible for implimentation of Lottery Core System and response to the Players \n  * @dev LotteryGenerator SmartContract Create This for each Pot \n*/\ncontract LotteryCore is Ownable {\n\n  address private _VRF;\n  address private generatorLotteryAddr;\n  address private LiquidityPoolAddress;\n  // address private MultiSigWalletAddress;\n  address private WeeklyPotAddress;\n  address private MonthlyPotAddress;   \n  address private LotteryOwner;\n\n  uint constant TICKET_PRICE = 10 * 1e15; // finney (0.01 Ether)\n\n  // address public LotteryOwner; \n  bool private lPotActive;  \n  bool private lReadySelectWinner; \n  uint public potStartTime = 0;\n  uint public realPLayerCount = 0;\n  uint public potWinnerPrize = 0;\n\n  struct PotPlayerStr{\n    uint PaymentCount;\n    uint paymentValue;\n    uint TicketNumbers;\n    uint[] TicketsId;\n    uint[] PlayersId;\n  }\n\n  mapping (address => PotPlayerStr) private PotPlayersMap;  \n  address[] private potPlayersArray;  \n  uint[] private potTickets;\n  uint[3][] private potTicketIds;  /* ToDo: Change Search routine base on the Start and End of Tickets for each Address (ID)  */ \n  address private potWinnerAddress;\n  address private potDirector;  /* ToDo: All Main Action must be controlled only by Owner or Director */\n   \n  /* ToDo : Lottery Pot Generator Structure as a Wrapper for Lottery Core */\n  // struct LotteryPot{\n  //   string potLabel;\n  //   uint entryCount;\n  //   uint potSerial;\n  //   uint potValue;\n  //   // mapping(address => PotPlayer) players;\n  // }\n\n  event SelectWinnerIndex(uint winnerIndex, uint potBalance, uint winnerPrize);\n  event SelectWinnerAddress(address potWinner, uint winnerPrize);\n  event PlayerRegister(address potPlayer, uint playerId, uint PlayerValue, uint ticketNumber);\n  event PlayerTotalValue(address potPlayer, uint[] playerId, uint playCount, uint playerValue, uint ticketNumber);\n  event TotalPayment(address receiver, uint TrxValue);\n\n  constructor(address VRF, address generatorLotteryAddress, address WeeklyLotteryAddress, address MonthlyLotteryAddress, address LiquidityPoolAddr) {\n    LotteryOwner = msg.sender;\n    _VRF = VRF;\n    lPotActive = true;\n    lReadySelectWinner = false;\n    potStartTime = block.timestamp;\n    generatorLotteryAddr = generatorLotteryAddress;\n    LiquidityPoolAddress = LiquidityPoolAddr ;\n    WeeklyPotAddress = WeeklyLotteryAddress ;\n    MonthlyPotAddress = MonthlyLotteryAddress ;   \n  }\n\n  // modifier onlyOwner() {\n  //   require(msg.sender == LotteryOwner, \"Owner Only! . You have not the right Access.\");\n  //   _;\n  // }\n\n  /* ToDo : Add & Complete Fallback routine */\n  fallback() external payable {\n  }\n  receive() external payable {\n  }\n\n  modifier isAllowedManager() {\n      require( msg.sender == potDirector || msg.sender == LotteryOwner , \"Permission Denied !!\" );\n      _;\n  }\n\n  modifier isGameOn() {\n      require(lPotActive , \"The Pot has not been Ready to Play yet Or The Game is Over!\");  // && !lReadySelectWinner \n      _;\n  }\n\n  modifier isPotValuable() {\n      require( (address(this).balance >= 0.1 ether && potPlayersArray.length >= 5) , \"The Pot is not Filled Enough !\");\n      _;\n  }\n\n  /**\n    * @notice Show the total Balance of this Pot. \n    * @dev Smart Contract total Balance.\n    * @return Balance of This Contract.\n  */\n  function balanceInPot() public view returns(uint){\n    return address(this).balance;\n  }\n\n  function withdraw() external onlyOwner {\n    payable(msg.sender).transfer(address(this).balance);\n  }\n\n\n  /* ToDo : Replace This function with OpenZeppelin SafeMath */\n  /**\n    * @notice Function for deviding two Integer Numbers and return the results.\n    * @dev Safe Function for Devision Operation.\n    * @param numerator : The Integer Number which is being devided on another Integer Number.\n    * @param denominator : The Integer Number which another Int NUmber is devided by this.  \n    * @return quotient and remainder of the Devision, Both are Integer Numbers. \n  */\n  function getDivided(uint numerator, uint denominator) public pure returns(uint quotient, uint remainder) {\n    require( denominator >= 0, \"Division is Not Possible , Bug in Numbers !\");\n    require( numerator > 0, \"Division is Not Possible , Bug in Numbers !\");\n    quotient  = numerator / denominator; \n    remainder = numerator - denominator * quotient;\n  }\n\n  function potInitialize() external isAllowedManager {\n    require(lPotActive == false, \"The Pot is started before !\");\n    lPotActive = true ;\n    lReadySelectWinner = false;\n    potStartTime = block.timestamp;\n  }\n\n  /**\n    * @notice Players' Operation and Calculation after Sending Transaction to the SmartContract. \n    * @dev Payable Function. \n  */\n  function play() public payable isGameOn {\n\n    require(msg.value >= 0.01 ether && msg.value < 100 ether, \"Value should be between 0.01 & 100 BNB\");\n\n    uint userPotAmount = PotPlayersMap[msg.sender].paymentValue;\n    require(userPotAmount <= 10 ether, \"You played too much !!\");\n\n    /* ToDo: Replace with SafeMath */\n    (uint ticketNumber, uint remainder ) = getDivided(msg.value, TICKET_PRICE); // 10000000000000000\n    require(remainder == 0, \"Value should be an Integer mutiple of 0.01 BNB\");\n\n    potPlayersArray.push( msg.sender );\n    uint id = potPlayersArray.length - 1; \n\n    uint ticketStart = potTickets.length;\n    for (uint jj = 0; jj < ticketNumber; jj++) {\n      potTickets.push( id );\n    }\n    uint ticketEnd = potTickets.length;\n    potTicketIds.push([id, ticketStart, ticketEnd]);\n    uint id2 = potTicketIds.length;\n\n    PotPlayersMap[msg.sender].PaymentCount += 1;\n    PotPlayersMap[msg.sender].paymentValue += msg.value;\n    PotPlayersMap[msg.sender].TicketNumbers += ticketNumber;\n    PotPlayersMap[msg.sender].PlayersId.push( id );\n    PotPlayersMap[msg.sender].TicketsId.push( id2);\n    if (PotPlayersMap[msg.sender].PaymentCount == 1) {\n      realPLayerCount++;\n    }\n\n    if (address(this).balance >= 0.1 ether && realPLayerCount >= 5) {  // // potPlayersArray.length\n      lReadySelectWinner = true;\n    } \n\n    emit PlayerRegister(msg.sender, id, msg.value, ticketNumber) ;\n    if (PotPlayersMap[msg.sender].PaymentCount > 1) {\n        emit PlayerTotalValue(msg.sender, PotPlayersMap[msg.sender].PlayersId, PotPlayersMap[msg.sender].PaymentCount, PotPlayersMap[msg.sender].paymentValue, PotPlayersMap[msg.sender].TicketNumbers) ;\n    }    \n\n  }\n\n  function randomGenerator() private view returns (uint) {\n    return uint(\n      keccak256(\n        abi.encodePacked(\n          block.difficulty, block.timestamp, potTickets ))) ;\n  }\n  \n  /*\n  function lrequestRandomWords(address _VRFv2) public {\n    VRFv2Consumer(_VRFv2).requestRandomWords(LotteryOwner) ;\n  }\n  */\n\n  /**\n    * @notice Generating Random Number for Finding the Hourly Winner.\n    * @dev Call VRFv2 Random Generator Routines.\n  */\n  function getRandomValue(address _VRFv2) public view onlyOwner returns (uint256 randomWords) {\n    // uint8 zeroOne = uint8(randomGenerator() % 2);\n    // randomWords = randomGenerator();\n    randomWords = VRFv2Consumer(_VRFv2).getlRandomWords();\n  }\n\n  /**\n    * @notice Select The Hourly Winner Function.\n    * @dev Select The Pot Winner.\n  */\n  function select_Winner() public isAllowedManager {  \n\n    require( lReadySelectWinner == true, \"The Pot is not ready for Select the Winner\" );\n\n    // uint256 l_randomWords = randomGenerator();\n    uint256 l_randomWords = getRandomValue(_VRF);\n    uint winnerIndex = l_randomWords % potTickets.length;  \n    winnerIndex = potTickets[winnerIndex];\n    (uint winnerPrize, uint weeklyPot, uint monthlyPot, uint liquidityAmount) = Calculation(winnerIndex);\n    \n    emit SelectWinnerIndex(winnerIndex, address(this).balance, winnerPrize);\n\n    UpdateLotteryData(winnerIndex, address(this).balance, winnerPrize);\n    WinnerPrizePayment(winnerIndex, winnerPrize); \n    FinalPayment(weeklyPot, monthlyPot, liquidityAmount);\n    ClearDataBase();\n    // console.log(\"Select Winner Done !\");\n\n    lPotActive = false;\n    lReadySelectWinner = false;\n\n  }\n\n  /**\n    * @notice Release Smart Contract Memory .\n    * @dev Clear All Storages .\n  */\n  function ClearDataBase() private returns (bool) {\n    /* ToDo : Clear The Map Data and RElease the Memory */  \n    address playerAddress;\n    for (uint256 index = 0; index < potPlayersArray.length - 1; index++) {\n        playerAddress = potPlayersArray[index];\n        // if (PotPlayersMap[playerAddress].PaymentCount > 0) {\n        //     PotPlayersMap[playerAddress].PaymentCount = 0;\n        //     PotPlayersMap[playerAddress].paymentValue = 0;\n        //     PotPlayersMap[playerAddress].TicketNumbers = 0;\n        //     delete PotPlayersMap[playerAddress].PlayersId;\n        //     delete PotPlayersMap[playerAddress].TicketsId;\n        // }\n        delete PotPlayersMap[playerAddress];\n    }\n    delete potPlayersArray;\n    delete potTickets;\n    realPLayerCount = 0;\n    return true;\n  }\n\n  /**\n    * @notice Calculation of Pot Winner Prize.\n    * @dev Findout the 50% of the Total Pot and The Winner payment.\n  */\n  function Calculation(uint _winnerIndex) private view returns (uint winnerPrize, uint weeklyPot, uint monthlyPot, uint liquidityAmount){\n\n    uint totalPot = address(this).balance;\n    address WinnerAddress = potPlayersArray[_winnerIndex];\n    uint WinnerPotAmount = PotPlayersMap[WinnerAddress].paymentValue;\n\n    winnerPrize = totalPot - WinnerPotAmount;\n    /* ToDo : Replace Calculation Parts with OpenZeppelin SafeMath ) */\n    (winnerPrize, ) = getDivided(winnerPrize, 2);\n    winnerPrize += WinnerPotAmount; \n\n    uint otherPots = totalPot - winnerPrize;\n    (otherPots, ) = getDivided(otherPots, 20);\n    weeklyPot = otherPots;\n    monthlyPot = otherPots;\n    liquidityAmount = totalPot - 2 * otherPots - winnerPrize;\n\n  }\n\n  /**\n    * @notice Pay Pot Prize to the Winner.\n    * @dev Transfer Pot Prize to the Winner.\n  */\n  function WinnerPrizePayment(uint _winnerIndex, uint _winnerPrize) private {\n\n    address payable potWinner = payable(potPlayersArray[_winnerIndex]);  \n    potWinner.transfer(_winnerPrize);\n    emit SelectWinnerAddress(potWinner, _winnerPrize);\n    // potPlayers[winnerIndex].transfer(address(this).balance);\n\n  }\n\n  /**\n    * @notice Remaining Pot Money Transfer.\n    * @dev Transfer remaining Money to the Liquidity Pool.\n  */\n  function FinalPayment(uint weeklyPot, uint monthlyPot, uint liquidityAmount) private {   // onlyOwner \n\n    // uint TrxValue = address(this).balance;\n    // address payable receiver = payable(WeeklyPotAddress);\n    // TrxValue = address(this).balance; \n    // receiver.transfer(TrxValue);\n    // emit TotalPayment(receiver, TrxValue);\n\n    address payable receiver = payable(WeeklyPotAddress);\n    receiver.transfer(weeklyPot);\n    emit TotalPayment(receiver, weeklyPot);\n\n    receiver = payable(MonthlyPotAddress);\n    receiver.transfer(monthlyPot);\n    emit TotalPayment(receiver, monthlyPot);\n\n    receiver = payable(LiquidityPoolAddress);\n    receiver.transfer(liquidityAmount);\n    emit TotalPayment(receiver, liquidityAmount);\n\n  }\n\n  /**\n    * @notice Save The Winner Address for Weekly Lottery\n    * @dev Update Generator Smart Contract For Saving Hourly Winner Address\n  */\n  function UpdateLotteryData(uint _winnerIndex, uint _balance, uint _winnerPrize) private returns(bool) {\n    bool _success;\n    uint _winnerId;\n    // address _winnerAddress = potPlayersArray[_winnerIndex];\n    potWinnerAddress = potPlayersArray[_winnerIndex];\n    potWinnerPrize = _winnerPrize;\n    _success = LotteryInterface(generatorLotteryAddr).setlotteryStructs(address(this), msg.sender, _balance, potWinnerAddress, 0);  \n    _winnerId = LotteryInterface(generatorLotteryAddr).setlotteryWinnersArrayMap(msg.sender, potWinnerAddress, _winnerPrize);  \n    return true;\n  }\n\n  function set_WeeklyPotAddress(address _WeeklyPotAddress) external onlyOwner {\n    require(_WeeklyPotAddress != address(0) );\n    WeeklyPotAddress = _WeeklyPotAddress;\n  }\n\n  function set_MonthlyPotAddress(address _MonthlyPotAddress) external onlyOwner {\n    require(_MonthlyPotAddress != address(0) );\n    MonthlyPotAddress = _MonthlyPotAddress;\n  }\n\n  function set_generatorLotteryAddress(address _contractAddr) external onlyOwner {\n    generatorLotteryAddr = _contractAddr;\n  }\n\n  function set_LiquidityPoolAddress(address _LiquidityPoolAddress) external onlyOwner {\n    require(_LiquidityPoolAddress != address(0) );\n    LiquidityPoolAddress = _LiquidityPoolAddress;\n  }\n\n  // function set_MultiSigWalletAddress(address _MultiSigWalletAddress) external onlyOwner {\n  //   require(_MultiSigWalletAddress != address(0) );\n  //   MultiSigWalletAddress = _MultiSigWalletAddress;\n  // }\n\n  function setDirector(address _DirectorAddress) external onlyOwner {\n    require(_DirectorAddress != address(0) );\n    potDirector = _DirectorAddress;\n  }\n\n  function listPlayers() public view returns (address[] memory){  \n    return potPlayersArray;  \n  }\n\n  function getLotteryTickets() public view returns(uint[] memory) {\n    return potTickets;\n  }\n\n  function isPotActive() public view returns(bool) {\n    return lPotActive;\n  }\n\n  function getTicketPrice() public pure returns(uint) {\n    return TICKET_PRICE;\n  }\n\n  function getTicketAmount() public view returns(uint) {\n    return potTickets.length;\n  }\n\n  function getPlayersNumber() public view returns(uint) {\n    return potPlayersArray.length;\n  }\n\n  function getWinners() public view returns(address, uint) {\n    return ( potWinnerAddress, potWinnerPrize ) ;  \n  }  \n\n  function isReadySelectWinner() public view returns(bool) {\n    return lReadySelectWinner;\n  }\n\n  function getStartedTime() public view returns(uint) {\n    return block.timestamp - potStartTime;\n  }\n\n  function getPotDirector() public view returns(address) {\n    return potDirector;\n  }\n\n  // function getAllContractAddresses() public view returns(address[] memory) {\n  //   address[] memory contractAddresses;\n  //   contractAddresses[0] = generatorLotteryAddr;\n  //   contractAddresses[1] = LiquidityPoolAddress;\n  //   contractAddresses[2] = WeeklyPotAddress;\n  //   contractAddresses[3] = MonthlyPotAddress;\n  //   return contractAddresses;\n  // }\n  function getAllContractAddresses() public view returns(address gAddress, address lAddress, address wAddress, address mAddress) {\n    gAddress = generatorLotteryAddr ;\n    lAddress = LiquidityPoolAddress ;\n    wAddress = WeeklyPotAddress ;\n    mAddress = MonthlyPotAddress ;\n    return (gAddress, lAddress, wAddress, mAddress); \n  }\n\n  function getPlayerAmounts(address PlayerAddress) public view returns(uint, uint) {\n    uint PaymentCount = PotPlayersMap[PlayerAddress].PaymentCount;\n    uint PaymentValue = PotPlayersMap[PlayerAddress].paymentValue;\n    return (PaymentCount, PaymentValue);\n  }\n\n  function getPlayerValue(address PlayerAddress) public view returns(uint) {\n    uint PaymentValue = PotPlayersMap[PlayerAddress].paymentValue;\n    return PaymentValue;\n  }\n\n}\n\n\n/**\n************************************************************************************\n************************************************************************************\n**/\n",
  "sourcePath": "/home/batis/SrcCode/myPRJ/SmartContBlockChain/BSCLottery/contracts/LotteryCore.sol",
  "compiler": {
    "name": "solc",
    "version": "0.8.9+commit.e5eed63a.Emscripten.clang"
  },
  "schemaVersion": "3.4.3",
  "updatedAt": "2022-05-28T11:36:42.013Z",
  "networkType": "ethereum",
  "devdoc": {
    "author": "Batis ",
    "details": "LotteryGenerator SmartContract Create This for each Pot ",
    "kind": "dev",
    "methods": {
      "balanceInPot()": {
        "details": "Smart Contract total Balance.",
        "returns": {
          "_0": "Balance of This Contract."
        }
      },
      "getDivided(uint256,uint256)": {
        "details": "Safe Function for Devision Operation.",
        "params": {
          "denominator": ": The Integer Number which another Int NUmber is devided by this.  ",
          "numerator": ": The Integer Number which is being devided on another Integer Number."
        },
        "returns": {
          "quotient": "and remainder of the Devision, Both are Integer Numbers. "
        }
      },
      "getRandomValue(address)": {
        "details": "Call VRFv2 Random Generator Routines."
      },
      "owner()": {
        "details": "Returns the address of the current owner."
      },
      "play()": {
        "details": "Payable Function. "
      },
      "renounceOwnership()": {
        "details": "Leaves the contract without owner. It will not be possible to call `onlyOwner` functions anymore. Can only be called by the current owner. NOTE: Renouncing ownership will leave the contract without an owner, thereby removing any functionality that is only available to the owner."
      },
      "select_Winner()": {
        "details": "Select The Pot Winner."
      },
      "transferOwnership(address)": {
        "details": "Transfers ownership of the contract to a new account (`newOwner`). Can only be called by the current owner."
      }
    },
    "title": "Core SmartContract for BNB Public Lottery ",
    "version": 1
  },
  "userdoc": {
    "kind": "user",
    "methods": {
      "balanceInPot()": {
        "notice": "Show the total Balance of this Pot. "
      },
      "getDivided(uint256,uint256)": {
        "notice": "Function for deviding two Integer Numbers and return the results."
      },
      "getRandomValue(address)": {
        "notice": "Generating Random Number for Finding the Hourly Winner."
      },
      "play()": {
        "notice": "Players' Operation and Calculation after Sending Transaction to the SmartContract. "
      },
      "select_Winner()": {
        "notice": "Select The Hourly Winner Function."
      }
    },
    "notice": "This SmartContract is responsible for implimentation of Lottery Core System and response to the Players ",
    "version": 1
  }
}