{
  "contractName": "LotteryCore",
  "abi": [
    {
      "inputs": [
        {
          "internalType": "address",
          "name": "VRF",
          "type": "address"
        },
        {
          "internalType": "address",
          "name": "generatorLotteryAddress",
          "type": "address"
        },
        {
          "internalType": "address",
          "name": "WeeklyLotteryAddress",
          "type": "address"
        },
        {
          "internalType": "address",
          "name": "MonthlyLotteryAddress",
          "type": "address"
        },
        {
          "internalType": "address",
          "name": "LiquidityPoolAddr",
          "type": "address"
        }
      ],
      "stateMutability": "nonpayable",
      "type": "constructor"
    },
    {
      "anonymous": false,
      "inputs": [
        {
          "indexed": true,
          "internalType": "address",
          "name": "previousOwner",
          "type": "address"
        },
        {
          "indexed": true,
          "internalType": "address",
          "name": "newOwner",
          "type": "address"
        }
      ],
      "name": "OwnershipTransferred",
      "type": "event"
    },
    {
      "anonymous": false,
      "inputs": [
        {
          "indexed": false,
          "internalType": "address",
          "name": "potPlayer",
          "type": "address"
        },
        {
          "indexed": false,
          "internalType": "uint256",
          "name": "playerId",
          "type": "uint256"
        },
        {
          "indexed": false,
          "internalType": "uint256",
          "name": "PlayerValue",
          "type": "uint256"
        },
        {
          "indexed": false,
          "internalType": "uint256",
          "name": "ticketNumber",
          "type": "uint256"
        }
      ],
      "name": "PlayerRegister",
      "type": "event"
    },
    {
      "anonymous": false,
      "inputs": [
        {
          "indexed": false,
          "internalType": "address",
          "name": "potPlayer",
          "type": "address"
        },
        {
          "indexed": false,
          "internalType": "uint256[]",
          "name": "playerId",
          "type": "uint256[]"
        },
        {
          "indexed": false,
          "internalType": "uint256",
          "name": "playCount",
          "type": "uint256"
        },
        {
          "indexed": false,
          "internalType": "uint256",
          "name": "playerValue",
          "type": "uint256"
        },
        {
          "indexed": false,
          "internalType": "uint256",
          "name": "ticketNumber",
          "type": "uint256"
        }
      ],
      "name": "PlayerTotalValue",
      "type": "event"
    },
    {
      "anonymous": false,
      "inputs": [
        {
          "indexed": false,
          "internalType": "address",
          "name": "potWinner",
          "type": "address"
        },
        {
          "indexed": false,
          "internalType": "uint256",
          "name": "winnerPrize",
          "type": "uint256"
        }
      ],
      "name": "SelectWinnerAddress",
      "type": "event"
    },
    {
      "anonymous": false,
      "inputs": [
        {
          "indexed": false,
          "internalType": "uint256",
          "name": "winnerIndex",
          "type": "uint256"
        },
        {
          "indexed": false,
          "internalType": "uint256",
          "name": "potBalance",
          "type": "uint256"
        },
        {
          "indexed": false,
          "internalType": "uint256",
          "name": "winnerPrize",
          "type": "uint256"
        }
      ],
      "name": "SelectWinnerIndex",
      "type": "event"
    },
    {
      "anonymous": false,
      "inputs": [
        {
          "indexed": false,
          "internalType": "address",
          "name": "receiver",
          "type": "address"
        },
        {
          "indexed": false,
          "internalType": "uint256",
          "name": "TrxValue",
          "type": "uint256"
        }
      ],
      "name": "TotalPayment",
      "type": "event"
    },
    {
      "stateMutability": "payable",
      "type": "fallback",
      "payable": true
    },
    {
      "inputs": [],
      "name": "owner",
      "outputs": [
        {
          "internalType": "address",
          "name": "",
          "type": "address"
        }
      ],
      "stateMutability": "view",
      "type": "function",
      "constant": true
    },
    {
      "inputs": [],
      "name": "potStartTime",
      "outputs": [
        {
          "internalType": "uint256",
          "name": "",
          "type": "uint256"
        }
      ],
      "stateMutability": "view",
      "type": "function",
      "constant": true
    },
    {
      "inputs": [],
      "name": "renounceOwnership",
      "outputs": [],
      "stateMutability": "nonpayable",
      "type": "function"
    },
    {
      "inputs": [
        {
          "internalType": "address",
          "name": "newOwner",
          "type": "address"
        }
      ],
      "name": "transferOwnership",
      "outputs": [],
      "stateMutability": "nonpayable",
      "type": "function"
    },
    {
      "stateMutability": "payable",
      "type": "receive",
      "payable": true
    },
    {
      "inputs": [],
      "name": "balanceInPot",
      "outputs": [
        {
          "internalType": "uint256",
          "name": "",
          "type": "uint256"
        }
      ],
      "stateMutability": "view",
      "type": "function",
      "constant": true
    },
    {
      "inputs": [],
      "name": "withdraw",
      "outputs": [],
      "stateMutability": "nonpayable",
      "type": "function"
    },
    {
      "inputs": [
        {
          "internalType": "uint256",
          "name": "numerator",
          "type": "uint256"
        },
        {
          "internalType": "uint256",
          "name": "denominator",
          "type": "uint256"
        }
      ],
      "name": "getDivided",
      "outputs": [
        {
          "internalType": "uint256",
          "name": "quotient",
          "type": "uint256"
        },
        {
          "internalType": "uint256",
          "name": "remainder",
          "type": "uint256"
        }
      ],
      "stateMutability": "pure",
      "type": "function",
      "constant": true
    },
    {
      "inputs": [],
      "name": "potInitialize",
      "outputs": [],
      "stateMutability": "nonpayable",
      "type": "function"
    },
    {
      "inputs": [],
      "name": "play",
      "outputs": [],
      "stateMutability": "payable",
      "type": "function",
      "payable": true
    },
    {
      "inputs": [
        {
          "internalType": "address",
          "name": "_VRFv2",
          "type": "address"
        }
      ],
      "name": "getRandomValue",
      "outputs": [
        {
          "internalType": "uint256",
          "name": "randomWords",
          "type": "uint256"
        }
      ],
      "stateMutability": "view",
      "type": "function",
      "constant": true
    },
    {
      "inputs": [],
      "name": "select_Winner",
      "outputs": [],
      "stateMutability": "nonpayable",
      "type": "function"
    },
    {
      "inputs": [
        {
          "internalType": "address",
          "name": "_WeeklyPotAddress",
          "type": "address"
        }
      ],
      "name": "set_WeeklyPotAddress",
      "outputs": [],
      "stateMutability": "nonpayable",
      "type": "function"
    },
    {
      "inputs": [
        {
          "internalType": "address",
          "name": "_MonthlyPotAddress",
          "type": "address"
        }
      ],
      "name": "set_MonthlyPotAddress",
      "outputs": [],
      "stateMutability": "nonpayable",
      "type": "function"
    },
    {
      "inputs": [
        {
          "internalType": "address",
          "name": "_contractAddr",
          "type": "address"
        }
      ],
      "name": "generatorLotteryAddress",
      "outputs": [],
      "stateMutability": "nonpayable",
      "type": "function"
    },
    {
      "inputs": [
        {
          "internalType": "address",
          "name": "_LiquidityPoolAddress",
          "type": "address"
        }
      ],
      "name": "set_LiquidityPoolAddress",
      "outputs": [],
      "stateMutability": "nonpayable",
      "type": "function"
    },
    {
      "inputs": [
        {
          "internalType": "address",
          "name": "_DirectorAddress",
          "type": "address"
        }
      ],
      "name": "setDirector",
      "outputs": [],
      "stateMutability": "nonpayable",
      "type": "function"
    },
    {
      "inputs": [],
      "name": "listPlayers",
      "outputs": [
        {
          "internalType": "address[]",
          "name": "",
          "type": "address[]"
        }
      ],
      "stateMutability": "view",
      "type": "function",
      "constant": true
    },
    {
      "inputs": [],
      "name": "getLotteryTickets",
      "outputs": [
        {
          "internalType": "uint256[]",
          "name": "",
          "type": "uint256[]"
        }
      ],
      "stateMutability": "view",
      "type": "function",
      "constant": true
    },
    {
      "inputs": [],
      "name": "isPotActive",
      "outputs": [
        {
          "internalType": "bool",
          "name": "",
          "type": "bool"
        }
      ],
      "stateMutability": "view",
      "type": "function",
      "constant": true
    },
    {
      "inputs": [],
      "name": "getTicketPrice",
      "outputs": [
        {
          "internalType": "uint256",
          "name": "",
          "type": "uint256"
        }
      ],
      "stateMutability": "pure",
      "type": "function",
      "constant": true
    },
    {
      "inputs": [],
      "name": "getTicketAmount",
      "outputs": [
        {
          "internalType": "uint256",
          "name": "",
          "type": "uint256"
        }
      ],
      "stateMutability": "view",
      "type": "function",
      "constant": true
    },
    {
      "inputs": [],
      "name": "getPlayersNumber",
      "outputs": [
        {
          "internalType": "uint256",
          "name": "",
          "type": "uint256"
        }
      ],
      "stateMutability": "view",
      "type": "function",
      "constant": true
    },
    {
      "inputs": [],
      "name": "getWinners",
      "outputs": [
        {
          "internalType": "address",
          "name": "",
          "type": "address"
        }
      ],
      "stateMutability": "view",
      "type": "function",
      "constant": true
    },
    {
      "inputs": [],
      "name": "isReadySelectWinner",
      "outputs": [
        {
          "internalType": "bool",
          "name": "",
          "type": "bool"
        }
      ],
      "stateMutability": "view",
      "type": "function",
      "constant": true
    },
    {
      "inputs": [],
      "name": "getStartedTime",
      "outputs": [
        {
          "internalType": "uint256",
          "name": "",
          "type": "uint256"
        }
      ],
      "stateMutability": "view",
      "type": "function",
      "constant": true
    },
    {
      "inputs": [],
      "name": "getPotDirector",
      "outputs": [
        {
          "internalType": "address",
          "name": "",
          "type": "address"
        }
      ],
      "stateMutability": "view",
      "type": "function",
      "constant": true
    },
    {
      "inputs": [],
      "name": "getAllContractAddresses",
      "outputs": [
        {
          "internalType": "address[]",
          "name": "",
          "type": "address[]"
        }
      ],
      "stateMutability": "view",
      "type": "function",
      "constant": true
    },
    {
      "inputs": [
        {
          "internalType": "address",
          "name": "PlayerAddress",
          "type": "address"
        }
      ],
      "name": "getPlayerAmounts",
      "outputs": [
        {
          "internalType": "uint256",
          "name": "",
          "type": "uint256"
        },
        {
          "internalType": "uint256",
          "name": "",
          "type": "uint256"
        }
      ],
      "stateMutability": "view",
      "type": "function",
      "constant": true
    },
    {
      "inputs": [
        {
          "internalType": "address",
          "name": "PlayerAddress",
          "type": "address"
        }
      ],
      "name": "getPlayerValue",
      "outputs": [
        {
          "internalType": "uint256",
          "name": "",
          "type": "uint256"
        }
      ],
      "stateMutability": "view",
      "type": "function",
      "constant": true
    }
  ],
  "bytecode": "0x608060405260006007553480156200001657600080fd5b50604051620039313803806200393183398181016040528101906200003c919062000360565b6200005c620000506200022a60201b60201c565b6200023260201b60201c565b33600660006101000a81548173ffffffffffffffffffffffffffffffffffffffff021916908373ffffffffffffffffffffffffffffffffffffffff16021790555084600160006101000a81548173ffffffffffffffffffffffffffffffffffffffff021916908373ffffffffffffffffffffffffffffffffffffffff1602179055506001600660146101000a81548160ff0219169083151502179055506000600660156101000a81548160ff0219169083151502179055504260078190555083600260006101000a81548173ffffffffffffffffffffffffffffffffffffffff021916908373ffffffffffffffffffffffffffffffffffffffff16021790555080600360006101000a81548173ffffffffffffffffffffffffffffffffffffffff021916908373ffffffffffffffffffffffffffffffffffffffff16021790555082600460006101000a81548173ffffffffffffffffffffffffffffffffffffffff021916908373ffffffffffffffffffffffffffffffffffffffff16021790555081600560006101000a81548173ffffffffffffffffffffffffffffffffffffffff021916908373ffffffffffffffffffffffffffffffffffffffff1602179055505050505050620003e8565b600033905090565b60008060009054906101000a900473ffffffffffffffffffffffffffffffffffffffff169050816000806101000a81548173ffffffffffffffffffffffffffffffffffffffff021916908373ffffffffffffffffffffffffffffffffffffffff1602179055508173ffffffffffffffffffffffffffffffffffffffff168173ffffffffffffffffffffffffffffffffffffffff167f8be0079c531659141344cd1fd0a4f28419497f9722a3daafe3b4186f6b6457e060405160405180910390a35050565b600080fd5b600073ffffffffffffffffffffffffffffffffffffffff82169050919050565b60006200032882620002fb565b9050919050565b6200033a816200031b565b81146200034657600080fd5b50565b6000815190506200035a816200032f565b92915050565b600080600080600060a086880312156200037f576200037e620002f6565b5b60006200038f8882890162000349565b9550506020620003a28882890162000349565b9450506040620003b58882890162000349565b9350506060620003c88882890162000349565b9250506080620003db8882890162000349565b9150509295509295909350565b61353980620003f86000396000f3fe6080604052600436106101c65760003560e01c80636c253437116100f757806393e84cd911610095578063d7573c1111610064578063d7573c11146105d1578063df15c37e146105fc578063e8b05e3814610627578063f2fde38b14610652576101cd565b806393e84cd9146105345780639e94d5ab1461053e578063a8078b7a1461057b578063c5ae6f3e146105a6576101cd565b8063737bb723116100d1578063737bb7231461048a578063766eef11146104b357806387bb7ae0146104de5780638da5cb5b14610509576101cd565b80636c253437146104315780636cf6995814610448578063715018a614610473576101cd565b80633ccfd60b116101645780634442713c1161013e5780634442713c146103895780635efaf044146103b4578063614f6f87146103dd57806364605d5114610406576101cd565b80633ccfd60b1461031e5780633fa420c414610335578063442db8fb1461035e576101cd565b806326ba4319116101a057806326ba4319146102755780632ac75ab51461029e5780633298944a146102b55780633b33b61a146102f3576101cd565b806314e59987146101cf57806314e5e90e146101fa578063194d02d714610237576101cd565b366101cd57005b005b3480156101db57600080fd5b506101e461067b565b6040516101f191906126fe565b60405180910390f35b34801561020657600080fd5b50610221600480360381019061021c919061277c565b610683565b60405161022e91906126fe565b60405180910390f35b34801561024357600080fd5b5061025e600480360381019061025991906127d5565b610786565b60405161026c929190612815565b60405180910390f35b34801561028157600080fd5b5061029c6004803603810190610297919061277c565b61083e565b005b3480156102aa57600080fd5b506102b3610938565b005b3480156102c157600080fd5b506102dc60048036038101906102d7919061277c565b610b94565b6040516102ea929190612815565b60405180910390f35b3480156102ff57600080fd5b50610308610c32565b60405161031591906128fc565b60405180910390f35b34801561032a57600080fd5b50610333610e00565b005b34801561034157600080fd5b5061035c6004803603810190610357919061277c565b610ec5565b005b34801561036a57600080fd5b50610373610fbf565b60405161038091906129dc565b60405180910390f35b34801561039557600080fd5b5061039e611017565b6040516103ab9190612a19565b60405180910390f35b3480156103c057600080fd5b506103db60048036038101906103d6919061277c565b61102e565b005b3480156103e957600080fd5b5061040460048036038101906103ff919061277c565b611128565b005b34801561041257600080fd5b5061041b611222565b60405161042891906128fc565b60405180910390f35b34801561043d57600080fd5b506104466112b0565b005b34801561045457600080fd5b5061045d61142d565b60405161046a91906126fe565b60405180910390f35b34801561047f57600080fd5b5061048861143a565b005b34801561049657600080fd5b506104b160048036038101906104ac919061277c565b6114c2565b005b3480156104bf57600080fd5b506104c8611582565b6040516104d591906126fe565b60405180910390f35b3480156104ea57600080fd5b506104f361158f565b60405161050091906126fe565b60405180910390f35b34801561051557600080fd5b5061051e61159e565b60405161052b9190612a43565b60405180910390f35b61053c6115c7565b005b34801561054a57600080fd5b506105656004803603810190610560919061277c565b611c8a565b60405161057291906126fe565b60405180910390f35b34801561058757600080fd5b50610590611cdb565b60405161059d91906126fe565b60405180910390f35b3480156105b257600080fd5b506105bb611cf0565b6040516105c89190612a43565b60405180910390f35b3480156105dd57600080fd5b506105e6611d1a565b6040516105f391906126fe565b60405180910390f35b34801561060857600080fd5b50610611611d20565b60405161061e9190612a43565b60405180910390f35b34801561063357600080fd5b5061063c611d4a565b6040516106499190612a19565b60405180910390f35b34801561065e57600080fd5b506106796004803603810190610674919061277c565b611d61565b005b600047905090565b600061068d611e59565b73ffffffffffffffffffffffffffffffffffffffff166106ab61159e565b73ffffffffffffffffffffffffffffffffffffffff1614610701576040517f08c379a00000000000000000000000000000000000000000000000000000000081526004016106f890612abb565b60405180910390fd5b8173ffffffffffffffffffffffffffffffffffffffff166371f747906040518163ffffffff1660e01b815260040160206040518083038186803b15801561074757600080fd5b505afa15801561075b573d6000803e3d6000fd5b505050506040513d601f19601f8201168201806040525081019061077f9190612af0565b9050919050565b60008060008310156107cd576040517f08c379a00000000000000000000000000000000000000000000000000000000081526004016107c490612b8f565b60405180910390fd5b60008411610810576040517f08c379a000000000000000000000000000000000000000000000000000000000815260040161080790612b8f565b60405180910390fd5b828461081c9190612c0d565b9150818361082a9190612c3e565b846108359190612c98565b90509250929050565b610846611e59565b73ffffffffffffffffffffffffffffffffffffffff1661086461159e565b73ffffffffffffffffffffffffffffffffffffffff16146108ba576040517f08c379a00000000000000000000000000000000000000000000000000000000081526004016108b190612abb565b60405180910390fd5b600073ffffffffffffffffffffffffffffffffffffffff168173ffffffffffffffffffffffffffffffffffffffff1614156108f457600080fd5b80600d60006101000a81548173ffffffffffffffffffffffffffffffffffffffff021916908373ffffffffffffffffffffffffffffffffffffffff16021790555050565b600d60009054906101000a900473ffffffffffffffffffffffffffffffffffffffff1673ffffffffffffffffffffffffffffffffffffffff163373ffffffffffffffffffffffffffffffffffffffff1614806109e15750600660009054906101000a900473ffffffffffffffffffffffffffffffffffffffff1673ffffffffffffffffffffffffffffffffffffffff163373ffffffffffffffffffffffffffffffffffffffff16145b610a20576040517f08c379a0000000000000000000000000000000000000000000000000000000008152600401610a1790612d18565b60405180910390fd5b60011515600660159054906101000a900460ff16151514610a76576040517f08c379a0000000000000000000000000000000000000000000000000000000008152600401610a6d90612daa565b60405180910390fd5b6000610aa3600160009054906101000a900473ffffffffffffffffffffffffffffffffffffffff16610683565b90506000600a8054905082610ab89190612dca565b9050600a8181548110610ace57610acd612dfb565b5b90600052602060002001549050600080600080610aea85611e61565b93509350935093507f274f2e5ea35472f60f411beb007713c0f1c1b574f260789eedee1789cd49d9f5854786604051610b2593929190612e2a565b60405180910390a1610b378547611f78565b50610b4285856121b1565b610b4d838383612279565b610b55612470565b506000600660146101000a81548160ff0219169083151502179055506000600660156101000a81548160ff021916908315150217905550505050505050565b6000806000600860008573ffffffffffffffffffffffffffffffffffffffff1673ffffffffffffffffffffffffffffffffffffffff1681526020019081526020016000206000015490506000600860008673ffffffffffffffffffffffffffffffffffffffff1673ffffffffffffffffffffffffffffffffffffffff1681526020019081526020016000206001015490508181935093505050915091565b606080600260009054906101000a900473ffffffffffffffffffffffffffffffffffffffff1681600081518110610c6c57610c6b612dfb565b5b602002602001019073ffffffffffffffffffffffffffffffffffffffff16908173ffffffffffffffffffffffffffffffffffffffff1681525050600360009054906101000a900473ffffffffffffffffffffffffffffffffffffffff1681600181518110610cdd57610cdc612dfb565b5b602002602001019073ffffffffffffffffffffffffffffffffffffffff16908173ffffffffffffffffffffffffffffffffffffffff1681525050600460009054906101000a900473ffffffffffffffffffffffffffffffffffffffff1681600281518110610d4e57610d4d612dfb565b5b602002602001019073ffffffffffffffffffffffffffffffffffffffff16908173ffffffffffffffffffffffffffffffffffffffff1681525050600560009054906101000a900473ffffffffffffffffffffffffffffffffffffffff1681600381518110610dbf57610dbe612dfb565b5b602002602001019073ffffffffffffffffffffffffffffffffffffffff16908173ffffffffffffffffffffffffffffffffffffffff16815250508091505090565b610e08611e59565b73ffffffffffffffffffffffffffffffffffffffff16610e2661159e565b73ffffffffffffffffffffffffffffffffffffffff1614610e7c576040517f08c379a0000000000000000000000000000000000000000000000000000000008152600401610e7390612abb565b60405180910390fd5b3373ffffffffffffffffffffffffffffffffffffffff166108fc479081150290604051600060405180830381858888f19350505050158015610ec2573d6000803e3d6000fd5b50565b610ecd611e59565b73ffffffffffffffffffffffffffffffffffffffff16610eeb61159e565b73ffffffffffffffffffffffffffffffffffffffff1614610f41576040517f08c379a0000000000000000000000000000000000000000000000000000000008152600401610f3890612abb565b60405180910390fd5b600073ffffffffffffffffffffffffffffffffffffffff168173ffffffffffffffffffffffffffffffffffffffff161415610f7b57600080fd5b80600460006101000a81548173ffffffffffffffffffffffffffffffffffffffff021916908373ffffffffffffffffffffffffffffffffffffffff16021790555050565b6060600a80548060200260200160405190810160405280929190818152602001828054801561100d57602002820191906000526020600020905b815481526020019060010190808311610ff9575b5050505050905090565b6000600660149054906101000a900460ff16905090565b611036611e59565b73ffffffffffffffffffffffffffffffffffffffff1661105461159e565b73ffffffffffffffffffffffffffffffffffffffff16146110aa576040517f08c379a00000000000000000000000000000000000000000000000000000000081526004016110a190612abb565b60405180910390fd5b600073ffffffffffffffffffffffffffffffffffffffff168173ffffffffffffffffffffffffffffffffffffffff1614156110e457600080fd5b80600360006101000a81548173ffffffffffffffffffffffffffffffffffffffff021916908373ffffffffffffffffffffffffffffffffffffffff16021790555050565b611130611e59565b73ffffffffffffffffffffffffffffffffffffffff1661114e61159e565b73ffffffffffffffffffffffffffffffffffffffff16146111a4576040517f08c379a000000000000000000000000000000000000000000000000000000000815260040161119b90612abb565b60405180910390fd5b600073ffffffffffffffffffffffffffffffffffffffff168173ffffffffffffffffffffffffffffffffffffffff1614156111de57600080fd5b80600560006101000a81548173ffffffffffffffffffffffffffffffffffffffff021916908373ffffffffffffffffffffffffffffffffffffffff16021790555050565b606060098054806020026020016040519081016040528092919081815260200182805480156112a657602002820191906000526020600020905b8160009054906101000a900473ffffffffffffffffffffffffffffffffffffffff1673ffffffffffffffffffffffffffffffffffffffff168152602001906001019080831161125c575b5050505050905090565b600d60009054906101000a900473ffffffffffffffffffffffffffffffffffffffff1673ffffffffffffffffffffffffffffffffffffffff163373ffffffffffffffffffffffffffffffffffffffff1614806113595750600660009054906101000a900473ffffffffffffffffffffffffffffffffffffffff1673ffffffffffffffffffffffffffffffffffffffff163373ffffffffffffffffffffffffffffffffffffffff16145b611398576040517f08c379a000000000000000000000000000000000000000000000000000000000815260040161138f90612d18565b60405180910390fd5b60001515600660149054906101000a900460ff161515146113ee576040517f08c379a00000000000000000000000000000000000000000000000000000000081526004016113e590612ead565b60405180910390fd5b6001600660146101000a81548160ff0219169083151502179055506000600660156101000a81548160ff02191690831515021790555042600781905550565b6000600a80549050905090565b611442611e59565b73ffffffffffffffffffffffffffffffffffffffff1661146061159e565b73ffffffffffffffffffffffffffffffffffffffff16146114b6576040517f08c379a00000000000000000000000000000000000000000000000000000000081526004016114ad90612abb565b60405180910390fd5b6114c06000612582565b565b6114ca611e59565b73ffffffffffffffffffffffffffffffffffffffff166114e861159e565b73ffffffffffffffffffffffffffffffffffffffff161461153e576040517f08c379a000000000000000000000000000000000000000000000000000000000815260040161153590612abb565b60405180910390fd5b80600260006101000a81548173ffffffffffffffffffffffffffffffffffffffff021916908373ffffffffffffffffffffffffffffffffffffffff16021790555050565b6000600980549050905090565b6000662386f26fc10000905090565b60008060009054906101000a900473ffffffffffffffffffffffffffffffffffffffff16905090565b600660149054906101000a900460ff16611616576040517f08c379a000000000000000000000000000000000000000000000000000000000815260040161160d90612f3f565b60405180910390fd5b662386f26fc100003410158015611635575068056bc75e2d6310000034105b611674576040517f08c379a000000000000000000000000000000000000000000000000000000000815260040161166b90612fd1565b60405180910390fd5b6000600860003373ffffffffffffffffffffffffffffffffffffffff1673ffffffffffffffffffffffffffffffffffffffff168152602001908152602001600020600101549050678ac7230489e80000811115611706576040517f08c379a00000000000000000000000000000000000000000000000000000000081526004016116fd9061303d565b60405180910390fd5b60008061171a34662386f26fc10000610786565b9150915060008114611761576040517f08c379a0000000000000000000000000000000000000000000000000000000008152600401611758906130cf565b60405180910390fd5b6009339080600181540180825580915050600190039060005260206000200160009091909190916101000a81548173ffffffffffffffffffffffffffffffffffffffff021916908373ffffffffffffffffffffffffffffffffffffffff160217905550600060016009805490506117d89190612c98565b90506000600a80549050905060005b8481101561182b57600a8390806001815401808255809150506001900390600052602060002001600090919091909150558080611823906130ef565b9150506117e7565b506000600a805490509050600b604051806060016040528085815260200184815260200183815250908060018154018082558091505060019003906000526020600020906003020160009091909190915090600361188a929190612646565b506000600b8054905090506001600860003373ffffffffffffffffffffffffffffffffffffffff1673ffffffffffffffffffffffffffffffffffffffff16815260200190815260200160002060000160008282546118e89190613138565b9250508190555034600860003373ffffffffffffffffffffffffffffffffffffffff1673ffffffffffffffffffffffffffffffffffffffff16815260200190815260200160002060010160008282546119419190613138565b9250508190555085600860003373ffffffffffffffffffffffffffffffffffffffff1673ffffffffffffffffffffffffffffffffffffffff168152602001908152602001600020600201600082825461199a9190613138565b92505081905550600860003373ffffffffffffffffffffffffffffffffffffffff1673ffffffffffffffffffffffffffffffffffffffff168152602001908152602001600020600401849080600181540180825580915050600190039060005260206000200160009091909190915055600860003373ffffffffffffffffffffffffffffffffffffffff1673ffffffffffffffffffffffffffffffffffffffff16815260200190815260200160002060030181908060018154018082558091505060019003906000526020600020016000909190919091505567016345785d8a00004710158015611a915750600560098054905010155b15611ab2576001600660156101000a81548160ff0219169083151502179055505b7f8de5754e4ed9d4994bdb4b2b8c12dfcd51b0e994c1d34a7f20fe7f3d3fbb7bc233853489604051611ae7949392919061318e565b60405180910390a16001600860003373ffffffffffffffffffffffffffffffffffffffff1673ffffffffffffffffffffffffffffffffffffffff168152602001908152602001600020600001541115611c81577ff0b342fc13c65867c873cfbf6e19b5285bae679018bdf3376a4baca5ff066e0d33600860003373ffffffffffffffffffffffffffffffffffffffff1673ffffffffffffffffffffffffffffffffffffffff168152602001908152602001600020600401600860003373ffffffffffffffffffffffffffffffffffffffff1673ffffffffffffffffffffffffffffffffffffffff16815260200190815260200160002060000154600860003373ffffffffffffffffffffffffffffffffffffffff1673ffffffffffffffffffffffffffffffffffffffff16815260200190815260200160002060010154600860003373ffffffffffffffffffffffffffffffffffffffff1673ffffffffffffffffffffffffffffffffffffffff16815260200190815260200160002060020154604051611c789594939291906132a9565b60405180910390a15b50505050505050565b600080600860008473ffffffffffffffffffffffffffffffffffffffff1673ffffffffffffffffffffffffffffffffffffffff16815260200190815260200160002060010154905080915050919050565b600060075442611ceb9190612c98565b905090565b6000600d60009054906101000a900473ffffffffffffffffffffffffffffffffffffffff16905090565b60075481565b6000600c60009054906101000a900473ffffffffffffffffffffffffffffffffffffffff16905090565b6000600660159054906101000a900460ff16905090565b611d69611e59565b73ffffffffffffffffffffffffffffffffffffffff16611d8761159e565b73ffffffffffffffffffffffffffffffffffffffff1614611ddd576040517f08c379a0000000000000000000000000000000000000000000000000000000008152600401611dd490612abb565b60405180910390fd5b600073ffffffffffffffffffffffffffffffffffffffff168173ffffffffffffffffffffffffffffffffffffffff161415611e4d576040517f08c379a0000000000000000000000000000000000000000000000000000000008152600401611e4490613375565b60405180910390fd5b611e5681612582565b50565b600033905090565b6000806000806000479050600060098781548110611e8257611e81612dfb565b5b9060005260206000200160009054906101000a900473ffffffffffffffffffffffffffffffffffffffff1690506000600860008373ffffffffffffffffffffffffffffffffffffffff1673ffffffffffffffffffffffffffffffffffffffff1681526020019081526020016000206001015490508083611f029190612c98565b9650611f0f876002610786565b50809750508087611f209190613138565b965060008784611f309190612c98565b9050611f3d816014610786565b508091505080965080955087816002611f569190612c3e565b85611f619190612c98565b611f6b9190612c98565b9450505050509193509193565b600080600060098581548110611f9157611f90612dfb565b5b9060005260206000200160009054906101000a900473ffffffffffffffffffffffffffffffffffffffff16600c60006101000a81548173ffffffffffffffffffffffffffffffffffffffff021916908373ffffffffffffffffffffffffffffffffffffffff160217905550600260009054906101000a900473ffffffffffffffffffffffffffffffffffffffff1673ffffffffffffffffffffffffffffffffffffffff16637a1fa9e33086600c60009054906101000a900473ffffffffffffffffffffffffffffffffffffffff1660006040518563ffffffff1660e01b815260040161208094939291906133e7565b602060405180830381600087803b15801561209a57600080fd5b505af11580156120ae573d6000803e3d6000fd5b505050506040513d601f19601f820116820180604052508101906120d29190613458565b9150600260009054906101000a900473ffffffffffffffffffffffffffffffffffffffff1673ffffffffffffffffffffffffffffffffffffffff166312592fc8600c60009054906101000a900473ffffffffffffffffffffffffffffffffffffffff166040518263ffffffff1660e01b81526004016121519190612a43565b602060405180830381600087803b15801561216b57600080fd5b505af115801561217f573d6000803e3d6000fd5b505050506040513d601f19601f820116820180604052508101906121a39190612af0565b905060019250505092915050565b6000600983815481106121c7576121c6612dfb565b5b9060005260206000200160009054906101000a900473ffffffffffffffffffffffffffffffffffffffff1690508073ffffffffffffffffffffffffffffffffffffffff166108fc839081150290604051600060405180830381858888f1935050505015801561223a573d6000803e3d6000fd5b507f9b320e270eb528aa46b3a21b196f1da153ccb2d5637e892594474e969fe6b7a9818360405161226c9291906134da565b60405180910390a1505050565b6000600460009054906101000a900473ffffffffffffffffffffffffffffffffffffffff1690508073ffffffffffffffffffffffffffffffffffffffff166108fc859081150290604051600060405180830381858888f193505050501580156122e6573d6000803e3d6000fd5b507fd36f5f37e53a101e11e745c4b553773a94d17d9d7cec00640ac8331369a76d1181856040516123189291906134da565b60405180910390a1600560009054906101000a900473ffffffffffffffffffffffffffffffffffffffff1690508073ffffffffffffffffffffffffffffffffffffffff166108fc849081150290604051600060405180830381858888f1935050505015801561238b573d6000803e3d6000fd5b507fd36f5f37e53a101e11e745c4b553773a94d17d9d7cec00640ac8331369a76d1181846040516123bd9291906134da565b60405180910390a1600360009054906101000a900473ffffffffffffffffffffffffffffffffffffffff1690508073ffffffffffffffffffffffffffffffffffffffff166108fc839081150290604051600060405180830381858888f19350505050158015612430573d6000803e3d6000fd5b507fd36f5f37e53a101e11e745c4b553773a94d17d9d7cec00640ac8331369a76d1181836040516124629291906134da565b60405180910390a150505050565b60008060005b60016009805490506124889190612c98565b81101561255d57600981815481106124a3576124a2612dfb565b5b9060005260206000200160009054906101000a900473ffffffffffffffffffffffffffffffffffffffff169150600860008373ffffffffffffffffffffffffffffffffffffffff1673ffffffffffffffffffffffffffffffffffffffff168152602001908152602001600020600080820160009055600182016000905560028201600090556003820160006125389190612686565b6004820160006125489190612686565b50508080612555906130ef565b915050612476565b506009600061256c91906126a7565b600a600061257a9190612686565b600191505090565b60008060009054906101000a900473ffffffffffffffffffffffffffffffffffffffff169050816000806101000a81548173ffffffffffffffffffffffffffffffffffffffff021916908373ffffffffffffffffffffffffffffffffffffffff1602179055508173ffffffffffffffffffffffffffffffffffffffff168173ffffffffffffffffffffffffffffffffffffffff167f8be0079c531659141344cd1fd0a4f28419497f9722a3daafe3b4186f6b6457e060405160405180910390a35050565b8260038101928215612675579160200282015b82811115612674578251825591602001919060010190612659565b5b50905061268291906126c8565b5090565b50805460008255906000526020600020908101906126a491906126c8565b50565b50805460008255906000526020600020908101906126c591906126c8565b50565b5b808211156126e15760008160009055506001016126c9565b5090565b6000819050919050565b6126f8816126e5565b82525050565b600060208201905061271360008301846126ef565b92915050565b600080fd5b600073ffffffffffffffffffffffffffffffffffffffff82169050919050565b60006127498261271e565b9050919050565b6127598161273e565b811461276457600080fd5b50565b60008135905061277681612750565b92915050565b60006020828403121561279257612791612719565b5b60006127a084828501612767565b91505092915050565b6127b2816126e5565b81146127bd57600080fd5b50565b6000813590506127cf816127a9565b92915050565b600080604083850312156127ec576127eb612719565b5b60006127fa858286016127c0565b925050602061280b858286016127c0565b9150509250929050565b600060408201905061282a60008301856126ef565b61283760208301846126ef565b9392505050565b600081519050919050565b600082825260208201905092915050565b6000819050602082019050919050565b6128738161273e565b82525050565b6000612885838361286a565b60208301905092915050565b6000602082019050919050565b60006128a98261283e565b6128b38185612849565b93506128be8361285a565b8060005b838110156128ef5781516128d68882612879565b97506128e183612891565b9250506001810190506128c2565b5085935050505092915050565b60006020820190508181036000830152612916818461289e565b905092915050565b600081519050919050565b600082825260208201905092915050565b6000819050602082019050919050565b612953816126e5565b82525050565b6000612965838361294a565b60208301905092915050565b6000602082019050919050565b60006129898261291e565b6129938185612929565b935061299e8361293a565b8060005b838110156129cf5781516129b68882612959565b97506129c183612971565b9250506001810190506129a2565b5085935050505092915050565b600060208201905081810360008301526129f6818461297e565b905092915050565b60008115159050919050565b612a13816129fe565b82525050565b6000602082019050612a2e6000830184612a0a565b92915050565b612a3d8161273e565b82525050565b6000602082019050612a586000830184612a34565b92915050565b600082825260208201905092915050565b7f4f776e61626c653a2063616c6c6572206973206e6f7420746865206f776e6572600082015250565b6000612aa5602083612a5e565b9150612ab082612a6f565b602082019050919050565b60006020820190508181036000830152612ad481612a98565b9050919050565b600081519050612aea816127a9565b92915050565b600060208284031215612b0657612b05612719565b5b6000612b1484828501612adb565b91505092915050565b7f4469766973696f6e206973204e6f7420506f737369626c65202c20427567206960008201527f6e204e756d626572732021000000000000000000000000000000000000000000602082015250565b6000612b79602b83612a5e565b9150612b8482612b1d565b604082019050919050565b60006020820190508181036000830152612ba881612b6c565b9050919050565b7f4e487b7100000000000000000000000000000000000000000000000000000000600052601260045260246000fd5b7f4e487b7100000000000000000000000000000000000000000000000000000000600052601160045260246000fd5b6000612c18826126e5565b9150612c23836126e5565b925082612c3357612c32612baf565b5b828204905092915050565b6000612c49826126e5565b9150612c54836126e5565b9250817fffffffffffffffffffffffffffffffffffffffffffffffffffffffffffffffff0483118215151615612c8d57612c8c612bde565b5b828202905092915050565b6000612ca3826126e5565b9150612cae836126e5565b925082821015612cc157612cc0612bde565b5b828203905092915050565b7f5065726d697373696f6e2044656e696564202121000000000000000000000000600082015250565b6000612d02601483612a5e565b9150612d0d82612ccc565b602082019050919050565b60006020820190508181036000830152612d3181612cf5565b9050919050565b7f54686520506f74206973206e6f7420726561647920666f722053656c6563742060008201527f7468652057696e6e657200000000000000000000000000000000000000000000602082015250565b6000612d94602a83612a5e565b9150612d9f82612d38565b604082019050919050565b60006020820190508181036000830152612dc381612d87565b9050919050565b6000612dd5826126e5565b9150612de0836126e5565b925082612df057612def612baf565b5b828206905092915050565b7f4e487b7100000000000000000000000000000000000000000000000000000000600052603260045260246000fd5b6000606082019050612e3f60008301866126ef565b612e4c60208301856126ef565b612e5960408301846126ef565b949350505050565b7f54686520506f742069732073746172746564206265666f726520210000000000600082015250565b6000612e97601b83612a5e565b9150612ea282612e61565b602082019050919050565b60006020820190508181036000830152612ec681612e8a565b9050919050565b7f54686520506f7420686173206e6f74206265656e20526561647920746f20506c60008201527f617920796574204f72205468652047616d65206973204f766572210000000000602082015250565b6000612f29603b83612a5e565b9150612f3482612ecd565b604082019050919050565b60006020820190508181036000830152612f5881612f1c565b9050919050565b7f56616c75652073686f756c64206265206265747765656e20302e30312026203160008201527f303020424e420000000000000000000000000000000000000000000000000000602082015250565b6000612fbb602683612a5e565b9150612fc682612f5f565b604082019050919050565b60006020820190508181036000830152612fea81612fae565b9050919050565b7f596f7520706c6179656420746f6f206d75636820212100000000000000000000600082015250565b6000613027601683612a5e565b915061303282612ff1565b602082019050919050565b600060208201905081810360008301526130568161301a565b9050919050565b7f56616c75652073686f756c6420626520616e20496e7465676572206d7574697060008201527f6c65206f6620302e303120424e42000000000000000000000000000000000000602082015250565b60006130b9602e83612a5e565b91506130c48261305d565b604082019050919050565b600060208201905081810360008301526130e8816130ac565b9050919050565b60006130fa826126e5565b91507fffffffffffffffffffffffffffffffffffffffffffffffffffffffffffffffff82141561312d5761312c612bde565b5b600182019050919050565b6000613143826126e5565b915061314e836126e5565b9250827fffffffffffffffffffffffffffffffffffffffffffffffffffffffffffffffff0382111561318357613182612bde565b5b828201905092915050565b60006080820190506131a36000830187612a34565b6131b060208301866126ef565b6131bd60408301856126ef565b6131ca60608301846126ef565b95945050505050565b600081549050919050565b60008190508160005260206000209050919050565b60008160001c9050919050565b6000819050919050565b600061321d613218836131f3565b613200565b9050919050565b6000613230825461320a565b9050919050565b6000600182019050919050565b600061324f826131d3565b6132598185612929565b9350613264836131de565b8060005b8381101561329c5761327982613224565b6132838882612959565b975061328e83613237565b925050600181019050613268565b5085935050505092915050565b600060a0820190506132be6000830188612a34565b81810360208301526132d08187613244565b90506132df60408301866126ef565b6132ec60608301856126ef565b6132f960808301846126ef565b9695505050505050565b7f4f776e61626c653a206e6577206f776e657220697320746865207a65726f206160008201527f6464726573730000000000000000000000000000000000000000000000000000602082015250565b600061335f602683612a5e565b915061336a82613303565b604082019050919050565b6000602082019050818103600083015261338e81613352565b9050919050565b6000819050919050565b600060ff82169050919050565b6000819050919050565b60006133d16133cc6133c784613395565b6133ac565b61339f565b9050919050565b6133e1816133b6565b82525050565b60006080820190506133fc6000830187612a34565b61340960208301866126ef565b6134166040830185612a34565b61342360608301846133d8565b95945050505050565b613435816129fe565b811461344057600080fd5b50565b6000815190506134528161342c565b92915050565b60006020828403121561346e5761346d612719565b5b600061347c84828501613443565b91505092915050565b60006134a061349b6134968461271e565b6133ac565b61271e565b9050919050565b60006134b282613485565b9050919050565b60006134c4826134a7565b9050919050565b6134d4816134b9565b82525050565b60006040820190506134ef60008301856134cb565b6134fc60208301846126ef565b939250505056fea2646970667358221220901d3faa186c1319c80c0ef94f15e580fe0d67f0f5a02843ceb90753d2a3dbc164736f6c63430008090033",
  "immutableReferences": {},
  "source": "// SPDX-License-Identifier: MIT\npragma solidity ^0.8.0;\n// pragma experimental ABIEncoderV2;\n\n/* ToDo : Use Ownable OpenZeppelin */\nimport \"@openzeppelin/contracts/access/Ownable.sol\";\nimport \"@openzeppelin/contracts/utils/math/SafeMath.sol\";\n\n// import \"./LotteryGenerator.sol\";\nimport \"./VRFv2Consumer.sol\";\nimport \"./VRFv2SubscriptionManager.sol\";\n\n// import \"truffle/Console.sol\";\n// import \"hardhat/console.sol\";\n\nimport \"./LotteryInterface.sol\";\n\n// interface IlotteryGenerator {\n//     function setlotteryStructs(address _lotteryAddress, uint _totalBalance, address _winnerAddress, uint8 _lotteryType) external returns (bool);\n//     function setlotteryWinnersArrayMap(address _lotteryAddress, address _winnerAddress) external returns (uint);\n// }\n\n\n/**\n************************************************************************************\n************************************************************************************\n*/\n\n/**\n  * @title Core SmartContract for BNB Public Lottery \n  * @author Batis \n  * @notice This SmartContract is responsible for implimentation of Lottery Core System and response to the Players \n  * @dev LotteryGenerator SmartContract Create This for each Pot \n*/\ncontract LotteryCore is Ownable {\n\n  address private _VRF;\n  address private generatorLotteryAddr;\n  address private LiquidityPoolAddress;\n  // address private MultiSigWalletAddress;\n  address private WeeklyPotAddress;\n  address private MonthlyPotAddress;   \n  address private LotteryOwner;\n\n  uint constant TICKET_PRICE = 10 * 1e15; // finney (0.01 Ether)\n\n  // address public LotteryOwner; \n  bool private lPotActive;  \n  bool private lReadySelectWinner; \n  uint public potStartTime = 0;\n\n  struct PotPlayerStr{\n    uint PaymentCount;\n    uint paymentValue;\n    uint TicketNumbers;\n    uint[] TicketsId;\n    uint[] PlayersId;\n  }\n\n  mapping (address => PotPlayerStr) private PotPlayersMap;  \n  address[] private potPlayersArray;  \n  uint[] private potTickets;\n  uint[3][] private potTicketIds;  /* ToDo: Change Search routine base on the Start and End of Tickets for each Address (ID)  */ \n  address private potWinnerAddress;\n  address private potDirector;  /* ToDo: All Main Action must be controlled only by Owner or Director */\n   \n  /* ToDo : Lottery Pot Generator Structure as a Wrapper for Lottery Core */\n  // struct LotteryPot{\n  //   string potLabel;\n  //   uint entryCount;\n  //   uint potSerial;\n  //   uint potValue;\n  //   // mapping(address => PotPlayer) players;\n  // }\n\n  event SelectWinnerIndex(uint winnerIndex, uint potBalance, uint winnerPrize);\n  event SelectWinnerAddress(address potWinner, uint winnerPrize);\n  event PlayerRegister(address potPlayer, uint playerId, uint PlayerValue, uint ticketNumber);\n  event PlayerTotalValue(address potPlayer, uint[] playerId, uint playCount, uint playerValue, uint ticketNumber);\n  event TotalPayment(address receiver, uint TrxValue);\n\n  constructor(address VRF, address generatorLotteryAddress, address WeeklyLotteryAddress, address MonthlyLotteryAddress, address LiquidityPoolAddr) {\n    LotteryOwner = msg.sender;\n    _VRF = VRF;\n    lPotActive = true;\n    lReadySelectWinner = false;\n    potStartTime = block.timestamp;\n    generatorLotteryAddr = generatorLotteryAddress;\n    LiquidityPoolAddress = LiquidityPoolAddr ;\n    WeeklyPotAddress = WeeklyLotteryAddress ;\n    MonthlyPotAddress = MonthlyLotteryAddress ;   \n  }\n\n  // modifier onlyOwner() {\n  //   require(msg.sender == LotteryOwner, \"Owner Only! . You have not the right Access.\");\n  //   _;\n  // }\n\n  /* ToDo : Add & Complete Fallback routine */\n  fallback() external payable {\n  }\n  receive() external payable {\n  }\n\n  modifier isAllowedManager() {\n      require( msg.sender == potDirector || msg.sender == LotteryOwner , \"Permission Denied !!\" );\n      _;\n  }\n\n  modifier isGameOn() {\n      require(lPotActive , \"The Pot has not been Ready to Play yet Or The Game is Over!\");  // && !lReadySelectWinner \n      _;\n  }\n\n  modifier isPotValuable() {\n      require( (address(this).balance >= 0.1 ether && potPlayersArray.length >= 5) , \"The Pot is not Filled Enough !\");\n      _;\n  }\n\n  /**\n    * @notice Show the total Balance of this Pot. \n    * @dev Smart Contract total Balance.\n    * @return Balance of This Contract.\n  */\n  function balanceInPot() public view returns(uint){\n    return address(this).balance;\n  }\n\n  function withdraw() external onlyOwner {\n    payable(msg.sender).transfer(address(this).balance);\n  }\n\n\n  /* ToDo : Replace This function with OpenZeppelin SafeMath */\n  /**\n    * @notice Function for deviding two Integer Numbers and return the results.\n    * @dev Safe Function for Devision Operation.\n    * @param numerator : The Integer Number which is being devided on another Integer Number.\n    * @param denominator : The Integer Number which another Int NUmber is devided by this.  \n    * @return quotient and remainder of the Devision, Both are Integer Numbers. \n  */\n  function getDivided(uint numerator, uint denominator) public pure returns(uint quotient, uint remainder) {\n    require( denominator >= 0, \"Division is Not Possible , Bug in Numbers !\");\n    require( numerator > 0, \"Division is Not Possible , Bug in Numbers !\");\n    quotient  = numerator / denominator; \n    remainder = numerator - denominator * quotient;\n  }\n\n  function potInitialize() external isAllowedManager {\n    require(lPotActive == false, \"The Pot is started before !\");\n    lPotActive = true ;\n    lReadySelectWinner = false;\n    potStartTime = block.timestamp;\n  }\n\n  /**\n    * @notice Players' Operation and Calculation after Sending Transaction to the SmartContract. \n    * @dev Payable Function. \n  */\n  function play() public payable isGameOn {\n\n    /* ToDo: Convert Ether to BNB */\n    require(msg.value >= 0.01 ether && msg.value < 100 ether, \"Value should be between 0.01 & 100 BNB\");\n\n    uint userPotAmount = PotPlayersMap[msg.sender].paymentValue;\n    require(userPotAmount <= 10 ether, \"You played too much !!\");\n\n    /* ToDo: Replace with SafeMath */\n    (uint ticketNumber, uint remainder ) = getDivided(msg.value, TICKET_PRICE); // 10000000000000000\n    require(remainder == 0, \"Value should be an Integer mutiple of 0.01 BNB\");\n\n    potPlayersArray.push( msg.sender );\n    uint id = potPlayersArray.length - 1; \n\n    uint ticketStart = potTickets.length;\n    for (uint jj = 0; jj < ticketNumber; jj++) {\n      potTickets.push( id );\n    }\n    uint ticketEnd = potTickets.length;\n    potTicketIds.push([id, ticketStart, ticketEnd]);\n    uint id2 = potTicketIds.length;\n\n    PotPlayersMap[msg.sender].PaymentCount += 1;\n    PotPlayersMap[msg.sender].paymentValue += msg.value;\n    PotPlayersMap[msg.sender].TicketNumbers += ticketNumber;\n    PotPlayersMap[msg.sender].PlayersId.push( id );\n    PotPlayersMap[msg.sender].TicketsId.push( id2);\n\n    if (address(this).balance >= 0.1 ether && potPlayersArray.length >= 5) {\n      lReadySelectWinner = true;\n    } \n\n    emit PlayerRegister(msg.sender, id, msg.value, ticketNumber) ;\n    if (PotPlayersMap[msg.sender].PaymentCount > 1) {\n        emit PlayerTotalValue(msg.sender, PotPlayersMap[msg.sender].PlayersId, PotPlayersMap[msg.sender].PaymentCount, PotPlayersMap[msg.sender].paymentValue, PotPlayersMap[msg.sender].TicketNumbers) ;\n    }    \n\n  }\n\n  /*\n  function randomGenerator() private view returns (uint) {\n    return uint(\n      keccak256(\n        abi.encodePacked(\n          block.difficulty, block.timestamp, potTickets ))) ;\n  }\n  */\n\n  /*\n  function lrequestRandomWords(address _VRFv2) public {\n    VRFv2Consumer(_VRFv2).requestRandomWords(LotteryOwner) ;\n  }\n  */\n\n  /**\n    * @notice Generating Random Number for Finding the Hourly Winner.\n    * @dev Call VRFv2 Random Generator Routines.\n  */\n  function getRandomValue(address _VRFv2) public view onlyOwner returns (uint256 randomWords) {\n    // uint8 zeroOne = uint8(randomGenerator() % 2);\n    // randomWords = randomGenerator();\n    randomWords = VRFv2Consumer(_VRFv2).getlRandomWords();\n  }\n\n  /**\n    * @notice Select The Hourly Winner Function.\n    * @dev Select The Pot Winner.\n  */\n  function select_Winner() public isAllowedManager {  \n\n    require( lReadySelectWinner == true, \"The Pot is not ready for Select the Winner\" );\n\n    // uint256 l_randomWords = randomGenerator();\n    uint256 l_randomWords = getRandomValue(_VRF);\n    uint winnerIndex = l_randomWords % potTickets.length;  \n    winnerIndex = potTickets[winnerIndex];\n    (uint winnerPrize, uint weeklyPot, uint monthlyPot, uint liquidityAmount) = Calculation(winnerIndex);\n    \n    emit SelectWinnerIndex(winnerIndex, address(this).balance, winnerPrize);\n\n    UpdateLotteryData(winnerIndex, address(this).balance);\n    WinnerPrizePayment(winnerIndex, winnerPrize); \n    FinalPayment(weeklyPot, monthlyPot, liquidityAmount);\n    ClearDataBase();\n    // console.log(\"Select Winner Done !\");\n\n    lPotActive = false;\n    lReadySelectWinner = false;\n\n  }\n\n  /**\n    * @notice Release Smart Contract Memory .\n    * @dev Clear All Storages .\n  */\n  function ClearDataBase() private returns (bool) {\n    /* ToDo : Clear The Map Data and RElease the Memory */  \n    address playerAddress;\n    for (uint256 index = 0; index < potPlayersArray.length - 1; index++) {\n        playerAddress = potPlayersArray[index];\n        // if (PotPlayersMap[playerAddress].PaymentCount > 0) {\n        //     PotPlayersMap[playerAddress].PaymentCount = 0;\n        //     PotPlayersMap[playerAddress].paymentValue = 0;\n        //     PotPlayersMap[playerAddress].TicketNumbers = 0;\n        //     delete PotPlayersMap[playerAddress].PlayersId;\n        //     delete PotPlayersMap[playerAddress].TicketsId;\n        // }\n        delete PotPlayersMap[playerAddress];\n    }\n    delete potPlayersArray;\n    delete potTickets;\n    return true;\n  }\n\n  /**\n    * @notice Calculation of Pot Winner Prize.\n    * @dev Findout the 50% of the Total Pot and The Winner payment.\n  */\n  function Calculation(uint _winnerIndex) private view returns (uint winnerPrize, uint weeklyPot, uint monthlyPot, uint liquidityAmount){\n\n    uint totalPot = address(this).balance;\n    address WinnerAddress = potPlayersArray[_winnerIndex];\n    uint WinnerPotAmount = PotPlayersMap[WinnerAddress].paymentValue;\n\n    winnerPrize = totalPot - WinnerPotAmount;\n    /* ToDo : Replace Calculation Parts with OpenZeppelin SafeMath ) */\n    (winnerPrize, ) = getDivided(winnerPrize, 2);\n    winnerPrize += WinnerPotAmount; \n\n    uint otherPots = totalPot - winnerPrize;\n    (otherPots, ) = getDivided(otherPots, 20);\n    weeklyPot = otherPots;\n    monthlyPot = otherPots;\n    liquidityAmount = totalPot - 2 * otherPots - winnerPrize;\n\n  }\n\n  /**\n    * @notice Pay Pot Prize to the Winner.\n    * @dev Transfer Pot Prize to the Winner.\n  */\n  function WinnerPrizePayment(uint _winnerIndex, uint _winnerPrize) private {\n\n    address payable potWinner = payable(potPlayersArray[_winnerIndex]);  \n    potWinner.transfer(_winnerPrize);\n    emit SelectWinnerAddress(potWinner, _winnerPrize);\n    // potPlayers[winnerIndex].transfer(address(this).balance);\n\n  }\n\n  /**\n    * @notice Remaining Pot Money Transfer.\n    * @dev Transfer remaining Money to the Liquidity Pool.\n  */\n  function FinalPayment(uint weeklyPot, uint monthlyPot, uint liquidityAmount) private {   // onlyOwner \n\n    // uint TrxValue = address(this).balance;\n    // address payable receiver = payable(WeeklyPotAddress);\n    // TrxValue = address(this).balance; \n    // receiver.transfer(TrxValue);\n    // emit TotalPayment(receiver, TrxValue);\n\n    address payable receiver = payable(WeeklyPotAddress);\n    receiver.transfer(weeklyPot);\n    emit TotalPayment(receiver, weeklyPot);\n\n    receiver = payable(MonthlyPotAddress);\n    receiver.transfer(monthlyPot);\n    emit TotalPayment(receiver, monthlyPot);\n\n    receiver = payable(LiquidityPoolAddress);\n    receiver.transfer(liquidityAmount);\n    emit TotalPayment(receiver, liquidityAmount);\n\n  }\n\n  /**\n    * @notice Save The Winner Address for Weekly Lottery\n    * @dev Update Generator Smart Contract For Saving Hourly Winner Address\n  */\n  function UpdateLotteryData(uint _winnerIndex, uint _balance) private returns(bool) {\n    bool _success;\n    uint _winnerId;\n    // address _winnerAddress = potPlayersArray[_winnerIndex];\n    potWinnerAddress = potPlayersArray[_winnerIndex];\n    _success = LotteryInterface(generatorLotteryAddr).setlotteryStructs(address(this), _balance, potWinnerAddress, 0);  \n    _winnerId = LotteryInterface(generatorLotteryAddr).setlotteryWinnersArrayMap(potWinnerAddress);  \n    return true;\n  }\n\n  function set_WeeklyPotAddress(address _WeeklyPotAddress) external onlyOwner {\n    require(_WeeklyPotAddress != address(0) );\n    WeeklyPotAddress = _WeeklyPotAddress;\n  }\n\n  function set_MonthlyPotAddress(address _MonthlyPotAddress) external onlyOwner {\n    require(_MonthlyPotAddress != address(0) );\n    MonthlyPotAddress = _MonthlyPotAddress;\n  }\n\n  function generatorLotteryAddress(address _contractAddr) external onlyOwner {\n    generatorLotteryAddr = _contractAddr;\n  }\n\n  function set_LiquidityPoolAddress(address _LiquidityPoolAddress) external onlyOwner {\n    require(_LiquidityPoolAddress != address(0) );\n    LiquidityPoolAddress = _LiquidityPoolAddress;\n  }\n\n  // function set_MultiSigWalletAddress(address _MultiSigWalletAddress) external onlyOwner {\n  //   require(_MultiSigWalletAddress != address(0) );\n  //   MultiSigWalletAddress = _MultiSigWalletAddress;\n  // }\n\n  function setDirector(address _DirectorAddress) external onlyOwner {\n    require(_DirectorAddress != address(0) );\n    potDirector = _DirectorAddress;\n  }\n\n  function listPlayers() public view returns (address[] memory){  \n    return potPlayersArray;  \n  }\n\n  function getLotteryTickets() public view returns(uint[] memory) {\n    return potTickets;\n  }\n\n  function isPotActive() public view returns(bool) {\n    return lPotActive;\n  }\n\n  function getTicketPrice() public pure returns(uint) {\n    return TICKET_PRICE;\n  }\n\n  function getTicketAmount() public view returns(uint) {\n    return potTickets.length;\n  }\n\n  function getPlayersNumber() public view returns(uint) {\n    return potPlayersArray.length;\n  }\n\n  function getWinners() public view returns(address) {\n    return potWinnerAddress;  \n  }  \n\n  function isReadySelectWinner() public view returns(bool) {\n    return lReadySelectWinner;\n  }\n\n  function getStartedTime() public view returns(uint) {\n    return block.timestamp - potStartTime;\n  }\n\n  function getPotDirector() public view returns(address) {\n    return potDirector;\n  }\n\n  function getAllContractAddresses() public view returns(address[] memory) {\n    address[] memory contractAddresses;\n    contractAddresses[0] = generatorLotteryAddr;\n    contractAddresses[1] = LiquidityPoolAddress;\n    contractAddresses[2] = WeeklyPotAddress;\n    contractAddresses[3] = MonthlyPotAddress;\n    return contractAddresses;\n  }\n\n  function getPlayerAmounts(address PlayerAddress) public view returns(uint, uint) {\n    uint PaymentCount = PotPlayersMap[PlayerAddress].PaymentCount;\n    uint PaymentValue = PotPlayersMap[PlayerAddress].paymentValue;\n    return (PaymentCount, PaymentValue);\n  }\n\n  function getPlayerValue(address PlayerAddress) public view returns(uint) {\n    uint PaymentValue = PotPlayersMap[PlayerAddress].paymentValue;\n    return PaymentValue;\n  }\n\n}\n\n\n/**\n************************************************************************************\n************************************************************************************\n**/\n",
  "sourcePath": "/home/batis/SrcCode/myPRJ/SmartContBlockChain/BSCLottery/contracts/LotteryCore.sol",
  "compiler": {
    "name": "solc",
    "version": "0.8.9+commit.e5eed63a.Emscripten.clang"
  },
  "schemaVersion": "3.4.3",
  "updatedAt": "2022-05-20T06:59:22.065Z",
  "networkType": "ethereum",
  "devdoc": {
    "author": "Batis ",
    "details": "LotteryGenerator SmartContract Create This for each Pot ",
    "kind": "dev",
    "methods": {
      "balanceInPot()": {
        "details": "Smart Contract total Balance.",
        "returns": {
          "_0": "Balance of This Contract."
        }
      },
      "getDivided(uint256,uint256)": {
        "details": "Safe Function for Devision Operation.",
        "params": {
          "denominator": ": The Integer Number which another Int NUmber is devided by this.  ",
          "numerator": ": The Integer Number which is being devided on another Integer Number."
        },
        "returns": {
          "quotient": "and remainder of the Devision, Both are Integer Numbers. "
        }
      },
      "getRandomValue(address)": {
        "details": "Call VRFv2 Random Generator Routines."
      },
      "owner()": {
        "details": "Returns the address of the current owner."
      },
      "play()": {
        "details": "Payable Function. "
      },
      "renounceOwnership()": {
        "details": "Leaves the contract without owner. It will not be possible to call `onlyOwner` functions anymore. Can only be called by the current owner. NOTE: Renouncing ownership will leave the contract without an owner, thereby removing any functionality that is only available to the owner."
      },
      "select_Winner()": {
        "details": "Select The Pot Winner."
      },
      "transferOwnership(address)": {
        "details": "Transfers ownership of the contract to a new account (`newOwner`). Can only be called by the current owner."
      }
    },
    "title": "Core SmartContract for BNB Public Lottery ",
    "version": 1
  },
  "userdoc": {
    "kind": "user",
    "methods": {
      "balanceInPot()": {
        "notice": "Show the total Balance of this Pot. "
      },
      "getDivided(uint256,uint256)": {
        "notice": "Function for deviding two Integer Numbers and return the results."
      },
      "getRandomValue(address)": {
        "notice": "Generating Random Number for Finding the Hourly Winner."
      },
      "play()": {
        "notice": "Players' Operation and Calculation after Sending Transaction to the SmartContract. "
      },
      "select_Winner()": {
        "notice": "Select The Hourly Winner Function."
      }
    },
    "notice": "This SmartContract is responsible for implimentation of Lottery Core System and response to the Players ",
    "version": 1
  }
}