{
  "contractName": "LotteryCore",
  "abi": [
    {
      "inputs": [
        {
          "internalType": "address",
          "name": "VRF",
          "type": "address"
        }
      ],
      "stateMutability": "nonpayable",
      "type": "constructor"
    },
    {
      "anonymous": false,
      "inputs": [
        {
          "indexed": true,
          "internalType": "address",
          "name": "previousOwner",
          "type": "address"
        },
        {
          "indexed": true,
          "internalType": "address",
          "name": "newOwner",
          "type": "address"
        }
      ],
      "name": "OwnershipTransferred",
      "type": "event"
    },
    {
      "anonymous": false,
      "inputs": [
        {
          "indexed": false,
          "internalType": "address",
          "name": "potPlayer",
          "type": "address"
        },
        {
          "indexed": false,
          "internalType": "uint256[]",
          "name": "playerId",
          "type": "uint256[]"
        },
        {
          "indexed": false,
          "internalType": "uint256",
          "name": "playCount",
          "type": "uint256"
        },
        {
          "indexed": false,
          "internalType": "uint256",
          "name": "playerValue",
          "type": "uint256"
        },
        {
          "indexed": false,
          "internalType": "uint256",
          "name": "ticketNumber",
          "type": "uint256"
        }
      ],
      "name": "PlayeTotalValue",
      "type": "event"
    },
    {
      "anonymous": false,
      "inputs": [
        {
          "indexed": false,
          "internalType": "address",
          "name": "potPlayer",
          "type": "address"
        },
        {
          "indexed": false,
          "internalType": "uint256",
          "name": "playerId",
          "type": "uint256"
        },
        {
          "indexed": false,
          "internalType": "uint256",
          "name": "PlayerValue",
          "type": "uint256"
        },
        {
          "indexed": false,
          "internalType": "uint256",
          "name": "ticketNumber",
          "type": "uint256"
        }
      ],
      "name": "PlayerRegister",
      "type": "event"
    },
    {
      "anonymous": false,
      "inputs": [
        {
          "indexed": false,
          "internalType": "address",
          "name": "potWinner",
          "type": "address"
        },
        {
          "indexed": false,
          "internalType": "uint256",
          "name": "winnerPrize",
          "type": "uint256"
        }
      ],
      "name": "SelectWinnerAddress",
      "type": "event"
    },
    {
      "anonymous": false,
      "inputs": [
        {
          "indexed": false,
          "internalType": "uint256",
          "name": "winnerIndex",
          "type": "uint256"
        },
        {
          "indexed": false,
          "internalType": "uint256",
          "name": "potBalance",
          "type": "uint256"
        },
        {
          "indexed": false,
          "internalType": "uint256",
          "name": "winnerPrize",
          "type": "uint256"
        }
      ],
      "name": "SelectWinnerIndex",
      "type": "event"
    },
    {
      "anonymous": false,
      "inputs": [
        {
          "indexed": false,
          "internalType": "address",
          "name": "receiver",
          "type": "address"
        },
        {
          "indexed": false,
          "internalType": "uint256",
          "name": "TrxValue",
          "type": "uint256"
        }
      ],
      "name": "TotalPayment",
      "type": "event"
    },
    {
      "stateMutability": "payable",
      "type": "fallback"
    },
    {
      "inputs": [],
      "name": "WeeklyPotAddress",
      "outputs": [
        {
          "internalType": "address",
          "name": "",
          "type": "address"
        }
      ],
      "stateMutability": "view",
      "type": "function"
    },
    {
      "inputs": [],
      "name": "owner",
      "outputs": [
        {
          "internalType": "address",
          "name": "",
          "type": "address"
        }
      ],
      "stateMutability": "view",
      "type": "function"
    },
    {
      "inputs": [],
      "name": "renounceOwnership",
      "outputs": [],
      "stateMutability": "nonpayable",
      "type": "function"
    },
    {
      "inputs": [
        {
          "internalType": "address",
          "name": "newOwner",
          "type": "address"
        }
      ],
      "name": "transferOwnership",
      "outputs": [],
      "stateMutability": "nonpayable",
      "type": "function"
    },
    {
      "stateMutability": "payable",
      "type": "receive"
    },
    {
      "inputs": [],
      "name": "balanceInPot",
      "outputs": [
        {
          "internalType": "uint256",
          "name": "",
          "type": "uint256"
        }
      ],
      "stateMutability": "view",
      "type": "function"
    },
    {
      "inputs": [],
      "name": "withdraw",
      "outputs": [],
      "stateMutability": "nonpayable",
      "type": "function"
    },
    {
      "inputs": [
        {
          "internalType": "uint256",
          "name": "numerator",
          "type": "uint256"
        },
        {
          "internalType": "uint256",
          "name": "denominator",
          "type": "uint256"
        }
      ],
      "name": "getDivided",
      "outputs": [
        {
          "internalType": "uint256",
          "name": "quotient",
          "type": "uint256"
        },
        {
          "internalType": "uint256",
          "name": "remainder",
          "type": "uint256"
        }
      ],
      "stateMutability": "pure",
      "type": "function"
    },
    {
      "inputs": [],
      "name": "play",
      "outputs": [],
      "stateMutability": "payable",
      "type": "function"
    },
    {
      "inputs": [
        {
          "internalType": "address",
          "name": "_VRFv2",
          "type": "address"
        }
      ],
      "name": "getRandomValue",
      "outputs": [
        {
          "internalType": "uint256",
          "name": "randomWords",
          "type": "uint256"
        }
      ],
      "stateMutability": "view",
      "type": "function"
    },
    {
      "inputs": [],
      "name": "select_Winner",
      "outputs": [],
      "stateMutability": "nonpayable",
      "type": "function"
    },
    {
      "inputs": [
        {
          "internalType": "address",
          "name": "_WeeklyPotAddress",
          "type": "address"
        }
      ],
      "name": "set_WeeklyPotAddress",
      "outputs": [],
      "stateMutability": "nonpayable",
      "type": "function"
    },
    {
      "inputs": [],
      "name": "listPlayers",
      "outputs": [
        {
          "internalType": "address[]",
          "name": "",
          "type": "address[]"
        }
      ],
      "stateMutability": "view",
      "type": "function"
    },
    {
      "inputs": [],
      "name": "getLotteryTickets",
      "outputs": [
        {
          "internalType": "uint256[]",
          "name": "",
          "type": "uint256[]"
        }
      ],
      "stateMutability": "view",
      "type": "function"
    },
    {
      "inputs": [
        {
          "internalType": "address",
          "name": "_contractAddr",
          "type": "address"
        }
      ],
      "name": "generatorLotteryAddress",
      "outputs": [],
      "stateMutability": "nonpayable",
      "type": "function"
    }
  ],
  "bytecode": "0x60806040523480156200001157600080fd5b5060405162002569380380620025698339818101604052810190620000379190620001d5565b620000576200004b6200009f60201b60201c565b620000a760201b60201c565b80600160006101000a81548173ffffffffffffffffffffffffffffffffffffffff021916908373ffffffffffffffffffffffffffffffffffffffff1602179055505062000207565b600033905090565b60008060009054906101000a900473ffffffffffffffffffffffffffffffffffffffff169050816000806101000a81548173ffffffffffffffffffffffffffffffffffffffff021916908373ffffffffffffffffffffffffffffffffffffffff1602179055508173ffffffffffffffffffffffffffffffffffffffff168173ffffffffffffffffffffffffffffffffffffffff167f8be0079c531659141344cd1fd0a4f28419497f9722a3daafe3b4186f6b6457e060405160405180910390a35050565b600080fd5b600073ffffffffffffffffffffffffffffffffffffffff82169050919050565b60006200019d8262000170565b9050919050565b620001af8162000190565b8114620001bb57600080fd5b50565b600081519050620001cf81620001a4565b92915050565b600060208284031215620001ee57620001ed6200016b565b5b6000620001fe84828501620001be565b91505092915050565b61235280620002176000396000f3fe6080604052600436106100e15760003560e01c8063442db8fb1161007f578063737bb72311610059578063737bb7231461027f5780638da5cb5b146102a857806393e84cd9146102d3578063f2fde38b146102dd576100e8565b8063442db8fb1461021257806364605d511461023d578063715018a614610268576100e8565b8063231085e5116100bb578063231085e5146101905780632ac75ab5146101bb5780633ccfd60b146101d25780633fa420c4146101e9576100e8565b806314e59987146100ea57806314e5e90e14610115578063194d02d714610152576100e8565b366100e857005b005b3480156100f657600080fd5b506100ff610306565b60405161010c9190611780565b60405180910390f35b34801561012157600080fd5b5061013c600480360381019061013791906117fe565b61030e565b6040516101499190611780565b60405180910390f35b34801561015e57600080fd5b5061017960048036038101906101749190611857565b610411565b604051610187929190611897565b60405180910390f35b34801561019c57600080fd5b506101a56104c9565b6040516101b291906118cf565b60405180910390f35b3480156101c757600080fd5b506101d06104ef565b005b3480156101de57600080fd5b506101e7610643565b005b3480156101f557600080fd5b50610210600480360381019061020b91906117fe565b610708565b005b34801561021e57600080fd5b50610227610802565b60405161023491906119a8565b60405180910390f35b34801561024957600080fd5b5061025261085a565b60405161025f9190611a88565b60405180910390f35b34801561027457600080fd5b5061027d6108e8565b005b34801561028b57600080fd5b506102a660048036038101906102a191906117fe565b610970565b005b3480156102b457600080fd5b506102bd610a30565b6040516102ca91906118cf565b60405180910390f35b6102db610a59565b005b3480156102e957600080fd5b5061030460048036038101906102ff91906117fe565b610ffb565b005b600047905090565b60006103186110f3565b73ffffffffffffffffffffffffffffffffffffffff16610336610a30565b73ffffffffffffffffffffffffffffffffffffffff161461038c576040517f08c379a000000000000000000000000000000000000000000000000000000000815260040161038390611b07565b60405180910390fd5b8173ffffffffffffffffffffffffffffffffffffffff166371f747906040518163ffffffff1660e01b815260040160206040518083038186803b1580156103d257600080fd5b505afa1580156103e6573d6000803e3d6000fd5b505050506040513d601f19601f8201168201806040525081019061040a9190611b3c565b9050919050565b6000806000831015610458576040517f08c379a000000000000000000000000000000000000000000000000000000000815260040161044f90611bdb565b60405180910390fd5b6000841161049b576040517f08c379a000000000000000000000000000000000000000000000000000000000815260040161049290611bdb565b60405180910390fd5b82846104a79190611c59565b915081836104b59190611c8a565b846104c09190611ce4565b90509250929050565b600360009054906101000a900473ffffffffffffffffffffffffffffffffffffffff1681565b6104f76110f3565b73ffffffffffffffffffffffffffffffffffffffff16610515610a30565b73ffffffffffffffffffffffffffffffffffffffff161461056b576040517f08c379a000000000000000000000000000000000000000000000000000000000815260040161056290611b07565b60405180910390fd5b6000610598600160009054906101000a900473ffffffffffffffffffffffffffffffffffffffff1661030e565b90506000600680549050826105ad9190611d18565b9050600681815481106105c3576105c2611d49565b5b9060005260206000200154905060006105db826110fb565b90507f274f2e5ea35472f60f411beb007713c0f1c1b574f260789eedee1789cd49d9f582478360405161061093929190611d78565b60405180910390a161062282476111bf565b5061062d828261137a565b610635611442565b61063d6114f2565b50505050565b61064b6110f3565b73ffffffffffffffffffffffffffffffffffffffff16610669610a30565b73ffffffffffffffffffffffffffffffffffffffff16146106bf576040517f08c379a00000000000000000000000000000000000000000000000000000000081526004016106b690611b07565b60405180910390fd5b3373ffffffffffffffffffffffffffffffffffffffff166108fc479081150290604051600060405180830381858888f19350505050158015610705573d6000803e3d6000fd5b50565b6107106110f3565b73ffffffffffffffffffffffffffffffffffffffff1661072e610a30565b73ffffffffffffffffffffffffffffffffffffffff1614610784576040517f08c379a000000000000000000000000000000000000000000000000000000000815260040161077b90611b07565b60405180910390fd5b600073ffffffffffffffffffffffffffffffffffffffff168173ffffffffffffffffffffffffffffffffffffffff1614156107be57600080fd5b80600360006101000a81548173ffffffffffffffffffffffffffffffffffffffff021916908373ffffffffffffffffffffffffffffffffffffffff16021790555050565b6060600680548060200260200160405190810160405280929190818152602001828054801561085057602002820191906000526020600020905b81548152602001906001019080831161083c575b5050505050905090565b606060058054806020026020016040519081016040528092919081815260200182805480156108de57602002820191906000526020600020905b8160009054906101000a900473ffffffffffffffffffffffffffffffffffffffff1673ffffffffffffffffffffffffffffffffffffffff1681526020019060010190808311610894575b5050505050905090565b6108f06110f3565b73ffffffffffffffffffffffffffffffffffffffff1661090e610a30565b73ffffffffffffffffffffffffffffffffffffffff1614610964576040517f08c379a000000000000000000000000000000000000000000000000000000000815260040161095b90611b07565b60405180910390fd5b61096e6000611604565b565b6109786110f3565b73ffffffffffffffffffffffffffffffffffffffff16610996610a30565b73ffffffffffffffffffffffffffffffffffffffff16146109ec576040517f08c379a00000000000000000000000000000000000000000000000000000000081526004016109e390611b07565b60405180910390fd5b80600260006101000a81548173ffffffffffffffffffffffffffffffffffffffff021916908373ffffffffffffffffffffffffffffffffffffffff16021790555050565b60008060009054906101000a900473ffffffffffffffffffffffffffffffffffffffff16905090565b662386f26fc100003410158015610a78575068056bc75e2d6310000034105b610ab7576040517f08c379a0000000000000000000000000000000000000000000000000000000008152600401610aae90611e21565b60405180910390fd5b600080610acb34662386f26fc10000610411565b9150915060008114610b12576040517f08c379a0000000000000000000000000000000000000000000000000000000008152600401610b0990611eb3565b60405180910390fd5b6005339080600181540180825580915050600190039060005260206000200160009091909190916101000a81548173ffffffffffffffffffffffffffffffffffffffff021916908373ffffffffffffffffffffffffffffffffffffffff16021790555060006001600580549050610b899190611ce4565b90506000600680549050905060005b84811015610bdc5760068390806001815401808255809150506001900390600052602060002001600090919091909150558080610bd490611ed3565b915050610b98565b506000600680549050905060076040518060600160405280858152602001848152602001838152509080600181540180825580915050600190039060005260206000209060030201600090919091909150906003610c3b9291906116c8565b50600060078054905090506001600460003373ffffffffffffffffffffffffffffffffffffffff1673ffffffffffffffffffffffffffffffffffffffff1681526020019081526020016000206000016000828254610c999190611f1c565b9250508190555034600460003373ffffffffffffffffffffffffffffffffffffffff1673ffffffffffffffffffffffffffffffffffffffff1681526020019081526020016000206001016000828254610cf29190611f1c565b9250508190555085600460003373ffffffffffffffffffffffffffffffffffffffff1673ffffffffffffffffffffffffffffffffffffffff1681526020019081526020016000206002016000828254610d4b9190611f1c565b92505081905550600460003373ffffffffffffffffffffffffffffffffffffffff1673ffffffffffffffffffffffffffffffffffffffff168152602001908152602001600020600401849080600181540180825580915050600190039060005260206000200160009091909190915055600460003373ffffffffffffffffffffffffffffffffffffffff1673ffffffffffffffffffffffffffffffffffffffff1681526020019081526020016000206003018190806001815401808255809150506001900390600052602060002001600090919091909150557f8de5754e4ed9d4994bdb4b2b8c12dfcd51b0e994c1d34a7f20fe7f3d3fbb7bc233853489604051610e599493929190611f72565b60405180910390a16001600460003373ffffffffffffffffffffffffffffffffffffffff1673ffffffffffffffffffffffffffffffffffffffff168152602001908152602001600020600001541115610ff3577f50d8ee368d41fb05a48faba0bb81eff5b09d7f7bbe0d333b6ddac6d4b7a5a53633600460003373ffffffffffffffffffffffffffffffffffffffff1673ffffffffffffffffffffffffffffffffffffffff168152602001908152602001600020600401600460003373ffffffffffffffffffffffffffffffffffffffff1673ffffffffffffffffffffffffffffffffffffffff16815260200190815260200160002060000154600460003373ffffffffffffffffffffffffffffffffffffffff1673ffffffffffffffffffffffffffffffffffffffff16815260200190815260200160002060010154600460003373ffffffffffffffffffffffffffffffffffffffff1673ffffffffffffffffffffffffffffffffffffffff16815260200190815260200160002060020154604051610fea95949392919061208d565b60405180910390a15b505050505050565b6110036110f3565b73ffffffffffffffffffffffffffffffffffffffff16611021610a30565b73ffffffffffffffffffffffffffffffffffffffff1614611077576040517f08c379a000000000000000000000000000000000000000000000000000000000815260040161106e90611b07565b60405180910390fd5b600073ffffffffffffffffffffffffffffffffffffffff168173ffffffffffffffffffffffffffffffffffffffff1614156110e7576040517f08c379a00000000000000000000000000000000000000000000000000000000081526004016110de90612159565b60405180910390fd5b6110f081611604565b50565b600033905090565b60008047905060006005848154811061111757611116611d49565b5b9060005260206000200160009054906101000a900473ffffffffffffffffffffffffffffffffffffffff1690506000600460008373ffffffffffffffffffffffffffffffffffffffff1673ffffffffffffffffffffffffffffffffffffffff16815260200190815260200160002060010154905080836111979190611ce4565b93506111a4846002610411565b508094505080846111b59190611f1c565b9350505050919050565b600080600080600586815481106111d9576111d8611d49565b5b9060005260206000200160009054906101000a900473ffffffffffffffffffffffffffffffffffffffff169050600260009054906101000a900473ffffffffffffffffffffffffffffffffffffffff1673ffffffffffffffffffffffffffffffffffffffff16637a1fa9e330878460006040518563ffffffff1660e01b815260040161126894939291906121cb565b602060405180830381600087803b15801561128257600080fd5b505af1158015611296573d6000803e3d6000fd5b505050506040513d601f19601f820116820180604052508101906112ba9190612248565b9250600260009054906101000a900473ffffffffffffffffffffffffffffffffffffffff1673ffffffffffffffffffffffffffffffffffffffff1663a6dddd6430836040518363ffffffff1660e01b8152600401611319929190612275565b602060405180830381600087803b15801561133357600080fd5b505af1158015611347573d6000803e3d6000fd5b505050506040513d601f19601f8201168201806040525081019061136b9190611b3c565b91506001935050505092915050565b6000600583815481106113905761138f611d49565b5b9060005260206000200160009054906101000a900473ffffffffffffffffffffffffffffffffffffffff1690508073ffffffffffffffffffffffffffffffffffffffff166108fc839081150290604051600060405180830381858888f19350505050158015611403573d6000803e3d6000fd5b507f9b320e270eb528aa46b3a21b196f1da153ccb2d5637e892594474e969fe6b7a981836040516114359291906122f3565b60405180910390a1505050565b6000600360009054906101000a900473ffffffffffffffffffffffffffffffffffffffff16905060004790508173ffffffffffffffffffffffffffffffffffffffff166108fc829081150290604051600060405180830381858888f193505050501580156114b4573d6000803e3d6000fd5b507fd36f5f37e53a101e11e745c4b553773a94d17d9d7cec00640ac8331369a76d1182826040516114e69291906122f3565b60405180910390a15050565b60008060005b600160058054905061150a9190611ce4565b8110156115df576005818154811061152557611524611d49565b5b9060005260206000200160009054906101000a900473ffffffffffffffffffffffffffffffffffffffff169150600460008373ffffffffffffffffffffffffffffffffffffffff1673ffffffffffffffffffffffffffffffffffffffff168152602001908152602001600020600080820160009055600182016000905560028201600090556003820160006115ba9190611708565b6004820160006115ca9190611708565b505080806115d790611ed3565b9150506114f8565b50600560006115ee9190611729565b600660006115fc9190611708565b600191505090565b60008060009054906101000a900473ffffffffffffffffffffffffffffffffffffffff169050816000806101000a81548173ffffffffffffffffffffffffffffffffffffffff021916908373ffffffffffffffffffffffffffffffffffffffff1602179055508173ffffffffffffffffffffffffffffffffffffffff168173ffffffffffffffffffffffffffffffffffffffff167f8be0079c531659141344cd1fd0a4f28419497f9722a3daafe3b4186f6b6457e060405160405180910390a35050565b82600381019282156116f7579160200282015b828111156116f65782518255916020019190600101906116db565b5b509050611704919061174a565b5090565b5080546000825590600052602060002090810190611726919061174a565b50565b5080546000825590600052602060002090810190611747919061174a565b50565b5b8082111561176357600081600090555060010161174b565b5090565b6000819050919050565b61177a81611767565b82525050565b60006020820190506117956000830184611771565b92915050565b600080fd5b600073ffffffffffffffffffffffffffffffffffffffff82169050919050565b60006117cb826117a0565b9050919050565b6117db816117c0565b81146117e657600080fd5b50565b6000813590506117f8816117d2565b92915050565b6000602082840312156118145761181361179b565b5b6000611822848285016117e9565b91505092915050565b61183481611767565b811461183f57600080fd5b50565b6000813590506118518161182b565b92915050565b6000806040838503121561186e5761186d61179b565b5b600061187c85828601611842565b925050602061188d85828601611842565b9150509250929050565b60006040820190506118ac6000830185611771565b6118b96020830184611771565b9392505050565b6118c9816117c0565b82525050565b60006020820190506118e460008301846118c0565b92915050565b600081519050919050565b600082825260208201905092915050565b6000819050602082019050919050565b61191f81611767565b82525050565b60006119318383611916565b60208301905092915050565b6000602082019050919050565b6000611955826118ea565b61195f81856118f5565b935061196a83611906565b8060005b8381101561199b5781516119828882611925565b975061198d8361193d565b92505060018101905061196e565b5085935050505092915050565b600060208201905081810360008301526119c2818461194a565b905092915050565b600081519050919050565b600082825260208201905092915050565b6000819050602082019050919050565b6119ff816117c0565b82525050565b6000611a1183836119f6565b60208301905092915050565b6000602082019050919050565b6000611a35826119ca565b611a3f81856119d5565b9350611a4a836119e6565b8060005b83811015611a7b578151611a628882611a05565b9750611a6d83611a1d565b925050600181019050611a4e565b5085935050505092915050565b60006020820190508181036000830152611aa28184611a2a565b905092915050565b600082825260208201905092915050565b7f4f776e61626c653a2063616c6c6572206973206e6f7420746865206f776e6572600082015250565b6000611af1602083611aaa565b9150611afc82611abb565b602082019050919050565b60006020820190508181036000830152611b2081611ae4565b9050919050565b600081519050611b368161182b565b92915050565b600060208284031215611b5257611b5161179b565b5b6000611b6084828501611b27565b91505092915050565b7f4469766973696f6e206973204e6f7420506f737369626c65202c20427567206960008201527f6e204e756d626572732021000000000000000000000000000000000000000000602082015250565b6000611bc5602b83611aaa565b9150611bd082611b69565b604082019050919050565b60006020820190508181036000830152611bf481611bb8565b9050919050565b7f4e487b7100000000000000000000000000000000000000000000000000000000600052601260045260246000fd5b7f4e487b7100000000000000000000000000000000000000000000000000000000600052601160045260246000fd5b6000611c6482611767565b9150611c6f83611767565b925082611c7f57611c7e611bfb565b5b828204905092915050565b6000611c9582611767565b9150611ca083611767565b9250817fffffffffffffffffffffffffffffffffffffffffffffffffffffffffffffffff0483118215151615611cd957611cd8611c2a565b5b828202905092915050565b6000611cef82611767565b9150611cfa83611767565b925082821015611d0d57611d0c611c2a565b5b828203905092915050565b6000611d2382611767565b9150611d2e83611767565b925082611d3e57611d3d611bfb565b5b828206905092915050565b7f4e487b7100000000000000000000000000000000000000000000000000000000600052603260045260246000fd5b6000606082019050611d8d6000830186611771565b611d9a6020830185611771565b611da76040830184611771565b949350505050565b7f56616c75652073686f756c64206265206265747765656e20302e30312026203160008201527f303020424e420000000000000000000000000000000000000000000000000000602082015250565b6000611e0b602683611aaa565b9150611e1682611daf565b604082019050919050565b60006020820190508181036000830152611e3a81611dfe565b9050919050565b7f56616c75652073686f756c6420626520616e20496e7465676572206d7574697060008201527f6c65206f6620302e303120424e42000000000000000000000000000000000000602082015250565b6000611e9d602e83611aaa565b9150611ea882611e41565b604082019050919050565b60006020820190508181036000830152611ecc81611e90565b9050919050565b6000611ede82611767565b91507fffffffffffffffffffffffffffffffffffffffffffffffffffffffffffffffff821415611f1157611f10611c2a565b5b600182019050919050565b6000611f2782611767565b9150611f3283611767565b9250827fffffffffffffffffffffffffffffffffffffffffffffffffffffffffffffffff03821115611f6757611f66611c2a565b5b828201905092915050565b6000608082019050611f8760008301876118c0565b611f946020830186611771565b611fa16040830185611771565b611fae6060830184611771565b95945050505050565b600081549050919050565b60008190508160005260206000209050919050565b60008160001c9050919050565b6000819050919050565b6000612001611ffc83611fd7565b611fe4565b9050919050565b60006120148254611fee565b9050919050565b6000600182019050919050565b600061203382611fb7565b61203d81856118f5565b935061204883611fc2565b8060005b838110156120805761205d82612008565b6120678882611925565b97506120728361201b565b92505060018101905061204c565b5085935050505092915050565b600060a0820190506120a260008301886118c0565b81810360208301526120b48187612028565b90506120c36040830186611771565b6120d06060830185611771565b6120dd6080830184611771565b9695505050505050565b7f4f776e61626c653a206e6577206f776e657220697320746865207a65726f206160008201527f6464726573730000000000000000000000000000000000000000000000000000602082015250565b6000612143602683611aaa565b915061214e826120e7565b604082019050919050565b6000602082019050818103600083015261217281612136565b9050919050565b6000819050919050565b600060ff82169050919050565b6000819050919050565b60006121b56121b06121ab84612179565b612190565b612183565b9050919050565b6121c58161219a565b82525050565b60006080820190506121e060008301876118c0565b6121ed6020830186611771565b6121fa60408301856118c0565b61220760608301846121bc565b95945050505050565b60008115159050919050565b61222581612210565b811461223057600080fd5b50565b6000815190506122428161221c565b92915050565b60006020828403121561225e5761225d61179b565b5b600061226c84828501612233565b91505092915050565b600060408201905061228a60008301856118c0565b61229760208301846118c0565b9392505050565b60006122b96122b46122af846117a0565b612190565b6117a0565b9050919050565b60006122cb8261229e565b9050919050565b60006122dd826122c0565b9050919050565b6122ed816122d2565b82525050565b600060408201905061230860008301856122e4565b6123156020830184611771565b939250505056fea26469706673582212206c03a14bd3b682440e50fcac012bf2d5dacfbf635f83d57c3520702bd991ef2564736f6c63430008090033",
  "immutableReferences": {},
  "source": "// SPDX-License-Identifier: MIT\npragma solidity ^0.8.0;\n// pragma experimental ABIEncoderV2;\n\n/* ToDo : Use Ownable OpenZeppelin */\nimport \"@openzeppelin/contracts/access/Ownable.sol\";\nimport \"@openzeppelin/contracts/utils/math/SafeMath.sol\";\n\n// import \"./LotteryGenerator.sol\";\nimport \"./VRFv2Consumer.sol\";\nimport \"./VRFv2SubscriptionManager.sol\";\n\n// import \"truffle/Console.sol\";\n// import \"hardhat/console.sol\";\n\nimport \"./LotteryInterface.sol\";\n\n// interface IlotteryGenerator {\n//     function setlotteryStructs(address _lotteryAddress, uint _totalBalance, address _winnerAddress, uint8 _lotteryType) external returns (bool);\n//     function setlotteryWinnersArrayMap(address _lotteryAddress, address _winnerAddress) external returns (uint);\n// }\n  // function LotteryWinnersArray() external view returns (address[] memory);\n  // function WeeklyWinnersArray() external view returns (address[] memory);\n  // function setlotteryStructs(address _lotteryAddress, uint _totalBalance, address _winnerAddress, uint8 _lotteryType) external returns (bool);\n  // function setlotteryWinnersArrayMap(address _lotteryAddress, address _winnerAddress) external returns (uint);\n  // function setWeeklyWinnersArrayMap(address _lotteryAddress, address _winnerAddress) external returns (uint);\n  // function clearlotteryWinnersArrayMap(address _lotteryAddress) external returns (bool);\n  // function clearWeeklyWinnersArrayMap(address _lotteryAddress) external returns (bool);\n\n\n/**\n************************************************************************************\n************************************************************************************\n*/\n\n/**\n  * @title Core SmartContract for BNB Public Lottery \n  * @author Batis \n  * @notice This SmartContract is responsible for implimentation of Lottery Core System and response to the Players \n  * @dev LotteryGenerator SmartContract Create This for each Pot \n*/\ncontract LotteryCore is Ownable {\n\n  address private _VRF;\n  address private generatorLotteryAddr;\n\n  uint constant TICKET_PRICE = 10 * 1e15; // finney (0.01 Ether)\n\n  // address public LotteryOwner; \n  bool private lPotActive;  /* ToDo: Boolean Controler for Open & Close Lottery  */\n  address public WeeklyPotAddress;   \n\n  /* ToDo: Save Start and End of Tickets for each Address (ID) and Change Search routine */\n  struct PotPlayerStr{\n    uint PaymentCount;\n    uint paymentValue;\n    uint TicketNumbers;\n    uint[] TicketsId;\n    uint[] PlayersId;\n  }\n\n  mapping (address => PotPlayerStr) private PotPlayersMap;  \n  address[] private potPlayersArray;  \n  uint[] private potTickets;\n  uint[3][] private potTicketIds;\n   \n  /* ToDo : Lottery Pot Generator Structure as a Wrapper for Lottery Core */\n  // struct LotteryPot{\n  //   string potLabel;\n  //   uint entryCount;\n  //   uint potSerial;\n  //   uint potValue;\n  //   // mapping(address => PotPlayer) players;\n  // }\n\n  event SelectWinnerIndex(uint winnerIndex, uint potBalance, uint winnerPrize);\n  event SelectWinnerAddress(address potWinner, uint winnerPrize);\n  event PlayerRegister(address potPlayer, uint playerId, uint PlayerValue, uint ticketNumber);\n  event PlayeTotalValue(address potPlayer, uint[] playerId, uint playCount, uint playerValue, uint ticketNumber);\n  event TotalPayment(address receiver, uint TrxValue);\n\n  constructor(address VRF) {   // , address lOwner\n    // LotteryOwner = msg.sender;\n    _VRF = VRF;\n  }\n\n  // modifier onlyOwner() {\n  //   require(msg.sender == LotteryOwner, \"Owner Only! . You have not the right Access.\");\n  //   _;\n  // }\n\n  /* ToDo : Add & Complete Fallback routine */\n  fallback() external payable {\n  }\n  receive() external payable {\n  }\n\n  /**\n    * @notice Show the total Balance of this Pot. \n    * @dev Smart Contract total Balance.\n    * @return Balance of This Contract.\n  */\n  function balanceInPot() public view returns(uint){\n    return address(this).balance;\n  }\n\n  function withdraw() external onlyOwner {\n    payable(msg.sender).transfer(address(this).balance);\n  }\n\n\n  /* ToDo : Replace This function with OpenZeppelin SafeMath */\n  /**\n    * @notice Function for deviding two Integer Numbers and return the results.\n    * @dev Safe Function for Devision Operation.\n    * @param numerator : The Integer Number which is being devided on another Integer Number.\n    * @param denominator : The Integer Number which another Int NUmber is devided by this.  \n    * @return quotient and remainder of the Devision, Both are Integer Numbers. \n  */\n  function getDivided(uint numerator, uint denominator) public pure returns(uint quotient, uint remainder) {\n    require( denominator >= 0, \"Division is Not Possible , Bug in Numbers !\");\n    require( numerator > 0, \"Division is Not Possible , Bug in Numbers !\");\n    quotient  = numerator / denominator; \n    remainder = numerator - denominator * quotient;\n  }\n\n  /**\n    * @notice Players' Operation and Calculation after Sending Transaction to the SmartContract. \n    * @dev Payable Function. \n  */\n  function play() public payable {\n\n    /* ToDo: Convert Ether to BNB */\n    require(msg.value >= 0.01 ether && msg.value < 100 ether, \"Value should be between 0.01 & 100 BNB\");\n\n    /* ToDo: Replace with SafeMath */\n    (uint ticketNumber, uint remainder ) = getDivided(msg.value, TICKET_PRICE); // 10000000000000000\n    require(remainder == 0, \"Value should be an Integer mutiple of 0.01 BNB\");\n\n    potPlayersArray.push( msg.sender );\n    uint id = potPlayersArray.length - 1; \n\n    uint ticketStart = potTickets.length;\n    for (uint jj = 0; jj < ticketNumber; jj++) {\n      potTickets.push( id );\n    }\n    uint ticketEnd = potTickets.length;\n    potTicketIds.push([id, ticketStart, ticketEnd]);\n    uint id2 = potTicketIds.length;\n\n    PotPlayersMap[msg.sender].PaymentCount += 1;\n    PotPlayersMap[msg.sender].paymentValue += msg.value;\n    PotPlayersMap[msg.sender].TicketNumbers += ticketNumber;\n    PotPlayersMap[msg.sender].PlayersId.push( id );\n    PotPlayersMap[msg.sender].TicketsId.push( id2);\n\n    emit PlayerRegister(msg.sender, id, msg.value, ticketNumber) ;\n    if (PotPlayersMap[msg.sender].PaymentCount > 1) {\n        emit PlayeTotalValue(msg.sender, PotPlayersMap[msg.sender].PlayersId, PotPlayersMap[msg.sender].PaymentCount, PotPlayersMap[msg.sender].paymentValue, PotPlayersMap[msg.sender].TicketNumbers) ;\n    }\n\n  }\n\n  /*\n  function randomGenerator() private view returns (uint) {\n    return uint(\n      keccak256(\n        abi.encodePacked(\n          block.difficulty, block.timestamp, potTickets ))) ;\n  }\n  */\n\n  /*\n  function lrequestRandomWords(address _VRFv2) public {\n    VRFv2Consumer(_VRFv2).requestRandomWords(LotteryOwner) ;\n  }\n  */\n\n  /**\n    * @notice Generating Random Number for Finding the Hourly Winner.\n    * @dev Call VRFv2 Random Generator Routines.\n  */\n  function getRandomValue(address _VRFv2) public view onlyOwner returns (uint256 randomWords) {\n    // uint8 zeroOne = uint8(randomGenerator() % 2);\n    randomWords = VRFv2Consumer(_VRFv2).getlRandomWords();\n  }\n\n  /**\n    * @notice Select The Hourly Winner Function.\n    * @dev Select The Pot Winner.\n  */\n  function select_Winner() public onlyOwner {  \n\n    // uint256 l_randomWords = randomGenerator();\n    uint256 l_randomWords = getRandomValue(_VRF);\n    uint winnerIndex = l_randomWords % potTickets.length;  \n    winnerIndex = potTickets[winnerIndex];\n    uint winnerPrize = Calculation(winnerIndex);\n    \n    emit SelectWinnerIndex(winnerIndex, address(this).balance, winnerPrize);\n\n    UpdateLotteryData(winnerIndex, address(this).balance);\n    WinnerPrizePayment(winnerIndex, winnerPrize); \n    FinalPayment();\n    ClearDataBase();\n    // console.log(\"Select Winner Done !\");\n\n  }\n\n  /**\n    * @notice Release Smart Contract Memory .\n    * @dev Clear All Storages .\n  */\n  function ClearDataBase() internal returns (bool) {\n    /* ToDo : Clear The Map Data and RElease the Memory */  \n    address playerAddress;\n    for (uint256 index = 0; index < potPlayersArray.length - 1; index++) {\n        playerAddress = potPlayersArray[index];\n        // if (PotPlayersMap[playerAddress].PaymentCount > 0) {\n        //     PotPlayersMap[playerAddress].PaymentCount = 0;\n        //     PotPlayersMap[playerAddress].paymentValue = 0;\n        //     PotPlayersMap[playerAddress].TicketNumbers = 0;\n        //     delete PotPlayersMap[playerAddress].PlayersId;\n        //     delete PotPlayersMap[playerAddress].TicketsId;\n        // }\n        delete PotPlayersMap[playerAddress];\n    }\n    delete potPlayersArray;\n    delete potTickets;\n    return true;\n  }\n\n  /**\n    * @notice Calculation of Pot Winner Prize.\n    * @dev Findout the 50% of the Total Pot and The Winner payment.\n  */\n  function Calculation(uint _winnerIndex) internal view returns (uint winnerPrize){\n\n    uint totalPot = address(this).balance;\n    address WinnerAddress = potPlayersArray[_winnerIndex];\n    uint WinnerPotAmount = PotPlayersMap[WinnerAddress].paymentValue;\n    winnerPrize = totalPot - WinnerPotAmount;\n    /* ToDo : Replace Calculation Parts with OpenZeppelin SafeMath ) */\n    (winnerPrize, ) = getDivided(winnerPrize, 2);\n    winnerPrize += WinnerPotAmount; \n\n  }\n\n  /**\n    * @notice Pay Pot Prize to the Winner.\n    * @dev Transfer Pot Prize to the Winner.\n  */\n  function WinnerPrizePayment(uint _winnerIndex, uint _winnerPrize) internal {\n\n    address payable potWinner = payable(potPlayersArray[_winnerIndex]);  \n    potWinner.transfer(_winnerPrize);\n    emit SelectWinnerAddress(potWinner, _winnerPrize);\n    // potPlayers[winnerIndex].transfer(address(this).balance);\n\n  }\n\n  /**\n    * @notice Remaining Pot Money Transfer.\n    * @dev Transfer remaining Money to the Liquidity Pool.\n  */\n  function FinalPayment() internal {   // onlyOwner \n\n    address payable receiver = payable(WeeklyPotAddress);\n    uint TrxValue = address(this).balance;\n    receiver.transfer(TrxValue);\n    emit TotalPayment(receiver, TrxValue);\n\n  }\n\n  function set_WeeklyPotAddress(address _WeeklyPotAddress) external onlyOwner {\n    require(_WeeklyPotAddress != address(0) );\n    WeeklyPotAddress = _WeeklyPotAddress;\n  }\n\n  function listPlayers() external view returns (address[] memory){  \n    return potPlayersArray;  \n  }\n\n  function getLotteryTickets() public view returns(uint[] memory) {\n    return potTickets;\n  }\n\n  /**\n    * @notice Save The Winner Address for Weekly Lottery\n    * @dev Update Generator Smart Contract For Saving Hourly Winner Address\n  */\n  function UpdateLotteryData(uint _winnerIndex, uint _balance) internal returns(bool) {\n    bool _success;\n    uint _winnerId;\n    address _winnerAddress = potPlayersArray[_winnerIndex];\n    _success = LotteryInterface(generatorLotteryAddr).setlotteryStructs(address(this), _balance, _winnerAddress, 0);\n    _winnerId = LotteryInterface(generatorLotteryAddr).setlotteryWinnersArrayMap(address(this), _winnerAddress);\n    return true;\n  }\n\n  function generatorLotteryAddress(address _contractAddr) external onlyOwner {\n    generatorLotteryAddr = _contractAddr;\n  }\n\n}\n\n\n/**\n************************************************************************************\n************************************************************************************\n**/\n",
  "sourcePath": "/home/batis/SrcCode/myPRJ/SmartContBlockChain/BSCLottery/contracts/LotteryCore.sol",
  "compiler": {
    "name": "solc",
    "version": "0.8.9+commit.e5eed63a.Emscripten.clang"
  },
  "schemaVersion": "3.4.3",
  "updatedAt": "2022-05-02T18:38:08.093Z",
  "devdoc": {
    "author": "Batis ",
    "details": "LotteryGenerator SmartContract Create This for each Pot ",
    "kind": "dev",
    "methods": {
      "balanceInPot()": {
        "details": "Smart Contract total Balance.",
        "returns": {
          "_0": "Balance of This Contract."
        }
      },
      "getDivided(uint256,uint256)": {
        "details": "Safe Function for Devision Operation.",
        "params": {
          "denominator": ": The Integer Number which another Int NUmber is devided by this.  ",
          "numerator": ": The Integer Number which is being devided on another Integer Number."
        },
        "returns": {
          "quotient": "and remainder of the Devision, Both are Integer Numbers. "
        }
      },
      "getRandomValue(address)": {
        "details": "Call VRFv2 Random Generator Routines."
      },
      "owner()": {
        "details": "Returns the address of the current owner."
      },
      "play()": {
        "details": "Payable Function. "
      },
      "renounceOwnership()": {
        "details": "Leaves the contract without owner. It will not be possible to call `onlyOwner` functions anymore. Can only be called by the current owner. NOTE: Renouncing ownership will leave the contract without an owner, thereby removing any functionality that is only available to the owner."
      },
      "select_Winner()": {
        "details": "Select The Pot Winner."
      },
      "transferOwnership(address)": {
        "details": "Transfers ownership of the contract to a new account (`newOwner`). Can only be called by the current owner."
      }
    },
    "title": "Core SmartContract for BNB Public Lottery ",
    "version": 1
  },
  "userdoc": {
    "kind": "user",
    "methods": {
      "balanceInPot()": {
        "notice": "Show the total Balance of this Pot. "
      },
      "getDivided(uint256,uint256)": {
        "notice": "Function for deviding two Integer Numbers and return the results."
      },
      "getRandomValue(address)": {
        "notice": "Generating Random Number for Finding the Hourly Winner."
      },
      "play()": {
        "notice": "Players' Operation and Calculation after Sending Transaction to the SmartContract. "
      },
      "select_Winner()": {
        "notice": "Select The Hourly Winner Function."
      }
    },
    "notice": "This SmartContract is responsible for implimentation of Lottery Core System and response to the Players ",
    "version": 1
  }
}