{
  "contractName": "LotteryGenerator",
  "abi": [
    {
      "anonymous": false,
      "inputs": [
        {
          "indexed": false,
          "internalType": "address",
          "name": "newLottery",
          "type": "address"
        }
      ],
      "name": "LotteryCreated",
      "type": "event"
    },
    {
      "anonymous": false,
      "inputs": [
        {
          "indexed": true,
          "internalType": "address",
          "name": "previousOwner",
          "type": "address"
        },
        {
          "indexed": true,
          "internalType": "address",
          "name": "newOwner",
          "type": "address"
        }
      ],
      "name": "OwnershipTransferred",
      "type": "event"
    },
    {
      "stateMutability": "payable",
      "type": "fallback",
      "payable": true
    },
    {
      "inputs": [
        {
          "internalType": "uint256",
          "name": "",
          "type": "uint256"
        }
      ],
      "name": "LotteryWinnersArray",
      "outputs": [
        {
          "internalType": "address",
          "name": "",
          "type": "address"
        }
      ],
      "stateMutability": "view",
      "type": "function",
      "constant": true
    },
    {
      "inputs": [
        {
          "internalType": "address",
          "name": "",
          "type": "address"
        }
      ],
      "name": "LotteryWinnersMap",
      "outputs": [
        {
          "internalType": "uint256",
          "name": "playersId",
          "type": "uint256"
        },
        {
          "internalType": "uint256",
          "name": "winnerCount",
          "type": "uint256"
        }
      ],
      "stateMutability": "view",
      "type": "function",
      "constant": true
    },
    {
      "inputs": [
        {
          "internalType": "uint256",
          "name": "",
          "type": "uint256"
        }
      ],
      "name": "MonthlyWinnersArray",
      "outputs": [
        {
          "internalType": "address",
          "name": "",
          "type": "address"
        }
      ],
      "stateMutability": "view",
      "type": "function",
      "constant": true
    },
    {
      "inputs": [
        {
          "internalType": "address",
          "name": "",
          "type": "address"
        }
      ],
      "name": "MonthlyWinnersMap",
      "outputs": [
        {
          "internalType": "uint256",
          "name": "playersId",
          "type": "uint256"
        },
        {
          "internalType": "uint256",
          "name": "winnerCount",
          "type": "uint256"
        }
      ],
      "stateMutability": "view",
      "type": "function",
      "constant": true
    },
    {
      "inputs": [
        {
          "internalType": "uint256",
          "name": "",
          "type": "uint256"
        }
      ],
      "name": "WeeklyWinnersArray",
      "outputs": [
        {
          "internalType": "address",
          "name": "",
          "type": "address"
        }
      ],
      "stateMutability": "view",
      "type": "function",
      "constant": true
    },
    {
      "inputs": [
        {
          "internalType": "address",
          "name": "",
          "type": "address"
        }
      ],
      "name": "WeeklyWinnersMap",
      "outputs": [
        {
          "internalType": "uint256",
          "name": "playersId",
          "type": "uint256"
        },
        {
          "internalType": "uint256",
          "name": "winnerCount",
          "type": "uint256"
        }
      ],
      "stateMutability": "view",
      "type": "function",
      "constant": true
    },
    {
      "inputs": [
        {
          "internalType": "uint256",
          "name": "",
          "type": "uint256"
        }
      ],
      "name": "lotteries",
      "outputs": [
        {
          "internalType": "address",
          "name": "",
          "type": "address"
        }
      ],
      "stateMutability": "view",
      "type": "function",
      "constant": true
    },
    {
      "inputs": [],
      "name": "owner",
      "outputs": [
        {
          "internalType": "address",
          "name": "",
          "type": "address"
        }
      ],
      "stateMutability": "view",
      "type": "function",
      "constant": true
    },
    {
      "inputs": [],
      "name": "renounceOwnership",
      "outputs": [],
      "stateMutability": "nonpayable",
      "type": "function"
    },
    {
      "inputs": [
        {
          "internalType": "address",
          "name": "newOwner",
          "type": "address"
        }
      ],
      "name": "transferOwnership",
      "outputs": [],
      "stateMutability": "nonpayable",
      "type": "function"
    },
    {
      "stateMutability": "payable",
      "type": "receive",
      "payable": true
    },
    {
      "inputs": [],
      "name": "balanceInPot",
      "outputs": [
        {
          "internalType": "uint256",
          "name": "",
          "type": "uint256"
        }
      ],
      "stateMutability": "view",
      "type": "function",
      "constant": true
    },
    {
      "inputs": [],
      "name": "withdraw",
      "outputs": [],
      "stateMutability": "nonpayable",
      "type": "function"
    },
    {
      "inputs": [],
      "name": "getWinners",
      "outputs": [
        {
          "internalType": "address[]",
          "name": "",
          "type": "address[]"
        }
      ],
      "stateMutability": "view",
      "type": "function",
      "constant": true
    },
    {
      "inputs": [],
      "name": "getWeeklyWinners",
      "outputs": [
        {
          "internalType": "address[]",
          "name": "",
          "type": "address[]"
        }
      ],
      "stateMutability": "view",
      "type": "function",
      "constant": true
    },
    {
      "inputs": [],
      "name": "getMonthlyWinners",
      "outputs": [
        {
          "internalType": "address[]",
          "name": "",
          "type": "address[]"
        }
      ],
      "stateMutability": "view",
      "type": "function",
      "constant": true
    },
    {
      "inputs": [
        {
          "internalType": "address",
          "name": "_lotteryAddress",
          "type": "address"
        },
        {
          "internalType": "uint256",
          "name": "_totalBalance",
          "type": "uint256"
        },
        {
          "internalType": "address",
          "name": "_winnerAddress",
          "type": "address"
        },
        {
          "internalType": "uint8",
          "name": "_lotteryType",
          "type": "uint8"
        }
      ],
      "name": "setlotteryStructs",
      "outputs": [
        {
          "internalType": "bool",
          "name": "",
          "type": "bool"
        }
      ],
      "stateMutability": "nonpayable",
      "type": "function"
    },
    {
      "inputs": [
        {
          "internalType": "address",
          "name": "_winnerAddress",
          "type": "address"
        }
      ],
      "name": "setlotteryWinnersArrayMap",
      "outputs": [
        {
          "internalType": "uint256",
          "name": "",
          "type": "uint256"
        }
      ],
      "stateMutability": "nonpayable",
      "type": "function"
    },
    {
      "inputs": [
        {
          "internalType": "address",
          "name": "_winnerAddress",
          "type": "address"
        }
      ],
      "name": "setWeeklyWinnersArrayMap",
      "outputs": [
        {
          "internalType": "uint256",
          "name": "",
          "type": "uint256"
        }
      ],
      "stateMutability": "nonpayable",
      "type": "function"
    },
    {
      "inputs": [
        {
          "internalType": "address",
          "name": "_winnerAddress",
          "type": "address"
        }
      ],
      "name": "setMonthlyWinnersArrayMap",
      "outputs": [
        {
          "internalType": "uint256",
          "name": "",
          "type": "uint256"
        }
      ],
      "stateMutability": "nonpayable",
      "type": "function"
    },
    {
      "inputs": [],
      "name": "clearlotteryWinnersArrayMap",
      "outputs": [
        {
          "internalType": "bool",
          "name": "",
          "type": "bool"
        }
      ],
      "stateMutability": "nonpayable",
      "type": "function"
    },
    {
      "inputs": [],
      "name": "clearWeeklyWinnersArrayMap",
      "outputs": [
        {
          "internalType": "bool",
          "name": "",
          "type": "bool"
        }
      ],
      "stateMutability": "nonpayable",
      "type": "function"
    },
    {
      "inputs": [],
      "name": "clearMonthlyWinnersArrayMap",
      "outputs": [
        {
          "internalType": "bool",
          "name": "",
          "type": "bool"
        }
      ],
      "stateMutability": "nonpayable",
      "type": "function"
    },
    {
      "inputs": [
        {
          "internalType": "address",
          "name": "_VRF",
          "type": "address"
        },
        {
          "internalType": "address",
          "name": "weeklyAddr",
          "type": "address"
        },
        {
          "internalType": "address",
          "name": "monthlyAddr",
          "type": "address"
        },
        {
          "internalType": "address",
          "name": "liquidityAddr",
          "type": "address"
        }
      ],
      "name": "createLottery",
      "outputs": [],
      "stateMutability": "nonpayable",
      "type": "function"
    },
    {
      "inputs": [
        {
          "internalType": "address",
          "name": "lotteryAddress",
          "type": "address"
        }
      ],
      "name": "deleteLottery",
      "outputs": [],
      "stateMutability": "nonpayable",
      "type": "function"
    }
  ],
  "bytecode": "0x608060405234801561001057600080fd5b5061002d61002261003260201b60201c565b61003a60201b60201c565b6100fe565b600033905090565b60008060009054906101000a900473ffffffffffffffffffffffffffffffffffffffff169050816000806101000a81548173ffffffffffffffffffffffffffffffffffffffff021916908373ffffffffffffffffffffffffffffffffffffffff1602179055508173ffffffffffffffffffffffffffffffffffffffff168173ffffffffffffffffffffffffffffffffffffffff167f8be0079c531659141344cd1fd0a4f28419497f9722a3daafe3b4186f6b6457e060405160405180910390a35050565b6158ee806200010e6000396000f3fe6080604052600436106200016f5760003560e01c8063715018a611620000c7578063a7e46eac1162000079578063a7e46eac146200054d578063b14a60b1146200057b578063bb085b0914620005c0578063df15c37e1462000604578063f2fde38b1462000634578063f671123914620006625762000177565b8063715018a614620004075780637a1fa9e314620004215780638da5cb5b1462000465578063a1b8aad11462000495578063a2d9670514620004c5578063a35e151c14620005095762000177565b8063277550e91162000121578063277550e914620002d45780633ccfd60b14620003185780634488d67914620003325780634cd9c25b14620003625780635f697d601462000392578063653ea43914620003c25762000177565b806312592fc814620001795780631398e07614620001bd57806314e599871462000201578063195b6e9d14620002315780631c1f538914620002615780631cb9f1e714620002a65762000177565b366200017757005b005b3480156200018657600080fd5b50620001a560048036038101906200019f919062001a69565b620006a6565b604051620001b4919062001ab6565b60405180910390f35b348015620001ca57600080fd5b50620001e96004803603810190620001e3919062001b04565b620007be565b604051620001f8919062001b47565b60405180910390f35b3480156200020e57600080fd5b5062000219620007fe565b60405162000228919062001ab6565b60405180910390f35b3480156200023e57600080fd5b506200024962000806565b60405162000258919062001c32565b60405180910390f35b3480156200026e57600080fd5b506200028d600480360381019062000287919062001a69565b62000896565b6040516200029d92919062001c56565b60405180910390f35b348015620002b357600080fd5b50620002d26004803603810190620002cc919062001c83565b620008ba565b005b348015620002e157600080fd5b50620003006004803603810190620002fa919062001b04565b62000bcf565b6040516200030f919062001b47565b60405180910390f35b3480156200032557600080fd5b506200033062000c0f565b005b3480156200033f57600080fd5b506200034a62000cdc565b60405162000359919062001c32565b60405180910390f35b3480156200036f57600080fd5b506200037a62000d6c565b60405162000389919062001d12565b60405180910390f35b3480156200039f57600080fd5b50620003aa62000e53565b604051620003b9919062001d12565b60405180910390f35b348015620003cf57600080fd5b50620003ee6004803603810190620003e8919062001a69565b62000f3a565b604051620003fe92919062001c56565b60405180910390f35b3480156200041457600080fd5b506200041f62000f5e565b005b3480156200042e57600080fd5b506200044d600480360381019062000447919062001d6d565b62000fef565b6040516200045c919062001d12565b60405180910390f35b3480156200047257600080fd5b506200047d6200114a565b6040516200048c919062001b47565b60405180910390f35b348015620004a257600080fd5b50620004ad62001173565b604051620004bc919062001d12565b60405180910390f35b348015620004d257600080fd5b50620004f16004803603810190620004eb919062001a69565b6200125a565b60405162000500919062001ab6565b60405180910390f35b3480156200051657600080fd5b506200053560048036038101906200052f919062001b04565b62001372565b60405162000544919062001b47565b60405180910390f35b3480156200055a57600080fd5b5062000579600480360381019062000573919062001a69565b620013b2565b005b3480156200058857600080fd5b50620005a76004803603810190620005a1919062001a69565b620015d3565b604051620005b792919062001c56565b60405180910390f35b348015620005cd57600080fd5b50620005ec6004803603810190620005e6919062001a69565b620015f7565b604051620005fb919062001ab6565b60405180910390f35b3480156200061157600080fd5b506200061c6200170f565b6040516200062b919062001c32565b60405180910390f35b3480156200064157600080fd5b506200066060048036038101906200065a919062001a69565b6200179f565b005b3480156200066f57600080fd5b506200068e600480360381019062000688919062001b04565b620018a3565b6040516200069d919062001b47565b60405180910390f35b60006003829080600181540180825580915050600190039060005260206000200160009091909190916101000a81548173ffffffffffffffffffffffffffffffffffffffff021916908373ffffffffffffffffffffffffffffffffffffffff160217905550600380549050600460008473ffffffffffffffffffffffffffffffffffffffff1673ffffffffffffffffffffffffffffffffffffffff16815260200190815260200160002060000181905550600460008373ffffffffffffffffffffffffffffffffffffffff1673ffffffffffffffffffffffffffffffffffffffff1681526020019081526020016000206001016000815480929190620007ac9062001e0e565b91905055506003805490509050919050565b60018181548110620007cf57600080fd5b906000526020600020016000915054906101000a900473ffffffffffffffffffffffffffffffffffffffff1681565b600047905090565b606060078054806020026020016040519081016040528092919081815260200182805480156200088c57602002820191906000526020600020905b8160009054906101000a900473ffffffffffffffffffffffffffffffffffffffff1673ffffffffffffffffffffffffffffffffffffffff168152602001906001019080831162000841575b5050505050905090565b60046020528060005260406000206000915090508060000154908060010154905082565b620008c4620018e3565b73ffffffffffffffffffffffffffffffffffffffff16620008e46200114a565b73ffffffffffffffffffffffffffffffffffffffff16146200093d576040517f08c379a0000000000000000000000000000000000000000000000000000000008152600401620009349062001ebd565b60405180910390fd5b6000309050600085828686866040516200095790620019af565b6200096795949392919062001edf565b604051809103906000f08015801562000984573d6000803e3d6000fd5b5090506001819080600181540180825580915050600190039060005260206000200160009091909190916101000a81548173ffffffffffffffffffffffffffffffffffffffff021916908373ffffffffffffffffffffffffffffffffffffffff16021790555060018080549050620009fd919062001f3c565b600260008373ffffffffffffffffffffffffffffffffffffffff1673ffffffffffffffffffffffffffffffffffffffff1681526020019081526020016000206000018190555033600260008373ffffffffffffffffffffffffffffffffffffffff1673ffffffffffffffffffffffffffffffffffffffff16815260200190815260200160002060010160006101000a81548173ffffffffffffffffffffffffffffffffffffffff021916908373ffffffffffffffffffffffffffffffffffffffff1602179055506000600260008373ffffffffffffffffffffffffffffffffffffffff1673ffffffffffffffffffffffffffffffffffffffff168152602001908152602001600020600201819055506000600260008373ffffffffffffffffffffffffffffffffffffffff1673ffffffffffffffffffffffffffffffffffffffff16815260200190815260200160002060030160006101000a81548173ffffffffffffffffffffffffffffffffffffffff021916908373ffffffffffffffffffffffffffffffffffffffff1602179055507fe610764cbcba803247df3450b7492f6a0084b7b5b734a7901c13fef8f84ffaf48160405162000bbf919062001b47565b60405180910390a1505050505050565b6007818154811062000be057600080fd5b906000526020600020016000915054906101000a900473ffffffffffffffffffffffffffffffffffffffff1681565b62000c19620018e3565b73ffffffffffffffffffffffffffffffffffffffff1662000c396200114a565b73ffffffffffffffffffffffffffffffffffffffff161462000c92576040517f08c379a000000000000000000000000000000000000000000000000000000000815260040162000c899062001ebd565b60405180910390fd5b3373ffffffffffffffffffffffffffffffffffffffff166108fc479081150290604051600060405180830381858888f1935050505015801562000cd9573d6000803e3d6000fd5b50565b6060600580548060200260200160405190810160405280929190818152602001828054801562000d6257602002820191906000526020600020905b8160009054906101000a900473ffffffffffffffffffffffffffffffffffffffff1673ffffffffffffffffffffffffffffffffffffffff168152602001906001019080831162000d17575b5050505050905090565b60008060005b600160078054905062000d86919062001f3c565b81101562000e3a576007818154811062000da55762000da462001f77565b5b9060005260206000200160009054906101000a900473ffffffffffffffffffffffffffffffffffffffff169150600860008373ffffffffffffffffffffffffffffffffffffffff1673ffffffffffffffffffffffffffffffffffffffff16815260200190815260200160002060008082016000905560018201600090555050808062000e319062001e0e565b91505062000d72565b506007600062000e4b9190620019bd565b600191505090565b60008060005b600160038054905062000e6d919062001f3c565b81101562000f21576003818154811062000e8c5762000e8b62001f77565b5b9060005260206000200160009054906101000a900473ffffffffffffffffffffffffffffffffffffffff169150600460008373ffffffffffffffffffffffffffffffffffffffff1673ffffffffffffffffffffffffffffffffffffffff16815260200190815260200160002060008082016000905560018201600090555050808062000f189062001e0e565b91505062000e59565b506003600062000f329190620019bd565b600191505090565b60066020528060005260406000206000915090508060000154908060010154905082565b62000f68620018e3565b73ffffffffffffffffffffffffffffffffffffffff1662000f886200114a565b73ffffffffffffffffffffffffffffffffffffffff161462000fe1576040517f08c379a000000000000000000000000000000000000000000000000000000000815260040162000fd89062001ebd565b60405180910390fd5b62000fed6000620018eb565b565b600083600260008773ffffffffffffffffffffffffffffffffffffffff1673ffffffffffffffffffffffffffffffffffffffff1681526020019081526020016000206002018190555082600260008773ffffffffffffffffffffffffffffffffffffffff1673ffffffffffffffffffffffffffffffffffffffff16815260200190815260200160002060030160006101000a81548173ffffffffffffffffffffffffffffffffffffffff021916908373ffffffffffffffffffffffffffffffffffffffff1602179055508160ff166003811115620010d257620010d162001fa6565b5b600260008773ffffffffffffffffffffffffffffffffffffffff1673ffffffffffffffffffffffffffffffffffffffff16815260200190815260200160002060030160146101000a81548160ff0219169083600381111562001139576200113862001fa6565b5b021790555060019050949350505050565b60008060009054906101000a900473ffffffffffffffffffffffffffffffffffffffff16905090565b60008060005b60016005805490506200118d919062001f3c565b811015620012415760058181548110620011ac57620011ab62001f77565b5b9060005260206000200160009054906101000a900473ffffffffffffffffffffffffffffffffffffffff169150600660008373ffffffffffffffffffffffffffffffffffffffff1673ffffffffffffffffffffffffffffffffffffffff168152602001908152602001600020600080820160009055600182016000905550508080620012389062001e0e565b91505062001179565b5060056000620012529190620019bd565b600191505090565b60006005829080600181540180825580915050600190039060005260206000200160009091909190916101000a81548173ffffffffffffffffffffffffffffffffffffffff021916908373ffffffffffffffffffffffffffffffffffffffff160217905550600580549050600660008473ffffffffffffffffffffffffffffffffffffffff1673ffffffffffffffffffffffffffffffffffffffff16815260200190815260200160002060000181905550600660008373ffffffffffffffffffffffffffffffffffffffff1673ffffffffffffffffffffffffffffffffffffffff1681526020019081526020016000206001016000815480929190620013609062001e0e565b91905055506005805490509050919050565b600581815481106200138357600080fd5b906000526020600020016000915054906101000a900473ffffffffffffffffffffffffffffffffffffffff1681565b620013bc620018e3565b73ffffffffffffffffffffffffffffffffffffffff16620013dc6200114a565b73ffffffffffffffffffffffffffffffffffffffff161462001435576040517f08c379a00000000000000000000000000000000000000000000000000000000081526004016200142c9062001ebd565b60405180910390fd5b600260008273ffffffffffffffffffffffffffffffffffffffff1673ffffffffffffffffffffffffffffffffffffffff16815260200190815260200160002060010160009054906101000a900473ffffffffffffffffffffffffffffffffffffffff1673ffffffffffffffffffffffffffffffffffffffff163373ffffffffffffffffffffffffffffffffffffffff1614620014d057600080fd5b6000600260008373ffffffffffffffffffffffffffffffffffffffff1673ffffffffffffffffffffffffffffffffffffffff168152602001908152602001600020600001549050600060018080805490506200152d919062001f3c565b8154811062001541576200154062001f77565b5b9060005260206000200160009054906101000a900473ffffffffffffffffffffffffffffffffffffffff169050806001838154811062001586576200158562001f77565b5b9060005260206000200160006101000a81548173ffffffffffffffffffffffffffffffffffffffff021916908373ffffffffffffffffffffffffffffffffffffffff160217905550505050565b60086020528060005260406000206000915090508060000154908060010154905082565b60006007829080600181540180825580915050600190039060005260206000200160009091909190916101000a81548173ffffffffffffffffffffffffffffffffffffffff021916908373ffffffffffffffffffffffffffffffffffffffff160217905550600780549050600860008473ffffffffffffffffffffffffffffffffffffffff1673ffffffffffffffffffffffffffffffffffffffff16815260200190815260200160002060000181905550600860008373ffffffffffffffffffffffffffffffffffffffff1673ffffffffffffffffffffffffffffffffffffffff1681526020019081526020016000206001016000815480929190620016fd9062001e0e565b91905055506007805490509050919050565b606060038054806020026020016040519081016040528092919081815260200182805480156200179557602002820191906000526020600020905b8160009054906101000a900473ffffffffffffffffffffffffffffffffffffffff1673ffffffffffffffffffffffffffffffffffffffff16815260200190600101908083116200174a575b5050505050905090565b620017a9620018e3565b73ffffffffffffffffffffffffffffffffffffffff16620017c96200114a565b73ffffffffffffffffffffffffffffffffffffffff161462001822576040517f08c379a0000000000000000000000000000000000000000000000000000000008152600401620018199062001ebd565b60405180910390fd5b600073ffffffffffffffffffffffffffffffffffffffff168173ffffffffffffffffffffffffffffffffffffffff16141562001895576040517f08c379a00000000000000000000000000000000000000000000000000000000081526004016200188c906200204b565b60405180910390fd5b620018a081620018eb565b50565b60038181548110620018b457600080fd5b906000526020600020016000915054906101000a900473ffffffffffffffffffffffffffffffffffffffff1681565b600033905090565b60008060009054906101000a900473ffffffffffffffffffffffffffffffffffffffff169050816000806101000a81548173ffffffffffffffffffffffffffffffffffffffff021916908373ffffffffffffffffffffffffffffffffffffffff1602179055508173ffffffffffffffffffffffffffffffffffffffff168173ffffffffffffffffffffffffffffffffffffffff167f8be0079c531659141344cd1fd0a4f28419497f9722a3daafe3b4186f6b6457e060405160405180910390a35050565b61384b806200206e83390190565b5080546000825590600052602060002090810190620019dd9190620019e0565b50565b5b80821115620019fb576000816000905550600101620019e1565b5090565b600080fd5b600073ffffffffffffffffffffffffffffffffffffffff82169050919050565b600062001a318262001a04565b9050919050565b62001a438162001a24565b811462001a4f57600080fd5b50565b60008135905062001a638162001a38565b92915050565b60006020828403121562001a825762001a81620019ff565b5b600062001a928482850162001a52565b91505092915050565b6000819050919050565b62001ab08162001a9b565b82525050565b600060208201905062001acd600083018462001aa5565b92915050565b62001ade8162001a9b565b811462001aea57600080fd5b50565b60008135905062001afe8162001ad3565b92915050565b60006020828403121562001b1d5762001b1c620019ff565b5b600062001b2d8482850162001aed565b91505092915050565b62001b418162001a24565b82525050565b600060208201905062001b5e600083018462001b36565b92915050565b600081519050919050565b600082825260208201905092915050565b6000819050602082019050919050565b62001b9b8162001a24565b82525050565b600062001baf838362001b90565b60208301905092915050565b6000602082019050919050565b600062001bd58262001b64565b62001be1818562001b6f565b935062001bee8362001b80565b8060005b8381101562001c2557815162001c09888262001ba1565b975062001c168362001bbb565b92505060018101905062001bf2565b5085935050505092915050565b6000602082019050818103600083015262001c4e818462001bc8565b905092915050565b600060408201905062001c6d600083018562001aa5565b62001c7c602083018462001aa5565b9392505050565b6000806000806080858703121562001ca05762001c9f620019ff565b5b600062001cb08782880162001a52565b945050602062001cc38782880162001a52565b935050604062001cd68782880162001a52565b925050606062001ce98782880162001a52565b91505092959194509250565b60008115159050919050565b62001d0c8162001cf5565b82525050565b600060208201905062001d29600083018462001d01565b92915050565b600060ff82169050919050565b62001d478162001d2f565b811462001d5357600080fd5b50565b60008135905062001d678162001d3c565b92915050565b6000806000806080858703121562001d8a5762001d89620019ff565b5b600062001d9a8782880162001a52565b945050602062001dad8782880162001aed565b935050604062001dc08782880162001a52565b925050606062001dd38782880162001d56565b91505092959194509250565b7f4e487b7100000000000000000000000000000000000000000000000000000000600052601160045260246000fd5b600062001e1b8262001a9b565b91507fffffffffffffffffffffffffffffffffffffffffffffffffffffffffffffffff82141562001e515762001e5062001ddf565b5b600182019050919050565b600082825260208201905092915050565b7f4f776e61626c653a2063616c6c6572206973206e6f7420746865206f776e6572600082015250565b600062001ea560208362001e5c565b915062001eb28262001e6d565b602082019050919050565b6000602082019050818103600083015262001ed88162001e96565b9050919050565b600060a08201905062001ef6600083018862001b36565b62001f05602083018762001b36565b62001f14604083018662001b36565b62001f23606083018562001b36565b62001f32608083018462001b36565b9695505050505050565b600062001f498262001a9b565b915062001f568362001a9b565b92508282101562001f6c5762001f6b62001ddf565b5b828203905092915050565b7f4e487b7100000000000000000000000000000000000000000000000000000000600052603260045260246000fd5b7f4e487b7100000000000000000000000000000000000000000000000000000000600052602160045260246000fd5b7f4f776e61626c653a206e6577206f776e657220697320746865207a65726f206160008201527f6464726573730000000000000000000000000000000000000000000000000000602082015250565b60006200203360268362001e5c565b9150620020408262001fd5565b604082019050919050565b60006020820190508181036000830152620020668162002024565b905091905056fe608060405260006007553480156200001657600080fd5b506040516200384b3803806200384b83398181016040528101906200003c919062000360565b6200005c620000506200022a60201b60201c565b6200023260201b60201c565b33600660006101000a81548173ffffffffffffffffffffffffffffffffffffffff021916908373ffffffffffffffffffffffffffffffffffffffff16021790555084600160006101000a81548173ffffffffffffffffffffffffffffffffffffffff021916908373ffffffffffffffffffffffffffffffffffffffff1602179055506001600660146101000a81548160ff0219169083151502179055506000600660156101000a81548160ff0219169083151502179055504260078190555083600260006101000a81548173ffffffffffffffffffffffffffffffffffffffff021916908373ffffffffffffffffffffffffffffffffffffffff16021790555080600360006101000a81548173ffffffffffffffffffffffffffffffffffffffff021916908373ffffffffffffffffffffffffffffffffffffffff16021790555082600460006101000a81548173ffffffffffffffffffffffffffffffffffffffff021916908373ffffffffffffffffffffffffffffffffffffffff16021790555081600560006101000a81548173ffffffffffffffffffffffffffffffffffffffff021916908373ffffffffffffffffffffffffffffffffffffffff1602179055505050505050620003e8565b600033905090565b60008060009054906101000a900473ffffffffffffffffffffffffffffffffffffffff169050816000806101000a81548173ffffffffffffffffffffffffffffffffffffffff021916908373ffffffffffffffffffffffffffffffffffffffff1602179055508173ffffffffffffffffffffffffffffffffffffffff168173ffffffffffffffffffffffffffffffffffffffff167f8be0079c531659141344cd1fd0a4f28419497f9722a3daafe3b4186f6b6457e060405160405180910390a35050565b600080fd5b600073ffffffffffffffffffffffffffffffffffffffff82169050919050565b60006200032882620002fb565b9050919050565b6200033a816200031b565b81146200034657600080fd5b50565b6000815190506200035a816200032f565b92915050565b600080600080600060a086880312156200037f576200037e620002f6565b5b60006200038f8882890162000349565b9550506020620003a28882890162000349565b9450506040620003b58882890162000349565b9350506060620003c88882890162000349565b9250506080620003db8882890162000349565b9150509295509295909350565b61345380620003f86000396000f3fe6080604052600436106101c65760003560e01c80636c253437116100f757806393e84cd911610095578063d7573c1111610064578063d7573c11146105d4578063df15c37e146105ff578063e8b05e381461062a578063f2fde38b14610655576101cd565b806393e84cd9146105375780639e94d5ab14610541578063a8078b7a1461057e578063c5ae6f3e146105a9576101cd565b8063766eef11116100d1578063766eef111461048d5780638613e4cf146104b857806387bb7ae0146104e15780638da5cb5b1461050c576101cd565b80636c253437146104345780636cf699581461044b578063715018a614610476576101cd565b80633ccfd60b116101645780634442713c1161013e5780634442713c1461038c5780635efaf044146103b7578063614f6f87146103e057806364605d5114610409576101cd565b80633ccfd60b146103215780633fa420c414610338578063442db8fb14610361576101cd565b806326ba4319116101a057806326ba4319146102755780632ac75ab51461029e5780633298944a146102b55780633b33b61a146102f3576101cd565b806314e59987146101cf57806314e5e90e146101fa578063194d02d714610237576101cd565b366101cd57005b005b3480156101db57600080fd5b506101e461067e565b6040516101f191906125d3565b60405180910390f35b34801561020657600080fd5b50610221600480360381019061021c9190612651565b610686565b60405161022e91906125d3565b60405180910390f35b34801561024357600080fd5b5061025e600480360381019061025991906126aa565b610789565b60405161026c9291906126ea565b60405180910390f35b34801561028157600080fd5b5061029c60048036038101906102979190612651565b610841565b005b3480156102aa57600080fd5b506102b361093b565b005b3480156102c157600080fd5b506102dc60048036038101906102d79190612651565b610b97565b6040516102ea9291906126ea565b60405180910390f35b3480156102ff57600080fd5b50610308610c35565b6040516103189493929190612722565b60405180910390f35b34801561032d57600080fd5b50610336610cd5565b005b34801561034457600080fd5b5061035f600480360381019061035a9190612651565b610d9a565b005b34801561036d57600080fd5b50610376610e94565b6040516103839190612825565b60405180910390f35b34801561039857600080fd5b506103a1610eec565b6040516103ae9190612862565b60405180910390f35b3480156103c357600080fd5b506103de60048036038101906103d99190612651565b610f03565b005b3480156103ec57600080fd5b5061040760048036038101906104029190612651565b610ffd565b005b34801561041557600080fd5b5061041e6110f7565b60405161042b919061293b565b60405180910390f35b34801561044057600080fd5b50610449611185565b005b34801561045757600080fd5b50610460611302565b60405161046d91906125d3565b60405180910390f35b34801561048257600080fd5b5061048b61130f565b005b34801561049957600080fd5b506104a2611397565b6040516104af91906125d3565b60405180910390f35b3480156104c457600080fd5b506104df60048036038101906104da9190612651565b6113a4565b005b3480156104ed57600080fd5b506104f6611464565b60405161050391906125d3565b60405180910390f35b34801561051857600080fd5b50610521611473565b60405161052e919061295d565b60405180910390f35b61053f61149c565b005b34801561054d57600080fd5b5061056860048036038101906105639190612651565b611b5f565b60405161057591906125d3565b60405180910390f35b34801561058a57600080fd5b50610593611bb0565b6040516105a091906125d3565b60405180910390f35b3480156105b557600080fd5b506105be611bc5565b6040516105cb919061295d565b60405180910390f35b3480156105e057600080fd5b506105e9611bef565b6040516105f691906125d3565b60405180910390f35b34801561060b57600080fd5b50610614611bf5565b604051610621919061295d565b60405180910390f35b34801561063657600080fd5b5061063f611c1f565b60405161064c9190612862565b60405180910390f35b34801561066157600080fd5b5061067c60048036038101906106779190612651565b611c36565b005b600047905090565b6000610690611d2e565b73ffffffffffffffffffffffffffffffffffffffff166106ae611473565b73ffffffffffffffffffffffffffffffffffffffff1614610704576040517f08c379a00000000000000000000000000000000000000000000000000000000081526004016106fb906129d5565b60405180910390fd5b8173ffffffffffffffffffffffffffffffffffffffff166371f747906040518163ffffffff1660e01b815260040160206040518083038186803b15801561074a57600080fd5b505afa15801561075e573d6000803e3d6000fd5b505050506040513d601f19601f820116820180604052508101906107829190612a0a565b9050919050565b60008060008310156107d0576040517f08c379a00000000000000000000000000000000000000000000000000000000081526004016107c790612aa9565b60405180910390fd5b60008411610813576040517f08c379a000000000000000000000000000000000000000000000000000000000815260040161080a90612aa9565b60405180910390fd5b828461081f9190612b27565b9150818361082d9190612b58565b846108389190612bb2565b90509250929050565b610849611d2e565b73ffffffffffffffffffffffffffffffffffffffff16610867611473565b73ffffffffffffffffffffffffffffffffffffffff16146108bd576040517f08c379a00000000000000000000000000000000000000000000000000000000081526004016108b4906129d5565b60405180910390fd5b600073ffffffffffffffffffffffffffffffffffffffff168173ffffffffffffffffffffffffffffffffffffffff1614156108f757600080fd5b80600d60006101000a81548173ffffffffffffffffffffffffffffffffffffffff021916908373ffffffffffffffffffffffffffffffffffffffff16021790555050565b600d60009054906101000a900473ffffffffffffffffffffffffffffffffffffffff1673ffffffffffffffffffffffffffffffffffffffff163373ffffffffffffffffffffffffffffffffffffffff1614806109e45750600660009054906101000a900473ffffffffffffffffffffffffffffffffffffffff1673ffffffffffffffffffffffffffffffffffffffff163373ffffffffffffffffffffffffffffffffffffffff16145b610a23576040517f08c379a0000000000000000000000000000000000000000000000000000000008152600401610a1a90612c32565b60405180910390fd5b60011515600660159054906101000a900460ff16151514610a79576040517f08c379a0000000000000000000000000000000000000000000000000000000008152600401610a7090612cc4565b60405180910390fd5b6000610aa6600160009054906101000a900473ffffffffffffffffffffffffffffffffffffffff16610686565b90506000600a8054905082610abb9190612ce4565b9050600a8181548110610ad157610ad0612d15565b5b90600052602060002001549050600080600080610aed85611d36565b93509350935093507f274f2e5ea35472f60f411beb007713c0f1c1b574f260789eedee1789cd49d9f5854786604051610b2893929190612d44565b60405180910390a1610b3a8547611e4d565b50610b458585612086565b610b5083838361214e565b610b58612345565b506000600660146101000a81548160ff0219169083151502179055506000600660156101000a81548160ff021916908315150217905550505050505050565b6000806000600860008573ffffffffffffffffffffffffffffffffffffffff1673ffffffffffffffffffffffffffffffffffffffff1681526020019081526020016000206000015490506000600860008673ffffffffffffffffffffffffffffffffffffffff1673ffffffffffffffffffffffffffffffffffffffff1681526020019081526020016000206001015490508181935093505050915091565b600080600080600260009054906101000a900473ffffffffffffffffffffffffffffffffffffffff169350600360009054906101000a900473ffffffffffffffffffffffffffffffffffffffff169250600460009054906101000a900473ffffffffffffffffffffffffffffffffffffffff169150600560009054906101000a900473ffffffffffffffffffffffffffffffffffffffff16905090919293565b610cdd611d2e565b73ffffffffffffffffffffffffffffffffffffffff16610cfb611473565b73ffffffffffffffffffffffffffffffffffffffff1614610d51576040517f08c379a0000000000000000000000000000000000000000000000000000000008152600401610d48906129d5565b60405180910390fd5b3373ffffffffffffffffffffffffffffffffffffffff166108fc479081150290604051600060405180830381858888f19350505050158015610d97573d6000803e3d6000fd5b50565b610da2611d2e565b73ffffffffffffffffffffffffffffffffffffffff16610dc0611473565b73ffffffffffffffffffffffffffffffffffffffff1614610e16576040517f08c379a0000000000000000000000000000000000000000000000000000000008152600401610e0d906129d5565b60405180910390fd5b600073ffffffffffffffffffffffffffffffffffffffff168173ffffffffffffffffffffffffffffffffffffffff161415610e5057600080fd5b80600460006101000a81548173ffffffffffffffffffffffffffffffffffffffff021916908373ffffffffffffffffffffffffffffffffffffffff16021790555050565b6060600a805480602002602001604051908101604052809291908181526020018280548015610ee257602002820191906000526020600020905b815481526020019060010190808311610ece575b5050505050905090565b6000600660149054906101000a900460ff16905090565b610f0b611d2e565b73ffffffffffffffffffffffffffffffffffffffff16610f29611473565b73ffffffffffffffffffffffffffffffffffffffff1614610f7f576040517f08c379a0000000000000000000000000000000000000000000000000000000008152600401610f76906129d5565b60405180910390fd5b600073ffffffffffffffffffffffffffffffffffffffff168173ffffffffffffffffffffffffffffffffffffffff161415610fb957600080fd5b80600360006101000a81548173ffffffffffffffffffffffffffffffffffffffff021916908373ffffffffffffffffffffffffffffffffffffffff16021790555050565b611005611d2e565b73ffffffffffffffffffffffffffffffffffffffff16611023611473565b73ffffffffffffffffffffffffffffffffffffffff1614611079576040517f08c379a0000000000000000000000000000000000000000000000000000000008152600401611070906129d5565b60405180910390fd5b600073ffffffffffffffffffffffffffffffffffffffff168173ffffffffffffffffffffffffffffffffffffffff1614156110b357600080fd5b80600560006101000a81548173ffffffffffffffffffffffffffffffffffffffff021916908373ffffffffffffffffffffffffffffffffffffffff16021790555050565b6060600980548060200260200160405190810160405280929190818152602001828054801561117b57602002820191906000526020600020905b8160009054906101000a900473ffffffffffffffffffffffffffffffffffffffff1673ffffffffffffffffffffffffffffffffffffffff1681526020019060010190808311611131575b5050505050905090565b600d60009054906101000a900473ffffffffffffffffffffffffffffffffffffffff1673ffffffffffffffffffffffffffffffffffffffff163373ffffffffffffffffffffffffffffffffffffffff16148061122e5750600660009054906101000a900473ffffffffffffffffffffffffffffffffffffffff1673ffffffffffffffffffffffffffffffffffffffff163373ffffffffffffffffffffffffffffffffffffffff16145b61126d576040517f08c379a000000000000000000000000000000000000000000000000000000000815260040161126490612c32565b60405180910390fd5b60001515600660149054906101000a900460ff161515146112c3576040517f08c379a00000000000000000000000000000000000000000000000000000000081526004016112ba90612dc7565b60405180910390fd5b6001600660146101000a81548160ff0219169083151502179055506000600660156101000a81548160ff02191690831515021790555042600781905550565b6000600a80549050905090565b611317611d2e565b73ffffffffffffffffffffffffffffffffffffffff16611335611473565b73ffffffffffffffffffffffffffffffffffffffff161461138b576040517f08c379a0000000000000000000000000000000000000000000000000000000008152600401611382906129d5565b60405180910390fd5b6113956000612457565b565b6000600980549050905090565b6113ac611d2e565b73ffffffffffffffffffffffffffffffffffffffff166113ca611473565b73ffffffffffffffffffffffffffffffffffffffff1614611420576040517f08c379a0000000000000000000000000000000000000000000000000000000008152600401611417906129d5565b60405180910390fd5b80600260006101000a81548173ffffffffffffffffffffffffffffffffffffffff021916908373ffffffffffffffffffffffffffffffffffffffff16021790555050565b6000662386f26fc10000905090565b60008060009054906101000a900473ffffffffffffffffffffffffffffffffffffffff16905090565b600660149054906101000a900460ff166114eb576040517f08c379a00000000000000000000000000000000000000000000000000000000081526004016114e290612e59565b60405180910390fd5b662386f26fc10000341015801561150a575068056bc75e2d6310000034105b611549576040517f08c379a000000000000000000000000000000000000000000000000000000000815260040161154090612eeb565b60405180910390fd5b6000600860003373ffffffffffffffffffffffffffffffffffffffff1673ffffffffffffffffffffffffffffffffffffffff168152602001908152602001600020600101549050678ac7230489e800008111156115db576040517f08c379a00000000000000000000000000000000000000000000000000000000081526004016115d290612f57565b60405180910390fd5b6000806115ef34662386f26fc10000610789565b9150915060008114611636576040517f08c379a000000000000000000000000000000000000000000000000000000000815260040161162d90612fe9565b60405180910390fd5b6009339080600181540180825580915050600190039060005260206000200160009091909190916101000a81548173ffffffffffffffffffffffffffffffffffffffff021916908373ffffffffffffffffffffffffffffffffffffffff160217905550600060016009805490506116ad9190612bb2565b90506000600a80549050905060005b8481101561170057600a83908060018154018082558091505060019003906000526020600020016000909190919091505580806116f890613009565b9150506116bc565b506000600a805490509050600b604051806060016040528085815260200184815260200183815250908060018154018082558091505060019003906000526020600020906003020160009091909190915090600361175f92919061251b565b506000600b8054905090506001600860003373ffffffffffffffffffffffffffffffffffffffff1673ffffffffffffffffffffffffffffffffffffffff16815260200190815260200160002060000160008282546117bd9190613052565b9250508190555034600860003373ffffffffffffffffffffffffffffffffffffffff1673ffffffffffffffffffffffffffffffffffffffff16815260200190815260200160002060010160008282546118169190613052565b9250508190555085600860003373ffffffffffffffffffffffffffffffffffffffff1673ffffffffffffffffffffffffffffffffffffffff168152602001908152602001600020600201600082825461186f9190613052565b92505081905550600860003373ffffffffffffffffffffffffffffffffffffffff1673ffffffffffffffffffffffffffffffffffffffff168152602001908152602001600020600401849080600181540180825580915050600190039060005260206000200160009091909190915055600860003373ffffffffffffffffffffffffffffffffffffffff1673ffffffffffffffffffffffffffffffffffffffff16815260200190815260200160002060030181908060018154018082558091505060019003906000526020600020016000909190919091505567016345785d8a000047101580156119665750600560098054905010155b15611987576001600660156101000a81548160ff0219169083151502179055505b7f8de5754e4ed9d4994bdb4b2b8c12dfcd51b0e994c1d34a7f20fe7f3d3fbb7bc2338534896040516119bc94939291906130a8565b60405180910390a16001600860003373ffffffffffffffffffffffffffffffffffffffff1673ffffffffffffffffffffffffffffffffffffffff168152602001908152602001600020600001541115611b56577ff0b342fc13c65867c873cfbf6e19b5285bae679018bdf3376a4baca5ff066e0d33600860003373ffffffffffffffffffffffffffffffffffffffff1673ffffffffffffffffffffffffffffffffffffffff168152602001908152602001600020600401600860003373ffffffffffffffffffffffffffffffffffffffff1673ffffffffffffffffffffffffffffffffffffffff16815260200190815260200160002060000154600860003373ffffffffffffffffffffffffffffffffffffffff1673ffffffffffffffffffffffffffffffffffffffff16815260200190815260200160002060010154600860003373ffffffffffffffffffffffffffffffffffffffff1673ffffffffffffffffffffffffffffffffffffffff16815260200190815260200160002060020154604051611b4d9594939291906131c3565b60405180910390a15b50505050505050565b600080600860008473ffffffffffffffffffffffffffffffffffffffff1673ffffffffffffffffffffffffffffffffffffffff16815260200190815260200160002060010154905080915050919050565b600060075442611bc09190612bb2565b905090565b6000600d60009054906101000a900473ffffffffffffffffffffffffffffffffffffffff16905090565b60075481565b6000600c60009054906101000a900473ffffffffffffffffffffffffffffffffffffffff16905090565b6000600660159054906101000a900460ff16905090565b611c3e611d2e565b73ffffffffffffffffffffffffffffffffffffffff16611c5c611473565b73ffffffffffffffffffffffffffffffffffffffff1614611cb2576040517f08c379a0000000000000000000000000000000000000000000000000000000008152600401611ca9906129d5565b60405180910390fd5b600073ffffffffffffffffffffffffffffffffffffffff168173ffffffffffffffffffffffffffffffffffffffff161415611d22576040517f08c379a0000000000000000000000000000000000000000000000000000000008152600401611d199061328f565b60405180910390fd5b611d2b81612457565b50565b600033905090565b6000806000806000479050600060098781548110611d5757611d56612d15565b5b9060005260206000200160009054906101000a900473ffffffffffffffffffffffffffffffffffffffff1690506000600860008373ffffffffffffffffffffffffffffffffffffffff1673ffffffffffffffffffffffffffffffffffffffff1681526020019081526020016000206001015490508083611dd79190612bb2565b9650611de4876002610789565b50809750508087611df59190613052565b965060008784611e059190612bb2565b9050611e12816014610789565b508091505080965080955087816002611e2b9190612b58565b85611e369190612bb2565b611e409190612bb2565b9450505050509193509193565b600080600060098581548110611e6657611e65612d15565b5b9060005260206000200160009054906101000a900473ffffffffffffffffffffffffffffffffffffffff16600c60006101000a81548173ffffffffffffffffffffffffffffffffffffffff021916908373ffffffffffffffffffffffffffffffffffffffff160217905550600260009054906101000a900473ffffffffffffffffffffffffffffffffffffffff1673ffffffffffffffffffffffffffffffffffffffff16637a1fa9e33086600c60009054906101000a900473ffffffffffffffffffffffffffffffffffffffff1660006040518563ffffffff1660e01b8152600401611f559493929190613301565b602060405180830381600087803b158015611f6f57600080fd5b505af1158015611f83573d6000803e3d6000fd5b505050506040513d601f19601f82011682018060405250810190611fa79190613372565b9150600260009054906101000a900473ffffffffffffffffffffffffffffffffffffffff1673ffffffffffffffffffffffffffffffffffffffff166312592fc8600c60009054906101000a900473ffffffffffffffffffffffffffffffffffffffff166040518263ffffffff1660e01b8152600401612026919061295d565b602060405180830381600087803b15801561204057600080fd5b505af1158015612054573d6000803e3d6000fd5b505050506040513d601f19601f820116820180604052508101906120789190612a0a565b905060019250505092915050565b60006009838154811061209c5761209b612d15565b5b9060005260206000200160009054906101000a900473ffffffffffffffffffffffffffffffffffffffff1690508073ffffffffffffffffffffffffffffffffffffffff166108fc839081150290604051600060405180830381858888f1935050505015801561210f573d6000803e3d6000fd5b507f9b320e270eb528aa46b3a21b196f1da153ccb2d5637e892594474e969fe6b7a981836040516121419291906133f4565b60405180910390a1505050565b6000600460009054906101000a900473ffffffffffffffffffffffffffffffffffffffff1690508073ffffffffffffffffffffffffffffffffffffffff166108fc859081150290604051600060405180830381858888f193505050501580156121bb573d6000803e3d6000fd5b507fd36f5f37e53a101e11e745c4b553773a94d17d9d7cec00640ac8331369a76d1181856040516121ed9291906133f4565b60405180910390a1600560009054906101000a900473ffffffffffffffffffffffffffffffffffffffff1690508073ffffffffffffffffffffffffffffffffffffffff166108fc849081150290604051600060405180830381858888f19350505050158015612260573d6000803e3d6000fd5b507fd36f5f37e53a101e11e745c4b553773a94d17d9d7cec00640ac8331369a76d1181846040516122929291906133f4565b60405180910390a1600360009054906101000a900473ffffffffffffffffffffffffffffffffffffffff1690508073ffffffffffffffffffffffffffffffffffffffff166108fc839081150290604051600060405180830381858888f19350505050158015612305573d6000803e3d6000fd5b507fd36f5f37e53a101e11e745c4b553773a94d17d9d7cec00640ac8331369a76d1181836040516123379291906133f4565b60405180910390a150505050565b60008060005b600160098054905061235d9190612bb2565b811015612432576009818154811061237857612377612d15565b5b9060005260206000200160009054906101000a900473ffffffffffffffffffffffffffffffffffffffff169150600860008373ffffffffffffffffffffffffffffffffffffffff1673ffffffffffffffffffffffffffffffffffffffff1681526020019081526020016000206000808201600090556001820160009055600282016000905560038201600061240d919061255b565b60048201600061241d919061255b565b5050808061242a90613009565b91505061234b565b5060096000612441919061257c565b600a600061244f919061255b565b600191505090565b60008060009054906101000a900473ffffffffffffffffffffffffffffffffffffffff169050816000806101000a81548173ffffffffffffffffffffffffffffffffffffffff021916908373ffffffffffffffffffffffffffffffffffffffff1602179055508173ffffffffffffffffffffffffffffffffffffffff168173ffffffffffffffffffffffffffffffffffffffff167f8be0079c531659141344cd1fd0a4f28419497f9722a3daafe3b4186f6b6457e060405160405180910390a35050565b826003810192821561254a579160200282015b8281111561254957825182559160200191906001019061252e565b5b509050612557919061259d565b5090565b5080546000825590600052602060002090810190612579919061259d565b50565b508054600082559060005260206000209081019061259a919061259d565b50565b5b808211156125b657600081600090555060010161259e565b5090565b6000819050919050565b6125cd816125ba565b82525050565b60006020820190506125e860008301846125c4565b92915050565b600080fd5b600073ffffffffffffffffffffffffffffffffffffffff82169050919050565b600061261e826125f3565b9050919050565b61262e81612613565b811461263957600080fd5b50565b60008135905061264b81612625565b92915050565b600060208284031215612667576126666125ee565b5b60006126758482850161263c565b91505092915050565b612687816125ba565b811461269257600080fd5b50565b6000813590506126a48161267e565b92915050565b600080604083850312156126c1576126c06125ee565b5b60006126cf85828601612695565b92505060206126e085828601612695565b9150509250929050565b60006040820190506126ff60008301856125c4565b61270c60208301846125c4565b9392505050565b61271c81612613565b82525050565b60006080820190506127376000830187612713565b6127446020830186612713565b6127516040830185612713565b61275e6060830184612713565b95945050505050565b600081519050919050565b600082825260208201905092915050565b6000819050602082019050919050565b61279c816125ba565b82525050565b60006127ae8383612793565b60208301905092915050565b6000602082019050919050565b60006127d282612767565b6127dc8185612772565b93506127e783612783565b8060005b838110156128185781516127ff88826127a2565b975061280a836127ba565b9250506001810190506127eb565b5085935050505092915050565b6000602082019050818103600083015261283f81846127c7565b905092915050565b60008115159050919050565b61285c81612847565b82525050565b60006020820190506128776000830184612853565b92915050565b600081519050919050565b600082825260208201905092915050565b6000819050602082019050919050565b6128b281612613565b82525050565b60006128c483836128a9565b60208301905092915050565b6000602082019050919050565b60006128e88261287d565b6128f28185612888565b93506128fd83612899565b8060005b8381101561292e57815161291588826128b8565b9750612920836128d0565b925050600181019050612901565b5085935050505092915050565b6000602082019050818103600083015261295581846128dd565b905092915050565b60006020820190506129726000830184612713565b92915050565b600082825260208201905092915050565b7f4f776e61626c653a2063616c6c6572206973206e6f7420746865206f776e6572600082015250565b60006129bf602083612978565b91506129ca82612989565b602082019050919050565b600060208201905081810360008301526129ee816129b2565b9050919050565b600081519050612a048161267e565b92915050565b600060208284031215612a2057612a1f6125ee565b5b6000612a2e848285016129f5565b91505092915050565b7f4469766973696f6e206973204e6f7420506f737369626c65202c20427567206960008201527f6e204e756d626572732021000000000000000000000000000000000000000000602082015250565b6000612a93602b83612978565b9150612a9e82612a37565b604082019050919050565b60006020820190508181036000830152612ac281612a86565b9050919050565b7f4e487b7100000000000000000000000000000000000000000000000000000000600052601260045260246000fd5b7f4e487b7100000000000000000000000000000000000000000000000000000000600052601160045260246000fd5b6000612b32826125ba565b9150612b3d836125ba565b925082612b4d57612b4c612ac9565b5b828204905092915050565b6000612b63826125ba565b9150612b6e836125ba565b9250817fffffffffffffffffffffffffffffffffffffffffffffffffffffffffffffffff0483118215151615612ba757612ba6612af8565b5b828202905092915050565b6000612bbd826125ba565b9150612bc8836125ba565b925082821015612bdb57612bda612af8565b5b828203905092915050565b7f5065726d697373696f6e2044656e696564202121000000000000000000000000600082015250565b6000612c1c601483612978565b9150612c2782612be6565b602082019050919050565b60006020820190508181036000830152612c4b81612c0f565b9050919050565b7f54686520506f74206973206e6f7420726561647920666f722053656c6563742060008201527f7468652057696e6e657200000000000000000000000000000000000000000000602082015250565b6000612cae602a83612978565b9150612cb982612c52565b604082019050919050565b60006020820190508181036000830152612cdd81612ca1565b9050919050565b6000612cef826125ba565b9150612cfa836125ba565b925082612d0a57612d09612ac9565b5b828206905092915050565b7f4e487b7100000000000000000000000000000000000000000000000000000000600052603260045260246000fd5b6000606082019050612d5960008301866125c4565b612d6660208301856125c4565b612d7360408301846125c4565b949350505050565b7f54686520506f742069732073746172746564206265666f726520210000000000600082015250565b6000612db1601b83612978565b9150612dbc82612d7b565b602082019050919050565b60006020820190508181036000830152612de081612da4565b9050919050565b7f54686520506f7420686173206e6f74206265656e20526561647920746f20506c60008201527f617920796574204f72205468652047616d65206973204f766572210000000000602082015250565b6000612e43603b83612978565b9150612e4e82612de7565b604082019050919050565b60006020820190508181036000830152612e7281612e36565b9050919050565b7f56616c75652073686f756c64206265206265747765656e20302e30312026203160008201527f303020424e420000000000000000000000000000000000000000000000000000602082015250565b6000612ed5602683612978565b9150612ee082612e79565b604082019050919050565b60006020820190508181036000830152612f0481612ec8565b9050919050565b7f596f7520706c6179656420746f6f206d75636820212100000000000000000000600082015250565b6000612f41601683612978565b9150612f4c82612f0b565b602082019050919050565b60006020820190508181036000830152612f7081612f34565b9050919050565b7f56616c75652073686f756c6420626520616e20496e7465676572206d7574697060008201527f6c65206f6620302e303120424e42000000000000000000000000000000000000602082015250565b6000612fd3602e83612978565b9150612fde82612f77565b604082019050919050565b6000602082019050818103600083015261300281612fc6565b9050919050565b6000613014826125ba565b91507fffffffffffffffffffffffffffffffffffffffffffffffffffffffffffffffff82141561304757613046612af8565b5b600182019050919050565b600061305d826125ba565b9150613068836125ba565b9250827fffffffffffffffffffffffffffffffffffffffffffffffffffffffffffffffff0382111561309d5761309c612af8565b5b828201905092915050565b60006080820190506130bd6000830187612713565b6130ca60208301866125c4565b6130d760408301856125c4565b6130e460608301846125c4565b95945050505050565b600081549050919050565b60008190508160005260206000209050919050565b60008160001c9050919050565b6000819050919050565b60006131376131328361310d565b61311a565b9050919050565b600061314a8254613124565b9050919050565b6000600182019050919050565b6000613169826130ed565b6131738185612772565b935061317e836130f8565b8060005b838110156131b6576131938261313e565b61319d88826127a2565b97506131a883613151565b925050600181019050613182565b5085935050505092915050565b600060a0820190506131d86000830188612713565b81810360208301526131ea818761315e565b90506131f960408301866125c4565b61320660608301856125c4565b61321360808301846125c4565b9695505050505050565b7f4f776e61626c653a206e6577206f776e657220697320746865207a65726f206160008201527f6464726573730000000000000000000000000000000000000000000000000000602082015250565b6000613279602683612978565b91506132848261321d565b604082019050919050565b600060208201905081810360008301526132a88161326c565b9050919050565b6000819050919050565b600060ff82169050919050565b6000819050919050565b60006132eb6132e66132e1846132af565b6132c6565b6132b9565b9050919050565b6132fb816132d0565b82525050565b60006080820190506133166000830187612713565b61332360208301866125c4565b6133306040830185612713565b61333d60608301846132f2565b95945050505050565b61334f81612847565b811461335a57600080fd5b50565b60008151905061336c81613346565b92915050565b600060208284031215613388576133876125ee565b5b60006133968482850161335d565b91505092915050565b60006133ba6133b56133b0846125f3565b6132c6565b6125f3565b9050919050565b60006133cc8261339f565b9050919050565b60006133de826133c1565b9050919050565b6133ee816133d3565b82525050565b600060408201905061340960008301856133e5565b61341660208301846125c4565b939250505056fea26469706673582212208b133a3e7a495201b1b5a2d11fa58b1757a83178cf760c3c57da87fa5141b95464736f6c63430008090033a2646970667358221220654ce1ed3459407745e61007346dbb9bcf12612e58839b7ab14b8be8216015da64736f6c63430008090033",
  "immutableReferences": {},
  "source": "// SPDX-License-Identifier: MIT\npragma solidity ^0.8.0;\n\nimport \"@openzeppelin/contracts/access/Ownable.sol\";\nimport \"./LotteryCore.sol\";\n\n\n/**\n  * @title Lottery Generator Smart Contract.\n  * @author Batis \n  * @notice This SmartContract is responsible for Lottery Generation.\n  * @dev Lottery Generator SmartContract - Parent of Core Lottery\n*/\ncontract LotteryGenerator is Ownable {\n\n    // uint constant TICKET_PRICE = 10 * 1e15; // finney (0.01 Ether)\n\n    enum LType {\n        Hourly,\n        Daily,\n        Weekly,\n        Monthly\n    }\n\n    address[] public lotteries;\n    struct lottery{\n        uint index;\n        address creator;\n        uint totalBalance;\n        address winnerAddress; \n        LType lotteryType;\n    }\n    mapping(address => lottery) lotteryStructs;\n\n    address[] public LotteryWinnersArray;\n    struct LotteryWinnerStr{\n        uint playersId;\n        uint winnerCount;\n    }\n    mapping (address => LotteryWinnerStr) public LotteryWinnersMap;\n\n    address[] public WeeklyWinnersArray;\n    struct WeeklyWinnerStr{\n        uint playersId;\n        uint winnerCount;\n    }\n    mapping (address => WeeklyWinnerStr) public WeeklyWinnersMap;\n\n    address[] public MonthlyWinnersArray;\n    struct MonthlyWinnerStr{\n        uint playersId;\n        uint winnerCount;\n    }\n    mapping (address => MonthlyWinnerStr) public MonthlyWinnersMap;\n\n    // event\n    event LotteryCreated(address newLottery);\n\n  /* ToDo : Add & Complete Fallback routine */\n    fallback() external payable {\n    }\n    receive() external payable {\n    }\n\n    function balanceInPot() public view returns(uint){\n        return address(this).balance;\n    }\n\n    function withdraw() external onlyOwner {\n        payable(msg.sender).transfer(address(this).balance);\n    }\n\n    function getWinners() external view returns(address[] memory) {\n        return LotteryWinnersArray;\n    }\n\n    function getWeeklyWinners() external view returns(address[] memory) {\n        return WeeklyWinnersArray;\n    }\n\n    function getMonthlyWinners() external view returns(address[] memory) {\n        return MonthlyWinnersArray;\n    }\n\n    function setlotteryStructs(address _lotteryAddress, uint _totalBalance, address _winnerAddress, uint8 _lotteryType) external returns (bool) {\n        lotteryStructs[_lotteryAddress].totalBalance = _totalBalance;\n        lotteryStructs[_lotteryAddress].winnerAddress = _winnerAddress;\n        lotteryStructs[_lotteryAddress].lotteryType = LType(_lotteryType);\n        return true;\n    }\n\n    function setlotteryWinnersArrayMap(address _winnerAddress) external returns (uint) {\n        LotteryWinnersArray.push(_winnerAddress);\n        LotteryWinnersMap[_winnerAddress].playersId = LotteryWinnersArray.length;  // -1\n        LotteryWinnersMap[_winnerAddress].winnerCount++;\n        return LotteryWinnersArray.length ;  // -1\n    }\n\n    function setWeeklyWinnersArrayMap(address _winnerAddress) external returns (uint) {\n        WeeklyWinnersArray.push(_winnerAddress);\n        WeeklyWinnersMap[_winnerAddress].playersId = WeeklyWinnersArray.length;  // -1\n        WeeklyWinnersMap[_winnerAddress].winnerCount++;\n        return WeeklyWinnersArray.length ;  // -1\n    }\n\n    function setMonthlyWinnersArrayMap(address _winnerAddress) external returns (uint) {\n        MonthlyWinnersArray.push(_winnerAddress);\n        MonthlyWinnersMap[_winnerAddress].playersId = MonthlyWinnersArray.length;  // -1\n        MonthlyWinnersMap[_winnerAddress].winnerCount++;\n        return MonthlyWinnersArray.length ;  // -1\n    }\n\n    function clearlotteryWinnersArrayMap() external returns (bool) {\n        address _lotteryWinAddress;\n        for (uint256 index = 0; index < LotteryWinnersArray.length - 1; index++) {\n            _lotteryWinAddress = LotteryWinnersArray[index];\n            // if (LotteryWinnersMap[_lotteryWinAddress].playersId > 0) {\n            //     LotteryWinnersMap[_lotteryWinAddress].playersId = 0;\n            //     LotteryWinnersMap[_lotteryWinAddress].winnerCount = 0;\n            // }\n            delete LotteryWinnersMap[_lotteryWinAddress];\n        }\n        delete LotteryWinnersArray;\n        return true;\n    }\n\n    function clearWeeklyWinnersArrayMap() external returns (bool) {\n        address _lotteryWinAddress;\n        for (uint256 index = 0; index < WeeklyWinnersArray.length - 1; index++) {\n            _lotteryWinAddress = WeeklyWinnersArray[index];\n            // if (WeeklyWinnersMap[_lotteryWinAddress].playersId > 0) {\n            //     WeeklyWinnersMap[_lotteryWinAddress].playersId = 0;\n            //     WeeklyWinnersMap[_lotteryWinAddress].winnerCount = 0;\n            // }\n            delete WeeklyWinnersMap[_lotteryWinAddress];\n        }\n        delete WeeklyWinnersArray;\n        return true;\n    }\n\n    function clearMonthlyWinnersArrayMap() external returns (bool) {\n        address _lotteryWinAddress;\n        for (uint256 index = 0; index < MonthlyWinnersArray.length - 1; index++) {\n            _lotteryWinAddress = MonthlyWinnersArray[index];\n            // if (MonthlyWinnersMap[_lotteryWinAddress].playersId > 0) {\n            //     MonthlyWinnersMap[_lotteryWinAddress].playersId = 0;\n            //     MonthlyWinnersMap[_lotteryWinAddress].winnerCount = 0;\n            // }\n            delete MonthlyWinnersMap[_lotteryWinAddress];\n        }\n        delete MonthlyWinnersArray;\n        return true;\n    }\n\n\n    function createLottery(address _VRF, address weeklyAddr, address monthlyAddr, address liquidityAddr) public onlyOwner {\n\n        address generatorAddress = address(this);\n\n        // require(bytes(name).length > 0);\n        address newLottery = address(new LotteryCore(_VRF, generatorAddress, weeklyAddr, monthlyAddr, liquidityAddr));\n        lotteries.push(newLottery);\n        lotteryStructs[newLottery].index = lotteries.length - 1;\n        lotteryStructs[newLottery].creator = msg.sender;\n        lotteryStructs[newLottery].totalBalance = 0;\n        lotteryStructs[newLottery].winnerAddress = address(0);\n\n        emit LotteryCreated( newLottery );\n    }\n\n    // function getLotteries() public view returns(address[]) {\n    //     return lotteries;\n    // }\n\n    function deleteLottery(address lotteryAddress) public  onlyOwner {\n        require(msg.sender == lotteryStructs[lotteryAddress].creator);\n        uint indexToDelete = lotteryStructs[lotteryAddress].index;\n        address lastAddress = lotteries[lotteries.length - 1];\n        lotteries[indexToDelete] = lastAddress;\n        // lotteries.length --;\n    }\n\n    // Events\n    // event LotteryCreated(\n    //     address lotteryAddress\n    // );\n}\n\n\n\n",
  "sourcePath": "/home/batis/SrcCode/myPRJ/SmartContBlockChain/BSCLottery/contracts/LotteryGenerator.sol",
  "compiler": {
    "name": "solc",
    "version": "0.8.9+commit.e5eed63a.Emscripten.clang"
  },
  "schemaVersion": "3.4.3",
  "updatedAt": "2022-05-20T12:02:12.077Z",
  "networkType": "ethereum",
  "devdoc": {
    "author": "Batis ",
    "details": "Lottery Generator SmartContract - Parent of Core Lottery",
    "kind": "dev",
    "methods": {
      "owner()": {
        "details": "Returns the address of the current owner."
      },
      "renounceOwnership()": {
        "details": "Leaves the contract without owner. It will not be possible to call `onlyOwner` functions anymore. Can only be called by the current owner. NOTE: Renouncing ownership will leave the contract without an owner, thereby removing any functionality that is only available to the owner."
      },
      "transferOwnership(address)": {
        "details": "Transfers ownership of the contract to a new account (`newOwner`). Can only be called by the current owner."
      }
    },
    "title": "Lottery Generator Smart Contract.",
    "version": 1
  },
  "userdoc": {
    "kind": "user",
    "methods": {},
    "notice": "This SmartContract is responsible for Lottery Generation.",
    "version": 1
  }
}