{
  "contractName": "LotteryGenerator",
  "abi": [
    {
      "inputs": [],
      "stateMutability": "nonpayable",
      "type": "constructor"
    },
    {
      "anonymous": false,
      "inputs": [
        {
          "indexed": false,
          "internalType": "address",
          "name": "newLottery",
          "type": "address"
        }
      ],
      "name": "LotteryCreated",
      "type": "event"
    },
    {
      "anonymous": false,
      "inputs": [
        {
          "indexed": true,
          "internalType": "address",
          "name": "previousOwner",
          "type": "address"
        },
        {
          "indexed": true,
          "internalType": "address",
          "name": "newOwner",
          "type": "address"
        }
      ],
      "name": "OwnershipTransferred",
      "type": "event"
    },
    {
      "stateMutability": "payable",
      "type": "fallback",
      "payable": true
    },
    {
      "inputs": [
        {
          "internalType": "uint256",
          "name": "",
          "type": "uint256"
        }
      ],
      "name": "LotteryWinnersArray",
      "outputs": [
        {
          "internalType": "address",
          "name": "",
          "type": "address"
        }
      ],
      "stateMutability": "view",
      "type": "function",
      "constant": true
    },
    {
      "inputs": [
        {
          "internalType": "address",
          "name": "",
          "type": "address"
        }
      ],
      "name": "LotteryWinnersMap",
      "outputs": [
        {
          "internalType": "uint256",
          "name": "playersId",
          "type": "uint256"
        },
        {
          "internalType": "uint256",
          "name": "winnerCount",
          "type": "uint256"
        }
      ],
      "stateMutability": "view",
      "type": "function",
      "constant": true
    },
    {
      "inputs": [
        {
          "internalType": "uint256",
          "name": "",
          "type": "uint256"
        }
      ],
      "name": "MonthlyWinnersArray",
      "outputs": [
        {
          "internalType": "address",
          "name": "",
          "type": "address"
        }
      ],
      "stateMutability": "view",
      "type": "function",
      "constant": true
    },
    {
      "inputs": [
        {
          "internalType": "address",
          "name": "",
          "type": "address"
        }
      ],
      "name": "MonthlyWinnersMap",
      "outputs": [
        {
          "internalType": "uint256",
          "name": "playersId",
          "type": "uint256"
        },
        {
          "internalType": "uint256",
          "name": "winnerCount",
          "type": "uint256"
        }
      ],
      "stateMutability": "view",
      "type": "function",
      "constant": true
    },
    {
      "inputs": [
        {
          "internalType": "uint256",
          "name": "",
          "type": "uint256"
        }
      ],
      "name": "WeeklyWinnersArray",
      "outputs": [
        {
          "internalType": "address",
          "name": "",
          "type": "address"
        }
      ],
      "stateMutability": "view",
      "type": "function",
      "constant": true
    },
    {
      "inputs": [
        {
          "internalType": "address",
          "name": "",
          "type": "address"
        }
      ],
      "name": "WeeklyWinnersMap",
      "outputs": [
        {
          "internalType": "uint256",
          "name": "playersId",
          "type": "uint256"
        },
        {
          "internalType": "uint256",
          "name": "winnerCount",
          "type": "uint256"
        }
      ],
      "stateMutability": "view",
      "type": "function",
      "constant": true
    },
    {
      "inputs": [
        {
          "internalType": "uint256",
          "name": "",
          "type": "uint256"
        }
      ],
      "name": "lotteries",
      "outputs": [
        {
          "internalType": "address",
          "name": "",
          "type": "address"
        }
      ],
      "stateMutability": "view",
      "type": "function",
      "constant": true
    },
    {
      "inputs": [],
      "name": "owner",
      "outputs": [
        {
          "internalType": "address",
          "name": "",
          "type": "address"
        }
      ],
      "stateMutability": "view",
      "type": "function",
      "constant": true
    },
    {
      "inputs": [],
      "name": "renounceOwnership",
      "outputs": [],
      "stateMutability": "nonpayable",
      "type": "function"
    },
    {
      "inputs": [
        {
          "internalType": "address",
          "name": "newOwner",
          "type": "address"
        }
      ],
      "name": "transferOwnership",
      "outputs": [],
      "stateMutability": "nonpayable",
      "type": "function"
    },
    {
      "stateMutability": "payable",
      "type": "receive",
      "payable": true
    },
    {
      "inputs": [],
      "name": "balanceInPot",
      "outputs": [
        {
          "internalType": "uint256",
          "name": "",
          "type": "uint256"
        }
      ],
      "stateMutability": "view",
      "type": "function",
      "constant": true
    },
    {
      "inputs": [],
      "name": "withdraw",
      "outputs": [],
      "stateMutability": "nonpayable",
      "type": "function"
    },
    {
      "inputs": [],
      "name": "getWinners",
      "outputs": [
        {
          "internalType": "address[]",
          "name": "",
          "type": "address[]"
        }
      ],
      "stateMutability": "view",
      "type": "function",
      "constant": true
    },
    {
      "inputs": [],
      "name": "getWeeklyWinners",
      "outputs": [
        {
          "internalType": "address[]",
          "name": "",
          "type": "address[]"
        }
      ],
      "stateMutability": "view",
      "type": "function",
      "constant": true
    },
    {
      "inputs": [],
      "name": "getMonthlyWinners",
      "outputs": [
        {
          "internalType": "address[]",
          "name": "",
          "type": "address[]"
        }
      ],
      "stateMutability": "view",
      "type": "function",
      "constant": true
    },
    {
      "inputs": [],
      "name": "getPotDirector",
      "outputs": [
        {
          "internalType": "address",
          "name": "",
          "type": "address"
        }
      ],
      "stateMutability": "view",
      "type": "function",
      "constant": true
    },
    {
      "inputs": [
        {
          "internalType": "address",
          "name": "_DirectorAddress",
          "type": "address"
        }
      ],
      "name": "setDirector",
      "outputs": [],
      "stateMutability": "nonpayable",
      "type": "function"
    },
    {
      "inputs": [
        {
          "internalType": "address",
          "name": "_lotteryAddress",
          "type": "address"
        },
        {
          "internalType": "address",
          "name": "_commander",
          "type": "address"
        },
        {
          "internalType": "uint256",
          "name": "_totalBalance",
          "type": "uint256"
        },
        {
          "internalType": "address",
          "name": "_winnerAddress",
          "type": "address"
        },
        {
          "internalType": "uint8",
          "name": "_lotteryType",
          "type": "uint8"
        }
      ],
      "name": "setlotteryStructs",
      "outputs": [
        {
          "internalType": "bool",
          "name": "",
          "type": "bool"
        }
      ],
      "stateMutability": "nonpayable",
      "type": "function"
    },
    {
      "inputs": [
        {
          "internalType": "address",
          "name": "_commander",
          "type": "address"
        },
        {
          "internalType": "address",
          "name": "_winnerAddress",
          "type": "address"
        }
      ],
      "name": "setlotteryWinnersArrayMap",
      "outputs": [
        {
          "internalType": "uint256",
          "name": "",
          "type": "uint256"
        }
      ],
      "stateMutability": "nonpayable",
      "type": "function"
    },
    {
      "inputs": [
        {
          "internalType": "address",
          "name": "_commander",
          "type": "address"
        },
        {
          "internalType": "address",
          "name": "_winnerAddress",
          "type": "address"
        }
      ],
      "name": "setWeeklyWinnersArrayMap",
      "outputs": [
        {
          "internalType": "uint256",
          "name": "",
          "type": "uint256"
        }
      ],
      "stateMutability": "nonpayable",
      "type": "function"
    },
    {
      "inputs": [
        {
          "internalType": "address",
          "name": "_commander",
          "type": "address"
        },
        {
          "internalType": "address",
          "name": "_winnerAddress",
          "type": "address"
        }
      ],
      "name": "setMonthlyWinnersArrayMap",
      "outputs": [
        {
          "internalType": "uint256",
          "name": "",
          "type": "uint256"
        }
      ],
      "stateMutability": "nonpayable",
      "type": "function"
    },
    {
      "inputs": [
        {
          "internalType": "address",
          "name": "_commander",
          "type": "address"
        }
      ],
      "name": "clearlotteryWinnersArrayMap",
      "outputs": [
        {
          "internalType": "bool",
          "name": "",
          "type": "bool"
        }
      ],
      "stateMutability": "nonpayable",
      "type": "function"
    },
    {
      "inputs": [
        {
          "internalType": "address",
          "name": "_commander",
          "type": "address"
        }
      ],
      "name": "clearWeeklyWinnersArrayMap",
      "outputs": [
        {
          "internalType": "bool",
          "name": "",
          "type": "bool"
        }
      ],
      "stateMutability": "nonpayable",
      "type": "function"
    },
    {
      "inputs": [
        {
          "internalType": "address",
          "name": "_commander",
          "type": "address"
        }
      ],
      "name": "clearMonthlyWinnersArrayMap",
      "outputs": [
        {
          "internalType": "bool",
          "name": "",
          "type": "bool"
        }
      ],
      "stateMutability": "nonpayable",
      "type": "function"
    },
    {
      "inputs": [
        {
          "internalType": "address",
          "name": "_VRF",
          "type": "address"
        },
        {
          "internalType": "address",
          "name": "weeklyAddr",
          "type": "address"
        },
        {
          "internalType": "address",
          "name": "monthlyAddr",
          "type": "address"
        },
        {
          "internalType": "address",
          "name": "liquidityAddr",
          "type": "address"
        }
      ],
      "name": "createLottery",
      "outputs": [],
      "stateMutability": "nonpayable",
      "type": "function"
    },
    {
      "inputs": [
        {
          "internalType": "address",
          "name": "lotteryAddress",
          "type": "address"
        }
      ],
      "name": "deleteLottery",
      "outputs": [],
      "stateMutability": "nonpayable",
      "type": "function"
    }
  ],
  "bytecode": "0x608060405234801561001057600080fd5b5061001a33610031565b600380546001600160a01b03191633179055610081565b600080546001600160a01b038381166001600160a01b0319831681178455604051919092169283917f8be0079c531659141344cd1fd0a4f28419497f9722a3daafe3b4186f6b6457e09190a35050565b613523806100906000396000f3fe608060405260043610620001af5760003560e01c8063715018a611620000e7578063a799ada0116200008f578063c5ae6f3e1162000069578063c5ae6f3e1462000534578063df15c37e1462000554578063f2fde38b146200056c578063f6711239146200059157005b8063a799ada014620004b2578063a7e46eac14620004d7578063b14a60b114620004fc57005b8063a35e151c11620000c1578063a35e151c1462000443578063a55b4f981462000468578063a6dddd64146200048d57005b8063715018a614620003e65780638da5cb5b14620003fe57806394c31c9b146200041e57005b8063277550e911620001575780633ccfd60b11620001315780633ccfd60b14620003595780634488d679146200037157806354a1ec731462000389578063653ea43914620003ae57005b8063277550e914620002d957806332f655fd14620002fe5780633305bd30146200033457005b80631c1f538911620001895780631c1f538914620002415780631cb9f1e7146200028f57806326ba431914620002b457005b80631398e07614620001b957806314e5998714620001fb578063195b6e9d146200021a57005b36620001b757005b005b348015620001c657600080fd5b50620001de620001d83660046200145b565b620005b6565b6040516001600160a01b0390911681526020015b60405180910390f35b3480156200020857600080fd5b50475b604051908152602001620001f2565b3480156200022757600080fd5b5062000232620005e1565b604051620001f2919062001475565b3480156200024e57600080fd5b506200027962000260366004620014e1565b6006602052600090815260409020805460019091015482565b60408051928352602083019190915201620001f2565b3480156200029c57600080fd5b50620001b7620002ae36600462001506565b62000645565b348015620002c157600080fd5b50620001b7620002d3366004620014e1565b620007e4565b348015620002e657600080fd5b50620001de620002f83660046200145b565b62000876565b3480156200030b57600080fd5b50620003236200031d366004620014e1565b62000887565b6040519015158152602001620001f2565b3480156200034157600080fd5b50620003236200035336600462001563565b62000994565b3480156200036657600080fd5b50620001b762000ae8565b3480156200037e57600080fd5b506200023262000b74565b3480156200039657600080fd5b5062000323620003a8366004620014e1565b62000bd6565b348015620003bb57600080fd5b5062000279620003cd366004620014e1565b6008602052600090815260409020805460019091015482565b348015620003f357600080fd5b50620001b762000cd9565b3480156200040b57600080fd5b506000546001600160a01b0316620001de565b3480156200042b57600080fd5b506200020b6200043d366004620015d3565b62000d43565b3480156200045057600080fd5b50620001de620004623660046200145b565b62000e3d565b3480156200047557600080fd5b506200032362000487366004620014e1565b62000e4e565b3480156200049a57600080fd5b506200020b620004ac366004620015d3565b62000f51565b348015620004bf57600080fd5b506200020b620004d1366004620015d3565b6200104b565b348015620004e457600080fd5b50620001b7620004f6366004620014e1565b62001145565b3480156200050957600080fd5b50620002796200051b366004620014e1565b600a602052600090815260409020805460019091015482565b3480156200054157600080fd5b506004546001600160a01b0316620001de565b3480156200056157600080fd5b506200023262001270565b3480156200057957600080fd5b50620001b76200058b366004620014e1565b620012d2565b3480156200059e57600080fd5b50620001de620005b03660046200145b565b620013b7565b60018181548110620005c757600080fd5b6000918252602090912001546001600160a01b0316905081565b606060098054806020026020016040519081016040528092919081815260200182805480156200063b57602002820191906000526020600020905b81546001600160a01b031681526001909101906020018083116200061c575b5050505050905090565b6000546001600160a01b03163314620006a55760405162461bcd60e51b815260206004820181905260248201527f4f776e61626c653a2063616c6c6572206973206e6f7420746865206f776e657260448201526064015b60405180910390fd5b600030905060008582868686604051620006bf9062001418565b6001600160a01b0395861681529385166020850152918416604084015283166060830152909116608082015260a001604051809103906000f0801580156200070b573d6000803e3d6000fd5b5060018054808201825560008290527fb10e2d527612073b26eecdfd717e6a320cf44b4afac2b0732d9fcbe2b7fa0cf60180546001600160a01b0319166001600160a01b0384161790558054919250620007659162001621565b6001600160a01b0382166000818152600260208181526040808420958655600186018054336001600160a01b03199182161790915592860193909355600390940180549091169055519081527fe610764cbcba803247df3450b7492f6a0084b7b5b734a7901c13fef8f84ffaf4910160405180910390a1505050505050565b6000546001600160a01b03163314620008405760405162461bcd60e51b815260206004820181905260248201527f4f776e61626c653a2063616c6c6572206973206e6f7420746865206f776e657260448201526064016200069c565b6001600160a01b0381166200085457600080fd5b600480546001600160a01b0319166001600160a01b0392909216919091179055565b60098181548110620005c757600080fd5b60045460009082906001600160a01b0380831691161480620008b657506003546001600160a01b038281169116145b620009045760405162461bcd60e51b815260206004820152601c60248201527f284f776e657229205065726d697373696f6e2044656e6965642021210000000060448201526064016200069c565b6000805b600754620009199060019062001621565b8110156200097b57600781815481106200093757620009376200163b565b60009182526020808320909101546001600160a01b031680835260089091526040822082815560010191909155915080620009728162001651565b91505062000908565b506200098a6007600062001426565b5060019392505050565b60045460009085906001600160a01b0380831691161480620009c357506003546001600160a01b038281169116145b62000a115760405162461bcd60e51b815260206004820152601c60248201527f284f776e657229205065726d697373696f6e2044656e6965642021210000000060448201526064016200069c565b6001600160a01b038781166000908152600260208190526040909120908101879055600390810180546001600160a01b0319169287169290921790915560ff84169081111562000a655762000a656200166f565b6001600160a01b03881660009081526002602052604090206003908101805490917fffffffffffffffffffffff00ffffffffffffffffffffffffffffffffffffffff909116907401000000000000000000000000000000000000000090849081111562000ad65762000ad66200166f565b02179055506001979650505050505050565b6000546001600160a01b0316331462000b445760405162461bcd60e51b815260206004820181905260248201527f4f776e61626c653a2063616c6c6572206973206e6f7420746865206f776e657260448201526064016200069c565b60405133904780156108fc02916000818181858888f1935050505015801562000b71573d6000803e3d6000fd5b50565b606060078054806020026020016040519081016040528092919081815260200182805480156200063b576020028201919060005260206000209081546001600160a01b031681526001909101906020018083116200061c575050505050905090565b60045460009082906001600160a01b038083169116148062000c0557506003546001600160a01b038281169116145b62000c535760405162461bcd60e51b815260206004820152601c60248201527f284f776e657229205065726d697373696f6e2044656e6965642021210000000060448201526064016200069c565b6000805b60055462000c689060019062001621565b81101562000cca576005818154811062000c865762000c866200163b565b60009182526020808320909101546001600160a01b03168083526006909152604082208281556001019190915591508062000cc18162001651565b91505062000c57565b506200098a6005600062001426565b6000546001600160a01b0316331462000d355760405162461bcd60e51b815260206004820181905260248201527f4f776e61626c653a2063616c6c6572206973206e6f7420746865206f776e657260448201526064016200069c565b62000d416000620013c8565b565b60045460009083906001600160a01b038083169116148062000d7257506003546001600160a01b038281169116145b62000dc05760405162461bcd60e51b815260206004820152601c60248201527f284f776e657229205065726d697373696f6e2044656e6965642021210000000060448201526064016200069c565b60078054600180820183557fa66cc928b5edb82af9bd49922954155ab7b0942694bea4ce44661d9a8736c68890910180546001600160a01b0319166001600160a01b038716908117909155915460009283526008602052604083209081550180549162000e2d8362001651565b9091555050600754949350505050565b60078181548110620005c757600080fd5b60045460009082906001600160a01b038083169116148062000e7d57506003546001600160a01b038281169116145b62000ecb5760405162461bcd60e51b815260206004820152601c60248201527f284f776e657229205065726d697373696f6e2044656e6965642021210000000060448201526064016200069c565b6000805b60095462000ee09060019062001621565b81101562000f42576009818154811062000efe5762000efe6200163b565b60009182526020808320909101546001600160a01b0316808352600a909152604082208281556001019190915591508062000f398162001651565b91505062000ecf565b506200098a6009600062001426565b60045460009083906001600160a01b038083169116148062000f8057506003546001600160a01b038281169116145b62000fce5760405162461bcd60e51b815260206004820152601c60248201527f284f776e657229205065726d697373696f6e2044656e6965642021210000000060448201526064016200069c565b60058054600180820183557f036b6384b5eca791c62761152d0c79bb0604c104a5fb6f4eb0703f3154bb3db090910180546001600160a01b0319166001600160a01b03871690811790915591546000928352600660205260408320908155018054916200103b8362001651565b9091555050600554949350505050565b60045460009083906001600160a01b03808316911614806200107a57506003546001600160a01b038281169116145b620010c85760405162461bcd60e51b815260206004820152601c60248201527f284f776e657229205065726d697373696f6e2044656e6965642021210000000060448201526064016200069c565b60098054600180820183557f6e1540171b6c0c960b71a7020d9f60077f6af931a8bbf590da0223dacf75c7af90910180546001600160a01b0319166001600160a01b03871690811790915591546000928352600a6020526040832090815501805491620011358362001651565b9091555050600954949350505050565b6000546001600160a01b03163314620011a15760405162461bcd60e51b815260206004820181905260248201527f4f776e61626c653a2063616c6c6572206973206e6f7420746865206f776e657260448201526064016200069c565b6001600160a01b03818116600090815260026020526040902060010154163314620011cb57600080fd5b6001600160a01b03811660009081526002602052604081205460018054919291620011f890829062001621565b815481106200120b576200120b6200163b565b600091825260209091200154600180546001600160a01b0390921692508291849081106200123d576200123d6200163b565b9060005260206000200160006101000a8154816001600160a01b0302191690836001600160a01b03160217905550505050565b606060058054806020026020016040519081016040528092919081815260200182805480156200063b576020028201919060005260206000209081546001600160a01b031681526001909101906020018083116200061c575050505050905090565b6000546001600160a01b031633146200132e5760405162461bcd60e51b815260206004820181905260248201527f4f776e61626c653a2063616c6c6572206973206e6f7420746865206f776e657260448201526064016200069c565b6001600160a01b038116620013ac5760405162461bcd60e51b815260206004820152602660248201527f4f776e61626c653a206e6577206f776e657220697320746865207a65726f206160448201527f646472657373000000000000000000000000000000000000000000000000000060648201526084016200069c565b62000b7181620013c8565b60058181548110620005c757600080fd5b600080546001600160a01b038381166001600160a01b0319831681178455604051919092169283917f8be0079c531659141344cd1fd0a4f28419497f9722a3daafe3b4186f6b6457e09190a35050565b611e68806200168683390190565b508054600082559060005260206000209081019062000b7191905b8082111562001457576000815560010162001441565b5090565b6000602082840312156200146e57600080fd5b5035919050565b6020808252825182820181905260009190848201906040850190845b81811015620014b85783516001600160a01b03168352928401929184019160010162001491565b50909695505050505050565b80356001600160a01b0381168114620014dc57600080fd5b919050565b600060208284031215620014f457600080fd5b620014ff82620014c4565b9392505050565b600080600080608085870312156200151d57600080fd5b6200152885620014c4565b93506200153860208601620014c4565b92506200154860408601620014c4565b91506200155860608601620014c4565b905092959194509250565b600080600080600060a086880312156200157c57600080fd5b6200158786620014c4565b94506200159760208701620014c4565b935060408601359250620015ae60608701620014c4565b9150608086013560ff81168114620015c557600080fd5b809150509295509295909350565b60008060408385031215620015e757600080fd5b620015f283620014c4565b91506200160260208401620014c4565b90509250929050565b634e487b7160e01b600052601160045260246000fd5b6000828210156200163657620016366200160b565b500390565b634e487b7160e01b600052603260045260246000fd5b60006000198214156200166857620016686200160b565b5060010190565b634e487b7160e01b600052602160045260246000fdfe6080604052600060075560006008553480156200001b57600080fd5b5060405162001e6838038062001e688339810160408190526200003e9162000149565b6200004933620000dc565b60068054600180546001600160a01b03199081166001600160a01b03998a1617909155600160a01b6001600160a81b03199092163360ff60a01b1916179190911760ff60a81b1916909155426007556002805482169587169590951790945560038054851691861691909117905560048054841692851692909217909155600580549092169216919091179055620001b9565b600080546001600160a01b038381166001600160a01b0319831681178455604051919092169283917f8be0079c531659141344cd1fd0a4f28419497f9722a3daafe3b4186f6b6457e09190a35050565b80516001600160a01b03811681146200014457600080fd5b919050565b600080600080600060a086880312156200016257600080fd5b6200016d866200012c565b94506200017d602087016200012c565b93506200018d604087016200012c565b92506200019d606087016200012c565b9150620001ad608087016200012c565b90509295509295909350565b611c9f80620001c96000396000f3fe6080604052600436106101b95760003560e01c80636cf69958116100eb5780639e94d5ab1161008f578063d7573c1111610061578063d7573c1114610527578063df15c37e1461053d578063e8b05e381461055b578063f2fde38b1461057a57005b80639e94d5ab146104a5578063a8078b7a146104de578063c5ae6f3e146104f3578063c7c15ac91461051157005b80638613e4cf116100c85780638613e4cf1461043157806387bb7ae0146104515780638da5cb5b1461046b57806393e84cd91461049d57005b80636cf69958146103f2578063715018a614610407578063766eef111461041c57005b80633ccfd60b1161015d5780635efaf0441161012f5780635efaf0441461037b578063614f6f871461039b57806364605d51146103bb5780636c253437146103dd57005b80633ccfd60b146102f95780633fa420c41461030e578063442db8fb1461032e5780634442713c1461035057005b806326ba43191161019657806326ba4319146102395780632ac75ab5146102595780633298944a1461026e5780633b33b61a146102ac57005b806314e59987146101c257806314e5e90e146101e4578063194d02d71461020457005b366101c057005b005b3480156101ce57600080fd5b50475b6040519081526020015b60405180910390f35b3480156101f057600080fd5b506101d16101ff366004611a14565b61059a565b34801561021057600080fd5b5061022461021f366004611a44565b610671565b604080519283526020830191909152016101db565b34801561024557600080fd5b506101c0610254366004611a14565b610713565b34801561026557600080fd5b506101c06107a2565b34801561027a57600080fd5b50610224610289366004611a14565b6001600160a01b0316600090815260096020526040902080546001909101549091565b3480156102b857600080fd5b50600254600354600454600554604080516001600160a01b0395861681529385166020850152918416918301919091529190911660608201526080016101db565b34801561030557600080fd5b506101c061097a565b34801561031a57600080fd5b506101c0610329366004611a14565b610a03565b34801561033a57600080fd5b50610343610a92565b6040516101db9190611a66565b34801561035c57600080fd5b50600654600160a01b900460ff165b60405190151581526020016101db565b34801561038757600080fd5b506101c0610396366004611a14565b610aea565b3480156103a757600080fd5b506101c06103b6366004611a14565b610b79565b3480156103c757600080fd5b506103d0610c08565b6040516101db9190611aaa565b3480156103e957600080fd5b506101c0610c69565b3480156103fe57600080fd5b50600b546101d1565b34801561041357600080fd5b506101c0610d4c565b34801561042857600080fd5b50600a546101d1565b34801561043d57600080fd5b506101c061044c366004611a14565b610db2565b34801561045d57600080fd5b50662386f26fc100006101d1565b34801561047757600080fd5b506000546001600160a01b03165b6040516001600160a01b0390911681526020016101db565b6101c0610e2e565b3480156104b157600080fd5b506101d16104c0366004611a14565b6001600160a01b031660009081526009602052604090206001015490565b3480156104ea57600080fd5b506101d1611328565b3480156104ff57600080fd5b50600e546001600160a01b0316610485565b34801561051d57600080fd5b506101d160085481565b34801561053357600080fd5b506101d160075481565b34801561054957600080fd5b50600d546001600160a01b0316610485565b34801561056757600080fd5b50600654600160a81b900460ff1661036b565b34801561058657600080fd5b506101c0610595366004611a14565b61133d565b600080546001600160a01b031633146105fa5760405162461bcd60e51b815260206004820181905260248201527f4f776e61626c653a2063616c6c6572206973206e6f7420746865206f776e657260448201526064015b60405180910390fd5b816001600160a01b03166371f747906040518163ffffffff1660e01b815260040160206040518083038186803b15801561063357600080fd5b505afa158015610647573d6000803e3d6000fd5b505050506040513d601f19601f8201168201806040525081019061066b9190611aeb565b92915050565b600080600084116106ea5760405162461bcd60e51b815260206004820152602b60248201527f4469766973696f6e206973204e6f7420506f737369626c65202c20427567206960448201527f6e204e756d62657273202100000000000000000000000000000000000000000060648201526084016105f1565b6106f48385611b30565b91506107008284611b44565b61070a9085611b63565b90509250929050565b6000546001600160a01b0316331461076d5760405162461bcd60e51b815260206004820181905260248201527f4f776e61626c653a2063616c6c6572206973206e6f7420746865206f776e657260448201526064016105f1565b6001600160a01b03811661078057600080fd5b600e80546001600160a01b0319166001600160a01b0392909216919091179055565b600e546001600160a01b03163314806107c557506006546001600160a01b031633145b6108115760405162461bcd60e51b815260206004820152601460248201527f5065726d697373696f6e2044656e69656420212100000000000000000000000060448201526064016105f1565b600654600160a81b900460ff1615156001146108955760405162461bcd60e51b815260206004820152602a60248201527f54686520506f74206973206e6f7420726561647920666f722053656c6563742060448201527f7468652057696e6e65720000000000000000000000000000000000000000000060648201526084016105f1565b6001546000906108ad906001600160a01b031661059a565b600b549091506000906108c09083611b7a565b9050600b81815481106108d5576108d5611b8e565b906000526020600020015490506000806000806108f18561141c565b604080518a8152476020820152908101859052939750919550935091507f274f2e5ea35472f60f411beb007713c0f1c1b574f260789eedee1789cd49d9f59060600160405180910390a161094585476114dc565b506109508585611676565b61095b838383611716565b61096361189b565b50506006805461ffff60a01b191690555050505050565b6000546001600160a01b031633146109d45760405162461bcd60e51b815260206004820181905260248201527f4f776e61626c653a2063616c6c6572206973206e6f7420746865206f776e657260448201526064016105f1565b60405133904780156108fc02916000818181858888f19350505050158015610a00573d6000803e3d6000fd5b50565b6000546001600160a01b03163314610a5d5760405162461bcd60e51b815260206004820181905260248201527f4f776e61626c653a2063616c6c6572206973206e6f7420746865206f776e657260448201526064016105f1565b6001600160a01b038116610a7057600080fd5b600480546001600160a01b0319166001600160a01b0392909216919091179055565b6060600b805480602002602001604051908101604052809291908181526020018280548015610ae057602002820191906000526020600020905b815481526020019060010190808311610acc575b5050505050905090565b6000546001600160a01b03163314610b445760405162461bcd60e51b815260206004820181905260248201527f4f776e61626c653a2063616c6c6572206973206e6f7420746865206f776e657260448201526064016105f1565b6001600160a01b038116610b5757600080fd5b600380546001600160a01b0319166001600160a01b0392909216919091179055565b6000546001600160a01b03163314610bd35760405162461bcd60e51b815260206004820181905260248201527f4f776e61626c653a2063616c6c6572206973206e6f7420746865206f776e657260448201526064016105f1565b6001600160a01b038116610be657600080fd5b600580546001600160a01b0319166001600160a01b0392909216919091179055565b6060600a805480602002602001604051908101604052809291908181526020018280548015610ae057602002820191906000526020600020905b81546001600160a01b03168152600190910190602001808311610c42575050505050905090565b600e546001600160a01b0316331480610c8c57506006546001600160a01b031633145b610cd85760405162461bcd60e51b815260206004820152601460248201527f5065726d697373696f6e2044656e69656420212100000000000000000000000060448201526064016105f1565b600654600160a01b900460ff1615610d325760405162461bcd60e51b815260206004820152601b60248201527f54686520506f742069732073746172746564206265666f72652021000000000060448201526064016105f1565b6006805461ffff60a01b1916600160a01b17905542600755565b6000546001600160a01b03163314610da65760405162461bcd60e51b815260206004820181905260248201527f4f776e61626c653a2063616c6c6572206973206e6f7420746865206f776e657260448201526064016105f1565b610db06000611957565b565b6000546001600160a01b03163314610e0c5760405162461bcd60e51b815260206004820181905260248201527f4f776e61626c653a2063616c6c6572206973206e6f7420746865206f776e657260448201526064016105f1565b600280546001600160a01b0319166001600160a01b0392909216919091179055565b600654600160a01b900460ff16610ead5760405162461bcd60e51b815260206004820152603b60248201527f54686520506f7420686173206e6f74206265656e20526561647920746f20506c60448201527f617920796574204f72205468652047616d65206973204f76657221000000000060648201526084016105f1565b662386f26fc100003410158015610ecc575068056bc75e2d6310000034105b610f3e5760405162461bcd60e51b815260206004820152602660248201527f56616c75652073686f756c64206265206265747765656e20302e30312026203160448201527f303020424e42000000000000000000000000000000000000000000000000000060648201526084016105f1565b33600090815260096020526040902060010154678ac7230489e80000811115610fa95760405162461bcd60e51b815260206004820152601660248201527f596f7520706c6179656420746f6f206d7563682021210000000000000000000060448201526064016105f1565b600080610fbd34662386f26fc10000610671565b91509150806000146110375760405162461bcd60e51b815260206004820152602e60248201527f56616c75652073686f756c6420626520616e20496e7465676572206d7574697060448201527f6c65206f6620302e303120424e4200000000000000000000000000000000000060648201526084016105f1565b600a80546001818101835560008381527fc65a7bb8d6351c1cf70c95a316cc6a92839c986682d98bc35f958f4883f9d2a890920180546001600160a01b031916331790559154909161108891611b63565b600b5490915060005b848110156110e057600b80546001810182556000919091527f0175b7a638427703f0dbe7bb9bbf987a2551717b34e79f33b5b1008d1fa01db901839055806110d881611ba4565b915050611091565b50600b546040805160608101825284815260208101849052908101829052600c805460018101825560009190915261113f9160039182027fdf6966c971051c3d54ec59162606531493a51404a002842f56009d7e5cf4a8c701916119a7565b50600c54336000908152600960205260408120805460019290611163908490611bbf565b9091555050336000908152600960205260408120600101805434929061118a908490611bbf565b909155505033600090815260096020526040812060020180548892906111b1908490611bbf565b90915550503360008181526009602090815260408220600481018054600181810183559185528385200189905560038201805480830182559085529284209092018590559290915290541415611217576008805490600061121183611ba4565b91905055505b67016345785d8a000047101580156112325750600560085410155b1561126657600680547fffffffffffffffffffff00ffffffffffffffffffffffffffffffffffffffffff16600160a81b1790555b604080513381526020810186905234818301526060810188905290517f8de5754e4ed9d4994bdb4b2b8c12dfcd51b0e994c1d34a7f20fe7f3d3fbb7bc29181900360800190a1336000908152600960205260409020546001101561131f57336000818152600960205260409081902080546001820154600283015493517ff0b342fc13c65867c873cfbf6e19b5285bae679018bdf3376a4baca5ff066e0d95611316959094600401939291611bd7565b60405180910390a15b50505050505050565b6000600754426113389190611b63565b905090565b6000546001600160a01b031633146113975760405162461bcd60e51b815260206004820181905260248201527f4f776e61626c653a2063616c6c6572206973206e6f7420746865206f776e657260448201526064016105f1565b6001600160a01b0381166114135760405162461bcd60e51b815260206004820152602660248201527f4f776e61626c653a206e6577206f776e657220697320746865207a65726f206160448201527f646472657373000000000000000000000000000000000000000000000000000060648201526084016105f1565b610a0081611957565b60008060008060004790506000600a878154811061143c5761143c611b8e565b60009182526020808320909101546001600160a01b031680835260099091526040909120600101549091506114718184611b63565b965061147e876002610671565b50965061148b8188611bbf565b965060006114998885611b63565b90506114a6816014610671565b509650869550859050876114bb826002611b44565b6114c59086611b63565b6114cf9190611b63565b9450505050509193509193565b6000806000600a85815481106114f4576114f4611b8e565b6000918252602082200154600d80546001600160a01b0319166001600160a01b039283169081179091556002546040517f3305bd300000000000000000000000000000000000000000000000000000000081523060048201523360248201526044810189905260648101929092526084820193909352911690633305bd309060a401602060405180830381600087803b15801561159057600080fd5b505af11580156115a4573d6000803e3d6000fd5b505050506040513d601f19601f820116820180604052508101906115c89190611c47565b600254600d546040517fa6dddd640000000000000000000000000000000000000000000000000000000081523360048201526001600160a01b039182166024820152929450169063a6dddd6490604401602060405180830381600087803b15801561163257600080fd5b505af1158015611646573d6000803e3d6000fd5b505050506040513d601f19601f8201168201806040525081019061166a9190611aeb565b50600195945050505050565b6000600a838154811061168b5761168b611b8e565b60009182526020822001546040516001600160a01b039091169250829184156108fc02918591818181858888f193505050501580156116ce573d6000803e3d6000fd5b50604080516001600160a01b0383168152602081018490527f9b320e270eb528aa46b3a21b196f1da153ccb2d5637e892594474e969fe6b7a9910160405180910390a1505050565b6004546040516001600160a01b0390911690819085156108fc029086906000818181858888f19350505050158015611752573d6000803e3d6000fd5b50604080516001600160a01b0383168152602081018690527fd36f5f37e53a101e11e745c4b553773a94d17d9d7cec00640ac8331369a76d11910160405180910390a1506005546040516001600160a01b0390911690819084156108fc029085906000818181858888f193505050501580156117d2573d6000803e3d6000fd5b50604080516001600160a01b0383168152602081018590527fd36f5f37e53a101e11e745c4b553773a94d17d9d7cec00640ac8331369a76d11910160405180910390a1506003546040516001600160a01b0390911690819083156108fc029084906000818181858888f19350505050158015611852573d6000803e3d6000fd5b50604080516001600160a01b0383168152602081018490527fd36f5f37e53a101e11e745c4b553773a94d17d9d7cec00640ac8331369a76d11910160405180910390a150505050565b60008060005b600a546118b090600190611b63565b81101561193257600a81815481106118ca576118ca611b8e565b60009182526020808320909101546001600160a01b031680835260099091526040822082815560018101839055600281018390559093509061190f60038301826119e5565b61191d6004830160006119e5565b5050808061192a90611ba4565b9150506118a1565b5061193f600a60006119e5565b61194b600b60006119e5565b50506000600855600190565b600080546001600160a01b038381166001600160a01b0319831681178455604051919092169283917f8be0079c531659141344cd1fd0a4f28419497f9722a3daafe3b4186f6b6457e09190a35050565b82600381019282156119d5579160200282015b828111156119d55782518255916020019190600101906119ba565b506119e19291506119ff565b5090565b5080546000825590600052602060002090810190610a0091905b5b808211156119e15760008155600101611a00565b600060208284031215611a2657600080fd5b81356001600160a01b0381168114611a3d57600080fd5b9392505050565b60008060408385031215611a5757600080fd5b50508035926020909101359150565b6020808252825182820181905260009190848201906040850190845b81811015611a9e57835183529284019291840191600101611a82565b50909695505050505050565b6020808252825182820181905260009190848201906040850190845b81811015611a9e5783516001600160a01b031683529284019291840191600101611ac6565b600060208284031215611afd57600080fd5b5051919050565b634e487b7160e01b600052601260045260246000fd5b634e487b7160e01b600052601160045260246000fd5b600082611b3f57611b3f611b04565b500490565b6000816000190483118215151615611b5e57611b5e611b1a565b500290565b600082821015611b7557611b75611b1a565b500390565b600082611b8957611b89611b04565b500690565b634e487b7160e01b600052603260045260246000fd5b6000600019821415611bb857611bb8611b1a565b5060010190565b60008219821115611bd257611bd2611b1a565b500190565b600060a082016001600160a01b0388168352602060a08185015281885480845260c0860191508960005282600020935060005b81811015611c2657845483526001948501949284019201611c0a565b50506040850197909752505050606081019290925260809091015292915050565b600060208284031215611c5957600080fd5b81518015158114611a3d57600080fdfea2646970667358221220e11c0dd6b1f15156f9fadc6aca4ae9bfa05e1fb0afc4470d1410c0a313b89b1f64736f6c63430008090033a2646970667358221220282fc09b6be58a4655ae65a8de5d83d6a33342e4bb885da56c563ef7417e7c0864736f6c63430008090033",
  "immutableReferences": {},
  "source": "// SPDX-License-Identifier: MIT\npragma solidity ^0.8.0;\n\nimport \"@openzeppelin/contracts/access/Ownable.sol\";\n\n// import \"truffle/Console.sol\";\n// import \"hardhat/console.sol\";\n\nimport \"./LotteryCore.sol\";\n\n\n/**\n  * @title Lottery Generator Smart Contract.\n  * @author Batis \n  * @notice This SmartContract is responsible for Lottery Generation.\n  * @dev Lottery Generator SmartContract - Parent of Core Lottery\n*/\ncontract LotteryGenerator is Ownable {\n\n    // uint constant TICKET_PRICE = 10 * 1e15; // finney (0.01 Ether)\n\n    enum LType {\n        Hourly,\n        Daily,\n        Weekly,\n        Monthly\n    }\n\n    address[] public lotteries;\n    struct lottery{\n        uint index;\n        address creator;\n        uint totalBalance;\n        address winnerAddress; \n        LType lotteryType;\n    }\n    mapping(address => lottery) lotteryStructs;\n\n    address private LotteryOwner;\n    address private potDirector;  /* ToDo: All Main Action must be controlled only by Owner or Director */\n\n    address[] public LotteryWinnersArray;\n    struct LotteryWinnerStr{\n        uint playersId;\n        uint winnerCount;\n    }\n    mapping (address => LotteryWinnerStr) public LotteryWinnersMap;\n\n    address[] public WeeklyWinnersArray;\n    struct WeeklyWinnerStr{\n        uint playersId;\n        uint winnerCount;\n    }\n    mapping (address => WeeklyWinnerStr) public WeeklyWinnersMap;\n\n    address[] public MonthlyWinnersArray;\n    struct MonthlyWinnerStr{\n        uint playersId;\n        uint winnerCount;\n    }\n    mapping (address => MonthlyWinnerStr) public MonthlyWinnersMap;\n\n    // event\n    event LotteryCreated(address newLottery);\n\n    constructor() {   \n        LotteryOwner = msg.sender;\n    }\n\n\n  /* ToDo : Add & Complete Fallback routine */\n    fallback() external payable {\n    }\n    receive() external payable {\n    }\n\n    modifier isAllowedManager() {\n        require( msg.sender == potDirector || msg.sender == LotteryOwner , \"(Manager) Permission Denied !!\" );\n        _;\n    }\n\n    modifier isAllowedOwner(address _caller) {\n        require( _caller == potDirector || _caller == LotteryOwner , \"(Owner) Permission Denied !!\" );\n        _;\n    }\n\n    function balanceInPot() public view returns(uint){\n        return address(this).balance;\n    }\n\n    function withdraw() external onlyOwner {\n        payable(msg.sender).transfer(address(this).balance);\n    }\n\n    function getWinners() external view returns(address[] memory) {\n        return LotteryWinnersArray;\n    }\n\n    function getWeeklyWinners() external view returns(address[] memory) {\n        return WeeklyWinnersArray;\n    }\n\n    function getMonthlyWinners() external view returns(address[] memory) {\n        return MonthlyWinnersArray;\n    }\n\n    function getPotDirector() public view returns(address) {\n        return potDirector;\n    }\n\n    function setDirector(address _DirectorAddress) external onlyOwner {\n        require(_DirectorAddress != address(0) );\n        potDirector = _DirectorAddress;\n    }\n\n    function setlotteryStructs(address _lotteryAddress, address _commander, uint _totalBalance, address _winnerAddress, uint8 _lotteryType) external isAllowedOwner(_commander) returns (bool) {\n        lotteryStructs[_lotteryAddress].totalBalance = _totalBalance;\n        lotteryStructs[_lotteryAddress].winnerAddress = _winnerAddress;\n        lotteryStructs[_lotteryAddress].lotteryType = LType(_lotteryType);\n        return true;\n    }\n\n    function setlotteryWinnersArrayMap(address _commander, address _winnerAddress) external isAllowedOwner(_commander) returns (uint) {\n        LotteryWinnersArray.push(_winnerAddress);\n        LotteryWinnersMap[_winnerAddress].playersId = LotteryWinnersArray.length;  // -1\n        LotteryWinnersMap[_winnerAddress].winnerCount++;\n        return LotteryWinnersArray.length ;  // -1\n    }\n\n    function setWeeklyWinnersArrayMap(address _commander, address _winnerAddress) external isAllowedOwner(_commander) returns (uint) {\n        WeeklyWinnersArray.push(_winnerAddress);\n        WeeklyWinnersMap[_winnerAddress].playersId = WeeklyWinnersArray.length;  // -1\n        WeeklyWinnersMap[_winnerAddress].winnerCount++;\n        return WeeklyWinnersArray.length ;  // -1\n    }\n\n    function setMonthlyWinnersArrayMap(address _commander, address _winnerAddress) external isAllowedOwner(_commander) returns (uint) {\n        MonthlyWinnersArray.push(_winnerAddress);\n        MonthlyWinnersMap[_winnerAddress].playersId = MonthlyWinnersArray.length;  // -1\n        MonthlyWinnersMap[_winnerAddress].winnerCount++;\n        return MonthlyWinnersArray.length ;  // -1\n    }\n\n    function clearlotteryWinnersArrayMap(address _commander) external isAllowedOwner(_commander) returns (bool) {\n        address _lotteryWinAddress;\n        for (uint256 index = 0; index < LotteryWinnersArray.length - 1; index++) {\n            _lotteryWinAddress = LotteryWinnersArray[index];\n            // if (LotteryWinnersMap[_lotteryWinAddress].playersId > 0) {\n            //     LotteryWinnersMap[_lotteryWinAddress].playersId = 0;\n            //     LotteryWinnersMap[_lotteryWinAddress].winnerCount = 0;\n            // }\n            delete LotteryWinnersMap[_lotteryWinAddress];\n        }\n        delete LotteryWinnersArray;\n        return true;\n    }\n\n    function clearWeeklyWinnersArrayMap(address _commander) external isAllowedOwner(_commander) returns (bool) {\n        address _lotteryWinAddress;\n        for (uint256 index = 0; index < WeeklyWinnersArray.length - 1; index++) {\n            _lotteryWinAddress = WeeklyWinnersArray[index];\n            // if (WeeklyWinnersMap[_lotteryWinAddress].playersId > 0) {\n            //     WeeklyWinnersMap[_lotteryWinAddress].playersId = 0;\n            //     WeeklyWinnersMap[_lotteryWinAddress].winnerCount = 0;\n            // }\n            delete WeeklyWinnersMap[_lotteryWinAddress];\n        }\n        delete WeeklyWinnersArray;\n        return true;\n    }\n\n    function clearMonthlyWinnersArrayMap(address _commander) external isAllowedOwner(_commander) returns (bool) {\n        address _lotteryWinAddress;\n        for (uint256 index = 0; index < MonthlyWinnersArray.length - 1; index++) {\n            _lotteryWinAddress = MonthlyWinnersArray[index];\n            // if (MonthlyWinnersMap[_lotteryWinAddress].playersId > 0) {\n            //     MonthlyWinnersMap[_lotteryWinAddress].playersId = 0;\n            //     MonthlyWinnersMap[_lotteryWinAddress].winnerCount = 0;\n            // }\n            delete MonthlyWinnersMap[_lotteryWinAddress];\n        }\n        delete MonthlyWinnersArray;\n        return true;\n    }\n\n\n    function createLottery(address _VRF, address weeklyAddr, address monthlyAddr, address liquidityAddr) public onlyOwner {\n\n        address generatorAddress = address(this);\n\n        // require(bytes(name).length > 0);\n        address newLottery = address(new LotteryCore(_VRF, generatorAddress, weeklyAddr, monthlyAddr, liquidityAddr));\n        lotteries.push(newLottery);\n        lotteryStructs[newLottery].index = lotteries.length - 1;\n        lotteryStructs[newLottery].creator = msg.sender;\n        lotteryStructs[newLottery].totalBalance = 0;\n        lotteryStructs[newLottery].winnerAddress = address(0);\n\n        emit LotteryCreated( newLottery );\n    }\n\n    // function getLotteries() public view returns(address[]) {\n    //     return lotteries;\n    // }\n\n    function deleteLottery(address lotteryAddress) public  onlyOwner {\n        require(msg.sender == lotteryStructs[lotteryAddress].creator);\n        uint indexToDelete = lotteryStructs[lotteryAddress].index;\n        address lastAddress = lotteries[lotteries.length - 1];\n        lotteries[indexToDelete] = lastAddress;\n        // lotteries.length --;\n    }\n\n    // Events\n    // event LotteryCreated(\n    //     address lotteryAddress\n    // );\n}\n\n\n\n",
  "sourcePath": "/home/batis/SrcCode/myPRJ/SmartContBlockChain/BSCLottery/contracts/LotteryGenerator.sol",
  "compiler": {
    "name": "solc",
    "version": "0.8.9+commit.e5eed63a.Emscripten.clang"
  },
  "schemaVersion": "3.4.3",
  "updatedAt": "2022-05-22T08:46:09.307Z",
  "networkType": "ethereum",
  "devdoc": {
    "author": "Batis ",
    "details": "Lottery Generator SmartContract - Parent of Core Lottery",
    "kind": "dev",
    "methods": {
      "owner()": {
        "details": "Returns the address of the current owner."
      },
      "renounceOwnership()": {
        "details": "Leaves the contract without owner. It will not be possible to call `onlyOwner` functions anymore. Can only be called by the current owner. NOTE: Renouncing ownership will leave the contract without an owner, thereby removing any functionality that is only available to the owner."
      },
      "transferOwnership(address)": {
        "details": "Transfers ownership of the contract to a new account (`newOwner`). Can only be called by the current owner."
      }
    },
    "title": "Lottery Generator Smart Contract.",
    "version": 1
  },
  "userdoc": {
    "kind": "user",
    "methods": {},
    "notice": "This SmartContract is responsible for Lottery Generation.",
    "version": 1
  }
}