{
  "contractName": "LotteryGenerator",
  "abi": [
    {
      "inputs": [],
      "stateMutability": "nonpayable",
      "type": "constructor"
    },
    {
      "anonymous": false,
      "inputs": [
        {
          "indexed": false,
          "internalType": "address",
          "name": "newLottery",
          "type": "address"
        }
      ],
      "name": "LotteryCreated",
      "type": "event"
    },
    {
      "anonymous": false,
      "inputs": [
        {
          "indexed": true,
          "internalType": "address",
          "name": "previousOwner",
          "type": "address"
        },
        {
          "indexed": true,
          "internalType": "address",
          "name": "newOwner",
          "type": "address"
        }
      ],
      "name": "OwnershipTransferred",
      "type": "event"
    },
    {
      "stateMutability": "payable",
      "type": "fallback"
    },
    {
      "inputs": [
        {
          "internalType": "uint256",
          "name": "",
          "type": "uint256"
        }
      ],
      "name": "LotteryWinnersArray",
      "outputs": [
        {
          "internalType": "address",
          "name": "",
          "type": "address"
        }
      ],
      "stateMutability": "view",
      "type": "function"
    },
    {
      "inputs": [
        {
          "internalType": "uint256",
          "name": "",
          "type": "uint256"
        }
      ],
      "name": "LotteryWinnersArrayPrizes",
      "outputs": [
        {
          "internalType": "uint256",
          "name": "",
          "type": "uint256"
        }
      ],
      "stateMutability": "view",
      "type": "function"
    },
    {
      "inputs": [
        {
          "internalType": "address",
          "name": "",
          "type": "address"
        }
      ],
      "name": "LotteryWinnersMap",
      "outputs": [
        {
          "internalType": "uint256",
          "name": "playersId",
          "type": "uint256"
        },
        {
          "internalType": "uint256",
          "name": "winnerCount",
          "type": "uint256"
        }
      ],
      "stateMutability": "view",
      "type": "function"
    },
    {
      "inputs": [
        {
          "internalType": "uint256",
          "name": "",
          "type": "uint256"
        }
      ],
      "name": "MonthlyWinnersArray",
      "outputs": [
        {
          "internalType": "address",
          "name": "",
          "type": "address"
        }
      ],
      "stateMutability": "view",
      "type": "function"
    },
    {
      "inputs": [
        {
          "internalType": "uint256",
          "name": "",
          "type": "uint256"
        }
      ],
      "name": "MonthlyWinnersArrayPrizes",
      "outputs": [
        {
          "internalType": "uint256",
          "name": "",
          "type": "uint256"
        }
      ],
      "stateMutability": "view",
      "type": "function"
    },
    {
      "inputs": [
        {
          "internalType": "address",
          "name": "",
          "type": "address"
        }
      ],
      "name": "MonthlyWinnersMap",
      "outputs": [
        {
          "internalType": "uint256",
          "name": "playersId",
          "type": "uint256"
        },
        {
          "internalType": "uint256",
          "name": "winnerCount",
          "type": "uint256"
        }
      ],
      "stateMutability": "view",
      "type": "function"
    },
    {
      "inputs": [
        {
          "internalType": "uint256",
          "name": "",
          "type": "uint256"
        }
      ],
      "name": "WeeklyWinnersArray",
      "outputs": [
        {
          "internalType": "address",
          "name": "",
          "type": "address"
        }
      ],
      "stateMutability": "view",
      "type": "function"
    },
    {
      "inputs": [
        {
          "internalType": "uint256",
          "name": "",
          "type": "uint256"
        }
      ],
      "name": "WeeklyWinnersArrayPrizes",
      "outputs": [
        {
          "internalType": "uint256",
          "name": "",
          "type": "uint256"
        }
      ],
      "stateMutability": "view",
      "type": "function"
    },
    {
      "inputs": [
        {
          "internalType": "address",
          "name": "",
          "type": "address"
        }
      ],
      "name": "WeeklyWinnersMap",
      "outputs": [
        {
          "internalType": "uint256",
          "name": "playersId",
          "type": "uint256"
        },
        {
          "internalType": "uint256",
          "name": "winnerCount",
          "type": "uint256"
        }
      ],
      "stateMutability": "view",
      "type": "function"
    },
    {
      "inputs": [
        {
          "internalType": "uint256",
          "name": "",
          "type": "uint256"
        }
      ],
      "name": "lotteries",
      "outputs": [
        {
          "internalType": "address",
          "name": "",
          "type": "address"
        }
      ],
      "stateMutability": "view",
      "type": "function"
    },
    {
      "inputs": [],
      "name": "owner",
      "outputs": [
        {
          "internalType": "address",
          "name": "",
          "type": "address"
        }
      ],
      "stateMutability": "view",
      "type": "function"
    },
    {
      "inputs": [],
      "name": "renounceOwnership",
      "outputs": [],
      "stateMutability": "nonpayable",
      "type": "function"
    },
    {
      "inputs": [
        {
          "internalType": "address",
          "name": "newOwner",
          "type": "address"
        }
      ],
      "name": "transferOwnership",
      "outputs": [],
      "stateMutability": "nonpayable",
      "type": "function"
    },
    {
      "stateMutability": "payable",
      "type": "receive"
    },
    {
      "inputs": [],
      "name": "balanceInPot",
      "outputs": [
        {
          "internalType": "uint256",
          "name": "",
          "type": "uint256"
        }
      ],
      "stateMutability": "view",
      "type": "function"
    },
    {
      "inputs": [],
      "name": "withdraw",
      "outputs": [],
      "stateMutability": "nonpayable",
      "type": "function"
    },
    {
      "inputs": [],
      "name": "getWinners",
      "outputs": [
        {
          "internalType": "address[]",
          "name": "",
          "type": "address[]"
        }
      ],
      "stateMutability": "view",
      "type": "function"
    },
    {
      "inputs": [],
      "name": "getWeeklyWinners",
      "outputs": [
        {
          "internalType": "address[]",
          "name": "",
          "type": "address[]"
        }
      ],
      "stateMutability": "view",
      "type": "function"
    },
    {
      "inputs": [],
      "name": "getMonthlyWinners",
      "outputs": [
        {
          "internalType": "address[]",
          "name": "",
          "type": "address[]"
        }
      ],
      "stateMutability": "view",
      "type": "function"
    },
    {
      "inputs": [],
      "name": "getPotDirector",
      "outputs": [
        {
          "internalType": "address",
          "name": "",
          "type": "address"
        }
      ],
      "stateMutability": "view",
      "type": "function"
    },
    {
      "inputs": [
        {
          "internalType": "address",
          "name": "_DirectorAddress",
          "type": "address"
        }
      ],
      "name": "setDirector",
      "outputs": [],
      "stateMutability": "nonpayable",
      "type": "function"
    },
    {
      "inputs": [
        {
          "internalType": "address",
          "name": "_lotteryAddress",
          "type": "address"
        },
        {
          "internalType": "address",
          "name": "_commander",
          "type": "address"
        },
        {
          "internalType": "uint256",
          "name": "_totalBalance",
          "type": "uint256"
        },
        {
          "internalType": "address",
          "name": "_winnerAddress",
          "type": "address"
        },
        {
          "internalType": "uint8",
          "name": "_lotteryType",
          "type": "uint8"
        }
      ],
      "name": "setlotteryStructs",
      "outputs": [
        {
          "internalType": "bool",
          "name": "",
          "type": "bool"
        }
      ],
      "stateMutability": "nonpayable",
      "type": "function"
    },
    {
      "inputs": [
        {
          "internalType": "address",
          "name": "_commander",
          "type": "address"
        },
        {
          "internalType": "address",
          "name": "_winnerAddress",
          "type": "address"
        },
        {
          "internalType": "uint256",
          "name": "_winnerPrize",
          "type": "uint256"
        }
      ],
      "name": "setlotteryWinnersArrayMap",
      "outputs": [
        {
          "internalType": "uint256",
          "name": "",
          "type": "uint256"
        }
      ],
      "stateMutability": "nonpayable",
      "type": "function"
    },
    {
      "inputs": [
        {
          "internalType": "address",
          "name": "_commander",
          "type": "address"
        },
        {
          "internalType": "address",
          "name": "_winnerAddress",
          "type": "address"
        },
        {
          "internalType": "uint256",
          "name": "_winnerPrize",
          "type": "uint256"
        }
      ],
      "name": "setWeeklyWinnersArrayMap",
      "outputs": [
        {
          "internalType": "uint256",
          "name": "",
          "type": "uint256"
        }
      ],
      "stateMutability": "nonpayable",
      "type": "function"
    },
    {
      "inputs": [
        {
          "internalType": "address",
          "name": "_commander",
          "type": "address"
        },
        {
          "internalType": "address",
          "name": "_winnerAddress",
          "type": "address"
        },
        {
          "internalType": "uint256",
          "name": "_winnerPrize",
          "type": "uint256"
        }
      ],
      "name": "setMonthlyWinnersArrayMap",
      "outputs": [
        {
          "internalType": "uint256",
          "name": "",
          "type": "uint256"
        }
      ],
      "stateMutability": "nonpayable",
      "type": "function"
    },
    {
      "inputs": [
        {
          "internalType": "address",
          "name": "_commander",
          "type": "address"
        }
      ],
      "name": "clearlotteryWinnersArrayMap",
      "outputs": [
        {
          "internalType": "bool",
          "name": "",
          "type": "bool"
        }
      ],
      "stateMutability": "nonpayable",
      "type": "function"
    },
    {
      "inputs": [
        {
          "internalType": "address",
          "name": "_commander",
          "type": "address"
        }
      ],
      "name": "clearWeeklyWinnersArrayMap",
      "outputs": [
        {
          "internalType": "bool",
          "name": "",
          "type": "bool"
        }
      ],
      "stateMutability": "nonpayable",
      "type": "function"
    },
    {
      "inputs": [
        {
          "internalType": "address",
          "name": "_commander",
          "type": "address"
        }
      ],
      "name": "clearMonthlyWinnersArrayMap",
      "outputs": [
        {
          "internalType": "bool",
          "name": "",
          "type": "bool"
        }
      ],
      "stateMutability": "nonpayable",
      "type": "function"
    },
    {
      "inputs": [],
      "name": "getAllContractAddresses",
      "outputs": [
        {
          "internalType": "address",
          "name": "hAddress",
          "type": "address"
        },
        {
          "internalType": "address",
          "name": "wAddress",
          "type": "address"
        },
        {
          "internalType": "address",
          "name": "mAddress",
          "type": "address"
        }
      ],
      "stateMutability": "view",
      "type": "function"
    },
    {
      "inputs": [
        {
          "internalType": "address",
          "name": "_HourlyPotAddress",
          "type": "address"
        }
      ],
      "name": "set_HourlyPotAddress",
      "outputs": [],
      "stateMutability": "nonpayable",
      "type": "function"
    },
    {
      "inputs": [
        {
          "internalType": "address",
          "name": "_WeeklyPotAddress",
          "type": "address"
        }
      ],
      "name": "set_WeeklyPotAddress",
      "outputs": [],
      "stateMutability": "nonpayable",
      "type": "function"
    },
    {
      "inputs": [
        {
          "internalType": "address",
          "name": "_MonthlyPotAddress",
          "type": "address"
        }
      ],
      "name": "set_MonthlyPotAddress",
      "outputs": [],
      "stateMutability": "nonpayable",
      "type": "function"
    }
  ],
  "bytecode": "0x608060405234801561001057600080fd5b5061001a33610031565b600680546001600160a01b03191633179055610081565b600080546001600160a01b038381166001600160a01b0319831681178455604051919092169283917f8be0079c531659141344cd1fd0a4f28419497f9722a3daafe3b4186f6b6457e09190a35050565b6117fa806100906000396000f3fe6080604052600436106101c45760003560e01c806354a1ec73116100f6578063a55b4f981161008f578063df15c37e11610061578063df15c37e146105a5578063f0446ecb146105ba578063f2fde38b146105da578063f6711239146105fa57005b8063a55b4f9814610513578063b14a60b114610533578063befb0b8914610567578063c5ae6f3e1461058757005b806379bc3ad8116100c857806379bc3ad8146104955780638da5cb5b146104b5578063a0f56934146104d3578063a35e151c146104f357005b806354a1ec731461040c578063614f6f871461042c578063653ea4391461044c578063715018a61461048057005b806332f655fd116101685780633ccfd60b1161013a5780633ccfd60b146103a25780633fa420c4146103b75780634488d679146103d75780634c56018f146103ec57005b806332f655fd146102f25780633305bd3014610322578063330efa72146103425780633b33b61a1461036257005b80631c1f5389116101a15780631c1f53891461024957806326ba431914610292578063277550e9146102b257806328a1d4aa146102d257005b80631398e076146101cd57806314e599871461020a578063195b6e9d1461022757005b366101cb57005b005b3480156101d957600080fd5b506101ed6101e836600461160a565b61061a565b6040516001600160a01b0390911681526020015b60405180910390f35b34801561021657600080fd5b50475b604051908152602001610201565b34801561023357600080fd5b5061023c610644565b6040516102019190611623565b34801561025557600080fd5b5061027d61026436600461168c565b600a602052600090815260409020805460019091015482565b60408051928352602083019190915201610201565b34801561029e57600080fd5b506101cb6102ad36600461168c565b6106a6565b3480156102be57600080fd5b506101ed6102cd36600461160a565b61073a565b3480156102de57600080fd5b506102196102ed36600461160a565b61074a565b3480156102fe57600080fd5b5061031261030d36600461168c565b61076b565b6040519015158152602001610201565b34801561032e57600080fd5b5061031261033d3660046116ae565b6108b3565b34801561034e57600080fd5b5061021961035d36600461160a565b610a46565b34801561036e57600080fd5b50600154600254600354604080516001600160a01b0394851681529284166020840152921691810191909152606001610201565b3480156103ae57600080fd5b506101cb610a56565b3480156103c357600080fd5b506101cb6103d236600461168c565b610adf565b3480156103e357600080fd5b5061023c610b6e565b3480156103f857600080fd5b50610219610407366004611716565b610bce565b34801561041857600080fd5b5061031261042736600461168c565b610d3d565b34801561043857600080fd5b506101cb61044736600461168c565b610e7a565b34801561045857600080fd5b5061027d61046736600461168c565b600d602052600090815260409020805460019091015482565b34801561048c57600080fd5b506101cb610f09565b3480156104a157600080fd5b506101cb6104b036600461168c565b610f6f565b3480156104c157600080fd5b506000546001600160a01b03166101ed565b3480156104df57600080fd5b506102196104ee366004611716565b610ffe565b3480156104ff57600080fd5b506101ed61050e36600461160a565b61116d565b34801561051f57600080fd5b5061031261052e36600461168c565b61117d565b34801561053f57600080fd5b5061027d61054e36600461168c565b6010602052600090815260409020805460019091015482565b34801561057357600080fd5b50610219610582366004611716565b6112ba565b34801561059357600080fd5b506007546001600160a01b03166101ed565b3480156105b157600080fd5b5061023c611429565b3480156105c657600080fd5b506102196105d536600461160a565b611489565b3480156105e657600080fd5b506101cb6105f536600461168c565b611499565b34801561060657600080fd5b506101ed61061536600461160a565b611578565b6004818154811061062a57600080fd5b6000918252602090912001546001600160a01b0316905081565b6060600e80548060200260200160405190810160405280929190818152602001828054801561069c57602002820191906000526020600020905b81546001600160a01b0316815260019091019060200180831161067e575b5050505050905090565b6000546001600160a01b031633146107055760405162461bcd60e51b815260206004820181905260248201527f4f776e61626c653a2063616c6c6572206973206e6f7420746865206f776e657260448201526064015b60405180910390fd5b6001600160a01b03811661071857600080fd5b600780546001600160a01b0319166001600160a01b0392909216919091179055565b600e818154811061062a57600080fd5b600c818154811061075a57600080fd5b600091825260209091200154905081565b60075460009082906001600160a01b038083169116148061079957506006546001600160a01b038281169116145b6107e55760405162461bcd60e51b815260206004820152601c60248201527f284f776e657229205065726d697373696f6e2044656e6965642021210000000060448201526064016106fc565b60015433906001600160a01b031681148061080d57506002546001600160a01b038281169116145b8061082557506003546001600160a01b038281169116145b61082e57600080fd5b6000805b600b5461084190600190611768565b811161089b57600b818154811061085a5761085a61177f565b60009182526020808320909101546001600160a01b0316808352600d909152604082208281556001019190915591508061089381611795565b915050610832565b506108a8600b60006115d8565b506001949350505050565b60075460009085906001600160a01b03808316911614806108e157506006546001600160a01b038281169116145b61092d5760405162461bcd60e51b815260206004820152601c60248201527f284f776e657229205065726d697373696f6e2044656e6965642021210000000060448201526064016106fc565b60015433906001600160a01b031681148061095557506002546001600160a01b038281169116145b8061096d57506003546001600160a01b038281169116145b61097657600080fd5b6001600160a01b03888116600090815260056020526040902060028101889055600390810180546001600160a01b0319169288169290921790915560ff8516908111156109c5576109c56117ae565b6001600160a01b03891660009081526005602052604090206003908101805490917fffffffffffffffffffffff00ffffffffffffffffffffffffffffffffffffffff9091169074010000000000000000000000000000000000000000908490811115610a3357610a336117ae565b0217905550600198975050505050505050565b6009818154811061075a57600080fd5b6000546001600160a01b03163314610ab05760405162461bcd60e51b815260206004820181905260248201527f4f776e61626c653a2063616c6c6572206973206e6f7420746865206f776e657260448201526064016106fc565b60405133904780156108fc02916000818181858888f19350505050158015610adc573d6000803e3d6000fd5b50565b6000546001600160a01b03163314610b395760405162461bcd60e51b815260206004820181905260248201527f4f776e61626c653a2063616c6c6572206973206e6f7420746865206f776e657260448201526064016106fc565b6001600160a01b038116610b4c57600080fd5b600280546001600160a01b0319166001600160a01b0392909216919091179055565b6060600b80548060200260200160405190810160405280929190818152602001828054801561069c576020028201919060005260206000209081546001600160a01b0316815260019091019060200180831161067e575050505050905090565b60075460009084906001600160a01b0380831691161480610bfc57506006546001600160a01b038281169116145b610c485760405162461bcd60e51b815260206004820152601c60248201527f284f776e657229205065726d697373696f6e2044656e6965642021210000000060448201526064016106fc565b60015433906001600160a01b0316811480610c7057506002546001600160a01b038281169116145b80610c8857506003546001600160a01b038281169116145b610c9157600080fd5b600e8054600180820183557fbb7b4a454dc3493923482f07822329ed19e8244eff582cc204f8554c3620c3fd90910180546001600160a01b0319166001600160a01b038916908117909155600f80548084019091557f8d1108e10bcb7c27dddfc02ed9d693a074039d026cf4ea4240b40f7d581ac802018790559154600092835260106020526040832090815501805491610d2b83611795565b9091555050600e549695505050505050565b60075460009082906001600160a01b0380831691161480610d6b57506006546001600160a01b038281169116145b610db75760405162461bcd60e51b815260206004820152601c60248201527f284f776e657229205065726d697373696f6e2044656e6965642021210000000060448201526064016106fc565b60015433906001600160a01b0316811480610ddf57506002546001600160a01b038281169116145b80610df757506003546001600160a01b038281169116145b610e0057600080fd5b6000805b600854610e1390600190611768565b8111610e6d5760088181548110610e2c57610e2c61177f565b60009182526020808320909101546001600160a01b0316808352600a9091526040822082815560010191909155915080610e6581611795565b915050610e04565b506108a8600860006115d8565b6000546001600160a01b03163314610ed45760405162461bcd60e51b815260206004820181905260248201527f4f776e61626c653a2063616c6c6572206973206e6f7420746865206f776e657260448201526064016106fc565b6001600160a01b038116610ee757600080fd5b600380546001600160a01b0319166001600160a01b0392909216919091179055565b6000546001600160a01b03163314610f635760405162461bcd60e51b815260206004820181905260248201527f4f776e61626c653a2063616c6c6572206973206e6f7420746865206f776e657260448201526064016106fc565b610f6d6000611588565b565b6000546001600160a01b03163314610fc95760405162461bcd60e51b815260206004820181905260248201527f4f776e61626c653a2063616c6c6572206973206e6f7420746865206f776e657260448201526064016106fc565b6001600160a01b038116610fdc57600080fd5b600180546001600160a01b0319166001600160a01b0392909216919091179055565b60075460009084906001600160a01b038083169116148061102c57506006546001600160a01b038281169116145b6110785760405162461bcd60e51b815260206004820152601c60248201527f284f776e657229205065726d697373696f6e2044656e6965642021210000000060448201526064016106fc565b60015433906001600160a01b03168114806110a057506002546001600160a01b038281169116145b806110b857506003546001600160a01b038281169116145b6110c157600080fd5b60088054600180820183557ff3f7a9fe364faab93b216da50a3214154f22a0a2b415b23a84c8169e8b636ee390910180546001600160a01b0319166001600160a01b038916908117909155600980548084019091557f6e1540171b6c0c960b71a7020d9f60077f6af931a8bbf590da0223dacf75c7af0187905591546000928352600a602052604083209081550180549161115b83611795565b90915550506008549695505050505050565b600b818154811061062a57600080fd5b60075460009082906001600160a01b03808316911614806111ab57506006546001600160a01b038281169116145b6111f75760405162461bcd60e51b815260206004820152601c60248201527f284f776e657229205065726d697373696f6e2044656e6965642021210000000060448201526064016106fc565b60015433906001600160a01b031681148061121f57506002546001600160a01b038281169116145b8061123757506003546001600160a01b038281169116145b61124057600080fd5b6000805b600e5461125390600190611768565b81116112ad57600e818154811061126c5761126c61177f565b60009182526020808320909101546001600160a01b0316808352601090915260408220828155600101919091559150806112a581611795565b915050611244565b506108a8600e60006115d8565b60075460009084906001600160a01b03808316911614806112e857506006546001600160a01b038281169116145b6113345760405162461bcd60e51b815260206004820152601c60248201527f284f776e657229205065726d697373696f6e2044656e6965642021210000000060448201526064016106fc565b60015433906001600160a01b031681148061135c57506002546001600160a01b038281169116145b8061137457506003546001600160a01b038281169116145b61137d57600080fd5b600b8054600180820183557f0175b7a638427703f0dbe7bb9bbf987a2551717b34e79f33b5b1008d1fa01db990910180546001600160a01b0319166001600160a01b038916908117909155600c80548084019091557fdf6966c971051c3d54ec59162606531493a51404a002842f56009d7e5cf4a8c70187905591546000928352600d602052604083209081550180549161141783611795565b9091555050600b549695505050505050565b6060600880548060200260200160405190810160405280929190818152602001828054801561069c576020028201919060005260206000209081546001600160a01b0316815260019091019060200180831161067e575050505050905090565b600f818154811061075a57600080fd5b6000546001600160a01b031633146114f35760405162461bcd60e51b815260206004820181905260248201527f4f776e61626c653a2063616c6c6572206973206e6f7420746865206f776e657260448201526064016106fc565b6001600160a01b03811661156f5760405162461bcd60e51b815260206004820152602660248201527f4f776e61626c653a206e6577206f776e657220697320746865207a65726f206160448201527f646472657373000000000000000000000000000000000000000000000000000060648201526084016106fc565b610adc81611588565b6008818154811061062a57600080fd5b600080546001600160a01b038381166001600160a01b0319831681178455604051919092169283917f8be0079c531659141344cd1fd0a4f28419497f9722a3daafe3b4186f6b6457e09190a35050565b5080546000825590600052602060002090810190610adc91905b8082111561160657600081556001016115f2565b5090565b60006020828403121561161c57600080fd5b5035919050565b6020808252825182820181905260009190848201906040850190845b818110156116645783516001600160a01b03168352928401929184019160010161163f565b50909695505050505050565b80356001600160a01b038116811461168757600080fd5b919050565b60006020828403121561169e57600080fd5b6116a782611670565b9392505050565b600080600080600060a086880312156116c657600080fd5b6116cf86611670565b94506116dd60208701611670565b9350604086013592506116f260608701611670565b9150608086013560ff8116811461170857600080fd5b809150509295509295909350565b60008060006060848603121561172b57600080fd5b61173484611670565b925061174260208501611670565b9150604084013590509250925092565b634e487b7160e01b600052601160045260246000fd5b60008282101561177a5761177a611752565b500390565b634e487b7160e01b600052603260045260246000fd5b6000600182016117a7576117a7611752565b5060010190565b634e487b7160e01b600052602160045260246000fdfea26469706673582212204bbf500acc9480cdb0d6632327c10b03bd4898b96357e6c9d978966397a97f1f64736f6c634300080d0033",
  "immutableReferences": {},
  "source": "// SPDX-License-Identifier: GNU-GPLv3\npragma solidity ^0.8.0;\n\nimport \"@openzeppelin/contracts/access/Ownable.sol\";\n\n// import \"truffle/Console.sol\";\n// import \"hardhat/console.sol\";\n\nimport \"./LotteryCore.sol\";\n\n\n/**\n  * @title Lottery Generator Smart Contract.\n  * @author Batis Abhari (https://github.com/baties - ContactMe: abhari_Batis@hotmail.com)\n  * @notice This SmartContract will be responsible for Lottery Generation in next Versions.\n  * @dev Lottery Generator SmartContract - Parent of All Lottery MOdules\n*/\ncontract LotteryGenerator is Ownable {\n\n    // uint constant TICKET_PRICE = 10 * 1e15; // finney (0.01 Ether)\n\n    enum LType {\n        Hourly,\n        Daily,\n        Weekly,\n        Monthly\n    }\n\n    address private HourlyPotAddress;\n    address private WeeklyPotAddress;\n    address private MonthlyPotAddress;   \n\n    address[] public lotteries;\n    struct lottery{\n        uint index;\n        address creator;\n        uint totalBalance;\n        address winnerAddress; \n        LType lotteryType;\n    }\n    mapping(address => lottery) lotteryStructs;\n\n    address private LotteryOwner;\n    address private potDirector;  \n\n    address[] public LotteryWinnersArray;\n    uint[] public LotteryWinnersArrayPrizes;\n    struct LotteryWinnerStr{\n        uint playersId;\n        uint winnerCount;\n    }\n    mapping (address => LotteryWinnerStr) public LotteryWinnersMap;\n\n    address[] public WeeklyWinnersArray;\n    uint[] public WeeklyWinnersArrayPrizes;\n    struct WeeklyWinnerStr{\n        uint playersId;\n        uint winnerCount;\n    }\n    mapping (address => WeeklyWinnerStr) public WeeklyWinnersMap;\n\n    address[] public MonthlyWinnersArray;\n    uint[] public MonthlyWinnersArrayPrizes;\n    struct MonthlyWinnerStr{\n        uint playersId;\n        uint winnerCount;\n    }\n    mapping (address => MonthlyWinnerStr) public MonthlyWinnersMap;\n\n    // event\n    event LotteryCreated(address newLottery);\n\n    constructor() {   \n        LotteryOwner = msg.sender;\n    }\n\n\n  /* ToDo : Add & Complete Fallback routine */\n    fallback() external payable {\n    }\n    receive() external payable {\n    }\n\n    modifier isAllowedManager() {\n        require( msg.sender == potDirector || msg.sender == LotteryOwner , \"(Manager) Permission Denied !!\" );\n        _;\n    }\n\n    modifier isAllowedOwner(address _caller) {\n        require( _caller == potDirector || _caller == LotteryOwner , \"(Owner) Permission Denied !!\" );\n        _;\n    }\n\n    modifier isAllowedCaller(address _caller){\n        require( (_caller == HourlyPotAddress) || (_caller == WeeklyPotAddress) || (_caller == MonthlyPotAddress) );\n        _;\n    }\n\n    function balanceInPot() public view returns(uint){\n        return address(this).balance;\n    }\n\n    function withdraw() external onlyOwner {\n        payable(msg.sender).transfer(address(this).balance);\n    }\n\n    /**\n        * @notice Get The Total List of Hourly Lottery Winners Wallet Addresses\n        * @return Hourly Lottery Winners Array List\n    */\n    function getWinners() external view returns(address[] memory) {\n        return LotteryWinnersArray;\n    }\n\n    /**\n        * @notice Get the List of Weekly Winners Wallet Addresses\n        * @return Weekly Lottery Winners Array List\n    */\n    function getWeeklyWinners() external view returns(address[] memory) {\n        return WeeklyWinnersArray;\n    }\n\n    /**\n        * @notice Get the List of Monthly Winners Wallet Addresses\n        * @return Monthly Lottery Winners Array List\n    */\n    function getMonthlyWinners() external view returns(address[] memory) {\n        return MonthlyWinnersArray;\n    }\n\n    /**\n        * @notice Get The Address of Current Pot Director (Pot Manager)\n        * @return The Current Pot Director \n    */\n    function getPotDirector() public view returns(address) {\n        return potDirector;\n    }\n\n    /**\n        * @notice Set or Change The Address of Current Pot Director (Pot Manager)\n        * @dev This function is Set a Pot Manager and Only should be called by the Owner\n    */\n    function setDirector(address _DirectorAddress) external onlyOwner {\n        require(_DirectorAddress != address(0) );\n        potDirector = _DirectorAddress;\n    }\n\n  /**\n    * @notice Save All (Hourly, Daily, Weekly & Monthly) Lotteries' Important Data in One Place.\n    * @dev A struct with Hourly, Daily, Weekly & Monthly Lotteries Data.\n    * @param _lotteryAddress : Address of Lottery .\n    * @param _commander : The Address of Owner or Lottery Manager Which are the Only Allowed addresses for Running This Function.  \n    * @param _totalBalance : Total Balance in this Lottery .\n    * @param _winnerAddress : The Lottery Winner Wallet Address. \n    * @param _lotteryType : Type of Lottery (Hourly - Daily - Weekly - Monthly)\n    * @return True\n  */\n    function setlotteryStructs(address _lotteryAddress, address _commander, uint _totalBalance, address _winnerAddress, uint8 _lotteryType) external isAllowedOwner(_commander) isAllowedCaller(msg.sender) returns (bool) {\n        lotteryStructs[_lotteryAddress].totalBalance = _totalBalance;\n        lotteryStructs[_lotteryAddress].winnerAddress = _winnerAddress;\n        lotteryStructs[_lotteryAddress].lotteryType = LType(_lotteryType);\n        return true;\n    }\n\n  /**\n    * @notice Save All Hourly Lotteries' Important Data \n    * @dev Save Hourly Data into Hourly Lottery Array & Hourly Lottery Map.\n    * @param _commander : The Address of Owner or Lottery Manager Which are the Only Allowed addresses for Running This Function.\n    * @param _winnerAddress : The Hourly Lottery Winner Wallet Address. \n    * @param _winnerPrize : The Amount of Hourly Lottery Winner's Prize .\n    * @return LotteryWinnerArray Lengh\n  */\n    function setlotteryWinnersArrayMap(address _commander, address _winnerAddress, uint _winnerPrize) external isAllowedOwner(_commander) isAllowedCaller(msg.sender) returns (uint) {\n        LotteryWinnersArray.push(_winnerAddress);\n        LotteryWinnersArrayPrizes.push(_winnerPrize);\n        LotteryWinnersMap[_winnerAddress].playersId = LotteryWinnersArray.length;  // -1\n        LotteryWinnersMap[_winnerAddress].winnerCount++;\n        return LotteryWinnersArray.length ;  // -1\n    }\n\n  /**\n    * @notice Save All Weekly Lotteries' Important Data \n    * @dev Save Weekly Data into Weekly Lottery Array & Weekly Lottery Map.\n    * @param _commander : The Address of Owner or Lottery Manager Which are the Only Allowed addresses for Running This Function.  \n    * @param _winnerAddress : The Weekly Lottery Winner Wallet Address. \n    * @param _winnerPrize : The Amount of Weekly Lottery Winner's Prize .\n    * @return WeeklyWinnerArray Lengh\n  */\n    function setWeeklyWinnersArrayMap(address _commander, address _winnerAddress, uint _winnerPrize) external isAllowedOwner(_commander) isAllowedCaller(msg.sender) returns (uint) {\n        WeeklyWinnersArray.push(_winnerAddress);\n        WeeklyWinnersArrayPrizes.push(_winnerPrize);\n        WeeklyWinnersMap[_winnerAddress].playersId = WeeklyWinnersArray.length;  // -1\n        WeeklyWinnersMap[_winnerAddress].winnerCount++;\n        return WeeklyWinnersArray.length ;  // -1\n    }\n\n  /**\n    * @notice Save All Monthly Lotteries' Important Data \n    * @dev Save Monthly Data into Monthly Lottery Array & Monthly Lottery Map.\n    * @param _commander : The Address of Owner or Lottery Manager Which are the Only Allowed addresses for Running This Function.  \n    * @param _winnerAddress : The Monthly Lottery Winner Wallet Address. \n    * @param _winnerPrize : The Amount of Monthly Lottery Winner's Prize .\n    * @return MonthlyWinnerArray Lengh\n  */\n    function setMonthlyWinnersArrayMap(address _commander, address _winnerAddress, uint _winnerPrize) external isAllowedOwner(_commander) isAllowedCaller(msg.sender) returns (uint) {\n        MonthlyWinnersArray.push(_winnerAddress);\n        MonthlyWinnersArrayPrizes.push(_winnerPrize);\n        MonthlyWinnersMap[_winnerAddress].playersId = MonthlyWinnersArray.length;  // -1\n        MonthlyWinnersMap[_winnerAddress].winnerCount++;\n        return MonthlyWinnersArray.length ;  // -1\n    }\n\n  /**\n    * @notice Clear Lottery Winner Array & Map Data \n    * @dev Clear Lottery Winner Array & Map Data and Releasing the Memory.\n    * @param _commander : The Address of Owner or Lottery Manager Which are the Only Allowed addresses for Running This Function.  \n    * @return True\n  */\n    function clearlotteryWinnersArrayMap(address _commander) external isAllowedOwner(_commander) isAllowedCaller(msg.sender) returns (bool) {\n        address _lotteryWinAddress;\n        for (uint256 index = 0; index <= LotteryWinnersArray.length - 1; index++) {\n            _lotteryWinAddress = LotteryWinnersArray[index];\n            // if (LotteryWinnersMap[_lotteryWinAddress].playersId > 0) {\n            //     LotteryWinnersMap[_lotteryWinAddress].playersId = 0;\n            //     LotteryWinnersMap[_lotteryWinAddress].winnerCount = 0;\n            // }\n            delete LotteryWinnersMap[_lotteryWinAddress];\n        }\n        delete LotteryWinnersArray;\n        return true;\n    }\n\n  /**\n    * @notice Clear Weekly Lottery Winner Array & Map Data \n    * @dev Clear Weekly Lottery Winner Array & Map Data and Releasing the Memory.\n    * @param _commander : The Address of Owner or Lottery Manager Which are the Only Allowed addresses for Running This Function.  \n    * @return True\n  */\n    function clearWeeklyWinnersArrayMap(address _commander) external isAllowedOwner(_commander) isAllowedCaller(msg.sender) returns (bool) {\n        address _lotteryWinAddress;\n        for (uint256 index = 0; index <= WeeklyWinnersArray.length - 1; index++) {\n            _lotteryWinAddress = WeeklyWinnersArray[index];\n            // if (WeeklyWinnersMap[_lotteryWinAddress].playersId > 0) {\n            //     WeeklyWinnersMap[_lotteryWinAddress].playersId = 0;\n            //     WeeklyWinnersMap[_lotteryWinAddress].winnerCount = 0;\n            // }\n            delete WeeklyWinnersMap[_lotteryWinAddress];\n        }\n        delete WeeklyWinnersArray;\n        return true;\n    }\n\n  /**\n    * @notice Clear Monthly Lottery Winner Array & Map Data \n    * @dev Clear MOnthly Lottery Winner Array & Map Data and Releasing the Memory.\n    * @param _commander : The Address of Owner or Lottery Manager Which are the Only Allowed addresses for Running This Function.  \n    * @return True\n  */\n    function clearMonthlyWinnersArrayMap(address _commander) external isAllowedOwner(_commander) isAllowedCaller(msg.sender) returns (bool) {\n        address _lotteryWinAddress;\n        for (uint256 index = 0; index <= MonthlyWinnersArray.length - 1; index++) {\n            _lotteryWinAddress = MonthlyWinnersArray[index];\n            // if (MonthlyWinnersMap[_lotteryWinAddress].playersId > 0) {\n            //     MonthlyWinnersMap[_lotteryWinAddress].playersId = 0;\n            //     MonthlyWinnersMap[_lotteryWinAddress].winnerCount = 0;\n            // }\n            delete MonthlyWinnersMap[_lotteryWinAddress];\n        }\n        delete MonthlyWinnersArray;\n        return true;\n    }\n\n    function getAllContractAddresses() public view returns(address hAddress, address wAddress, address mAddress) {\n        hAddress = HourlyPotAddress ;\n        wAddress = WeeklyPotAddress ;\n        mAddress = MonthlyPotAddress ;\n        return (hAddress, wAddress, mAddress); \n    }\n\n    function set_HourlyPotAddress(address _HourlyPotAddress) external onlyOwner {\n        require(_HourlyPotAddress != address(0) );\n        HourlyPotAddress = _HourlyPotAddress;\n    }\n\n    function set_WeeklyPotAddress(address _WeeklyPotAddress) external onlyOwner {\n        require(_WeeklyPotAddress != address(0) );\n        WeeklyPotAddress = _WeeklyPotAddress;\n    }\n\n    function set_MonthlyPotAddress(address _MonthlyPotAddress) external onlyOwner {\n        require(_MonthlyPotAddress != address(0) );\n        MonthlyPotAddress = _MonthlyPotAddress;\n    }\n\n    /*\n    function createLottery(address _VRF, address weeklyAddr, address monthlyAddr, address liquidityAddr) public onlyOwner {\n\n        address generatorAddress = address(this);\n\n        // require(bytes(name).length > 0);\n        address newLottery = address(new LotteryCore(_VRF, generatorAddress, weeklyAddr, monthlyAddr, liquidityAddr));\n        lotteries.push(newLottery);\n        lotteryStructs[newLottery].index = lotteries.length - 1;\n        lotteryStructs[newLottery].creator = msg.sender;\n        lotteryStructs[newLottery].totalBalance = 0;\n        lotteryStructs[newLottery].winnerAddress = address(0);\n\n        emit LotteryCreated( newLottery );\n    }\n\n    function deleteLottery(address lotteryAddress) public  onlyOwner {\n        require(msg.sender == lotteryStructs[lotteryAddress].creator);\n        uint indexToDelete = lotteryStructs[lotteryAddress].index;\n        address lastAddress = lotteries[lotteries.length - 1];\n        lotteries[indexToDelete] = lastAddress;\n        // lotteries.length --;\n    }\n    */\n\n    // function getLotteries() public view returns(address[]) {\n    //     return lotteries;\n    // }\n\n    // event LotteryCreated(\n    //     address lotteryAddress\n    // );\n}\n\n\n\n",
  "sourcePath": "/home/batis/SrcCode/myPRJ/SmartContBlockChain/BSCLottery/contracts/LotteryGenerator.sol",
  "compiler": {
    "name": "solc",
    "version": "0.8.13+commit.abaa5c0e.Emscripten.clang"
  },
  "schemaVersion": "3.4.3",
  "updatedAt": "2022-06-21T14:11:05.160Z",
  "devdoc": {
    "author": "Batis Abhari (https://github.com/baties - ContactMe: abhari_Batis@hotmail.com)",
    "details": "Lottery Generator SmartContract - Parent of All Lottery MOdules",
    "kind": "dev",
    "methods": {
      "clearMonthlyWinnersArrayMap(address)": {
        "details": "Clear MOnthly Lottery Winner Array & Map Data and Releasing the Memory.",
        "params": {
          "_commander": ": The Address of Owner or Lottery Manager Which are the Only Allowed addresses for Running This Function.  "
        },
        "returns": {
          "_0": "True"
        }
      },
      "clearWeeklyWinnersArrayMap(address)": {
        "details": "Clear Weekly Lottery Winner Array & Map Data and Releasing the Memory.",
        "params": {
          "_commander": ": The Address of Owner or Lottery Manager Which are the Only Allowed addresses for Running This Function.  "
        },
        "returns": {
          "_0": "True"
        }
      },
      "clearlotteryWinnersArrayMap(address)": {
        "details": "Clear Lottery Winner Array & Map Data and Releasing the Memory.",
        "params": {
          "_commander": ": The Address of Owner or Lottery Manager Which are the Only Allowed addresses for Running This Function.  "
        },
        "returns": {
          "_0": "True"
        }
      },
      "getMonthlyWinners()": {
        "returns": {
          "_0": "Monthly Lottery Winners Array List"
        }
      },
      "getPotDirector()": {
        "returns": {
          "_0": "The Current Pot Director "
        }
      },
      "getWeeklyWinners()": {
        "returns": {
          "_0": "Weekly Lottery Winners Array List"
        }
      },
      "getWinners()": {
        "returns": {
          "_0": "Hourly Lottery Winners Array List"
        }
      },
      "owner()": {
        "details": "Returns the address of the current owner."
      },
      "renounceOwnership()": {
        "details": "Leaves the contract without owner. It will not be possible to call `onlyOwner` functions anymore. Can only be called by the current owner. NOTE: Renouncing ownership will leave the contract without an owner, thereby removing any functionality that is only available to the owner."
      },
      "setDirector(address)": {
        "details": "This function is Set a Pot Manager and Only should be called by the Owner"
      },
      "setMonthlyWinnersArrayMap(address,address,uint256)": {
        "details": "Save Monthly Data into Monthly Lottery Array & Monthly Lottery Map.",
        "params": {
          "_commander": ": The Address of Owner or Lottery Manager Which are the Only Allowed addresses for Running This Function.  ",
          "_winnerAddress": ": The Monthly Lottery Winner Wallet Address. ",
          "_winnerPrize": ": The Amount of Monthly Lottery Winner's Prize ."
        },
        "returns": {
          "_0": "MonthlyWinnerArray Lengh"
        }
      },
      "setWeeklyWinnersArrayMap(address,address,uint256)": {
        "details": "Save Weekly Data into Weekly Lottery Array & Weekly Lottery Map.",
        "params": {
          "_commander": ": The Address of Owner or Lottery Manager Which are the Only Allowed addresses for Running This Function.  ",
          "_winnerAddress": ": The Weekly Lottery Winner Wallet Address. ",
          "_winnerPrize": ": The Amount of Weekly Lottery Winner's Prize ."
        },
        "returns": {
          "_0": "WeeklyWinnerArray Lengh"
        }
      },
      "setlotteryStructs(address,address,uint256,address,uint8)": {
        "details": "A struct with Hourly, Daily, Weekly & Monthly Lotteries Data.",
        "params": {
          "_commander": ": The Address of Owner or Lottery Manager Which are the Only Allowed addresses for Running This Function.  ",
          "_lotteryAddress": ": Address of Lottery .",
          "_lotteryType": ": Type of Lottery (Hourly - Daily - Weekly - Monthly)",
          "_totalBalance": ": Total Balance in this Lottery .",
          "_winnerAddress": ": The Lottery Winner Wallet Address. "
        },
        "returns": {
          "_0": "True"
        }
      },
      "setlotteryWinnersArrayMap(address,address,uint256)": {
        "details": "Save Hourly Data into Hourly Lottery Array & Hourly Lottery Map.",
        "params": {
          "_commander": ": The Address of Owner or Lottery Manager Which are the Only Allowed addresses for Running This Function.",
          "_winnerAddress": ": The Hourly Lottery Winner Wallet Address. ",
          "_winnerPrize": ": The Amount of Hourly Lottery Winner's Prize ."
        },
        "returns": {
          "_0": "LotteryWinnerArray Lengh"
        }
      },
      "transferOwnership(address)": {
        "details": "Transfers ownership of the contract to a new account (`newOwner`). Can only be called by the current owner."
      }
    },
    "title": "Lottery Generator Smart Contract.",
    "version": 1
  },
  "userdoc": {
    "kind": "user",
    "methods": {
      "clearMonthlyWinnersArrayMap(address)": {
        "notice": "Clear Monthly Lottery Winner Array & Map Data "
      },
      "clearWeeklyWinnersArrayMap(address)": {
        "notice": "Clear Weekly Lottery Winner Array & Map Data "
      },
      "clearlotteryWinnersArrayMap(address)": {
        "notice": "Clear Lottery Winner Array & Map Data "
      },
      "getMonthlyWinners()": {
        "notice": "Get the List of Monthly Winners Wallet Addresses"
      },
      "getPotDirector()": {
        "notice": "Get The Address of Current Pot Director (Pot Manager)"
      },
      "getWeeklyWinners()": {
        "notice": "Get the List of Weekly Winners Wallet Addresses"
      },
      "getWinners()": {
        "notice": "Get The Total List of Hourly Lottery Winners Wallet Addresses"
      },
      "setDirector(address)": {
        "notice": "Set or Change The Address of Current Pot Director (Pot Manager)"
      },
      "setMonthlyWinnersArrayMap(address,address,uint256)": {
        "notice": "Save All Monthly Lotteries' Important Data "
      },
      "setWeeklyWinnersArrayMap(address,address,uint256)": {
        "notice": "Save All Weekly Lotteries' Important Data "
      },
      "setlotteryStructs(address,address,uint256,address,uint8)": {
        "notice": "Save All (Hourly, Daily, Weekly & Monthly) Lotteries' Important Data in One Place."
      },
      "setlotteryWinnersArrayMap(address,address,uint256)": {
        "notice": "Save All Hourly Lotteries' Important Data "
      }
    },
    "notice": "This SmartContract will be responsible for Lottery Generation in next Versions.",
    "version": 1
  }
}