{
  "contractName": "LotteryCore",
  "abi": [
    {
      "inputs": [
        {
          "internalType": "address",
          "name": "VRF",
          "type": "address"
        },
        {
          "internalType": "address",
          "name": "generatorLotteryAddress",
          "type": "address"
        },
        {
          "internalType": "address",
          "name": "WeeklyLotteryAddress",
          "type": "address"
        },
        {
          "internalType": "address",
          "name": "MonthlyLotteryAddress",
          "type": "address"
        },
        {
          "internalType": "address",
          "name": "LiquidityPoolAddr",
          "type": "address"
        }
      ],
      "stateMutability": "nonpayable",
      "type": "constructor"
    },
    {
      "anonymous": false,
      "inputs": [
        {
          "indexed": true,
          "internalType": "address",
          "name": "previousOwner",
          "type": "address"
        },
        {
          "indexed": true,
          "internalType": "address",
          "name": "newOwner",
          "type": "address"
        }
      ],
      "name": "OwnershipTransferred",
      "type": "event"
    },
    {
      "anonymous": false,
      "inputs": [
        {
          "indexed": false,
          "internalType": "address",
          "name": "potPlayer",
          "type": "address"
        },
        {
          "indexed": false,
          "internalType": "uint256",
          "name": "playerId",
          "type": "uint256"
        },
        {
          "indexed": false,
          "internalType": "uint256",
          "name": "PlayerValue",
          "type": "uint256"
        },
        {
          "indexed": false,
          "internalType": "uint256",
          "name": "ticketNumber",
          "type": "uint256"
        }
      ],
      "name": "PlayerRegister",
      "type": "event"
    },
    {
      "anonymous": false,
      "inputs": [
        {
          "indexed": false,
          "internalType": "address",
          "name": "potPlayer",
          "type": "address"
        },
        {
          "indexed": false,
          "internalType": "uint256[]",
          "name": "playerId",
          "type": "uint256[]"
        },
        {
          "indexed": false,
          "internalType": "uint256",
          "name": "playCount",
          "type": "uint256"
        },
        {
          "indexed": false,
          "internalType": "uint256",
          "name": "playerValue",
          "type": "uint256"
        },
        {
          "indexed": false,
          "internalType": "uint256",
          "name": "ticketNumber",
          "type": "uint256"
        }
      ],
      "name": "PlayerTotalValue",
      "type": "event"
    },
    {
      "anonymous": false,
      "inputs": [
        {
          "indexed": false,
          "internalType": "address",
          "name": "potWinner",
          "type": "address"
        },
        {
          "indexed": false,
          "internalType": "uint256",
          "name": "winnerPrize",
          "type": "uint256"
        }
      ],
      "name": "SelectWinnerAddress",
      "type": "event"
    },
    {
      "anonymous": false,
      "inputs": [
        {
          "indexed": false,
          "internalType": "uint256",
          "name": "winnerIndex",
          "type": "uint256"
        },
        {
          "indexed": false,
          "internalType": "uint256",
          "name": "potBalance",
          "type": "uint256"
        },
        {
          "indexed": false,
          "internalType": "uint256",
          "name": "winnerPrize",
          "type": "uint256"
        }
      ],
      "name": "SelectWinnerIndex",
      "type": "event"
    },
    {
      "anonymous": false,
      "inputs": [
        {
          "indexed": false,
          "internalType": "address",
          "name": "receiver",
          "type": "address"
        },
        {
          "indexed": false,
          "internalType": "uint256",
          "name": "TrxValue",
          "type": "uint256"
        }
      ],
      "name": "TotalPayment",
      "type": "event"
    },
    {
      "stateMutability": "payable",
      "type": "fallback",
      "payable": true
    },
    {
      "inputs": [],
      "name": "owner",
      "outputs": [
        {
          "internalType": "address",
          "name": "",
          "type": "address"
        }
      ],
      "stateMutability": "view",
      "type": "function",
      "constant": true
    },
    {
      "inputs": [],
      "name": "potStartTime",
      "outputs": [
        {
          "internalType": "uint256",
          "name": "",
          "type": "uint256"
        }
      ],
      "stateMutability": "view",
      "type": "function",
      "constant": true
    },
    {
      "inputs": [],
      "name": "realPLayerCount",
      "outputs": [
        {
          "internalType": "uint256",
          "name": "",
          "type": "uint256"
        }
      ],
      "stateMutability": "view",
      "type": "function",
      "constant": true
    },
    {
      "inputs": [],
      "name": "renounceOwnership",
      "outputs": [],
      "stateMutability": "nonpayable",
      "type": "function"
    },
    {
      "inputs": [
        {
          "internalType": "address",
          "name": "newOwner",
          "type": "address"
        }
      ],
      "name": "transferOwnership",
      "outputs": [],
      "stateMutability": "nonpayable",
      "type": "function"
    },
    {
      "stateMutability": "payable",
      "type": "receive",
      "payable": true
    },
    {
      "inputs": [],
      "name": "balanceInPot",
      "outputs": [
        {
          "internalType": "uint256",
          "name": "",
          "type": "uint256"
        }
      ],
      "stateMutability": "view",
      "type": "function",
      "constant": true
    },
    {
      "inputs": [],
      "name": "withdraw",
      "outputs": [],
      "stateMutability": "nonpayable",
      "type": "function"
    },
    {
      "inputs": [
        {
          "internalType": "uint256",
          "name": "numerator",
          "type": "uint256"
        },
        {
          "internalType": "uint256",
          "name": "denominator",
          "type": "uint256"
        }
      ],
      "name": "getDivided",
      "outputs": [
        {
          "internalType": "uint256",
          "name": "quotient",
          "type": "uint256"
        },
        {
          "internalType": "uint256",
          "name": "remainder",
          "type": "uint256"
        }
      ],
      "stateMutability": "pure",
      "type": "function",
      "constant": true
    },
    {
      "inputs": [],
      "name": "potInitialize",
      "outputs": [],
      "stateMutability": "nonpayable",
      "type": "function"
    },
    {
      "inputs": [],
      "name": "play",
      "outputs": [],
      "stateMutability": "payable",
      "type": "function",
      "payable": true
    },
    {
      "inputs": [
        {
          "internalType": "address",
          "name": "_VRFv2",
          "type": "address"
        }
      ],
      "name": "getRandomValue",
      "outputs": [
        {
          "internalType": "uint256",
          "name": "randomWords",
          "type": "uint256"
        }
      ],
      "stateMutability": "view",
      "type": "function",
      "constant": true
    },
    {
      "inputs": [],
      "name": "select_Winner",
      "outputs": [],
      "stateMutability": "nonpayable",
      "type": "function"
    },
    {
      "inputs": [
        {
          "internalType": "address",
          "name": "_WeeklyPotAddress",
          "type": "address"
        }
      ],
      "name": "set_WeeklyPotAddress",
      "outputs": [],
      "stateMutability": "nonpayable",
      "type": "function"
    },
    {
      "inputs": [
        {
          "internalType": "address",
          "name": "_MonthlyPotAddress",
          "type": "address"
        }
      ],
      "name": "set_MonthlyPotAddress",
      "outputs": [],
      "stateMutability": "nonpayable",
      "type": "function"
    },
    {
      "inputs": [
        {
          "internalType": "address",
          "name": "_contractAddr",
          "type": "address"
        }
      ],
      "name": "set_generatorLotteryAddress",
      "outputs": [],
      "stateMutability": "nonpayable",
      "type": "function"
    },
    {
      "inputs": [
        {
          "internalType": "address",
          "name": "_LiquidityPoolAddress",
          "type": "address"
        }
      ],
      "name": "set_LiquidityPoolAddress",
      "outputs": [],
      "stateMutability": "nonpayable",
      "type": "function"
    },
    {
      "inputs": [
        {
          "internalType": "address",
          "name": "_DirectorAddress",
          "type": "address"
        }
      ],
      "name": "setDirector",
      "outputs": [],
      "stateMutability": "nonpayable",
      "type": "function"
    },
    {
      "inputs": [],
      "name": "listPlayers",
      "outputs": [
        {
          "internalType": "address[]",
          "name": "",
          "type": "address[]"
        }
      ],
      "stateMutability": "view",
      "type": "function",
      "constant": true
    },
    {
      "inputs": [],
      "name": "getLotteryTickets",
      "outputs": [
        {
          "internalType": "uint256[]",
          "name": "",
          "type": "uint256[]"
        }
      ],
      "stateMutability": "view",
      "type": "function",
      "constant": true
    },
    {
      "inputs": [],
      "name": "isPotActive",
      "outputs": [
        {
          "internalType": "bool",
          "name": "",
          "type": "bool"
        }
      ],
      "stateMutability": "view",
      "type": "function",
      "constant": true
    },
    {
      "inputs": [],
      "name": "getTicketPrice",
      "outputs": [
        {
          "internalType": "uint256",
          "name": "",
          "type": "uint256"
        }
      ],
      "stateMutability": "pure",
      "type": "function",
      "constant": true
    },
    {
      "inputs": [],
      "name": "getTicketAmount",
      "outputs": [
        {
          "internalType": "uint256",
          "name": "",
          "type": "uint256"
        }
      ],
      "stateMutability": "view",
      "type": "function",
      "constant": true
    },
    {
      "inputs": [],
      "name": "getPlayersNumber",
      "outputs": [
        {
          "internalType": "uint256",
          "name": "",
          "type": "uint256"
        }
      ],
      "stateMutability": "view",
      "type": "function",
      "constant": true
    },
    {
      "inputs": [],
      "name": "getWinners",
      "outputs": [
        {
          "internalType": "address",
          "name": "",
          "type": "address"
        }
      ],
      "stateMutability": "view",
      "type": "function",
      "constant": true
    },
    {
      "inputs": [],
      "name": "isReadySelectWinner",
      "outputs": [
        {
          "internalType": "bool",
          "name": "",
          "type": "bool"
        }
      ],
      "stateMutability": "view",
      "type": "function",
      "constant": true
    },
    {
      "inputs": [],
      "name": "getStartedTime",
      "outputs": [
        {
          "internalType": "uint256",
          "name": "",
          "type": "uint256"
        }
      ],
      "stateMutability": "view",
      "type": "function",
      "constant": true
    },
    {
      "inputs": [],
      "name": "getPotDirector",
      "outputs": [
        {
          "internalType": "address",
          "name": "",
          "type": "address"
        }
      ],
      "stateMutability": "view",
      "type": "function",
      "constant": true
    },
    {
      "inputs": [],
      "name": "getAllContractAddresses",
      "outputs": [
        {
          "internalType": "address",
          "name": "gAddress",
          "type": "address"
        },
        {
          "internalType": "address",
          "name": "lAddress",
          "type": "address"
        },
        {
          "internalType": "address",
          "name": "wAddress",
          "type": "address"
        },
        {
          "internalType": "address",
          "name": "mAddress",
          "type": "address"
        }
      ],
      "stateMutability": "view",
      "type": "function",
      "constant": true
    },
    {
      "inputs": [
        {
          "internalType": "address",
          "name": "PlayerAddress",
          "type": "address"
        }
      ],
      "name": "getPlayerAmounts",
      "outputs": [
        {
          "internalType": "uint256",
          "name": "",
          "type": "uint256"
        },
        {
          "internalType": "uint256",
          "name": "",
          "type": "uint256"
        }
      ],
      "stateMutability": "view",
      "type": "function",
      "constant": true
    },
    {
      "inputs": [
        {
          "internalType": "address",
          "name": "PlayerAddress",
          "type": "address"
        }
      ],
      "name": "getPlayerValue",
      "outputs": [
        {
          "internalType": "uint256",
          "name": "",
          "type": "uint256"
        }
      ],
      "stateMutability": "view",
      "type": "function",
      "constant": true
    }
  ],
  "bytecode": "0x6080604052600060075560006008553480156200001b57600080fd5b50604051620038f5380380620038f5833981810160405281019062000041919062000365565b62000061620000556200022f60201b60201c565b6200023760201b60201c565b33600660006101000a81548173ffffffffffffffffffffffffffffffffffffffff021916908373ffffffffffffffffffffffffffffffffffffffff16021790555084600160006101000a81548173ffffffffffffffffffffffffffffffffffffffff021916908373ffffffffffffffffffffffffffffffffffffffff1602179055506001600660146101000a81548160ff0219169083151502179055506000600660156101000a81548160ff0219169083151502179055504260078190555083600260006101000a81548173ffffffffffffffffffffffffffffffffffffffff021916908373ffffffffffffffffffffffffffffffffffffffff16021790555080600360006101000a81548173ffffffffffffffffffffffffffffffffffffffff021916908373ffffffffffffffffffffffffffffffffffffffff16021790555082600460006101000a81548173ffffffffffffffffffffffffffffffffffffffff021916908373ffffffffffffffffffffffffffffffffffffffff16021790555081600560006101000a81548173ffffffffffffffffffffffffffffffffffffffff021916908373ffffffffffffffffffffffffffffffffffffffff1602179055505050505050620003ed565b600033905090565b60008060009054906101000a900473ffffffffffffffffffffffffffffffffffffffff169050816000806101000a81548173ffffffffffffffffffffffffffffffffffffffff021916908373ffffffffffffffffffffffffffffffffffffffff1602179055508173ffffffffffffffffffffffffffffffffffffffff168173ffffffffffffffffffffffffffffffffffffffff167f8be0079c531659141344cd1fd0a4f28419497f9722a3daafe3b4186f6b6457e060405160405180910390a35050565b600080fd5b600073ffffffffffffffffffffffffffffffffffffffff82169050919050565b60006200032d8262000300565b9050919050565b6200033f8162000320565b81146200034b57600080fd5b50565b6000815190506200035f8162000334565b92915050565b600080600080600060a08688031215620003845762000383620002fb565b5b600062000394888289016200034e565b9550506020620003a7888289016200034e565b9450506040620003ba888289016200034e565b9350506060620003cd888289016200034e565b9250506080620003e0888289016200034e565b9150509295509295909350565b6134f880620003fd6000396000f3fe6080604052600436106101d15760003560e01c80636cf69958116100f75780639e94d5ab11610095578063d7573c1111610064578063d7573c111461060a578063df15c37e14610635578063e8b05e3814610660578063f2fde38b1461068b576101d8565b80639e94d5ab1461054c578063a8078b7a14610589578063c5ae6f3e146105b4578063c7c15ac9146105df576101d8565b80638613e4cf116100d15780638613e4cf146104c357806387bb7ae0146104ec5780638da5cb5b1461051757806393e84cd914610542576101d8565b80636cf6995814610456578063715018a614610481578063766eef1114610498576101d8565b80633ccfd60b1161016f5780635efaf0441161013e5780635efaf044146103c2578063614f6f87146103eb57806364605d51146104145780636c2534371461043f576101d8565b80633ccfd60b1461032c5780633fa420c414610343578063442db8fb1461036c5780634442713c14610397576101d8565b806326ba4319116101ab57806326ba4319146102805780632ac75ab5146102a95780633298944a146102c05780633b33b61a146102fe576101d8565b806314e59987146101da57806314e5e90e14610205578063194d02d714610242576101d8565b366101d857005b005b3480156101e657600080fd5b506101ef6106b4565b6040516101fc9190612678565b60405180910390f35b34801561021157600080fd5b5061022c600480360381019061022791906126f6565b6106bc565b6040516102399190612678565b60405180910390f35b34801561024e57600080fd5b506102696004803603810190610264919061274f565b6107bf565b60405161027792919061278f565b60405180910390f35b34801561028c57600080fd5b506102a760048036038101906102a291906126f6565b610877565b005b3480156102b557600080fd5b506102be610971565b005b3480156102cc57600080fd5b506102e760048036038101906102e291906126f6565b610bcd565b6040516102f592919061278f565b60405180910390f35b34801561030a57600080fd5b50610313610c6b565b60405161032394939291906127c7565b60405180910390f35b34801561033857600080fd5b50610341610d0b565b005b34801561034f57600080fd5b5061036a600480360381019061036591906126f6565b610dd0565b005b34801561037857600080fd5b50610381610eca565b60405161038e91906128ca565b60405180910390f35b3480156103a357600080fd5b506103ac610f22565b6040516103b99190612907565b60405180910390f35b3480156103ce57600080fd5b506103e960048036038101906103e491906126f6565b610f39565b005b3480156103f757600080fd5b50610412600480360381019061040d91906126f6565b611033565b005b34801561042057600080fd5b5061042961112d565b60405161043691906129e0565b60405180910390f35b34801561044b57600080fd5b506104546111bb565b005b34801561046257600080fd5b5061046b611338565b6040516104789190612678565b60405180910390f35b34801561048d57600080fd5b50610496611345565b005b3480156104a457600080fd5b506104ad6113cd565b6040516104ba9190612678565b60405180910390f35b3480156104cf57600080fd5b506104ea60048036038101906104e591906126f6565b6113da565b005b3480156104f857600080fd5b5061050161149a565b60405161050e9190612678565b60405180910390f35b34801561052357600080fd5b5061052c6114a9565b6040516105399190612a02565b60405180910390f35b61054a6114d2565b005b34801561055857600080fd5b50610573600480360381019061056e91906126f6565b611bf6565b6040516105809190612678565b60405180910390f35b34801561059557600080fd5b5061059e611c47565b6040516105ab9190612678565b60405180910390f35b3480156105c057600080fd5b506105c9611c5c565b6040516105d69190612a02565b60405180910390f35b3480156105eb57600080fd5b506105f4611c86565b6040516106019190612678565b60405180910390f35b34801561061657600080fd5b5061061f611c8c565b60405161062c9190612678565b60405180910390f35b34801561064157600080fd5b5061064a611c92565b6040516106579190612a02565b60405180910390f35b34801561066c57600080fd5b50610675611cbc565b6040516106829190612907565b60405180910390f35b34801561069757600080fd5b506106b260048036038101906106ad91906126f6565b611cd3565b005b600047905090565b60006106c6611dcb565b73ffffffffffffffffffffffffffffffffffffffff166106e46114a9565b73ffffffffffffffffffffffffffffffffffffffff161461073a576040517f08c379a000000000000000000000000000000000000000000000000000000000815260040161073190612a7a565b60405180910390fd5b8173ffffffffffffffffffffffffffffffffffffffff166371f747906040518163ffffffff1660e01b815260040160206040518083038186803b15801561078057600080fd5b505afa158015610794573d6000803e3d6000fd5b505050506040513d601f19601f820116820180604052508101906107b89190612aaf565b9050919050565b6000806000831015610806576040517f08c379a00000000000000000000000000000000000000000000000000000000081526004016107fd90612b4e565b60405180910390fd5b60008411610849576040517f08c379a000000000000000000000000000000000000000000000000000000000815260040161084090612b4e565b60405180910390fd5b82846108559190612bcc565b915081836108639190612bfd565b8461086e9190612c57565b90509250929050565b61087f611dcb565b73ffffffffffffffffffffffffffffffffffffffff1661089d6114a9565b73ffffffffffffffffffffffffffffffffffffffff16146108f3576040517f08c379a00000000000000000000000000000000000000000000000000000000081526004016108ea90612a7a565b60405180910390fd5b600073ffffffffffffffffffffffffffffffffffffffff168173ffffffffffffffffffffffffffffffffffffffff16141561092d57600080fd5b80600e60006101000a81548173ffffffffffffffffffffffffffffffffffffffff021916908373ffffffffffffffffffffffffffffffffffffffff16021790555050565b600e60009054906101000a900473ffffffffffffffffffffffffffffffffffffffff1673ffffffffffffffffffffffffffffffffffffffff163373ffffffffffffffffffffffffffffffffffffffff161480610a1a5750600660009054906101000a900473ffffffffffffffffffffffffffffffffffffffff1673ffffffffffffffffffffffffffffffffffffffff163373ffffffffffffffffffffffffffffffffffffffff16145b610a59576040517f08c379a0000000000000000000000000000000000000000000000000000000008152600401610a5090612cd7565b60405180910390fd5b60011515600660159054906101000a900460ff16151514610aaf576040517f08c379a0000000000000000000000000000000000000000000000000000000008152600401610aa690612d69565b60405180910390fd5b6000610adc600160009054906101000a900473ffffffffffffffffffffffffffffffffffffffff166106bc565b90506000600b8054905082610af19190612d89565b9050600b8181548110610b0757610b06612dba565b5b90600052602060002001549050600080600080610b2385611dd3565b93509350935093507f274f2e5ea35472f60f411beb007713c0f1c1b574f260789eedee1789cd49d9f5854786604051610b5e93929190612de9565b60405180910390a1610b708547611eea565b50610b7b8585612123565b610b868383836121eb565b610b8e6123e2565b506000600660146101000a81548160ff0219169083151502179055506000600660156101000a81548160ff021916908315150217905550505050505050565b6000806000600960008573ffffffffffffffffffffffffffffffffffffffff1673ffffffffffffffffffffffffffffffffffffffff1681526020019081526020016000206000015490506000600960008673ffffffffffffffffffffffffffffffffffffffff1673ffffffffffffffffffffffffffffffffffffffff1681526020019081526020016000206001015490508181935093505050915091565b600080600080600260009054906101000a900473ffffffffffffffffffffffffffffffffffffffff169350600360009054906101000a900473ffffffffffffffffffffffffffffffffffffffff169250600460009054906101000a900473ffffffffffffffffffffffffffffffffffffffff169150600560009054906101000a900473ffffffffffffffffffffffffffffffffffffffff16905090919293565b610d13611dcb565b73ffffffffffffffffffffffffffffffffffffffff16610d316114a9565b73ffffffffffffffffffffffffffffffffffffffff1614610d87576040517f08c379a0000000000000000000000000000000000000000000000000000000008152600401610d7e90612a7a565b60405180910390fd5b3373ffffffffffffffffffffffffffffffffffffffff166108fc479081150290604051600060405180830381858888f19350505050158015610dcd573d6000803e3d6000fd5b50565b610dd8611dcb565b73ffffffffffffffffffffffffffffffffffffffff16610df66114a9565b73ffffffffffffffffffffffffffffffffffffffff1614610e4c576040517f08c379a0000000000000000000000000000000000000000000000000000000008152600401610e4390612a7a565b60405180910390fd5b600073ffffffffffffffffffffffffffffffffffffffff168173ffffffffffffffffffffffffffffffffffffffff161415610e8657600080fd5b80600460006101000a81548173ffffffffffffffffffffffffffffffffffffffff021916908373ffffffffffffffffffffffffffffffffffffffff16021790555050565b6060600b805480602002602001604051908101604052809291908181526020018280548015610f1857602002820191906000526020600020905b815481526020019060010190808311610f04575b5050505050905090565b6000600660149054906101000a900460ff16905090565b610f41611dcb565b73ffffffffffffffffffffffffffffffffffffffff16610f5f6114a9565b73ffffffffffffffffffffffffffffffffffffffff1614610fb5576040517f08c379a0000000000000000000000000000000000000000000000000000000008152600401610fac90612a7a565b60405180910390fd5b600073ffffffffffffffffffffffffffffffffffffffff168173ffffffffffffffffffffffffffffffffffffffff161415610fef57600080fd5b80600360006101000a81548173ffffffffffffffffffffffffffffffffffffffff021916908373ffffffffffffffffffffffffffffffffffffffff16021790555050565b61103b611dcb565b73ffffffffffffffffffffffffffffffffffffffff166110596114a9565b73ffffffffffffffffffffffffffffffffffffffff16146110af576040517f08c379a00000000000000000000000000000000000000000000000000000000081526004016110a690612a7a565b60405180910390fd5b600073ffffffffffffffffffffffffffffffffffffffff168173ffffffffffffffffffffffffffffffffffffffff1614156110e957600080fd5b80600560006101000a81548173ffffffffffffffffffffffffffffffffffffffff021916908373ffffffffffffffffffffffffffffffffffffffff16021790555050565b6060600a8054806020026020016040519081016040528092919081815260200182805480156111b157602002820191906000526020600020905b8160009054906101000a900473ffffffffffffffffffffffffffffffffffffffff1673ffffffffffffffffffffffffffffffffffffffff1681526020019060010190808311611167575b5050505050905090565b600e60009054906101000a900473ffffffffffffffffffffffffffffffffffffffff1673ffffffffffffffffffffffffffffffffffffffff163373ffffffffffffffffffffffffffffffffffffffff1614806112645750600660009054906101000a900473ffffffffffffffffffffffffffffffffffffffff1673ffffffffffffffffffffffffffffffffffffffff163373ffffffffffffffffffffffffffffffffffffffff16145b6112a3576040517f08c379a000000000000000000000000000000000000000000000000000000000815260040161129a90612cd7565b60405180910390fd5b60001515600660149054906101000a900460ff161515146112f9576040517f08c379a00000000000000000000000000000000000000000000000000000000081526004016112f090612e6c565b60405180910390fd5b6001600660146101000a81548160ff0219169083151502179055506000600660156101000a81548160ff02191690831515021790555042600781905550565b6000600b80549050905090565b61134d611dcb565b73ffffffffffffffffffffffffffffffffffffffff1661136b6114a9565b73ffffffffffffffffffffffffffffffffffffffff16146113c1576040517f08c379a00000000000000000000000000000000000000000000000000000000081526004016113b890612a7a565b60405180910390fd5b6113cb60006124fc565b565b6000600a80549050905090565b6113e2611dcb565b73ffffffffffffffffffffffffffffffffffffffff166114006114a9565b73ffffffffffffffffffffffffffffffffffffffff1614611456576040517f08c379a000000000000000000000000000000000000000000000000000000000815260040161144d90612a7a565b60405180910390fd5b80600260006101000a81548173ffffffffffffffffffffffffffffffffffffffff021916908373ffffffffffffffffffffffffffffffffffffffff16021790555050565b6000662386f26fc10000905090565b60008060009054906101000a900473ffffffffffffffffffffffffffffffffffffffff16905090565b600660149054906101000a900460ff16611521576040517f08c379a000000000000000000000000000000000000000000000000000000000815260040161151890612efe565b60405180910390fd5b662386f26fc100003410158015611540575068056bc75e2d6310000034105b61157f576040517f08c379a000000000000000000000000000000000000000000000000000000000815260040161157690612f90565b60405180910390fd5b6000600960003373ffffffffffffffffffffffffffffffffffffffff1673ffffffffffffffffffffffffffffffffffffffff168152602001908152602001600020600101549050678ac7230489e80000811115611611576040517f08c379a000000000000000000000000000000000000000000000000000000000815260040161160890612ffc565b60405180910390fd5b60008061162534662386f26fc100006107bf565b915091506000811461166c576040517f08c379a00000000000000000000000000000000000000000000000000000000081526004016116639061308e565b60405180910390fd5b600a339080600181540180825580915050600190039060005260206000200160009091909190916101000a81548173ffffffffffffffffffffffffffffffffffffffff021916908373ffffffffffffffffffffffffffffffffffffffff16021790555060006001600a805490506116e39190612c57565b90506000600b80549050905060005b8481101561173657600b839080600181540180825580915050600190039060005260206000200160009091909190915055808061172e906130ae565b9150506116f2565b506000600b805490509050600c60405180606001604052808581526020018481526020018381525090806001815401808255809150506001900390600052602060002090600302016000909190919091509060036117959291906125c0565b506000600c8054905090506001600960003373ffffffffffffffffffffffffffffffffffffffff1673ffffffffffffffffffffffffffffffffffffffff16815260200190815260200160002060000160008282546117f391906130f7565b9250508190555034600960003373ffffffffffffffffffffffffffffffffffffffff1673ffffffffffffffffffffffffffffffffffffffff168152602001908152602001600020600101600082825461184c91906130f7565b9250508190555085600960003373ffffffffffffffffffffffffffffffffffffffff1673ffffffffffffffffffffffffffffffffffffffff16815260200190815260200160002060020160008282546118a591906130f7565b92505081905550600960003373ffffffffffffffffffffffffffffffffffffffff1673ffffffffffffffffffffffffffffffffffffffff168152602001908152602001600020600401849080600181540180825580915050600190039060005260206000200160009091909190915055600960003373ffffffffffffffffffffffffffffffffffffffff1673ffffffffffffffffffffffffffffffffffffffff1681526020019081526020016000206003018190806001815401808255809150506001900390600052602060002001600090919091909150556001600960003373ffffffffffffffffffffffffffffffffffffffff1673ffffffffffffffffffffffffffffffffffffffff1681526020019081526020016000206000015414156119e257600860008154809291906119dc906130ae565b91905055505b67016345785d8a000047101580156119fd5750600560085410155b15611a1e576001600660156101000a81548160ff0219169083151502179055505b7f8de5754e4ed9d4994bdb4b2b8c12dfcd51b0e994c1d34a7f20fe7f3d3fbb7bc233853489604051611a53949392919061314d565b60405180910390a16001600960003373ffffffffffffffffffffffffffffffffffffffff1673ffffffffffffffffffffffffffffffffffffffff168152602001908152602001600020600001541115611bed577ff0b342fc13c65867c873cfbf6e19b5285bae679018bdf3376a4baca5ff066e0d33600960003373ffffffffffffffffffffffffffffffffffffffff1673ffffffffffffffffffffffffffffffffffffffff168152602001908152602001600020600401600960003373ffffffffffffffffffffffffffffffffffffffff1673ffffffffffffffffffffffffffffffffffffffff16815260200190815260200160002060000154600960003373ffffffffffffffffffffffffffffffffffffffff1673ffffffffffffffffffffffffffffffffffffffff16815260200190815260200160002060010154600960003373ffffffffffffffffffffffffffffffffffffffff1673ffffffffffffffffffffffffffffffffffffffff16815260200190815260200160002060020154604051611be4959493929190613268565b60405180910390a15b50505050505050565b600080600960008473ffffffffffffffffffffffffffffffffffffffff1673ffffffffffffffffffffffffffffffffffffffff16815260200190815260200160002060010154905080915050919050565b600060075442611c579190612c57565b905090565b6000600e60009054906101000a900473ffffffffffffffffffffffffffffffffffffffff16905090565b60085481565b60075481565b6000600d60009054906101000a900473ffffffffffffffffffffffffffffffffffffffff16905090565b6000600660159054906101000a900460ff16905090565b611cdb611dcb565b73ffffffffffffffffffffffffffffffffffffffff16611cf96114a9565b73ffffffffffffffffffffffffffffffffffffffff1614611d4f576040517f08c379a0000000000000000000000000000000000000000000000000000000008152600401611d4690612a7a565b60405180910390fd5b600073ffffffffffffffffffffffffffffffffffffffff168173ffffffffffffffffffffffffffffffffffffffff161415611dbf576040517f08c379a0000000000000000000000000000000000000000000000000000000008152600401611db690613334565b60405180910390fd5b611dc8816124fc565b50565b600033905090565b60008060008060004790506000600a8781548110611df457611df3612dba565b5b9060005260206000200160009054906101000a900473ffffffffffffffffffffffffffffffffffffffff1690506000600960008373ffffffffffffffffffffffffffffffffffffffff1673ffffffffffffffffffffffffffffffffffffffff1681526020019081526020016000206001015490508083611e749190612c57565b9650611e818760026107bf565b50809750508087611e9291906130f7565b965060008784611ea29190612c57565b9050611eaf8160146107bf565b508091505080965080955087816002611ec89190612bfd565b85611ed39190612c57565b611edd9190612c57565b9450505050509193509193565b6000806000600a8581548110611f0357611f02612dba565b5b9060005260206000200160009054906101000a900473ffffffffffffffffffffffffffffffffffffffff16600d60006101000a81548173ffffffffffffffffffffffffffffffffffffffff021916908373ffffffffffffffffffffffffffffffffffffffff160217905550600260009054906101000a900473ffffffffffffffffffffffffffffffffffffffff1673ffffffffffffffffffffffffffffffffffffffff16637a1fa9e33086600d60009054906101000a900473ffffffffffffffffffffffffffffffffffffffff1660006040518563ffffffff1660e01b8152600401611ff294939291906133a6565b602060405180830381600087803b15801561200c57600080fd5b505af1158015612020573d6000803e3d6000fd5b505050506040513d601f19601f820116820180604052508101906120449190613417565b9150600260009054906101000a900473ffffffffffffffffffffffffffffffffffffffff1673ffffffffffffffffffffffffffffffffffffffff166312592fc8600d60009054906101000a900473ffffffffffffffffffffffffffffffffffffffff166040518263ffffffff1660e01b81526004016120c39190612a02565b602060405180830381600087803b1580156120dd57600080fd5b505af11580156120f1573d6000803e3d6000fd5b505050506040513d601f19601f820116820180604052508101906121159190612aaf565b905060019250505092915050565b6000600a838154811061213957612138612dba565b5b9060005260206000200160009054906101000a900473ffffffffffffffffffffffffffffffffffffffff1690508073ffffffffffffffffffffffffffffffffffffffff166108fc839081150290604051600060405180830381858888f193505050501580156121ac573d6000803e3d6000fd5b507f9b320e270eb528aa46b3a21b196f1da153ccb2d5637e892594474e969fe6b7a981836040516121de929190613499565b60405180910390a1505050565b6000600460009054906101000a900473ffffffffffffffffffffffffffffffffffffffff1690508073ffffffffffffffffffffffffffffffffffffffff166108fc859081150290604051600060405180830381858888f19350505050158015612258573d6000803e3d6000fd5b507fd36f5f37e53a101e11e745c4b553773a94d17d9d7cec00640ac8331369a76d11818560405161228a929190613499565b60405180910390a1600560009054906101000a900473ffffffffffffffffffffffffffffffffffffffff1690508073ffffffffffffffffffffffffffffffffffffffff166108fc849081150290604051600060405180830381858888f193505050501580156122fd573d6000803e3d6000fd5b507fd36f5f37e53a101e11e745c4b553773a94d17d9d7cec00640ac8331369a76d11818460405161232f929190613499565b60405180910390a1600360009054906101000a900473ffffffffffffffffffffffffffffffffffffffff1690508073ffffffffffffffffffffffffffffffffffffffff166108fc839081150290604051600060405180830381858888f193505050501580156123a2573d6000803e3d6000fd5b507fd36f5f37e53a101e11e745c4b553773a94d17d9d7cec00640ac8331369a76d1181836040516123d4929190613499565b60405180910390a150505050565b60008060005b6001600a805490506123fa9190612c57565b8110156124cf57600a818154811061241557612414612dba565b5b9060005260206000200160009054906101000a900473ffffffffffffffffffffffffffffffffffffffff169150600960008373ffffffffffffffffffffffffffffffffffffffff1673ffffffffffffffffffffffffffffffffffffffff168152602001908152602001600020600080820160009055600182016000905560028201600090556003820160006124aa9190612600565b6004820160006124ba9190612600565b505080806124c7906130ae565b9150506123e8565b50600a60006124de9190612621565b600b60006124ec9190612600565b6000600881905550600191505090565b60008060009054906101000a900473ffffffffffffffffffffffffffffffffffffffff169050816000806101000a81548173ffffffffffffffffffffffffffffffffffffffff021916908373ffffffffffffffffffffffffffffffffffffffff1602179055508173ffffffffffffffffffffffffffffffffffffffff168173ffffffffffffffffffffffffffffffffffffffff167f8be0079c531659141344cd1fd0a4f28419497f9722a3daafe3b4186f6b6457e060405160405180910390a35050565b82600381019282156125ef579160200282015b828111156125ee5782518255916020019190600101906125d3565b5b5090506125fc9190612642565b5090565b508054600082559060005260206000209081019061261e9190612642565b50565b508054600082559060005260206000209081019061263f9190612642565b50565b5b8082111561265b576000816000905550600101612643565b5090565b6000819050919050565b6126728161265f565b82525050565b600060208201905061268d6000830184612669565b92915050565b600080fd5b600073ffffffffffffffffffffffffffffffffffffffff82169050919050565b60006126c382612698565b9050919050565b6126d3816126b8565b81146126de57600080fd5b50565b6000813590506126f0816126ca565b92915050565b60006020828403121561270c5761270b612693565b5b600061271a848285016126e1565b91505092915050565b61272c8161265f565b811461273757600080fd5b50565b60008135905061274981612723565b92915050565b6000806040838503121561276657612765612693565b5b60006127748582860161273a565b92505060206127858582860161273a565b9150509250929050565b60006040820190506127a46000830185612669565b6127b16020830184612669565b9392505050565b6127c1816126b8565b82525050565b60006080820190506127dc60008301876127b8565b6127e960208301866127b8565b6127f660408301856127b8565b61280360608301846127b8565b95945050505050565b600081519050919050565b600082825260208201905092915050565b6000819050602082019050919050565b6128418161265f565b82525050565b60006128538383612838565b60208301905092915050565b6000602082019050919050565b60006128778261280c565b6128818185612817565b935061288c83612828565b8060005b838110156128bd5781516128a48882612847565b97506128af8361285f565b925050600181019050612890565b5085935050505092915050565b600060208201905081810360008301526128e4818461286c565b905092915050565b60008115159050919050565b612901816128ec565b82525050565b600060208201905061291c60008301846128f8565b92915050565b600081519050919050565b600082825260208201905092915050565b6000819050602082019050919050565b612957816126b8565b82525050565b6000612969838361294e565b60208301905092915050565b6000602082019050919050565b600061298d82612922565b612997818561292d565b93506129a28361293e565b8060005b838110156129d35781516129ba888261295d565b97506129c583612975565b9250506001810190506129a6565b5085935050505092915050565b600060208201905081810360008301526129fa8184612982565b905092915050565b6000602082019050612a1760008301846127b8565b92915050565b600082825260208201905092915050565b7f4f776e61626c653a2063616c6c6572206973206e6f7420746865206f776e6572600082015250565b6000612a64602083612a1d565b9150612a6f82612a2e565b602082019050919050565b60006020820190508181036000830152612a9381612a57565b9050919050565b600081519050612aa981612723565b92915050565b600060208284031215612ac557612ac4612693565b5b6000612ad384828501612a9a565b91505092915050565b7f4469766973696f6e206973204e6f7420506f737369626c65202c20427567206960008201527f6e204e756d626572732021000000000000000000000000000000000000000000602082015250565b6000612b38602b83612a1d565b9150612b4382612adc565b604082019050919050565b60006020820190508181036000830152612b6781612b2b565b9050919050565b7f4e487b7100000000000000000000000000000000000000000000000000000000600052601260045260246000fd5b7f4e487b7100000000000000000000000000000000000000000000000000000000600052601160045260246000fd5b6000612bd78261265f565b9150612be28361265f565b925082612bf257612bf1612b6e565b5b828204905092915050565b6000612c088261265f565b9150612c138361265f565b9250817fffffffffffffffffffffffffffffffffffffffffffffffffffffffffffffffff0483118215151615612c4c57612c4b612b9d565b5b828202905092915050565b6000612c628261265f565b9150612c6d8361265f565b925082821015612c8057612c7f612b9d565b5b828203905092915050565b7f5065726d697373696f6e2044656e696564202121000000000000000000000000600082015250565b6000612cc1601483612a1d565b9150612ccc82612c8b565b602082019050919050565b60006020820190508181036000830152612cf081612cb4565b9050919050565b7f54686520506f74206973206e6f7420726561647920666f722053656c6563742060008201527f7468652057696e6e657200000000000000000000000000000000000000000000602082015250565b6000612d53602a83612a1d565b9150612d5e82612cf7565b604082019050919050565b60006020820190508181036000830152612d8281612d46565b9050919050565b6000612d948261265f565b9150612d9f8361265f565b925082612daf57612dae612b6e565b5b828206905092915050565b7f4e487b7100000000000000000000000000000000000000000000000000000000600052603260045260246000fd5b6000606082019050612dfe6000830186612669565b612e0b6020830185612669565b612e186040830184612669565b949350505050565b7f54686520506f742069732073746172746564206265666f726520210000000000600082015250565b6000612e56601b83612a1d565b9150612e6182612e20565b602082019050919050565b60006020820190508181036000830152612e8581612e49565b9050919050565b7f54686520506f7420686173206e6f74206265656e20526561647920746f20506c60008201527f617920796574204f72205468652047616d65206973204f766572210000000000602082015250565b6000612ee8603b83612a1d565b9150612ef382612e8c565b604082019050919050565b60006020820190508181036000830152612f1781612edb565b9050919050565b7f56616c75652073686f756c64206265206265747765656e20302e30312026203160008201527f303020424e420000000000000000000000000000000000000000000000000000602082015250565b6000612f7a602683612a1d565b9150612f8582612f1e565b604082019050919050565b60006020820190508181036000830152612fa981612f6d565b9050919050565b7f596f7520706c6179656420746f6f206d75636820212100000000000000000000600082015250565b6000612fe6601683612a1d565b9150612ff182612fb0565b602082019050919050565b6000602082019050818103600083015261301581612fd9565b9050919050565b7f56616c75652073686f756c6420626520616e20496e7465676572206d7574697060008201527f6c65206f6620302e303120424e42000000000000000000000000000000000000602082015250565b6000613078602e83612a1d565b91506130838261301c565b604082019050919050565b600060208201905081810360008301526130a78161306b565b9050919050565b60006130b98261265f565b91507fffffffffffffffffffffffffffffffffffffffffffffffffffffffffffffffff8214156130ec576130eb612b9d565b5b600182019050919050565b60006131028261265f565b915061310d8361265f565b9250827fffffffffffffffffffffffffffffffffffffffffffffffffffffffffffffffff0382111561314257613141612b9d565b5b828201905092915050565b600060808201905061316260008301876127b8565b61316f6020830186612669565b61317c6040830185612669565b6131896060830184612669565b95945050505050565b600081549050919050565b60008190508160005260206000209050919050565b60008160001c9050919050565b6000819050919050565b60006131dc6131d7836131b2565b6131bf565b9050919050565b60006131ef82546131c9565b9050919050565b6000600182019050919050565b600061320e82613192565b6132188185612817565b93506132238361319d565b8060005b8381101561325b57613238826131e3565b6132428882612847565b975061324d836131f6565b925050600181019050613227565b5085935050505092915050565b600060a08201905061327d60008301886127b8565b818103602083015261328f8187613203565b905061329e6040830186612669565b6132ab6060830185612669565b6132b86080830184612669565b9695505050505050565b7f4f776e61626c653a206e6577206f776e657220697320746865207a65726f206160008201527f6464726573730000000000000000000000000000000000000000000000000000602082015250565b600061331e602683612a1d565b9150613329826132c2565b604082019050919050565b6000602082019050818103600083015261334d81613311565b9050919050565b6000819050919050565b600060ff82169050919050565b6000819050919050565b600061339061338b61338684613354565b61336b565b61335e565b9050919050565b6133a081613375565b82525050565b60006080820190506133bb60008301876127b8565b6133c86020830186612669565b6133d560408301856127b8565b6133e26060830184613397565b95945050505050565b6133f4816128ec565b81146133ff57600080fd5b50565b600081519050613411816133eb565b92915050565b60006020828403121561342d5761342c612693565b5b600061343b84828501613402565b91505092915050565b600061345f61345a61345584612698565b61336b565b612698565b9050919050565b600061347182613444565b9050919050565b600061348382613466565b9050919050565b61349381613478565b82525050565b60006040820190506134ae600083018561348a565b6134bb6020830184612669565b939250505056fea26469706673582212206616eeaf980cac0481a036bcce5be1ee99e94393efa82528fff7c6b2bfaba52064736f6c63430008090033",
  "immutableReferences": {},
  "source": "// SPDX-License-Identifier: MIT\npragma solidity ^0.8.0;\n// pragma experimental ABIEncoderV2;\n\n/* ToDo : Use Ownable OpenZeppelin */\nimport \"@openzeppelin/contracts/access/Ownable.sol\";\nimport \"@openzeppelin/contracts/utils/math/SafeMath.sol\";\n\n// import \"./LotteryGenerator.sol\";\nimport \"./VRFv2Consumer.sol\";\nimport \"./VRFv2SubscriptionManager.sol\";\n\n// import \"truffle/Console.sol\";\n// import \"hardhat/console.sol\";\n\nimport \"./LotteryInterface.sol\";\n\n/**\n************************************************************************************\n************************************************************************************\n*/\n\n/**\n  * @title Core SmartContract for BNB Public Lottery \n  * @author Batis \n  * @notice This SmartContract is responsible for implimentation of Lottery Core System and response to the Players \n  * @dev LotteryGenerator SmartContract Create This for each Pot \n*/\ncontract LotteryCore is Ownable {\n\n  address private _VRF;\n  address private generatorLotteryAddr;\n  address private LiquidityPoolAddress;\n  // address private MultiSigWalletAddress;\n  address private WeeklyPotAddress;\n  address private MonthlyPotAddress;   \n  address private LotteryOwner;\n\n  uint constant TICKET_PRICE = 10 * 1e15; // finney (0.01 Ether)\n\n  // address public LotteryOwner; \n  bool private lPotActive;  \n  bool private lReadySelectWinner; \n  uint public potStartTime = 0;\n  uint public realPLayerCount = 0;\n\n  struct PotPlayerStr{\n    uint PaymentCount;\n    uint paymentValue;\n    uint TicketNumbers;\n    uint[] TicketsId;\n    uint[] PlayersId;\n  }\n\n  mapping (address => PotPlayerStr) private PotPlayersMap;  \n  address[] private potPlayersArray;  \n  uint[] private potTickets;\n  uint[3][] private potTicketIds;  /* ToDo: Change Search routine base on the Start and End of Tickets for each Address (ID)  */ \n  address private potWinnerAddress;\n  address private potDirector;  /* ToDo: All Main Action must be controlled only by Owner or Director */\n   \n  /* ToDo : Lottery Pot Generator Structure as a Wrapper for Lottery Core */\n  // struct LotteryPot{\n  //   string potLabel;\n  //   uint entryCount;\n  //   uint potSerial;\n  //   uint potValue;\n  //   // mapping(address => PotPlayer) players;\n  // }\n\n  event SelectWinnerIndex(uint winnerIndex, uint potBalance, uint winnerPrize);\n  event SelectWinnerAddress(address potWinner, uint winnerPrize);\n  event PlayerRegister(address potPlayer, uint playerId, uint PlayerValue, uint ticketNumber);\n  event PlayerTotalValue(address potPlayer, uint[] playerId, uint playCount, uint playerValue, uint ticketNumber);\n  event TotalPayment(address receiver, uint TrxValue);\n\n  constructor(address VRF, address generatorLotteryAddress, address WeeklyLotteryAddress, address MonthlyLotteryAddress, address LiquidityPoolAddr) {\n    LotteryOwner = msg.sender;\n    _VRF = VRF;\n    lPotActive = true;\n    lReadySelectWinner = false;\n    potStartTime = block.timestamp;\n    generatorLotteryAddr = generatorLotteryAddress;\n    LiquidityPoolAddress = LiquidityPoolAddr ;\n    WeeklyPotAddress = WeeklyLotteryAddress ;\n    MonthlyPotAddress = MonthlyLotteryAddress ;   \n  }\n\n  // modifier onlyOwner() {\n  //   require(msg.sender == LotteryOwner, \"Owner Only! . You have not the right Access.\");\n  //   _;\n  // }\n\n  /* ToDo : Add & Complete Fallback routine */\n  fallback() external payable {\n  }\n  receive() external payable {\n  }\n\n  modifier isAllowedManager() {\n      require( msg.sender == potDirector || msg.sender == LotteryOwner , \"Permission Denied !!\" );\n      _;\n  }\n\n  modifier isGameOn() {\n      require(lPotActive , \"The Pot has not been Ready to Play yet Or The Game is Over!\");  // && !lReadySelectWinner \n      _;\n  }\n\n  modifier isPotValuable() {\n      require( (address(this).balance >= 0.1 ether && potPlayersArray.length >= 5) , \"The Pot is not Filled Enough !\");\n      _;\n  }\n\n  /**\n    * @notice Show the total Balance of this Pot. \n    * @dev Smart Contract total Balance.\n    * @return Balance of This Contract.\n  */\n  function balanceInPot() public view returns(uint){\n    return address(this).balance;\n  }\n\n  function withdraw() external onlyOwner {\n    payable(msg.sender).transfer(address(this).balance);\n  }\n\n\n  /* ToDo : Replace This function with OpenZeppelin SafeMath */\n  /**\n    * @notice Function for deviding two Integer Numbers and return the results.\n    * @dev Safe Function for Devision Operation.\n    * @param numerator : The Integer Number which is being devided on another Integer Number.\n    * @param denominator : The Integer Number which another Int NUmber is devided by this.  \n    * @return quotient and remainder of the Devision, Both are Integer Numbers. \n  */\n  function getDivided(uint numerator, uint denominator) public pure returns(uint quotient, uint remainder) {\n    require( denominator >= 0, \"Division is Not Possible , Bug in Numbers !\");\n    require( numerator > 0, \"Division is Not Possible , Bug in Numbers !\");\n    quotient  = numerator / denominator; \n    remainder = numerator - denominator * quotient;\n  }\n\n  function potInitialize() external isAllowedManager {\n    require(lPotActive == false, \"The Pot is started before !\");\n    lPotActive = true ;\n    lReadySelectWinner = false;\n    potStartTime = block.timestamp;\n  }\n\n  /**\n    * @notice Players' Operation and Calculation after Sending Transaction to the SmartContract. \n    * @dev Payable Function. \n  */\n  function play() public payable isGameOn {\n\n    require(msg.value >= 0.01 ether && msg.value < 100 ether, \"Value should be between 0.01 & 100 BNB\");\n\n    uint userPotAmount = PotPlayersMap[msg.sender].paymentValue;\n    require(userPotAmount <= 10 ether, \"You played too much !!\");\n\n    /* ToDo: Replace with SafeMath */\n    (uint ticketNumber, uint remainder ) = getDivided(msg.value, TICKET_PRICE); // 10000000000000000\n    require(remainder == 0, \"Value should be an Integer mutiple of 0.01 BNB\");\n\n    potPlayersArray.push( msg.sender );\n    uint id = potPlayersArray.length - 1; \n\n    uint ticketStart = potTickets.length;\n    for (uint jj = 0; jj < ticketNumber; jj++) {\n      potTickets.push( id );\n    }\n    uint ticketEnd = potTickets.length;\n    potTicketIds.push([id, ticketStart, ticketEnd]);\n    uint id2 = potTicketIds.length;\n\n    PotPlayersMap[msg.sender].PaymentCount += 1;\n    PotPlayersMap[msg.sender].paymentValue += msg.value;\n    PotPlayersMap[msg.sender].TicketNumbers += ticketNumber;\n    PotPlayersMap[msg.sender].PlayersId.push( id );\n    PotPlayersMap[msg.sender].TicketsId.push( id2);\n    if (PotPlayersMap[msg.sender].PaymentCount == 1) {\n      realPLayerCount++;\n    }\n\n    if (address(this).balance >= 0.1 ether && realPLayerCount >= 5) {  // // potPlayersArray.length\n      lReadySelectWinner = true;\n    } \n\n    emit PlayerRegister(msg.sender, id, msg.value, ticketNumber) ;\n    if (PotPlayersMap[msg.sender].PaymentCount > 1) {\n        emit PlayerTotalValue(msg.sender, PotPlayersMap[msg.sender].PlayersId, PotPlayersMap[msg.sender].PaymentCount, PotPlayersMap[msg.sender].paymentValue, PotPlayersMap[msg.sender].TicketNumbers) ;\n    }    \n\n  }\n\n  /*\n  function randomGenerator() private view returns (uint) {\n    return uint(\n      keccak256(\n        abi.encodePacked(\n          block.difficulty, block.timestamp, potTickets ))) ;\n  }\n  */\n\n  /*\n  function lrequestRandomWords(address _VRFv2) public {\n    VRFv2Consumer(_VRFv2).requestRandomWords(LotteryOwner) ;\n  }\n  */\n\n  /**\n    * @notice Generating Random Number for Finding the Hourly Winner.\n    * @dev Call VRFv2 Random Generator Routines.\n  */\n  function getRandomValue(address _VRFv2) public view onlyOwner returns (uint256 randomWords) {\n    // uint8 zeroOne = uint8(randomGenerator() % 2);\n    // randomWords = randomGenerator();\n    randomWords = VRFv2Consumer(_VRFv2).getlRandomWords();\n  }\n\n  /**\n    * @notice Select The Hourly Winner Function.\n    * @dev Select The Pot Winner.\n  */\n  function select_Winner() public isAllowedManager {  \n\n    require( lReadySelectWinner == true, \"The Pot is not ready for Select the Winner\" );\n\n    // uint256 l_randomWords = randomGenerator();\n    uint256 l_randomWords = getRandomValue(_VRF);\n    uint winnerIndex = l_randomWords % potTickets.length;  \n    winnerIndex = potTickets[winnerIndex];\n    (uint winnerPrize, uint weeklyPot, uint monthlyPot, uint liquidityAmount) = Calculation(winnerIndex);\n    \n    emit SelectWinnerIndex(winnerIndex, address(this).balance, winnerPrize);\n\n    UpdateLotteryData(winnerIndex, address(this).balance);\n    WinnerPrizePayment(winnerIndex, winnerPrize); \n    FinalPayment(weeklyPot, monthlyPot, liquidityAmount);\n    ClearDataBase();\n    // console.log(\"Select Winner Done !\");\n\n    lPotActive = false;\n    lReadySelectWinner = false;\n\n  }\n\n  /**\n    * @notice Release Smart Contract Memory .\n    * @dev Clear All Storages .\n  */\n  function ClearDataBase() private returns (bool) {\n    /* ToDo : Clear The Map Data and RElease the Memory */  \n    address playerAddress;\n    for (uint256 index = 0; index < potPlayersArray.length - 1; index++) {\n        playerAddress = potPlayersArray[index];\n        // if (PotPlayersMap[playerAddress].PaymentCount > 0) {\n        //     PotPlayersMap[playerAddress].PaymentCount = 0;\n        //     PotPlayersMap[playerAddress].paymentValue = 0;\n        //     PotPlayersMap[playerAddress].TicketNumbers = 0;\n        //     delete PotPlayersMap[playerAddress].PlayersId;\n        //     delete PotPlayersMap[playerAddress].TicketsId;\n        // }\n        delete PotPlayersMap[playerAddress];\n    }\n    delete potPlayersArray;\n    delete potTickets;\n    realPLayerCount = 0;\n    return true;\n  }\n\n  /**\n    * @notice Calculation of Pot Winner Prize.\n    * @dev Findout the 50% of the Total Pot and The Winner payment.\n  */\n  function Calculation(uint _winnerIndex) private view returns (uint winnerPrize, uint weeklyPot, uint monthlyPot, uint liquidityAmount){\n\n    uint totalPot = address(this).balance;\n    address WinnerAddress = potPlayersArray[_winnerIndex];\n    uint WinnerPotAmount = PotPlayersMap[WinnerAddress].paymentValue;\n\n    winnerPrize = totalPot - WinnerPotAmount;\n    /* ToDo : Replace Calculation Parts with OpenZeppelin SafeMath ) */\n    (winnerPrize, ) = getDivided(winnerPrize, 2);\n    winnerPrize += WinnerPotAmount; \n\n    uint otherPots = totalPot - winnerPrize;\n    (otherPots, ) = getDivided(otherPots, 20);\n    weeklyPot = otherPots;\n    monthlyPot = otherPots;\n    liquidityAmount = totalPot - 2 * otherPots - winnerPrize;\n\n  }\n\n  /**\n    * @notice Pay Pot Prize to the Winner.\n    * @dev Transfer Pot Prize to the Winner.\n  */\n  function WinnerPrizePayment(uint _winnerIndex, uint _winnerPrize) private {\n\n    address payable potWinner = payable(potPlayersArray[_winnerIndex]);  \n    potWinner.transfer(_winnerPrize);\n    emit SelectWinnerAddress(potWinner, _winnerPrize);\n    // potPlayers[winnerIndex].transfer(address(this).balance);\n\n  }\n\n  /**\n    * @notice Remaining Pot Money Transfer.\n    * @dev Transfer remaining Money to the Liquidity Pool.\n  */\n  function FinalPayment(uint weeklyPot, uint monthlyPot, uint liquidityAmount) private {   // onlyOwner \n\n    // uint TrxValue = address(this).balance;\n    // address payable receiver = payable(WeeklyPotAddress);\n    // TrxValue = address(this).balance; \n    // receiver.transfer(TrxValue);\n    // emit TotalPayment(receiver, TrxValue);\n\n    address payable receiver = payable(WeeklyPotAddress);\n    receiver.transfer(weeklyPot);\n    emit TotalPayment(receiver, weeklyPot);\n\n    receiver = payable(MonthlyPotAddress);\n    receiver.transfer(monthlyPot);\n    emit TotalPayment(receiver, monthlyPot);\n\n    receiver = payable(LiquidityPoolAddress);\n    receiver.transfer(liquidityAmount);\n    emit TotalPayment(receiver, liquidityAmount);\n\n  }\n\n  /**\n    * @notice Save The Winner Address for Weekly Lottery\n    * @dev Update Generator Smart Contract For Saving Hourly Winner Address\n  */\n  function UpdateLotteryData(uint _winnerIndex, uint _balance) private returns(bool) {\n    bool _success;\n    uint _winnerId;\n    // address _winnerAddress = potPlayersArray[_winnerIndex];\n    potWinnerAddress = potPlayersArray[_winnerIndex];\n    _success = LotteryInterface(generatorLotteryAddr).setlotteryStructs(address(this), _balance, potWinnerAddress, 0);  \n    _winnerId = LotteryInterface(generatorLotteryAddr).setlotteryWinnersArrayMap(potWinnerAddress);  \n    return true;\n  }\n\n  function set_WeeklyPotAddress(address _WeeklyPotAddress) external onlyOwner {\n    require(_WeeklyPotAddress != address(0) );\n    WeeklyPotAddress = _WeeklyPotAddress;\n  }\n\n  function set_MonthlyPotAddress(address _MonthlyPotAddress) external onlyOwner {\n    require(_MonthlyPotAddress != address(0) );\n    MonthlyPotAddress = _MonthlyPotAddress;\n  }\n\n  function set_generatorLotteryAddress(address _contractAddr) external onlyOwner {\n    generatorLotteryAddr = _contractAddr;\n  }\n\n  function set_LiquidityPoolAddress(address _LiquidityPoolAddress) external onlyOwner {\n    require(_LiquidityPoolAddress != address(0) );\n    LiquidityPoolAddress = _LiquidityPoolAddress;\n  }\n\n  // function set_MultiSigWalletAddress(address _MultiSigWalletAddress) external onlyOwner {\n  //   require(_MultiSigWalletAddress != address(0) );\n  //   MultiSigWalletAddress = _MultiSigWalletAddress;\n  // }\n\n  function setDirector(address _DirectorAddress) external onlyOwner {\n    require(_DirectorAddress != address(0) );\n    potDirector = _DirectorAddress;\n  }\n\n  function listPlayers() public view returns (address[] memory){  \n    return potPlayersArray;  \n  }\n\n  function getLotteryTickets() public view returns(uint[] memory) {\n    return potTickets;\n  }\n\n  function isPotActive() public view returns(bool) {\n    return lPotActive;\n  }\n\n  function getTicketPrice() public pure returns(uint) {\n    return TICKET_PRICE;\n  }\n\n  function getTicketAmount() public view returns(uint) {\n    return potTickets.length;\n  }\n\n  function getPlayersNumber() public view returns(uint) {\n    return potPlayersArray.length;\n  }\n\n  function getWinners() public view returns(address) {\n    return potWinnerAddress;  \n  }  \n\n  function isReadySelectWinner() public view returns(bool) {\n    return lReadySelectWinner;\n  }\n\n  function getStartedTime() public view returns(uint) {\n    return block.timestamp - potStartTime;\n  }\n\n  function getPotDirector() public view returns(address) {\n    return potDirector;\n  }\n\n  // function getAllContractAddresses() public view returns(address[] memory) {\n  //   address[] memory contractAddresses;\n  //   contractAddresses[0] = generatorLotteryAddr;\n  //   contractAddresses[1] = LiquidityPoolAddress;\n  //   contractAddresses[2] = WeeklyPotAddress;\n  //   contractAddresses[3] = MonthlyPotAddress;\n  //   return contractAddresses;\n  // }\n  function getAllContractAddresses() public view returns(address gAddress, address lAddress, address wAddress, address mAddress) {\n    gAddress = generatorLotteryAddr ;\n    lAddress = LiquidityPoolAddress ;\n    wAddress = WeeklyPotAddress ;\n    mAddress = MonthlyPotAddress ;\n    return (gAddress, lAddress, wAddress, mAddress); \n  }\n\n  function getPlayerAmounts(address PlayerAddress) public view returns(uint, uint) {\n    uint PaymentCount = PotPlayersMap[PlayerAddress].PaymentCount;\n    uint PaymentValue = PotPlayersMap[PlayerAddress].paymentValue;\n    return (PaymentCount, PaymentValue);\n  }\n\n  function getPlayerValue(address PlayerAddress) public view returns(uint) {\n    uint PaymentValue = PotPlayersMap[PlayerAddress].paymentValue;\n    return PaymentValue;\n  }\n\n}\n\n\n/**\n************************************************************************************\n************************************************************************************\n**/\n",
  "sourcePath": "/home/batis/SrcCode/myPRJ/SmartContBlockChain/BSCLottery/contracts/LotteryCore.sol",
  "compiler": {
    "name": "solc",
    "version": "0.8.9+commit.e5eed63a.Emscripten.clang"
  },
  "schemaVersion": "3.4.3",
  "updatedAt": "2022-05-20T14:19:54.176Z",
  "networkType": "ethereum",
  "devdoc": {
    "author": "Batis ",
    "details": "LotteryGenerator SmartContract Create This for each Pot ",
    "kind": "dev",
    "methods": {
      "balanceInPot()": {
        "details": "Smart Contract total Balance.",
        "returns": {
          "_0": "Balance of This Contract."
        }
      },
      "getDivided(uint256,uint256)": {
        "details": "Safe Function for Devision Operation.",
        "params": {
          "denominator": ": The Integer Number which another Int NUmber is devided by this.  ",
          "numerator": ": The Integer Number which is being devided on another Integer Number."
        },
        "returns": {
          "quotient": "and remainder of the Devision, Both are Integer Numbers. "
        }
      },
      "getRandomValue(address)": {
        "details": "Call VRFv2 Random Generator Routines."
      },
      "owner()": {
        "details": "Returns the address of the current owner."
      },
      "play()": {
        "details": "Payable Function. "
      },
      "renounceOwnership()": {
        "details": "Leaves the contract without owner. It will not be possible to call `onlyOwner` functions anymore. Can only be called by the current owner. NOTE: Renouncing ownership will leave the contract without an owner, thereby removing any functionality that is only available to the owner."
      },
      "select_Winner()": {
        "details": "Select The Pot Winner."
      },
      "transferOwnership(address)": {
        "details": "Transfers ownership of the contract to a new account (`newOwner`). Can only be called by the current owner."
      }
    },
    "title": "Core SmartContract for BNB Public Lottery ",
    "version": 1
  },
  "userdoc": {
    "kind": "user",
    "methods": {
      "balanceInPot()": {
        "notice": "Show the total Balance of this Pot. "
      },
      "getDivided(uint256,uint256)": {
        "notice": "Function for deviding two Integer Numbers and return the results."
      },
      "getRandomValue(address)": {
        "notice": "Generating Random Number for Finding the Hourly Winner."
      },
      "play()": {
        "notice": "Players' Operation and Calculation after Sending Transaction to the SmartContract. "
      },
      "select_Winner()": {
        "notice": "Select The Hourly Winner Function."
      }
    },
    "notice": "This SmartContract is responsible for implimentation of Lottery Core System and response to the Players ",
    "version": 1
  }
}