{
  "contractName": "LotteryGenerator",
  "abi": [
    {
      "anonymous": false,
      "inputs": [
        {
          "indexed": false,
          "internalType": "address",
          "name": "newLottery",
          "type": "address"
        }
      ],
      "name": "LotteryCreated",
      "type": "event"
    },
    {
      "anonymous": false,
      "inputs": [
        {
          "indexed": true,
          "internalType": "address",
          "name": "previousOwner",
          "type": "address"
        },
        {
          "indexed": true,
          "internalType": "address",
          "name": "newOwner",
          "type": "address"
        }
      ],
      "name": "OwnershipTransferred",
      "type": "event"
    },
    {
      "stateMutability": "payable",
      "type": "fallback"
    },
    {
      "inputs": [
        {
          "internalType": "uint256",
          "name": "",
          "type": "uint256"
        }
      ],
      "name": "LotteryWinnersArray",
      "outputs": [
        {
          "internalType": "address",
          "name": "",
          "type": "address"
        }
      ],
      "stateMutability": "view",
      "type": "function"
    },
    {
      "inputs": [
        {
          "internalType": "address",
          "name": "",
          "type": "address"
        }
      ],
      "name": "LotteryWinnersMap",
      "outputs": [
        {
          "internalType": "uint256",
          "name": "playersId",
          "type": "uint256"
        },
        {
          "internalType": "uint256",
          "name": "winnerCount",
          "type": "uint256"
        }
      ],
      "stateMutability": "view",
      "type": "function"
    },
    {
      "inputs": [
        {
          "internalType": "uint256",
          "name": "",
          "type": "uint256"
        }
      ],
      "name": "WeeklyWinnersArray",
      "outputs": [
        {
          "internalType": "address",
          "name": "",
          "type": "address"
        }
      ],
      "stateMutability": "view",
      "type": "function"
    },
    {
      "inputs": [
        {
          "internalType": "address",
          "name": "",
          "type": "address"
        }
      ],
      "name": "WeeklyWinnersMap",
      "outputs": [
        {
          "internalType": "uint256",
          "name": "playersId",
          "type": "uint256"
        },
        {
          "internalType": "uint256",
          "name": "winnerCount",
          "type": "uint256"
        }
      ],
      "stateMutability": "view",
      "type": "function"
    },
    {
      "inputs": [
        {
          "internalType": "uint256",
          "name": "",
          "type": "uint256"
        }
      ],
      "name": "lotteries",
      "outputs": [
        {
          "internalType": "address",
          "name": "",
          "type": "address"
        }
      ],
      "stateMutability": "view",
      "type": "function"
    },
    {
      "inputs": [],
      "name": "owner",
      "outputs": [
        {
          "internalType": "address",
          "name": "",
          "type": "address"
        }
      ],
      "stateMutability": "view",
      "type": "function"
    },
    {
      "inputs": [],
      "name": "renounceOwnership",
      "outputs": [],
      "stateMutability": "nonpayable",
      "type": "function"
    },
    {
      "inputs": [
        {
          "internalType": "address",
          "name": "newOwner",
          "type": "address"
        }
      ],
      "name": "transferOwnership",
      "outputs": [],
      "stateMutability": "nonpayable",
      "type": "function"
    },
    {
      "stateMutability": "payable",
      "type": "receive"
    },
    {
      "inputs": [],
      "name": "balanceInPot",
      "outputs": [
        {
          "internalType": "uint256",
          "name": "",
          "type": "uint256"
        }
      ],
      "stateMutability": "view",
      "type": "function"
    },
    {
      "inputs": [],
      "name": "withdraw",
      "outputs": [],
      "stateMutability": "nonpayable",
      "type": "function"
    },
    {
      "inputs": [
        {
          "internalType": "address",
          "name": "_lotteryAddress",
          "type": "address"
        },
        {
          "internalType": "uint256",
          "name": "_totalBalance",
          "type": "uint256"
        },
        {
          "internalType": "address",
          "name": "_winnerAddress",
          "type": "address"
        },
        {
          "internalType": "uint8",
          "name": "_lotteryType",
          "type": "uint8"
        }
      ],
      "name": "setlotteryStructs",
      "outputs": [
        {
          "internalType": "bool",
          "name": "",
          "type": "bool"
        }
      ],
      "stateMutability": "nonpayable",
      "type": "function"
    },
    {
      "inputs": [
        {
          "internalType": "address",
          "name": "_lotteryAddress",
          "type": "address"
        },
        {
          "internalType": "address",
          "name": "_winnerAddress",
          "type": "address"
        }
      ],
      "name": "setlotteryWinnersArrayMap",
      "outputs": [
        {
          "internalType": "uint256",
          "name": "",
          "type": "uint256"
        }
      ],
      "stateMutability": "nonpayable",
      "type": "function"
    },
    {
      "inputs": [
        {
          "internalType": "address",
          "name": "_lotteryAddress",
          "type": "address"
        },
        {
          "internalType": "address",
          "name": "_winnerAddress",
          "type": "address"
        }
      ],
      "name": "setWeeklyWinnersArrayMap",
      "outputs": [
        {
          "internalType": "uint256",
          "name": "",
          "type": "uint256"
        }
      ],
      "stateMutability": "nonpayable",
      "type": "function"
    },
    {
      "inputs": [
        {
          "internalType": "address",
          "name": "_lotteryAddress",
          "type": "address"
        }
      ],
      "name": "clearlotteryWinnersArrayMap",
      "outputs": [
        {
          "internalType": "bool",
          "name": "",
          "type": "bool"
        }
      ],
      "stateMutability": "nonpayable",
      "type": "function"
    },
    {
      "inputs": [
        {
          "internalType": "address",
          "name": "_lotteryAddress",
          "type": "address"
        }
      ],
      "name": "clearWeeklyWinnersArrayMap",
      "outputs": [
        {
          "internalType": "bool",
          "name": "",
          "type": "bool"
        }
      ],
      "stateMutability": "nonpayable",
      "type": "function"
    },
    {
      "inputs": [
        {
          "internalType": "address",
          "name": "_VRF",
          "type": "address"
        }
      ],
      "name": "createLottery",
      "outputs": [],
      "stateMutability": "nonpayable",
      "type": "function"
    },
    {
      "inputs": [
        {
          "internalType": "address",
          "name": "lotteryAddress",
          "type": "address"
        }
      ],
      "name": "deleteLottery",
      "outputs": [],
      "stateMutability": "nonpayable",
      "type": "function"
    }
  ],
  "bytecode": "0x608060405234801561001057600080fd5b5061002d61002261003260201b60201c565b61003a60201b60201c565b6100fe565b600033905090565b60008060009054906101000a900473ffffffffffffffffffffffffffffffffffffffff169050816000806101000a81548173ffffffffffffffffffffffffffffffffffffffff021916908373ffffffffffffffffffffffffffffffffffffffff1602179055508173ffffffffffffffffffffffffffffffffffffffff168173ffffffffffffffffffffffffffffffffffffffff167f8be0079c531659141344cd1fd0a4f28419497f9722a3daafe3b4186f6b6457e060405160405180910390a35050565b613ebb8061010d6000396000f3fe6080604052600436106200011b5760003560e01c80637a1fa9e311620000a3578063a35e151c116200006d578063a35e151c14620003c5578063a6dddd641462000409578063a7e46eac146200044d578063f2fde38b146200047b578063f671123914620004a95762000123565b80637a1fa9e314620002df5780638da5cb5b14620003235780639139a20e146200035357806394c31c9b14620003815762000123565b80633ccfd60b11620000e55780633ccfd60b146200022257806354a1ec73146200023c578063653ea4391462000280578063715018a614620002c55762000123565b80631398e076146200012557806314e5998714620001695780631c1f5389146200019957806332f655fd14620001de5762000123565b366200012357005b005b3480156200013257600080fd5b506200015160048036038101906200014b919062001468565b620004ed565b604051620001609190620014df565b60405180910390f35b3480156200017657600080fd5b50620001816200052d565b6040516200019091906200150d565b60405180910390f35b348015620001a657600080fd5b50620001c56004803603810190620001bf91906200155b565b62000535565b604051620001d59291906200158d565b60405180910390f35b348015620001eb57600080fd5b506200020a60048036038101906200020491906200155b565b62000559565b604051620002199190620015d7565b60405180910390f35b3480156200022f57600080fd5b506200023a62000642565b005b3480156200024957600080fd5b506200026860048036038101906200026291906200155b565b6200070f565b604051620002779190620015d7565b60405180910390f35b3480156200028d57600080fd5b50620002ac6004803603810190620002a691906200155b565b620007f8565b604051620002bc9291906200158d565b60405180910390f35b348015620002d257600080fd5b50620002dd6200081c565b005b348015620002ec57600080fd5b506200030b600480360381019062000305919062001632565b620008ad565b6040516200031a9190620015d7565b60405180910390f35b3480156200033057600080fd5b506200033b62000a08565b6040516200034a9190620014df565b60405180910390f35b3480156200036057600080fd5b506200037f60048036038101906200037991906200155b565b62000a31565b005b3480156200038e57600080fd5b50620003ad6004803603810190620003a79190620016a4565b62000d35565b604051620003bc91906200150d565b60405180910390f35b348015620003d257600080fd5b50620003f16004803603810190620003eb919062001468565b62000e4e565b604051620004009190620014df565b60405180910390f35b3480156200041657600080fd5b506200043560048036038101906200042f9190620016a4565b62000e8e565b6040516200044491906200150d565b60405180910390f35b3480156200045a57600080fd5b506200047960048036038101906200047391906200155b565b62000fa7565b005b3480156200048857600080fd5b50620004a76004803603810190620004a191906200155b565b620011c8565b005b348015620004b657600080fd5b50620004d56004803603810190620004cf919062001468565b620012cc565b604051620004e49190620014df565b60405180910390f35b60018181548110620004fe57600080fd5b906000526020600020016000915054906101000a900473ffffffffffffffffffffffffffffffffffffffff1681565b600047905090565b60046020528060005260406000206000915090508060000154908060010154905082565b60008060005b60016005805490506200057391906200171a565b81101562000627576005818154811062000592576200059162001755565b5b9060005260206000200160009054906101000a900473ffffffffffffffffffffffffffffffffffffffff169150600660008373ffffffffffffffffffffffffffffffffffffffff1673ffffffffffffffffffffffffffffffffffffffff1681526020019081526020016000206000808201600090556001820160009055505080806200061e9062001784565b9150506200055f565b5060056000620006389190620013d8565b6001915050919050565b6200064c6200130c565b73ffffffffffffffffffffffffffffffffffffffff166200066c62000a08565b73ffffffffffffffffffffffffffffffffffffffff1614620006c5576040517f08c379a0000000000000000000000000000000000000000000000000000000008152600401620006bc9062001833565b60405180910390fd5b3373ffffffffffffffffffffffffffffffffffffffff166108fc479081150290604051600060405180830381858888f193505050501580156200070c573d6000803e3d6000fd5b50565b60008060005b60016003805490506200072991906200171a565b811015620007dd576003818154811062000748576200074762001755565b5b9060005260206000200160009054906101000a900473ffffffffffffffffffffffffffffffffffffffff169150600460008373ffffffffffffffffffffffffffffffffffffffff1673ffffffffffffffffffffffffffffffffffffffff168152602001908152602001600020600080820160009055600182016000905550508080620007d49062001784565b91505062000715565b5060036000620007ee9190620013d8565b6001915050919050565b60066020528060005260406000206000915090508060000154908060010154905082565b620008266200130c565b73ffffffffffffffffffffffffffffffffffffffff166200084662000a08565b73ffffffffffffffffffffffffffffffffffffffff16146200089f576040517f08c379a0000000000000000000000000000000000000000000000000000000008152600401620008969062001833565b60405180910390fd5b620008ab600062001314565b565b600083600260008773ffffffffffffffffffffffffffffffffffffffff1673ffffffffffffffffffffffffffffffffffffffff1681526020019081526020016000206002018190555082600260008773ffffffffffffffffffffffffffffffffffffffff1673ffffffffffffffffffffffffffffffffffffffff16815260200190815260200160002060030160006101000a81548173ffffffffffffffffffffffffffffffffffffffff021916908373ffffffffffffffffffffffffffffffffffffffff1602179055508160ff16600381111562000990576200098f62001855565b5b600260008773ffffffffffffffffffffffffffffffffffffffff1673ffffffffffffffffffffffffffffffffffffffff16815260200190815260200160002060030160146101000a81548160ff02191690836003811115620009f757620009f662001855565b5b021790555060019050949350505050565b60008060009054906101000a900473ffffffffffffffffffffffffffffffffffffffff16905090565b62000a3b6200130c565b73ffffffffffffffffffffffffffffffffffffffff1662000a5b62000a08565b73ffffffffffffffffffffffffffffffffffffffff161462000ab4576040517f08c379a000000000000000000000000000000000000000000000000000000000815260040162000aab9062001833565b60405180910390fd5b60008160405162000ac590620013fb565b62000ad19190620014df565b604051809103906000f08015801562000aee573d6000803e3d6000fd5b5090506001819080600181540180825580915050600190039060005260206000200160009091909190916101000a81548173ffffffffffffffffffffffffffffffffffffffff021916908373ffffffffffffffffffffffffffffffffffffffff1602179055506001808054905062000b6791906200171a565b600260008373ffffffffffffffffffffffffffffffffffffffff1673ffffffffffffffffffffffffffffffffffffffff1681526020019081526020016000206000018190555033600260008373ffffffffffffffffffffffffffffffffffffffff1673ffffffffffffffffffffffffffffffffffffffff16815260200190815260200160002060010160006101000a81548173ffffffffffffffffffffffffffffffffffffffff021916908373ffffffffffffffffffffffffffffffffffffffff1602179055506000600260008373ffffffffffffffffffffffffffffffffffffffff1673ffffffffffffffffffffffffffffffffffffffff168152602001908152602001600020600201819055506000600260008373ffffffffffffffffffffffffffffffffffffffff1673ffffffffffffffffffffffffffffffffffffffff16815260200190815260200160002060030160006101000a81548173ffffffffffffffffffffffffffffffffffffffff021916908373ffffffffffffffffffffffffffffffffffffffff1602179055507fe610764cbcba803247df3450b7492f6a0084b7b5b734a7901c13fef8f84ffaf48160405162000d299190620014df565b60405180910390a15050565b60006005829080600181540180825580915050600190039060005260206000200160009091909190916101000a81548173ffffffffffffffffffffffffffffffffffffffff021916908373ffffffffffffffffffffffffffffffffffffffff160217905550600580549050600660008473ffffffffffffffffffffffffffffffffffffffff1673ffffffffffffffffffffffffffffffffffffffff16815260200190815260200160002060000181905550600660008373ffffffffffffffffffffffffffffffffffffffff1673ffffffffffffffffffffffffffffffffffffffff168152602001908152602001600020600101600081548092919062000e3b9062001784565b9190505550600580549050905092915050565b6005818154811062000e5f57600080fd5b906000526020600020016000915054906101000a900473ffffffffffffffffffffffffffffffffffffffff1681565b60006003829080600181540180825580915050600190039060005260206000200160009091909190916101000a81548173ffffffffffffffffffffffffffffffffffffffff021916908373ffffffffffffffffffffffffffffffffffffffff160217905550600380549050600460008473ffffffffffffffffffffffffffffffffffffffff1673ffffffffffffffffffffffffffffffffffffffff16815260200190815260200160002060000181905550600460008373ffffffffffffffffffffffffffffffffffffffff1673ffffffffffffffffffffffffffffffffffffffff168152602001908152602001600020600101600081548092919062000f949062001784565b9190505550600380549050905092915050565b62000fb16200130c565b73ffffffffffffffffffffffffffffffffffffffff1662000fd162000a08565b73ffffffffffffffffffffffffffffffffffffffff16146200102a576040517f08c379a0000000000000000000000000000000000000000000000000000000008152600401620010219062001833565b60405180910390fd5b600260008273ffffffffffffffffffffffffffffffffffffffff1673ffffffffffffffffffffffffffffffffffffffff16815260200190815260200160002060010160009054906101000a900473ffffffffffffffffffffffffffffffffffffffff1673ffffffffffffffffffffffffffffffffffffffff163373ffffffffffffffffffffffffffffffffffffffff1614620010c557600080fd5b6000600260008373ffffffffffffffffffffffffffffffffffffffff1673ffffffffffffffffffffffffffffffffffffffff168152602001908152602001600020600001549050600060018080805490506200112291906200171a565b8154811062001136576200113562001755565b5b9060005260206000200160009054906101000a900473ffffffffffffffffffffffffffffffffffffffff16905080600183815481106200117b576200117a62001755565b5b9060005260206000200160006101000a81548173ffffffffffffffffffffffffffffffffffffffff021916908373ffffffffffffffffffffffffffffffffffffffff160217905550505050565b620011d26200130c565b73ffffffffffffffffffffffffffffffffffffffff16620011f262000a08565b73ffffffffffffffffffffffffffffffffffffffff16146200124b576040517f08c379a0000000000000000000000000000000000000000000000000000000008152600401620012429062001833565b60405180910390fd5b600073ffffffffffffffffffffffffffffffffffffffff168173ffffffffffffffffffffffffffffffffffffffff161415620012be576040517f08c379a0000000000000000000000000000000000000000000000000000000008152600401620012b590620018fa565b60405180910390fd5b620012c98162001314565b50565b60038181548110620012dd57600080fd5b906000526020600020016000915054906101000a900473ffffffffffffffffffffffffffffffffffffffff1681565b600033905090565b60008060009054906101000a900473ffffffffffffffffffffffffffffffffffffffff169050816000806101000a81548173ffffffffffffffffffffffffffffffffffffffff021916908373ffffffffffffffffffffffffffffffffffffffff1602179055508173ffffffffffffffffffffffffffffffffffffffff168173ffffffffffffffffffffffffffffffffffffffff167f8be0079c531659141344cd1fd0a4f28419497f9722a3daafe3b4186f6b6457e060405160405180910390a35050565b5080546000825590600052602060002090810190620013f8919062001409565b50565b612569806200191d83390190565b5b80821115620014245760008160009055506001016200140a565b5090565b600080fd5b6000819050919050565b62001442816200142d565b81146200144e57600080fd5b50565b600081359050620014628162001437565b92915050565b60006020828403121562001481576200148062001428565b5b6000620014918482850162001451565b91505092915050565b600073ffffffffffffffffffffffffffffffffffffffff82169050919050565b6000620014c7826200149a565b9050919050565b620014d981620014ba565b82525050565b6000602082019050620014f66000830184620014ce565b92915050565b62001507816200142d565b82525050565b6000602082019050620015246000830184620014fc565b92915050565b6200153581620014ba565b81146200154157600080fd5b50565b60008135905062001555816200152a565b92915050565b60006020828403121562001574576200157362001428565b5b6000620015848482850162001544565b91505092915050565b6000604082019050620015a46000830185620014fc565b620015b36020830184620014fc565b9392505050565b60008115159050919050565b620015d181620015ba565b82525050565b6000602082019050620015ee6000830184620015c6565b92915050565b600060ff82169050919050565b6200160c81620015f4565b81146200161857600080fd5b50565b6000813590506200162c8162001601565b92915050565b600080600080608085870312156200164f576200164e62001428565b5b60006200165f8782880162001544565b9450506020620016728782880162001451565b9350506040620016858782880162001544565b925050606062001698878288016200161b565b91505092959194509250565b60008060408385031215620016be57620016bd62001428565b5b6000620016ce8582860162001544565b9250506020620016e18582860162001544565b9150509250929050565b7f4e487b7100000000000000000000000000000000000000000000000000000000600052601160045260246000fd5b600062001727826200142d565b915062001734836200142d565b9250828210156200174a5762001749620016eb565b5b828203905092915050565b7f4e487b7100000000000000000000000000000000000000000000000000000000600052603260045260246000fd5b600062001791826200142d565b91507fffffffffffffffffffffffffffffffffffffffffffffffffffffffffffffffff821415620017c757620017c6620016eb565b5b600182019050919050565b600082825260208201905092915050565b7f4f776e61626c653a2063616c6c6572206973206e6f7420746865206f776e6572600082015250565b60006200181b602083620017d2565b91506200182882620017e3565b602082019050919050565b600060208201905081810360008301526200184e816200180c565b9050919050565b7f4e487b7100000000000000000000000000000000000000000000000000000000600052602160045260246000fd5b7f4f776e61626c653a206e6577206f776e657220697320746865207a65726f206160008201527f6464726573730000000000000000000000000000000000000000000000000000602082015250565b6000620018e2602683620017d2565b9150620018ef8262001884565b604082019050919050565b600060208201905081810360008301526200191581620018d3565b905091905056fe60806040523480156200001157600080fd5b5060405162002569380380620025698339818101604052810190620000379190620001d5565b620000576200004b6200009f60201b60201c565b620000a760201b60201c565b80600760006101000a81548173ffffffffffffffffffffffffffffffffffffffff021916908373ffffffffffffffffffffffffffffffffffffffff1602179055505062000207565b600033905090565b60008060009054906101000a900473ffffffffffffffffffffffffffffffffffffffff169050816000806101000a81548173ffffffffffffffffffffffffffffffffffffffff021916908373ffffffffffffffffffffffffffffffffffffffff1602179055508173ffffffffffffffffffffffffffffffffffffffff168173ffffffffffffffffffffffffffffffffffffffff167f8be0079c531659141344cd1fd0a4f28419497f9722a3daafe3b4186f6b6457e060405160405180910390a35050565b600080fd5b600073ffffffffffffffffffffffffffffffffffffffff82169050919050565b60006200019d8262000170565b9050919050565b620001af8162000190565b8114620001bb57600080fd5b50565b600081519050620001cf81620001a4565b92915050565b600060208284031215620001ee57620001ed6200016b565b5b6000620001fe84828501620001be565b91505092915050565b61235280620002176000396000f3fe6080604052600436106100e15760003560e01c8063442db8fb1161007f578063737bb72311610059578063737bb7231461027f5780638da5cb5b146102a857806393e84cd9146102d3578063f2fde38b146102dd576100e8565b8063442db8fb1461021257806364605d511461023d578063715018a614610268576100e8565b8063231085e5116100bb578063231085e5146101905780632ac75ab5146101bb5780633ccfd60b146101d25780633fa420c4146101e9576100e8565b806314e59987146100ea57806314e5e90e14610115578063194d02d714610152576100e8565b366100e857005b005b3480156100f657600080fd5b506100ff610306565b60405161010c9190611780565b60405180910390f35b34801561012157600080fd5b5061013c600480360381019061013791906117fe565b61030e565b6040516101499190611780565b60405180910390f35b34801561015e57600080fd5b5061017960048036038101906101749190611857565b610411565b604051610187929190611897565b60405180910390f35b34801561019c57600080fd5b506101a56104c9565b6040516101b291906118cf565b60405180910390f35b3480156101c757600080fd5b506101d06104ef565b005b3480156101de57600080fd5b506101e7610643565b005b3480156101f557600080fd5b50610210600480360381019061020b91906117fe565b610708565b005b34801561021e57600080fd5b50610227610802565b60405161023491906119a8565b60405180910390f35b34801561024957600080fd5b5061025261085a565b60405161025f9190611a88565b60405180910390f35b34801561027457600080fd5b5061027d6108e8565b005b34801561028b57600080fd5b506102a660048036038101906102a191906117fe565b610970565b005b3480156102b457600080fd5b506102bd610a30565b6040516102ca91906118cf565b60405180910390f35b6102db610a59565b005b3480156102e957600080fd5b5061030460048036038101906102ff91906117fe565b610ffb565b005b600047905090565b60006103186110f3565b73ffffffffffffffffffffffffffffffffffffffff16610336610a30565b73ffffffffffffffffffffffffffffffffffffffff161461038c576040517f08c379a000000000000000000000000000000000000000000000000000000000815260040161038390611b07565b60405180910390fd5b8173ffffffffffffffffffffffffffffffffffffffff166371f747906040518163ffffffff1660e01b815260040160206040518083038186803b1580156103d257600080fd5b505afa1580156103e6573d6000803e3d6000fd5b505050506040513d601f19601f8201168201806040525081019061040a9190611b3c565b9050919050565b6000806000831015610458576040517f08c379a000000000000000000000000000000000000000000000000000000000815260040161044f90611bdb565b60405180910390fd5b6000841161049b576040517f08c379a000000000000000000000000000000000000000000000000000000000815260040161049290611bdb565b60405180910390fd5b82846104a79190611c59565b915081836104b59190611c8a565b846104c09190611ce4565b90509250929050565b600260009054906101000a900473ffffffffffffffffffffffffffffffffffffffff1681565b6104f76110f3565b73ffffffffffffffffffffffffffffffffffffffff16610515610a30565b73ffffffffffffffffffffffffffffffffffffffff161461056b576040517f08c379a000000000000000000000000000000000000000000000000000000000815260040161056290611b07565b60405180910390fd5b6000610598600760009054906101000a900473ffffffffffffffffffffffffffffffffffffffff1661030e565b90506000600580549050826105ad9190611d18565b9050600581815481106105c3576105c2611d49565b5b9060005260206000200154905060006105db826110fb565b90507f274f2e5ea35472f60f411beb007713c0f1c1b574f260789eedee1789cd49d9f582478360405161061093929190611d78565b60405180910390a161062282476111bf565b5061062d828261137a565b610635611442565b61063d6114f2565b50505050565b61064b6110f3565b73ffffffffffffffffffffffffffffffffffffffff16610669610a30565b73ffffffffffffffffffffffffffffffffffffffff16146106bf576040517f08c379a00000000000000000000000000000000000000000000000000000000081526004016106b690611b07565b60405180910390fd5b3373ffffffffffffffffffffffffffffffffffffffff166108fc479081150290604051600060405180830381858888f19350505050158015610705573d6000803e3d6000fd5b50565b6107106110f3565b73ffffffffffffffffffffffffffffffffffffffff1661072e610a30565b73ffffffffffffffffffffffffffffffffffffffff1614610784576040517f08c379a000000000000000000000000000000000000000000000000000000000815260040161077b90611b07565b60405180910390fd5b600073ffffffffffffffffffffffffffffffffffffffff168173ffffffffffffffffffffffffffffffffffffffff1614156107be57600080fd5b80600260006101000a81548173ffffffffffffffffffffffffffffffffffffffff021916908373ffffffffffffffffffffffffffffffffffffffff16021790555050565b6060600580548060200260200160405190810160405280929190818152602001828054801561085057602002820191906000526020600020905b81548152602001906001019080831161083c575b5050505050905090565b606060048054806020026020016040519081016040528092919081815260200182805480156108de57602002820191906000526020600020905b8160009054906101000a900473ffffffffffffffffffffffffffffffffffffffff1673ffffffffffffffffffffffffffffffffffffffff1681526020019060010190808311610894575b5050505050905090565b6108f06110f3565b73ffffffffffffffffffffffffffffffffffffffff1661090e610a30565b73ffffffffffffffffffffffffffffffffffffffff1614610964576040517f08c379a000000000000000000000000000000000000000000000000000000000815260040161095b90611b07565b60405180910390fd5b61096e6000611604565b565b6109786110f3565b73ffffffffffffffffffffffffffffffffffffffff16610996610a30565b73ffffffffffffffffffffffffffffffffffffffff16146109ec576040517f08c379a00000000000000000000000000000000000000000000000000000000081526004016109e390611b07565b60405180910390fd5b80600160006101000a81548173ffffffffffffffffffffffffffffffffffffffff021916908373ffffffffffffffffffffffffffffffffffffffff16021790555050565b60008060009054906101000a900473ffffffffffffffffffffffffffffffffffffffff16905090565b662386f26fc100003410158015610a78575068056bc75e2d6310000034105b610ab7576040517f08c379a0000000000000000000000000000000000000000000000000000000008152600401610aae90611e21565b60405180910390fd5b600080610acb34662386f26fc10000610411565b9150915060008114610b12576040517f08c379a0000000000000000000000000000000000000000000000000000000008152600401610b0990611eb3565b60405180910390fd5b6004339080600181540180825580915050600190039060005260206000200160009091909190916101000a81548173ffffffffffffffffffffffffffffffffffffffff021916908373ffffffffffffffffffffffffffffffffffffffff16021790555060006001600480549050610b899190611ce4565b90506000600580549050905060005b84811015610bdc5760058390806001815401808255809150506001900390600052602060002001600090919091909150558080610bd490611ed3565b915050610b98565b506000600580549050905060066040518060600160405280858152602001848152602001838152509080600181540180825580915050600190039060005260206000209060030201600090919091909150906003610c3b9291906116c8565b50600060068054905090506001600360003373ffffffffffffffffffffffffffffffffffffffff1673ffffffffffffffffffffffffffffffffffffffff1681526020019081526020016000206000016000828254610c999190611f1c565b9250508190555034600360003373ffffffffffffffffffffffffffffffffffffffff1673ffffffffffffffffffffffffffffffffffffffff1681526020019081526020016000206001016000828254610cf29190611f1c565b9250508190555085600360003373ffffffffffffffffffffffffffffffffffffffff1673ffffffffffffffffffffffffffffffffffffffff1681526020019081526020016000206002016000828254610d4b9190611f1c565b92505081905550600360003373ffffffffffffffffffffffffffffffffffffffff1673ffffffffffffffffffffffffffffffffffffffff168152602001908152602001600020600401849080600181540180825580915050600190039060005260206000200160009091909190915055600360003373ffffffffffffffffffffffffffffffffffffffff1673ffffffffffffffffffffffffffffffffffffffff1681526020019081526020016000206003018190806001815401808255809150506001900390600052602060002001600090919091909150557f8de5754e4ed9d4994bdb4b2b8c12dfcd51b0e994c1d34a7f20fe7f3d3fbb7bc233853489604051610e599493929190611f72565b60405180910390a16001600360003373ffffffffffffffffffffffffffffffffffffffff1673ffffffffffffffffffffffffffffffffffffffff168152602001908152602001600020600001541115610ff3577f50d8ee368d41fb05a48faba0bb81eff5b09d7f7bbe0d333b6ddac6d4b7a5a53633600360003373ffffffffffffffffffffffffffffffffffffffff1673ffffffffffffffffffffffffffffffffffffffff168152602001908152602001600020600401600360003373ffffffffffffffffffffffffffffffffffffffff1673ffffffffffffffffffffffffffffffffffffffff16815260200190815260200160002060000154600360003373ffffffffffffffffffffffffffffffffffffffff1673ffffffffffffffffffffffffffffffffffffffff16815260200190815260200160002060010154600360003373ffffffffffffffffffffffffffffffffffffffff1673ffffffffffffffffffffffffffffffffffffffff16815260200190815260200160002060020154604051610fea95949392919061208d565b60405180910390a15b505050505050565b6110036110f3565b73ffffffffffffffffffffffffffffffffffffffff16611021610a30565b73ffffffffffffffffffffffffffffffffffffffff1614611077576040517f08c379a000000000000000000000000000000000000000000000000000000000815260040161106e90611b07565b60405180910390fd5b600073ffffffffffffffffffffffffffffffffffffffff168173ffffffffffffffffffffffffffffffffffffffff1614156110e7576040517f08c379a00000000000000000000000000000000000000000000000000000000081526004016110de90612159565b60405180910390fd5b6110f081611604565b50565b600033905090565b60008047905060006004848154811061111757611116611d49565b5b9060005260206000200160009054906101000a900473ffffffffffffffffffffffffffffffffffffffff1690506000600360008373ffffffffffffffffffffffffffffffffffffffff1673ffffffffffffffffffffffffffffffffffffffff16815260200190815260200160002060010154905080836111979190611ce4565b93506111a4846002610411565b508094505080846111b59190611f1c565b9350505050919050565b600080600080600486815481106111d9576111d8611d49565b5b9060005260206000200160009054906101000a900473ffffffffffffffffffffffffffffffffffffffff169050600160009054906101000a900473ffffffffffffffffffffffffffffffffffffffff1673ffffffffffffffffffffffffffffffffffffffff16637a1fa9e330878460006040518563ffffffff1660e01b815260040161126894939291906121cb565b602060405180830381600087803b15801561128257600080fd5b505af1158015611296573d6000803e3d6000fd5b505050506040513d601f19601f820116820180604052508101906112ba9190612248565b9250600160009054906101000a900473ffffffffffffffffffffffffffffffffffffffff1673ffffffffffffffffffffffffffffffffffffffff1663a6dddd6430836040518363ffffffff1660e01b8152600401611319929190612275565b602060405180830381600087803b15801561133357600080fd5b505af1158015611347573d6000803e3d6000fd5b505050506040513d601f19601f8201168201806040525081019061136b9190611b3c565b91506001935050505092915050565b6000600483815481106113905761138f611d49565b5b9060005260206000200160009054906101000a900473ffffffffffffffffffffffffffffffffffffffff1690508073ffffffffffffffffffffffffffffffffffffffff166108fc839081150290604051600060405180830381858888f19350505050158015611403573d6000803e3d6000fd5b507f9b320e270eb528aa46b3a21b196f1da153ccb2d5637e892594474e969fe6b7a981836040516114359291906122f3565b60405180910390a1505050565b6000600260009054906101000a900473ffffffffffffffffffffffffffffffffffffffff16905060004790508173ffffffffffffffffffffffffffffffffffffffff166108fc829081150290604051600060405180830381858888f193505050501580156114b4573d6000803e3d6000fd5b507fd36f5f37e53a101e11e745c4b553773a94d17d9d7cec00640ac8331369a76d1182826040516114e69291906122f3565b60405180910390a15050565b60008060005b600160048054905061150a9190611ce4565b8110156115df576004818154811061152557611524611d49565b5b9060005260206000200160009054906101000a900473ffffffffffffffffffffffffffffffffffffffff169150600360008373ffffffffffffffffffffffffffffffffffffffff1673ffffffffffffffffffffffffffffffffffffffff168152602001908152602001600020600080820160009055600182016000905560028201600090556003820160006115ba9190611708565b6004820160006115ca9190611708565b505080806115d790611ed3565b9150506114f8565b50600460006115ee9190611729565b600560006115fc9190611708565b600191505090565b60008060009054906101000a900473ffffffffffffffffffffffffffffffffffffffff169050816000806101000a81548173ffffffffffffffffffffffffffffffffffffffff021916908373ffffffffffffffffffffffffffffffffffffffff1602179055508173ffffffffffffffffffffffffffffffffffffffff168173ffffffffffffffffffffffffffffffffffffffff167f8be0079c531659141344cd1fd0a4f28419497f9722a3daafe3b4186f6b6457e060405160405180910390a35050565b82600381019282156116f7579160200282015b828111156116f65782518255916020019190600101906116db565b5b509050611704919061174a565b5090565b5080546000825590600052602060002090810190611726919061174a565b50565b5080546000825590600052602060002090810190611747919061174a565b50565b5b8082111561176357600081600090555060010161174b565b5090565b6000819050919050565b61177a81611767565b82525050565b60006020820190506117956000830184611771565b92915050565b600080fd5b600073ffffffffffffffffffffffffffffffffffffffff82169050919050565b60006117cb826117a0565b9050919050565b6117db816117c0565b81146117e657600080fd5b50565b6000813590506117f8816117d2565b92915050565b6000602082840312156118145761181361179b565b5b6000611822848285016117e9565b91505092915050565b61183481611767565b811461183f57600080fd5b50565b6000813590506118518161182b565b92915050565b6000806040838503121561186e5761186d61179b565b5b600061187c85828601611842565b925050602061188d85828601611842565b9150509250929050565b60006040820190506118ac6000830185611771565b6118b96020830184611771565b9392505050565b6118c9816117c0565b82525050565b60006020820190506118e460008301846118c0565b92915050565b600081519050919050565b600082825260208201905092915050565b6000819050602082019050919050565b61191f81611767565b82525050565b60006119318383611916565b60208301905092915050565b6000602082019050919050565b6000611955826118ea565b61195f81856118f5565b935061196a83611906565b8060005b8381101561199b5781516119828882611925565b975061198d8361193d565b92505060018101905061196e565b5085935050505092915050565b600060208201905081810360008301526119c2818461194a565b905092915050565b600081519050919050565b600082825260208201905092915050565b6000819050602082019050919050565b6119ff816117c0565b82525050565b6000611a1183836119f6565b60208301905092915050565b6000602082019050919050565b6000611a35826119ca565b611a3f81856119d5565b9350611a4a836119e6565b8060005b83811015611a7b578151611a628882611a05565b9750611a6d83611a1d565b925050600181019050611a4e565b5085935050505092915050565b60006020820190508181036000830152611aa28184611a2a565b905092915050565b600082825260208201905092915050565b7f4f776e61626c653a2063616c6c6572206973206e6f7420746865206f776e6572600082015250565b6000611af1602083611aaa565b9150611afc82611abb565b602082019050919050565b60006020820190508181036000830152611b2081611ae4565b9050919050565b600081519050611b368161182b565b92915050565b600060208284031215611b5257611b5161179b565b5b6000611b6084828501611b27565b91505092915050565b7f4469766973696f6e206973204e6f7420506f737369626c65202c20427567206960008201527f6e204e756d626572732021000000000000000000000000000000000000000000602082015250565b6000611bc5602b83611aaa565b9150611bd082611b69565b604082019050919050565b60006020820190508181036000830152611bf481611bb8565b9050919050565b7f4e487b7100000000000000000000000000000000000000000000000000000000600052601260045260246000fd5b7f4e487b7100000000000000000000000000000000000000000000000000000000600052601160045260246000fd5b6000611c6482611767565b9150611c6f83611767565b925082611c7f57611c7e611bfb565b5b828204905092915050565b6000611c9582611767565b9150611ca083611767565b9250817fffffffffffffffffffffffffffffffffffffffffffffffffffffffffffffffff0483118215151615611cd957611cd8611c2a565b5b828202905092915050565b6000611cef82611767565b9150611cfa83611767565b925082821015611d0d57611d0c611c2a565b5b828203905092915050565b6000611d2382611767565b9150611d2e83611767565b925082611d3e57611d3d611bfb565b5b828206905092915050565b7f4e487b7100000000000000000000000000000000000000000000000000000000600052603260045260246000fd5b6000606082019050611d8d6000830186611771565b611d9a6020830185611771565b611da76040830184611771565b949350505050565b7f56616c75652073686f756c64206265206265747765656e20302e30312026203160008201527f303020424e420000000000000000000000000000000000000000000000000000602082015250565b6000611e0b602683611aaa565b9150611e1682611daf565b604082019050919050565b60006020820190508181036000830152611e3a81611dfe565b9050919050565b7f56616c75652073686f756c6420626520616e20496e7465676572206d7574697060008201527f6c65206f6620302e303120424e42000000000000000000000000000000000000602082015250565b6000611e9d602e83611aaa565b9150611ea882611e41565b604082019050919050565b60006020820190508181036000830152611ecc81611e90565b9050919050565b6000611ede82611767565b91507fffffffffffffffffffffffffffffffffffffffffffffffffffffffffffffffff821415611f1157611f10611c2a565b5b600182019050919050565b6000611f2782611767565b9150611f3283611767565b9250827fffffffffffffffffffffffffffffffffffffffffffffffffffffffffffffffff03821115611f6757611f66611c2a565b5b828201905092915050565b6000608082019050611f8760008301876118c0565b611f946020830186611771565b611fa16040830185611771565b611fae6060830184611771565b95945050505050565b600081549050919050565b60008190508160005260206000209050919050565b60008160001c9050919050565b6000819050919050565b6000612001611ffc83611fd7565b611fe4565b9050919050565b60006120148254611fee565b9050919050565b6000600182019050919050565b600061203382611fb7565b61203d81856118f5565b935061204883611fc2565b8060005b838110156120805761205d82612008565b6120678882611925565b97506120728361201b565b92505060018101905061204c565b5085935050505092915050565b600060a0820190506120a260008301886118c0565b81810360208301526120b48187612028565b90506120c36040830186611771565b6120d06060830185611771565b6120dd6080830184611771565b9695505050505050565b7f4f776e61626c653a206e6577206f776e657220697320746865207a65726f206160008201527f6464726573730000000000000000000000000000000000000000000000000000602082015250565b6000612143602683611aaa565b915061214e826120e7565b604082019050919050565b6000602082019050818103600083015261217281612136565b9050919050565b6000819050919050565b600060ff82169050919050565b6000819050919050565b60006121b56121b06121ab84612179565b612190565b612183565b9050919050565b6121c58161219a565b82525050565b60006080820190506121e060008301876118c0565b6121ed6020830186611771565b6121fa60408301856118c0565b61220760608301846121bc565b95945050505050565b60008115159050919050565b61222581612210565b811461223057600080fd5b50565b6000815190506122428161221c565b92915050565b60006020828403121561225e5761225d61179b565b5b600061226c84828501612233565b91505092915050565b600060408201905061228a60008301856118c0565b61229760208301846118c0565b9392505050565b60006122b96122b46122af846117a0565b612190565b6117a0565b9050919050565b60006122cb8261229e565b9050919050565b60006122dd826122c0565b9050919050565b6122ed816122d2565b82525050565b600060408201905061230860008301856122e4565b6123156020830184611771565b939250505056fea2646970667358221220e44da4983c371a63074c4533abdd2dcef384d329846451e98c807efd3e043eb764736f6c63430008090033a2646970667358221220fc693fe903982615e563f3e247d2f2c1ea33fb5b25c6fdd744d7ab80b959dd7664736f6c63430008090033",
  "immutableReferences": {},
  "source": "// SPDX-License-Identifier: MIT\npragma solidity ^0.8.0;\n\nimport \"@openzeppelin/contracts/access/Ownable.sol\";\nimport \"./LotteryCore.sol\";\n\n\n/**\n  * @title Lottery Generator Smart Contract.\n  * @author Batis \n  * @notice This SmartContract is responsible for Lottery Generation.\n  * @dev Lottery Generator SmartContract - Parent of Core Lottery\n*/\ncontract LotteryGenerator is Ownable {\n\n    enum LType {\n        Hourly,\n        Daily,\n        Weekly,\n        Monthly\n    }\n\n    address[] public lotteries;\n    struct lottery{\n        uint index;\n        address creator;\n        uint totalBalance;\n        address winnerAddress; \n        LType lotteryType;\n    }\n    mapping(address => lottery) lotteryStructs;\n\n    address[] public LotteryWinnersArray;\n    struct LotteryWinnerStr{\n        uint playersId;\n        uint winnerCount;\n    }\n    mapping (address => LotteryWinnerStr) public LotteryWinnersMap;\n\n    address[] public WeeklyWinnersArray;\n    struct WeeklyWinnerStr{\n        uint playersId;\n        uint winnerCount;\n    }\n    mapping (address => WeeklyWinnerStr) public WeeklyWinnersMap;\n\n    // event\n    event LotteryCreated(address newLottery);\n\n  /* ToDo : Add & Complete Fallback routine */\n    fallback() external payable {\n    }\n    receive() external payable {\n    }\n\n    function balanceInPot() public view returns(uint){\n        return address(this).balance;\n    }\n\n    function withdraw() external onlyOwner {\n        payable(msg.sender).transfer(address(this).balance);\n    }\n\n    function setlotteryStructs(address _lotteryAddress, uint _totalBalance, address _winnerAddress, uint8 _lotteryType) external returns (bool) {\n        lotteryStructs[_lotteryAddress].totalBalance = _totalBalance;\n        lotteryStructs[_lotteryAddress].winnerAddress = _winnerAddress;\n        lotteryStructs[_lotteryAddress].lotteryType = LType(_lotteryType);\n        return true;\n    }\n\n    function setlotteryWinnersArrayMap(address _lotteryAddress, address _winnerAddress) external returns (uint) {\n        LotteryWinnersArray.push(_winnerAddress);\n        LotteryWinnersMap[_winnerAddress].playersId = LotteryWinnersArray.length;  // -1\n        LotteryWinnersMap[_winnerAddress].winnerCount++;\n        return LotteryWinnersArray.length ;  // -1\n    }\n\n    function setWeeklyWinnersArrayMap(address _lotteryAddress, address _winnerAddress) external returns (uint) {\n        WeeklyWinnersArray.push(_winnerAddress);\n        WeeklyWinnersMap[_winnerAddress].playersId = WeeklyWinnersArray.length;  // -1\n        WeeklyWinnersMap[_winnerAddress].winnerCount++;\n        return WeeklyWinnersArray.length ;  // -1\n    }\n\n    function clearlotteryWinnersArrayMap(address _lotteryAddress) external returns (bool) {\n        address _lotteryWinAddress;\n        for (uint256 index = 0; index < LotteryWinnersArray.length - 1; index++) {\n            _lotteryWinAddress = LotteryWinnersArray[index];\n            // if (LotteryWinnersMap[_lotteryWinAddress].playersId > 0) {\n            //     LotteryWinnersMap[_lotteryWinAddress].playersId = 0;\n            //     LotteryWinnersMap[_lotteryWinAddress].winnerCount = 0;\n            // }\n            delete LotteryWinnersMap[_lotteryWinAddress];\n        }\n        delete LotteryWinnersArray;\n        return true;\n    }\n\n    function clearWeeklyWinnersArrayMap(address _lotteryAddress) external returns (bool) {\n        address _lotteryWinAddress;\n        for (uint256 index = 0; index < WeeklyWinnersArray.length - 1; index++) {\n            _lotteryWinAddress = WeeklyWinnersArray[index];\n            // if (WeeklyWinnersMap[_lotteryWinAddress].playersId > 0) {\n            //     WeeklyWinnersMap[_lotteryWinAddress].playersId = 0;\n            //     WeeklyWinnersMap[_lotteryWinAddress].winnerCount = 0;\n            // }\n            delete WeeklyWinnersMap[_lotteryWinAddress];\n        }\n        delete WeeklyWinnersArray;\n        return true;\n    }\n\n    function createLottery(address _VRF) public onlyOwner {\n\n        // require(bytes(name).length > 0);\n        address newLottery = address(new LotteryCore(_VRF));\n        lotteries.push(newLottery);\n        lotteryStructs[newLottery].index = lotteries.length - 1;\n        lotteryStructs[newLottery].creator = msg.sender;\n        lotteryStructs[newLottery].totalBalance = 0;\n        lotteryStructs[newLottery].winnerAddress = address(0);\n\n        emit LotteryCreated( newLottery );\n    }\n\n    // function getLotteries() public view returns(address[]) {\n    //     return lotteries;\n    // }\n\n    function deleteLottery(address lotteryAddress) public  onlyOwner {\n        require(msg.sender == lotteryStructs[lotteryAddress].creator);\n        uint indexToDelete = lotteryStructs[lotteryAddress].index;\n        address lastAddress = lotteries[lotteries.length - 1];\n        lotteries[indexToDelete] = lastAddress;\n        // lotteries.length --;\n    }\n\n    // Events\n    // event LotteryCreated(\n    //     address lotteryAddress\n    // );\n}\n\n",
  "sourcePath": "/home/batis/SrcCode/myPRJ/SmartContBlockChain/BSCLottery/contracts/LotteryGenerator.sol",
  "compiler": {
    "name": "solc",
    "version": "0.8.9+commit.e5eed63a.Emscripten.clang"
  },
  "schemaVersion": "3.4.3",
  "updatedAt": "2022-04-21T04:15:40.944Z",
  "devdoc": {
    "author": "Batis ",
    "details": "Lottery Generator SmartContract - Parent of Core Lottery",
    "kind": "dev",
    "methods": {
      "owner()": {
        "details": "Returns the address of the current owner."
      },
      "renounceOwnership()": {
        "details": "Leaves the contract without owner. It will not be possible to call `onlyOwner` functions anymore. Can only be called by the current owner. NOTE: Renouncing ownership will leave the contract without an owner, thereby removing any functionality that is only available to the owner."
      },
      "transferOwnership(address)": {
        "details": "Transfers ownership of the contract to a new account (`newOwner`). Can only be called by the current owner."
      }
    },
    "title": "Lottery Generator Smart Contract.",
    "version": 1
  },
  "userdoc": {
    "kind": "user",
    "methods": {},
    "notice": "This SmartContract is responsible for Lottery Generation.",
    "version": 1
  }
}