{
  "contractName": "LotteryCore",
  "abi": [
    {
      "inputs": [
        {
          "internalType": "address",
          "name": "have",
          "type": "address"
        },
        {
          "internalType": "address",
          "name": "want",
          "type": "address"
        }
      ],
      "name": "OnlyCoordinatorCanFulfill",
      "type": "error"
    },
    {
      "anonymous": false,
      "inputs": [
        {
          "indexed": false,
          "internalType": "address",
          "name": "potWinner",
          "type": "address"
        },
        {
          "indexed": false,
          "internalType": "uint256",
          "name": "potBalance",
          "type": "uint256"
        }
      ],
      "name": "SelectWinner",
      "type": "event"
    },
    {
      "inputs": [
        {
          "internalType": "address",
          "name": "consumerAddress",
          "type": "address"
        }
      ],
      "name": "addConsumer",
      "outputs": [],
      "stateMutability": "nonpayable",
      "type": "function"
    },
    {
      "inputs": [
        {
          "internalType": "address",
          "name": "receivingWallet",
          "type": "address"
        }
      ],
      "name": "cancelSubscription",
      "outputs": [],
      "stateMutability": "nonpayable",
      "type": "function"
    },
    {
      "inputs": [],
      "name": "lottoryOwner",
      "outputs": [
        {
          "internalType": "address",
          "name": "",
          "type": "address"
        }
      ],
      "stateMutability": "view",
      "type": "function"
    },
    {
      "inputs": [
        {
          "internalType": "uint256",
          "name": "",
          "type": "uint256"
        }
      ],
      "name": "potPlayers",
      "outputs": [
        {
          "internalType": "address",
          "name": "",
          "type": "address"
        }
      ],
      "stateMutability": "view",
      "type": "function"
    },
    {
      "inputs": [
        {
          "internalType": "uint256",
          "name": "requestId",
          "type": "uint256"
        },
        {
          "internalType": "uint256[]",
          "name": "randomWords",
          "type": "uint256[]"
        }
      ],
      "name": "rawFulfillRandomWords",
      "outputs": [],
      "stateMutability": "nonpayable",
      "type": "function"
    },
    {
      "inputs": [
        {
          "internalType": "address",
          "name": "consumerAddress",
          "type": "address"
        }
      ],
      "name": "removeConsumer",
      "outputs": [],
      "stateMutability": "nonpayable",
      "type": "function"
    },
    {
      "inputs": [],
      "name": "requestRandomWords",
      "outputs": [],
      "stateMutability": "nonpayable",
      "type": "function"
    },
    {
      "inputs": [
        {
          "internalType": "uint256",
          "name": "",
          "type": "uint256"
        }
      ],
      "name": "s_randomWords",
      "outputs": [
        {
          "internalType": "uint256",
          "name": "",
          "type": "uint256"
        }
      ],
      "stateMutability": "view",
      "type": "function"
    },
    {
      "inputs": [],
      "name": "s_requestId",
      "outputs": [
        {
          "internalType": "uint256",
          "name": "",
          "type": "uint256"
        }
      ],
      "stateMutability": "view",
      "type": "function"
    },
    {
      "inputs": [],
      "name": "s_subscriptionId",
      "outputs": [
        {
          "internalType": "uint64",
          "name": "",
          "type": "uint64"
        }
      ],
      "stateMutability": "view",
      "type": "function"
    },
    {
      "inputs": [
        {
          "internalType": "uint256",
          "name": "amount",
          "type": "uint256"
        }
      ],
      "name": "topUpSubscription",
      "outputs": [],
      "stateMutability": "nonpayable",
      "type": "function"
    },
    {
      "inputs": [],
      "name": "balanceInPot",
      "outputs": [
        {
          "internalType": "uint256",
          "name": "",
          "type": "uint256"
        }
      ],
      "stateMutability": "view",
      "type": "function"
    },
    {
      "inputs": [],
      "name": "play",
      "outputs": [],
      "stateMutability": "payable",
      "type": "function"
    },
    {
      "inputs": [],
      "name": "select_Send_WinnerPrize",
      "outputs": [],
      "stateMutability": "nonpayable",
      "type": "function"
    },
    {
      "inputs": [],
      "name": "listPlayers",
      "outputs": [
        {
          "internalType": "address[]",
          "name": "",
          "type": "address[]"
        }
      ],
      "stateMutability": "view",
      "type": "function"
    },
    {
      "inputs": [
        {
          "internalType": "uint256",
          "name": "amount",
          "type": "uint256"
        },
        {
          "internalType": "address",
          "name": "to",
          "type": "address"
        }
      ],
      "name": "withdraw",
      "outputs": [],
      "stateMutability": "nonpayable",
      "type": "function"
    },
    {
      "inputs": [],
      "name": "withdraw",
      "outputs": [],
      "stateMutability": "nonpayable",
      "type": "function"
    }
  ],
  "bytecode": "0x60a0604052736168499c0cffcacd319c818142124b7a15e857ab600260006101000a81548173ffffffffffffffffffffffffffffffffffffffff021916908373ffffffffffffffffffffffffffffffffffffffff1602179055507301be23585060835e02b77ef475b0cc51aa1e0709600360006101000a81548173ffffffffffffffffffffffffffffffffffffffff021916908373ffffffffffffffffffffffffffffffffffffffff1602179055507fd89b2bf150e3b9e13446986e571fb9cab24b13cea0a43ea20a6049a85cc807cc60001b600455620186a0600560006101000a81548163ffffffff021916908363ffffffff1602179055506003600560046101000a81548161ffff021916908361ffff1602179055506002600560066101000a81548163ffffffff021916908363ffffffff1602179055503480156200014657600080fd5b50600260009054906101000a900473ffffffffffffffffffffffffffffffffffffffff168073ffffffffffffffffffffffffffffffffffffffff1660808173ffffffffffffffffffffffffffffffffffffffff168152505050600260009054906101000a900473ffffffffffffffffffffffffffffffffffffffff166000806101000a81548173ffffffffffffffffffffffffffffffffffffffff021916908373ffffffffffffffffffffffffffffffffffffffff160217905550600360009054906101000a900473ffffffffffffffffffffffffffffffffffffffff16600160006101000a81548173ffffffffffffffffffffffffffffffffffffffff021916908373ffffffffffffffffffffffffffffffffffffffff160217905550336008806101000a81548173ffffffffffffffffffffffffffffffffffffffff021916908373ffffffffffffffffffffffffffffffffffffffff160217905550620002b4620002ba60201b60201c565b620006a8565b60088054906101000a900473ffffffffffffffffffffffffffffffffffffffff1673ffffffffffffffffffffffffffffffffffffffff163373ffffffffffffffffffffffffffffffffffffffff16146200031357600080fd5b6000600167ffffffffffffffff8111156200033357620003326200054b565b5b604051908082528060200260200182016040528015620003625781602001602082028036833780820191505090505b50905030816000815181106200037d576200037c6200057a565b5b602002602001019073ffffffffffffffffffffffffffffffffffffffff16908173ffffffffffffffffffffffffffffffffffffffff168152505060008054906101000a900473ffffffffffffffffffffffffffffffffffffffff1673ffffffffffffffffffffffffffffffffffffffff1663a21a23e46040518163ffffffff1660e01b8152600401602060405180830381600087803b1580156200042057600080fd5b505af115801562000435573d6000803e3d6000fd5b505050506040513d601f19601f820116820180604052508101906200045b9190620005f3565b600860006101000a81548167ffffffffffffffff021916908367ffffffffffffffff16021790555060008054906101000a900473ffffffffffffffffffffffffffffffffffffffff1673ffffffffffffffffffffffffffffffffffffffff16637341c10c600860009054906101000a900467ffffffffffffffff1683600081518110620004ed57620004ec6200057a565b5b60200260200101516040518363ffffffff1660e01b8152600401620005149291906200067b565b600060405180830381600087803b1580156200052f57600080fd5b505af115801562000544573d6000803e3d6000fd5b5050505050565b7f4e487b7100000000000000000000000000000000000000000000000000000000600052604160045260246000fd5b7f4e487b7100000000000000000000000000000000000000000000000000000000600052603260045260246000fd5b600080fd5b600067ffffffffffffffff82169050919050565b620005cd81620005ae565b8114620005d957600080fd5b50565b600081519050620005ed81620005c2565b92915050565b6000602082840312156200060c576200060b620005a9565b5b60006200061c84828501620005dc565b91505092915050565b6200063081620005ae565b82525050565b600073ffffffffffffffffffffffffffffffffffffffff82169050919050565b6000620006638262000636565b9050919050565b620006758162000656565b82525050565b600060408201905062000692600083018562000625565b620006a160208301846200066a565b9392505050565b608051611a99620006cb600039600081816106aa01526106fe0152611a996000f3fe6080604052600436106100fd5760003560e01c806386850e931161009557806393e84cd91161006457806393e84cd9146102d2578063a8cc67aa146102dc578063e0c8628914610319578063e89e106a14610330578063f6eaffc81461035b576100fd565b806386850e931461022a5780638687e599146102535780638ac000211461027e57806393d81d58146102a9576100fd565b80631fe543e3116100d15780631fe543e3146101a85780633ccfd60b146101d157806353d51d46146101e857806364605d51146101ff576100fd565b8062f714ce146101025780630e27e3df1461012b578063112940f91461015457806314e599871461017d575b600080fd5b34801561010e57600080fd5b50610129600480360381019061012491906111c6565b610398565b005b34801561013757600080fd5b50610152600480360381019061014d9190611206565b6104a4565b005b34801561016057600080fd5b5061017b60048036038101906101769190611206565b6105a2565b005b34801561018957600080fd5b506101926106a0565b60405161019f9190611242565b60405180910390f35b3480156101b457600080fd5b506101cf60048036038101906101ca91906113b6565b6106a8565b005b3480156101dd57600080fd5b506101e6610768565b005b3480156101f457600080fd5b506101fd610841565b005b34801561020b57600080fd5b50610214610a2c565b60405161022191906114d0565b60405180910390f35b34801561023657600080fd5b50610251600480360381019061024c91906114f2565b610aba565b005b34801561025f57600080fd5b50610268610c1c565b604051610275919061152e565b60405180910390f35b34801561028a57600080fd5b50610293610c42565b6040516102a0919061156c565b60405180910390f35b3480156102b557600080fd5b506102d060048036038101906102cb9190611206565b610c5c565b005b6102da610d84565b005b3480156102e857600080fd5b5061030360048036038101906102fe91906114f2565b610e47565b604051610310919061152e565b60405180910390f35b34801561032557600080fd5b5061032e610e86565b005b34801561033c57600080fd5b50610345610fe5565b6040516103529190611242565b60405180910390f35b34801561036757600080fd5b50610382600480360381019061037d91906114f2565b610feb565b60405161038f9190611242565b60405180910390f35b60088054906101000a900473ffffffffffffffffffffffffffffffffffffffff1673ffffffffffffffffffffffffffffffffffffffff163373ffffffffffffffffffffffffffffffffffffffff16146103f057600080fd5b600160009054906101000a900473ffffffffffffffffffffffffffffffffffffffff1673ffffffffffffffffffffffffffffffffffffffff1663a9059cbb82846040518363ffffffff1660e01b815260040161044d929190611587565b602060405180830381600087803b15801561046757600080fd5b505af115801561047b573d6000803e3d6000fd5b505050506040513d601f19601f8201168201806040525081019061049f91906115e8565b505050565b60088054906101000a900473ffffffffffffffffffffffffffffffffffffffff1673ffffffffffffffffffffffffffffffffffffffff163373ffffffffffffffffffffffffffffffffffffffff16146104fc57600080fd5b60008054906101000a900473ffffffffffffffffffffffffffffffffffffffff1673ffffffffffffffffffffffffffffffffffffffff16639f87fad7600860009054906101000a900467ffffffffffffffff16836040518363ffffffff1660e01b815260040161056d929190611615565b600060405180830381600087803b15801561058757600080fd5b505af115801561059b573d6000803e3d6000fd5b5050505050565b60088054906101000a900473ffffffffffffffffffffffffffffffffffffffff1673ffffffffffffffffffffffffffffffffffffffff163373ffffffffffffffffffffffffffffffffffffffff16146105fa57600080fd5b60008054906101000a900473ffffffffffffffffffffffffffffffffffffffff1673ffffffffffffffffffffffffffffffffffffffff16637341c10c600860009054906101000a900467ffffffffffffffff16836040518363ffffffff1660e01b815260040161066b929190611615565b600060405180830381600087803b15801561068557600080fd5b505af1158015610699573d6000803e3d6000fd5b5050505050565b600047905090565b7f000000000000000000000000000000000000000000000000000000000000000073ffffffffffffffffffffffffffffffffffffffff163373ffffffffffffffffffffffffffffffffffffffff161461075a57337f00000000000000000000000000000000000000000000000000000000000000006040517f1cf993f400000000000000000000000000000000000000000000000000000000815260040161075192919061163e565b60405180910390fd5b610764828261100f565b5050565b600960009054906101000a900473ffffffffffffffffffffffffffffffffffffffff1673ffffffffffffffffffffffffffffffffffffffff163373ffffffffffffffffffffffffffffffffffffffff16146107f8576040517f08c379a00000000000000000000000000000000000000000000000000000000081526004016107ef906116ea565b60405180910390fd5b3373ffffffffffffffffffffffffffffffffffffffff166108fc479081150290604051600060405180830381858888f1935050505015801561083e573d6000803e3d6000fd5b50565b600960009054906101000a900473ffffffffffffffffffffffffffffffffffffffff1673ffffffffffffffffffffffffffffffffffffffff163373ffffffffffffffffffffffffffffffffffffffff16146108d1576040517f08c379a00000000000000000000000000000000000000000000000000000000081526004016108c8906116ea565b60405180910390fd5b6000600a8054905060066000815481106108ee576108ed61170a565b5b90600052602060002001546109039190611768565b90506000600a828154811061091b5761091a61170a565b5b9060005260206000200160009054906101000a900473ffffffffffffffffffffffffffffffffffffffff169050600067ffffffffffffffff81111561096357610962611273565b5b6040519080825280602002602001820160405280156109915781602001602082028036833780820191505090505b50600a90805190602001906109a792919061102a565b507f6eb97ff1a32e3ae51839dc6d5de1daf7e1f150b8f77aec47e07eb75ac6f345c081476040516109d99291906117f8565b60405180910390a18073ffffffffffffffffffffffffffffffffffffffff166108fc479081150290604051600060405180830381858888f19350505050158015610a27573d6000803e3d6000fd5b505050565b6060600a805480602002602001604051908101604052809291908181526020018280548015610ab057602002820191906000526020600020905b8160009054906101000a900473ffffffffffffffffffffffffffffffffffffffff1673ffffffffffffffffffffffffffffffffffffffff1681526020019060010190808311610a66575b5050505050905090565b60088054906101000a900473ffffffffffffffffffffffffffffffffffffffff1673ffffffffffffffffffffffffffffffffffffffff163373ffffffffffffffffffffffffffffffffffffffff1614610b1257600080fd5b600160009054906101000a900473ffffffffffffffffffffffffffffffffffffffff1673ffffffffffffffffffffffffffffffffffffffff16634000aea060008054906101000a900473ffffffffffffffffffffffffffffffffffffffff1683600860009054906101000a900467ffffffffffffffff16604051602001610b99919061156c565b6040516020818303038152906040526040518463ffffffff1660e01b8152600401610bc6939291906118a9565b602060405180830381600087803b158015610be057600080fd5b505af1158015610bf4573d6000803e3d6000fd5b505050506040513d601f19601f82011682018060405250810190610c1891906115e8565b5050565b600960009054906101000a900473ffffffffffffffffffffffffffffffffffffffff1681565b600860009054906101000a900467ffffffffffffffff1681565b60088054906101000a900473ffffffffffffffffffffffffffffffffffffffff1673ffffffffffffffffffffffffffffffffffffffff163373ffffffffffffffffffffffffffffffffffffffff1614610cb457600080fd5b60008054906101000a900473ffffffffffffffffffffffffffffffffffffffff1673ffffffffffffffffffffffffffffffffffffffff1663d7ae1d30600860009054906101000a900467ffffffffffffffff16836040518363ffffffff1660e01b8152600401610d25929190611615565b600060405180830381600087803b158015610d3f57600080fd5b505af1158015610d53573d6000803e3d6000fd5b505050506000600860006101000a81548167ffffffffffffffff021916908367ffffffffffffffff16021790555050565b662386f26fc100003410158015610da3575068056bc75e2d6310000034105b610de2576040517f08c379a0000000000000000000000000000000000000000000000000000000008152600401610dd990611959565b60405180910390fd5b600a339080600181540180825580915050600190039060005260206000200160009091909190916101000a81548173ffffffffffffffffffffffffffffffffffffffff021916908373ffffffffffffffffffffffffffffffffffffffff160217905550565b600a8181548110610e5757600080fd5b906000526020600020016000915054906101000a900473ffffffffffffffffffffffffffffffffffffffff1681565b60088054906101000a900473ffffffffffffffffffffffffffffffffffffffff1673ffffffffffffffffffffffffffffffffffffffff163373ffffffffffffffffffffffffffffffffffffffff1614610ede57600080fd5b60008054906101000a900473ffffffffffffffffffffffffffffffffffffffff1673ffffffffffffffffffffffffffffffffffffffff16635d3b1d30600454600860009054906101000a900467ffffffffffffffff16600560049054906101000a900461ffff16600560009054906101000a900463ffffffff16600560069054906101000a900463ffffffff166040518663ffffffff1660e01b8152600401610f8b9594939291906119ce565b602060405180830381600087803b158015610fa557600080fd5b505af1158015610fb9573d6000803e3d6000fd5b505050506040513d601f19601f82011682018060405250810190610fdd9190611a36565b600781905550565b60075481565b60068181548110610ffb57600080fd5b906000526020600020016000915090505481565b80600690805190602001906110259291906110b4565b505050565b8280548282559060005260206000209081019282156110a3579160200282015b828111156110a25782518260006101000a81548173ffffffffffffffffffffffffffffffffffffffff021916908373ffffffffffffffffffffffffffffffffffffffff1602179055509160200191906001019061104a565b5b5090506110b09190611101565b5090565b8280548282559060005260206000209081019282156110f0579160200282015b828111156110ef5782518255916020019190600101906110d4565b5b5090506110fd9190611101565b5090565b5b8082111561111a576000816000905550600101611102565b5090565b6000604051905090565b600080fd5b600080fd5b6000819050919050565b61114581611132565b811461115057600080fd5b50565b6000813590506111628161113c565b92915050565b600073ffffffffffffffffffffffffffffffffffffffff82169050919050565b600061119382611168565b9050919050565b6111a381611188565b81146111ae57600080fd5b50565b6000813590506111c08161119a565b92915050565b600080604083850312156111dd576111dc611128565b5b60006111eb85828601611153565b92505060206111fc858286016111b1565b9150509250929050565b60006020828403121561121c5761121b611128565b5b600061122a848285016111b1565b91505092915050565b61123c81611132565b82525050565b60006020820190506112576000830184611233565b92915050565b600080fd5b6000601f19601f8301169050919050565b7f4e487b7100000000000000000000000000000000000000000000000000000000600052604160045260246000fd5b6112ab82611262565b810181811067ffffffffffffffff821117156112ca576112c9611273565b5b80604052505050565b60006112dd61111e565b90506112e982826112a2565b919050565b600067ffffffffffffffff82111561130957611308611273565b5b602082029050602081019050919050565b600080fd5b600061133261132d846112ee565b6112d3565b905080838252602082019050602084028301858111156113555761135461131a565b5b835b8181101561137e578061136a8882611153565b845260208401935050602081019050611357565b5050509392505050565b600082601f83011261139d5761139c61125d565b5b81356113ad84826020860161131f565b91505092915050565b600080604083850312156113cd576113cc611128565b5b60006113db85828601611153565b925050602083013567ffffffffffffffff8111156113fc576113fb61112d565b5b61140885828601611388565b9150509250929050565b600081519050919050565b600082825260208201905092915050565b6000819050602082019050919050565b61144781611188565b82525050565b6000611459838361143e565b60208301905092915050565b6000602082019050919050565b600061147d82611412565b611487818561141d565b93506114928361142e565b8060005b838110156114c35781516114aa888261144d565b97506114b583611465565b925050600181019050611496565b5085935050505092915050565b600060208201905081810360008301526114ea8184611472565b905092915050565b60006020828403121561150857611507611128565b5b600061151684828501611153565b91505092915050565b61152881611188565b82525050565b6000602082019050611543600083018461151f565b92915050565b600067ffffffffffffffff82169050919050565b61156681611549565b82525050565b6000602082019050611581600083018461155d565b92915050565b600060408201905061159c600083018561151f565b6115a96020830184611233565b9392505050565b60008115159050919050565b6115c5816115b0565b81146115d057600080fd5b50565b6000815190506115e2816115bc565b92915050565b6000602082840312156115fe576115fd611128565b5b600061160c848285016115d3565b91505092915050565b600060408201905061162a600083018561155d565b611637602083018461151f565b9392505050565b6000604082019050611653600083018561151f565b611660602083018461151f565b9392505050565b600082825260208201905092915050565b7f4f776e6572204f6e6c7921202e20596f752068617665206e6f7420746865207260008201527f69676874204163636573732e0000000000000000000000000000000000000000602082015250565b60006116d4602c83611667565b91506116df82611678565b604082019050919050565b60006020820190508181036000830152611703816116c7565b9050919050565b7f4e487b7100000000000000000000000000000000000000000000000000000000600052603260045260246000fd5b7f4e487b7100000000000000000000000000000000000000000000000000000000600052601260045260246000fd5b600061177382611132565b915061177e83611132565b92508261178e5761178d611739565b5b828206905092915050565b6000819050919050565b60006117be6117b96117b484611168565b611799565b611168565b9050919050565b60006117d0826117a3565b9050919050565b60006117e2826117c5565b9050919050565b6117f2816117d7565b82525050565b600060408201905061180d60008301856117e9565b61181a6020830184611233565b9392505050565b600081519050919050565b600082825260208201905092915050565b60005b8381101561185b578082015181840152602081019050611840565b8381111561186a576000848401525b50505050565b600061187b82611821565b611885818561182c565b935061189581856020860161183d565b61189e81611262565b840191505092915050565b60006060820190506118be600083018661151f565b6118cb6020830185611233565b81810360408301526118dd8184611870565b9050949350505050565b7f56616c75652073686f756c64206265206265747765656e20302e30312026203160008201527f303020424e420000000000000000000000000000000000000000000000000000602082015250565b6000611943602683611667565b915061194e826118e7565b604082019050919050565b6000602082019050818103600083015261197281611936565b9050919050565b6000819050919050565b61198c81611979565b82525050565b600061ffff82169050919050565b6119a981611992565b82525050565b600063ffffffff82169050919050565b6119c8816119af565b82525050565b600060a0820190506119e36000830188611983565b6119f0602083018761155d565b6119fd60408301866119a0565b611a0a60608301856119bf565b611a1760808301846119bf565b9695505050505050565b600081519050611a308161113c565b92915050565b600060208284031215611a4c57611a4b611128565b5b6000611a5a84828501611a21565b9150509291505056fea26469706673582212207be3e13498471f7fec667aba607d1ed514e7b4e332103d89ad964d09cbfbc2a964736f6c63430008090033",
  "immutableReferences": {
    "10": [
      {
        "length": 32,
        "start": 1706
      },
      {
        "length": 32,
        "start": 1790
      }
    ]
  },
  "source": "// SPDX-License-Identifier: MIT\npragma solidity ^0.8.0;\n\nimport '@openzeppelin/contracts/access/Ownable.sol';\n// import './VRFv2Consumer.sol' ;\nimport './VRFv2SubscriptionManager.sol';\n// import \"truffle/Console.sol\";\n\n\ncontract LotteryCore is VRFv2SubscriptionManager {\n\n  address public lottoryOwner;\n  address[] public potPlayers;\n\n  struct PotPlayer{\n    uint index;\n    uint pValue;\n  }\n\n  struct LotteryPot{\n    string potLabel;\n    uint entryCount;\n    uint potSerial;\n    uint potValue;\n    // mapping(address => PotPlayer) players;\n  }\n\n  event SelectWinner(address potWinner, uint potBalance);\n\n  modifier ownerOnly() {\n    require(msg.sender == lottoryOwner, \"Owner Only! . You have not the right Access.\");\n    _;\n  }\n\n  // fallback() external payable {\n  //       // player name will be unknown\n  // }\n\n  function balanceInPot() public view returns(uint){\n    return address(this).balance;\n  }\n\n  function play() public payable {\n    require(msg.value >= 0.01 ether && msg.value < 100 ether, \"Value should be between 0.01 & 100 BNB\");\n    potPlayers.push(msg.sender);\n  }\n\n  function randomGenerator() private view returns (uint) {\n    return uint(\n      keccak256(\n        abi.encodePacked(\n          block.difficulty, block.timestamp, potPlayers )));\n  }\n\n  function select_Send_WinnerPrize() public ownerOnly {\n    // uint winnerIndex = randomGenerator() % potPlayers.length;\n    uint winnerIndex = s_randomWords[0] % potPlayers.length;\n    address payable potWinner = payable(potPlayers[winnerIndex]);\n    potPlayers = new address[](0);\n    emit SelectWinner(potWinner, address(this).balance);\n    potWinner.transfer(address(this).balance);\n    // potPlayers[winnerIndex].transfer(address(this).balance);\n    // console.log(potWinner);\n  }\n\n  function listPlayers() public view returns (address[] memory){\n    return potPlayers;\n  }\n\n  function withdraw() external ownerOnly {\n    payable(msg.sender).transfer(address(this).balance);\n  }\n\n}\n",
  "sourcePath": "/home/batis/SrcCode/myPRJ/SmartContBlockChain/BSCLottery/contracts/LotteryCore.sol",
  "compiler": {
    "name": "solc",
    "version": "0.8.9+commit.e5eed63a.Emscripten.clang"
  },
  "schemaVersion": "3.4.3",
  "updatedAt": "2022-03-28T21:03:57.439Z",
  "devdoc": {
    "kind": "dev",
    "methods": {},
    "version": 1
  },
  "userdoc": {
    "kind": "user",
    "methods": {},
    "version": 1
  }
}