{
  "contractName": "LotteryCore",
  "abi": [
    {
      "inputs": [
        {
          "internalType": "uint64",
          "name": "subscriptionId",
          "type": "uint64"
        },
        {
          "internalType": "address",
          "name": "generatorLotteryAddress",
          "type": "address"
        },
        {
          "internalType": "address",
          "name": "WeeklyLotteryAddress",
          "type": "address"
        },
        {
          "internalType": "address",
          "name": "MonthlyLotteryAddress",
          "type": "address"
        },
        {
          "internalType": "address",
          "name": "LiquidityPoolAddr",
          "type": "address"
        }
      ],
      "stateMutability": "nonpayable",
      "type": "constructor"
    },
    {
      "inputs": [
        {
          "internalType": "address",
          "name": "have",
          "type": "address"
        },
        {
          "internalType": "address",
          "name": "want",
          "type": "address"
        }
      ],
      "name": "OnlyCoordinatorCanFulfill",
      "type": "error"
    },
    {
      "anonymous": false,
      "inputs": [
        {
          "indexed": true,
          "internalType": "address",
          "name": "previousOwner",
          "type": "address"
        },
        {
          "indexed": true,
          "internalType": "address",
          "name": "newOwner",
          "type": "address"
        }
      ],
      "name": "OwnershipTransferred",
      "type": "event"
    },
    {
      "anonymous": false,
      "inputs": [
        {
          "indexed": false,
          "internalType": "address",
          "name": "potPlayer",
          "type": "address"
        },
        {
          "indexed": false,
          "internalType": "uint256",
          "name": "playerId",
          "type": "uint256"
        },
        {
          "indexed": false,
          "internalType": "uint256",
          "name": "PlayerValue",
          "type": "uint256"
        },
        {
          "indexed": false,
          "internalType": "uint256",
          "name": "ticketNumber",
          "type": "uint256"
        }
      ],
      "name": "PlayerRegister",
      "type": "event"
    },
    {
      "anonymous": false,
      "inputs": [
        {
          "indexed": false,
          "internalType": "address",
          "name": "potPlayer",
          "type": "address"
        },
        {
          "indexed": false,
          "internalType": "uint256[]",
          "name": "playerId",
          "type": "uint256[]"
        },
        {
          "indexed": false,
          "internalType": "uint256",
          "name": "playCount",
          "type": "uint256"
        },
        {
          "indexed": false,
          "internalType": "uint256",
          "name": "playerValue",
          "type": "uint256"
        },
        {
          "indexed": false,
          "internalType": "uint256",
          "name": "ticketNumber",
          "type": "uint256"
        }
      ],
      "name": "PlayerTotalValue",
      "type": "event"
    },
    {
      "anonymous": false,
      "inputs": [
        {
          "indexed": false,
          "internalType": "address",
          "name": "potWinner",
          "type": "address"
        },
        {
          "indexed": false,
          "internalType": "uint256",
          "name": "winnerPrize",
          "type": "uint256"
        }
      ],
      "name": "SelectWinnerAddress",
      "type": "event"
    },
    {
      "anonymous": false,
      "inputs": [
        {
          "indexed": false,
          "internalType": "uint256",
          "name": "winnerIndex",
          "type": "uint256"
        },
        {
          "indexed": false,
          "internalType": "uint256",
          "name": "potBalance",
          "type": "uint256"
        },
        {
          "indexed": false,
          "internalType": "uint256",
          "name": "winnerPrize",
          "type": "uint256"
        }
      ],
      "name": "SelectWinnerIndex",
      "type": "event"
    },
    {
      "anonymous": false,
      "inputs": [
        {
          "indexed": false,
          "internalType": "address",
          "name": "receiver",
          "type": "address"
        },
        {
          "indexed": false,
          "internalType": "uint256",
          "name": "TrxValue",
          "type": "uint256"
        }
      ],
      "name": "TotalPayment",
      "type": "event"
    },
    {
      "stateMutability": "payable",
      "type": "fallback",
      "payable": true
    },
    {
      "inputs": [],
      "name": "owner",
      "outputs": [
        {
          "internalType": "address",
          "name": "",
          "type": "address"
        }
      ],
      "stateMutability": "view",
      "type": "function",
      "constant": true
    },
    {
      "inputs": [],
      "name": "potStartTime",
      "outputs": [
        {
          "internalType": "uint256",
          "name": "",
          "type": "uint256"
        }
      ],
      "stateMutability": "view",
      "type": "function",
      "constant": true
    },
    {
      "inputs": [],
      "name": "potWinnerPrize",
      "outputs": [
        {
          "internalType": "uint256",
          "name": "",
          "type": "uint256"
        }
      ],
      "stateMutability": "view",
      "type": "function",
      "constant": true
    },
    {
      "inputs": [
        {
          "internalType": "uint256",
          "name": "requestId",
          "type": "uint256"
        },
        {
          "internalType": "uint256[]",
          "name": "randomWords",
          "type": "uint256[]"
        }
      ],
      "name": "rawFulfillRandomWords",
      "outputs": [],
      "stateMutability": "nonpayable",
      "type": "function"
    },
    {
      "inputs": [],
      "name": "realPLayerCount",
      "outputs": [
        {
          "internalType": "uint256",
          "name": "",
          "type": "uint256"
        }
      ],
      "stateMutability": "view",
      "type": "function",
      "constant": true
    },
    {
      "inputs": [],
      "name": "renounceOwnership",
      "outputs": [],
      "stateMutability": "nonpayable",
      "type": "function"
    },
    {
      "inputs": [
        {
          "internalType": "uint256",
          "name": "",
          "type": "uint256"
        }
      ],
      "name": "s_randomWords",
      "outputs": [
        {
          "internalType": "uint256",
          "name": "",
          "type": "uint256"
        }
      ],
      "stateMutability": "view",
      "type": "function",
      "constant": true
    },
    {
      "inputs": [],
      "name": "s_requestId",
      "outputs": [
        {
          "internalType": "uint256",
          "name": "",
          "type": "uint256"
        }
      ],
      "stateMutability": "view",
      "type": "function",
      "constant": true
    },
    {
      "inputs": [
        {
          "internalType": "address",
          "name": "newOwner",
          "type": "address"
        }
      ],
      "name": "transferOwnership",
      "outputs": [],
      "stateMutability": "nonpayable",
      "type": "function"
    },
    {
      "stateMutability": "payable",
      "type": "receive",
      "payable": true
    },
    {
      "inputs": [],
      "name": "balanceInPot",
      "outputs": [
        {
          "internalType": "uint256",
          "name": "",
          "type": "uint256"
        }
      ],
      "stateMutability": "view",
      "type": "function",
      "constant": true
    },
    {
      "inputs": [],
      "name": "withdraw",
      "outputs": [],
      "stateMutability": "nonpayable",
      "type": "function"
    },
    {
      "inputs": [],
      "name": "requestRandomWords",
      "outputs": [],
      "stateMutability": "nonpayable",
      "type": "function"
    },
    {
      "inputs": [
        {
          "internalType": "uint256",
          "name": "numerator",
          "type": "uint256"
        },
        {
          "internalType": "uint256",
          "name": "denominator",
          "type": "uint256"
        }
      ],
      "name": "getDivided",
      "outputs": [
        {
          "internalType": "uint256",
          "name": "quotient",
          "type": "uint256"
        },
        {
          "internalType": "uint256",
          "name": "remainder",
          "type": "uint256"
        }
      ],
      "stateMutability": "pure",
      "type": "function",
      "constant": true
    },
    {
      "inputs": [],
      "name": "potInitialize",
      "outputs": [
        {
          "internalType": "bool",
          "name": "success",
          "type": "bool"
        }
      ],
      "stateMutability": "nonpayable",
      "type": "function"
    },
    {
      "inputs": [],
      "name": "play",
      "outputs": [
        {
          "internalType": "bool",
          "name": "success",
          "type": "bool"
        }
      ],
      "stateMutability": "payable",
      "type": "function",
      "payable": true
    },
    {
      "inputs": [],
      "name": "select_Winner",
      "outputs": [
        {
          "internalType": "bool",
          "name": "success",
          "type": "bool"
        }
      ],
      "stateMutability": "nonpayable",
      "type": "function"
    },
    {
      "inputs": [],
      "name": "select_Winner_Continue",
      "outputs": [
        {
          "internalType": "bool",
          "name": "success",
          "type": "bool"
        }
      ],
      "stateMutability": "nonpayable",
      "type": "function"
    },
    {
      "inputs": [
        {
          "internalType": "address",
          "name": "_WeeklyPotAddress",
          "type": "address"
        }
      ],
      "name": "set_WeeklyPotAddress",
      "outputs": [],
      "stateMutability": "nonpayable",
      "type": "function"
    },
    {
      "inputs": [
        {
          "internalType": "address",
          "name": "_MonthlyPotAddress",
          "type": "address"
        }
      ],
      "name": "set_MonthlyPotAddress",
      "outputs": [],
      "stateMutability": "nonpayable",
      "type": "function"
    },
    {
      "inputs": [
        {
          "internalType": "address",
          "name": "_contractAddr",
          "type": "address"
        }
      ],
      "name": "set_generatorLotteryAddress",
      "outputs": [],
      "stateMutability": "nonpayable",
      "type": "function"
    },
    {
      "inputs": [
        {
          "internalType": "address",
          "name": "_LiquidityPoolAddress",
          "type": "address"
        }
      ],
      "name": "set_LiquidityPoolAddress",
      "outputs": [],
      "stateMutability": "nonpayable",
      "type": "function"
    },
    {
      "inputs": [
        {
          "internalType": "address",
          "name": "_DirectorAddress",
          "type": "address"
        }
      ],
      "name": "setDirector",
      "outputs": [],
      "stateMutability": "nonpayable",
      "type": "function"
    },
    {
      "inputs": [],
      "name": "listPlayers",
      "outputs": [
        {
          "internalType": "address[]",
          "name": "",
          "type": "address[]"
        }
      ],
      "stateMutability": "view",
      "type": "function",
      "constant": true
    },
    {
      "inputs": [],
      "name": "getLotteryTickets",
      "outputs": [
        {
          "internalType": "uint256[]",
          "name": "",
          "type": "uint256[]"
        }
      ],
      "stateMutability": "view",
      "type": "function",
      "constant": true
    },
    {
      "inputs": [],
      "name": "isPotActive",
      "outputs": [
        {
          "internalType": "bool",
          "name": "",
          "type": "bool"
        }
      ],
      "stateMutability": "view",
      "type": "function",
      "constant": true
    },
    {
      "inputs": [],
      "name": "getTicketPrice",
      "outputs": [
        {
          "internalType": "uint256",
          "name": "",
          "type": "uint256"
        }
      ],
      "stateMutability": "pure",
      "type": "function",
      "constant": true
    },
    {
      "inputs": [],
      "name": "getTicketAmount",
      "outputs": [
        {
          "internalType": "uint256",
          "name": "",
          "type": "uint256"
        }
      ],
      "stateMutability": "view",
      "type": "function",
      "constant": true
    },
    {
      "inputs": [],
      "name": "getPlayersNumber",
      "outputs": [
        {
          "internalType": "uint256",
          "name": "",
          "type": "uint256"
        }
      ],
      "stateMutability": "view",
      "type": "function",
      "constant": true
    },
    {
      "inputs": [],
      "name": "getWinners",
      "outputs": [
        {
          "internalType": "address",
          "name": "",
          "type": "address"
        },
        {
          "internalType": "uint256",
          "name": "",
          "type": "uint256"
        }
      ],
      "stateMutability": "view",
      "type": "function",
      "constant": true
    },
    {
      "inputs": [],
      "name": "isReadySelectWinner",
      "outputs": [
        {
          "internalType": "bool",
          "name": "",
          "type": "bool"
        }
      ],
      "stateMutability": "view",
      "type": "function",
      "constant": true
    },
    {
      "inputs": [],
      "name": "getStartedTime",
      "outputs": [
        {
          "internalType": "uint256",
          "name": "",
          "type": "uint256"
        }
      ],
      "stateMutability": "view",
      "type": "function",
      "constant": true
    },
    {
      "inputs": [],
      "name": "getPotDirector",
      "outputs": [
        {
          "internalType": "address",
          "name": "",
          "type": "address"
        }
      ],
      "stateMutability": "view",
      "type": "function",
      "constant": true
    },
    {
      "inputs": [],
      "name": "getAllContractAddresses",
      "outputs": [
        {
          "internalType": "address",
          "name": "gAddress",
          "type": "address"
        },
        {
          "internalType": "address",
          "name": "lAddress",
          "type": "address"
        },
        {
          "internalType": "address",
          "name": "wAddress",
          "type": "address"
        },
        {
          "internalType": "address",
          "name": "mAddress",
          "type": "address"
        }
      ],
      "stateMutability": "view",
      "type": "function",
      "constant": true
    },
    {
      "inputs": [
        {
          "internalType": "address",
          "name": "PlayerAddress",
          "type": "address"
        }
      ],
      "name": "getPlayerAmounts",
      "outputs": [
        {
          "internalType": "uint256",
          "name": "",
          "type": "uint256"
        },
        {
          "internalType": "uint256",
          "name": "",
          "type": "uint256"
        }
      ],
      "stateMutability": "view",
      "type": "function",
      "constant": true
    },
    {
      "inputs": [
        {
          "internalType": "address",
          "name": "PlayerAddress",
          "type": "address"
        }
      ],
      "name": "getPlayerValue",
      "outputs": [
        {
          "internalType": "uint256",
          "name": "",
          "type": "uint256"
        }
      ],
      "stateMutability": "view",
      "type": "function",
      "constant": true
    }
  ],
  "bytecode": "0x60a0604052600380546001600160a01b0319908116736a2aad07396b36fe02a22b33cf443582f682c82f17909155600480549091167384b9b910527ad5c03a9ca831909e21e236ea7b061790557fd4bb89654db74673a187bd804519e65e3f71a52bc55f11da7601a13dcf5053146005556006805466010003000186a06001600160501b03199091161790556000600e819055600f819055601055348015620000a757600080fd5b506040516200248c3803806200248c833981016040819052620000ca9162000218565b6003546001600160a01b0316620000e133620001ab565b6001600160a01b03908116608052600354600180549183166001600160a01b0319928316179055600454600280549184166001600160e01b031990921691909117600160a01b6001600160401b03999099168902179055600d80546001600160a81b0319163360ff60a01b19161790971760ff60a81b19169096556011805460ff1916905542600e5560098054871695821695909517909455600a80548616918516919091179055600b8054851692841692909217909155600c8054909316911617905562000295565b600080546001600160a01b038381166001600160a01b0319831681178455604051919092169283917f8be0079c531659141344cd1fd0a4f28419497f9722a3daafe3b4186f6b6457e09190a35050565b80516001600160a01b03811681146200021357600080fd5b919050565b600080600080600060a086880312156200023157600080fd5b85516001600160401b03811681146200024957600080fd5b94506200025960208701620001fb565b93506200026960408701620001fb565b92506200027960608701620001fb565b91506200028960808701620001fb565b90509295509295909350565b6080516121d4620002b86000396000818161075201526107ad01526121d46000f3fe6080604052600436106102175760003560e01c80636cf6995811610126578063c5ae6f3e116100a7578063e0c8628911610079578063e8b05e3811610061578063e8b05e3814610638578063f2fde38b14610657578063f6eaffc81461067757005b8063e0c862891461060d578063e89e106a1461062257005b8063c5ae6f3e14610580578063c7c15ac91461059e578063d7573c11146105b4578063df15c37e146105ca57005b806387bb7ae0116100f857806393e84cd9116100e057806393e84cd91461052a5780639e94d5ab14610532578063a8078b7a1461056b57005b806387bb7ae0146104de5780638da5cb5b146104f857005b80636cf699581461047f578063715018a614610494578063766eef11146104a95780638613e4cf146104be57005b80633ccfd60b116101b05780634442713c11610182578063614f6f871161016a578063614f6f871461042857806364605d51146104485780636c2534371461046a57005b80634442713c146103e95780635efaf0441461040857005b80633ccfd60b1461037c5780633f4600c3146103915780633fa420c4146103a7578063442db8fb146103c757005b80632ac75ab5116101e95780632ac75ab5146102b75780633298944a146102dc5780633818b9ef1461031a5780633b33b61a1461032f57005b806314e5998714610220578063194d02d7146102425780631fe543e31461027757806326ba43191461029757005b3661021e57005b005b34801561022c57600080fd5b50475b6040519081526020015b60405180910390f35b34801561024e57600080fd5b5061026261025d366004611e50565b610697565b60408051928352602083019190915201610239565b34801561028357600080fd5b5061021e610292366004611e88565b610747565b3480156102a357600080fd5b5061021e6102b2366004611f52565b6107e8565b3480156102c357600080fd5b506102cc610877565b6040519015158152602001610239565b3480156102e857600080fd5b506102626102f7366004611f52565b6001600160a01b0316600090815260126020526040902080546001909101549091565b34801561032657600080fd5b506102cc6109eb565b34801561033b57600080fd5b50600954600a54600b54600c54604080516001600160a01b039586168152938516602085015291841691830191909152919091166060820152608001610239565b34801561038857600080fd5b5061021e610bcb565b34801561039d57600080fd5b5061022f60105481565b3480156103b357600080fd5b5061021e6103c2366004611f52565b610c54565b3480156103d357600080fd5b506103dc610ce3565b6040516102399190611f82565b3480156103f557600080fd5b50600d54600160a01b900460ff166102cc565b34801561041457600080fd5b5061021e610423366004611f52565b610d3b565b34801561043457600080fd5b5061021e610443366004611f52565b610dca565b34801561045457600080fd5b5061045d610e59565b6040516102399190611fc6565b34801561047657600080fd5b506102cc610eba565b34801561048b57600080fd5b5060145461022f565b3480156104a057600080fd5b5061021e610fa5565b3480156104b557600080fd5b5060135461022f565b3480156104ca57600080fd5b5061021e6104d9366004611f52565b61100b565b3480156104ea57600080fd5b50662386f26fc1000061022f565b34801561050457600080fd5b506000546001600160a01b03165b6040516001600160a01b039091168152602001610239565b6102cc611087565b34801561053e57600080fd5b5061022f61054d366004611f52565b6001600160a01b031660009081526012602052604090206001015490565b34801561057757600080fd5b5061022f611585565b34801561058c57600080fd5b506017546001600160a01b0316610512565b3480156105aa57600080fd5b5061022f600f5481565b3480156105c057600080fd5b5061022f600e5481565b3480156105d657600080fd5b506105ee6016546010546001600160a01b0390911691565b604080516001600160a01b039093168352602083019190915201610239565b34801561061957600080fd5b5061021e61159a565b34801561062e57600080fd5b5061022f60085481565b34801561064457600080fd5b50600d54600160a81b900460ff166102cc565b34801561066357600080fd5b5061021e610672366004611f52565b6116ec565b34801561068357600080fd5b5061022f610692366004612007565b6117cb565b6000806106a8565b60405180910390fd5b6000841161071e5760405162461bcd60e51b815260206004820152602b60248201527f4469766973696f6e206973204e6f7420506f737369626c65202c20427567206960448201527f6e204e756d626572732021000000000000000000000000000000000000000000606482015260840161069f565b610728838561204c565b91506107348284612060565b61073e908561207f565b90509250929050565b336001600160a01b037f000000000000000000000000000000000000000000000000000000000000000016146107da576040517f1cf993f40000000000000000000000000000000000000000000000000000000081523360048201526001600160a01b037f000000000000000000000000000000000000000000000000000000000000000016602482015260440161069f565b6107e482826117ec565b5050565b6000546001600160a01b031633146108425760405162461bcd60e51b815260206004820181905260248201527f4f776e61626c653a2063616c6c6572206973206e6f7420746865206f776e6572604482015260640161069f565b6001600160a01b03811661085557600080fd5b601780546001600160a01b0319166001600160a01b0392909216919091179055565b6017546000906001600160a01b031633148061089d5750600d546001600160a01b031633145b6108e05760405162461bcd60e51b81526020600482015260146024820152735065726d697373696f6e2044656e69656420212160601b604482015260640161069f565b600d54600160a81b900460ff1615156001146109645760405162461bcd60e51b815260206004820152602a60248201527f54686520506f74206973206e6f7420726561647920666f722053656c6563742060448201527f7468652057696e6e657200000000000000000000000000000000000000000000606482015260840161069f565b60115460ff16156109dd5760405162461bcd60e51b815260206004820152602660248201527f5468652057696e6e657220686173206265656e2053656c65637465642062656660448201527f6f72652021210000000000000000000000000000000000000000000000000000606482015260840161069f565b6109e561159a565b50600190565b6017546000906001600160a01b0316331480610a115750600d546001600160a01b031633145b610a545760405162461bcd60e51b81526020600482015260146024820152735065726d697373696f6e2044656e69656420212160601b604482015260640161069f565b60115460ff161515600114610ad15760405162461bcd60e51b815260206004820152602660248201527f5468652057696e6e657220686173204e6f74206265656e2053656c656374656460448201527f2059657420210000000000000000000000000000000000000000000000000000606482015260840161069f565b60006014805490506007600081548110610aed57610aed612096565b9060005260206000200154610b0291906120ac565b905060148181548110610b1757610b17612096565b90600052602060002001549050600080600080610b3385611811565b604080518a8152476020820152908101859052939750919550935091507f274f2e5ea35472f60f411beb007713c0f1c1b574f260789eedee1789cd49d9f59060600160405180910390a1610b888547866118d1565b50610b938585611a78565b610b9e838383611b18565b610ba6611c9d565b5050600d805461ffff60a01b1916905550506011805460ff1916905550600192915050565b6000546001600160a01b03163314610c255760405162461bcd60e51b815260206004820181905260248201527f4f776e61626c653a2063616c6c6572206973206e6f7420746865206f776e6572604482015260640161069f565b60405133904780156108fc02916000818181858888f19350505050158015610c51573d6000803e3d6000fd5b50565b6000546001600160a01b03163314610cae5760405162461bcd60e51b815260206004820181905260248201527f4f776e61626c653a2063616c6c6572206973206e6f7420746865206f776e6572604482015260640161069f565b6001600160a01b038116610cc157600080fd5b600b80546001600160a01b0319166001600160a01b0392909216919091179055565b60606014805480602002602001604051908101604052809291908181526020018280548015610d3157602002820191906000526020600020905b815481526020019060010190808311610d1d575b5050505050905090565b6000546001600160a01b03163314610d955760405162461bcd60e51b815260206004820181905260248201527f4f776e61626c653a2063616c6c6572206973206e6f7420746865206f776e6572604482015260640161069f565b6001600160a01b038116610da857600080fd5b600a80546001600160a01b0319166001600160a01b0392909216919091179055565b6000546001600160a01b03163314610e245760405162461bcd60e51b815260206004820181905260248201527f4f776e61626c653a2063616c6c6572206973206e6f7420746865206f776e6572604482015260640161069f565b6001600160a01b038116610e3757600080fd5b600c80546001600160a01b0319166001600160a01b0392909216919091179055565b60606013805480602002602001604051908101604052809291908181526020018280548015610d3157602002820191906000526020600020905b81546001600160a01b03168152600190910190602001808311610e93575050505050905090565b6017546000906001600160a01b0316331480610ee05750600d546001600160a01b031633145b610f235760405162461bcd60e51b81526020600482015260146024820152735065726d697373696f6e2044656e69656420212160601b604482015260640161069f565b600d54600160a01b900460ff1615610f7d5760405162461bcd60e51b815260206004820152601b60248201527f54686520506f742069732073746172746564206265666f726520210000000000604482015260640161069f565b50600d805461ffff60a01b1916600160a01b17905542600e556011805460ff19169055600190565b6000546001600160a01b03163314610fff5760405162461bcd60e51b815260206004820181905260248201527f4f776e61626c653a2063616c6c6572206973206e6f7420746865206f776e6572604482015260640161069f565b6110096000611d59565b565b6000546001600160a01b031633146110655760405162461bcd60e51b815260206004820181905260248201527f4f776e61626c653a2063616c6c6572206973206e6f7420746865206f776e6572604482015260640161069f565b600980546001600160a01b0319166001600160a01b0392909216919091179055565b600d54600090600160a01b900460ff166111095760405162461bcd60e51b815260206004820152603b60248201527f54686520506f7420686173206e6f74206265656e20526561647920746f20506c60448201527f617920796574204f72205468652047616d65206973204f766572210000000000606482015260840161069f565b662386f26fc100003410158015611128575068056bc75e2d6310000034105b61119a5760405162461bcd60e51b815260206004820152602660248201527f56616c75652073686f756c64206265206265747765656e20302e30312026203160448201527f303020424e420000000000000000000000000000000000000000000000000000606482015260840161069f565b33600090815260126020526040902060010154678ac7230489e800008111156112055760405162461bcd60e51b815260206004820152601660248201527f596f7520706c6179656420746f6f206d75636820212100000000000000000000604482015260640161069f565b60008061121934662386f26fc10000610697565b91509150806000146112935760405162461bcd60e51b815260206004820152602e60248201527f56616c75652073686f756c6420626520616e20496e7465676572206d7574697060448201527f6c65206f6620302e303120424e42000000000000000000000000000000000000606482015260840161069f565b601380546001818101835560008381527f66de8ffda797e3de9c05e8fc57b3bf0ec28a930d40b0d285d93c06501cf6a09090920180546001600160a01b03191633179055915490916112e49161207f565b60145490915060005b8481101561133c57601480546001810182556000919091527fce6d7b5282bd9a3661ae061feed1dbda4e52ab073b1f9285be6e155d9c38d4ec0183905580611334816120c0565b9150506112ed565b5060145460408051606081018252848152602081018490529081018290526015805460018101825560009190915261139b9160039182027f55f448fdea98c4d29eb340757ef0a66cd03dbb9538908a6a81d96026b71ec4750191611da9565b506015543360009081526012602052604081208054600192906113bf9084906120db565b909155505033600090815260126020526040812060010180543492906113e69084906120db565b9091555050336000908152601260205260408120600201805488929061140d9084906120db565b9091555050336000818152601260209081526040822060048101805460018181018355918552838520018990556003820180548083018255908552928420909201859055929091529054141561147357600f805490600061146d836120c0565b91905055505b67016345785d8a0000471015801561148e57506005600f5410155b156114c257600d80547fffffffffffffffffffff00ffffffffffffffffffffffffffffffffffffffffff16600160a81b1790555b604080513381526020810186905234818301526060810188905290517f8de5754e4ed9d4994bdb4b2b8c12dfcd51b0e994c1d34a7f20fe7f3d3fbb7bc29181900360800190a1336000908152601260205260409020546001101561157b57336000818152601260205260409081902080546001820154600283015493517ff0b342fc13c65867c873cfbf6e19b5285bae679018bdf3376a4baca5ff066e0d956115729590946004019392916120f3565b60405180910390a15b5050505050505090565b6000600e5442611595919061207f565b905090565b6017546001600160a01b03163314806115bd5750600d546001600160a01b031633145b6116005760405162461bcd60e51b81526020600482015260146024820152735065726d697373696f6e2044656e69656420212160601b604482015260640161069f565b6001546005546002546006546040517f5d3b1d300000000000000000000000000000000000000000000000000000000081526004810193909352600160a01b90910467ffffffffffffffff166024830152640100000000810461ffff16604483015263ffffffff808216606484015266010000000000009091041660848201526001600160a01b0390911690635d3b1d309060a401602060405180830381600087803b1580156116af57600080fd5b505af11580156116c3573d6000803e3d6000fd5b505050506040513d601f19601f820116820180604052508101906116e79190612163565b600855565b6000546001600160a01b031633146117465760405162461bcd60e51b815260206004820181905260248201527f4f776e61626c653a2063616c6c6572206973206e6f7420746865206f776e6572604482015260640161069f565b6001600160a01b0381166117c25760405162461bcd60e51b815260206004820152602660248201527f4f776e61626c653a206e6577206f776e657220697320746865207a65726f206160448201527f6464726573730000000000000000000000000000000000000000000000000000606482015260840161069f565b610c5181611d59565b600781815481106117db57600080fd5b600091825260209091200154905081565b80516117ff906007906020840190611de7565b50506011805460ff1916600117905550565b600080600080600047905060006013878154811061183157611831612096565b60009182526020808320909101546001600160a01b03168083526012909152604090912060010154909150611866818461207f565b9650611873876002610697565b50965061188081886120db565b9650600061188e888561207f565b905061189b816014610697565b509650869550859050876118b0826002612060565b6118ba908661207f565b6118c4919061207f565b9450505050509193509193565b6000806000601386815481106118e9576118e9612096565b6000918252602082200154601680546001600160a01b0319166001600160a01b0392831690811790915560108790556009546040517f3305bd30000000000000000000000000000000000000000000000000000000008152306004820152336024820152604481018a905260648101929092526084820193909352911690633305bd309060a401602060405180830381600087803b15801561198a57600080fd5b505af115801561199e573d6000803e3d6000fd5b505050506040513d601f19601f820116820180604052508101906119c2919061217c565b6009546016546040517fa0f569340000000000000000000000000000000000000000000000000000000081523360048201526001600160a01b03918216602482015260448101889052929450169063a0f5693490606401602060405180830381600087803b158015611a3357600080fd5b505af1158015611a47573d6000803e3d6000fd5b505050506040513d601f19601f82011682018060405250810190611a6b9190612163565b5060019695505050505050565b600060138381548110611a8d57611a8d612096565b60009182526020822001546040516001600160a01b039091169250829184156108fc02918591818181858888f19350505050158015611ad0573d6000803e3d6000fd5b50604080516001600160a01b0383168152602081018490527f9b320e270eb528aa46b3a21b196f1da153ccb2d5637e892594474e969fe6b7a9910160405180910390a1505050565b600b546040516001600160a01b0390911690819085156108fc029086906000818181858888f19350505050158015611b54573d6000803e3d6000fd5b50604080516001600160a01b0383168152602081018690527fd36f5f37e53a101e11e745c4b553773a94d17d9d7cec00640ac8331369a76d11910160405180910390a150600c546040516001600160a01b0390911690819084156108fc029085906000818181858888f19350505050158015611bd4573d6000803e3d6000fd5b50604080516001600160a01b0383168152602081018590527fd36f5f37e53a101e11e745c4b553773a94d17d9d7cec00640ac8331369a76d11910160405180910390a150600a546040516001600160a01b0390911690819083156108fc029084906000818181858888f19350505050158015611c54573d6000803e3d6000fd5b50604080516001600160a01b0383168152602081018490527fd36f5f37e53a101e11e745c4b553773a94d17d9d7cec00640ac8331369a76d11910160405180910390a150505050565b60008060005b601354611cb29060019061207f565b811015611d345760138181548110611ccc57611ccc612096565b60009182526020808320909101546001600160a01b0316808352601290915260408220828155600181018390556002810183905590935090611d116003830182611e21565b611d1f600483016000611e21565b50508080611d2c906120c0565b915050611ca3565b50611d4160136000611e21565b611d4d60146000611e21565b50506000600f55600190565b600080546001600160a01b038381166001600160a01b0319831681178455604051919092169283917f8be0079c531659141344cd1fd0a4f28419497f9722a3daafe3b4186f6b6457e09190a35050565b8260038101928215611dd7579160200282015b82811115611dd7578251825591602001919060010190611dbc565b50611de3929150611e3b565b5090565b828054828255906000526020600020908101928215611dd75791602002820182811115611dd7578251825591602001919060010190611dbc565b5080546000825590600052602060002090810190610c5191905b5b80821115611de35760008155600101611e3c565b60008060408385031215611e6357600080fd5b50508035926020909101359150565b634e487b7160e01b600052604160045260246000fd5b60008060408385031215611e9b57600080fd5b8235915060208084013567ffffffffffffffff80821115611ebb57600080fd5b818601915086601f830112611ecf57600080fd5b813581811115611ee157611ee1611e72565b8060051b604051601f19603f83011681018181108582111715611f0657611f06611e72565b604052918252848201925083810185019189831115611f2457600080fd5b938501935b82851015611f4257843584529385019392850192611f29565b8096505050505050509250929050565b600060208284031215611f6457600080fd5b81356001600160a01b0381168114611f7b57600080fd5b9392505050565b6020808252825182820181905260009190848201906040850190845b81811015611fba57835183529284019291840191600101611f9e565b50909695505050505050565b6020808252825182820181905260009190848201906040850190845b81811015611fba5783516001600160a01b031683529284019291840191600101611fe2565b60006020828403121561201957600080fd5b5035919050565b634e487b7160e01b600052601260045260246000fd5b634e487b7160e01b600052601160045260246000fd5b60008261205b5761205b612020565b500490565b600081600019048311821515161561207a5761207a612036565b500290565b60008282101561209157612091612036565b500390565b634e487b7160e01b600052603260045260246000fd5b6000826120bb576120bb612020565b500690565b60006000198214156120d4576120d4612036565b5060010190565b600082198211156120ee576120ee612036565b500190565b600060a082016001600160a01b0388168352602060a08185015281885480845260c0860191508960005282600020935060005b8181101561214257845483526001948501949284019201612126565b50506040850197909752505050606081019290925260809091015292915050565b60006020828403121561217557600080fd5b5051919050565b60006020828403121561218e57600080fd5b81518015158114611f7b57600080fdfea26469706673582212207ca909649510cce359b043c683147c241327bc69f59e0808c2c818c95539118e64736f6c63430008090033",
  "immutableReferences": {
    "10": [
      {
        "length": 32,
        "start": 1874
      },
      {
        "length": 32,
        "start": 1965
      }
    ]
  },
  "source": "// SPDX-License-Identifier: MIT\npragma solidity ^0.8.0;\n// pragma experimental ABIEncoderV2;\n\n/* ToDo : Use Ownable OpenZeppelin */\nimport \"@openzeppelin/contracts/access/Ownable.sol\";\nimport \"@openzeppelin/contracts/utils/math/SafeMath.sol\";\n\nimport \"@chainlink/contracts/src/v0.8/interfaces/LinkTokenInterface.sol\";\nimport \"@chainlink/contracts/src/v0.8/interfaces/VRFCoordinatorV2Interface.sol\";\nimport \"@chainlink/contracts/src/v0.8/VRFConsumerBaseV2.sol\";\n\n\n// import \"./LotteryGenerator.sol\";\n\n// import \"./VRFv2SubscriptionManager.sol\";\n// import \"./VRFv2Consumer.sol\";\n\n// import \"truffle/Console.sol\";\n// import \"hardhat/console.sol\";\n\nimport \"./LotteryInterface.sol\";\n\n/**\n************************************************************************************\n************************************************************************************\n*/\n\n/**\n  * @title Core SmartContract for BNB Public Lottery \n  * @author Batis \n  * @notice This SmartContract is responsible for implimentation of Lottery Core System and response to the Players \n  * @dev LotteryGenerator SmartContract Create This for each Pot \n*/\ncontract LotteryCore is Ownable, VRFConsumerBaseV2 {\n\n  VRFCoordinatorV2Interface COORDINATOR;\n  LinkTokenInterface LINKTOKEN;\n  uint64 s_subscriptionId;\n\n  address vrfCoordinator = 0x6A2AAd07396B36Fe02a22b33cf443582f682c82f;  // BSC TestNet coordinator\n  address link = 0x84b9B910527Ad5C03A9Ca831909E21e236EA7b06;  //  BSC TestNet LINK token\n  bytes32 keyHash = 0xd4bb89654db74673a187bd804519e65e3f71a52bc55f11da7601a13dcf505314;  //  BSC TestNet keyhash\n\n  uint32 callbackGasLimit = 100000;\n  uint16 requestConfirmations = 3;\n  uint32 numWords =  1;\n\n  uint256[] public s_randomWords;\n  uint256 public s_requestId;\n\n\n  // address private _VRF;\n  address private generatorLotteryAddr;\n  address private LiquidityPoolAddress;\n  // address private MultiSigWalletAddress;\n  address private WeeklyPotAddress;\n  address private MonthlyPotAddress;   \n  address private LotteryOwner;\n\n  uint constant TICKET_PRICE = 10 * 1e15; // finney (0.01 Ether)\n\n  // address public LotteryOwner; \n  bool private lPotActive;  \n  bool private lReadySelectWinner; \n  uint public potStartTime = 0;\n  uint public realPLayerCount = 0;\n  uint public potWinnerPrize = 0;\n  bool private lWinnerSelected;\n\n  struct PotPlayerStr{\n    uint PaymentCount;\n    uint paymentValue;\n    uint TicketNumbers;\n    uint[] TicketsId;\n    uint[] PlayersId;\n  }\n\n  mapping (address => PotPlayerStr) private PotPlayersMap;  \n  address[] private potPlayersArray;  \n  uint[] private potTickets;\n  uint[3][] private potTicketIds;  /* ToDo: Change Search routine base on the Start and End of Tickets for each Address (ID)  */ \n  address private potWinnerAddress;\n  address private potDirector;  /* ToDo: All Main Action must be controlled only by Owner or Director */\n   \n  /* ToDo : Lottery Pot Generator Structure as a Wrapper for Lottery Core */\n  // struct LotteryPot{\n  //   string potLabel;\n  //   uint entryCount;\n  //   uint potSerial;\n  //   uint potValue;\n  //   // mapping(address => PotPlayer) players;\n  // }\n\n  event SelectWinnerIndex(uint winnerIndex, uint potBalance, uint winnerPrize);\n  event SelectWinnerAddress(address potWinner, uint winnerPrize);\n  event PlayerRegister(address potPlayer, uint playerId, uint PlayerValue, uint ticketNumber);\n  event PlayerTotalValue(address potPlayer, uint[] playerId, uint playCount, uint playerValue, uint ticketNumber);\n  event TotalPayment(address receiver, uint TrxValue);\n\n  // constructor(address VRF, address generatorLotteryAddress, address WeeklyLotteryAddress, address MonthlyLotteryAddress, address LiquidityPoolAddr) {\n  //   LotteryOwner = msg.sender;\n  //   _VRF = VRF;\n  //   lPotActive = true;\n  //   lReadySelectWinner = false;\n  //   potStartTime = block.timestamp;\n  //   generatorLotteryAddr = generatorLotteryAddress;\n  //   LiquidityPoolAddress = LiquidityPoolAddr ;\n  //   WeeklyPotAddress = WeeklyLotteryAddress ;\n  //   MonthlyPotAddress = MonthlyLotteryAddress ;   \n  // }\n\n  constructor(uint64 subscriptionId, address generatorLotteryAddress, address WeeklyLotteryAddress, address MonthlyLotteryAddress, address LiquidityPoolAddr) VRFConsumerBaseV2(vrfCoordinator) {\n    COORDINATOR = VRFCoordinatorV2Interface(vrfCoordinator);\n    LINKTOKEN = LinkTokenInterface(link);\n    s_subscriptionId = subscriptionId;\n    LotteryOwner = msg.sender;\n    lPotActive = true;\n    lReadySelectWinner = false;\n    lWinnerSelected = false;\n    potStartTime = block.timestamp;\n    generatorLotteryAddr = generatorLotteryAddress;\n    LiquidityPoolAddress = LiquidityPoolAddr ;\n    WeeklyPotAddress = WeeklyLotteryAddress ;\n    MonthlyPotAddress = MonthlyLotteryAddress ;   \n  }\n\n  // modifier onlyOwner() {\n  //   require(msg.sender == LotteryOwner, \"Owner Only! . You have not the right Access.\");\n  //   _;\n  // }\n\n  /* ToDo : Add & Complete Fallback routine */\n  fallback() external payable {\n  }\n  receive() external payable {\n  }\n\n  modifier isAllowedManager() {\n      require( msg.sender == potDirector || msg.sender == LotteryOwner , \"Permission Denied !!\" );\n      _;\n  }\n\n  modifier isGameOn() {\n      require(lPotActive , \"The Pot has not been Ready to Play yet Or The Game is Over!\");  // && !lReadySelectWinner \n      _;\n  }\n\n  modifier isPotValuable() {\n      require( (address(this).balance >= 0.1 ether && potPlayersArray.length >= 5) , \"The Pot is not Filled Enough !\");\n      _;\n  }\n\n  /**\n    * @notice Show the total Balance of this Pot. \n    * @dev Smart Contract total Balance.\n    * @return Balance of This Contract.\n  */\n  function balanceInPot() public view returns(uint){\n    return address(this).balance;\n  }\n\n  function withdraw() external onlyOwner {\n    payable(msg.sender).transfer(address(this).balance);\n  }\n\n  function requestRandomWords() public isAllowedManager {    // external   onlyOwner\n    // Will revert if subscription is not set and funded.\n    s_requestId = COORDINATOR.requestRandomWords(\n      keyHash,\n      s_subscriptionId,\n      requestConfirmations,\n      callbackGasLimit,\n      numWords\n    );\n  }\n\n  function fulfillRandomWords(\n    uint256, /* requestId */\n    uint256[] memory randomWords\n  ) internal override {\n    s_randomWords = randomWords;\n    // select_Winner_Continue();\n    lWinnerSelected = true;\n  }\n\n  // function getlRandomWords() external view returns (uint256) {\n  //    return s_randomWords[0];\n  // }\n\n  /* ToDo : Replace This function with OpenZeppelin SafeMath */\n  /**\n    * @notice Function for deviding two Integer Numbers and return the results.\n    * @dev Safe Function for Devision Operation.\n    * @param numerator : The Integer Number which is being devided on another Integer Number.\n    * @param denominator : The Integer Number which another Int NUmber is devided by this.  \n    * @return quotient and remainder of the Devision, Both are Integer Numbers. \n  */\n  function getDivided(uint numerator, uint denominator) public pure returns(uint quotient, uint remainder) {\n    require( denominator >= 0, \"Division is Not Possible , Bug in Numbers !\");\n    require( numerator > 0, \"Division is Not Possible , Bug in Numbers !\");\n    quotient  = numerator / denominator; \n    remainder = numerator - denominator * quotient;\n  }\n\n  function potInitialize() external isAllowedManager returns(bool success) {\n    require(lPotActive == false, \"The Pot is started before !\");\n    lPotActive = true ;\n    lReadySelectWinner = false;\n    potStartTime = block.timestamp;\n    lWinnerSelected = false;\n    success = true;\n  }\n\n  /**\n    * @notice Players' Operation and Calculation after Sending Transaction to the SmartContract. \n    * @dev Payable Function. \n  */\n  function play() public payable isGameOn returns(bool success) {\n\n    require(msg.value >= 0.01 ether && msg.value < 100 ether, \"Value should be between 0.01 & 100 BNB\");\n\n    uint userPotAmount = PotPlayersMap[msg.sender].paymentValue;\n    require(userPotAmount <= 10 ether, \"You played too much !!\");\n\n    /* ToDo: Replace with SafeMath */\n    (uint ticketNumber, uint remainder ) = getDivided(msg.value, TICKET_PRICE); // 10000000000000000\n    require(remainder == 0, \"Value should be an Integer mutiple of 0.01 BNB\");\n\n    potPlayersArray.push( msg.sender );\n    uint id = potPlayersArray.length - 1; \n\n    uint ticketStart = potTickets.length;\n    for (uint jj = 0; jj < ticketNumber; jj++) {\n      potTickets.push( id );\n    }\n    uint ticketEnd = potTickets.length;\n    potTicketIds.push([id, ticketStart, ticketEnd]);\n    uint id2 = potTicketIds.length;\n\n    PotPlayersMap[msg.sender].PaymentCount += 1;\n    PotPlayersMap[msg.sender].paymentValue += msg.value;\n    PotPlayersMap[msg.sender].TicketNumbers += ticketNumber;\n    PotPlayersMap[msg.sender].PlayersId.push( id );\n    PotPlayersMap[msg.sender].TicketsId.push( id2);\n    if (PotPlayersMap[msg.sender].PaymentCount == 1) {\n      realPLayerCount++;\n    }\n\n    if (address(this).balance >= 0.1 ether && realPLayerCount >= 5) {  // // potPlayersArray.length\n      lReadySelectWinner = true;\n    } \n\n    emit PlayerRegister(msg.sender, id, msg.value, ticketNumber) ;\n    if (PotPlayersMap[msg.sender].PaymentCount > 1) {\n        emit PlayerTotalValue(msg.sender, PotPlayersMap[msg.sender].PlayersId, PotPlayersMap[msg.sender].PaymentCount, PotPlayersMap[msg.sender].paymentValue, PotPlayersMap[msg.sender].TicketNumbers) ;\n    }    \n\n    return success;\n\n  }\n\n  function randomGenerator() private view returns (uint) {\n    return uint(\n      keccak256(\n        abi.encodePacked(\n          block.difficulty, block.timestamp, potTickets ))) ;\n  }\n  \n  // function lrequestRandomWords(address _VRFv2) public isAllowedManager {\n  //   VRFv2Consumer(_VRFv2).requestRandomWords() ;\n  // }\n\n  /**\n    * @notice Generating Random Number for Finding the Hourly Winner.\n    * @dev Call VRFv2 Random Generator Routines.\n  */\n  // function getRandomValue(address _VRFv2) public view onlyOwner returns (uint256 randomWords) {\n  //   // uint8 zeroOne = uint8(randomGenerator() % 2);\n  //   // randomWords = randomGenerator();\n  //   randomWords = VRFv2Consumer(_VRFv2).getlRandomWords();\n  // }\n\n  // function rRandomValue() public onlyOwner {\n  //   requestRandomWords();\n  // }\n\n  /**\n    * @notice Select The Hourly Winner Function.\n    * @dev Select The Pot Winner.\n  */\n  function select_Winner() public isAllowedManager returns(bool success) {  \n\n    require( lReadySelectWinner == true, \"The Pot is not ready for Select the Winner\" );\n    require(lWinnerSelected == false, \"The Winner has been Selected before !!\");\n\n    requestRandomWords();\n    success = true;\n\n  }\n\n  function select_Winner_Continue() public isAllowedManager returns(bool success) {  \n    \n    require(lWinnerSelected == true, \"The Winner has Not been Selected Yet !\");\n\n    uint winnerIndex = s_randomWords[0] % potTickets.length;    // l_randomWords\n    winnerIndex = potTickets[winnerIndex];\n    (uint winnerPrize, uint weeklyPot, uint monthlyPot, uint liquidityAmount) = Calculation(winnerIndex);\n    \n    emit SelectWinnerIndex(winnerIndex, address(this).balance, winnerPrize);\n\n    UpdateLotteryData(winnerIndex, address(this).balance, winnerPrize);\n    WinnerPrizePayment(winnerIndex, winnerPrize); \n    FinalPayment(weeklyPot, monthlyPot, liquidityAmount);\n    ClearDataBase();\n    // console.log(\"Select Winner Done !\");\n\n    lPotActive = false;\n    lReadySelectWinner = false;\n    lWinnerSelected = false;\n    success = true;\n\n  }\n\n  /**\n    * @notice Release Smart Contract Memory .\n    * @dev Clear All Storages .\n  */\n  function ClearDataBase() private returns (bool) {\n    /* ToDo : Clear The Map Data and RElease the Memory */  \n    address playerAddress;\n    for (uint256 index = 0; index < potPlayersArray.length - 1; index++) {\n        playerAddress = potPlayersArray[index];\n        // if (PotPlayersMap[playerAddress].PaymentCount > 0) {\n        //     PotPlayersMap[playerAddress].PaymentCount = 0;\n        //     PotPlayersMap[playerAddress].paymentValue = 0;\n        //     PotPlayersMap[playerAddress].TicketNumbers = 0;\n        //     delete PotPlayersMap[playerAddress].PlayersId;\n        //     delete PotPlayersMap[playerAddress].TicketsId;\n        // }\n        delete PotPlayersMap[playerAddress];\n    }\n    delete potPlayersArray;\n    delete potTickets;\n    realPLayerCount = 0;\n    return true;\n  }\n\n  /**\n    * @notice Calculation of Pot Winner Prize.\n    * @dev Findout the 50% of the Total Pot and The Winner payment.\n  */\n  function Calculation(uint _winnerIndex) private view returns (uint winnerPrize, uint weeklyPot, uint monthlyPot, uint liquidityAmount){\n\n    uint totalPot = address(this).balance;\n    address WinnerAddress = potPlayersArray[_winnerIndex];\n    uint WinnerPotAmount = PotPlayersMap[WinnerAddress].paymentValue;\n\n    winnerPrize = totalPot - WinnerPotAmount;\n    /* ToDo : Replace Calculation Parts with OpenZeppelin SafeMath ) */\n    (winnerPrize, ) = getDivided(winnerPrize, 2);\n    winnerPrize += WinnerPotAmount; \n\n    uint otherPots = totalPot - winnerPrize;\n    (otherPots, ) = getDivided(otherPots, 20);\n    weeklyPot = otherPots;\n    monthlyPot = otherPots;\n    liquidityAmount = totalPot - 2 * otherPots - winnerPrize;\n\n  }\n\n  /**\n    * @notice Pay Pot Prize to the Winner.\n    * @dev Transfer Pot Prize to the Winner.\n  */\n  function WinnerPrizePayment(uint _winnerIndex, uint _winnerPrize) private {\n\n    address payable potWinner = payable(potPlayersArray[_winnerIndex]);  \n    potWinner.transfer(_winnerPrize);\n    emit SelectWinnerAddress(potWinner, _winnerPrize);\n    // potPlayers[winnerIndex].transfer(address(this).balance);\n\n  }\n\n  /**\n    * @notice Remaining Pot Money Transfer.\n    * @dev Transfer remaining Money to the Liquidity Pool.\n  */\n  function FinalPayment(uint weeklyPot, uint monthlyPot, uint liquidityAmount) private {   // onlyOwner \n\n    // uint TrxValue = address(this).balance;\n    // address payable receiver = payable(WeeklyPotAddress);\n    // TrxValue = address(this).balance; \n    // receiver.transfer(TrxValue);\n    // emit TotalPayment(receiver, TrxValue);\n\n    address payable receiver = payable(WeeklyPotAddress);\n    receiver.transfer(weeklyPot);\n    emit TotalPayment(receiver, weeklyPot);\n\n    receiver = payable(MonthlyPotAddress);\n    receiver.transfer(monthlyPot);\n    emit TotalPayment(receiver, monthlyPot);\n\n    receiver = payable(LiquidityPoolAddress);\n    receiver.transfer(liquidityAmount);\n    emit TotalPayment(receiver, liquidityAmount);\n\n  }\n\n  /**\n    * @notice Save The Winner Address for Weekly Lottery\n    * @dev Update Generator Smart Contract For Saving Hourly Winner Address\n  */\n  function UpdateLotteryData(uint _winnerIndex, uint _balance, uint _winnerPrize) private returns(bool) {\n    bool _success;\n    uint _winnerId;\n    // address _winnerAddress = potPlayersArray[_winnerIndex];\n    potWinnerAddress = potPlayersArray[_winnerIndex];\n    potWinnerPrize = _winnerPrize;\n    _success = LotteryInterface(generatorLotteryAddr).setlotteryStructs(address(this), msg.sender, _balance, potWinnerAddress, 0);  \n    _winnerId = LotteryInterface(generatorLotteryAddr).setlotteryWinnersArrayMap(msg.sender, potWinnerAddress, _winnerPrize);  \n    return true;\n  }\n\n  function set_WeeklyPotAddress(address _WeeklyPotAddress) external onlyOwner {\n    require(_WeeklyPotAddress != address(0) );\n    WeeklyPotAddress = _WeeklyPotAddress;\n  }\n\n  function set_MonthlyPotAddress(address _MonthlyPotAddress) external onlyOwner {\n    require(_MonthlyPotAddress != address(0) );\n    MonthlyPotAddress = _MonthlyPotAddress;\n  }\n\n  function set_generatorLotteryAddress(address _contractAddr) external onlyOwner {\n    generatorLotteryAddr = _contractAddr;\n  }\n\n  function set_LiquidityPoolAddress(address _LiquidityPoolAddress) external onlyOwner {\n    require(_LiquidityPoolAddress != address(0) );\n    LiquidityPoolAddress = _LiquidityPoolAddress;\n  }\n\n  // function set_MultiSigWalletAddress(address _MultiSigWalletAddress) external onlyOwner {\n  //   require(_MultiSigWalletAddress != address(0) );\n  //   MultiSigWalletAddress = _MultiSigWalletAddress;\n  // }\n\n  function setDirector(address _DirectorAddress) external onlyOwner {\n    require(_DirectorAddress != address(0) );\n    potDirector = _DirectorAddress;\n  }\n\n  function listPlayers() public view returns (address[] memory){  \n    return potPlayersArray;  \n  }\n\n  function getLotteryTickets() public view returns(uint[] memory) {\n    return potTickets;\n  }\n\n  function isPotActive() public view returns(bool) {\n    return lPotActive;\n  }\n\n  function getTicketPrice() public pure returns(uint) {\n    return TICKET_PRICE;\n  }\n\n  function getTicketAmount() public view returns(uint) {\n    return potTickets.length;\n  }\n\n  function getPlayersNumber() public view returns(uint) {\n    return potPlayersArray.length;\n  }\n\n  function getWinners() public view returns(address, uint) {\n    return ( potWinnerAddress, potWinnerPrize ) ;  \n  }  \n\n  function isReadySelectWinner() public view returns(bool) {\n    return lReadySelectWinner;\n  }\n\n  function getStartedTime() public view returns(uint) {\n    return block.timestamp - potStartTime;\n  }\n\n  function getPotDirector() public view returns(address) {\n    return potDirector;\n  }\n\n  // function getVerifier() public view returns(address) {\n  //   return _VRF;\n  // }\n\n  // function getAllContractAddresses() public view returns(address[] memory) {\n  //   address[] memory contractAddresses;\n  //   contractAddresses[0] = generatorLotteryAddr;\n  //   contractAddresses[1] = LiquidityPoolAddress;\n  //   contractAddresses[2] = WeeklyPotAddress;\n  //   contractAddresses[3] = MonthlyPotAddress;\n  //   return contractAddresses;\n  // }\n  function getAllContractAddresses() public view returns(address gAddress, address lAddress, address wAddress, address mAddress) {\n    gAddress = generatorLotteryAddr ;\n    lAddress = LiquidityPoolAddress ;\n    wAddress = WeeklyPotAddress ;\n    mAddress = MonthlyPotAddress ;\n    return (gAddress, lAddress, wAddress, mAddress); \n  }\n\n  function getPlayerAmounts(address PlayerAddress) public view returns(uint, uint) {\n    uint PaymentCount = PotPlayersMap[PlayerAddress].PaymentCount;\n    uint PaymentValue = PotPlayersMap[PlayerAddress].paymentValue;\n    return (PaymentCount, PaymentValue);\n  }\n\n  function getPlayerValue(address PlayerAddress) public view returns(uint) {\n    uint PaymentValue = PotPlayersMap[PlayerAddress].paymentValue;\n    return PaymentValue;\n  }\n\n}\n\n\n/**\n************************************************************************************\n************************************************************************************\n**/\n",
  "sourcePath": "/home/batis/SrcCode/myPRJ/SmartContBlockChain/BSCLottery/contracts/LotteryCore.sol",
  "compiler": {
    "name": "solc",
    "version": "0.8.9+commit.e5eed63a.Emscripten.clang"
  },
  "schemaVersion": "3.4.3",
  "updatedAt": "2022-06-06T18:17:00.629Z",
  "networkType": "ethereum",
  "devdoc": {
    "author": "Batis ",
    "details": "LotteryGenerator SmartContract Create This for each Pot ",
    "kind": "dev",
    "methods": {
      "balanceInPot()": {
        "details": "Smart Contract total Balance.",
        "returns": {
          "_0": "Balance of This Contract."
        }
      },
      "getDivided(uint256,uint256)": {
        "details": "Safe Function for Devision Operation.",
        "params": {
          "denominator": ": The Integer Number which another Int NUmber is devided by this.  ",
          "numerator": ": The Integer Number which is being devided on another Integer Number."
        },
        "returns": {
          "quotient": "and remainder of the Devision, Both are Integer Numbers. "
        }
      },
      "owner()": {
        "details": "Returns the address of the current owner."
      },
      "play()": {
        "details": "Payable Function. "
      },
      "renounceOwnership()": {
        "details": "Leaves the contract without owner. It will not be possible to call `onlyOwner` functions anymore. Can only be called by the current owner. NOTE: Renouncing ownership will leave the contract without an owner, thereby removing any functionality that is only available to the owner."
      },
      "select_Winner()": {
        "details": "Select The Pot Winner."
      },
      "transferOwnership(address)": {
        "details": "Transfers ownership of the contract to a new account (`newOwner`). Can only be called by the current owner."
      }
    },
    "title": "Core SmartContract for BNB Public Lottery ",
    "version": 1
  },
  "userdoc": {
    "kind": "user",
    "methods": {
      "balanceInPot()": {
        "notice": "Show the total Balance of this Pot. "
      },
      "getDivided(uint256,uint256)": {
        "notice": "Function for deviding two Integer Numbers and return the results."
      },
      "play()": {
        "notice": "Players' Operation and Calculation after Sending Transaction to the SmartContract. "
      },
      "select_Winner()": {
        "notice": "Select The Hourly Winner Function."
      }
    },
    "notice": "This SmartContract is responsible for implimentation of Lottery Core System and response to the Players ",
    "version": 1
  }
}