{
  "contractName": "LotteryCore",
  "abi": [
    {
      "inputs": [
        {
          "internalType": "uint64",
          "name": "subscriptionId",
          "type": "uint64"
        }
      ],
      "stateMutability": "nonpayable",
      "type": "constructor"
    },
    {
      "inputs": [
        {
          "internalType": "address",
          "name": "have",
          "type": "address"
        },
        {
          "internalType": "address",
          "name": "want",
          "type": "address"
        }
      ],
      "name": "OnlyCoordinatorCanFulfill",
      "type": "error"
    },
    {
      "anonymous": false,
      "inputs": [
        {
          "indexed": false,
          "internalType": "address",
          "name": "potWinner",
          "type": "address"
        },
        {
          "indexed": false,
          "internalType": "uint256",
          "name": "potBalance",
          "type": "uint256"
        }
      ],
      "name": "SelectWinner",
      "type": "event"
    },
    {
      "stateMutability": "payable",
      "type": "fallback"
    },
    {
      "inputs": [
        {
          "internalType": "uint256",
          "name": "",
          "type": "uint256"
        }
      ],
      "name": "lRandomWords",
      "outputs": [
        {
          "internalType": "uint256",
          "name": "",
          "type": "uint256"
        }
      ],
      "stateMutability": "view",
      "type": "function"
    },
    {
      "inputs": [],
      "name": "lRequestId",
      "outputs": [
        {
          "internalType": "uint256",
          "name": "",
          "type": "uint256"
        }
      ],
      "stateMutability": "view",
      "type": "function"
    },
    {
      "inputs": [],
      "name": "lottoryOwner",
      "outputs": [
        {
          "internalType": "address",
          "name": "",
          "type": "address"
        }
      ],
      "stateMutability": "view",
      "type": "function"
    },
    {
      "inputs": [
        {
          "internalType": "uint256",
          "name": "",
          "type": "uint256"
        }
      ],
      "name": "potPlayers",
      "outputs": [
        {
          "internalType": "address",
          "name": "",
          "type": "address"
        }
      ],
      "stateMutability": "view",
      "type": "function"
    },
    {
      "inputs": [
        {
          "internalType": "uint256",
          "name": "requestId",
          "type": "uint256"
        },
        {
          "internalType": "uint256[]",
          "name": "randomWords",
          "type": "uint256[]"
        }
      ],
      "name": "rawFulfillRandomWords",
      "outputs": [],
      "stateMutability": "nonpayable",
      "type": "function"
    },
    {
      "inputs": [],
      "name": "requestRandomWords",
      "outputs": [],
      "stateMutability": "nonpayable",
      "type": "function"
    },
    {
      "inputs": [],
      "name": "balanceInPot",
      "outputs": [
        {
          "internalType": "uint256",
          "name": "",
          "type": "uint256"
        }
      ],
      "stateMutability": "view",
      "type": "function"
    },
    {
      "inputs": [],
      "name": "play",
      "outputs": [],
      "stateMutability": "payable",
      "type": "function"
    },
    {
      "inputs": [],
      "name": "select_Send_WinnerPrize",
      "outputs": [],
      "stateMutability": "nonpayable",
      "type": "function"
    },
    {
      "inputs": [],
      "name": "listPlayers",
      "outputs": [
        {
          "internalType": "address[]",
          "name": "",
          "type": "address[]"
        }
      ],
      "stateMutability": "view",
      "type": "function"
    }
  ],
  "bytecode": "0x60a0604052736168499c0cffcacd319c818142124b7a15e857ab600260006101000a81548173ffffffffffffffffffffffffffffffffffffffff021916908373ffffffffffffffffffffffffffffffffffffffff1602179055507301be23585060835e02b77ef475b0cc51aa1e0709600360006101000a81548173ffffffffffffffffffffffffffffffffffffffff021916908373ffffffffffffffffffffffffffffffffffffffff1602179055507fd89b2bf150e3b9e13446986e571fb9cab24b13cea0a43ea20a6049a85cc807cc60001b600455620186a0600560006101000a81548163ffffffff021916908363ffffffff1602179055506002600560046101000a81548161ffff021916908361ffff1602179055506001600560066101000a81548163ffffffff021916908363ffffffff16021790555034801561014557600080fd5b5060405162001435380380620014358339818101604052810190610169919061033b565b600260009054906101000a900473ffffffffffffffffffffffffffffffffffffffff168073ffffffffffffffffffffffffffffffffffffffff1660808173ffffffffffffffffffffffffffffffffffffffff168152505050600260009054906101000a900473ffffffffffffffffffffffffffffffffffffffff166000806101000a81548173ffffffffffffffffffffffffffffffffffffffff021916908373ffffffffffffffffffffffffffffffffffffffff160217905550600360009054906101000a900473ffffffffffffffffffffffffffffffffffffffff16600160006101000a81548173ffffffffffffffffffffffffffffffffffffffff021916908373ffffffffffffffffffffffffffffffffffffffff16021790555080600760006101000a81548167ffffffffffffffff021916908367ffffffffffffffff160217905550336005600a6101000a81548173ffffffffffffffffffffffffffffffffffffffff021916908373ffffffffffffffffffffffffffffffffffffffff16021790555050610368565b600080fd5b600067ffffffffffffffff82169050919050565b610318816102fb565b811461032357600080fd5b50565b6000815190506103358161030f565b92915050565b600060208284031215610351576103506102f6565b5b600061035f84828501610326565b91505092915050565b6080516110aa6200038b60003960008181610229015261027d01526110aa6000f3fe6080604052600436106100955760003560e01c80638687e599116100595780638687e5991461015957806388ade1ca1461018457806393e84cd9146101c1578063a8cc67aa146101cb578063e0c862891461020857610096565b806314e59987146100985780631fe543e3146100c3578063397270dd146100ec57806353d51d461461011757806364605d511461012e57610096565b5b005b3480156100a457600080fd5b506100ad61021f565b6040516100ba9190610979565b60405180910390f35b3480156100cf57600080fd5b506100ea60048036038101906100e59190610b2d565b610227565b005b3480156100f857600080fd5b506101016102e7565b60405161010e9190610979565b60405180910390f35b34801561012357600080fd5b5061012c6102ed565b005b34801561013a57600080fd5b506101436104d8565b6040516101509190610c79565b60405180910390f35b34801561016557600080fd5b5061016e610566565b60405161017b9190610caa565b60405180910390f35b34801561019057600080fd5b506101ab60048036038101906101a69190610cc5565b61058c565b6040516101b89190610979565b60405180910390f35b6101c96105b0565b005b3480156101d757600080fd5b506101f260048036038101906101ed9190610cc5565b610673565b6040516101ff9190610caa565b60405180910390f35b34801561021457600080fd5b5061021d6106b2565b005b600047905090565b7f000000000000000000000000000000000000000000000000000000000000000073ffffffffffffffffffffffffffffffffffffffff163373ffffffffffffffffffffffffffffffffffffffff16146102d957337f00000000000000000000000000000000000000000000000000000000000000006040517f1cf993f40000000000000000000000000000000000000000000000000000000081526004016102d0929190610cf2565b60405180910390fd5b6102e38282610849565b5050565b60095481565b6005600a9054906101000a900473ffffffffffffffffffffffffffffffffffffffff1673ffffffffffffffffffffffffffffffffffffffff163373ffffffffffffffffffffffffffffffffffffffff161461037d576040517f08c379a000000000000000000000000000000000000000000000000000000000815260040161037490610d9e565b60405180910390fd5b6000600680549050600860008154811061039a57610399610dbe565b5b90600052602060002001546103af9190610e1c565b90506000600682815481106103c7576103c6610dbe565b5b9060005260206000200160009054906101000a900473ffffffffffffffffffffffffffffffffffffffff169050600067ffffffffffffffff81111561040f5761040e6109ea565b5b60405190808252806020026020018201604052801561043d5781602001602082028036833780820191505090505b506006908051906020019061045392919061086c565b507f6eb97ff1a32e3ae51839dc6d5de1daf7e1f150b8f77aec47e07eb75ac6f345c08147604051610485929190610eac565b60405180910390a18073ffffffffffffffffffffffffffffffffffffffff166108fc479081150290604051600060405180830381858888f193505050501580156104d3573d6000803e3d6000fd5b505050565b6060600680548060200260200160405190810160405280929190818152602001828054801561055c57602002820191906000526020600020905b8160009054906101000a900473ffffffffffffffffffffffffffffffffffffffff1673ffffffffffffffffffffffffffffffffffffffff1681526020019060010190808311610512575b5050505050905090565b6005600a9054906101000a900473ffffffffffffffffffffffffffffffffffffffff1681565b6008818154811061059c57600080fd5b906000526020600020016000915090505481565b662386f26fc1000034101580156105cf575068056bc75e2d6310000034105b61060e576040517f08c379a000000000000000000000000000000000000000000000000000000000815260040161060590610f47565b60405180910390fd5b6006339080600181540180825580915050600190039060005260206000200160009091909190916101000a81548173ffffffffffffffffffffffffffffffffffffffff021916908373ffffffffffffffffffffffffffffffffffffffff160217905550565b6006818154811061068357600080fd5b906000526020600020016000915054906101000a900473ffffffffffffffffffffffffffffffffffffffff1681565b6005600a9054906101000a900473ffffffffffffffffffffffffffffffffffffffff1673ffffffffffffffffffffffffffffffffffffffff163373ffffffffffffffffffffffffffffffffffffffff1614610742576040517f08c379a000000000000000000000000000000000000000000000000000000000815260040161073990610d9e565b60405180910390fd5b60008054906101000a900473ffffffffffffffffffffffffffffffffffffffff1673ffffffffffffffffffffffffffffffffffffffff16635d3b1d30600454600760009054906101000a900467ffffffffffffffff16600560049054906101000a900461ffff16600560009054906101000a900463ffffffff16600560069054906101000a900463ffffffff166040518663ffffffff1660e01b81526004016107ef959493929190610fdf565b602060405180830381600087803b15801561080957600080fd5b505af115801561081d573d6000803e3d6000fd5b505050506040513d601f19601f820116820180604052508101906108419190611047565b600981905550565b806008908051906020019061085f9291906108f6565b506108686102ed565b5050565b8280548282559060005260206000209081019282156108e5579160200282015b828111156108e45782518260006101000a81548173ffffffffffffffffffffffffffffffffffffffff021916908373ffffffffffffffffffffffffffffffffffffffff1602179055509160200191906001019061088c565b5b5090506108f29190610943565b5090565b828054828255906000526020600020908101928215610932579160200282015b82811115610931578251825591602001919060010190610916565b5b50905061093f9190610943565b5090565b5b8082111561095c576000816000905550600101610944565b5090565b6000819050919050565b61097381610960565b82525050565b600060208201905061098e600083018461096a565b92915050565b6000604051905090565b600080fd5b600080fd5b6109b181610960565b81146109bc57600080fd5b50565b6000813590506109ce816109a8565b92915050565b600080fd5b6000601f19601f8301169050919050565b7f4e487b7100000000000000000000000000000000000000000000000000000000600052604160045260246000fd5b610a22826109d9565b810181811067ffffffffffffffff82111715610a4157610a406109ea565b5b80604052505050565b6000610a54610994565b9050610a608282610a19565b919050565b600067ffffffffffffffff821115610a8057610a7f6109ea565b5b602082029050602081019050919050565b600080fd5b6000610aa9610aa484610a65565b610a4a565b90508083825260208201905060208402830185811115610acc57610acb610a91565b5b835b81811015610af55780610ae188826109bf565b845260208401935050602081019050610ace565b5050509392505050565b600082601f830112610b1457610b136109d4565b5b8135610b24848260208601610a96565b91505092915050565b60008060408385031215610b4457610b4361099e565b5b6000610b52858286016109bf565b925050602083013567ffffffffffffffff811115610b7357610b726109a3565b5b610b7f85828601610aff565b9150509250929050565b600081519050919050565b600082825260208201905092915050565b6000819050602082019050919050565b600073ffffffffffffffffffffffffffffffffffffffff82169050919050565b6000610be082610bb5565b9050919050565b610bf081610bd5565b82525050565b6000610c028383610be7565b60208301905092915050565b6000602082019050919050565b6000610c2682610b89565b610c308185610b94565b9350610c3b83610ba5565b8060005b83811015610c6c578151610c538882610bf6565b9750610c5e83610c0e565b925050600181019050610c3f565b5085935050505092915050565b60006020820190508181036000830152610c938184610c1b565b905092915050565b610ca481610bd5565b82525050565b6000602082019050610cbf6000830184610c9b565b92915050565b600060208284031215610cdb57610cda61099e565b5b6000610ce9848285016109bf565b91505092915050565b6000604082019050610d076000830185610c9b565b610d146020830184610c9b565b9392505050565b600082825260208201905092915050565b7f4f776e6572204f6e6c7921202e20596f752068617665206e6f7420746865207260008201527f69676874204163636573732e0000000000000000000000000000000000000000602082015250565b6000610d88602c83610d1b565b9150610d9382610d2c565b604082019050919050565b60006020820190508181036000830152610db781610d7b565b9050919050565b7f4e487b7100000000000000000000000000000000000000000000000000000000600052603260045260246000fd5b7f4e487b7100000000000000000000000000000000000000000000000000000000600052601260045260246000fd5b6000610e2782610960565b9150610e3283610960565b925082610e4257610e41610ded565b5b828206905092915050565b6000819050919050565b6000610e72610e6d610e6884610bb5565b610e4d565b610bb5565b9050919050565b6000610e8482610e57565b9050919050565b6000610e9682610e79565b9050919050565b610ea681610e8b565b82525050565b6000604082019050610ec16000830185610e9d565b610ece602083018461096a565b9392505050565b7f56616c75652073686f756c64206265206265747765656e20302e30312026203160008201527f303020424e420000000000000000000000000000000000000000000000000000602082015250565b6000610f31602683610d1b565b9150610f3c82610ed5565b604082019050919050565b60006020820190508181036000830152610f6081610f24565b9050919050565b6000819050919050565b610f7a81610f67565b82525050565b600067ffffffffffffffff82169050919050565b610f9d81610f80565b82525050565b600061ffff82169050919050565b610fba81610fa3565b82525050565b600063ffffffff82169050919050565b610fd981610fc0565b82525050565b600060a082019050610ff46000830188610f71565b6110016020830187610f94565b61100e6040830186610fb1565b61101b6060830185610fd0565b6110286080830184610fd0565b9695505050505050565b600081519050611041816109a8565b92915050565b60006020828403121561105d5761105c61099e565b5b600061106b84828501611032565b9150509291505056fea2646970667358221220edb51690f74412bab993657b9e12728cf5b493cefb285f6b1dfb98ecc66a06f264736f6c63430008090033",
  "immutableReferences": {
    "10": [
      {
        "length": 32,
        "start": 553
      },
      {
        "length": 32,
        "start": 637
      }
    ]
  },
  "source": "// SPDX-License-Identifier: MIT\npragma solidity ^0.8.0;\n\nimport '@openzeppelin/contracts/access/Ownable.sol';\nimport \"@chainlink/contracts/src/v0.8/interfaces/LinkTokenInterface.sol\";\nimport \"@chainlink/contracts/src/v0.8/interfaces/VRFCoordinatorV2Interface.sol\";\nimport \"@chainlink/contracts/src/v0.8/VRFConsumerBaseV2.sol\";\n// import \"truffle/Console.sol\";\n\n\ncontract LotteryCore is VRFConsumerBaseV2 {\n\n  VRFCoordinatorV2Interface COORDINATOR;\n  LinkTokenInterface LINKTOKEN;\n\n  address vrfCoordinator = 0x6168499c0cFfCaCD319c818142124B7A15E857ab;   // Rinkeby\n  address link = 0x01BE23585060835E02B77ef475b0Cc51aA1e0709;   // Rinkeby\n  bytes32 keyHash = 0xd89b2bf150e3b9e13446986e571fb9cab24b13cea0a43ea20a6049a85cc807cc;   // Rinkeby\n\n  uint32 callbackGasLimit = 100000;\n  uint16 requestConfirmations = 2;\n  uint32 numWords =  1;\n\n  address public lottoryOwner;\n  address[] public potPlayers;\n\n  uint64 lSubscriptionId;\n  // bytes32 public reqId;\n  // uint256 public randomNumber;\n  uint256[] public lRandomWords;\n  uint256 public lRequestId;\n\n  struct PotPlayer{\n    uint index;\n    uint pValue;\n  }\n\n  struct LotteryPot{\n    string potLabel;\n    uint entryCount;\n    uint potSerial;\n    uint potValue;\n    // mapping(address => PotPlayer) players;\n  }\n\n  // constructor(address _vrfCoordinator, address _link) VRFConsumerBase(_vrfCoordinator, _link) public {  }\n  constructor(uint64 subscriptionId) VRFConsumerBaseV2(vrfCoordinator) {\n    COORDINATOR = VRFCoordinatorV2Interface(vrfCoordinator);\n    LINKTOKEN = LinkTokenInterface(link);\n    lSubscriptionId = subscriptionId;\n    lottoryOwner = msg.sender;\n  }\n\n  event SelectWinner(address potWinner, uint potBalance);\n\n  modifier ownerOnly() {\n    require(msg.sender == lottoryOwner, \"Owner Only! . You have not the right Access.\");\n    _;\n  }\n\n  fallback() external payable {\n        // player name will be unknown\n  }\n\n  function requestRandomWords() external ownerOnly {\n    lRequestId = COORDINATOR.requestRandomWords(\n      keyHash,\n      lSubscriptionId,\n      requestConfirmations,\n      callbackGasLimit,\n      numWords\n    );\n  }\n\n  // function fulfillRandomness(bytes32 requestId, uint256 randomness) external override {\n  //     reqId = requestId;\n  //     randomNumber = randomness;\n  // }\n  function fulfillRandomWords(\n    uint256, /* requestId */\n    uint256[] memory randomWords\n  ) internal override {\n    lRandomWords = randomWords;\n    select_Send_WinnerPrize();\n  }\n\n  function balanceInPot() public view returns(uint){\n    return address(this).balance;\n  }\n\n  function play() public payable {\n    require(msg.value >= 0.01 ether && msg.value < 100 ether, \"Value should be between 0.01 & 100 BNB\");\n    potPlayers.push(msg.sender);\n  }\n\n  // function randomGenerator() private view returns (uint) {\n  //   return uint(\n  //     keccak256(\n  //       abi.encodePacked(\n  //         block.difficulty, block.timestamp, potPlayers )));\n  // }\n\n  function select_Send_WinnerPrize() public ownerOnly {\n    // uint winnerIndex = randomGenerator() % potPlayers.length;\n    uint winnerIndex = lRandomWords[0] % potPlayers.length;\n    address payable potWinner = payable(potPlayers[winnerIndex]);\n    potPlayers = new address[](0);\n    emit SelectWinner(potWinner, address(this).balance);\n    potWinner.transfer(address(this).balance);\n    // potPlayers[winnerIndex].transfer(address(this).balance);\n    // console.log(potWinner);\n  }\n\n  function listPlayers() public view returns (address[] memory){\n    return potPlayers;\n  }\n\n}\n",
  "sourcePath": "/home/batis/SrcCode/myPRJ/SmartContBlockChain/BSCLottery/contracts/LotteryCore.sol",
  "compiler": {
    "name": "solc",
    "version": "0.8.9+commit.e5eed63a.Emscripten.clang"
  },
  "schemaVersion": "3.4.3",
  "updatedAt": "2022-03-27T07:01:00.551Z",
  "devdoc": {
    "kind": "dev",
    "methods": {},
    "version": 1
  },
  "userdoc": {
    "kind": "user",
    "methods": {},
    "version": 1
  }
}