{
  "contractName": "LotteryGenerator",
  "abi": [
    {
      "anonymous": false,
      "inputs": [
        {
          "indexed": false,
          "internalType": "address",
          "name": "newLottery",
          "type": "address"
        }
      ],
      "name": "LotteryCreated",
      "type": "event"
    },
    {
      "anonymous": false,
      "inputs": [
        {
          "indexed": true,
          "internalType": "address",
          "name": "previousOwner",
          "type": "address"
        },
        {
          "indexed": true,
          "internalType": "address",
          "name": "newOwner",
          "type": "address"
        }
      ],
      "name": "OwnershipTransferred",
      "type": "event"
    },
    {
      "stateMutability": "payable",
      "type": "fallback",
      "payable": true
    },
    {
      "inputs": [
        {
          "internalType": "uint256",
          "name": "",
          "type": "uint256"
        }
      ],
      "name": "LotteryWinnersArray",
      "outputs": [
        {
          "internalType": "address",
          "name": "",
          "type": "address"
        }
      ],
      "stateMutability": "view",
      "type": "function",
      "constant": true
    },
    {
      "inputs": [
        {
          "internalType": "address",
          "name": "",
          "type": "address"
        }
      ],
      "name": "LotteryWinnersMap",
      "outputs": [
        {
          "internalType": "uint256",
          "name": "playersId",
          "type": "uint256"
        },
        {
          "internalType": "uint256",
          "name": "winnerCount",
          "type": "uint256"
        }
      ],
      "stateMutability": "view",
      "type": "function",
      "constant": true
    },
    {
      "inputs": [
        {
          "internalType": "uint256",
          "name": "",
          "type": "uint256"
        }
      ],
      "name": "WeeklyWinnersArray",
      "outputs": [
        {
          "internalType": "address",
          "name": "",
          "type": "address"
        }
      ],
      "stateMutability": "view",
      "type": "function",
      "constant": true
    },
    {
      "inputs": [
        {
          "internalType": "address",
          "name": "",
          "type": "address"
        }
      ],
      "name": "WeeklyWinnersMap",
      "outputs": [
        {
          "internalType": "uint256",
          "name": "playersId",
          "type": "uint256"
        },
        {
          "internalType": "uint256",
          "name": "winnerCount",
          "type": "uint256"
        }
      ],
      "stateMutability": "view",
      "type": "function",
      "constant": true
    },
    {
      "inputs": [
        {
          "internalType": "uint256",
          "name": "",
          "type": "uint256"
        }
      ],
      "name": "lotteries",
      "outputs": [
        {
          "internalType": "address",
          "name": "",
          "type": "address"
        }
      ],
      "stateMutability": "view",
      "type": "function",
      "constant": true
    },
    {
      "inputs": [],
      "name": "owner",
      "outputs": [
        {
          "internalType": "address",
          "name": "",
          "type": "address"
        }
      ],
      "stateMutability": "view",
      "type": "function",
      "constant": true
    },
    {
      "inputs": [],
      "name": "renounceOwnership",
      "outputs": [],
      "stateMutability": "nonpayable",
      "type": "function"
    },
    {
      "inputs": [
        {
          "internalType": "address",
          "name": "newOwner",
          "type": "address"
        }
      ],
      "name": "transferOwnership",
      "outputs": [],
      "stateMutability": "nonpayable",
      "type": "function"
    },
    {
      "stateMutability": "payable",
      "type": "receive",
      "payable": true
    },
    {
      "inputs": [],
      "name": "balanceInPot",
      "outputs": [
        {
          "internalType": "uint256",
          "name": "",
          "type": "uint256"
        }
      ],
      "stateMutability": "view",
      "type": "function",
      "constant": true
    },
    {
      "inputs": [],
      "name": "withdraw",
      "outputs": [],
      "stateMutability": "nonpayable",
      "type": "function"
    },
    {
      "inputs": [],
      "name": "getWinners",
      "outputs": [
        {
          "internalType": "address[]",
          "name": "",
          "type": "address[]"
        }
      ],
      "stateMutability": "view",
      "type": "function",
      "constant": true
    },
    {
      "inputs": [
        {
          "internalType": "address",
          "name": "_lotteryAddress",
          "type": "address"
        },
        {
          "internalType": "uint256",
          "name": "_totalBalance",
          "type": "uint256"
        },
        {
          "internalType": "address",
          "name": "_winnerAddress",
          "type": "address"
        },
        {
          "internalType": "uint8",
          "name": "_lotteryType",
          "type": "uint8"
        }
      ],
      "name": "setlotteryStructs",
      "outputs": [
        {
          "internalType": "bool",
          "name": "",
          "type": "bool"
        }
      ],
      "stateMutability": "nonpayable",
      "type": "function"
    },
    {
      "inputs": [
        {
          "internalType": "address",
          "name": "_lotteryAddress",
          "type": "address"
        },
        {
          "internalType": "address",
          "name": "_winnerAddress",
          "type": "address"
        }
      ],
      "name": "setlotteryWinnersArrayMap",
      "outputs": [
        {
          "internalType": "uint256",
          "name": "",
          "type": "uint256"
        }
      ],
      "stateMutability": "nonpayable",
      "type": "function"
    },
    {
      "inputs": [
        {
          "internalType": "address",
          "name": "_lotteryAddress",
          "type": "address"
        },
        {
          "internalType": "address",
          "name": "_winnerAddress",
          "type": "address"
        }
      ],
      "name": "setWeeklyWinnersArrayMap",
      "outputs": [
        {
          "internalType": "uint256",
          "name": "",
          "type": "uint256"
        }
      ],
      "stateMutability": "nonpayable",
      "type": "function"
    },
    {
      "inputs": [
        {
          "internalType": "address",
          "name": "_lotteryAddress",
          "type": "address"
        }
      ],
      "name": "clearlotteryWinnersArrayMap",
      "outputs": [
        {
          "internalType": "bool",
          "name": "",
          "type": "bool"
        }
      ],
      "stateMutability": "nonpayable",
      "type": "function"
    },
    {
      "inputs": [
        {
          "internalType": "address",
          "name": "_lotteryAddress",
          "type": "address"
        }
      ],
      "name": "clearWeeklyWinnersArrayMap",
      "outputs": [
        {
          "internalType": "bool",
          "name": "",
          "type": "bool"
        }
      ],
      "stateMutability": "nonpayable",
      "type": "function"
    },
    {
      "inputs": [
        {
          "internalType": "address",
          "name": "_VRF",
          "type": "address"
        }
      ],
      "name": "createLottery",
      "outputs": [],
      "stateMutability": "nonpayable",
      "type": "function"
    },
    {
      "inputs": [
        {
          "internalType": "address",
          "name": "lotteryAddress",
          "type": "address"
        }
      ],
      "name": "deleteLottery",
      "outputs": [],
      "stateMutability": "nonpayable",
      "type": "function"
    }
  ],
  "bytecode": "0x608060405234801561001057600080fd5b5061002d61002261003260201b60201c565b61003a60201b60201c565b6100fe565b600033905090565b60008060009054906101000a900473ffffffffffffffffffffffffffffffffffffffff169050816000806101000a81548173ffffffffffffffffffffffffffffffffffffffff021916908373ffffffffffffffffffffffffffffffffffffffff1602179055508173ffffffffffffffffffffffffffffffffffffffff168173ffffffffffffffffffffffffffffffffffffffff167f8be0079c531659141344cd1fd0a4f28419497f9722a3daafe3b4186f6b6457e060405160405180910390a35050565b614f6a806200010e6000396000f3fe608060405260043610620001275760003560e01c80638da5cb5b11620000a3578063a6dddd64116200006d578063a6dddd641462000415578063a7e46eac1462000459578063df15c37e1462000487578063f2fde38b14620004b7578063f671123914620004e5576200012f565b80638da5cb5b146200032f5780639139a20e146200035f57806394c31c9b146200038d578063a35e151c14620003d1576200012f565b80633ccfd60b11620000f15780633ccfd60b146200022e57806354a1ec731462000248578063653ea439146200028c578063715018a614620002d15780637a1fa9e314620002eb576200012f565b80631398e076146200013157806314e5998714620001755780631c1f538914620001a557806332f655fd14620001ea576200012f565b366200012f57005b005b3480156200013e57600080fd5b506200015d600480360381019062000157919062001534565b62000529565b6040516200016c9190620015ab565b60405180910390f35b3480156200018257600080fd5b506200018d62000569565b6040516200019c9190620015d9565b60405180910390f35b348015620001b257600080fd5b50620001d16004803603810190620001cb919062001627565b62000571565b604051620001e192919062001659565b60405180910390f35b348015620001f757600080fd5b5062000216600480360381019062000210919062001627565b62000595565b604051620002259190620016a3565b60405180910390f35b3480156200023b57600080fd5b50620002466200067e565b005b3480156200025557600080fd5b506200027460048036038101906200026e919062001627565b6200074b565b604051620002839190620016a3565b60405180910390f35b3480156200029957600080fd5b50620002b86004803603810190620002b2919062001627565b62000834565b604051620002c892919062001659565b60405180910390f35b348015620002de57600080fd5b50620002e962000858565b005b348015620002f857600080fd5b50620003176004803603810190620003119190620016fe565b620008e9565b604051620003269190620016a3565b60405180910390f35b3480156200033c57600080fd5b506200034762000a44565b604051620003569190620015ab565b60405180910390f35b3480156200036c57600080fd5b506200038b600480360381019062000385919062001627565b62000a6d565b005b3480156200039a57600080fd5b50620003b96004803603810190620003b3919062001770565b62000d71565b604051620003c89190620015d9565b60405180910390f35b348015620003de57600080fd5b50620003fd6004803603810190620003f7919062001534565b62000e8a565b6040516200040c9190620015ab565b60405180910390f35b3480156200042257600080fd5b506200044160048036038101906200043b919062001770565b62000eca565b604051620004509190620015d9565b60405180910390f35b3480156200046657600080fd5b506200048560048036038101906200047f919062001627565b62000fe3565b005b3480156200049457600080fd5b506200049f62001204565b604051620004ae919062001885565b60405180910390f35b348015620004c457600080fd5b50620004e36004803603810190620004dd919062001627565b62001294565b005b348015620004f257600080fd5b506200051160048036038101906200050b919062001534565b62001398565b604051620005209190620015ab565b60405180910390f35b600181815481106200053a57600080fd5b906000526020600020016000915054906101000a900473ffffffffffffffffffffffffffffffffffffffff1681565b600047905090565b60046020528060005260406000206000915090508060000154908060010154905082565b60008060005b6001600580549050620005af9190620018d8565b811015620006635760058181548110620005ce57620005cd62001913565b5b9060005260206000200160009054906101000a900473ffffffffffffffffffffffffffffffffffffffff169150600660008373ffffffffffffffffffffffffffffffffffffffff1673ffffffffffffffffffffffffffffffffffffffff1681526020019081526020016000206000808201600090556001820160009055505080806200065a9062001942565b9150506200059b565b5060056000620006749190620014a4565b6001915050919050565b62000688620013d8565b73ffffffffffffffffffffffffffffffffffffffff16620006a862000a44565b73ffffffffffffffffffffffffffffffffffffffff161462000701576040517f08c379a0000000000000000000000000000000000000000000000000000000008152600401620006f890620019f1565b60405180910390fd5b3373ffffffffffffffffffffffffffffffffffffffff166108fc479081150290604051600060405180830381858888f1935050505015801562000748573d6000803e3d6000fd5b50565b60008060005b6001600380549050620007659190620018d8565b81101562000819576003818154811062000784576200078362001913565b5b9060005260206000200160009054906101000a900473ffffffffffffffffffffffffffffffffffffffff169150600460008373ffffffffffffffffffffffffffffffffffffffff1673ffffffffffffffffffffffffffffffffffffffff168152602001908152602001600020600080820160009055600182016000905550508080620008109062001942565b91505062000751565b50600360006200082a9190620014a4565b6001915050919050565b60066020528060005260406000206000915090508060000154908060010154905082565b62000862620013d8565b73ffffffffffffffffffffffffffffffffffffffff166200088262000a44565b73ffffffffffffffffffffffffffffffffffffffff1614620008db576040517f08c379a0000000000000000000000000000000000000000000000000000000008152600401620008d290620019f1565b60405180910390fd5b620008e76000620013e0565b565b600083600260008773ffffffffffffffffffffffffffffffffffffffff1673ffffffffffffffffffffffffffffffffffffffff1681526020019081526020016000206002018190555082600260008773ffffffffffffffffffffffffffffffffffffffff1673ffffffffffffffffffffffffffffffffffffffff16815260200190815260200160002060030160006101000a81548173ffffffffffffffffffffffffffffffffffffffff021916908373ffffffffffffffffffffffffffffffffffffffff1602179055508160ff166003811115620009cc57620009cb62001a13565b5b600260008773ffffffffffffffffffffffffffffffffffffffff1673ffffffffffffffffffffffffffffffffffffffff16815260200190815260200160002060030160146101000a81548160ff0219169083600381111562000a335762000a3262001a13565b5b021790555060019050949350505050565b60008060009054906101000a900473ffffffffffffffffffffffffffffffffffffffff16905090565b62000a77620013d8565b73ffffffffffffffffffffffffffffffffffffffff1662000a9762000a44565b73ffffffffffffffffffffffffffffffffffffffff161462000af0576040517f08c379a000000000000000000000000000000000000000000000000000000000815260040162000ae790620019f1565b60405180910390fd5b60008160405162000b0190620014c7565b62000b0d9190620015ab565b604051809103906000f08015801562000b2a573d6000803e3d6000fd5b5090506001819080600181540180825580915050600190039060005260206000200160009091909190916101000a81548173ffffffffffffffffffffffffffffffffffffffff021916908373ffffffffffffffffffffffffffffffffffffffff1602179055506001808054905062000ba39190620018d8565b600260008373ffffffffffffffffffffffffffffffffffffffff1673ffffffffffffffffffffffffffffffffffffffff1681526020019081526020016000206000018190555033600260008373ffffffffffffffffffffffffffffffffffffffff1673ffffffffffffffffffffffffffffffffffffffff16815260200190815260200160002060010160006101000a81548173ffffffffffffffffffffffffffffffffffffffff021916908373ffffffffffffffffffffffffffffffffffffffff1602179055506000600260008373ffffffffffffffffffffffffffffffffffffffff1673ffffffffffffffffffffffffffffffffffffffff168152602001908152602001600020600201819055506000600260008373ffffffffffffffffffffffffffffffffffffffff1673ffffffffffffffffffffffffffffffffffffffff16815260200190815260200160002060030160006101000a81548173ffffffffffffffffffffffffffffffffffffffff021916908373ffffffffffffffffffffffffffffffffffffffff1602179055507fe610764cbcba803247df3450b7492f6a0084b7b5b734a7901c13fef8f84ffaf48160405162000d659190620015ab565b60405180910390a15050565b60006005829080600181540180825580915050600190039060005260206000200160009091909190916101000a81548173ffffffffffffffffffffffffffffffffffffffff021916908373ffffffffffffffffffffffffffffffffffffffff160217905550600580549050600660008473ffffffffffffffffffffffffffffffffffffffff1673ffffffffffffffffffffffffffffffffffffffff16815260200190815260200160002060000181905550600660008373ffffffffffffffffffffffffffffffffffffffff1673ffffffffffffffffffffffffffffffffffffffff168152602001908152602001600020600101600081548092919062000e779062001942565b9190505550600580549050905092915050565b6005818154811062000e9b57600080fd5b906000526020600020016000915054906101000a900473ffffffffffffffffffffffffffffffffffffffff1681565b60006003829080600181540180825580915050600190039060005260206000200160009091909190916101000a81548173ffffffffffffffffffffffffffffffffffffffff021916908373ffffffffffffffffffffffffffffffffffffffff160217905550600380549050600460008473ffffffffffffffffffffffffffffffffffffffff1673ffffffffffffffffffffffffffffffffffffffff16815260200190815260200160002060000181905550600460008373ffffffffffffffffffffffffffffffffffffffff1673ffffffffffffffffffffffffffffffffffffffff168152602001908152602001600020600101600081548092919062000fd09062001942565b9190505550600380549050905092915050565b62000fed620013d8565b73ffffffffffffffffffffffffffffffffffffffff166200100d62000a44565b73ffffffffffffffffffffffffffffffffffffffff161462001066576040517f08c379a00000000000000000000000000000000000000000000000000000000081526004016200105d90620019f1565b60405180910390fd5b600260008273ffffffffffffffffffffffffffffffffffffffff1673ffffffffffffffffffffffffffffffffffffffff16815260200190815260200160002060010160009054906101000a900473ffffffffffffffffffffffffffffffffffffffff1673ffffffffffffffffffffffffffffffffffffffff163373ffffffffffffffffffffffffffffffffffffffff16146200110157600080fd5b6000600260008373ffffffffffffffffffffffffffffffffffffffff1673ffffffffffffffffffffffffffffffffffffffff168152602001908152602001600020600001549050600060018080805490506200115e9190620018d8565b8154811062001172576200117162001913565b5b9060005260206000200160009054906101000a900473ffffffffffffffffffffffffffffffffffffffff1690508060018381548110620011b757620011b662001913565b5b9060005260206000200160006101000a81548173ffffffffffffffffffffffffffffffffffffffff021916908373ffffffffffffffffffffffffffffffffffffffff160217905550505050565b606060038054806020026020016040519081016040528092919081815260200182805480156200128a57602002820191906000526020600020905b8160009054906101000a900473ffffffffffffffffffffffffffffffffffffffff1673ffffffffffffffffffffffffffffffffffffffff16815260200190600101908083116200123f575b5050505050905090565b6200129e620013d8565b73ffffffffffffffffffffffffffffffffffffffff16620012be62000a44565b73ffffffffffffffffffffffffffffffffffffffff161462001317576040517f08c379a00000000000000000000000000000000000000000000000000000000081526004016200130e90620019f1565b60405180910390fd5b600073ffffffffffffffffffffffffffffffffffffffff168173ffffffffffffffffffffffffffffffffffffffff1614156200138a576040517f08c379a0000000000000000000000000000000000000000000000000000000008152600401620013819062001ab8565b60405180910390fd5b6200139581620013e0565b50565b60038181548110620013a957600080fd5b906000526020600020016000915054906101000a900473ffffffffffffffffffffffffffffffffffffffff1681565b600033905090565b60008060009054906101000a900473ffffffffffffffffffffffffffffffffffffffff169050816000806101000a81548173ffffffffffffffffffffffffffffffffffffffff021916908373ffffffffffffffffffffffffffffffffffffffff1602179055508173ffffffffffffffffffffffffffffffffffffffff168173ffffffffffffffffffffffffffffffffffffffff167f8be0079c531659141344cd1fd0a4f28419497f9722a3daafe3b4186f6b6457e060405160405180910390a35050565b5080546000825590600052602060002090810190620014c49190620014d5565b50565b61345a8062001adb83390190565b5b80821115620014f0576000816000905550600101620014d6565b5090565b600080fd5b6000819050919050565b6200150e81620014f9565b81146200151a57600080fd5b50565b6000813590506200152e8162001503565b92915050565b6000602082840312156200154d576200154c620014f4565b5b60006200155d848285016200151d565b91505092915050565b600073ffffffffffffffffffffffffffffffffffffffff82169050919050565b6000620015938262001566565b9050919050565b620015a58162001586565b82525050565b6000602082019050620015c260008301846200159a565b92915050565b620015d381620014f9565b82525050565b6000602082019050620015f06000830184620015c8565b92915050565b620016018162001586565b81146200160d57600080fd5b50565b6000813590506200162181620015f6565b92915050565b60006020828403121562001640576200163f620014f4565b5b6000620016508482850162001610565b91505092915050565b6000604082019050620016706000830185620015c8565b6200167f6020830184620015c8565b9392505050565b60008115159050919050565b6200169d8162001686565b82525050565b6000602082019050620016ba600083018462001692565b92915050565b600060ff82169050919050565b620016d881620016c0565b8114620016e457600080fd5b50565b600081359050620016f881620016cd565b92915050565b600080600080608085870312156200171b576200171a620014f4565b5b60006200172b8782880162001610565b94505060206200173e878288016200151d565b9350506040620017518782880162001610565b92505060606200176487828801620016e7565b91505092959194509250565b600080604083850312156200178a5762001789620014f4565b5b60006200179a8582860162001610565b9250506020620017ad8582860162001610565b9150509250929050565b600081519050919050565b600082825260208201905092915050565b6000819050602082019050919050565b620017ee8162001586565b82525050565b6000620018028383620017e3565b60208301905092915050565b6000602082019050919050565b60006200182882620017b7565b620018348185620017c2565b93506200184183620017d3565b8060005b83811015620018785781516200185c8882620017f4565b975062001869836200180e565b92505060018101905062001845565b5085935050505092915050565b60006020820190508181036000830152620018a181846200181b565b905092915050565b7f4e487b7100000000000000000000000000000000000000000000000000000000600052601160045260246000fd5b6000620018e582620014f9565b9150620018f283620014f9565b925082821015620019085762001907620018a9565b5b828203905092915050565b7f4e487b7100000000000000000000000000000000000000000000000000000000600052603260045260246000fd5b60006200194f82620014f9565b91507fffffffffffffffffffffffffffffffffffffffffffffffffffffffffffffffff821415620019855762001984620018a9565b5b600182019050919050565b600082825260208201905092915050565b7f4f776e61626c653a2063616c6c6572206973206e6f7420746865206f776e6572600082015250565b6000620019d960208362001990565b9150620019e682620019a1565b602082019050919050565b6000602082019050818103600083015262001a0c81620019ca565b9050919050565b7f4e487b7100000000000000000000000000000000000000000000000000000000600052602160045260246000fd5b7f4f776e61626c653a206e6577206f776e657220697320746865207a65726f206160008201527f6464726573730000000000000000000000000000000000000000000000000000602082015250565b600062001aa060268362001990565b915062001aad8262001a42565b604082019050919050565b6000602082019050818103600083015262001ad38162001a91565b905091905056fe608060405260006007553480156200001657600080fd5b506040516200345a3803806200345a83398181016040528101906200003c919062000258565b6200005c620000506200012260201b60201c565b6200012a60201b60201c565b33600660006101000a81548173ffffffffffffffffffffffffffffffffffffffff021916908373ffffffffffffffffffffffffffffffffffffffff16021790555080600160006101000a81548173ffffffffffffffffffffffffffffffffffffffff021916908373ffffffffffffffffffffffffffffffffffffffff1602179055506001600660146101000a81548160ff0219169083151502179055506000600660156101000a81548160ff02191690831515021790555042600781905550506200028a565b600033905090565b60008060009054906101000a900473ffffffffffffffffffffffffffffffffffffffff169050816000806101000a81548173ffffffffffffffffffffffffffffffffffffffff021916908373ffffffffffffffffffffffffffffffffffffffff1602179055508173ffffffffffffffffffffffffffffffffffffffff168173ffffffffffffffffffffffffffffffffffffffff167f8be0079c531659141344cd1fd0a4f28419497f9722a3daafe3b4186f6b6457e060405160405180910390a35050565b600080fd5b600073ffffffffffffffffffffffffffffffffffffffff82169050919050565b60006200022082620001f3565b9050919050565b620002328162000213565b81146200023e57600080fd5b50565b600081519050620002528162000227565b92915050565b600060208284031215620002715762000270620001ee565b5b6000620002818482850162000241565b91505092915050565b6131c0806200029a6000396000f3fe6080604052600436106101855760003560e01c80636cf69958116100d157806393e84cd91161008a578063d7573c1111610064578063d7573c11146104ea578063df15c37e14610515578063e8b05e3814610540578063f2fde38b1461056b5761018c565b806393e84cd91461048a578063a8078b7a14610494578063c5ae6f3e146104bf5761018c565b80636cf699581461039e578063715018a6146103c9578063737bb723146103e0578063766eef111461040957806387bb7ae0146104345780638da5cb5b1461045f5761018c565b80633fa420c41161013e5780635efaf044116101185780635efaf0441461030a578063614f6f871461033357806364605d511461035c5780636c253437146103875761018c565b80633fa420c41461028b578063442db8fb146102b45780634442713c146102df5761018c565b806314e599871461018e57806314e5e90e146101b9578063194d02d7146101f657806326ba4319146102345780632ac75ab51461025d5780633ccfd60b146102745761018c565b3661018c57005b005b34801561019a57600080fd5b506101a3610594565b6040516101b0919061235c565b60405180910390f35b3480156101c557600080fd5b506101e060048036038101906101db91906123da565b61059c565b6040516101ed919061235c565b60405180910390f35b34801561020257600080fd5b5061021d60048036038101906102189190612433565b61069f565b60405161022b929190612473565b60405180910390f35b34801561024057600080fd5b5061025b600480360381019061025691906123da565b610757565b005b34801561026957600080fd5b50610272610851565b005b34801561028057600080fd5b50610289610aad565b005b34801561029757600080fd5b506102b260048036038101906102ad91906123da565b610b72565b005b3480156102c057600080fd5b506102c9610c6c565b6040516102d6919061255a565b60405180910390f35b3480156102eb57600080fd5b506102f4610cc4565b6040516103019190612597565b60405180910390f35b34801561031657600080fd5b50610331600480360381019061032c91906123da565b610cdb565b005b34801561033f57600080fd5b5061035a600480360381019061035591906123da565b610dd5565b005b34801561036857600080fd5b50610371610ecf565b60405161037e9190612670565b60405180910390f35b34801561039357600080fd5b5061039c610f5d565b005b3480156103aa57600080fd5b506103b36110da565b6040516103c0919061235c565b60405180910390f35b3480156103d557600080fd5b506103de6110e7565b005b3480156103ec57600080fd5b50610407600480360381019061040291906123da565b61116f565b005b34801561041557600080fd5b5061041e61122f565b60405161042b919061235c565b60405180910390f35b34801561044057600080fd5b5061044961123c565b604051610456919061235c565b60405180910390f35b34801561046b57600080fd5b5061047461124b565b60405161048191906126a1565b60405180910390f35b610492611274565b005b3480156104a057600080fd5b506104a9611937565b6040516104b6919061235c565b60405180910390f35b3480156104cb57600080fd5b506104d461194c565b6040516104e191906126a1565b60405180910390f35b3480156104f657600080fd5b506104ff611976565b60405161050c919061235c565b60405180910390f35b34801561052157600080fd5b5061052a61197c565b60405161053791906126a1565b60405180910390f35b34801561054c57600080fd5b506105556119a6565b6040516105629190612597565b60405180910390f35b34801561057757600080fd5b50610592600480360381019061058d91906123da565b6119bd565b005b600047905090565b60006105a6611ab5565b73ffffffffffffffffffffffffffffffffffffffff166105c461124b565b73ffffffffffffffffffffffffffffffffffffffff161461061a576040517f08c379a000000000000000000000000000000000000000000000000000000000815260040161061190612719565b60405180910390fd5b8173ffffffffffffffffffffffffffffffffffffffff166371f747906040518163ffffffff1660e01b815260040160206040518083038186803b15801561066057600080fd5b505afa158015610674573d6000803e3d6000fd5b505050506040513d601f19601f82011682018060405250810190610698919061274e565b9050919050565b60008060008310156106e6576040517f08c379a00000000000000000000000000000000000000000000000000000000081526004016106dd906127ed565b60405180910390fd5b60008411610729576040517f08c379a0000000000000000000000000000000000000000000000000000000008152600401610720906127ed565b60405180910390fd5b8284610735919061286b565b91508183610743919061289c565b8461074e91906128f6565b90509250929050565b61075f611ab5565b73ffffffffffffffffffffffffffffffffffffffff1661077d61124b565b73ffffffffffffffffffffffffffffffffffffffff16146107d3576040517f08c379a00000000000000000000000000000000000000000000000000000000081526004016107ca90612719565b60405180910390fd5b600073ffffffffffffffffffffffffffffffffffffffff168173ffffffffffffffffffffffffffffffffffffffff16141561080d57600080fd5b80600d60006101000a81548173ffffffffffffffffffffffffffffffffffffffff021916908373ffffffffffffffffffffffffffffffffffffffff16021790555050565b600d60009054906101000a900473ffffffffffffffffffffffffffffffffffffffff1673ffffffffffffffffffffffffffffffffffffffff163373ffffffffffffffffffffffffffffffffffffffff1614806108fa5750600660009054906101000a900473ffffffffffffffffffffffffffffffffffffffff1673ffffffffffffffffffffffffffffffffffffffff163373ffffffffffffffffffffffffffffffffffffffff16145b610939576040517f08c379a000000000000000000000000000000000000000000000000000000000815260040161093090612976565b60405180910390fd5b60011515600660159054906101000a900460ff1615151461098f576040517f08c379a000000000000000000000000000000000000000000000000000000000815260040161098690612a08565b60405180910390fd5b60006109bc600160009054906101000a900473ffffffffffffffffffffffffffffffffffffffff1661059c565b90506000600a80549050826109d19190612a28565b9050600a81815481106109e7576109e6612a59565b5b90600052602060002001549050600080600080610a0385611abd565b93509350935093507f274f2e5ea35472f60f411beb007713c0f1c1b574f260789eedee1789cd49d9f5854786604051610a3e93929190612a88565b60405180910390a1610a508547611bd4565b50610a5b8585611e0f565b610a66838383611ed7565b610a6e6120ce565b506000600660146101000a81548160ff0219169083151502179055506000600660156101000a81548160ff021916908315150217905550505050505050565b610ab5611ab5565b73ffffffffffffffffffffffffffffffffffffffff16610ad361124b565b73ffffffffffffffffffffffffffffffffffffffff1614610b29576040517f08c379a0000000000000000000000000000000000000000000000000000000008152600401610b2090612719565b60405180910390fd5b3373ffffffffffffffffffffffffffffffffffffffff166108fc479081150290604051600060405180830381858888f19350505050158015610b6f573d6000803e3d6000fd5b50565b610b7a611ab5565b73ffffffffffffffffffffffffffffffffffffffff16610b9861124b565b73ffffffffffffffffffffffffffffffffffffffff1614610bee576040517f08c379a0000000000000000000000000000000000000000000000000000000008152600401610be590612719565b60405180910390fd5b600073ffffffffffffffffffffffffffffffffffffffff168173ffffffffffffffffffffffffffffffffffffffff161415610c2857600080fd5b80600460006101000a81548173ffffffffffffffffffffffffffffffffffffffff021916908373ffffffffffffffffffffffffffffffffffffffff16021790555050565b6060600a805480602002602001604051908101604052809291908181526020018280548015610cba57602002820191906000526020600020905b815481526020019060010190808311610ca6575b5050505050905090565b6000600660149054906101000a900460ff16905090565b610ce3611ab5565b73ffffffffffffffffffffffffffffffffffffffff16610d0161124b565b73ffffffffffffffffffffffffffffffffffffffff1614610d57576040517f08c379a0000000000000000000000000000000000000000000000000000000008152600401610d4e90612719565b60405180910390fd5b600073ffffffffffffffffffffffffffffffffffffffff168173ffffffffffffffffffffffffffffffffffffffff161415610d9157600080fd5b80600360006101000a81548173ffffffffffffffffffffffffffffffffffffffff021916908373ffffffffffffffffffffffffffffffffffffffff16021790555050565b610ddd611ab5565b73ffffffffffffffffffffffffffffffffffffffff16610dfb61124b565b73ffffffffffffffffffffffffffffffffffffffff1614610e51576040517f08c379a0000000000000000000000000000000000000000000000000000000008152600401610e4890612719565b60405180910390fd5b600073ffffffffffffffffffffffffffffffffffffffff168173ffffffffffffffffffffffffffffffffffffffff161415610e8b57600080fd5b80600560006101000a81548173ffffffffffffffffffffffffffffffffffffffff021916908373ffffffffffffffffffffffffffffffffffffffff16021790555050565b60606009805480602002602001604051908101604052809291908181526020018280548015610f5357602002820191906000526020600020905b8160009054906101000a900473ffffffffffffffffffffffffffffffffffffffff1673ffffffffffffffffffffffffffffffffffffffff1681526020019060010190808311610f09575b5050505050905090565b600d60009054906101000a900473ffffffffffffffffffffffffffffffffffffffff1673ffffffffffffffffffffffffffffffffffffffff163373ffffffffffffffffffffffffffffffffffffffff1614806110065750600660009054906101000a900473ffffffffffffffffffffffffffffffffffffffff1673ffffffffffffffffffffffffffffffffffffffff163373ffffffffffffffffffffffffffffffffffffffff16145b611045576040517f08c379a000000000000000000000000000000000000000000000000000000000815260040161103c90612976565b60405180910390fd5b60001515600660149054906101000a900460ff1615151461109b576040517f08c379a000000000000000000000000000000000000000000000000000000000815260040161109290612b0b565b60405180910390fd5b6001600660146101000a81548160ff0219169083151502179055506000600660156101000a81548160ff02191690831515021790555042600781905550565b6000600a80549050905090565b6110ef611ab5565b73ffffffffffffffffffffffffffffffffffffffff1661110d61124b565b73ffffffffffffffffffffffffffffffffffffffff1614611163576040517f08c379a000000000000000000000000000000000000000000000000000000000815260040161115a90612719565b60405180910390fd5b61116d60006121e0565b565b611177611ab5565b73ffffffffffffffffffffffffffffffffffffffff1661119561124b565b73ffffffffffffffffffffffffffffffffffffffff16146111eb576040517f08c379a00000000000000000000000000000000000000000000000000000000081526004016111e290612719565b60405180910390fd5b80600260006101000a81548173ffffffffffffffffffffffffffffffffffffffff021916908373ffffffffffffffffffffffffffffffffffffffff16021790555050565b6000600980549050905090565b6000662386f26fc10000905090565b60008060009054906101000a900473ffffffffffffffffffffffffffffffffffffffff16905090565b600660149054906101000a900460ff166112c3576040517f08c379a00000000000000000000000000000000000000000000000000000000081526004016112ba90612b9d565b60405180910390fd5b662386f26fc1000034101580156112e2575068056bc75e2d6310000034105b611321576040517f08c379a000000000000000000000000000000000000000000000000000000000815260040161131890612c2f565b60405180910390fd5b6000600860003373ffffffffffffffffffffffffffffffffffffffff1673ffffffffffffffffffffffffffffffffffffffff168152602001908152602001600020600101549050678ac7230489e800008111156113b3576040517f08c379a00000000000000000000000000000000000000000000000000000000081526004016113aa90612c9b565b60405180910390fd5b6000806113c734662386f26fc1000061069f565b915091506000811461140e576040517f08c379a000000000000000000000000000000000000000000000000000000000815260040161140590612d2d565b60405180910390fd5b6009339080600181540180825580915050600190039060005260206000200160009091909190916101000a81548173ffffffffffffffffffffffffffffffffffffffff021916908373ffffffffffffffffffffffffffffffffffffffff1602179055506000600160098054905061148591906128f6565b90506000600a80549050905060005b848110156114d857600a83908060018154018082558091505060019003906000526020600020016000909190919091505580806114d090612d4d565b915050611494565b506000600a805490509050600b60405180606001604052808581526020018481526020018381525090806001815401808255809150506001900390600052602060002090600302016000909190919091509060036115379291906122a4565b506000600b8054905090506001600860003373ffffffffffffffffffffffffffffffffffffffff1673ffffffffffffffffffffffffffffffffffffffff16815260200190815260200160002060000160008282546115959190612d96565b9250508190555034600860003373ffffffffffffffffffffffffffffffffffffffff1673ffffffffffffffffffffffffffffffffffffffff16815260200190815260200160002060010160008282546115ee9190612d96565b9250508190555085600860003373ffffffffffffffffffffffffffffffffffffffff1673ffffffffffffffffffffffffffffffffffffffff16815260200190815260200160002060020160008282546116479190612d96565b92505081905550600860003373ffffffffffffffffffffffffffffffffffffffff1673ffffffffffffffffffffffffffffffffffffffff168152602001908152602001600020600401849080600181540180825580915050600190039060005260206000200160009091909190915055600860003373ffffffffffffffffffffffffffffffffffffffff1673ffffffffffffffffffffffffffffffffffffffff16815260200190815260200160002060030181908060018154018082558091505060019003906000526020600020016000909190919091505567016345785d8a0000471015801561173e5750600560098054905010155b1561175f576001600660156101000a81548160ff0219169083151502179055505b7f8de5754e4ed9d4994bdb4b2b8c12dfcd51b0e994c1d34a7f20fe7f3d3fbb7bc2338534896040516117949493929190612dec565b60405180910390a16001600860003373ffffffffffffffffffffffffffffffffffffffff1673ffffffffffffffffffffffffffffffffffffffff16815260200190815260200160002060000154111561192e577ff0b342fc13c65867c873cfbf6e19b5285bae679018bdf3376a4baca5ff066e0d33600860003373ffffffffffffffffffffffffffffffffffffffff1673ffffffffffffffffffffffffffffffffffffffff168152602001908152602001600020600401600860003373ffffffffffffffffffffffffffffffffffffffff1673ffffffffffffffffffffffffffffffffffffffff16815260200190815260200160002060000154600860003373ffffffffffffffffffffffffffffffffffffffff1673ffffffffffffffffffffffffffffffffffffffff16815260200190815260200160002060010154600860003373ffffffffffffffffffffffffffffffffffffffff1673ffffffffffffffffffffffffffffffffffffffff16815260200190815260200160002060020154604051611925959493929190612f07565b60405180910390a15b50505050505050565b60006007544261194791906128f6565b905090565b6000600d60009054906101000a900473ffffffffffffffffffffffffffffffffffffffff16905090565b60075481565b6000600c60009054906101000a900473ffffffffffffffffffffffffffffffffffffffff16905090565b6000600660159054906101000a900460ff16905090565b6119c5611ab5565b73ffffffffffffffffffffffffffffffffffffffff166119e361124b565b73ffffffffffffffffffffffffffffffffffffffff1614611a39576040517f08c379a0000000000000000000000000000000000000000000000000000000008152600401611a3090612719565b60405180910390fd5b600073ffffffffffffffffffffffffffffffffffffffff168173ffffffffffffffffffffffffffffffffffffffff161415611aa9576040517f08c379a0000000000000000000000000000000000000000000000000000000008152600401611aa090612fd3565b60405180910390fd5b611ab2816121e0565b50565b600033905090565b6000806000806000479050600060098781548110611ade57611add612a59565b5b9060005260206000200160009054906101000a900473ffffffffffffffffffffffffffffffffffffffff1690506000600860008373ffffffffffffffffffffffffffffffffffffffff1673ffffffffffffffffffffffffffffffffffffffff1681526020019081526020016000206001015490508083611b5e91906128f6565b9650611b6b87600261069f565b50809750508087611b7c9190612d96565b965060008784611b8c91906128f6565b9050611b9981601461069f565b508091505080965080955087816002611bb2919061289c565b85611bbd91906128f6565b611bc791906128f6565b9450505050509193509193565b600080600060098581548110611bed57611bec612a59565b5b9060005260206000200160009054906101000a900473ffffffffffffffffffffffffffffffffffffffff16600c60006101000a81548173ffffffffffffffffffffffffffffffffffffffff021916908373ffffffffffffffffffffffffffffffffffffffff160217905550600260009054906101000a900473ffffffffffffffffffffffffffffffffffffffff1673ffffffffffffffffffffffffffffffffffffffff16637a1fa9e33086600c60009054906101000a900473ffffffffffffffffffffffffffffffffffffffff1660006040518563ffffffff1660e01b8152600401611cdc9493929190613045565b602060405180830381600087803b158015611cf657600080fd5b505af1158015611d0a573d6000803e3d6000fd5b505050506040513d601f19601f82011682018060405250810190611d2e91906130b6565b9150600260009054906101000a900473ffffffffffffffffffffffffffffffffffffffff1673ffffffffffffffffffffffffffffffffffffffff1663a6dddd6430600c60009054906101000a900473ffffffffffffffffffffffffffffffffffffffff166040518363ffffffff1660e01b8152600401611daf9291906130e3565b602060405180830381600087803b158015611dc957600080fd5b505af1158015611ddd573d6000803e3d6000fd5b505050506040513d601f19601f82011682018060405250810190611e01919061274e565b905060019250505092915050565b600060098381548110611e2557611e24612a59565b5b9060005260206000200160009054906101000a900473ffffffffffffffffffffffffffffffffffffffff1690508073ffffffffffffffffffffffffffffffffffffffff166108fc839081150290604051600060405180830381858888f19350505050158015611e98573d6000803e3d6000fd5b507f9b320e270eb528aa46b3a21b196f1da153ccb2d5637e892594474e969fe6b7a98183604051611eca929190613161565b60405180910390a1505050565b6000600460009054906101000a900473ffffffffffffffffffffffffffffffffffffffff1690508073ffffffffffffffffffffffffffffffffffffffff166108fc859081150290604051600060405180830381858888f19350505050158015611f44573d6000803e3d6000fd5b507fd36f5f37e53a101e11e745c4b553773a94d17d9d7cec00640ac8331369a76d118185604051611f76929190613161565b60405180910390a1600560009054906101000a900473ffffffffffffffffffffffffffffffffffffffff1690508073ffffffffffffffffffffffffffffffffffffffff166108fc849081150290604051600060405180830381858888f19350505050158015611fe9573d6000803e3d6000fd5b507fd36f5f37e53a101e11e745c4b553773a94d17d9d7cec00640ac8331369a76d11818460405161201b929190613161565b60405180910390a1600360009054906101000a900473ffffffffffffffffffffffffffffffffffffffff1690508073ffffffffffffffffffffffffffffffffffffffff166108fc839081150290604051600060405180830381858888f1935050505015801561208e573d6000803e3d6000fd5b507fd36f5f37e53a101e11e745c4b553773a94d17d9d7cec00640ac8331369a76d1181836040516120c0929190613161565b60405180910390a150505050565b60008060005b60016009805490506120e691906128f6565b8110156121bb576009818154811061210157612100612a59565b5b9060005260206000200160009054906101000a900473ffffffffffffffffffffffffffffffffffffffff169150600860008373ffffffffffffffffffffffffffffffffffffffff1673ffffffffffffffffffffffffffffffffffffffff1681526020019081526020016000206000808201600090556001820160009055600282016000905560038201600061219691906122e4565b6004820160006121a691906122e4565b505080806121b390612d4d565b9150506120d4565b50600960006121ca9190612305565b600a60006121d891906122e4565b600191505090565b60008060009054906101000a900473ffffffffffffffffffffffffffffffffffffffff169050816000806101000a81548173ffffffffffffffffffffffffffffffffffffffff021916908373ffffffffffffffffffffffffffffffffffffffff1602179055508173ffffffffffffffffffffffffffffffffffffffff168173ffffffffffffffffffffffffffffffffffffffff167f8be0079c531659141344cd1fd0a4f28419497f9722a3daafe3b4186f6b6457e060405160405180910390a35050565b82600381019282156122d3579160200282015b828111156122d25782518255916020019190600101906122b7565b5b5090506122e09190612326565b5090565b50805460008255906000526020600020908101906123029190612326565b50565b50805460008255906000526020600020908101906123239190612326565b50565b5b8082111561233f576000816000905550600101612327565b5090565b6000819050919050565b61235681612343565b82525050565b6000602082019050612371600083018461234d565b92915050565b600080fd5b600073ffffffffffffffffffffffffffffffffffffffff82169050919050565b60006123a78261237c565b9050919050565b6123b78161239c565b81146123c257600080fd5b50565b6000813590506123d4816123ae565b92915050565b6000602082840312156123f0576123ef612377565b5b60006123fe848285016123c5565b91505092915050565b61241081612343565b811461241b57600080fd5b50565b60008135905061242d81612407565b92915050565b6000806040838503121561244a57612449612377565b5b60006124588582860161241e565b92505060206124698582860161241e565b9150509250929050565b6000604082019050612488600083018561234d565b612495602083018461234d565b9392505050565b600081519050919050565b600082825260208201905092915050565b6000819050602082019050919050565b6124d181612343565b82525050565b60006124e383836124c8565b60208301905092915050565b6000602082019050919050565b60006125078261249c565b61251181856124a7565b935061251c836124b8565b8060005b8381101561254d57815161253488826124d7565b975061253f836124ef565b925050600181019050612520565b5085935050505092915050565b6000602082019050818103600083015261257481846124fc565b905092915050565b60008115159050919050565b6125918161257c565b82525050565b60006020820190506125ac6000830184612588565b92915050565b600081519050919050565b600082825260208201905092915050565b6000819050602082019050919050565b6125e78161239c565b82525050565b60006125f983836125de565b60208301905092915050565b6000602082019050919050565b600061261d826125b2565b61262781856125bd565b9350612632836125ce565b8060005b8381101561266357815161264a88826125ed565b975061265583612605565b925050600181019050612636565b5085935050505092915050565b6000602082019050818103600083015261268a8184612612565b905092915050565b61269b8161239c565b82525050565b60006020820190506126b66000830184612692565b92915050565b600082825260208201905092915050565b7f4f776e61626c653a2063616c6c6572206973206e6f7420746865206f776e6572600082015250565b60006127036020836126bc565b915061270e826126cd565b602082019050919050565b60006020820190508181036000830152612732816126f6565b9050919050565b60008151905061274881612407565b92915050565b60006020828403121561276457612763612377565b5b600061277284828501612739565b91505092915050565b7f4469766973696f6e206973204e6f7420506f737369626c65202c20427567206960008201527f6e204e756d626572732021000000000000000000000000000000000000000000602082015250565b60006127d7602b836126bc565b91506127e28261277b565b604082019050919050565b60006020820190508181036000830152612806816127ca565b9050919050565b7f4e487b7100000000000000000000000000000000000000000000000000000000600052601260045260246000fd5b7f4e487b7100000000000000000000000000000000000000000000000000000000600052601160045260246000fd5b600061287682612343565b915061288183612343565b9250826128915761289061280d565b5b828204905092915050565b60006128a782612343565b91506128b283612343565b9250817fffffffffffffffffffffffffffffffffffffffffffffffffffffffffffffffff04831182151516156128eb576128ea61283c565b5b828202905092915050565b600061290182612343565b915061290c83612343565b92508282101561291f5761291e61283c565b5b828203905092915050565b7f5065726d697373696f6e2044656e696564202121000000000000000000000000600082015250565b60006129606014836126bc565b915061296b8261292a565b602082019050919050565b6000602082019050818103600083015261298f81612953565b9050919050565b7f54686520506f74206973206e6f7420726561647920666f722053656c6563742060008201527f7468652057696e6e657200000000000000000000000000000000000000000000602082015250565b60006129f2602a836126bc565b91506129fd82612996565b604082019050919050565b60006020820190508181036000830152612a21816129e5565b9050919050565b6000612a3382612343565b9150612a3e83612343565b925082612a4e57612a4d61280d565b5b828206905092915050565b7f4e487b7100000000000000000000000000000000000000000000000000000000600052603260045260246000fd5b6000606082019050612a9d600083018661234d565b612aaa602083018561234d565b612ab7604083018461234d565b949350505050565b7f54686520506f742069732073746172746564206265666f726520210000000000600082015250565b6000612af5601b836126bc565b9150612b0082612abf565b602082019050919050565b60006020820190508181036000830152612b2481612ae8565b9050919050565b7f54686520506f7420686173206e6f74206265656e20526561647920746f20506c60008201527f617920796574204f72205468652047616d65206973204f766572210000000000602082015250565b6000612b87603b836126bc565b9150612b9282612b2b565b604082019050919050565b60006020820190508181036000830152612bb681612b7a565b9050919050565b7f56616c75652073686f756c64206265206265747765656e20302e30312026203160008201527f303020424e420000000000000000000000000000000000000000000000000000602082015250565b6000612c196026836126bc565b9150612c2482612bbd565b604082019050919050565b60006020820190508181036000830152612c4881612c0c565b9050919050565b7f596f7520706c6179656420746f6f206d75636820212100000000000000000000600082015250565b6000612c856016836126bc565b9150612c9082612c4f565b602082019050919050565b60006020820190508181036000830152612cb481612c78565b9050919050565b7f56616c75652073686f756c6420626520616e20496e7465676572206d7574697060008201527f6c65206f6620302e303120424e42000000000000000000000000000000000000602082015250565b6000612d17602e836126bc565b9150612d2282612cbb565b604082019050919050565b60006020820190508181036000830152612d4681612d0a565b9050919050565b6000612d5882612343565b91507fffffffffffffffffffffffffffffffffffffffffffffffffffffffffffffffff821415612d8b57612d8a61283c565b5b600182019050919050565b6000612da182612343565b9150612dac83612343565b9250827fffffffffffffffffffffffffffffffffffffffffffffffffffffffffffffffff03821115612de157612de061283c565b5b828201905092915050565b6000608082019050612e016000830187612692565b612e0e602083018661234d565b612e1b604083018561234d565b612e28606083018461234d565b95945050505050565b600081549050919050565b60008190508160005260206000209050919050565b60008160001c9050919050565b6000819050919050565b6000612e7b612e7683612e51565b612e5e565b9050919050565b6000612e8e8254612e68565b9050919050565b6000600182019050919050565b6000612ead82612e31565b612eb781856124a7565b9350612ec283612e3c565b8060005b83811015612efa57612ed782612e82565b612ee188826124d7565b9750612eec83612e95565b925050600181019050612ec6565b5085935050505092915050565b600060a082019050612f1c6000830188612692565b8181036020830152612f2e8187612ea2565b9050612f3d604083018661234d565b612f4a606083018561234d565b612f57608083018461234d565b9695505050505050565b7f4f776e61626c653a206e6577206f776e657220697320746865207a65726f206160008201527f6464726573730000000000000000000000000000000000000000000000000000602082015250565b6000612fbd6026836126bc565b9150612fc882612f61565b604082019050919050565b60006020820190508181036000830152612fec81612fb0565b9050919050565b6000819050919050565b600060ff82169050919050565b6000819050919050565b600061302f61302a61302584612ff3565b61300a565b612ffd565b9050919050565b61303f81613014565b82525050565b600060808201905061305a6000830187612692565b613067602083018661234d565b6130746040830185612692565b6130816060830184613036565b95945050505050565b6130938161257c565b811461309e57600080fd5b50565b6000815190506130b08161308a565b92915050565b6000602082840312156130cc576130cb612377565b5b60006130da848285016130a1565b91505092915050565b60006040820190506130f86000830185612692565b6131056020830184612692565b9392505050565b600061312761312261311d8461237c565b61300a565b61237c565b9050919050565b60006131398261310c565b9050919050565b600061314b8261312e565b9050919050565b61315b81613140565b82525050565b60006040820190506131766000830185613152565b613183602083018461234d565b939250505056fea2646970667358221220aa2213406867aeecc8a34d1563d0d939cb7ea6c0229b8a0dcbf4969379483b9864736f6c63430008090033a2646970667358221220d1643aa5c81e4ef04cf27e886cb29f947265a7b953187d21d250d95321eef6a264736f6c63430008090033",
  "immutableReferences": {},
  "source": "// SPDX-License-Identifier: MIT\npragma solidity ^0.8.0;\n\nimport \"@openzeppelin/contracts/access/Ownable.sol\";\nimport \"./LotteryCore.sol\";\n\n\n/**\n  * @title Lottery Generator Smart Contract.\n  * @author Batis \n  * @notice This SmartContract is responsible for Lottery Generation.\n  * @dev Lottery Generator SmartContract - Parent of Core Lottery\n*/\ncontract LotteryGenerator is Ownable {\n\n    // uint constant TICKET_PRICE = 10 * 1e15; // finney (0.01 Ether)\n\n    enum LType {\n        Hourly,\n        Daily,\n        Weekly,\n        Monthly\n    }\n\n    address[] public lotteries;\n    struct lottery{\n        uint index;\n        address creator;\n        uint totalBalance;\n        address winnerAddress; \n        LType lotteryType;\n    }\n    mapping(address => lottery) lotteryStructs;\n\n    address[] public LotteryWinnersArray;\n    struct LotteryWinnerStr{\n        uint playersId;\n        uint winnerCount;\n    }\n    mapping (address => LotteryWinnerStr) public LotteryWinnersMap;\n\n    address[] public WeeklyWinnersArray;\n    struct WeeklyWinnerStr{\n        uint playersId;\n        uint winnerCount;\n    }\n    mapping (address => WeeklyWinnerStr) public WeeklyWinnersMap;\n\n    // event\n    event LotteryCreated(address newLottery);\n\n  /* ToDo : Add & Complete Fallback routine */\n    fallback() external payable {\n    }\n    receive() external payable {\n    }\n\n    function balanceInPot() public view returns(uint){\n        return address(this).balance;\n    }\n\n    function withdraw() external onlyOwner {\n        payable(msg.sender).transfer(address(this).balance);\n    }\n\n    function getWinners() public view returns(address[] memory) {\n        return LotteryWinnersArray;\n    }\n\n    function setlotteryStructs(address _lotteryAddress, uint _totalBalance, address _winnerAddress, uint8 _lotteryType) external returns (bool) {\n        lotteryStructs[_lotteryAddress].totalBalance = _totalBalance;\n        lotteryStructs[_lotteryAddress].winnerAddress = _winnerAddress;\n        lotteryStructs[_lotteryAddress].lotteryType = LType(_lotteryType);\n        return true;\n    }\n\n    function setlotteryWinnersArrayMap(address _lotteryAddress, address _winnerAddress) external returns (uint) {\n        LotteryWinnersArray.push(_winnerAddress);\n        LotteryWinnersMap[_winnerAddress].playersId = LotteryWinnersArray.length;  // -1\n        LotteryWinnersMap[_winnerAddress].winnerCount++;\n        return LotteryWinnersArray.length ;  // -1\n    }\n\n    function setWeeklyWinnersArrayMap(address _lotteryAddress, address _winnerAddress) external returns (uint) {\n        WeeklyWinnersArray.push(_winnerAddress);\n        WeeklyWinnersMap[_winnerAddress].playersId = WeeklyWinnersArray.length;  // -1\n        WeeklyWinnersMap[_winnerAddress].winnerCount++;\n        return WeeklyWinnersArray.length ;  // -1\n    }\n\n    function clearlotteryWinnersArrayMap(address _lotteryAddress) external returns (bool) {\n        address _lotteryWinAddress;\n        for (uint256 index = 0; index < LotteryWinnersArray.length - 1; index++) {\n            _lotteryWinAddress = LotteryWinnersArray[index];\n            // if (LotteryWinnersMap[_lotteryWinAddress].playersId > 0) {\n            //     LotteryWinnersMap[_lotteryWinAddress].playersId = 0;\n            //     LotteryWinnersMap[_lotteryWinAddress].winnerCount = 0;\n            // }\n            delete LotteryWinnersMap[_lotteryWinAddress];\n        }\n        delete LotteryWinnersArray;\n        return true;\n    }\n\n    function clearWeeklyWinnersArrayMap(address _lotteryAddress) external returns (bool) {\n        address _lotteryWinAddress;\n        for (uint256 index = 0; index < WeeklyWinnersArray.length - 1; index++) {\n            _lotteryWinAddress = WeeklyWinnersArray[index];\n            // if (WeeklyWinnersMap[_lotteryWinAddress].playersId > 0) {\n            //     WeeklyWinnersMap[_lotteryWinAddress].playersId = 0;\n            //     WeeklyWinnersMap[_lotteryWinAddress].winnerCount = 0;\n            // }\n            delete WeeklyWinnersMap[_lotteryWinAddress];\n        }\n        delete WeeklyWinnersArray;\n        return true;\n    }\n\n\n    function createLottery(address _VRF) public onlyOwner {\n\n        // require(bytes(name).length > 0);\n        address newLottery = address(new LotteryCore(_VRF));\n        lotteries.push(newLottery);\n        lotteryStructs[newLottery].index = lotteries.length - 1;\n        lotteryStructs[newLottery].creator = msg.sender;\n        lotteryStructs[newLottery].totalBalance = 0;\n        lotteryStructs[newLottery].winnerAddress = address(0);\n\n        emit LotteryCreated( newLottery );\n    }\n\n    // function getLotteries() public view returns(address[]) {\n    //     return lotteries;\n    // }\n\n    function deleteLottery(address lotteryAddress) public  onlyOwner {\n        require(msg.sender == lotteryStructs[lotteryAddress].creator);\n        uint indexToDelete = lotteryStructs[lotteryAddress].index;\n        address lastAddress = lotteries[lotteries.length - 1];\n        lotteries[indexToDelete] = lastAddress;\n        // lotteries.length --;\n    }\n\n    // Events\n    // event LotteryCreated(\n    //     address lotteryAddress\n    // );\n}\n\n\n\n",
  "sourcePath": "/root/SC/BSCLottery/contracts/LotteryGenerator.sol",
  "compiler": {
    "name": "solc",
    "version": "0.8.9+commit.e5eed63a.Emscripten.clang"
  },
  "schemaVersion": "3.4.3",
  "updatedAt": "2022-05-09T08:17:41.461Z",
  "networkType": "ethereum",
  "devdoc": {
    "author": "Batis ",
    "details": "Lottery Generator SmartContract - Parent of Core Lottery",
    "kind": "dev",
    "methods": {
      "owner()": {
        "details": "Returns the address of the current owner."
      },
      "renounceOwnership()": {
        "details": "Leaves the contract without owner. It will not be possible to call `onlyOwner` functions anymore. Can only be called by the current owner. NOTE: Renouncing ownership will leave the contract without an owner, thereby removing any functionality that is only available to the owner."
      },
      "transferOwnership(address)": {
        "details": "Transfers ownership of the contract to a new account (`newOwner`). Can only be called by the current owner."
      }
    },
    "title": "Lottery Generator Smart Contract.",
    "version": 1
  },
  "userdoc": {
    "kind": "user",
    "methods": {},
    "notice": "This SmartContract is responsible for Lottery Generation.",
    "version": 1
  }
}