{
  "contractName": "LotteryGenerator",
  "abi": [
    {
      "anonymous": false,
      "inputs": [
        {
          "indexed": false,
          "internalType": "address",
          "name": "newLottery",
          "type": "address"
        }
      ],
      "name": "LotteryCreated",
      "type": "event"
    },
    {
      "anonymous": false,
      "inputs": [
        {
          "indexed": true,
          "internalType": "address",
          "name": "previousOwner",
          "type": "address"
        },
        {
          "indexed": true,
          "internalType": "address",
          "name": "newOwner",
          "type": "address"
        }
      ],
      "name": "OwnershipTransferred",
      "type": "event"
    },
    {
      "inputs": [
        {
          "internalType": "uint256",
          "name": "",
          "type": "uint256"
        }
      ],
      "name": "LotteryWinnersArray",
      "outputs": [
        {
          "internalType": "address",
          "name": "",
          "type": "address"
        }
      ],
      "stateMutability": "view",
      "type": "function"
    },
    {
      "inputs": [
        {
          "internalType": "address",
          "name": "",
          "type": "address"
        }
      ],
      "name": "LotteryWinnersMap",
      "outputs": [
        {
          "internalType": "uint256",
          "name": "playersId",
          "type": "uint256"
        },
        {
          "internalType": "uint256",
          "name": "winnerCount",
          "type": "uint256"
        }
      ],
      "stateMutability": "view",
      "type": "function"
    },
    {
      "inputs": [
        {
          "internalType": "uint256",
          "name": "",
          "type": "uint256"
        }
      ],
      "name": "WeeklyWinnersArray",
      "outputs": [
        {
          "internalType": "address",
          "name": "",
          "type": "address"
        }
      ],
      "stateMutability": "view",
      "type": "function"
    },
    {
      "inputs": [
        {
          "internalType": "address",
          "name": "",
          "type": "address"
        }
      ],
      "name": "WeeklyWinnersMap",
      "outputs": [
        {
          "internalType": "uint256",
          "name": "playersId",
          "type": "uint256"
        },
        {
          "internalType": "uint256",
          "name": "winnerCount",
          "type": "uint256"
        }
      ],
      "stateMutability": "view",
      "type": "function"
    },
    {
      "inputs": [
        {
          "internalType": "uint256",
          "name": "",
          "type": "uint256"
        }
      ],
      "name": "lotteries",
      "outputs": [
        {
          "internalType": "address",
          "name": "",
          "type": "address"
        }
      ],
      "stateMutability": "view",
      "type": "function"
    },
    {
      "inputs": [],
      "name": "owner",
      "outputs": [
        {
          "internalType": "address",
          "name": "",
          "type": "address"
        }
      ],
      "stateMutability": "view",
      "type": "function"
    },
    {
      "inputs": [],
      "name": "renounceOwnership",
      "outputs": [],
      "stateMutability": "nonpayable",
      "type": "function"
    },
    {
      "inputs": [
        {
          "internalType": "address",
          "name": "newOwner",
          "type": "address"
        }
      ],
      "name": "transferOwnership",
      "outputs": [],
      "stateMutability": "nonpayable",
      "type": "function"
    },
    {
      "inputs": [
        {
          "internalType": "address",
          "name": "_lotteryAddress",
          "type": "address"
        },
        {
          "internalType": "uint256",
          "name": "_totalBalance",
          "type": "uint256"
        },
        {
          "internalType": "address",
          "name": "_winnerAddress",
          "type": "address"
        },
        {
          "internalType": "uint8",
          "name": "_lotteryType",
          "type": "uint8"
        }
      ],
      "name": "setlotteryStructs",
      "outputs": [
        {
          "internalType": "bool",
          "name": "",
          "type": "bool"
        }
      ],
      "stateMutability": "nonpayable",
      "type": "function"
    },
    {
      "inputs": [
        {
          "internalType": "address",
          "name": "_lotteryAddress",
          "type": "address"
        },
        {
          "internalType": "address",
          "name": "_winnerAddress",
          "type": "address"
        }
      ],
      "name": "setlotteryWinnersArrayMap",
      "outputs": [
        {
          "internalType": "uint256",
          "name": "",
          "type": "uint256"
        }
      ],
      "stateMutability": "nonpayable",
      "type": "function"
    },
    {
      "inputs": [
        {
          "internalType": "address",
          "name": "_lotteryAddress",
          "type": "address"
        },
        {
          "internalType": "address",
          "name": "_winnerAddress",
          "type": "address"
        }
      ],
      "name": "setWeeklyWinnersArrayMap",
      "outputs": [
        {
          "internalType": "uint256",
          "name": "",
          "type": "uint256"
        }
      ],
      "stateMutability": "nonpayable",
      "type": "function"
    },
    {
      "inputs": [
        {
          "internalType": "address",
          "name": "_lotteryAddress",
          "type": "address"
        }
      ],
      "name": "clearlotteryWinnersArrayMap",
      "outputs": [
        {
          "internalType": "bool",
          "name": "",
          "type": "bool"
        }
      ],
      "stateMutability": "nonpayable",
      "type": "function"
    },
    {
      "inputs": [
        {
          "internalType": "address",
          "name": "_lotteryAddress",
          "type": "address"
        }
      ],
      "name": "clearWeeklyWinnersArrayMap",
      "outputs": [
        {
          "internalType": "bool",
          "name": "",
          "type": "bool"
        }
      ],
      "stateMutability": "nonpayable",
      "type": "function"
    },
    {
      "inputs": [
        {
          "internalType": "address",
          "name": "_VRF",
          "type": "address"
        }
      ],
      "name": "createLottery",
      "outputs": [],
      "stateMutability": "nonpayable",
      "type": "function"
    },
    {
      "inputs": [
        {
          "internalType": "address",
          "name": "lotteryAddress",
          "type": "address"
        }
      ],
      "name": "deleteLottery",
      "outputs": [],
      "stateMutability": "nonpayable",
      "type": "function"
    }
  ],
  "bytecode": "0x608060405234801561001057600080fd5b5061002d61002261003260201b60201c565b61003a60201b60201c565b6100fe565b600033905090565b60008060009054906101000a900473ffffffffffffffffffffffffffffffffffffffff169050816000806101000a81548173ffffffffffffffffffffffffffffffffffffffff021916908373ffffffffffffffffffffffffffffffffffffffff1602179055508173ffffffffffffffffffffffffffffffffffffffff168173ffffffffffffffffffffffffffffffffffffffff167f8be0079c531659141344cd1fd0a4f28419497f9722a3daafe3b4186f6b6457e060405160405180910390a35050565b613f798061010d6000396000f3fe60806040523480156200001157600080fd5b50600436106200010c5760003560e01c80638da5cb5b11620000a5578063a6dddd64116200006f578063a6dddd641462000311578063a7e46eac1462000347578063f2fde38b1462000367578063f67112391462000387576200010c565b80638da5cb5b14620002635780639139a20e146200028557806394c31c9b14620002a5578063a35e151c14620002db576200010c565b806354a1ec7311620000e757806354a1ec7314620001b4578063653ea43914620001ea578063715018a614620002215780637a1fa9e3146200022d576200010c565b80631398e07614620001115780631c1f5389146200014757806332f655fd146200017e575b600080fd5b6200012f600480360381019062000129919062001379565b620003bd565b6040516200013e9190620013f0565b60405180910390f35b6200016560048036038101906200015f91906200143e565b620003fd565b6040516200017592919062001481565b60405180910390f35b6200019c60048036038101906200019691906200143e565b62000421565b604051620001ab9190620014cb565b60405180910390f35b620001d26004803603810190620001cc91906200143e565b62000595565b604051620001e19190620014cb565b60405180910390f35b6200020860048036038101906200020291906200143e565b62000709565b6040516200021892919062001481565b60405180910390f35b6200022b6200072d565b005b6200024b600480360381019062000245919062001526565b620007be565b6040516200025a9190620014cb565b60405180910390f35b6200026d62000919565b6040516200027c9190620013f0565b60405180910390f35b620002a360048036038101906200029d91906200143e565b62000942565b005b620002c36004803603810190620002bd919062001598565b62000c46565b604051620002d29190620015df565b60405180910390f35b620002f96004803603810190620002f3919062001379565b62000d5f565b604051620003089190620013f0565b60405180910390f35b6200032f600480360381019062000329919062001598565b62000d9f565b6040516200033e9190620015df565b60405180910390f35b6200036560048036038101906200035f91906200143e565b62000eb8565b005b6200038560048036038101906200037f91906200143e565b620010d9565b005b620003a560048036038101906200039f919062001379565b620011dd565b604051620003b49190620013f0565b60405180910390f35b60018181548110620003ce57600080fd5b906000526020600020016000915054906101000a900473ffffffffffffffffffffffffffffffffffffffff1681565b60046020528060005260406000206000915090508060000154908060010154905082565b60008060005b60016005805490506200043b91906200162b565b8110156200057a57600581815481106200045a576200045962001666565b5b9060005260206000200160009054906101000a900473ffffffffffffffffffffffffffffffffffffffff1691506000600660008473ffffffffffffffffffffffffffffffffffffffff1673ffffffffffffffffffffffffffffffffffffffff16815260200190815260200160002060000154111562000564576000600660008473ffffffffffffffffffffffffffffffffffffffff1673ffffffffffffffffffffffffffffffffffffffff168152602001908152602001600020600001819055506000600660008473ffffffffffffffffffffffffffffffffffffffff1673ffffffffffffffffffffffffffffffffffffffff168152602001908152602001600020600101819055505b8080620005719062001695565b91505062000427565b50600560006200058b9190620012e9565b6001915050919050565b60008060005b6001600380549050620005af91906200162b565b811015620006ee5760038181548110620005ce57620005cd62001666565b5b9060005260206000200160009054906101000a900473ffffffffffffffffffffffffffffffffffffffff1691506000600460008473ffffffffffffffffffffffffffffffffffffffff1673ffffffffffffffffffffffffffffffffffffffff168152602001908152602001600020600001541115620006d8576000600460008473ffffffffffffffffffffffffffffffffffffffff1673ffffffffffffffffffffffffffffffffffffffff168152602001908152602001600020600001819055506000600460008473ffffffffffffffffffffffffffffffffffffffff1673ffffffffffffffffffffffffffffffffffffffff168152602001908152602001600020600101819055505b8080620006e59062001695565b9150506200059b565b5060036000620006ff9190620012e9565b6001915050919050565b60066020528060005260406000206000915090508060000154908060010154905082565b620007376200121d565b73ffffffffffffffffffffffffffffffffffffffff166200075762000919565b73ffffffffffffffffffffffffffffffffffffffff1614620007b0576040517f08c379a0000000000000000000000000000000000000000000000000000000008152600401620007a79062001744565b60405180910390fd5b620007bc600062001225565b565b600083600260008773ffffffffffffffffffffffffffffffffffffffff1673ffffffffffffffffffffffffffffffffffffffff1681526020019081526020016000206002018190555082600260008773ffffffffffffffffffffffffffffffffffffffff1673ffffffffffffffffffffffffffffffffffffffff16815260200190815260200160002060030160006101000a81548173ffffffffffffffffffffffffffffffffffffffff021916908373ffffffffffffffffffffffffffffffffffffffff1602179055508160ff166003811115620008a157620008a062001766565b5b600260008773ffffffffffffffffffffffffffffffffffffffff1673ffffffffffffffffffffffffffffffffffffffff16815260200190815260200160002060030160146101000a81548160ff0219169083600381111562000908576200090762001766565b5b021790555060019050949350505050565b60008060009054906101000a900473ffffffffffffffffffffffffffffffffffffffff16905090565b6200094c6200121d565b73ffffffffffffffffffffffffffffffffffffffff166200096c62000919565b73ffffffffffffffffffffffffffffffffffffffff1614620009c5576040517f08c379a0000000000000000000000000000000000000000000000000000000008152600401620009bc9062001744565b60405180910390fd5b600081604051620009d6906200130c565b620009e29190620013f0565b604051809103906000f080158015620009ff573d6000803e3d6000fd5b5090506001819080600181540180825580915050600190039060005260206000200160009091909190916101000a81548173ffffffffffffffffffffffffffffffffffffffff021916908373ffffffffffffffffffffffffffffffffffffffff1602179055506001808054905062000a7891906200162b565b600260008373ffffffffffffffffffffffffffffffffffffffff1673ffffffffffffffffffffffffffffffffffffffff1681526020019081526020016000206000018190555033600260008373ffffffffffffffffffffffffffffffffffffffff1673ffffffffffffffffffffffffffffffffffffffff16815260200190815260200160002060010160006101000a81548173ffffffffffffffffffffffffffffffffffffffff021916908373ffffffffffffffffffffffffffffffffffffffff1602179055506000600260008373ffffffffffffffffffffffffffffffffffffffff1673ffffffffffffffffffffffffffffffffffffffff168152602001908152602001600020600201819055506000600260008373ffffffffffffffffffffffffffffffffffffffff1673ffffffffffffffffffffffffffffffffffffffff16815260200190815260200160002060030160006101000a81548173ffffffffffffffffffffffffffffffffffffffff021916908373ffffffffffffffffffffffffffffffffffffffff1602179055507fe610764cbcba803247df3450b7492f6a0084b7b5b734a7901c13fef8f84ffaf48160405162000c3a9190620013f0565b60405180910390a15050565b60006005829080600181540180825580915050600190039060005260206000200160009091909190916101000a81548173ffffffffffffffffffffffffffffffffffffffff021916908373ffffffffffffffffffffffffffffffffffffffff160217905550600580549050600660008473ffffffffffffffffffffffffffffffffffffffff1673ffffffffffffffffffffffffffffffffffffffff16815260200190815260200160002060000181905550600660008373ffffffffffffffffffffffffffffffffffffffff1673ffffffffffffffffffffffffffffffffffffffff168152602001908152602001600020600101600081548092919062000d4c9062001695565b9190505550600580549050905092915050565b6005818154811062000d7057600080fd5b906000526020600020016000915054906101000a900473ffffffffffffffffffffffffffffffffffffffff1681565b60006003829080600181540180825580915050600190039060005260206000200160009091909190916101000a81548173ffffffffffffffffffffffffffffffffffffffff021916908373ffffffffffffffffffffffffffffffffffffffff160217905550600380549050600460008473ffffffffffffffffffffffffffffffffffffffff1673ffffffffffffffffffffffffffffffffffffffff16815260200190815260200160002060000181905550600460008373ffffffffffffffffffffffffffffffffffffffff1673ffffffffffffffffffffffffffffffffffffffff168152602001908152602001600020600101600081548092919062000ea59062001695565b9190505550600380549050905092915050565b62000ec26200121d565b73ffffffffffffffffffffffffffffffffffffffff1662000ee262000919565b73ffffffffffffffffffffffffffffffffffffffff161462000f3b576040517f08c379a000000000000000000000000000000000000000000000000000000000815260040162000f329062001744565b60405180910390fd5b600260008273ffffffffffffffffffffffffffffffffffffffff1673ffffffffffffffffffffffffffffffffffffffff16815260200190815260200160002060010160009054906101000a900473ffffffffffffffffffffffffffffffffffffffff1673ffffffffffffffffffffffffffffffffffffffff163373ffffffffffffffffffffffffffffffffffffffff161462000fd657600080fd5b6000600260008373ffffffffffffffffffffffffffffffffffffffff1673ffffffffffffffffffffffffffffffffffffffff168152602001908152602001600020600001549050600060018080805490506200103391906200162b565b8154811062001047576200104662001666565b5b9060005260206000200160009054906101000a900473ffffffffffffffffffffffffffffffffffffffff16905080600183815481106200108c576200108b62001666565b5b9060005260206000200160006101000a81548173ffffffffffffffffffffffffffffffffffffffff021916908373ffffffffffffffffffffffffffffffffffffffff160217905550505050565b620010e36200121d565b73ffffffffffffffffffffffffffffffffffffffff166200110362000919565b73ffffffffffffffffffffffffffffffffffffffff16146200115c576040517f08c379a0000000000000000000000000000000000000000000000000000000008152600401620011539062001744565b60405180910390fd5b600073ffffffffffffffffffffffffffffffffffffffff168173ffffffffffffffffffffffffffffffffffffffff161415620011cf576040517f08c379a0000000000000000000000000000000000000000000000000000000008152600401620011c6906200180b565b60405180910390fd5b620011da8162001225565b50565b60038181548110620011ee57600080fd5b906000526020600020016000915054906101000a900473ffffffffffffffffffffffffffffffffffffffff1681565b600033905090565b60008060009054906101000a900473ffffffffffffffffffffffffffffffffffffffff169050816000806101000a81548173ffffffffffffffffffffffffffffffffffffffff021916908373ffffffffffffffffffffffffffffffffffffffff1602179055508173ffffffffffffffffffffffffffffffffffffffff168173ffffffffffffffffffffffffffffffffffffffff167f8be0079c531659141344cd1fd0a4f28419497f9722a3daafe3b4186f6b6457e060405160405180910390a35050565b50805460008255906000526020600020908101906200130991906200131a565b50565b612716806200182e83390190565b5b80821115620013355760008160009055506001016200131b565b5090565b600080fd5b6000819050919050565b62001353816200133e565b81146200135f57600080fd5b50565b600081359050620013738162001348565b92915050565b60006020828403121562001392576200139162001339565b5b6000620013a28482850162001362565b91505092915050565b600073ffffffffffffffffffffffffffffffffffffffff82169050919050565b6000620013d882620013ab565b9050919050565b620013ea81620013cb565b82525050565b6000602082019050620014076000830184620013df565b92915050565b6200141881620013cb565b81146200142457600080fd5b50565b60008135905062001438816200140d565b92915050565b60006020828403121562001457576200145662001339565b5b6000620014678482850162001427565b91505092915050565b6200147b816200133e565b82525050565b600060408201905062001498600083018562001470565b620014a7602083018462001470565b9392505050565b60008115159050919050565b620014c581620014ae565b82525050565b6000602082019050620014e26000830184620014ba565b92915050565b600060ff82169050919050565b6200150081620014e8565b81146200150c57600080fd5b50565b6000813590506200152081620014f5565b92915050565b6000806000806080858703121562001543576200154262001339565b5b6000620015538782880162001427565b9450506020620015668782880162001362565b9350506040620015798782880162001427565b92505060606200158c878288016200150f565b91505092959194509250565b60008060408385031215620015b257620015b162001339565b5b6000620015c28582860162001427565b9250506020620015d58582860162001427565b9150509250929050565b6000602082019050620015f6600083018462001470565b92915050565b7f4e487b7100000000000000000000000000000000000000000000000000000000600052601160045260246000fd5b600062001638826200133e565b915062001645836200133e565b9250828210156200165b576200165a620015fc565b5b828203905092915050565b7f4e487b7100000000000000000000000000000000000000000000000000000000600052603260045260246000fd5b6000620016a2826200133e565b91507fffffffffffffffffffffffffffffffffffffffffffffffffffffffffffffffff821415620016d857620016d7620015fc565b5b600182019050919050565b600082825260208201905092915050565b7f4f776e61626c653a2063616c6c6572206973206e6f7420746865206f776e6572600082015250565b60006200172c602083620016e3565b91506200173982620016f4565b602082019050919050565b600060208201905081810360008301526200175f816200171d565b9050919050565b7f4e487b7100000000000000000000000000000000000000000000000000000000600052602160045260246000fd5b7f4f776e61626c653a206e6577206f776e657220697320746865207a65726f206160008201527f6464726573730000000000000000000000000000000000000000000000000000602082015250565b6000620017f3602683620016e3565b9150620018008262001795565b604082019050919050565b600060208201905081810360008301526200182681620017e4565b905091905056fe60806040523480156200001157600080fd5b5060405162002716380380620027168339818101604052810190620000379190620001d5565b620000576200004b6200009f60201b60201c565b620000a760201b60201c565b80600760006101000a81548173ffffffffffffffffffffffffffffffffffffffff021916908373ffffffffffffffffffffffffffffffffffffffff1602179055505062000207565b600033905090565b60008060009054906101000a900473ffffffffffffffffffffffffffffffffffffffff169050816000806101000a81548173ffffffffffffffffffffffffffffffffffffffff021916908373ffffffffffffffffffffffffffffffffffffffff1602179055508173ffffffffffffffffffffffffffffffffffffffff168173ffffffffffffffffffffffffffffffffffffffff167f8be0079c531659141344cd1fd0a4f28419497f9722a3daafe3b4186f6b6457e060405160405180910390a35050565b600080fd5b600073ffffffffffffffffffffffffffffffffffffffff82169050919050565b60006200019d8262000170565b9050919050565b620001af8162000190565b8114620001bb57600080fd5b50565b600081519050620001cf81620001a4565b92915050565b600060208284031215620001ee57620001ed6200016b565b5b6000620001fe84828501620001be565b91505092915050565b6124ff80620002176000396000f3fe6080604052600436106100dd5760003560e01c8063442db8fb1161007f578063737bb72311610059578063737bb723146102775780638da5cb5b1461029357806393e84cd9146102be578063f2fde38b146102c8576100dd565b8063442db8fb1461020a57806364605d5114610235578063715018a614610260576100dd565b8063231085e5116100bb578063231085e5146101885780632ac75ab5146101b35780633ccfd60b146101ca5780633fa420c4146101e1576100dd565b806314e59987146100e257806314e5e90e1461010d578063194d02d71461014a575b600080fd5b3480156100ee57600080fd5b506100f76102f1565b604051610104919061192d565b60405180910390f35b34801561011957600080fd5b50610134600480360381019061012f91906119ab565b6102f9565b604051610141919061192d565b60405180910390f35b34801561015657600080fd5b50610171600480360381019061016c9190611a04565b6103fc565b60405161017f929190611a44565b60405180910390f35b34801561019457600080fd5b5061019d6104b4565b6040516101aa9190611a7c565b60405180910390f35b3480156101bf57600080fd5b506101c86104da565b005b3480156101d657600080fd5b506101df61062e565b005b3480156101ed57600080fd5b50610208600480360381019061020391906119ab565b6106f3565b005b34801561021657600080fd5b5061021f6107ed565b60405161022c9190611b55565b60405180910390f35b34801561024157600080fd5b5061024a610845565b6040516102579190611c35565b60405180910390f35b34801561026c57600080fd5b506102756108d3565b005b610291600480360381019061028c91906119ab565b61095b565b005b34801561029f57600080fd5b506102a8610a1b565b6040516102b59190611a7c565b60405180910390f35b6102c6610a44565b005b3480156102d457600080fd5b506102ef60048036038101906102ea91906119ab565b610fe6565b005b600047905090565b60006103036110de565b73ffffffffffffffffffffffffffffffffffffffff16610321610a1b565b73ffffffffffffffffffffffffffffffffffffffff1614610377576040517f08c379a000000000000000000000000000000000000000000000000000000000815260040161036e90611cb4565b60405180910390fd5b8173ffffffffffffffffffffffffffffffffffffffff166371f747906040518163ffffffff1660e01b815260040160206040518083038186803b1580156103bd57600080fd5b505afa1580156103d1573d6000803e3d6000fd5b505050506040513d601f19601f820116820180604052508101906103f59190611ce9565b9050919050565b6000806000831015610443576040517f08c379a000000000000000000000000000000000000000000000000000000000815260040161043a90611d88565b60405180910390fd5b60008411610486576040517f08c379a000000000000000000000000000000000000000000000000000000000815260040161047d90611d88565b60405180910390fd5b82846104929190611e06565b915081836104a09190611e37565b846104ab9190611e91565b90509250929050565b600260009054906101000a900473ffffffffffffffffffffffffffffffffffffffff1681565b6104e26110de565b73ffffffffffffffffffffffffffffffffffffffff16610500610a1b565b73ffffffffffffffffffffffffffffffffffffffff1614610556576040517f08c379a000000000000000000000000000000000000000000000000000000000815260040161054d90611cb4565b60405180910390fd5b6000610583600760009054906101000a900473ffffffffffffffffffffffffffffffffffffffff166102f9565b90506000600580549050826105989190611ec5565b9050600581815481106105ae576105ad611ef6565b5b9060005260206000200154905060006105c6826110e6565b90507f274f2e5ea35472f60f411beb007713c0f1c1b574f260789eedee1789cd49d9f58247836040516105fb93929190611f25565b60405180910390a161060d82476111aa565b506106188282611365565b61062061142d565b610628611559565b50505050565b6106366110de565b73ffffffffffffffffffffffffffffffffffffffff16610654610a1b565b73ffffffffffffffffffffffffffffffffffffffff16146106aa576040517f08c379a00000000000000000000000000000000000000000000000000000000081526004016106a190611cb4565b60405180910390fd5b3373ffffffffffffffffffffffffffffffffffffffff166108fc479081150290604051600060405180830381858888f193505050501580156106f0573d6000803e3d6000fd5b50565b6106fb6110de565b73ffffffffffffffffffffffffffffffffffffffff16610719610a1b565b73ffffffffffffffffffffffffffffffffffffffff161461076f576040517f08c379a000000000000000000000000000000000000000000000000000000000815260040161076690611cb4565b60405180910390fd5b600073ffffffffffffffffffffffffffffffffffffffff168173ffffffffffffffffffffffffffffffffffffffff1614156107a957600080fd5b80600260006101000a81548173ffffffffffffffffffffffffffffffffffffffff021916908373ffffffffffffffffffffffffffffffffffffffff16021790555050565b6060600580548060200260200160405190810160405280929190818152602001828054801561083b57602002820191906000526020600020905b815481526020019060010190808311610827575b5050505050905090565b606060048054806020026020016040519081016040528092919081815260200182805480156108c957602002820191906000526020600020905b8160009054906101000a900473ffffffffffffffffffffffffffffffffffffffff1673ffffffffffffffffffffffffffffffffffffffff168152602001906001019080831161087f575b5050505050905090565b6108db6110de565b73ffffffffffffffffffffffffffffffffffffffff166108f9610a1b565b73ffffffffffffffffffffffffffffffffffffffff161461094f576040517f08c379a000000000000000000000000000000000000000000000000000000000815260040161094690611cb4565b60405180910390fd5b61095960006117b1565b565b6109636110de565b73ffffffffffffffffffffffffffffffffffffffff16610981610a1b565b73ffffffffffffffffffffffffffffffffffffffff16146109d7576040517f08c379a00000000000000000000000000000000000000000000000000000000081526004016109ce90611cb4565b60405180910390fd5b80600160006101000a81548173ffffffffffffffffffffffffffffffffffffffff021916908373ffffffffffffffffffffffffffffffffffffffff16021790555050565b60008060009054906101000a900473ffffffffffffffffffffffffffffffffffffffff16905090565b662386f26fc100003410158015610a63575068056bc75e2d6310000034105b610aa2576040517f08c379a0000000000000000000000000000000000000000000000000000000008152600401610a9990611fce565b60405180910390fd5b600080610ab634662386f26fc100006103fc565b9150915060008114610afd576040517f08c379a0000000000000000000000000000000000000000000000000000000008152600401610af490612060565b60405180910390fd5b6004339080600181540180825580915050600190039060005260206000200160009091909190916101000a81548173ffffffffffffffffffffffffffffffffffffffff021916908373ffffffffffffffffffffffffffffffffffffffff16021790555060006001600480549050610b749190611e91565b90506000600580549050905060005b84811015610bc75760058390806001815401808255809150506001900390600052602060002001600090919091909150558080610bbf90612080565b915050610b83565b506000600580549050905060066040518060600160405280858152602001848152602001838152509080600181540180825580915050600190039060005260206000209060030201600090919091909150906003610c26929190611875565b50600060068054905090506001600360003373ffffffffffffffffffffffffffffffffffffffff1673ffffffffffffffffffffffffffffffffffffffff1681526020019081526020016000206000016000828254610c8491906120c9565b9250508190555034600360003373ffffffffffffffffffffffffffffffffffffffff1673ffffffffffffffffffffffffffffffffffffffff1681526020019081526020016000206001016000828254610cdd91906120c9565b9250508190555085600360003373ffffffffffffffffffffffffffffffffffffffff1673ffffffffffffffffffffffffffffffffffffffff1681526020019081526020016000206002016000828254610d3691906120c9565b92505081905550600360003373ffffffffffffffffffffffffffffffffffffffff1673ffffffffffffffffffffffffffffffffffffffff168152602001908152602001600020600401849080600181540180825580915050600190039060005260206000200160009091909190915055600360003373ffffffffffffffffffffffffffffffffffffffff1673ffffffffffffffffffffffffffffffffffffffff1681526020019081526020016000206003018190806001815401808255809150506001900390600052602060002001600090919091909150557f8de5754e4ed9d4994bdb4b2b8c12dfcd51b0e994c1d34a7f20fe7f3d3fbb7bc233853489604051610e44949392919061211f565b60405180910390a16001600360003373ffffffffffffffffffffffffffffffffffffffff1673ffffffffffffffffffffffffffffffffffffffff168152602001908152602001600020600001541115610fde577f50d8ee368d41fb05a48faba0bb81eff5b09d7f7bbe0d333b6ddac6d4b7a5a53633600360003373ffffffffffffffffffffffffffffffffffffffff1673ffffffffffffffffffffffffffffffffffffffff168152602001908152602001600020600401600360003373ffffffffffffffffffffffffffffffffffffffff1673ffffffffffffffffffffffffffffffffffffffff16815260200190815260200160002060000154600360003373ffffffffffffffffffffffffffffffffffffffff1673ffffffffffffffffffffffffffffffffffffffff16815260200190815260200160002060010154600360003373ffffffffffffffffffffffffffffffffffffffff1673ffffffffffffffffffffffffffffffffffffffff16815260200190815260200160002060020154604051610fd595949392919061223a565b60405180910390a15b505050505050565b610fee6110de565b73ffffffffffffffffffffffffffffffffffffffff1661100c610a1b565b73ffffffffffffffffffffffffffffffffffffffff1614611062576040517f08c379a000000000000000000000000000000000000000000000000000000000815260040161105990611cb4565b60405180910390fd5b600073ffffffffffffffffffffffffffffffffffffffff168173ffffffffffffffffffffffffffffffffffffffff1614156110d2576040517f08c379a00000000000000000000000000000000000000000000000000000000081526004016110c990612306565b60405180910390fd5b6110db816117b1565b50565b600033905090565b60008047905060006004848154811061110257611101611ef6565b5b9060005260206000200160009054906101000a900473ffffffffffffffffffffffffffffffffffffffff1690506000600360008373ffffffffffffffffffffffffffffffffffffffff1673ffffffffffffffffffffffffffffffffffffffff16815260200190815260200160002060010154905080836111829190611e91565b935061118f8460026103fc565b508094505080846111a091906120c9565b9350505050919050565b600080600080600486815481106111c4576111c3611ef6565b5b9060005260206000200160009054906101000a900473ffffffffffffffffffffffffffffffffffffffff169050600160009054906101000a900473ffffffffffffffffffffffffffffffffffffffff1673ffffffffffffffffffffffffffffffffffffffff16637a1fa9e330878460006040518563ffffffff1660e01b81526004016112539493929190612378565b602060405180830381600087803b15801561126d57600080fd5b505af1158015611281573d6000803e3d6000fd5b505050506040513d601f19601f820116820180604052508101906112a591906123f5565b9250600160009054906101000a900473ffffffffffffffffffffffffffffffffffffffff1673ffffffffffffffffffffffffffffffffffffffff1663a6dddd6430836040518363ffffffff1660e01b8152600401611304929190612422565b602060405180830381600087803b15801561131e57600080fd5b505af1158015611332573d6000803e3d6000fd5b505050506040513d601f19601f820116820180604052508101906113569190611ce9565b91506001935050505092915050565b60006004838154811061137b5761137a611ef6565b5b9060005260206000200160009054906101000a900473ffffffffffffffffffffffffffffffffffffffff1690508073ffffffffffffffffffffffffffffffffffffffff166108fc839081150290604051600060405180830381858888f193505050501580156113ee573d6000803e3d6000fd5b507f9b320e270eb528aa46b3a21b196f1da153ccb2d5637e892594474e969fe6b7a981836040516114209291906124a0565b60405180910390a1505050565b6114356110de565b73ffffffffffffffffffffffffffffffffffffffff16611453610a1b565b73ffffffffffffffffffffffffffffffffffffffff16146114a9576040517f08c379a00000000000000000000000000000000000000000000000000000000081526004016114a090611cb4565b60405180910390fd5b6000600260009054906101000a900473ffffffffffffffffffffffffffffffffffffffff16905060004790508173ffffffffffffffffffffffffffffffffffffffff166108fc829081150290604051600060405180830381858888f1935050505015801561151b573d6000803e3d6000fd5b507fd36f5f37e53a101e11e745c4b553773a94d17d9d7cec00640ac8331369a76d11828260405161154d9291906124a0565b60405180910390a15050565b60008060005b60016004805490506115719190611e91565b81101561178c576004818154811061158c5761158b611ef6565b5b9060005260206000200160009054906101000a900473ffffffffffffffffffffffffffffffffffffffff1691506000600360008473ffffffffffffffffffffffffffffffffffffffff1673ffffffffffffffffffffffffffffffffffffffff168152602001908152602001600020600001541115611779576000600360008473ffffffffffffffffffffffffffffffffffffffff1673ffffffffffffffffffffffffffffffffffffffff168152602001908152602001600020600001819055506000600360008473ffffffffffffffffffffffffffffffffffffffff1673ffffffffffffffffffffffffffffffffffffffff168152602001908152602001600020600101819055506000600360008473ffffffffffffffffffffffffffffffffffffffff1673ffffffffffffffffffffffffffffffffffffffff16815260200190815260200160002060020181905550600360008373ffffffffffffffffffffffffffffffffffffffff1673ffffffffffffffffffffffffffffffffffffffff168152602001908152602001600020600401600061172a91906118b5565b600360008373ffffffffffffffffffffffffffffffffffffffff1673ffffffffffffffffffffffffffffffffffffffff168152602001908152602001600020600301600061177891906118b5565b5b808061178490612080565b91505061155f565b506004600061179b91906118d6565b600560006117a991906118b5565b600191505090565b60008060009054906101000a900473ffffffffffffffffffffffffffffffffffffffff169050816000806101000a81548173ffffffffffffffffffffffffffffffffffffffff021916908373ffffffffffffffffffffffffffffffffffffffff1602179055508173ffffffffffffffffffffffffffffffffffffffff168173ffffffffffffffffffffffffffffffffffffffff167f8be0079c531659141344cd1fd0a4f28419497f9722a3daafe3b4186f6b6457e060405160405180910390a35050565b82600381019282156118a4579160200282015b828111156118a3578251825591602001919060010190611888565b5b5090506118b191906118f7565b5090565b50805460008255906000526020600020908101906118d391906118f7565b50565b50805460008255906000526020600020908101906118f491906118f7565b50565b5b808211156119105760008160009055506001016118f8565b5090565b6000819050919050565b61192781611914565b82525050565b6000602082019050611942600083018461191e565b92915050565b600080fd5b600073ffffffffffffffffffffffffffffffffffffffff82169050919050565b60006119788261194d565b9050919050565b6119888161196d565b811461199357600080fd5b50565b6000813590506119a58161197f565b92915050565b6000602082840312156119c1576119c0611948565b5b60006119cf84828501611996565b91505092915050565b6119e181611914565b81146119ec57600080fd5b50565b6000813590506119fe816119d8565b92915050565b60008060408385031215611a1b57611a1a611948565b5b6000611a29858286016119ef565b9250506020611a3a858286016119ef565b9150509250929050565b6000604082019050611a59600083018561191e565b611a66602083018461191e565b9392505050565b611a768161196d565b82525050565b6000602082019050611a916000830184611a6d565b92915050565b600081519050919050565b600082825260208201905092915050565b6000819050602082019050919050565b611acc81611914565b82525050565b6000611ade8383611ac3565b60208301905092915050565b6000602082019050919050565b6000611b0282611a97565b611b0c8185611aa2565b9350611b1783611ab3565b8060005b83811015611b48578151611b2f8882611ad2565b9750611b3a83611aea565b925050600181019050611b1b565b5085935050505092915050565b60006020820190508181036000830152611b6f8184611af7565b905092915050565b600081519050919050565b600082825260208201905092915050565b6000819050602082019050919050565b611bac8161196d565b82525050565b6000611bbe8383611ba3565b60208301905092915050565b6000602082019050919050565b6000611be282611b77565b611bec8185611b82565b9350611bf783611b93565b8060005b83811015611c28578151611c0f8882611bb2565b9750611c1a83611bca565b925050600181019050611bfb565b5085935050505092915050565b60006020820190508181036000830152611c4f8184611bd7565b905092915050565b600082825260208201905092915050565b7f4f776e61626c653a2063616c6c6572206973206e6f7420746865206f776e6572600082015250565b6000611c9e602083611c57565b9150611ca982611c68565b602082019050919050565b60006020820190508181036000830152611ccd81611c91565b9050919050565b600081519050611ce3816119d8565b92915050565b600060208284031215611cff57611cfe611948565b5b6000611d0d84828501611cd4565b91505092915050565b7f4469766973696f6e206973204e6f7420506f737369626c65202c20427567206960008201527f6e204e756d626572732021000000000000000000000000000000000000000000602082015250565b6000611d72602b83611c57565b9150611d7d82611d16565b604082019050919050565b60006020820190508181036000830152611da181611d65565b9050919050565b7f4e487b7100000000000000000000000000000000000000000000000000000000600052601260045260246000fd5b7f4e487b7100000000000000000000000000000000000000000000000000000000600052601160045260246000fd5b6000611e1182611914565b9150611e1c83611914565b925082611e2c57611e2b611da8565b5b828204905092915050565b6000611e4282611914565b9150611e4d83611914565b9250817fffffffffffffffffffffffffffffffffffffffffffffffffffffffffffffffff0483118215151615611e8657611e85611dd7565b5b828202905092915050565b6000611e9c82611914565b9150611ea783611914565b925082821015611eba57611eb9611dd7565b5b828203905092915050565b6000611ed082611914565b9150611edb83611914565b925082611eeb57611eea611da8565b5b828206905092915050565b7f4e487b7100000000000000000000000000000000000000000000000000000000600052603260045260246000fd5b6000606082019050611f3a600083018661191e565b611f47602083018561191e565b611f54604083018461191e565b949350505050565b7f56616c75652073686f756c64206265206265747765656e20302e30312026203160008201527f303020424e420000000000000000000000000000000000000000000000000000602082015250565b6000611fb8602683611c57565b9150611fc382611f5c565b604082019050919050565b60006020820190508181036000830152611fe781611fab565b9050919050565b7f56616c75652073686f756c6420626520616e20496e7465676572206d7574697060008201527f6c65206f6620302e303120424e42000000000000000000000000000000000000602082015250565b600061204a602e83611c57565b915061205582611fee565b604082019050919050565b600060208201905081810360008301526120798161203d565b9050919050565b600061208b82611914565b91507fffffffffffffffffffffffffffffffffffffffffffffffffffffffffffffffff8214156120be576120bd611dd7565b5b600182019050919050565b60006120d482611914565b91506120df83611914565b9250827fffffffffffffffffffffffffffffffffffffffffffffffffffffffffffffffff0382111561211457612113611dd7565b5b828201905092915050565b60006080820190506121346000830187611a6d565b612141602083018661191e565b61214e604083018561191e565b61215b606083018461191e565b95945050505050565b600081549050919050565b60008190508160005260206000209050919050565b60008160001c9050919050565b6000819050919050565b60006121ae6121a983612184565b612191565b9050919050565b60006121c1825461219b565b9050919050565b6000600182019050919050565b60006121e082612164565b6121ea8185611aa2565b93506121f58361216f565b8060005b8381101561222d5761220a826121b5565b6122148882611ad2565b975061221f836121c8565b9250506001810190506121f9565b5085935050505092915050565b600060a08201905061224f6000830188611a6d565b818103602083015261226181876121d5565b9050612270604083018661191e565b61227d606083018561191e565b61228a608083018461191e565b9695505050505050565b7f4f776e61626c653a206e6577206f776e657220697320746865207a65726f206160008201527f6464726573730000000000000000000000000000000000000000000000000000602082015250565b60006122f0602683611c57565b91506122fb82612294565b604082019050919050565b6000602082019050818103600083015261231f816122e3565b9050919050565b6000819050919050565b600060ff82169050919050565b6000819050919050565b600061236261235d61235884612326565b61233d565b612330565b9050919050565b61237281612347565b82525050565b600060808201905061238d6000830187611a6d565b61239a602083018661191e565b6123a76040830185611a6d565b6123b46060830184612369565b95945050505050565b60008115159050919050565b6123d2816123bd565b81146123dd57600080fd5b50565b6000815190506123ef816123c9565b92915050565b60006020828403121561240b5761240a611948565b5b6000612419848285016123e0565b91505092915050565b60006040820190506124376000830185611a6d565b6124446020830184611a6d565b9392505050565b600061246661246161245c8461194d565b61233d565b61194d565b9050919050565b60006124788261244b565b9050919050565b600061248a8261246d565b9050919050565b61249a8161247f565b82525050565b60006040820190506124b56000830185612491565b6124c2602083018461191e565b939250505056fea2646970667358221220e99c54e1afc19987a46ab557364f0097e730c51042dd4086672789a397b8b5ce64736f6c63430008090033a2646970667358221220e0f622d47ee33b1b1a162dee00f9fe4b74a6293045e8a71bd4cbb09a9231933a64736f6c63430008090033",
  "immutableReferences": {},
  "source": "// SPDX-License-Identifier: MIT\npragma solidity ^0.8.0;\n\nimport \"@openzeppelin/contracts/access/Ownable.sol\";\nimport \"./LotteryCore.sol\";\n\n\n/**\n  * @title Lottery Generator Smart Contract.\n  * @author Batis \n  * @notice This SmartContract is responsible for Lottery Generation.\n  * @dev Lottery Generator SmartContract - Parent of Core Lottery\n*/\ncontract LotteryGenerator is Ownable {\n\n    enum LType {\n        Hourly,\n        Daily,\n        Weekly,\n        Monthly\n    }\n\n    address[] public lotteries;\n    struct lottery{\n        uint index;\n        address creator;\n        uint totalBalance;\n        address winnerAddress; \n        LType lotteryType;\n    }\n    mapping(address => lottery) lotteryStructs;\n\n    address[] public LotteryWinnersArray;\n    struct LotteryWinnerStr{\n        uint playersId;\n        uint winnerCount;\n    }\n    mapping (address => LotteryWinnerStr) public LotteryWinnersMap;\n\n    address[] public WeeklyWinnersArray;\n    struct WeeklyWinnerStr{\n        uint playersId;\n        uint winnerCount;\n    }\n    mapping (address => WeeklyWinnerStr) public WeeklyWinnersMap;\n\n    // event\n    event LotteryCreated(address newLottery);\n\n    function setlotteryStructs(address _lotteryAddress, uint _totalBalance, address _winnerAddress, uint8 _lotteryType) external returns (bool) {\n        lotteryStructs[_lotteryAddress].totalBalance = _totalBalance;\n        lotteryStructs[_lotteryAddress].winnerAddress = _winnerAddress;\n        lotteryStructs[_lotteryAddress].lotteryType = LType(_lotteryType);\n        return true;\n    }\n\n    function setlotteryWinnersArrayMap(address _lotteryAddress, address _winnerAddress) external returns (uint) {\n        LotteryWinnersArray.push(_winnerAddress);\n        LotteryWinnersMap[_winnerAddress].playersId = LotteryWinnersArray.length;  // -1\n        LotteryWinnersMap[_winnerAddress].winnerCount++;\n        return LotteryWinnersArray.length ;  // -1\n    }\n\n    function setWeeklyWinnersArrayMap(address _lotteryAddress, address _winnerAddress) external returns (uint) {\n        WeeklyWinnersArray.push(_winnerAddress);\n        WeeklyWinnersMap[_winnerAddress].playersId = WeeklyWinnersArray.length;  // -1\n        WeeklyWinnersMap[_winnerAddress].winnerCount++;\n        return WeeklyWinnersArray.length ;  // -1\n    }\n\n    function clearlotteryWinnersArrayMap(address _lotteryAddress) external returns (bool) {\n        address _lotteryWinAddress;\n        for (uint256 index = 0; index < LotteryWinnersArray.length - 1; index++) {\n            _lotteryWinAddress = LotteryWinnersArray[index];\n            if (LotteryWinnersMap[_lotteryWinAddress].playersId > 0) {\n                LotteryWinnersMap[_lotteryWinAddress].playersId = 0;\n                LotteryWinnersMap[_lotteryWinAddress].winnerCount = 0;\n            }\n            // delete LotteryWinnersMap[_lotteryWinAddress];\n        }\n        delete LotteryWinnersArray;\n        return true;\n    }\n\n    function clearWeeklyWinnersArrayMap(address _lotteryAddress) external returns (bool) {\n        address _lotteryWinAddress;\n        for (uint256 index = 0; index < WeeklyWinnersArray.length - 1; index++) {\n            _lotteryWinAddress = WeeklyWinnersArray[index];\n            if (WeeklyWinnersMap[_lotteryWinAddress].playersId > 0) {\n                WeeklyWinnersMap[_lotteryWinAddress].playersId = 0;\n                WeeklyWinnersMap[_lotteryWinAddress].winnerCount = 0;\n            }\n            // delete WeeklyWinnersMap[_lotteryWinAddress];\n        }\n        delete WeeklyWinnersArray;\n        return true;\n    }\n\n    function createLottery(address _VRF) public onlyOwner {\n\n        // require(bytes(name).length > 0);\n        address newLottery = address(new LotteryCore(_VRF));\n        lotteries.push(newLottery);\n        lotteryStructs[newLottery].index = lotteries.length - 1;\n        lotteryStructs[newLottery].creator = msg.sender;\n        lotteryStructs[newLottery].totalBalance = 0;\n        lotteryStructs[newLottery].winnerAddress = address(0);\n\n        emit LotteryCreated( newLottery );\n    }\n\n    // function getLotteries() public view returns(address[]) {\n    //     return lotteries;\n    // }\n\n    function deleteLottery(address lotteryAddress) public  onlyOwner {\n        require(msg.sender == lotteryStructs[lotteryAddress].creator);\n        uint indexToDelete = lotteryStructs[lotteryAddress].index;\n        address lastAddress = lotteries[lotteries.length - 1];\n        lotteries[indexToDelete] = lastAddress;\n        // lotteries.length --;\n    }\n\n    // Events\n    // event LotteryCreated(\n    //     address lotteryAddress\n    // );\n}\n\n",
  "sourcePath": "/home/batis/SrcCode/myPRJ/SmartContBlockChain/BSCLottery/contracts/LotteryGenerator.sol",
  "compiler": {
    "name": "solc",
    "version": "0.8.9+commit.e5eed63a.Emscripten.clang"
  },
  "schemaVersion": "3.4.3",
  "updatedAt": "2022-04-16T06:17:09.512Z",
  "devdoc": {
    "author": "Batis ",
    "details": "Lottery Generator SmartContract - Parent of Core Lottery",
    "kind": "dev",
    "methods": {
      "owner()": {
        "details": "Returns the address of the current owner."
      },
      "renounceOwnership()": {
        "details": "Leaves the contract without owner. It will not be possible to call `onlyOwner` functions anymore. Can only be called by the current owner. NOTE: Renouncing ownership will leave the contract without an owner, thereby removing any functionality that is only available to the owner."
      },
      "transferOwnership(address)": {
        "details": "Transfers ownership of the contract to a new account (`newOwner`). Can only be called by the current owner."
      }
    },
    "title": "Lottery Generator Smart Contract.",
    "version": 1
  },
  "userdoc": {
    "kind": "user",
    "methods": {},
    "notice": "This SmartContract is responsible for Lottery Generation.",
    "version": 1
  }
}