{
  "contractName": "LotteryCore",
  "abi": [
    {
      "inputs": [
        {
          "internalType": "address",
          "name": "VRF",
          "type": "address"
        }
      ],
      "stateMutability": "nonpayable",
      "type": "constructor"
    },
    {
      "anonymous": false,
      "inputs": [
        {
          "indexed": false,
          "internalType": "address",
          "name": "potWinner",
          "type": "address"
        },
        {
          "indexed": false,
          "internalType": "uint256",
          "name": "potBalance",
          "type": "uint256"
        }
      ],
      "name": "SelectWinner",
      "type": "event"
    },
    {
      "inputs": [],
      "name": "lottoryOwner",
      "outputs": [
        {
          "internalType": "address",
          "name": "",
          "type": "address"
        }
      ],
      "stateMutability": "view",
      "type": "function"
    },
    {
      "inputs": [
        {
          "internalType": "uint256",
          "name": "",
          "type": "uint256"
        }
      ],
      "name": "potPlayers",
      "outputs": [
        {
          "internalType": "address",
          "name": "",
          "type": "address"
        }
      ],
      "stateMutability": "view",
      "type": "function"
    },
    {
      "inputs": [],
      "name": "balanceInPot",
      "outputs": [
        {
          "internalType": "uint256",
          "name": "",
          "type": "uint256"
        }
      ],
      "stateMutability": "view",
      "type": "function"
    },
    {
      "inputs": [],
      "name": "play",
      "outputs": [],
      "stateMutability": "payable",
      "type": "function"
    },
    {
      "inputs": [
        {
          "internalType": "address",
          "name": "_VRFv2",
          "type": "address"
        }
      ],
      "name": "getRandomValue",
      "outputs": [
        {
          "internalType": "uint256",
          "name": "randomWords",
          "type": "uint256"
        }
      ],
      "stateMutability": "view",
      "type": "function"
    },
    {
      "inputs": [],
      "name": "select_Send_WinnerPrize",
      "outputs": [],
      "stateMutability": "nonpayable",
      "type": "function"
    },
    {
      "inputs": [],
      "name": "listPlayers",
      "outputs": [
        {
          "internalType": "address[]",
          "name": "",
          "type": "address[]"
        }
      ],
      "stateMutability": "view",
      "type": "function"
    },
    {
      "inputs": [],
      "name": "withdraw",
      "outputs": [],
      "stateMutability": "nonpayable",
      "type": "function"
    }
  ],
  "bytecode": "0x608060405234801561001057600080fd5b50604051610de0380380610de08339818101604052810190610032919061011c565b336000806101000a81548173ffffffffffffffffffffffffffffffffffffffff021916908373ffffffffffffffffffffffffffffffffffffffff16021790555080600260006101000a81548173ffffffffffffffffffffffffffffffffffffffff021916908373ffffffffffffffffffffffffffffffffffffffff16021790555050610149565b600080fd5b600073ffffffffffffffffffffffffffffffffffffffff82169050919050565b60006100e9826100be565b9050919050565b6100f9816100de565b811461010457600080fd5b50565b600081519050610116816100f0565b92915050565b600060208284031215610132576101316100b9565b5b600061014084828501610107565b91505092915050565b610c88806101586000396000f3fe60806040526004361061007b5760003560e01c806364605d511161004e57806364605d51146101165780638687e5991461014157806393e84cd91461016c578063a8cc67aa146101765761007b565b806314e599871461008057806314e5e90e146100ab5780633ccfd60b146100e857806353d51d46146100ff575b600080fd5b34801561008c57600080fd5b506100956101b3565b6040516100a29190610787565b60405180910390f35b3480156100b757600080fd5b506100d260048036038101906100cd9190610805565b6101bb565b6040516100df9190610787565b60405180910390f35b3480156100f457600080fd5b506100fd610242565b005b34801561010b57600080fd5b50610114610319565b005b34801561012257600080fd5b5061012b610513565b60405161013891906108f0565b60405180910390f35b34801561014d57600080fd5b506101566105a1565b6040516101639190610921565b60405180910390f35b6101746105c5565b005b34801561018257600080fd5b5061019d60048036038101906101989190610968565b610688565b6040516101aa9190610921565b60405180910390f35b600047905090565b60008173ffffffffffffffffffffffffffffffffffffffff166371f747906040518163ffffffff1660e01b815260040160206040518083038186803b15801561020357600080fd5b505afa158015610217573d6000803e3d6000fd5b505050506040513d601f19601f8201168201806040525081019061023b91906109aa565b9050919050565b60008054906101000a900473ffffffffffffffffffffffffffffffffffffffff1673ffffffffffffffffffffffffffffffffffffffff163373ffffffffffffffffffffffffffffffffffffffff16146102d0576040517f08c379a00000000000000000000000000000000000000000000000000000000081526004016102c790610a5a565b60405180910390fd5b3373ffffffffffffffffffffffffffffffffffffffff166108fc479081150290604051600060405180830381858888f19350505050158015610316573d6000803e3d6000fd5b50565b60008054906101000a900473ffffffffffffffffffffffffffffffffffffffff1673ffffffffffffffffffffffffffffffffffffffff163373ffffffffffffffffffffffffffffffffffffffff16146103a7576040517f08c379a000000000000000000000000000000000000000000000000000000000815260040161039e90610a5a565b60405180910390fd5b60006103d4600260009054906101000a900473ffffffffffffffffffffffffffffffffffffffff166101bb565b90506000600180549050826103e99190610aa9565b905060006001828154811061040157610400610ada565b5b9060005260206000200160009054906101000a900473ffffffffffffffffffffffffffffffffffffffff169050600067ffffffffffffffff81111561044957610448610b09565b5b6040519080825280602002602001820160405280156104775781602001602082028036833780820191505090505b506001908051906020019061048d9291906106c7565b507f6eb97ff1a32e3ae51839dc6d5de1daf7e1f150b8f77aec47e07eb75ac6f345c081476040516104bf929190610b97565b60405180910390a18073ffffffffffffffffffffffffffffffffffffffff166108fc479081150290604051600060405180830381858888f1935050505015801561050d573d6000803e3d6000fd5b50505050565b6060600180548060200260200160405190810160405280929190818152602001828054801561059757602002820191906000526020600020905b8160009054906101000a900473ffffffffffffffffffffffffffffffffffffffff1673ffffffffffffffffffffffffffffffffffffffff168152602001906001019080831161054d575b5050505050905090565b60008054906101000a900473ffffffffffffffffffffffffffffffffffffffff1681565b662386f26fc1000034101580156105e4575068056bc75e2d6310000034105b610623576040517f08c379a000000000000000000000000000000000000000000000000000000000815260040161061a90610c32565b60405180910390fd5b6001339080600181540180825580915050600190039060005260206000200160009091909190916101000a81548173ffffffffffffffffffffffffffffffffffffffff021916908373ffffffffffffffffffffffffffffffffffffffff160217905550565b6001818154811061069857600080fd5b906000526020600020016000915054906101000a900473ffffffffffffffffffffffffffffffffffffffff1681565b828054828255906000526020600020908101928215610740579160200282015b8281111561073f5782518260006101000a81548173ffffffffffffffffffffffffffffffffffffffff021916908373ffffffffffffffffffffffffffffffffffffffff160217905550916020019190600101906106e7565b5b50905061074d9190610751565b5090565b5b8082111561076a576000816000905550600101610752565b5090565b6000819050919050565b6107818161076e565b82525050565b600060208201905061079c6000830184610778565b92915050565b600080fd5b600073ffffffffffffffffffffffffffffffffffffffff82169050919050565b60006107d2826107a7565b9050919050565b6107e2816107c7565b81146107ed57600080fd5b50565b6000813590506107ff816107d9565b92915050565b60006020828403121561081b5761081a6107a2565b5b6000610829848285016107f0565b91505092915050565b600081519050919050565b600082825260208201905092915050565b6000819050602082019050919050565b610867816107c7565b82525050565b6000610879838361085e565b60208301905092915050565b6000602082019050919050565b600061089d82610832565b6108a7818561083d565b93506108b28361084e565b8060005b838110156108e35781516108ca888261086d565b97506108d583610885565b9250506001810190506108b6565b5085935050505092915050565b6000602082019050818103600083015261090a8184610892565b905092915050565b61091b816107c7565b82525050565b60006020820190506109366000830184610912565b92915050565b6109458161076e565b811461095057600080fd5b50565b6000813590506109628161093c565b92915050565b60006020828403121561097e5761097d6107a2565b5b600061098c84828501610953565b91505092915050565b6000815190506109a48161093c565b92915050565b6000602082840312156109c0576109bf6107a2565b5b60006109ce84828501610995565b91505092915050565b600082825260208201905092915050565b7f4f776e6572204f6e6c7921202e20596f752068617665206e6f7420746865207260008201527f69676874204163636573732e0000000000000000000000000000000000000000602082015250565b6000610a44602c836109d7565b9150610a4f826109e8565b604082019050919050565b60006020820190508181036000830152610a7381610a37565b9050919050565b7f4e487b7100000000000000000000000000000000000000000000000000000000600052601260045260246000fd5b6000610ab48261076e565b9150610abf8361076e565b925082610acf57610ace610a7a565b5b828206905092915050565b7f4e487b7100000000000000000000000000000000000000000000000000000000600052603260045260246000fd5b7f4e487b7100000000000000000000000000000000000000000000000000000000600052604160045260246000fd5b6000819050919050565b6000610b5d610b58610b53846107a7565b610b38565b6107a7565b9050919050565b6000610b6f82610b42565b9050919050565b6000610b8182610b64565b9050919050565b610b9181610b76565b82525050565b6000604082019050610bac6000830185610b88565b610bb96020830184610778565b9392505050565b7f56616c75652073686f756c64206265206265747765656e20302e30312026203160008201527f303020424e420000000000000000000000000000000000000000000000000000602082015250565b6000610c1c6026836109d7565b9150610c2782610bc0565b604082019050919050565b60006020820190508181036000830152610c4b81610c0f565b905091905056fea26469706673582212202283b7d13cd50af28528136c9fbab670fc8c8e01c299a3b278e20d2b18ccb60964736f6c63430008090033",
  "immutableReferences": {},
  "source": "// SPDX-License-Identifier: MIT\npragma solidity ^0.8.0;\n\nimport '@openzeppelin/contracts/access/Ownable.sol';\nimport './VRFv2Consumer.sol' ;\n// import './VRFv2SubscriptionManager.sol';\n// import \"truffle/Console.sol\";\n\n\ncontract LotteryCore {\n\n  address public lottoryOwner;\n  address[] public potPlayers;\n\n  struct PotPlayer{\n    uint index;\n    uint pValue;\n  }\n\n  struct LotteryPot{\n    string potLabel;\n    uint entryCount;\n    uint potSerial;\n    uint potValue;\n    // mapping(address => PotPlayer) players;\n  }\n\n  address private _VRF;\n\n  event SelectWinner(address potWinner, uint potBalance);\n\n  constructor(address VRF) {\n    lottoryOwner = msg.sender;\n    _VRF = VRF;\n  }\n\n  modifier ownerOnly() {\n    require(msg.sender == lottoryOwner, \"Owner Only! . You have not the right Access.\");\n    _;\n  }\n\n  // fallback() external payable {\n  //       // player name will be unknown\n  // }\n\n  function balanceInPot() public view returns(uint){\n    return address(this).balance;\n  }\n\n  function play() public payable {\n    require(msg.value >= 0.01 ether && msg.value < 100 ether, \"Value should be between 0.01 & 100 BNB\");\n    potPlayers.push(msg.sender);\n  }\n\n  // function randomGenerator() private view returns (uint) {\n  //   return uint(\n  //     keccak256(\n  //       abi.encodePacked(\n  //         block.difficulty, block.timestamp, potPlayers )));\n  // }\n\n  // function lrequestRandomWords(address _VRFv2) public {\n  //   VRFv2Consumer(_VRFv2).requestRandomWords(lottoryOwner) ;\n  // }\n\n  function getRandomValue(address _VRFv2) public view returns (uint256 randomWords) {\n    // uint8 zeroOne = uint8(randomGenerator() % 2);\n    randomWords = VRFv2Consumer(_VRFv2).getlRandomWords() ;\n  }\n\n  function select_Send_WinnerPrize() public ownerOnly {\n    uint256 l_randomWords = getRandomValue(_VRF);\n    uint winnerIndex = l_randomWords % potPlayers.length;\n    address payable potWinner = payable(potPlayers[winnerIndex]);\n    potPlayers = new address[](0);\n    emit SelectWinner(potWinner, address(this).balance);\n    potWinner.transfer(address(this).balance);\n    // potPlayers[winnerIndex].transfer(address(this).balance);\n  }\n\n  function listPlayers() public view returns (address[] memory){\n    return potPlayers;\n  }\n\n  function withdraw() external ownerOnly {\n    payable(msg.sender).transfer(address(this).balance);\n  }\n\n}\n",
  "sourcePath": "/home/batis/SrcCode/myPRJ/SmartContBlockChain/BSCLottery/contracts/LotteryCore.sol",
  "compiler": {
    "name": "solc",
    "version": "0.8.9+commit.e5eed63a.Emscripten.clang"
  },
  "schemaVersion": "3.4.3",
  "updatedAt": "2022-04-01T07:22:55.645Z",
  "devdoc": {
    "kind": "dev",
    "methods": {},
    "version": 1
  },
  "userdoc": {
    "kind": "user",
    "methods": {},
    "version": 1
  }
}