{
  "contractName": "LotteryGenerator",
  "abi": [
    {
      "inputs": [],
      "stateMutability": "nonpayable",
      "type": "constructor"
    },
    {
      "anonymous": false,
      "inputs": [
        {
          "indexed": false,
          "internalType": "address",
          "name": "newLottery",
          "type": "address"
        }
      ],
      "name": "LotteryCreated",
      "type": "event"
    },
    {
      "anonymous": false,
      "inputs": [
        {
          "indexed": true,
          "internalType": "address",
          "name": "previousOwner",
          "type": "address"
        },
        {
          "indexed": true,
          "internalType": "address",
          "name": "newOwner",
          "type": "address"
        }
      ],
      "name": "OwnershipTransferred",
      "type": "event"
    },
    {
      "stateMutability": "payable",
      "type": "fallback",
      "payable": true
    },
    {
      "inputs": [
        {
          "internalType": "uint256",
          "name": "",
          "type": "uint256"
        }
      ],
      "name": "LotteryWinnersArray",
      "outputs": [
        {
          "internalType": "address",
          "name": "",
          "type": "address"
        }
      ],
      "stateMutability": "view",
      "type": "function",
      "constant": true
    },
    {
      "inputs": [
        {
          "internalType": "uint256",
          "name": "",
          "type": "uint256"
        }
      ],
      "name": "LotteryWinnersArrayPrizes",
      "outputs": [
        {
          "internalType": "uint256",
          "name": "",
          "type": "uint256"
        }
      ],
      "stateMutability": "view",
      "type": "function",
      "constant": true
    },
    {
      "inputs": [
        {
          "internalType": "address",
          "name": "",
          "type": "address"
        }
      ],
      "name": "LotteryWinnersMap",
      "outputs": [
        {
          "internalType": "uint256",
          "name": "playersId",
          "type": "uint256"
        },
        {
          "internalType": "uint256",
          "name": "winnerCount",
          "type": "uint256"
        }
      ],
      "stateMutability": "view",
      "type": "function",
      "constant": true
    },
    {
      "inputs": [
        {
          "internalType": "uint256",
          "name": "",
          "type": "uint256"
        }
      ],
      "name": "MonthlyWinnersArray",
      "outputs": [
        {
          "internalType": "address",
          "name": "",
          "type": "address"
        }
      ],
      "stateMutability": "view",
      "type": "function",
      "constant": true
    },
    {
      "inputs": [
        {
          "internalType": "uint256",
          "name": "",
          "type": "uint256"
        }
      ],
      "name": "MonthlyWinnersArrayPrizes",
      "outputs": [
        {
          "internalType": "uint256",
          "name": "",
          "type": "uint256"
        }
      ],
      "stateMutability": "view",
      "type": "function",
      "constant": true
    },
    {
      "inputs": [
        {
          "internalType": "address",
          "name": "",
          "type": "address"
        }
      ],
      "name": "MonthlyWinnersMap",
      "outputs": [
        {
          "internalType": "uint256",
          "name": "playersId",
          "type": "uint256"
        },
        {
          "internalType": "uint256",
          "name": "winnerCount",
          "type": "uint256"
        }
      ],
      "stateMutability": "view",
      "type": "function",
      "constant": true
    },
    {
      "inputs": [
        {
          "internalType": "uint256",
          "name": "",
          "type": "uint256"
        }
      ],
      "name": "WeeklyWinnersArray",
      "outputs": [
        {
          "internalType": "address",
          "name": "",
          "type": "address"
        }
      ],
      "stateMutability": "view",
      "type": "function",
      "constant": true
    },
    {
      "inputs": [
        {
          "internalType": "uint256",
          "name": "",
          "type": "uint256"
        }
      ],
      "name": "WeeklyWinnersArrayPrizes",
      "outputs": [
        {
          "internalType": "uint256",
          "name": "",
          "type": "uint256"
        }
      ],
      "stateMutability": "view",
      "type": "function",
      "constant": true
    },
    {
      "inputs": [
        {
          "internalType": "address",
          "name": "",
          "type": "address"
        }
      ],
      "name": "WeeklyWinnersMap",
      "outputs": [
        {
          "internalType": "uint256",
          "name": "playersId",
          "type": "uint256"
        },
        {
          "internalType": "uint256",
          "name": "winnerCount",
          "type": "uint256"
        }
      ],
      "stateMutability": "view",
      "type": "function",
      "constant": true
    },
    {
      "inputs": [
        {
          "internalType": "uint256",
          "name": "",
          "type": "uint256"
        }
      ],
      "name": "lotteries",
      "outputs": [
        {
          "internalType": "address",
          "name": "",
          "type": "address"
        }
      ],
      "stateMutability": "view",
      "type": "function",
      "constant": true
    },
    {
      "inputs": [],
      "name": "owner",
      "outputs": [
        {
          "internalType": "address",
          "name": "",
          "type": "address"
        }
      ],
      "stateMutability": "view",
      "type": "function",
      "constant": true
    },
    {
      "inputs": [],
      "name": "renounceOwnership",
      "outputs": [],
      "stateMutability": "nonpayable",
      "type": "function"
    },
    {
      "inputs": [
        {
          "internalType": "address",
          "name": "newOwner",
          "type": "address"
        }
      ],
      "name": "transferOwnership",
      "outputs": [],
      "stateMutability": "nonpayable",
      "type": "function"
    },
    {
      "stateMutability": "payable",
      "type": "receive",
      "payable": true
    },
    {
      "inputs": [],
      "name": "balanceInPot",
      "outputs": [
        {
          "internalType": "uint256",
          "name": "",
          "type": "uint256"
        }
      ],
      "stateMutability": "view",
      "type": "function",
      "constant": true
    },
    {
      "inputs": [],
      "name": "withdraw",
      "outputs": [],
      "stateMutability": "nonpayable",
      "type": "function"
    },
    {
      "inputs": [],
      "name": "getWinners",
      "outputs": [
        {
          "internalType": "address[]",
          "name": "",
          "type": "address[]"
        }
      ],
      "stateMutability": "view",
      "type": "function",
      "constant": true
    },
    {
      "inputs": [],
      "name": "getWeeklyWinners",
      "outputs": [
        {
          "internalType": "address[]",
          "name": "",
          "type": "address[]"
        }
      ],
      "stateMutability": "view",
      "type": "function",
      "constant": true
    },
    {
      "inputs": [],
      "name": "getMonthlyWinners",
      "outputs": [
        {
          "internalType": "address[]",
          "name": "",
          "type": "address[]"
        }
      ],
      "stateMutability": "view",
      "type": "function",
      "constant": true
    },
    {
      "inputs": [],
      "name": "getPotDirector",
      "outputs": [
        {
          "internalType": "address",
          "name": "",
          "type": "address"
        }
      ],
      "stateMutability": "view",
      "type": "function",
      "constant": true
    },
    {
      "inputs": [
        {
          "internalType": "address",
          "name": "_DirectorAddress",
          "type": "address"
        }
      ],
      "name": "setDirector",
      "outputs": [],
      "stateMutability": "nonpayable",
      "type": "function"
    },
    {
      "inputs": [
        {
          "internalType": "address",
          "name": "_lotteryAddress",
          "type": "address"
        },
        {
          "internalType": "address",
          "name": "_commander",
          "type": "address"
        },
        {
          "internalType": "uint256",
          "name": "_totalBalance",
          "type": "uint256"
        },
        {
          "internalType": "address",
          "name": "_winnerAddress",
          "type": "address"
        },
        {
          "internalType": "uint8",
          "name": "_lotteryType",
          "type": "uint8"
        }
      ],
      "name": "setlotteryStructs",
      "outputs": [
        {
          "internalType": "bool",
          "name": "",
          "type": "bool"
        }
      ],
      "stateMutability": "nonpayable",
      "type": "function"
    },
    {
      "inputs": [
        {
          "internalType": "address",
          "name": "_commander",
          "type": "address"
        },
        {
          "internalType": "address",
          "name": "_winnerAddress",
          "type": "address"
        },
        {
          "internalType": "uint256",
          "name": "_winnerPrize",
          "type": "uint256"
        }
      ],
      "name": "setlotteryWinnersArrayMap",
      "outputs": [
        {
          "internalType": "uint256",
          "name": "",
          "type": "uint256"
        }
      ],
      "stateMutability": "nonpayable",
      "type": "function"
    },
    {
      "inputs": [
        {
          "internalType": "address",
          "name": "_commander",
          "type": "address"
        },
        {
          "internalType": "address",
          "name": "_winnerAddress",
          "type": "address"
        },
        {
          "internalType": "uint256",
          "name": "_winnerPrize",
          "type": "uint256"
        }
      ],
      "name": "setWeeklyWinnersArrayMap",
      "outputs": [
        {
          "internalType": "uint256",
          "name": "",
          "type": "uint256"
        }
      ],
      "stateMutability": "nonpayable",
      "type": "function"
    },
    {
      "inputs": [
        {
          "internalType": "address",
          "name": "_commander",
          "type": "address"
        },
        {
          "internalType": "address",
          "name": "_winnerAddress",
          "type": "address"
        },
        {
          "internalType": "uint256",
          "name": "_winnerPrize",
          "type": "uint256"
        }
      ],
      "name": "setMonthlyWinnersArrayMap",
      "outputs": [
        {
          "internalType": "uint256",
          "name": "",
          "type": "uint256"
        }
      ],
      "stateMutability": "nonpayable",
      "type": "function"
    },
    {
      "inputs": [
        {
          "internalType": "address",
          "name": "_commander",
          "type": "address"
        }
      ],
      "name": "clearlotteryWinnersArrayMap",
      "outputs": [
        {
          "internalType": "bool",
          "name": "",
          "type": "bool"
        }
      ],
      "stateMutability": "nonpayable",
      "type": "function"
    },
    {
      "inputs": [
        {
          "internalType": "address",
          "name": "_commander",
          "type": "address"
        }
      ],
      "name": "clearWeeklyWinnersArrayMap",
      "outputs": [
        {
          "internalType": "bool",
          "name": "",
          "type": "bool"
        }
      ],
      "stateMutability": "nonpayable",
      "type": "function"
    },
    {
      "inputs": [
        {
          "internalType": "address",
          "name": "_commander",
          "type": "address"
        }
      ],
      "name": "clearMonthlyWinnersArrayMap",
      "outputs": [
        {
          "internalType": "bool",
          "name": "",
          "type": "bool"
        }
      ],
      "stateMutability": "nonpayable",
      "type": "function"
    },
    {
      "inputs": [
        {
          "internalType": "address",
          "name": "_VRF",
          "type": "address"
        },
        {
          "internalType": "address",
          "name": "weeklyAddr",
          "type": "address"
        },
        {
          "internalType": "address",
          "name": "monthlyAddr",
          "type": "address"
        },
        {
          "internalType": "address",
          "name": "liquidityAddr",
          "type": "address"
        }
      ],
      "name": "createLottery",
      "outputs": [],
      "stateMutability": "nonpayable",
      "type": "function"
    },
    {
      "inputs": [
        {
          "internalType": "address",
          "name": "lotteryAddress",
          "type": "address"
        }
      ],
      "name": "deleteLottery",
      "outputs": [],
      "stateMutability": "nonpayable",
      "type": "function"
    }
  ],
  "bytecode": "0x608060405234801561001057600080fd5b5061001a33610031565b600380546001600160a01b03191633179055610081565b600080546001600160a01b038381166001600160a01b0319831681178455604051919092169283917f8be0079c531659141344cd1fd0a4f28419497f9722a3daafe3b4186f6b6457e09190a35050565b6136ec806100906000396000f3fe608060405260043610620001d35760003560e01c806354a1ec7311620000ff578063a7e46eac116200009b578063df15c37e1162000069578063df15c37e14620005c2578063f0446ecb14620005da578063f2fde38b14620005ff578063f6711239146200062457005b8063a7e46eac1462000520578063b14a60b11462000545578063befb0b89146200057d578063c5ae6f3e14620005a257005b80638da5cb5b11620000d95780638da5cb5b1462000491578063a0f5693414620004b1578063a35e151c14620004d6578063a55b4f9814620004fb57005b806354a1ec73146200041c578063653ea4391462000441578063715018a6146200047957005b806328a1d4aa116200016f578063330efa721162000149578063330efa7214620003a25780633ccfd60b14620003c75780634488d67914620003df5780634c56018f14620003f757005b806328a1d4aa146200032257806332f655fd14620003475780633305bd30146200037d57005b80631c1f538911620001ad5780631c1f538914620002655780631cb9f1e714620002b357806326ba431914620002d8578063277550e914620002fd57005b80631398e07614620001dd57806314e59987146200021f578063195b6e9d146200023e57005b36620001db57005b005b348015620001ea57600080fd5b5062000202620001fc366004620015c2565b62000649565b6040516001600160a01b0390911681526020015b60405180910390f35b3480156200022c57600080fd5b50475b60405190815260200162000216565b3480156200024b57600080fd5b506200025662000674565b604051620002169190620015dc565b3480156200027257600080fd5b506200029d6200028436600462001648565b6007602052600090815260409020805460019091015482565b6040805192835260208301919091520162000216565b348015620002c057600080fd5b50620001db620002d23660046200166d565b620006d8565b348015620002e557600080fd5b50620001db620002f736600462001648565b62000877565b3480156200030a57600080fd5b50620002026200031c366004620015c2565b62000909565b3480156200032f57600080fd5b506200022f62000341366004620015c2565b6200091a565b3480156200035457600080fd5b506200036c6200036636600462001648565b6200093c565b604051901515815260200162000216565b3480156200038a57600080fd5b506200036c6200039c366004620016ca565b62000a49565b348015620003af57600080fd5b506200022f620003c1366004620015c2565b62000b9d565b348015620003d457600080fd5b50620001db62000bae565b348015620003ec57600080fd5b506200025662000c3a565b3480156200040457600080fd5b506200022f620004163660046200173a565b62000c9c565b3480156200042957600080fd5b506200036c6200043b36600462001648565b62000dc6565b3480156200044e57600080fd5b506200029d6200046036600462001648565b600a602052600090815260409020805460019091015482565b3480156200048657600080fd5b50620001db62000ec9565b3480156200049e57600080fd5b506000546001600160a01b031662000202565b348015620004be57600080fd5b506200022f620004d03660046200173a565b62000f33565b348015620004e357600080fd5b5062000202620004f5366004620015c2565b6200105d565b3480156200050857600080fd5b506200036c6200051a36600462001648565b6200106e565b3480156200052d57600080fd5b50620001db6200053f36600462001648565b62001171565b3480156200055257600080fd5b506200029d6200056436600462001648565b600d602052600090815260409020805460019091015482565b3480156200058a57600080fd5b506200022f6200059c3660046200173a565b6200129c565b348015620005af57600080fd5b506004546001600160a01b031662000202565b348015620005cf57600080fd5b5062000256620013c6565b348015620005e757600080fd5b506200022f620005f9366004620015c2565b62001428565b3480156200060c57600080fd5b50620001db6200061e36600462001648565b62001439565b3480156200063157600080fd5b506200020262000643366004620015c2565b6200151e565b600181815481106200065a57600080fd5b6000918252602090912001546001600160a01b0316905081565b6060600b805480602002602001604051908101604052809291908181526020018280548015620006ce57602002820191906000526020600020905b81546001600160a01b03168152600190910190602001808311620006af575b5050505050905090565b6000546001600160a01b03163314620007385760405162461bcd60e51b815260206004820181905260248201527f4f776e61626c653a2063616c6c6572206973206e6f7420746865206f776e657260448201526064015b60405180910390fd5b60003090506000858286868660405162000752906200157f565b6001600160a01b0395861681529385166020850152918416604084015283166060830152909116608082015260a001604051809103906000f0801580156200079e573d6000803e3d6000fd5b5060018054808201825560008290527fb10e2d527612073b26eecdfd717e6a320cf44b4afac2b0732d9fcbe2b7fa0cf60180546001600160a01b0319166001600160a01b0384161790558054919250620007f89162001791565b6001600160a01b0382166000818152600260208181526040808420958655600186018054336001600160a01b03199182161790915592860193909355600390940180549091169055519081527fe610764cbcba803247df3450b7492f6a0084b7b5b734a7901c13fef8f84ffaf4910160405180910390a1505050505050565b6000546001600160a01b03163314620008d35760405162461bcd60e51b815260206004820181905260248201527f4f776e61626c653a2063616c6c6572206973206e6f7420746865206f776e657260448201526064016200072f565b6001600160a01b038116620008e757600080fd5b600480546001600160a01b0319166001600160a01b0392909216919091179055565b600b81815481106200065a57600080fd5b600981815481106200092b57600080fd5b600091825260209091200154905081565b60045460009082906001600160a01b03808316911614806200096b57506003546001600160a01b038281169116145b620009b95760405162461bcd60e51b815260206004820152601c60248201527f284f776e657229205065726d697373696f6e2044656e6965642021210000000060448201526064016200072f565b6000805b600854620009ce9060019062001791565b81101562000a305760088181548110620009ec57620009ec620017ab565b60009182526020808320909101546001600160a01b0316808352600a909152604082208281556001019190915591508062000a2781620017c1565b915050620009bd565b5062000a3f600860006200158d565b5060019392505050565b60045460009085906001600160a01b038083169116148062000a7857506003546001600160a01b038281169116145b62000ac65760405162461bcd60e51b815260206004820152601c60248201527f284f776e657229205065726d697373696f6e2044656e6965642021210000000060448201526064016200072f565b6001600160a01b038781166000908152600260208190526040909120908101879055600390810180546001600160a01b0319169287169290921790915560ff84169081111562000b1a5762000b1a620017df565b6001600160a01b03881660009081526002602052604090206003908101805490917fffffffffffffffffffffff00ffffffffffffffffffffffffffffffffffffffff909116907401000000000000000000000000000000000000000090849081111562000b8b5762000b8b620017df565b02179055506001979650505050505050565b600681815481106200092b57600080fd5b6000546001600160a01b0316331462000c0a5760405162461bcd60e51b815260206004820181905260248201527f4f776e61626c653a2063616c6c6572206973206e6f7420746865206f776e657260448201526064016200072f565b60405133904780156108fc02916000818181858888f1935050505015801562000c37573d6000803e3d6000fd5b50565b60606008805480602002602001604051908101604052809291908181526020018280548015620006ce576020028201919060005260206000209081546001600160a01b03168152600190910190602001808311620006af575050505050905090565b60045460009084906001600160a01b038083169116148062000ccb57506003546001600160a01b038281169116145b62000d195760405162461bcd60e51b815260206004820152601c60248201527f284f776e657229205065726d697373696f6e2044656e6965642021210000000060448201526064016200072f565b600b8054600180820183557f0175b7a638427703f0dbe7bb9bbf987a2551717b34e79f33b5b1008d1fa01db990910180546001600160a01b0319166001600160a01b038816908117909155600c80548084019091557fdf6966c971051c3d54ec59162606531493a51404a002842f56009d7e5cf4a8c70186905591546000928352600d602052604083209081550180549162000db583620017c1565b9091555050600b5495945050505050565b60045460009082906001600160a01b038083169116148062000df557506003546001600160a01b038281169116145b62000e435760405162461bcd60e51b815260206004820152601c60248201527f284f776e657229205065726d697373696f6e2044656e6965642021210000000060448201526064016200072f565b6000805b60055462000e589060019062001791565b81101562000eba576005818154811062000e765762000e76620017ab565b60009182526020808320909101546001600160a01b03168083526007909152604082208281556001019190915591508062000eb181620017c1565b91505062000e47565b5062000a3f600560006200158d565b6000546001600160a01b0316331462000f255760405162461bcd60e51b815260206004820181905260248201527f4f776e61626c653a2063616c6c6572206973206e6f7420746865206f776e657260448201526064016200072f565b62000f3160006200152f565b565b60045460009084906001600160a01b038083169116148062000f6257506003546001600160a01b038281169116145b62000fb05760405162461bcd60e51b815260206004820152601c60248201527f284f776e657229205065726d697373696f6e2044656e6965642021210000000060448201526064016200072f565b60058054600180820183557f036b6384b5eca791c62761152d0c79bb0604c104a5fb6f4eb0703f3154bb3db090910180546001600160a01b0319166001600160a01b038816908117909155600680548084019091557ff652222313e28459528d920b65115c16c04f3efc82aaedc97be59f3f377c0d3f0186905591546000928352600760205260408320908155018054916200104c83620017c1565b909155505060055495945050505050565b600881815481106200065a57600080fd5b60045460009082906001600160a01b03808316911614806200109d57506003546001600160a01b038281169116145b620010eb5760405162461bcd60e51b815260206004820152601c60248201527f284f776e657229205065726d697373696f6e2044656e6965642021210000000060448201526064016200072f565b6000805b600b54620011009060019062001791565b8110156200116257600b81815481106200111e576200111e620017ab565b60009182526020808320909101546001600160a01b0316808352600d90915260408220828155600101919091559150806200115981620017c1565b915050620010ef565b5062000a3f600b60006200158d565b6000546001600160a01b03163314620011cd5760405162461bcd60e51b815260206004820181905260248201527f4f776e61626c653a2063616c6c6572206973206e6f7420746865206f776e657260448201526064016200072f565b6001600160a01b03818116600090815260026020526040902060010154163314620011f757600080fd5b6001600160a01b038116600090815260026020526040812054600180549192916200122490829062001791565b81548110620012375762001237620017ab565b600091825260209091200154600180546001600160a01b039092169250829184908110620012695762001269620017ab565b9060005260206000200160006101000a8154816001600160a01b0302191690836001600160a01b03160217905550505050565b60045460009084906001600160a01b0380831691161480620012cb57506003546001600160a01b038281169116145b620013195760405162461bcd60e51b815260206004820152601c60248201527f284f776e657229205065726d697373696f6e2044656e6965642021210000000060448201526064016200072f565b60088054600180820183557ff3f7a9fe364faab93b216da50a3214154f22a0a2b415b23a84c8169e8b636ee390910180546001600160a01b0319166001600160a01b038816908117909155600980548084019091557f6e1540171b6c0c960b71a7020d9f60077f6af931a8bbf590da0223dacf75c7af0186905591546000928352600a6020526040832090815501805491620013b583620017c1565b909155505060085495945050505050565b60606005805480602002602001604051908101604052809291908181526020018280548015620006ce576020028201919060005260206000209081546001600160a01b03168152600190910190602001808311620006af575050505050905090565b600c81815481106200092b57600080fd5b6000546001600160a01b03163314620014955760405162461bcd60e51b815260206004820181905260248201527f4f776e61626c653a2063616c6c6572206973206e6f7420746865206f776e657260448201526064016200072f565b6001600160a01b038116620015135760405162461bcd60e51b815260206004820152602660248201527f4f776e61626c653a206e6577206f776e657220697320746865207a65726f206160448201527f646472657373000000000000000000000000000000000000000000000000000060648201526084016200072f565b62000c37816200152f565b600581815481106200065a57600080fd5b600080546001600160a01b038381166001600160a01b0319831681178455604051919092169283917f8be0079c531659141344cd1fd0a4f28419497f9722a3daafe3b4186f6b6457e09190a35050565b611ec180620017f683390190565b508054600082559060005260206000209081019062000c3791905b80821115620015be5760008155600101620015a8565b5090565b600060208284031215620015d557600080fd5b5035919050565b6020808252825182820181905260009190848201906040850190845b818110156200161f5783516001600160a01b031683529284019291840191600101620015f8565b50909695505050505050565b80356001600160a01b03811681146200164357600080fd5b919050565b6000602082840312156200165b57600080fd5b62001666826200162b565b9392505050565b600080600080608085870312156200168457600080fd5b6200168f856200162b565b93506200169f602086016200162b565b9250620016af604086016200162b565b9150620016bf606086016200162b565b905092959194509250565b600080600080600060a08688031215620016e357600080fd5b620016ee866200162b565b9450620016fe602087016200162b565b93506040860135925062001715606087016200162b565b9150608086013560ff811681146200172c57600080fd5b809150509295509295909350565b6000806000606084860312156200175057600080fd5b6200175b846200162b565b92506200176b602085016200162b565b9150604084013590509250925092565b634e487b7160e01b600052601160045260246000fd5b600082821015620017a657620017a66200177b565b500390565b634e487b7160e01b600052603260045260246000fd5b6000600019821415620017d857620017d86200177b565b5060010190565b634e487b7160e01b600052602160045260246000fdfe60806040526000600755600060085560006009553480156200002057600080fd5b5060405162001ec138038062001ec183398101604081905262000043916200014e565b6200004e33620000e1565b60068054600180546001600160a01b03199081166001600160a01b03998a1617909155600160a01b6001600160a81b03199092163360ff60a01b1916179190911760ff60a81b1916909155426007556002805482169587169590951790945560038054851691861691909117905560048054841692851692909217909155600580549092169216919091179055620001be565b600080546001600160a01b038381166001600160a01b0319831681178455604051919092169283917f8be0079c531659141344cd1fd0a4f28419497f9722a3daafe3b4186f6b6457e09190a35050565b80516001600160a01b03811681146200014957600080fd5b919050565b600080600080600060a086880312156200016757600080fd5b620001728662000131565b9450620001826020870162000131565b9350620001926040870162000131565b9250620001a26060870162000131565b9150620001b26080870162000131565b90509295509295909350565b611cf380620001ce6000396000f3fe6080604052600436106101c45760003560e01c80636c253437116100f65780639e94d5ab1161008f578063d7573c1111610061578063d7573c1114610548578063df15c37e1461055e578063e8b05e38146105a1578063f2fde38b146105c057005b80639e94d5ab146104c6578063a8078b7a146104ff578063c5ae6f3e14610514578063c7c15ac91461053257005b80638613e4cf116100c85780638613e4cf1461045257806387bb7ae0146104725780638da5cb5b1461048c57806393e84cd9146104be57005b80636c253437146103fe5780636cf6995814610413578063715018a614610428578063766eef111461043d57005b80633ccfd60b116101685780634442713c1161013a5780634442713c146103715780635efaf0441461039c578063614f6f87146103bc57806364605d51146103dc57005b80633ccfd60b146103045780633f4600c3146103195780633fa420c41461032f578063442db8fb1461034f57005b806326ba4319116101a157806326ba4319146102445780632ac75ab5146102645780633298944a146102795780633b33b61a146102b757005b806314e59987146101cd57806314e5e90e146101ef578063194d02d71461020f57005b366101cb57005b005b3480156101d957600080fd5b50475b6040519081526020015b60405180910390f35b3480156101fb57600080fd5b506101dc61020a366004611a68565b6105e0565b34801561021b57600080fd5b5061022f61022a366004611a98565b6106b7565b604080519283526020830191909152016101e6565b34801561025057600080fd5b506101cb61025f366004611a68565b610759565b34801561027057600080fd5b506101cb6107e8565b34801561028557600080fd5b5061022f610294366004611a68565b6001600160a01b03166000908152600a6020526040902080546001909101549091565b3480156102c357600080fd5b50600254600354600454600554604080516001600160a01b0395861681529385166020850152918416918301919091529190911660608201526080016101e6565b34801561031057600080fd5b506101cb6109c1565b34801561032557600080fd5b506101dc60095481565b34801561033b57600080fd5b506101cb61034a366004611a68565b610a4a565b34801561035b57600080fd5b50610364610ad9565b6040516101e69190611aba565b34801561037d57600080fd5b50600654600160a01b900460ff165b60405190151581526020016101e6565b3480156103a857600080fd5b506101cb6103b7366004611a68565b610b31565b3480156103c857600080fd5b506101cb6103d7366004611a68565b610bc0565b3480156103e857600080fd5b506103f1610c4f565b6040516101e69190611afe565b34801561040a57600080fd5b506101cb610cb0565b34801561041f57600080fd5b50600c546101dc565b34801561043457600080fd5b506101cb610d93565b34801561044957600080fd5b50600b546101dc565b34801561045e57600080fd5b506101cb61046d366004611a68565b610df9565b34801561047e57600080fd5b50662386f26fc100006101dc565b34801561049857600080fd5b506000546001600160a01b03165b6040516001600160a01b0390911681526020016101e6565b6101cb610e75565b3480156104d257600080fd5b506101dc6104e1366004611a68565b6001600160a01b03166000908152600a602052604090206001015490565b34801561050b57600080fd5b506101dc61136f565b34801561052057600080fd5b50600f546001600160a01b03166104a6565b34801561053e57600080fd5b506101dc60085481565b34801561055457600080fd5b506101dc60075481565b34801561056a57600080fd5b50610582600e546009546001600160a01b0390911691565b604080516001600160a01b0390931683526020830191909152016101e6565b3480156105ad57600080fd5b50600654600160a81b900460ff1661038c565b3480156105cc57600080fd5b506101cb6105db366004611a68565b611384565b600080546001600160a01b031633146106405760405162461bcd60e51b815260206004820181905260248201527f4f776e61626c653a2063616c6c6572206973206e6f7420746865206f776e657260448201526064015b60405180910390fd5b816001600160a01b03166371f747906040518163ffffffff1660e01b815260040160206040518083038186803b15801561067957600080fd5b505afa15801561068d573d6000803e3d6000fd5b505050506040513d601f19601f820116820180604052508101906106b19190611b3f565b92915050565b600080600084116107305760405162461bcd60e51b815260206004820152602b60248201527f4469766973696f6e206973204e6f7420506f737369626c65202c20427567206960448201527f6e204e756d6265727320210000000000000000000000000000000000000000006064820152608401610637565b61073a8385611b84565b91506107468284611b98565b6107509085611bb7565b90509250929050565b6000546001600160a01b031633146107b35760405162461bcd60e51b815260206004820181905260248201527f4f776e61626c653a2063616c6c6572206973206e6f7420746865206f776e65726044820152606401610637565b6001600160a01b0381166107c657600080fd5b600f80546001600160a01b0319166001600160a01b0392909216919091179055565b600f546001600160a01b031633148061080b57506006546001600160a01b031633145b6108575760405162461bcd60e51b815260206004820152601460248201527f5065726d697373696f6e2044656e6965642021210000000000000000000000006044820152606401610637565b600654600160a81b900460ff1615156001146108db5760405162461bcd60e51b815260206004820152602a60248201527f54686520506f74206973206e6f7420726561647920666f722053656c6563742060448201527f7468652057696e6e6572000000000000000000000000000000000000000000006064820152608401610637565b6001546000906108f3906001600160a01b03166105e0565b600c549091506000906109069083611bce565b9050600c818154811061091b5761091b611be2565b9060005260206000200154905060008060008061093785611463565b604080518a8152476020820152908101859052939750919550935091507f274f2e5ea35472f60f411beb007713c0f1c1b574f260789eedee1789cd49d9f59060600160405180910390a161098c854786611523565b5061099785856116ca565b6109a283838361176a565b6109aa6118ef565b50506006805461ffff60a01b191690555050505050565b6000546001600160a01b03163314610a1b5760405162461bcd60e51b815260206004820181905260248201527f4f776e61626c653a2063616c6c6572206973206e6f7420746865206f776e65726044820152606401610637565b60405133904780156108fc02916000818181858888f19350505050158015610a47573d6000803e3d6000fd5b50565b6000546001600160a01b03163314610aa45760405162461bcd60e51b815260206004820181905260248201527f4f776e61626c653a2063616c6c6572206973206e6f7420746865206f776e65726044820152606401610637565b6001600160a01b038116610ab757600080fd5b600480546001600160a01b0319166001600160a01b0392909216919091179055565b6060600c805480602002602001604051908101604052809291908181526020018280548015610b2757602002820191906000526020600020905b815481526020019060010190808311610b13575b5050505050905090565b6000546001600160a01b03163314610b8b5760405162461bcd60e51b815260206004820181905260248201527f4f776e61626c653a2063616c6c6572206973206e6f7420746865206f776e65726044820152606401610637565b6001600160a01b038116610b9e57600080fd5b600380546001600160a01b0319166001600160a01b0392909216919091179055565b6000546001600160a01b03163314610c1a5760405162461bcd60e51b815260206004820181905260248201527f4f776e61626c653a2063616c6c6572206973206e6f7420746865206f776e65726044820152606401610637565b6001600160a01b038116610c2d57600080fd5b600580546001600160a01b0319166001600160a01b0392909216919091179055565b6060600b805480602002602001604051908101604052809291908181526020018280548015610b2757602002820191906000526020600020905b81546001600160a01b03168152600190910190602001808311610c89575050505050905090565b600f546001600160a01b0316331480610cd357506006546001600160a01b031633145b610d1f5760405162461bcd60e51b815260206004820152601460248201527f5065726d697373696f6e2044656e6965642021210000000000000000000000006044820152606401610637565b600654600160a01b900460ff1615610d795760405162461bcd60e51b815260206004820152601b60248201527f54686520506f742069732073746172746564206265666f7265202100000000006044820152606401610637565b6006805461ffff60a01b1916600160a01b17905542600755565b6000546001600160a01b03163314610ded5760405162461bcd60e51b815260206004820181905260248201527f4f776e61626c653a2063616c6c6572206973206e6f7420746865206f776e65726044820152606401610637565b610df760006119ab565b565b6000546001600160a01b03163314610e535760405162461bcd60e51b815260206004820181905260248201527f4f776e61626c653a2063616c6c6572206973206e6f7420746865206f776e65726044820152606401610637565b600280546001600160a01b0319166001600160a01b0392909216919091179055565b600654600160a01b900460ff16610ef45760405162461bcd60e51b815260206004820152603b60248201527f54686520506f7420686173206e6f74206265656e20526561647920746f20506c60448201527f617920796574204f72205468652047616d65206973204f7665722100000000006064820152608401610637565b662386f26fc100003410158015610f13575068056bc75e2d6310000034105b610f855760405162461bcd60e51b815260206004820152602660248201527f56616c75652073686f756c64206265206265747765656e20302e30312026203160448201527f303020424e4200000000000000000000000000000000000000000000000000006064820152608401610637565b336000908152600a6020526040902060010154678ac7230489e80000811115610ff05760405162461bcd60e51b815260206004820152601660248201527f596f7520706c6179656420746f6f206d756368202121000000000000000000006044820152606401610637565b60008061100434662386f26fc100006106b7565b915091508060001461107e5760405162461bcd60e51b815260206004820152602e60248201527f56616c75652073686f756c6420626520616e20496e7465676572206d7574697060448201527f6c65206f6620302e303120424e420000000000000000000000000000000000006064820152608401610637565b600b80546001818101835560008381527f0175b7a638427703f0dbe7bb9bbf987a2551717b34e79f33b5b1008d1fa01db990920180546001600160a01b03191633179055915490916110cf91611bb7565b600c5490915060005b8481101561112757600c80546001810182556000919091527fdf6966c971051c3d54ec59162606531493a51404a002842f56009d7e5cf4a8c7018390558061111f81611bf8565b9150506110d8565b50600c546040805160608101825284815260208101849052908101829052600d80546001810182556000919091526111869160039182027fd7b6990105719101dabeb77144f2a3385c8033acd3af97e9423a695e81ad1eb501916119fb565b50600d54336000908152600a602052604081208054600192906111aa908490611c13565b9091555050336000908152600a6020526040812060010180543492906111d1908490611c13565b9091555050336000908152600a6020526040812060020180548892906111f8908490611c13565b9091555050336000818152600a60209081526040822060048101805460018181018355918552838520018990556003820180548083018255908552928420909201859055929091529054141561125e576008805490600061125883611bf8565b91905055505b67016345785d8a000047101580156112795750600560085410155b156112ad57600680547fffffffffffffffffffff00ffffffffffffffffffffffffffffffffffffffffff16600160a81b1790555b604080513381526020810186905234818301526060810188905290517f8de5754e4ed9d4994bdb4b2b8c12dfcd51b0e994c1d34a7f20fe7f3d3fbb7bc29181900360800190a1336000908152600a60205260409020546001101561136657336000818152600a60205260409081902080546001820154600283015493517ff0b342fc13c65867c873cfbf6e19b5285bae679018bdf3376a4baca5ff066e0d9561135d959094600401939291611c2b565b60405180910390a15b50505050505050565b60006007544261137f9190611bb7565b905090565b6000546001600160a01b031633146113de5760405162461bcd60e51b815260206004820181905260248201527f4f776e61626c653a2063616c6c6572206973206e6f7420746865206f776e65726044820152606401610637565b6001600160a01b03811661145a5760405162461bcd60e51b815260206004820152602660248201527f4f776e61626c653a206e6577206f776e657220697320746865207a65726f206160448201527f64647265737300000000000000000000000000000000000000000000000000006064820152608401610637565b610a47816119ab565b60008060008060004790506000600b878154811061148357611483611be2565b60009182526020808320909101546001600160a01b0316808352600a9091526040909120600101549091506114b88184611bb7565b96506114c58760026106b7565b5096506114d28188611c13565b965060006114e08885611bb7565b90506114ed8160146106b7565b50965086955085905087611502826002611b98565b61150c9086611bb7565b6115169190611bb7565b9450505050509193509193565b6000806000600b868154811061153b5761153b611be2565b6000918252602082200154600e80546001600160a01b0319166001600160a01b0392831690811790915560098790556002546040517f3305bd30000000000000000000000000000000000000000000000000000000008152306004820152336024820152604481018a905260648101929092526084820193909352911690633305bd309060a401602060405180830381600087803b1580156115dc57600080fd5b505af11580156115f0573d6000803e3d6000fd5b505050506040513d601f19601f820116820180604052508101906116149190611c9b565b600254600e546040517fa0f569340000000000000000000000000000000000000000000000000000000081523360048201526001600160a01b03918216602482015260448101889052929450169063a0f5693490606401602060405180830381600087803b15801561168557600080fd5b505af1158015611699573d6000803e3d6000fd5b505050506040513d601f19601f820116820180604052508101906116bd9190611b3f565b5060019695505050505050565b6000600b83815481106116df576116df611be2565b60009182526020822001546040516001600160a01b039091169250829184156108fc02918591818181858888f19350505050158015611722573d6000803e3d6000fd5b50604080516001600160a01b0383168152602081018490527f9b320e270eb528aa46b3a21b196f1da153ccb2d5637e892594474e969fe6b7a9910160405180910390a1505050565b6004546040516001600160a01b0390911690819085156108fc029086906000818181858888f193505050501580156117a6573d6000803e3d6000fd5b50604080516001600160a01b0383168152602081018690527fd36f5f37e53a101e11e745c4b553773a94d17d9d7cec00640ac8331369a76d11910160405180910390a1506005546040516001600160a01b0390911690819084156108fc029085906000818181858888f19350505050158015611826573d6000803e3d6000fd5b50604080516001600160a01b0383168152602081018590527fd36f5f37e53a101e11e745c4b553773a94d17d9d7cec00640ac8331369a76d11910160405180910390a1506003546040516001600160a01b0390911690819083156108fc029084906000818181858888f193505050501580156118a6573d6000803e3d6000fd5b50604080516001600160a01b0383168152602081018490527fd36f5f37e53a101e11e745c4b553773a94d17d9d7cec00640ac8331369a76d11910160405180910390a150505050565b60008060005b600b5461190490600190611bb7565b81101561198657600b818154811061191e5761191e611be2565b60009182526020808320909101546001600160a01b0316808352600a909152604082208281556001810183905560028101839055909350906119636003830182611a39565b611971600483016000611a39565b5050808061197e90611bf8565b9150506118f5565b50611993600b6000611a39565b61199f600c6000611a39565b50506000600855600190565b600080546001600160a01b038381166001600160a01b0319831681178455604051919092169283917f8be0079c531659141344cd1fd0a4f28419497f9722a3daafe3b4186f6b6457e09190a35050565b8260038101928215611a29579160200282015b82811115611a29578251825591602001919060010190611a0e565b50611a35929150611a53565b5090565b5080546000825590600052602060002090810190610a4791905b5b80821115611a355760008155600101611a54565b600060208284031215611a7a57600080fd5b81356001600160a01b0381168114611a9157600080fd5b9392505050565b60008060408385031215611aab57600080fd5b50508035926020909101359150565b6020808252825182820181905260009190848201906040850190845b81811015611af257835183529284019291840191600101611ad6565b50909695505050505050565b6020808252825182820181905260009190848201906040850190845b81811015611af25783516001600160a01b031683529284019291840191600101611b1a565b600060208284031215611b5157600080fd5b5051919050565b634e487b7160e01b600052601260045260246000fd5b634e487b7160e01b600052601160045260246000fd5b600082611b9357611b93611b58565b500490565b6000816000190483118215151615611bb257611bb2611b6e565b500290565b600082821015611bc957611bc9611b6e565b500390565b600082611bdd57611bdd611b58565b500690565b634e487b7160e01b600052603260045260246000fd5b6000600019821415611c0c57611c0c611b6e565b5060010190565b60008219821115611c2657611c26611b6e565b500190565b600060a082016001600160a01b0388168352602060a08185015281885480845260c0860191508960005282600020935060005b81811015611c7a57845483526001948501949284019201611c5e565b50506040850197909752505050606081019290925260809091015292915050565b600060208284031215611cad57600080fd5b81518015158114611a9157600080fdfea2646970667358221220fa41241eaf5ab114ad2a866aed8499cc7ad3ee16e037615c25200c836a73cc9464736f6c63430008090033a2646970667358221220f825d5579cad956c0dcdc4925d7e69cb9a563c68290f722c7c8324f65f02b1a764736f6c63430008090033",
  "immutableReferences": {},
  "source": "// SPDX-License-Identifier: MIT\npragma solidity ^0.8.0;\n\nimport \"@openzeppelin/contracts/access/Ownable.sol\";\n\n// import \"truffle/Console.sol\";\n// import \"hardhat/console.sol\";\n\nimport \"./LotteryCore.sol\";\n\n\n/**\n  * @title Lottery Generator Smart Contract.\n  * @author Batis \n  * @notice This SmartContract is responsible for Lottery Generation.\n  * @dev Lottery Generator SmartContract - Parent of Core Lottery\n*/\ncontract LotteryGenerator is Ownable {\n\n    // uint constant TICKET_PRICE = 10 * 1e15; // finney (0.01 Ether)\n\n    enum LType {\n        Hourly,\n        Daily,\n        Weekly,\n        Monthly\n    }\n\n    address[] public lotteries;\n    struct lottery{\n        uint index;\n        address creator;\n        uint totalBalance;\n        address winnerAddress; \n        LType lotteryType;\n    }\n    mapping(address => lottery) lotteryStructs;\n\n    address private LotteryOwner;\n    address private potDirector;  /* ToDo: All Main Action must be controlled only by Owner or Director */\n\n    address[] public LotteryWinnersArray;\n    uint[] public LotteryWinnersArrayPrizes;\n    struct LotteryWinnerStr{\n        uint playersId;\n        uint winnerCount;\n    }\n    mapping (address => LotteryWinnerStr) public LotteryWinnersMap;\n\n    address[] public WeeklyWinnersArray;\n    uint[] public WeeklyWinnersArrayPrizes;\n    struct WeeklyWinnerStr{\n        uint playersId;\n        uint winnerCount;\n    }\n    mapping (address => WeeklyWinnerStr) public WeeklyWinnersMap;\n\n    address[] public MonthlyWinnersArray;\n    uint[] public MonthlyWinnersArrayPrizes;\n    struct MonthlyWinnerStr{\n        uint playersId;\n        uint winnerCount;\n    }\n    mapping (address => MonthlyWinnerStr) public MonthlyWinnersMap;\n\n    // event\n    event LotteryCreated(address newLottery);\n\n    constructor() {   \n        LotteryOwner = msg.sender;\n    }\n\n\n  /* ToDo : Add & Complete Fallback routine */\n    fallback() external payable {\n    }\n    receive() external payable {\n    }\n\n    modifier isAllowedManager() {\n        require( msg.sender == potDirector || msg.sender == LotteryOwner , \"(Manager) Permission Denied !!\" );\n        _;\n    }\n\n    modifier isAllowedOwner(address _caller) {\n        require( _caller == potDirector || _caller == LotteryOwner , \"(Owner) Permission Denied !!\" );\n        _;\n    }\n\n    function balanceInPot() public view returns(uint){\n        return address(this).balance;\n    }\n\n    function withdraw() external onlyOwner {\n        payable(msg.sender).transfer(address(this).balance);\n    }\n\n    function getWinners() external view returns(address[] memory) {\n        return LotteryWinnersArray;\n    }\n\n    function getWeeklyWinners() external view returns(address[] memory) {\n        return WeeklyWinnersArray;\n    }\n\n    function getMonthlyWinners() external view returns(address[] memory) {\n        return MonthlyWinnersArray;\n    }\n\n    function getPotDirector() public view returns(address) {\n        return potDirector;\n    }\n\n    function setDirector(address _DirectorAddress) external onlyOwner {\n        require(_DirectorAddress != address(0) );\n        potDirector = _DirectorAddress;\n    }\n\n    function setlotteryStructs(address _lotteryAddress, address _commander, uint _totalBalance, address _winnerAddress, uint8 _lotteryType) external isAllowedOwner(_commander) returns (bool) {\n        lotteryStructs[_lotteryAddress].totalBalance = _totalBalance;\n        lotteryStructs[_lotteryAddress].winnerAddress = _winnerAddress;\n        lotteryStructs[_lotteryAddress].lotteryType = LType(_lotteryType);\n        return true;\n    }\n\n    function setlotteryWinnersArrayMap(address _commander, address _winnerAddress, uint _winnerPrize) external isAllowedOwner(_commander) returns (uint) {\n        LotteryWinnersArray.push(_winnerAddress);\n        LotteryWinnersArrayPrizes.push(_winnerPrize);\n        LotteryWinnersMap[_winnerAddress].playersId = LotteryWinnersArray.length;  // -1\n        LotteryWinnersMap[_winnerAddress].winnerCount++;\n        return LotteryWinnersArray.length ;  // -1\n    }\n\n    function setWeeklyWinnersArrayMap(address _commander, address _winnerAddress, uint _winnerPrize) external isAllowedOwner(_commander) returns (uint) {\n        WeeklyWinnersArray.push(_winnerAddress);\n        WeeklyWinnersArrayPrizes.push(_winnerPrize);\n        WeeklyWinnersMap[_winnerAddress].playersId = WeeklyWinnersArray.length;  // -1\n        WeeklyWinnersMap[_winnerAddress].winnerCount++;\n        return WeeklyWinnersArray.length ;  // -1\n    }\n\n    function setMonthlyWinnersArrayMap(address _commander, address _winnerAddress, uint _winnerPrize) external isAllowedOwner(_commander) returns (uint) {\n        MonthlyWinnersArray.push(_winnerAddress);\n        MonthlyWinnersArrayPrizes.push(_winnerPrize);\n        MonthlyWinnersMap[_winnerAddress].playersId = MonthlyWinnersArray.length;  // -1\n        MonthlyWinnersMap[_winnerAddress].winnerCount++;\n        return MonthlyWinnersArray.length ;  // -1\n    }\n\n    function clearlotteryWinnersArrayMap(address _commander) external isAllowedOwner(_commander) returns (bool) {\n        address _lotteryWinAddress;\n        for (uint256 index = 0; index < LotteryWinnersArray.length - 1; index++) {\n            _lotteryWinAddress = LotteryWinnersArray[index];\n            // if (LotteryWinnersMap[_lotteryWinAddress].playersId > 0) {\n            //     LotteryWinnersMap[_lotteryWinAddress].playersId = 0;\n            //     LotteryWinnersMap[_lotteryWinAddress].winnerCount = 0;\n            // }\n            delete LotteryWinnersMap[_lotteryWinAddress];\n        }\n        delete LotteryWinnersArray;\n        return true;\n    }\n\n    function clearWeeklyWinnersArrayMap(address _commander) external isAllowedOwner(_commander) returns (bool) {\n        address _lotteryWinAddress;\n        for (uint256 index = 0; index < WeeklyWinnersArray.length - 1; index++) {\n            _lotteryWinAddress = WeeklyWinnersArray[index];\n            // if (WeeklyWinnersMap[_lotteryWinAddress].playersId > 0) {\n            //     WeeklyWinnersMap[_lotteryWinAddress].playersId = 0;\n            //     WeeklyWinnersMap[_lotteryWinAddress].winnerCount = 0;\n            // }\n            delete WeeklyWinnersMap[_lotteryWinAddress];\n        }\n        delete WeeklyWinnersArray;\n        return true;\n    }\n\n    function clearMonthlyWinnersArrayMap(address _commander) external isAllowedOwner(_commander) returns (bool) {\n        address _lotteryWinAddress;\n        for (uint256 index = 0; index < MonthlyWinnersArray.length - 1; index++) {\n            _lotteryWinAddress = MonthlyWinnersArray[index];\n            // if (MonthlyWinnersMap[_lotteryWinAddress].playersId > 0) {\n            //     MonthlyWinnersMap[_lotteryWinAddress].playersId = 0;\n            //     MonthlyWinnersMap[_lotteryWinAddress].winnerCount = 0;\n            // }\n            delete MonthlyWinnersMap[_lotteryWinAddress];\n        }\n        delete MonthlyWinnersArray;\n        return true;\n    }\n\n\n    function createLottery(address _VRF, address weeklyAddr, address monthlyAddr, address liquidityAddr) public onlyOwner {\n\n        address generatorAddress = address(this);\n\n        // require(bytes(name).length > 0);\n        address newLottery = address(new LotteryCore(_VRF, generatorAddress, weeklyAddr, monthlyAddr, liquidityAddr));\n        lotteries.push(newLottery);\n        lotteryStructs[newLottery].index = lotteries.length - 1;\n        lotteryStructs[newLottery].creator = msg.sender;\n        lotteryStructs[newLottery].totalBalance = 0;\n        lotteryStructs[newLottery].winnerAddress = address(0);\n\n        emit LotteryCreated( newLottery );\n    }\n\n    // function getLotteries() public view returns(address[]) {\n    //     return lotteries;\n    // }\n\n    function deleteLottery(address lotteryAddress) public  onlyOwner {\n        require(msg.sender == lotteryStructs[lotteryAddress].creator);\n        uint indexToDelete = lotteryStructs[lotteryAddress].index;\n        address lastAddress = lotteries[lotteries.length - 1];\n        lotteries[indexToDelete] = lastAddress;\n        // lotteries.length --;\n    }\n\n    // Events\n    // event LotteryCreated(\n    //     address lotteryAddress\n    // );\n}\n\n\n\n",
  "sourcePath": "/home/batis/SrcCode/myPRJ/SmartContBlockChain/BSCLottery/contracts/LotteryGenerator.sol",
  "compiler": {
    "name": "solc",
    "version": "0.8.9+commit.e5eed63a.Emscripten.clang"
  },
  "schemaVersion": "3.4.3",
  "updatedAt": "2022-05-28T11:36:42.073Z",
  "networkType": "ethereum",
  "devdoc": {
    "author": "Batis ",
    "details": "Lottery Generator SmartContract - Parent of Core Lottery",
    "kind": "dev",
    "methods": {
      "owner()": {
        "details": "Returns the address of the current owner."
      },
      "renounceOwnership()": {
        "details": "Leaves the contract without owner. It will not be possible to call `onlyOwner` functions anymore. Can only be called by the current owner. NOTE: Renouncing ownership will leave the contract without an owner, thereby removing any functionality that is only available to the owner."
      },
      "transferOwnership(address)": {
        "details": "Transfers ownership of the contract to a new account (`newOwner`). Can only be called by the current owner."
      }
    },
    "title": "Lottery Generator Smart Contract.",
    "version": 1
  },
  "userdoc": {
    "kind": "user",
    "methods": {},
    "notice": "This SmartContract is responsible for Lottery Generation.",
    "version": 1
  }
}