{
  "contractName": "LotteryGenerator",
  "abi": [
    {
      "anonymous": false,
      "inputs": [
        {
          "indexed": false,
          "internalType": "address",
          "name": "newLottery",
          "type": "address"
        }
      ],
      "name": "LotteryCreated",
      "type": "event"
    },
    {
      "anonymous": false,
      "inputs": [
        {
          "indexed": true,
          "internalType": "address",
          "name": "previousOwner",
          "type": "address"
        },
        {
          "indexed": true,
          "internalType": "address",
          "name": "newOwner",
          "type": "address"
        }
      ],
      "name": "OwnershipTransferred",
      "type": "event"
    },
    {
      "stateMutability": "payable",
      "type": "fallback"
    },
    {
      "inputs": [
        {
          "internalType": "uint256",
          "name": "",
          "type": "uint256"
        }
      ],
      "name": "LotteryWinnersArray",
      "outputs": [
        {
          "internalType": "address",
          "name": "",
          "type": "address"
        }
      ],
      "stateMutability": "view",
      "type": "function"
    },
    {
      "inputs": [
        {
          "internalType": "address",
          "name": "",
          "type": "address"
        }
      ],
      "name": "LotteryWinnersMap",
      "outputs": [
        {
          "internalType": "uint256",
          "name": "playersId",
          "type": "uint256"
        },
        {
          "internalType": "uint256",
          "name": "winnerCount",
          "type": "uint256"
        }
      ],
      "stateMutability": "view",
      "type": "function"
    },
    {
      "inputs": [
        {
          "internalType": "uint256",
          "name": "",
          "type": "uint256"
        }
      ],
      "name": "WeeklyWinnersArray",
      "outputs": [
        {
          "internalType": "address",
          "name": "",
          "type": "address"
        }
      ],
      "stateMutability": "view",
      "type": "function"
    },
    {
      "inputs": [
        {
          "internalType": "address",
          "name": "",
          "type": "address"
        }
      ],
      "name": "WeeklyWinnersMap",
      "outputs": [
        {
          "internalType": "uint256",
          "name": "playersId",
          "type": "uint256"
        },
        {
          "internalType": "uint256",
          "name": "winnerCount",
          "type": "uint256"
        }
      ],
      "stateMutability": "view",
      "type": "function"
    },
    {
      "inputs": [
        {
          "internalType": "uint256",
          "name": "",
          "type": "uint256"
        }
      ],
      "name": "lotteries",
      "outputs": [
        {
          "internalType": "address",
          "name": "",
          "type": "address"
        }
      ],
      "stateMutability": "view",
      "type": "function"
    },
    {
      "inputs": [],
      "name": "owner",
      "outputs": [
        {
          "internalType": "address",
          "name": "",
          "type": "address"
        }
      ],
      "stateMutability": "view",
      "type": "function"
    },
    {
      "inputs": [],
      "name": "renounceOwnership",
      "outputs": [],
      "stateMutability": "nonpayable",
      "type": "function"
    },
    {
      "inputs": [
        {
          "internalType": "address",
          "name": "newOwner",
          "type": "address"
        }
      ],
      "name": "transferOwnership",
      "outputs": [],
      "stateMutability": "nonpayable",
      "type": "function"
    },
    {
      "stateMutability": "payable",
      "type": "receive"
    },
    {
      "inputs": [],
      "name": "balanceInPot",
      "outputs": [
        {
          "internalType": "uint256",
          "name": "",
          "type": "uint256"
        }
      ],
      "stateMutability": "view",
      "type": "function"
    },
    {
      "inputs": [],
      "name": "withdraw",
      "outputs": [],
      "stateMutability": "nonpayable",
      "type": "function"
    },
    {
      "inputs": [
        {
          "internalType": "address",
          "name": "_lotteryAddress",
          "type": "address"
        },
        {
          "internalType": "uint256",
          "name": "_totalBalance",
          "type": "uint256"
        },
        {
          "internalType": "address",
          "name": "_winnerAddress",
          "type": "address"
        },
        {
          "internalType": "uint8",
          "name": "_lotteryType",
          "type": "uint8"
        }
      ],
      "name": "setlotteryStructs",
      "outputs": [
        {
          "internalType": "bool",
          "name": "",
          "type": "bool"
        }
      ],
      "stateMutability": "nonpayable",
      "type": "function"
    },
    {
      "inputs": [
        {
          "internalType": "address",
          "name": "_lotteryAddress",
          "type": "address"
        },
        {
          "internalType": "address",
          "name": "_winnerAddress",
          "type": "address"
        }
      ],
      "name": "setlotteryWinnersArrayMap",
      "outputs": [
        {
          "internalType": "uint256",
          "name": "",
          "type": "uint256"
        }
      ],
      "stateMutability": "nonpayable",
      "type": "function"
    },
    {
      "inputs": [
        {
          "internalType": "address",
          "name": "_lotteryAddress",
          "type": "address"
        },
        {
          "internalType": "address",
          "name": "_winnerAddress",
          "type": "address"
        }
      ],
      "name": "setWeeklyWinnersArrayMap",
      "outputs": [
        {
          "internalType": "uint256",
          "name": "",
          "type": "uint256"
        }
      ],
      "stateMutability": "nonpayable",
      "type": "function"
    },
    {
      "inputs": [
        {
          "internalType": "address",
          "name": "_lotteryAddress",
          "type": "address"
        }
      ],
      "name": "clearlotteryWinnersArrayMap",
      "outputs": [
        {
          "internalType": "bool",
          "name": "",
          "type": "bool"
        }
      ],
      "stateMutability": "nonpayable",
      "type": "function"
    },
    {
      "inputs": [
        {
          "internalType": "address",
          "name": "_lotteryAddress",
          "type": "address"
        }
      ],
      "name": "clearWeeklyWinnersArrayMap",
      "outputs": [
        {
          "internalType": "bool",
          "name": "",
          "type": "bool"
        }
      ],
      "stateMutability": "nonpayable",
      "type": "function"
    },
    {
      "inputs": [
        {
          "internalType": "address",
          "name": "_VRF",
          "type": "address"
        }
      ],
      "name": "createLottery",
      "outputs": [],
      "stateMutability": "nonpayable",
      "type": "function"
    },
    {
      "inputs": [
        {
          "internalType": "address",
          "name": "lotteryAddress",
          "type": "address"
        }
      ],
      "name": "deleteLottery",
      "outputs": [],
      "stateMutability": "nonpayable",
      "type": "function"
    }
  ],
  "bytecode": "0x608060405234801561001057600080fd5b5061002d61002261003260201b60201c565b61003a60201b60201c565b6100fe565b600033905090565b60008060009054906101000a900473ffffffffffffffffffffffffffffffffffffffff169050816000806101000a81548173ffffffffffffffffffffffffffffffffffffffff021916908373ffffffffffffffffffffffffffffffffffffffff1602179055508173ffffffffffffffffffffffffffffffffffffffff168173ffffffffffffffffffffffffffffffffffffffff167f8be0079c531659141344cd1fd0a4f28419497f9722a3daafe3b4186f6b6457e060405160405180910390a35050565b61425a8061010d6000396000f3fe6080604052600436106200011b5760003560e01c80637a1fa9e311620000a3578063a35e151c116200006d578063a35e151c14620003c5578063a6dddd641462000409578063a7e46eac146200044d578063f2fde38b146200047b578063f671123914620004a95762000123565b80637a1fa9e314620002df5780638da5cb5b14620003235780639139a20e146200035357806394c31c9b14620003815762000123565b80633ccfd60b11620000e55780633ccfd60b146200022257806354a1ec73146200023c578063653ea4391462000280578063715018a614620002c55762000123565b80631398e076146200012557806314e5998714620001695780631c1f5389146200019957806332f655fd14620001de5762000123565b366200012357005b005b3480156200013257600080fd5b506200015160048036038101906200014b919062001468565b620004ed565b604051620001609190620014df565b60405180910390f35b3480156200017657600080fd5b50620001816200052d565b6040516200019091906200150d565b60405180910390f35b348015620001a657600080fd5b50620001c56004803603810190620001bf91906200155b565b62000535565b604051620001d59291906200158d565b60405180910390f35b348015620001eb57600080fd5b506200020a60048036038101906200020491906200155b565b62000559565b604051620002199190620015d7565b60405180910390f35b3480156200022f57600080fd5b506200023a62000642565b005b3480156200024957600080fd5b506200026860048036038101906200026291906200155b565b6200070f565b604051620002779190620015d7565b60405180910390f35b3480156200028d57600080fd5b50620002ac6004803603810190620002a691906200155b565b620007f8565b604051620002bc9291906200158d565b60405180910390f35b348015620002d257600080fd5b50620002dd6200081c565b005b348015620002ec57600080fd5b506200030b600480360381019062000305919062001632565b620008ad565b6040516200031a9190620015d7565b60405180910390f35b3480156200033057600080fd5b506200033b62000a08565b6040516200034a9190620014df565b60405180910390f35b3480156200036057600080fd5b506200037f60048036038101906200037991906200155b565b62000a31565b005b3480156200038e57600080fd5b50620003ad6004803603810190620003a79190620016a4565b62000d35565b604051620003bc91906200150d565b60405180910390f35b348015620003d257600080fd5b50620003f16004803603810190620003eb919062001468565b62000e4e565b604051620004009190620014df565b60405180910390f35b3480156200041657600080fd5b506200043560048036038101906200042f9190620016a4565b62000e8e565b6040516200044491906200150d565b60405180910390f35b3480156200045a57600080fd5b506200047960048036038101906200047391906200155b565b62000fa7565b005b3480156200048857600080fd5b50620004a76004803603810190620004a191906200155b565b620011c8565b005b348015620004b657600080fd5b50620004d56004803603810190620004cf919062001468565b620012cc565b604051620004e49190620014df565b60405180910390f35b60018181548110620004fe57600080fd5b906000526020600020016000915054906101000a900473ffffffffffffffffffffffffffffffffffffffff1681565b600047905090565b60046020528060005260406000206000915090508060000154908060010154905082565b60008060005b60016005805490506200057391906200171a565b81101562000627576005818154811062000592576200059162001755565b5b9060005260206000200160009054906101000a900473ffffffffffffffffffffffffffffffffffffffff169150600660008373ffffffffffffffffffffffffffffffffffffffff1673ffffffffffffffffffffffffffffffffffffffff1681526020019081526020016000206000808201600090556001820160009055505080806200061e9062001784565b9150506200055f565b5060056000620006389190620013d8565b6001915050919050565b6200064c6200130c565b73ffffffffffffffffffffffffffffffffffffffff166200066c62000a08565b73ffffffffffffffffffffffffffffffffffffffff1614620006c5576040517f08c379a0000000000000000000000000000000000000000000000000000000008152600401620006bc9062001833565b60405180910390fd5b3373ffffffffffffffffffffffffffffffffffffffff166108fc479081150290604051600060405180830381858888f193505050501580156200070c573d6000803e3d6000fd5b50565b60008060005b60016003805490506200072991906200171a565b811015620007dd576003818154811062000748576200074762001755565b5b9060005260206000200160009054906101000a900473ffffffffffffffffffffffffffffffffffffffff169150600460008373ffffffffffffffffffffffffffffffffffffffff1673ffffffffffffffffffffffffffffffffffffffff168152602001908152602001600020600080820160009055600182016000905550508080620007d49062001784565b91505062000715565b5060036000620007ee9190620013d8565b6001915050919050565b60066020528060005260406000206000915090508060000154908060010154905082565b620008266200130c565b73ffffffffffffffffffffffffffffffffffffffff166200084662000a08565b73ffffffffffffffffffffffffffffffffffffffff16146200089f576040517f08c379a0000000000000000000000000000000000000000000000000000000008152600401620008969062001833565b60405180910390fd5b620008ab600062001314565b565b600083600260008773ffffffffffffffffffffffffffffffffffffffff1673ffffffffffffffffffffffffffffffffffffffff1681526020019081526020016000206002018190555082600260008773ffffffffffffffffffffffffffffffffffffffff1673ffffffffffffffffffffffffffffffffffffffff16815260200190815260200160002060030160006101000a81548173ffffffffffffffffffffffffffffffffffffffff021916908373ffffffffffffffffffffffffffffffffffffffff1602179055508160ff16600381111562000990576200098f62001855565b5b600260008773ffffffffffffffffffffffffffffffffffffffff1673ffffffffffffffffffffffffffffffffffffffff16815260200190815260200160002060030160146101000a81548160ff02191690836003811115620009f757620009f662001855565b5b021790555060019050949350505050565b60008060009054906101000a900473ffffffffffffffffffffffffffffffffffffffff16905090565b62000a3b6200130c565b73ffffffffffffffffffffffffffffffffffffffff1662000a5b62000a08565b73ffffffffffffffffffffffffffffffffffffffff161462000ab4576040517f08c379a000000000000000000000000000000000000000000000000000000000815260040162000aab9062001833565b60405180910390fd5b60008160405162000ac590620013fb565b62000ad19190620014df565b604051809103906000f08015801562000aee573d6000803e3d6000fd5b5090506001819080600181540180825580915050600190039060005260206000200160009091909190916101000a81548173ffffffffffffffffffffffffffffffffffffffff021916908373ffffffffffffffffffffffffffffffffffffffff1602179055506001808054905062000b6791906200171a565b600260008373ffffffffffffffffffffffffffffffffffffffff1673ffffffffffffffffffffffffffffffffffffffff1681526020019081526020016000206000018190555033600260008373ffffffffffffffffffffffffffffffffffffffff1673ffffffffffffffffffffffffffffffffffffffff16815260200190815260200160002060010160006101000a81548173ffffffffffffffffffffffffffffffffffffffff021916908373ffffffffffffffffffffffffffffffffffffffff1602179055506000600260008373ffffffffffffffffffffffffffffffffffffffff1673ffffffffffffffffffffffffffffffffffffffff168152602001908152602001600020600201819055506000600260008373ffffffffffffffffffffffffffffffffffffffff1673ffffffffffffffffffffffffffffffffffffffff16815260200190815260200160002060030160006101000a81548173ffffffffffffffffffffffffffffffffffffffff021916908373ffffffffffffffffffffffffffffffffffffffff1602179055507fe610764cbcba803247df3450b7492f6a0084b7b5b734a7901c13fef8f84ffaf48160405162000d299190620014df565b60405180910390a15050565b60006005829080600181540180825580915050600190039060005260206000200160009091909190916101000a81548173ffffffffffffffffffffffffffffffffffffffff021916908373ffffffffffffffffffffffffffffffffffffffff160217905550600580549050600660008473ffffffffffffffffffffffffffffffffffffffff1673ffffffffffffffffffffffffffffffffffffffff16815260200190815260200160002060000181905550600660008373ffffffffffffffffffffffffffffffffffffffff1673ffffffffffffffffffffffffffffffffffffffff168152602001908152602001600020600101600081548092919062000e3b9062001784565b9190505550600580549050905092915050565b6005818154811062000e5f57600080fd5b906000526020600020016000915054906101000a900473ffffffffffffffffffffffffffffffffffffffff1681565b60006003829080600181540180825580915050600190039060005260206000200160009091909190916101000a81548173ffffffffffffffffffffffffffffffffffffffff021916908373ffffffffffffffffffffffffffffffffffffffff160217905550600380549050600460008473ffffffffffffffffffffffffffffffffffffffff1673ffffffffffffffffffffffffffffffffffffffff16815260200190815260200160002060000181905550600460008373ffffffffffffffffffffffffffffffffffffffff1673ffffffffffffffffffffffffffffffffffffffff168152602001908152602001600020600101600081548092919062000f949062001784565b9190505550600380549050905092915050565b62000fb16200130c565b73ffffffffffffffffffffffffffffffffffffffff1662000fd162000a08565b73ffffffffffffffffffffffffffffffffffffffff16146200102a576040517f08c379a0000000000000000000000000000000000000000000000000000000008152600401620010219062001833565b60405180910390fd5b600260008273ffffffffffffffffffffffffffffffffffffffff1673ffffffffffffffffffffffffffffffffffffffff16815260200190815260200160002060010160009054906101000a900473ffffffffffffffffffffffffffffffffffffffff1673ffffffffffffffffffffffffffffffffffffffff163373ffffffffffffffffffffffffffffffffffffffff1614620010c557600080fd5b6000600260008373ffffffffffffffffffffffffffffffffffffffff1673ffffffffffffffffffffffffffffffffffffffff168152602001908152602001600020600001549050600060018080805490506200112291906200171a565b8154811062001136576200113562001755565b5b9060005260206000200160009054906101000a900473ffffffffffffffffffffffffffffffffffffffff16905080600183815481106200117b576200117a62001755565b5b9060005260206000200160006101000a81548173ffffffffffffffffffffffffffffffffffffffff021916908373ffffffffffffffffffffffffffffffffffffffff160217905550505050565b620011d26200130c565b73ffffffffffffffffffffffffffffffffffffffff16620011f262000a08565b73ffffffffffffffffffffffffffffffffffffffff16146200124b576040517f08c379a0000000000000000000000000000000000000000000000000000000008152600401620012429062001833565b60405180910390fd5b600073ffffffffffffffffffffffffffffffffffffffff168173ffffffffffffffffffffffffffffffffffffffff161415620012be576040517f08c379a0000000000000000000000000000000000000000000000000000000008152600401620012b590620018fa565b60405180910390fd5b620012c98162001314565b50565b60038181548110620012dd57600080fd5b906000526020600020016000915054906101000a900473ffffffffffffffffffffffffffffffffffffffff1681565b600033905090565b60008060009054906101000a900473ffffffffffffffffffffffffffffffffffffffff169050816000806101000a81548173ffffffffffffffffffffffffffffffffffffffff021916908373ffffffffffffffffffffffffffffffffffffffff1602179055508173ffffffffffffffffffffffffffffffffffffffff168173ffffffffffffffffffffffffffffffffffffffff167f8be0079c531659141344cd1fd0a4f28419497f9722a3daafe3b4186f6b6457e060405160405180910390a35050565b5080546000825590600052602060002090810190620013f8919062001409565b50565b612908806200191d83390190565b5b80821115620014245760008160009055506001016200140a565b5090565b600080fd5b6000819050919050565b62001442816200142d565b81146200144e57600080fd5b50565b600081359050620014628162001437565b92915050565b60006020828403121562001481576200148062001428565b5b6000620014918482850162001451565b91505092915050565b600073ffffffffffffffffffffffffffffffffffffffff82169050919050565b6000620014c7826200149a565b9050919050565b620014d981620014ba565b82525050565b6000602082019050620014f66000830184620014ce565b92915050565b62001507816200142d565b82525050565b6000602082019050620015246000830184620014fc565b92915050565b6200153581620014ba565b81146200154157600080fd5b50565b60008135905062001555816200152a565b92915050565b60006020828403121562001574576200157362001428565b5b6000620015848482850162001544565b91505092915050565b6000604082019050620015a46000830185620014fc565b620015b36020830184620014fc565b9392505050565b60008115159050919050565b620015d181620015ba565b82525050565b6000602082019050620015ee6000830184620015c6565b92915050565b600060ff82169050919050565b6200160c81620015f4565b81146200161857600080fd5b50565b6000813590506200162c8162001601565b92915050565b600080600080608085870312156200164f576200164e62001428565b5b60006200165f8782880162001544565b9450506020620016728782880162001451565b9350506040620016858782880162001544565b925050606062001698878288016200161b565b91505092959194509250565b60008060408385031215620016be57620016bd62001428565b5b6000620016ce8582860162001544565b9250506020620016e18582860162001544565b9150509250929050565b7f4e487b7100000000000000000000000000000000000000000000000000000000600052601160045260246000fd5b600062001727826200142d565b915062001734836200142d565b9250828210156200174a5762001749620016eb565b5b828203905092915050565b7f4e487b7100000000000000000000000000000000000000000000000000000000600052603260045260246000fd5b600062001791826200142d565b91507fffffffffffffffffffffffffffffffffffffffffffffffffffffffffffffffff821415620017c757620017c6620016eb565b5b600182019050919050565b600082825260208201905092915050565b7f4f776e61626c653a2063616c6c6572206973206e6f7420746865206f776e6572600082015250565b60006200181b602083620017d2565b91506200182882620017e3565b602082019050919050565b600060208201905081810360008301526200184e816200180c565b9050919050565b7f4e487b7100000000000000000000000000000000000000000000000000000000600052602160045260246000fd5b7f4f776e61626c653a206e6577206f776e657220697320746865207a65726f206160008201527f6464726573730000000000000000000000000000000000000000000000000000602082015250565b6000620018e2602683620017d2565b9150620018ef8262001884565b604082019050919050565b600060208201905081810360008301526200191581620018d3565b905091905056fe60806040523480156200001157600080fd5b5060405162002908380380620029088339818101604052810190620000379190620001d5565b620000576200004b6200009f60201b60201c565b620000a760201b60201c565b80600160006101000a81548173ffffffffffffffffffffffffffffffffffffffff021916908373ffffffffffffffffffffffffffffffffffffffff1602179055505062000207565b600033905090565b60008060009054906101000a900473ffffffffffffffffffffffffffffffffffffffff169050816000806101000a81548173ffffffffffffffffffffffffffffffffffffffff021916908373ffffffffffffffffffffffffffffffffffffffff1602179055508173ffffffffffffffffffffffffffffffffffffffff168173ffffffffffffffffffffffffffffffffffffffff167f8be0079c531659141344cd1fd0a4f28419497f9722a3daafe3b4186f6b6457e060405160405180910390a35050565b600080fd5b600073ffffffffffffffffffffffffffffffffffffffff82169050919050565b60006200019d8262000170565b9050919050565b620001af8162000190565b8114620001bb57600080fd5b50565b600081519050620001cf81620001a4565b92915050565b600060208284031215620001ee57620001ed6200016b565b5b6000620001fe84828501620001be565b91505092915050565b6126f180620002176000396000f3fe6080604052600436106100ec5760003560e01c80635efaf0441161008a578063737bb72311610059578063737bb723146102b15780638da5cb5b146102da57806393e84cd914610305578063f2fde38b1461030f576100f3565b80635efaf0441461021d578063614f6f871461024657806364605d511461026f578063715018a61461029a576100f3565b80632ac75ab5116100c65780632ac75ab51461019b5780633ccfd60b146101b25780633fa420c4146101c9578063442db8fb146101f2576100f3565b806314e59987146100f557806314e5e90e14610120578063194d02d71461015d576100f3565b366100f357005b005b34801561010157600080fd5b5061010a610338565b6040516101179190611b1f565b60405180910390f35b34801561012c57600080fd5b5061014760048036038101906101429190611b9d565b610340565b6040516101549190611b1f565b60405180910390f35b34801561016957600080fd5b50610184600480360381019061017f9190611bf6565b610443565b604051610192929190611c36565b60405180910390f35b3480156101a757600080fd5b506101b06104fb565b005b3480156101be57600080fd5b506101c761065f565b005b3480156101d557600080fd5b506101f060048036038101906101eb9190611b9d565b610724565b005b3480156101fe57600080fd5b5061020761081e565b6040516102149190611d1d565b60405180910390f35b34801561022957600080fd5b50610244600480360381019061023f9190611b9d565b610876565b005b34801561025257600080fd5b5061026d60048036038101906102689190611b9d565b610970565b005b34801561027b57600080fd5b50610284610a6a565b6040516102919190611dfd565b60405180910390f35b3480156102a657600080fd5b506102af610af8565b005b3480156102bd57600080fd5b506102d860048036038101906102d39190611b9d565b610b80565b005b3480156102e657600080fd5b506102ef610c40565b6040516102fc9190611e2e565b60405180910390f35b61030d610c69565b005b34801561031b57600080fd5b5061033660048036038101906103319190611b9d565b61120b565b005b600047905090565b600061034a611303565b73ffffffffffffffffffffffffffffffffffffffff16610368610c40565b73ffffffffffffffffffffffffffffffffffffffff16146103be576040517f08c379a00000000000000000000000000000000000000000000000000000000081526004016103b590611ea6565b60405180910390fd5b8173ffffffffffffffffffffffffffffffffffffffff166371f747906040518163ffffffff1660e01b815260040160206040518083038186803b15801561040457600080fd5b505afa158015610418573d6000803e3d6000fd5b505050506040513d601f19601f8201168201806040525081019061043c9190611edb565b9050919050565b600080600083101561048a576040517f08c379a000000000000000000000000000000000000000000000000000000000815260040161048190611f7a565b60405180910390fd5b600084116104cd576040517f08c379a00000000000000000000000000000000000000000000000000000000081526004016104c490611f7a565b60405180910390fd5b82846104d99190611ff8565b915081836104e79190612029565b846104f29190612083565b90509250929050565b610503611303565b73ffffffffffffffffffffffffffffffffffffffff16610521610c40565b73ffffffffffffffffffffffffffffffffffffffff1614610577576040517f08c379a000000000000000000000000000000000000000000000000000000000815260040161056e90611ea6565b60405180910390fd5b60006105a4600160009054906101000a900473ffffffffffffffffffffffffffffffffffffffff16610340565b90506000600880549050826105b991906120b7565b9050600881815481106105cf576105ce6120e8565b5b906000526020600020015490506000806000806105eb8561130b565b93509350935093507f274f2e5ea35472f60f411beb007713c0f1c1b574f260789eedee1789cd49d9f585478660405161062693929190612117565b60405180910390a16106388547611417565b5061064385856115d2565b61064e83838361169a565b610656611891565b50505050505050565b610667611303565b73ffffffffffffffffffffffffffffffffffffffff16610685610c40565b73ffffffffffffffffffffffffffffffffffffffff16146106db576040517f08c379a00000000000000000000000000000000000000000000000000000000081526004016106d290611ea6565b60405180910390fd5b3373ffffffffffffffffffffffffffffffffffffffff166108fc479081150290604051600060405180830381858888f19350505050158015610721573d6000803e3d6000fd5b50565b61072c611303565b73ffffffffffffffffffffffffffffffffffffffff1661074a610c40565b73ffffffffffffffffffffffffffffffffffffffff16146107a0576040517f08c379a000000000000000000000000000000000000000000000000000000000815260040161079790611ea6565b60405180910390fd5b600073ffffffffffffffffffffffffffffffffffffffff168173ffffffffffffffffffffffffffffffffffffffff1614156107da57600080fd5b80600460006101000a81548173ffffffffffffffffffffffffffffffffffffffff021916908373ffffffffffffffffffffffffffffffffffffffff16021790555050565b6060600880548060200260200160405190810160405280929190818152602001828054801561086c57602002820191906000526020600020905b815481526020019060010190808311610858575b5050505050905090565b61087e611303565b73ffffffffffffffffffffffffffffffffffffffff1661089c610c40565b73ffffffffffffffffffffffffffffffffffffffff16146108f2576040517f08c379a00000000000000000000000000000000000000000000000000000000081526004016108e990611ea6565b60405180910390fd5b600073ffffffffffffffffffffffffffffffffffffffff168173ffffffffffffffffffffffffffffffffffffffff16141561092c57600080fd5b80600360006101000a81548173ffffffffffffffffffffffffffffffffffffffff021916908373ffffffffffffffffffffffffffffffffffffffff16021790555050565b610978611303565b73ffffffffffffffffffffffffffffffffffffffff16610996610c40565b73ffffffffffffffffffffffffffffffffffffffff16146109ec576040517f08c379a00000000000000000000000000000000000000000000000000000000081526004016109e390611ea6565b60405180910390fd5b600073ffffffffffffffffffffffffffffffffffffffff168173ffffffffffffffffffffffffffffffffffffffff161415610a2657600080fd5b80600560006101000a81548173ffffffffffffffffffffffffffffffffffffffff021916908373ffffffffffffffffffffffffffffffffffffffff16021790555050565b60606007805480602002602001604051908101604052809291908181526020018280548015610aee57602002820191906000526020600020905b8160009054906101000a900473ffffffffffffffffffffffffffffffffffffffff1673ffffffffffffffffffffffffffffffffffffffff1681526020019060010190808311610aa4575b5050505050905090565b610b00611303565b73ffffffffffffffffffffffffffffffffffffffff16610b1e610c40565b73ffffffffffffffffffffffffffffffffffffffff1614610b74576040517f08c379a0000000000000000000000000000000000000000000000000000000008152600401610b6b90611ea6565b60405180910390fd5b610b7e60006119a3565b565b610b88611303565b73ffffffffffffffffffffffffffffffffffffffff16610ba6610c40565b73ffffffffffffffffffffffffffffffffffffffff1614610bfc576040517f08c379a0000000000000000000000000000000000000000000000000000000008152600401610bf390611ea6565b60405180910390fd5b80600260006101000a81548173ffffffffffffffffffffffffffffffffffffffff021916908373ffffffffffffffffffffffffffffffffffffffff16021790555050565b60008060009054906101000a900473ffffffffffffffffffffffffffffffffffffffff16905090565b662386f26fc100003410158015610c88575068056bc75e2d6310000034105b610cc7576040517f08c379a0000000000000000000000000000000000000000000000000000000008152600401610cbe906121c0565b60405180910390fd5b600080610cdb34662386f26fc10000610443565b9150915060008114610d22576040517f08c379a0000000000000000000000000000000000000000000000000000000008152600401610d1990612252565b60405180910390fd5b6007339080600181540180825580915050600190039060005260206000200160009091909190916101000a81548173ffffffffffffffffffffffffffffffffffffffff021916908373ffffffffffffffffffffffffffffffffffffffff16021790555060006001600780549050610d999190612083565b90506000600880549050905060005b84811015610dec5760088390806001815401808255809150506001900390600052602060002001600090919091909150558080610de490612272565b915050610da8565b506000600880549050905060096040518060600160405280858152602001848152602001838152509080600181540180825580915050600190039060005260206000209060030201600090919091909150906003610e4b929190611a67565b50600060098054905090506001600660003373ffffffffffffffffffffffffffffffffffffffff1673ffffffffffffffffffffffffffffffffffffffff1681526020019081526020016000206000016000828254610ea991906122bb565b9250508190555034600660003373ffffffffffffffffffffffffffffffffffffffff1673ffffffffffffffffffffffffffffffffffffffff1681526020019081526020016000206001016000828254610f0291906122bb565b9250508190555085600660003373ffffffffffffffffffffffffffffffffffffffff1673ffffffffffffffffffffffffffffffffffffffff1681526020019081526020016000206002016000828254610f5b91906122bb565b92505081905550600660003373ffffffffffffffffffffffffffffffffffffffff1673ffffffffffffffffffffffffffffffffffffffff168152602001908152602001600020600401849080600181540180825580915050600190039060005260206000200160009091909190915055600660003373ffffffffffffffffffffffffffffffffffffffff1673ffffffffffffffffffffffffffffffffffffffff1681526020019081526020016000206003018190806001815401808255809150506001900390600052602060002001600090919091909150557f8de5754e4ed9d4994bdb4b2b8c12dfcd51b0e994c1d34a7f20fe7f3d3fbb7bc2338534896040516110699493929190612311565b60405180910390a16001600660003373ffffffffffffffffffffffffffffffffffffffff1673ffffffffffffffffffffffffffffffffffffffff168152602001908152602001600020600001541115611203577f50d8ee368d41fb05a48faba0bb81eff5b09d7f7bbe0d333b6ddac6d4b7a5a53633600660003373ffffffffffffffffffffffffffffffffffffffff1673ffffffffffffffffffffffffffffffffffffffff168152602001908152602001600020600401600660003373ffffffffffffffffffffffffffffffffffffffff1673ffffffffffffffffffffffffffffffffffffffff16815260200190815260200160002060000154600660003373ffffffffffffffffffffffffffffffffffffffff1673ffffffffffffffffffffffffffffffffffffffff16815260200190815260200160002060010154600660003373ffffffffffffffffffffffffffffffffffffffff1673ffffffffffffffffffffffffffffffffffffffff168152602001908152602001600020600201546040516111fa95949392919061242c565b60405180910390a15b505050505050565b611213611303565b73ffffffffffffffffffffffffffffffffffffffff16611231610c40565b73ffffffffffffffffffffffffffffffffffffffff1614611287576040517f08c379a000000000000000000000000000000000000000000000000000000000815260040161127e90611ea6565b60405180910390fd5b600073ffffffffffffffffffffffffffffffffffffffff168173ffffffffffffffffffffffffffffffffffffffff1614156112f7576040517f08c379a00000000000000000000000000000000000000000000000000000000081526004016112ee906124f8565b60405180910390fd5b611300816119a3565b50565b600033905090565b600080600080600047905060006007878154811061132c5761132b6120e8565b5b9060005260206000200160009054906101000a900473ffffffffffffffffffffffffffffffffffffffff1690506000600660008373ffffffffffffffffffffffffffffffffffffffff1673ffffffffffffffffffffffffffffffffffffffff16815260200190815260200160002060010154905080836113ac9190612083565b96506113b9876002610443565b508097505080876113ca91906122bb565b9650600087846113da9190612083565b90506113e7816014610443565b50809150508096508095508060026113ff9190612029565b8461140a9190612083565b9450505050509193509193565b60008060008060078681548110611431576114306120e8565b5b9060005260206000200160009054906101000a900473ffffffffffffffffffffffffffffffffffffffff169050600260009054906101000a900473ffffffffffffffffffffffffffffffffffffffff1673ffffffffffffffffffffffffffffffffffffffff16637a1fa9e330878460006040518563ffffffff1660e01b81526004016114c0949392919061256a565b602060405180830381600087803b1580156114da57600080fd5b505af11580156114ee573d6000803e3d6000fd5b505050506040513d601f19601f8201168201806040525081019061151291906125e7565b9250600260009054906101000a900473ffffffffffffffffffffffffffffffffffffffff1673ffffffffffffffffffffffffffffffffffffffff1663a6dddd6430836040518363ffffffff1660e01b8152600401611571929190612614565b602060405180830381600087803b15801561158b57600080fd5b505af115801561159f573d6000803e3d6000fd5b505050506040513d601f19601f820116820180604052508101906115c39190611edb565b91506001935050505092915050565b6000600783815481106115e8576115e76120e8565b5b9060005260206000200160009054906101000a900473ffffffffffffffffffffffffffffffffffffffff1690508073ffffffffffffffffffffffffffffffffffffffff166108fc839081150290604051600060405180830381858888f1935050505015801561165b573d6000803e3d6000fd5b507f9b320e270eb528aa46b3a21b196f1da153ccb2d5637e892594474e969fe6b7a9818360405161168d929190612692565b60405180910390a1505050565b6000600460009054906101000a900473ffffffffffffffffffffffffffffffffffffffff1690508073ffffffffffffffffffffffffffffffffffffffff166108fc859081150290604051600060405180830381858888f19350505050158015611707573d6000803e3d6000fd5b507fd36f5f37e53a101e11e745c4b553773a94d17d9d7cec00640ac8331369a76d118185604051611739929190612692565b60405180910390a1600560009054906101000a900473ffffffffffffffffffffffffffffffffffffffff1690508073ffffffffffffffffffffffffffffffffffffffff166108fc849081150290604051600060405180830381858888f193505050501580156117ac573d6000803e3d6000fd5b507fd36f5f37e53a101e11e745c4b553773a94d17d9d7cec00640ac8331369a76d1181846040516117de929190612692565b60405180910390a1600360009054906101000a900473ffffffffffffffffffffffffffffffffffffffff1690508073ffffffffffffffffffffffffffffffffffffffff166108fc839081150290604051600060405180830381858888f19350505050158015611851573d6000803e3d6000fd5b507fd36f5f37e53a101e11e745c4b553773a94d17d9d7cec00640ac8331369a76d118183604051611883929190612692565b60405180910390a150505050565b60008060005b60016007805490506118a99190612083565b81101561197e57600781815481106118c4576118c36120e8565b5b9060005260206000200160009054906101000a900473ffffffffffffffffffffffffffffffffffffffff169150600660008373ffffffffffffffffffffffffffffffffffffffff1673ffffffffffffffffffffffffffffffffffffffff168152602001908152602001600020600080820160009055600182016000905560028201600090556003820160006119599190611aa7565b6004820160006119699190611aa7565b5050808061197690612272565b915050611897565b506007600061198d9190611ac8565b6008600061199b9190611aa7565b600191505090565b60008060009054906101000a900473ffffffffffffffffffffffffffffffffffffffff169050816000806101000a81548173ffffffffffffffffffffffffffffffffffffffff021916908373ffffffffffffffffffffffffffffffffffffffff1602179055508173ffffffffffffffffffffffffffffffffffffffff168173ffffffffffffffffffffffffffffffffffffffff167f8be0079c531659141344cd1fd0a4f28419497f9722a3daafe3b4186f6b6457e060405160405180910390a35050565b8260038101928215611a96579160200282015b82811115611a95578251825591602001919060010190611a7a565b5b509050611aa39190611ae9565b5090565b5080546000825590600052602060002090810190611ac59190611ae9565b50565b5080546000825590600052602060002090810190611ae69190611ae9565b50565b5b80821115611b02576000816000905550600101611aea565b5090565b6000819050919050565b611b1981611b06565b82525050565b6000602082019050611b346000830184611b10565b92915050565b600080fd5b600073ffffffffffffffffffffffffffffffffffffffff82169050919050565b6000611b6a82611b3f565b9050919050565b611b7a81611b5f565b8114611b8557600080fd5b50565b600081359050611b9781611b71565b92915050565b600060208284031215611bb357611bb2611b3a565b5b6000611bc184828501611b88565b91505092915050565b611bd381611b06565b8114611bde57600080fd5b50565b600081359050611bf081611bca565b92915050565b60008060408385031215611c0d57611c0c611b3a565b5b6000611c1b85828601611be1565b9250506020611c2c85828601611be1565b9150509250929050565b6000604082019050611c4b6000830185611b10565b611c586020830184611b10565b9392505050565b600081519050919050565b600082825260208201905092915050565b6000819050602082019050919050565b611c9481611b06565b82525050565b6000611ca68383611c8b565b60208301905092915050565b6000602082019050919050565b6000611cca82611c5f565b611cd48185611c6a565b9350611cdf83611c7b565b8060005b83811015611d10578151611cf78882611c9a565b9750611d0283611cb2565b925050600181019050611ce3565b5085935050505092915050565b60006020820190508181036000830152611d378184611cbf565b905092915050565b600081519050919050565b600082825260208201905092915050565b6000819050602082019050919050565b611d7481611b5f565b82525050565b6000611d868383611d6b565b60208301905092915050565b6000602082019050919050565b6000611daa82611d3f565b611db48185611d4a565b9350611dbf83611d5b565b8060005b83811015611df0578151611dd78882611d7a565b9750611de283611d92565b925050600181019050611dc3565b5085935050505092915050565b60006020820190508181036000830152611e178184611d9f565b905092915050565b611e2881611b5f565b82525050565b6000602082019050611e436000830184611e1f565b92915050565b600082825260208201905092915050565b7f4f776e61626c653a2063616c6c6572206973206e6f7420746865206f776e6572600082015250565b6000611e90602083611e49565b9150611e9b82611e5a565b602082019050919050565b60006020820190508181036000830152611ebf81611e83565b9050919050565b600081519050611ed581611bca565b92915050565b600060208284031215611ef157611ef0611b3a565b5b6000611eff84828501611ec6565b91505092915050565b7f4469766973696f6e206973204e6f7420506f737369626c65202c20427567206960008201527f6e204e756d626572732021000000000000000000000000000000000000000000602082015250565b6000611f64602b83611e49565b9150611f6f82611f08565b604082019050919050565b60006020820190508181036000830152611f9381611f57565b9050919050565b7f4e487b7100000000000000000000000000000000000000000000000000000000600052601260045260246000fd5b7f4e487b7100000000000000000000000000000000000000000000000000000000600052601160045260246000fd5b600061200382611b06565b915061200e83611b06565b92508261201e5761201d611f9a565b5b828204905092915050565b600061203482611b06565b915061203f83611b06565b9250817fffffffffffffffffffffffffffffffffffffffffffffffffffffffffffffffff048311821515161561207857612077611fc9565b5b828202905092915050565b600061208e82611b06565b915061209983611b06565b9250828210156120ac576120ab611fc9565b5b828203905092915050565b60006120c282611b06565b91506120cd83611b06565b9250826120dd576120dc611f9a565b5b828206905092915050565b7f4e487b7100000000000000000000000000000000000000000000000000000000600052603260045260246000fd5b600060608201905061212c6000830186611b10565b6121396020830185611b10565b6121466040830184611b10565b949350505050565b7f56616c75652073686f756c64206265206265747765656e20302e30312026203160008201527f303020424e420000000000000000000000000000000000000000000000000000602082015250565b60006121aa602683611e49565b91506121b58261214e565b604082019050919050565b600060208201905081810360008301526121d98161219d565b9050919050565b7f56616c75652073686f756c6420626520616e20496e7465676572206d7574697060008201527f6c65206f6620302e303120424e42000000000000000000000000000000000000602082015250565b600061223c602e83611e49565b9150612247826121e0565b604082019050919050565b6000602082019050818103600083015261226b8161222f565b9050919050565b600061227d82611b06565b91507fffffffffffffffffffffffffffffffffffffffffffffffffffffffffffffffff8214156122b0576122af611fc9565b5b600182019050919050565b60006122c682611b06565b91506122d183611b06565b9250827fffffffffffffffffffffffffffffffffffffffffffffffffffffffffffffffff0382111561230657612305611fc9565b5b828201905092915050565b60006080820190506123266000830187611e1f565b6123336020830186611b10565b6123406040830185611b10565b61234d6060830184611b10565b95945050505050565b600081549050919050565b60008190508160005260206000209050919050565b60008160001c9050919050565b6000819050919050565b60006123a061239b83612376565b612383565b9050919050565b60006123b3825461238d565b9050919050565b6000600182019050919050565b60006123d282612356565b6123dc8185611c6a565b93506123e783612361565b8060005b8381101561241f576123fc826123a7565b6124068882611c9a565b9750612411836123ba565b9250506001810190506123eb565b5085935050505092915050565b600060a0820190506124416000830188611e1f565b818103602083015261245381876123c7565b90506124626040830186611b10565b61246f6060830185611b10565b61247c6080830184611b10565b9695505050505050565b7f4f776e61626c653a206e6577206f776e657220697320746865207a65726f206160008201527f6464726573730000000000000000000000000000000000000000000000000000602082015250565b60006124e2602683611e49565b91506124ed82612486565b604082019050919050565b60006020820190508181036000830152612511816124d5565b9050919050565b6000819050919050565b600060ff82169050919050565b6000819050919050565b600061255461254f61254a84612518565b61252f565b612522565b9050919050565b61256481612539565b82525050565b600060808201905061257f6000830187611e1f565b61258c6020830186611b10565b6125996040830185611e1f565b6125a6606083018461255b565b95945050505050565b60008115159050919050565b6125c4816125af565b81146125cf57600080fd5b50565b6000815190506125e1816125bb565b92915050565b6000602082840312156125fd576125fc611b3a565b5b600061260b848285016125d2565b91505092915050565b60006040820190506126296000830185611e1f565b6126366020830184611e1f565b9392505050565b600061265861265361264e84611b3f565b61252f565b611b3f565b9050919050565b600061266a8261263d565b9050919050565b600061267c8261265f565b9050919050565b61268c81612671565b82525050565b60006040820190506126a76000830185612683565b6126b46020830184611b10565b939250505056fea2646970667358221220e63873cb943e11b4d07b4c5239bbb04c0da4cbc9c06e76316106fd30a84a117e64736f6c63430008090033a2646970667358221220ecd67d5108833ee523fbaa734c6ab1f43fe01e1f3b12c393e21773ad7277710e64736f6c63430008090033",
  "immutableReferences": {},
  "source": "// SPDX-License-Identifier: MIT\npragma solidity ^0.8.0;\n\nimport \"@openzeppelin/contracts/access/Ownable.sol\";\nimport \"./LotteryCore.sol\";\n\n\n/**\n  * @title Lottery Generator Smart Contract.\n  * @author Batis \n  * @notice This SmartContract is responsible for Lottery Generation.\n  * @dev Lottery Generator SmartContract - Parent of Core Lottery\n*/\ncontract LotteryGenerator is Ownable {\n\n    enum LType {\n        Hourly,\n        Daily,\n        Weekly,\n        Monthly\n    }\n\n    address[] public lotteries;\n    struct lottery{\n        uint index;\n        address creator;\n        uint totalBalance;\n        address winnerAddress; \n        LType lotteryType;\n    }\n    mapping(address => lottery) lotteryStructs;\n\n    address[] public LotteryWinnersArray;\n    struct LotteryWinnerStr{\n        uint playersId;\n        uint winnerCount;\n    }\n    mapping (address => LotteryWinnerStr) public LotteryWinnersMap;\n\n    address[] public WeeklyWinnersArray;\n    struct WeeklyWinnerStr{\n        uint playersId;\n        uint winnerCount;\n    }\n    mapping (address => WeeklyWinnerStr) public WeeklyWinnersMap;\n\n    // event\n    event LotteryCreated(address newLottery);\n\n  /* ToDo : Add & Complete Fallback routine */\n    fallback() external payable {\n    }\n    receive() external payable {\n    }\n\n    function balanceInPot() public view returns(uint){\n        return address(this).balance;\n    }\n\n    function withdraw() external onlyOwner {\n        payable(msg.sender).transfer(address(this).balance);\n    }\n\n    function setlotteryStructs(address _lotteryAddress, uint _totalBalance, address _winnerAddress, uint8 _lotteryType) external returns (bool) {\n        lotteryStructs[_lotteryAddress].totalBalance = _totalBalance;\n        lotteryStructs[_lotteryAddress].winnerAddress = _winnerAddress;\n        lotteryStructs[_lotteryAddress].lotteryType = LType(_lotteryType);\n        return true;\n    }\n\n    function setlotteryWinnersArrayMap(address _lotteryAddress, address _winnerAddress) external returns (uint) {\n        LotteryWinnersArray.push(_winnerAddress);\n        LotteryWinnersMap[_winnerAddress].playersId = LotteryWinnersArray.length;  // -1\n        LotteryWinnersMap[_winnerAddress].winnerCount++;\n        return LotteryWinnersArray.length ;  // -1\n    }\n\n    function setWeeklyWinnersArrayMap(address _lotteryAddress, address _winnerAddress) external returns (uint) {\n        WeeklyWinnersArray.push(_winnerAddress);\n        WeeklyWinnersMap[_winnerAddress].playersId = WeeklyWinnersArray.length;  // -1\n        WeeklyWinnersMap[_winnerAddress].winnerCount++;\n        return WeeklyWinnersArray.length ;  // -1\n    }\n\n    function clearlotteryWinnersArrayMap(address _lotteryAddress) external returns (bool) {\n        address _lotteryWinAddress;\n        for (uint256 index = 0; index < LotteryWinnersArray.length - 1; index++) {\n            _lotteryWinAddress = LotteryWinnersArray[index];\n            // if (LotteryWinnersMap[_lotteryWinAddress].playersId > 0) {\n            //     LotteryWinnersMap[_lotteryWinAddress].playersId = 0;\n            //     LotteryWinnersMap[_lotteryWinAddress].winnerCount = 0;\n            // }\n            delete LotteryWinnersMap[_lotteryWinAddress];\n        }\n        delete LotteryWinnersArray;\n        return true;\n    }\n\n    function clearWeeklyWinnersArrayMap(address _lotteryAddress) external returns (bool) {\n        address _lotteryWinAddress;\n        for (uint256 index = 0; index < WeeklyWinnersArray.length - 1; index++) {\n            _lotteryWinAddress = WeeklyWinnersArray[index];\n            // if (WeeklyWinnersMap[_lotteryWinAddress].playersId > 0) {\n            //     WeeklyWinnersMap[_lotteryWinAddress].playersId = 0;\n            //     WeeklyWinnersMap[_lotteryWinAddress].winnerCount = 0;\n            // }\n            delete WeeklyWinnersMap[_lotteryWinAddress];\n        }\n        delete WeeklyWinnersArray;\n        return true;\n    }\n\n    function createLottery(address _VRF) public onlyOwner {\n\n        // require(bytes(name).length > 0);\n        address newLottery = address(new LotteryCore(_VRF));\n        lotteries.push(newLottery);\n        lotteryStructs[newLottery].index = lotteries.length - 1;\n        lotteryStructs[newLottery].creator = msg.sender;\n        lotteryStructs[newLottery].totalBalance = 0;\n        lotteryStructs[newLottery].winnerAddress = address(0);\n\n        emit LotteryCreated( newLottery );\n    }\n\n    // function getLotteries() public view returns(address[]) {\n    //     return lotteries;\n    // }\n\n    function deleteLottery(address lotteryAddress) public  onlyOwner {\n        require(msg.sender == lotteryStructs[lotteryAddress].creator);\n        uint indexToDelete = lotteryStructs[lotteryAddress].index;\n        address lastAddress = lotteries[lotteries.length - 1];\n        lotteries[indexToDelete] = lastAddress;\n        // lotteries.length --;\n    }\n\n    // Events\n    // event LotteryCreated(\n    //     address lotteryAddress\n    // );\n}\n\n\n\n",
  "sourcePath": "/home/batis/SrcCode/myPRJ/SmartContBlockChain/BSCLottery/contracts/LotteryGenerator.sol",
  "compiler": {
    "name": "solc",
    "version": "0.8.9+commit.e5eed63a.Emscripten.clang"
  },
  "schemaVersion": "3.4.3",
  "updatedAt": "2022-05-04T12:24:07.236Z",
  "devdoc": {
    "author": "Batis ",
    "details": "Lottery Generator SmartContract - Parent of Core Lottery",
    "kind": "dev",
    "methods": {
      "owner()": {
        "details": "Returns the address of the current owner."
      },
      "renounceOwnership()": {
        "details": "Leaves the contract without owner. It will not be possible to call `onlyOwner` functions anymore. Can only be called by the current owner. NOTE: Renouncing ownership will leave the contract without an owner, thereby removing any functionality that is only available to the owner."
      },
      "transferOwnership(address)": {
        "details": "Transfers ownership of the contract to a new account (`newOwner`). Can only be called by the current owner."
      }
    },
    "title": "Lottery Generator Smart Contract.",
    "version": 1
  },
  "userdoc": {
    "kind": "user",
    "methods": {},
    "notice": "This SmartContract is responsible for Lottery Generation.",
    "version": 1
  }
}