{
  "contractName": "LotteryCore",
  "abi": [
    {
      "inputs": [],
      "stateMutability": "nonpayable",
      "type": "constructor"
    },
    {
      "stateMutability": "payable",
      "type": "fallback"
    },
    {
      "inputs": [],
      "name": "lottoryOwner",
      "outputs": [
        {
          "internalType": "address",
          "name": "",
          "type": "address"
        }
      ],
      "stateMutability": "view",
      "type": "function"
    },
    {
      "inputs": [
        {
          "internalType": "uint256",
          "name": "",
          "type": "uint256"
        }
      ],
      "name": "potPlayers",
      "outputs": [
        {
          "internalType": "address",
          "name": "",
          "type": "address"
        }
      ],
      "stateMutability": "view",
      "type": "function"
    },
    {
      "inputs": [],
      "name": "balanceInPot",
      "outputs": [
        {
          "internalType": "uint256",
          "name": "",
          "type": "uint256"
        }
      ],
      "stateMutability": "view",
      "type": "function"
    },
    {
      "inputs": [],
      "name": "play",
      "outputs": [],
      "stateMutability": "payable",
      "type": "function"
    },
    {
      "inputs": [],
      "name": "select_Send_WinnerPrize",
      "outputs": [],
      "stateMutability": "nonpayable",
      "type": "function"
    },
    {
      "inputs": [],
      "name": "listPlayers",
      "outputs": [
        {
          "internalType": "address[]",
          "name": "",
          "type": "address[]"
        }
      ],
      "stateMutability": "view",
      "type": "function"
    }
  ],
  "bytecode": "0x608060405234801561001057600080fd5b50336000806101000a81548173ffffffffffffffffffffffffffffffffffffffff021916908373ffffffffffffffffffffffffffffffffffffffff160217905550610adb806100606000396000f3fe6080604052600436106100595760003560e01c806314e599871461005c57806353d51d461461008757806364605d511461009e5780638687e599146100c957806393e84cd9146100f4578063a8cc67aa146100fe5761005a565b5b005b34801561006857600080fd5b5061007161013b565b60405161007e9190610585565b60405180910390f35b34801561009357600080fd5b5061009c610143565b005b3480156100aa57600080fd5b506100b36102db565b6040516100c09190610690565b60405180910390f35b3480156100d557600080fd5b506100de610369565b6040516100eb91906106c1565b60405180910390f35b6100fc61038d565b005b34801561010a57600080fd5b506101256004803603810190610120919061070d565b610450565b60405161013291906106c1565b60405180910390f35b600047905090565b60008054906101000a900473ffffffffffffffffffffffffffffffffffffffff1673ffffffffffffffffffffffffffffffffffffffff163373ffffffffffffffffffffffffffffffffffffffff16146101d1576040517f08c379a00000000000000000000000000000000000000000000000000000000081526004016101c8906107bd565b60405180910390fd5b60006001805490506101e161048f565b6101eb919061080c565b90506000600182815481106102035761020261083d565b5b9060005260206000200160009054906101000a900473ffffffffffffffffffffffffffffffffffffffff169050600067ffffffffffffffff81111561024b5761024a61086c565b5b6040519080825280602002602001820160405280156102795781602001602082028036833780820191505090505b506001908051906020019061028f9291906104c5565b508073ffffffffffffffffffffffffffffffffffffffff166108fc479081150290604051600060405180830381858888f193505050501580156102d6573d6000803e3d6000fd5b505050565b6060600180548060200260200160405190810160405280929190818152602001828054801561035f57602002820191906000526020600020905b8160009054906101000a900473ffffffffffffffffffffffffffffffffffffffff1673ffffffffffffffffffffffffffffffffffffffff1681526020019060010190808311610315575b5050505050905090565b60008054906101000a900473ffffffffffffffffffffffffffffffffffffffff1681565b662386f26fc1000034101580156103ac575068056bc75e2d6310000034105b6103eb576040517f08c379a00000000000000000000000000000000000000000000000000000000081526004016103e29061090d565b60405180910390fd5b6001339080600181540180825580915050600190039060005260206000200160009091909190916101000a81548173ffffffffffffffffffffffffffffffffffffffff021916908373ffffffffffffffffffffffffffffffffffffffff160217905550565b6001818154811061046057600080fd5b906000526020600020016000915054906101000a900473ffffffffffffffffffffffffffffffffffffffff1681565b6000444260016040516020016104a793929190610a6c565b6040516020818303038152906040528051906020012060001c905090565b82805482825590600052602060002090810192821561053e579160200282015b8281111561053d5782518260006101000a81548173ffffffffffffffffffffffffffffffffffffffff021916908373ffffffffffffffffffffffffffffffffffffffff160217905550916020019190600101906104e5565b5b50905061054b919061054f565b5090565b5b80821115610568576000816000905550600101610550565b5090565b6000819050919050565b61057f8161056c565b82525050565b600060208201905061059a6000830184610576565b92915050565b600081519050919050565b600082825260208201905092915050565b6000819050602082019050919050565b600073ffffffffffffffffffffffffffffffffffffffff82169050919050565b60006105f7826105cc565b9050919050565b610607816105ec565b82525050565b600061061983836105fe565b60208301905092915050565b6000602082019050919050565b600061063d826105a0565b61064781856105ab565b9350610652836105bc565b8060005b8381101561068357815161066a888261060d565b975061067583610625565b925050600181019050610656565b5085935050505092915050565b600060208201905081810360008301526106aa8184610632565b905092915050565b6106bb816105ec565b82525050565b60006020820190506106d660008301846106b2565b92915050565b600080fd5b6106ea8161056c565b81146106f557600080fd5b50565b600081359050610707816106e1565b92915050565b600060208284031215610723576107226106dc565b5b6000610731848285016106f8565b91505092915050565b600082825260208201905092915050565b7f4f776e6572204f6e6c7921202e20596f752068617665206e6f7420746865207260008201527f69676874204163636573732e0000000000000000000000000000000000000000602082015250565b60006107a7602c8361073a565b91506107b28261074b565b604082019050919050565b600060208201905081810360008301526107d68161079a565b9050919050565b7f4e487b7100000000000000000000000000000000000000000000000000000000600052601260045260246000fd5b60006108178261056c565b91506108228361056c565b925082610832576108316107dd565b5b828206905092915050565b7f4e487b7100000000000000000000000000000000000000000000000000000000600052603260045260246000fd5b7f4e487b7100000000000000000000000000000000000000000000000000000000600052604160045260246000fd5b7f56616c75652073686f756c64206265206265747765656e20302e30312026203160008201527f303020424e420000000000000000000000000000000000000000000000000000602082015250565b60006108f760268361073a565b91506109028261089b565b604082019050919050565b60006020820190508181036000830152610926816108ea565b9050919050565b6000819050919050565b6109486109438261056c565b61092d565b82525050565b600081549050919050565b600081905092915050565b60008190508160005260206000209050919050565b610982816105ec565b82525050565b60006109948383610979565b60208301905092915050565b60008160001c9050919050565b600073ffffffffffffffffffffffffffffffffffffffff82169050919050565b60006109e06109db836109a0565b6109ad565b9050919050565b60006109f382546109cd565b9050919050565b6000600182019050919050565b6000610a128261094e565b610a1c8185610959565b9350610a2783610964565b8060005b83811015610a5f57610a3c826109e7565b610a468882610988565b9750610a51836109fa565b925050600181019050610a2b565b5085935050505092915050565b6000610a788286610937565b602082019150610a888285610937565b602082019150610a988284610a07565b915081905094935050505056fea2646970667358221220bb80c5f2be0b651d714b75fd884c173581ad48031f882afb3e9bd8f6eb6b756c64736f6c63430008090033",
  "immutableReferences": {},
  "source": "// SPDX-License-Identifier: MIT\npragma solidity >=0.4.22 <0.9.0;\n\nimport '@openzeppelin/contracts/access/Ownable.sol';\nimport \"@chainlink/contracts/src/v0.8/VRFConsumerBase.sol\";\n\n\n// contract LotteryCore is Ownable, VRFConsumerBase {\ncontract LotteryCore {\n\n  address public lottoryOwner;\n  address[] public potPlayers;\n\n  struct PotPlayer{\n    uint index;\n    uint pValue;\n  }\n\n  struct LotteryPot{\n    string potLabel;\n    uint entryCount;\n    uint potSerial;\n    uint potValue;\n    // mapping(address => PotPlayer) players;\n  }\n\n  constructor() public {\n    lottoryOwner = msg.sender;\n  }\n\n  modifier ownerOnly() {\n    require(msg.sender == lottoryOwner, \"Owner Only! . You have not the right Access.\");\n    _;\n  }\n\n  fallback() external payable {\n        // player name will be unknown\n  }\n\n  function balanceInPot() public view returns(uint){\n    return address(this).balance;\n  }\n\n  function play() public payable {\n    require(msg.value >= 0.01 ether && msg.value < 100 ether, \"Value should be between 0.01 & 100 BNB\");\n    potPlayers.push(msg.sender);\n  }\n\n  function randomGenerator() private view returns (uint) {\n    return uint(\n      keccak256(\n        abi.encodePacked(\n          block.difficulty, block.timestamp, potPlayers )));\n  }\n\n  function select_Send_WinnerPrize() public ownerOnly {\n    uint winnerIndex = randomGenerator() % potPlayers.length;\n    address payable potWinner = payable(potPlayers[winnerIndex]);\n    potPlayers = new address[](0);\n    potWinner.transfer(address(this).balance);\n    // potPlayers[winnerIndex].transfer(address(this).balance);\n  }\n\n  function listPlayers() public view returns (address[] memory){\n    return potPlayers;\n  }\n\n}\n",
  "sourcePath": "/home/batis/SrcCode/myPRJ/SmartContBlockChain/BSCLottery/contracts/LotteryCore.sol",
  "compiler": {
    "name": "solc",
    "version": "0.8.9+commit.e5eed63a.Emscripten.clang"
  },
  "schemaVersion": "3.4.3",
  "updatedAt": "2022-03-23T15:27:56.763Z",
  "devdoc": {
    "kind": "dev",
    "methods": {},
    "version": 1
  },
  "userdoc": {
    "kind": "user",
    "methods": {},
    "version": 1
  }
}