{
  "contractName": "LotteryGenerator",
  "abi": [
    {
      "anonymous": false,
      "inputs": [
        {
          "indexed": false,
          "internalType": "address",
          "name": "newLottery",
          "type": "address"
        }
      ],
      "name": "LotteryCreated",
      "type": "event"
    },
    {
      "anonymous": false,
      "inputs": [
        {
          "indexed": true,
          "internalType": "address",
          "name": "previousOwner",
          "type": "address"
        },
        {
          "indexed": true,
          "internalType": "address",
          "name": "newOwner",
          "type": "address"
        }
      ],
      "name": "OwnershipTransferred",
      "type": "event"
    },
    {
      "stateMutability": "payable",
      "type": "fallback"
    },
    {
      "inputs": [
        {
          "internalType": "uint256",
          "name": "",
          "type": "uint256"
        }
      ],
      "name": "LotteryWinnersArray",
      "outputs": [
        {
          "internalType": "address",
          "name": "",
          "type": "address"
        }
      ],
      "stateMutability": "view",
      "type": "function"
    },
    {
      "inputs": [
        {
          "internalType": "address",
          "name": "",
          "type": "address"
        }
      ],
      "name": "LotteryWinnersMap",
      "outputs": [
        {
          "internalType": "uint256",
          "name": "playersId",
          "type": "uint256"
        },
        {
          "internalType": "uint256",
          "name": "winnerCount",
          "type": "uint256"
        }
      ],
      "stateMutability": "view",
      "type": "function"
    },
    {
      "inputs": [
        {
          "internalType": "uint256",
          "name": "",
          "type": "uint256"
        }
      ],
      "name": "WeeklyWinnersArray",
      "outputs": [
        {
          "internalType": "address",
          "name": "",
          "type": "address"
        }
      ],
      "stateMutability": "view",
      "type": "function"
    },
    {
      "inputs": [
        {
          "internalType": "address",
          "name": "",
          "type": "address"
        }
      ],
      "name": "WeeklyWinnersMap",
      "outputs": [
        {
          "internalType": "uint256",
          "name": "playersId",
          "type": "uint256"
        },
        {
          "internalType": "uint256",
          "name": "winnerCount",
          "type": "uint256"
        }
      ],
      "stateMutability": "view",
      "type": "function"
    },
    {
      "inputs": [
        {
          "internalType": "uint256",
          "name": "",
          "type": "uint256"
        }
      ],
      "name": "lotteries",
      "outputs": [
        {
          "internalType": "address",
          "name": "",
          "type": "address"
        }
      ],
      "stateMutability": "view",
      "type": "function"
    },
    {
      "inputs": [],
      "name": "owner",
      "outputs": [
        {
          "internalType": "address",
          "name": "",
          "type": "address"
        }
      ],
      "stateMutability": "view",
      "type": "function"
    },
    {
      "inputs": [],
      "name": "renounceOwnership",
      "outputs": [],
      "stateMutability": "nonpayable",
      "type": "function"
    },
    {
      "inputs": [
        {
          "internalType": "address",
          "name": "newOwner",
          "type": "address"
        }
      ],
      "name": "transferOwnership",
      "outputs": [],
      "stateMutability": "nonpayable",
      "type": "function"
    },
    {
      "stateMutability": "payable",
      "type": "receive"
    },
    {
      "inputs": [],
      "name": "balanceInPot",
      "outputs": [
        {
          "internalType": "uint256",
          "name": "",
          "type": "uint256"
        }
      ],
      "stateMutability": "view",
      "type": "function"
    },
    {
      "inputs": [],
      "name": "withdraw",
      "outputs": [],
      "stateMutability": "nonpayable",
      "type": "function"
    },
    {
      "inputs": [],
      "name": "getWinners",
      "outputs": [
        {
          "internalType": "address[]",
          "name": "",
          "type": "address[]"
        }
      ],
      "stateMutability": "view",
      "type": "function"
    },
    {
      "inputs": [
        {
          "internalType": "address",
          "name": "_lotteryAddress",
          "type": "address"
        },
        {
          "internalType": "uint256",
          "name": "_totalBalance",
          "type": "uint256"
        },
        {
          "internalType": "address",
          "name": "_winnerAddress",
          "type": "address"
        },
        {
          "internalType": "uint8",
          "name": "_lotteryType",
          "type": "uint8"
        }
      ],
      "name": "setlotteryStructs",
      "outputs": [
        {
          "internalType": "bool",
          "name": "",
          "type": "bool"
        }
      ],
      "stateMutability": "nonpayable",
      "type": "function"
    },
    {
      "inputs": [
        {
          "internalType": "address",
          "name": "_lotteryAddress",
          "type": "address"
        },
        {
          "internalType": "address",
          "name": "_winnerAddress",
          "type": "address"
        }
      ],
      "name": "setlotteryWinnersArrayMap",
      "outputs": [
        {
          "internalType": "uint256",
          "name": "",
          "type": "uint256"
        }
      ],
      "stateMutability": "nonpayable",
      "type": "function"
    },
    {
      "inputs": [
        {
          "internalType": "address",
          "name": "_lotteryAddress",
          "type": "address"
        },
        {
          "internalType": "address",
          "name": "_winnerAddress",
          "type": "address"
        }
      ],
      "name": "setWeeklyWinnersArrayMap",
      "outputs": [
        {
          "internalType": "uint256",
          "name": "",
          "type": "uint256"
        }
      ],
      "stateMutability": "nonpayable",
      "type": "function"
    },
    {
      "inputs": [
        {
          "internalType": "address",
          "name": "_lotteryAddress",
          "type": "address"
        }
      ],
      "name": "clearlotteryWinnersArrayMap",
      "outputs": [
        {
          "internalType": "bool",
          "name": "",
          "type": "bool"
        }
      ],
      "stateMutability": "nonpayable",
      "type": "function"
    },
    {
      "inputs": [
        {
          "internalType": "address",
          "name": "_lotteryAddress",
          "type": "address"
        }
      ],
      "name": "clearWeeklyWinnersArrayMap",
      "outputs": [
        {
          "internalType": "bool",
          "name": "",
          "type": "bool"
        }
      ],
      "stateMutability": "nonpayable",
      "type": "function"
    },
    {
      "inputs": [
        {
          "internalType": "address",
          "name": "_VRF",
          "type": "address"
        }
      ],
      "name": "createLottery",
      "outputs": [],
      "stateMutability": "nonpayable",
      "type": "function"
    },
    {
      "inputs": [
        {
          "internalType": "address",
          "name": "lotteryAddress",
          "type": "address"
        }
      ],
      "name": "deleteLottery",
      "outputs": [],
      "stateMutability": "nonpayable",
      "type": "function"
    }
  ],
  "bytecode": "0x608060405234801561001057600080fd5b5061002d61002261003260201b60201c565b61003a60201b60201c565b6100fe565b600033905090565b60008060009054906101000a900473ffffffffffffffffffffffffffffffffffffffff169050816000806101000a81548173ffffffffffffffffffffffffffffffffffffffff021916908373ffffffffffffffffffffffffffffffffffffffff1602179055508173ffffffffffffffffffffffffffffffffffffffff168173ffffffffffffffffffffffffffffffffffffffff167f8be0079c531659141344cd1fd0a4f28419497f9722a3daafe3b4186f6b6457e060405160405180910390a35050565b614e0a806200010e6000396000f3fe608060405260043610620001275760003560e01c80638da5cb5b11620000a3578063a6dddd64116200006d578063a6dddd641462000415578063a7e46eac1462000459578063df15c37e1462000487578063f2fde38b14620004b7578063f671123914620004e5576200012f565b80638da5cb5b146200032f5780639139a20e146200035f57806394c31c9b146200038d578063a35e151c14620003d1576200012f565b80633ccfd60b11620000f15780633ccfd60b146200022e57806354a1ec731462000248578063653ea439146200028c578063715018a614620002d15780637a1fa9e314620002eb576200012f565b80631398e076146200013157806314e5998714620001755780631c1f538914620001a557806332f655fd14620001ea576200012f565b366200012f57005b005b3480156200013e57600080fd5b506200015d600480360381019062000157919062001534565b62000529565b6040516200016c9190620015ab565b60405180910390f35b3480156200018257600080fd5b506200018d62000569565b6040516200019c9190620015d9565b60405180910390f35b348015620001b257600080fd5b50620001d16004803603810190620001cb919062001627565b62000571565b604051620001e192919062001659565b60405180910390f35b348015620001f757600080fd5b5062000216600480360381019062000210919062001627565b62000595565b604051620002259190620016a3565b60405180910390f35b3480156200023b57600080fd5b50620002466200067e565b005b3480156200025557600080fd5b506200027460048036038101906200026e919062001627565b6200074b565b604051620002839190620016a3565b60405180910390f35b3480156200029957600080fd5b50620002b86004803603810190620002b2919062001627565b62000834565b604051620002c892919062001659565b60405180910390f35b348015620002de57600080fd5b50620002e962000858565b005b348015620002f857600080fd5b50620003176004803603810190620003119190620016fe565b620008e9565b604051620003269190620016a3565b60405180910390f35b3480156200033c57600080fd5b506200034762000a44565b604051620003569190620015ab565b60405180910390f35b3480156200036c57600080fd5b506200038b600480360381019062000385919062001627565b62000a6d565b005b3480156200039a57600080fd5b50620003b96004803603810190620003b3919062001770565b62000d71565b604051620003c89190620015d9565b60405180910390f35b348015620003de57600080fd5b50620003fd6004803603810190620003f7919062001534565b62000e8a565b6040516200040c9190620015ab565b60405180910390f35b3480156200042257600080fd5b506200044160048036038101906200043b919062001770565b62000eca565b604051620004509190620015d9565b60405180910390f35b3480156200046657600080fd5b506200048560048036038101906200047f919062001627565b62000fe3565b005b3480156200049457600080fd5b506200049f62001204565b604051620004ae919062001885565b60405180910390f35b348015620004c457600080fd5b50620004e36004803603810190620004dd919062001627565b62001294565b005b348015620004f257600080fd5b506200051160048036038101906200050b919062001534565b62001398565b604051620005209190620015ab565b60405180910390f35b600181815481106200053a57600080fd5b906000526020600020016000915054906101000a900473ffffffffffffffffffffffffffffffffffffffff1681565b600047905090565b60046020528060005260406000206000915090508060000154908060010154905082565b60008060005b6001600580549050620005af9190620018d8565b811015620006635760058181548110620005ce57620005cd62001913565b5b9060005260206000200160009054906101000a900473ffffffffffffffffffffffffffffffffffffffff169150600660008373ffffffffffffffffffffffffffffffffffffffff1673ffffffffffffffffffffffffffffffffffffffff1681526020019081526020016000206000808201600090556001820160009055505080806200065a9062001942565b9150506200059b565b5060056000620006749190620014a4565b6001915050919050565b62000688620013d8565b73ffffffffffffffffffffffffffffffffffffffff16620006a862000a44565b73ffffffffffffffffffffffffffffffffffffffff161462000701576040517f08c379a0000000000000000000000000000000000000000000000000000000008152600401620006f890620019f1565b60405180910390fd5b3373ffffffffffffffffffffffffffffffffffffffff166108fc479081150290604051600060405180830381858888f1935050505015801562000748573d6000803e3d6000fd5b50565b60008060005b6001600380549050620007659190620018d8565b81101562000819576003818154811062000784576200078362001913565b5b9060005260206000200160009054906101000a900473ffffffffffffffffffffffffffffffffffffffff169150600460008373ffffffffffffffffffffffffffffffffffffffff1673ffffffffffffffffffffffffffffffffffffffff168152602001908152602001600020600080820160009055600182016000905550508080620008109062001942565b91505062000751565b50600360006200082a9190620014a4565b6001915050919050565b60066020528060005260406000206000915090508060000154908060010154905082565b62000862620013d8565b73ffffffffffffffffffffffffffffffffffffffff166200088262000a44565b73ffffffffffffffffffffffffffffffffffffffff1614620008db576040517f08c379a0000000000000000000000000000000000000000000000000000000008152600401620008d290620019f1565b60405180910390fd5b620008e76000620013e0565b565b600083600260008773ffffffffffffffffffffffffffffffffffffffff1673ffffffffffffffffffffffffffffffffffffffff1681526020019081526020016000206002018190555082600260008773ffffffffffffffffffffffffffffffffffffffff1673ffffffffffffffffffffffffffffffffffffffff16815260200190815260200160002060030160006101000a81548173ffffffffffffffffffffffffffffffffffffffff021916908373ffffffffffffffffffffffffffffffffffffffff1602179055508160ff166003811115620009cc57620009cb62001a13565b5b600260008773ffffffffffffffffffffffffffffffffffffffff1673ffffffffffffffffffffffffffffffffffffffff16815260200190815260200160002060030160146101000a81548160ff0219169083600381111562000a335762000a3262001a13565b5b021790555060019050949350505050565b60008060009054906101000a900473ffffffffffffffffffffffffffffffffffffffff16905090565b62000a77620013d8565b73ffffffffffffffffffffffffffffffffffffffff1662000a9762000a44565b73ffffffffffffffffffffffffffffffffffffffff161462000af0576040517f08c379a000000000000000000000000000000000000000000000000000000000815260040162000ae790620019f1565b60405180910390fd5b60008160405162000b0190620014c7565b62000b0d9190620015ab565b604051809103906000f08015801562000b2a573d6000803e3d6000fd5b5090506001819080600181540180825580915050600190039060005260206000200160009091909190916101000a81548173ffffffffffffffffffffffffffffffffffffffff021916908373ffffffffffffffffffffffffffffffffffffffff1602179055506001808054905062000ba39190620018d8565b600260008373ffffffffffffffffffffffffffffffffffffffff1673ffffffffffffffffffffffffffffffffffffffff1681526020019081526020016000206000018190555033600260008373ffffffffffffffffffffffffffffffffffffffff1673ffffffffffffffffffffffffffffffffffffffff16815260200190815260200160002060010160006101000a81548173ffffffffffffffffffffffffffffffffffffffff021916908373ffffffffffffffffffffffffffffffffffffffff1602179055506000600260008373ffffffffffffffffffffffffffffffffffffffff1673ffffffffffffffffffffffffffffffffffffffff168152602001908152602001600020600201819055506000600260008373ffffffffffffffffffffffffffffffffffffffff1673ffffffffffffffffffffffffffffffffffffffff16815260200190815260200160002060030160006101000a81548173ffffffffffffffffffffffffffffffffffffffff021916908373ffffffffffffffffffffffffffffffffffffffff1602179055507fe610764cbcba803247df3450b7492f6a0084b7b5b734a7901c13fef8f84ffaf48160405162000d659190620015ab565b60405180910390a15050565b60006005829080600181540180825580915050600190039060005260206000200160009091909190916101000a81548173ffffffffffffffffffffffffffffffffffffffff021916908373ffffffffffffffffffffffffffffffffffffffff160217905550600580549050600660008473ffffffffffffffffffffffffffffffffffffffff1673ffffffffffffffffffffffffffffffffffffffff16815260200190815260200160002060000181905550600660008373ffffffffffffffffffffffffffffffffffffffff1673ffffffffffffffffffffffffffffffffffffffff168152602001908152602001600020600101600081548092919062000e779062001942565b9190505550600580549050905092915050565b6005818154811062000e9b57600080fd5b906000526020600020016000915054906101000a900473ffffffffffffffffffffffffffffffffffffffff1681565b60006003829080600181540180825580915050600190039060005260206000200160009091909190916101000a81548173ffffffffffffffffffffffffffffffffffffffff021916908373ffffffffffffffffffffffffffffffffffffffff160217905550600380549050600460008473ffffffffffffffffffffffffffffffffffffffff1673ffffffffffffffffffffffffffffffffffffffff16815260200190815260200160002060000181905550600460008373ffffffffffffffffffffffffffffffffffffffff1673ffffffffffffffffffffffffffffffffffffffff168152602001908152602001600020600101600081548092919062000fd09062001942565b9190505550600380549050905092915050565b62000fed620013d8565b73ffffffffffffffffffffffffffffffffffffffff166200100d62000a44565b73ffffffffffffffffffffffffffffffffffffffff161462001066576040517f08c379a00000000000000000000000000000000000000000000000000000000081526004016200105d90620019f1565b60405180910390fd5b600260008273ffffffffffffffffffffffffffffffffffffffff1673ffffffffffffffffffffffffffffffffffffffff16815260200190815260200160002060010160009054906101000a900473ffffffffffffffffffffffffffffffffffffffff1673ffffffffffffffffffffffffffffffffffffffff163373ffffffffffffffffffffffffffffffffffffffff16146200110157600080fd5b6000600260008373ffffffffffffffffffffffffffffffffffffffff1673ffffffffffffffffffffffffffffffffffffffff168152602001908152602001600020600001549050600060018080805490506200115e9190620018d8565b8154811062001172576200117162001913565b5b9060005260206000200160009054906101000a900473ffffffffffffffffffffffffffffffffffffffff1690508060018381548110620011b757620011b662001913565b5b9060005260206000200160006101000a81548173ffffffffffffffffffffffffffffffffffffffff021916908373ffffffffffffffffffffffffffffffffffffffff160217905550505050565b606060038054806020026020016040519081016040528092919081815260200182805480156200128a57602002820191906000526020600020905b8160009054906101000a900473ffffffffffffffffffffffffffffffffffffffff1673ffffffffffffffffffffffffffffffffffffffff16815260200190600101908083116200123f575b5050505050905090565b6200129e620013d8565b73ffffffffffffffffffffffffffffffffffffffff16620012be62000a44565b73ffffffffffffffffffffffffffffffffffffffff161462001317576040517f08c379a00000000000000000000000000000000000000000000000000000000081526004016200130e90620019f1565b60405180910390fd5b600073ffffffffffffffffffffffffffffffffffffffff168173ffffffffffffffffffffffffffffffffffffffff1614156200138a576040517f08c379a0000000000000000000000000000000000000000000000000000000008152600401620013819062001ab8565b60405180910390fd5b6200139581620013e0565b50565b60038181548110620013a957600080fd5b906000526020600020016000915054906101000a900473ffffffffffffffffffffffffffffffffffffffff1681565b600033905090565b60008060009054906101000a900473ffffffffffffffffffffffffffffffffffffffff169050816000806101000a81548173ffffffffffffffffffffffffffffffffffffffff021916908373ffffffffffffffffffffffffffffffffffffffff1602179055508173ffffffffffffffffffffffffffffffffffffffff168173ffffffffffffffffffffffffffffffffffffffff167f8be0079c531659141344cd1fd0a4f28419497f9722a3daafe3b4186f6b6457e060405160405180910390a35050565b5080546000825590600052602060002090810190620014c49190620014d5565b50565b6132fa8062001adb83390190565b5b80821115620014f0576000816000905550600101620014d6565b5090565b600080fd5b6000819050919050565b6200150e81620014f9565b81146200151a57600080fd5b50565b6000813590506200152e8162001503565b92915050565b6000602082840312156200154d576200154c620014f4565b5b60006200155d848285016200151d565b91505092915050565b600073ffffffffffffffffffffffffffffffffffffffff82169050919050565b6000620015938262001566565b9050919050565b620015a58162001586565b82525050565b6000602082019050620015c260008301846200159a565b92915050565b620015d381620014f9565b82525050565b6000602082019050620015f06000830184620015c8565b92915050565b620016018162001586565b81146200160d57600080fd5b50565b6000813590506200162181620015f6565b92915050565b60006020828403121562001640576200163f620014f4565b5b6000620016508482850162001610565b91505092915050565b6000604082019050620016706000830185620015c8565b6200167f6020830184620015c8565b9392505050565b60008115159050919050565b6200169d8162001686565b82525050565b6000602082019050620016ba600083018462001692565b92915050565b600060ff82169050919050565b620016d881620016c0565b8114620016e457600080fd5b50565b600081359050620016f881620016cd565b92915050565b600080600080608085870312156200171b576200171a620014f4565b5b60006200172b8782880162001610565b94505060206200173e878288016200151d565b9350506040620017518782880162001610565b92505060606200176487828801620016e7565b91505092959194509250565b600080604083850312156200178a5762001789620014f4565b5b60006200179a8582860162001610565b9250506020620017ad8582860162001610565b9150509250929050565b600081519050919050565b600082825260208201905092915050565b6000819050602082019050919050565b620017ee8162001586565b82525050565b6000620018028383620017e3565b60208301905092915050565b6000602082019050919050565b60006200182882620017b7565b620018348185620017c2565b93506200184183620017d3565b8060005b83811015620018785781516200185c8882620017f4565b975062001869836200180e565b92505060018101905062001845565b5085935050505092915050565b60006020820190508181036000830152620018a181846200181b565b905092915050565b7f4e487b7100000000000000000000000000000000000000000000000000000000600052601160045260246000fd5b6000620018e582620014f9565b9150620018f283620014f9565b925082821015620019085762001907620018a9565b5b828203905092915050565b7f4e487b7100000000000000000000000000000000000000000000000000000000600052603260045260246000fd5b60006200194f82620014f9565b91507fffffffffffffffffffffffffffffffffffffffffffffffffffffffffffffffff821415620019855762001984620018a9565b5b600182019050919050565b600082825260208201905092915050565b7f4f776e61626c653a2063616c6c6572206973206e6f7420746865206f776e6572600082015250565b6000620019d960208362001990565b9150620019e682620019a1565b602082019050919050565b6000602082019050818103600083015262001a0c81620019ca565b9050919050565b7f4e487b7100000000000000000000000000000000000000000000000000000000600052602160045260246000fd5b7f4f776e61626c653a206e6577206f776e657220697320746865207a65726f206160008201527f6464726573730000000000000000000000000000000000000000000000000000602082015250565b600062001aa060268362001990565b915062001aad8262001a42565b604082019050919050565b6000602082019050818103600083015262001ad38162001a91565b905091905056fe60806040523480156200001157600080fd5b50604051620032fa380380620032fa83398181016040528101906200003791906200024c565b620000576200004b6200011660201b60201c565b6200011e60201b60201c565b33600660006101000a81548173ffffffffffffffffffffffffffffffffffffffff021916908373ffffffffffffffffffffffffffffffffffffffff16021790555080600160006101000a81548173ffffffffffffffffffffffffffffffffffffffff021916908373ffffffffffffffffffffffffffffffffffffffff1602179055506001600660146101000a81548160ff0219169083151502179055506000600660156101000a81548160ff021916908315150217905550506200027e565b600033905090565b60008060009054906101000a900473ffffffffffffffffffffffffffffffffffffffff169050816000806101000a81548173ffffffffffffffffffffffffffffffffffffffff021916908373ffffffffffffffffffffffffffffffffffffffff1602179055508173ffffffffffffffffffffffffffffffffffffffff168173ffffffffffffffffffffffffffffffffffffffff167f8be0079c531659141344cd1fd0a4f28419497f9722a3daafe3b4186f6b6457e060405160405180910390a35050565b600080fd5b600073ffffffffffffffffffffffffffffffffffffffff82169050919050565b60006200021482620001e7565b9050919050565b620002268162000207565b81146200023257600080fd5b50565b60008151905062000246816200021b565b92915050565b600060208284031215620002655762000264620001e2565b5b6000620002758482850162000235565b91505092915050565b61306c806200028e6000396000f3fe60806040526004361061016a5760003560e01c80636c253437116100d15780638da5cb5b1161008a578063c5ae6f3e11610064578063c5ae6f3e146104a4578063df15c37e146104cf578063e8b05e38146104fa578063f2fde38b1461052557610171565b80638da5cb5b1461044457806393e84cd91461046f578063a8078b7a1461047957610171565b80636c2534371461036c5780636cf6995814610383578063715018a6146103ae578063737bb723146103c5578063766eef11146103ee57806387bb7ae01461041957610171565b80633fa420c4116101235780633fa420c414610270578063442db8fb146102995780634442713c146102c45780635efaf044146102ef578063614f6f871461031857806364605d511461034157610171565b806314e599871461017357806314e5e90e1461019e578063194d02d7146101db57806326ba4319146102195780632ac75ab5146102425780633ccfd60b1461025957610171565b3661017157005b005b34801561017f57600080fd5b5061018861054e565b6040516101959190612274565b60405180910390f35b3480156101aa57600080fd5b506101c560048036038101906101c091906122f2565b610556565b6040516101d29190612274565b60405180910390f35b3480156101e757600080fd5b5061020260048036038101906101fd919061234b565b610659565b60405161021092919061238b565b60405180910390f35b34801561022557600080fd5b50610240600480360381019061023b91906122f2565b610711565b005b34801561024e57600080fd5b5061025761080b565b005b34801561026557600080fd5b5061026e610a67565b005b34801561027c57600080fd5b50610297600480360381019061029291906122f2565b610b2c565b005b3480156102a557600080fd5b506102ae610c26565b6040516102bb9190612472565b60405180910390f35b3480156102d057600080fd5b506102d9610c7e565b6040516102e691906124af565b60405180910390f35b3480156102fb57600080fd5b50610316600480360381019061031191906122f2565b610c95565b005b34801561032457600080fd5b5061033f600480360381019061033a91906122f2565b610d8f565b005b34801561034d57600080fd5b50610356610e89565b6040516103639190612588565b60405180910390f35b34801561037857600080fd5b50610381610f17565b005b34801561038f57600080fd5b5061039861108d565b6040516103a59190612274565b60405180910390f35b3480156103ba57600080fd5b506103c361109a565b005b3480156103d157600080fd5b506103ec60048036038101906103e791906122f2565b611122565b005b3480156103fa57600080fd5b506104036111e2565b6040516104109190612274565b60405180910390f35b34801561042557600080fd5b5061042e6111ef565b60405161043b9190612274565b60405180910390f35b34801561045057600080fd5b506104596111fe565b60405161046691906125b9565b60405180910390f35b610477611227565b005b34801561048557600080fd5b5061048e611870565b60405161049b9190612274565b60405180910390f35b3480156104b057600080fd5b506104b9611875565b6040516104c691906125b9565b60405180910390f35b3480156104db57600080fd5b506104e461189f565b6040516104f191906125b9565b60405180910390f35b34801561050657600080fd5b5061050f6118c9565b60405161051c91906124af565b60405180910390f35b34801561053157600080fd5b5061054c600480360381019061054791906122f2565b6118e0565b005b600047905090565b60006105606119d8565b73ffffffffffffffffffffffffffffffffffffffff1661057e6111fe565b73ffffffffffffffffffffffffffffffffffffffff16146105d4576040517f08c379a00000000000000000000000000000000000000000000000000000000081526004016105cb90612631565b60405180910390fd5b8173ffffffffffffffffffffffffffffffffffffffff166371f747906040518163ffffffff1660e01b815260040160206040518083038186803b15801561061a57600080fd5b505afa15801561062e573d6000803e3d6000fd5b505050506040513d601f19601f820116820180604052508101906106529190612666565b9050919050565b60008060008310156106a0576040517f08c379a000000000000000000000000000000000000000000000000000000000815260040161069790612705565b60405180910390fd5b600084116106e3576040517f08c379a00000000000000000000000000000000000000000000000000000000081526004016106da90612705565b60405180910390fd5b82846106ef9190612783565b915081836106fd91906127b4565b84610708919061280e565b90509250929050565b6107196119d8565b73ffffffffffffffffffffffffffffffffffffffff166107376111fe565b73ffffffffffffffffffffffffffffffffffffffff161461078d576040517f08c379a000000000000000000000000000000000000000000000000000000000815260040161078490612631565b60405180910390fd5b600073ffffffffffffffffffffffffffffffffffffffff168173ffffffffffffffffffffffffffffffffffffffff1614156107c757600080fd5b80600c60006101000a81548173ffffffffffffffffffffffffffffffffffffffff021916908373ffffffffffffffffffffffffffffffffffffffff16021790555050565b600c60009054906101000a900473ffffffffffffffffffffffffffffffffffffffff1673ffffffffffffffffffffffffffffffffffffffff163373ffffffffffffffffffffffffffffffffffffffff1614806108b45750600660009054906101000a900473ffffffffffffffffffffffffffffffffffffffff1673ffffffffffffffffffffffffffffffffffffffff163373ffffffffffffffffffffffffffffffffffffffff16145b6108f3576040517f08c379a00000000000000000000000000000000000000000000000000000000081526004016108ea9061288e565b60405180910390fd5b60011515600660159054906101000a900460ff16151514610949576040517f08c379a000000000000000000000000000000000000000000000000000000000815260040161094090612920565b60405180910390fd5b6000610976600160009054906101000a900473ffffffffffffffffffffffffffffffffffffffff16610556565b905060006009805490508261098b9190612940565b9050600981815481106109a1576109a0612971565b5b906000526020600020015490506000806000806109bd856119e0565b93509350935093507f274f2e5ea35472f60f411beb007713c0f1c1b574f260789eedee1789cd49d9f58547866040516109f8939291906129a0565b60405180910390a1610a0a8547611aec565b50610a158585611d27565b610a20838383611def565b610a28611fe6565b506000600660146101000a81548160ff0219169083151502179055506000600660156101000a81548160ff021916908315150217905550505050505050565b610a6f6119d8565b73ffffffffffffffffffffffffffffffffffffffff16610a8d6111fe565b73ffffffffffffffffffffffffffffffffffffffff1614610ae3576040517f08c379a0000000000000000000000000000000000000000000000000000000008152600401610ada90612631565b60405180910390fd5b3373ffffffffffffffffffffffffffffffffffffffff166108fc479081150290604051600060405180830381858888f19350505050158015610b29573d6000803e3d6000fd5b50565b610b346119d8565b73ffffffffffffffffffffffffffffffffffffffff16610b526111fe565b73ffffffffffffffffffffffffffffffffffffffff1614610ba8576040517f08c379a0000000000000000000000000000000000000000000000000000000008152600401610b9f90612631565b60405180910390fd5b600073ffffffffffffffffffffffffffffffffffffffff168173ffffffffffffffffffffffffffffffffffffffff161415610be257600080fd5b80600460006101000a81548173ffffffffffffffffffffffffffffffffffffffff021916908373ffffffffffffffffffffffffffffffffffffffff16021790555050565b60606009805480602002602001604051908101604052809291908181526020018280548015610c7457602002820191906000526020600020905b815481526020019060010190808311610c60575b5050505050905090565b6000600660149054906101000a900460ff16905090565b610c9d6119d8565b73ffffffffffffffffffffffffffffffffffffffff16610cbb6111fe565b73ffffffffffffffffffffffffffffffffffffffff1614610d11576040517f08c379a0000000000000000000000000000000000000000000000000000000008152600401610d0890612631565b60405180910390fd5b600073ffffffffffffffffffffffffffffffffffffffff168173ffffffffffffffffffffffffffffffffffffffff161415610d4b57600080fd5b80600360006101000a81548173ffffffffffffffffffffffffffffffffffffffff021916908373ffffffffffffffffffffffffffffffffffffffff16021790555050565b610d976119d8565b73ffffffffffffffffffffffffffffffffffffffff16610db56111fe565b73ffffffffffffffffffffffffffffffffffffffff1614610e0b576040517f08c379a0000000000000000000000000000000000000000000000000000000008152600401610e0290612631565b60405180910390fd5b600073ffffffffffffffffffffffffffffffffffffffff168173ffffffffffffffffffffffffffffffffffffffff161415610e4557600080fd5b80600560006101000a81548173ffffffffffffffffffffffffffffffffffffffff021916908373ffffffffffffffffffffffffffffffffffffffff16021790555050565b60606008805480602002602001604051908101604052809291908181526020018280548015610f0d57602002820191906000526020600020905b8160009054906101000a900473ffffffffffffffffffffffffffffffffffffffff1673ffffffffffffffffffffffffffffffffffffffff1681526020019060010190808311610ec3575b5050505050905090565b600c60009054906101000a900473ffffffffffffffffffffffffffffffffffffffff1673ffffffffffffffffffffffffffffffffffffffff163373ffffffffffffffffffffffffffffffffffffffff161480610fc05750600660009054906101000a900473ffffffffffffffffffffffffffffffffffffffff1673ffffffffffffffffffffffffffffffffffffffff163373ffffffffffffffffffffffffffffffffffffffff16145b610fff576040517f08c379a0000000000000000000000000000000000000000000000000000000008152600401610ff69061288e565b60405180910390fd5b60001515600660149054906101000a900460ff16151514611055576040517f08c379a000000000000000000000000000000000000000000000000000000000815260040161104c90612a23565b60405180910390fd5b6001600660146101000a81548160ff0219169083151502179055506000600660156101000a81548160ff021916908315150217905550565b6000600980549050905090565b6110a26119d8565b73ffffffffffffffffffffffffffffffffffffffff166110c06111fe565b73ffffffffffffffffffffffffffffffffffffffff1614611116576040517f08c379a000000000000000000000000000000000000000000000000000000000815260040161110d90612631565b60405180910390fd5b61112060006120f8565b565b61112a6119d8565b73ffffffffffffffffffffffffffffffffffffffff166111486111fe565b73ffffffffffffffffffffffffffffffffffffffff161461119e576040517f08c379a000000000000000000000000000000000000000000000000000000000815260040161119590612631565b60405180910390fd5b80600260006101000a81548173ffffffffffffffffffffffffffffffffffffffff021916908373ffffffffffffffffffffffffffffffffffffffff16021790555050565b6000600880549050905090565b6000662386f26fc10000905090565b60008060009054906101000a900473ffffffffffffffffffffffffffffffffffffffff16905090565b600660149054906101000a900460ff1680156112505750600660159054906101000a900460ff16155b61128f576040517f08c379a000000000000000000000000000000000000000000000000000000000815260040161128690612ab5565b60405180910390fd5b662386f26fc1000034101580156112ae575068056bc75e2d6310000034105b6112ed576040517f08c379a00000000000000000000000000000000000000000000000000000000081526004016112e490612b47565b60405180910390fd5b60008061130134662386f26fc10000610659565b9150915060008114611348576040517f08c379a000000000000000000000000000000000000000000000000000000000815260040161133f90612bd9565b60405180910390fd5b6008339080600181540180825580915050600190039060005260206000200160009091909190916101000a81548173ffffffffffffffffffffffffffffffffffffffff021916908373ffffffffffffffffffffffffffffffffffffffff160217905550600060016008805490506113bf919061280e565b90506000600980549050905060005b84811015611412576009839080600181540180825580915050600190039060005260206000200160009091909190915055808061140a90612bf9565b9150506113ce565b5060006009805490509050600a60405180606001604052808581526020018481526020018381525090806001815401808255809150506001900390600052602060002090600302016000909190919091509060036114719291906121bc565b506000600a8054905090506001600760003373ffffffffffffffffffffffffffffffffffffffff1673ffffffffffffffffffffffffffffffffffffffff16815260200190815260200160002060000160008282546114cf9190612c42565b9250508190555034600760003373ffffffffffffffffffffffffffffffffffffffff1673ffffffffffffffffffffffffffffffffffffffff16815260200190815260200160002060010160008282546115289190612c42565b9250508190555085600760003373ffffffffffffffffffffffffffffffffffffffff1673ffffffffffffffffffffffffffffffffffffffff16815260200190815260200160002060020160008282546115819190612c42565b92505081905550600760003373ffffffffffffffffffffffffffffffffffffffff1673ffffffffffffffffffffffffffffffffffffffff168152602001908152602001600020600401849080600181540180825580915050600190039060005260206000200160009091909190915055600760003373ffffffffffffffffffffffffffffffffffffffff1673ffffffffffffffffffffffffffffffffffffffff16815260200190815260200160002060030181908060018154018082558091505060019003906000526020600020016000909190919091505567016345785d8a000047101580156116785750600560088054905010155b15611699576001600660156101000a81548160ff0219169083151502179055505b7f8de5754e4ed9d4994bdb4b2b8c12dfcd51b0e994c1d34a7f20fe7f3d3fbb7bc2338534896040516116ce9493929190612c98565b60405180910390a16001600760003373ffffffffffffffffffffffffffffffffffffffff1673ffffffffffffffffffffffffffffffffffffffff168152602001908152602001600020600001541115611868577f50d8ee368d41fb05a48faba0bb81eff5b09d7f7bbe0d333b6ddac6d4b7a5a53633600760003373ffffffffffffffffffffffffffffffffffffffff1673ffffffffffffffffffffffffffffffffffffffff168152602001908152602001600020600401600760003373ffffffffffffffffffffffffffffffffffffffff1673ffffffffffffffffffffffffffffffffffffffff16815260200190815260200160002060000154600760003373ffffffffffffffffffffffffffffffffffffffff1673ffffffffffffffffffffffffffffffffffffffff16815260200190815260200160002060010154600760003373ffffffffffffffffffffffffffffffffffffffff1673ffffffffffffffffffffffffffffffffffffffff1681526020019081526020016000206002015460405161185f959493929190612db3565b60405180910390a15b505050505050565b600090565b6000600c60009054906101000a900473ffffffffffffffffffffffffffffffffffffffff16905090565b6000600b60009054906101000a900473ffffffffffffffffffffffffffffffffffffffff16905090565b6000600660159054906101000a900460ff16905090565b6118e86119d8565b73ffffffffffffffffffffffffffffffffffffffff166119066111fe565b73ffffffffffffffffffffffffffffffffffffffff161461195c576040517f08c379a000000000000000000000000000000000000000000000000000000000815260040161195390612631565b60405180910390fd5b600073ffffffffffffffffffffffffffffffffffffffff168173ffffffffffffffffffffffffffffffffffffffff1614156119cc576040517f08c379a00000000000000000000000000000000000000000000000000000000081526004016119c390612e7f565b60405180910390fd5b6119d5816120f8565b50565b600033905090565b6000806000806000479050600060088781548110611a0157611a00612971565b5b9060005260206000200160009054906101000a900473ffffffffffffffffffffffffffffffffffffffff1690506000600760008373ffffffffffffffffffffffffffffffffffffffff1673ffffffffffffffffffffffffffffffffffffffff1681526020019081526020016000206001015490508083611a81919061280e565b9650611a8e876002610659565b50809750508087611a9f9190612c42565b965060008784611aaf919061280e565b9050611abc816014610659565b5080915050809650809550806002611ad491906127b4565b84611adf919061280e565b9450505050509193509193565b600080600060088581548110611b0557611b04612971565b5b9060005260206000200160009054906101000a900473ffffffffffffffffffffffffffffffffffffffff16600b60006101000a81548173ffffffffffffffffffffffffffffffffffffffff021916908373ffffffffffffffffffffffffffffffffffffffff160217905550600260009054906101000a900473ffffffffffffffffffffffffffffffffffffffff1673ffffffffffffffffffffffffffffffffffffffff16637a1fa9e33086600b60009054906101000a900473ffffffffffffffffffffffffffffffffffffffff1660006040518563ffffffff1660e01b8152600401611bf49493929190612ef1565b602060405180830381600087803b158015611c0e57600080fd5b505af1158015611c22573d6000803e3d6000fd5b505050506040513d601f19601f82011682018060405250810190611c469190612f62565b9150600260009054906101000a900473ffffffffffffffffffffffffffffffffffffffff1673ffffffffffffffffffffffffffffffffffffffff1663a6dddd6430600b60009054906101000a900473ffffffffffffffffffffffffffffffffffffffff166040518363ffffffff1660e01b8152600401611cc7929190612f8f565b602060405180830381600087803b158015611ce157600080fd5b505af1158015611cf5573d6000803e3d6000fd5b505050506040513d601f19601f82011682018060405250810190611d199190612666565b905060019250505092915050565b600060088381548110611d3d57611d3c612971565b5b9060005260206000200160009054906101000a900473ffffffffffffffffffffffffffffffffffffffff1690508073ffffffffffffffffffffffffffffffffffffffff166108fc839081150290604051600060405180830381858888f19350505050158015611db0573d6000803e3d6000fd5b507f9b320e270eb528aa46b3a21b196f1da153ccb2d5637e892594474e969fe6b7a98183604051611de292919061300d565b60405180910390a1505050565b6000600460009054906101000a900473ffffffffffffffffffffffffffffffffffffffff1690508073ffffffffffffffffffffffffffffffffffffffff166108fc859081150290604051600060405180830381858888f19350505050158015611e5c573d6000803e3d6000fd5b507fd36f5f37e53a101e11e745c4b553773a94d17d9d7cec00640ac8331369a76d118185604051611e8e92919061300d565b60405180910390a1600560009054906101000a900473ffffffffffffffffffffffffffffffffffffffff1690508073ffffffffffffffffffffffffffffffffffffffff166108fc849081150290604051600060405180830381858888f19350505050158015611f01573d6000803e3d6000fd5b507fd36f5f37e53a101e11e745c4b553773a94d17d9d7cec00640ac8331369a76d118184604051611f3392919061300d565b60405180910390a1600360009054906101000a900473ffffffffffffffffffffffffffffffffffffffff1690508073ffffffffffffffffffffffffffffffffffffffff166108fc839081150290604051600060405180830381858888f19350505050158015611fa6573d6000803e3d6000fd5b507fd36f5f37e53a101e11e745c4b553773a94d17d9d7cec00640ac8331369a76d118183604051611fd892919061300d565b60405180910390a150505050565b60008060005b6001600880549050611ffe919061280e565b8110156120d3576008818154811061201957612018612971565b5b9060005260206000200160009054906101000a900473ffffffffffffffffffffffffffffffffffffffff169150600760008373ffffffffffffffffffffffffffffffffffffffff1673ffffffffffffffffffffffffffffffffffffffff168152602001908152602001600020600080820160009055600182016000905560028201600090556003820160006120ae91906121fc565b6004820160006120be91906121fc565b505080806120cb90612bf9565b915050611fec565b50600860006120e2919061221d565b600960006120f091906121fc565b600191505090565b60008060009054906101000a900473ffffffffffffffffffffffffffffffffffffffff169050816000806101000a81548173ffffffffffffffffffffffffffffffffffffffff021916908373ffffffffffffffffffffffffffffffffffffffff1602179055508173ffffffffffffffffffffffffffffffffffffffff168173ffffffffffffffffffffffffffffffffffffffff167f8be0079c531659141344cd1fd0a4f28419497f9722a3daafe3b4186f6b6457e060405160405180910390a35050565b82600381019282156121eb579160200282015b828111156121ea5782518255916020019190600101906121cf565b5b5090506121f8919061223e565b5090565b508054600082559060005260206000209081019061221a919061223e565b50565b508054600082559060005260206000209081019061223b919061223e565b50565b5b8082111561225757600081600090555060010161223f565b5090565b6000819050919050565b61226e8161225b565b82525050565b60006020820190506122896000830184612265565b92915050565b600080fd5b600073ffffffffffffffffffffffffffffffffffffffff82169050919050565b60006122bf82612294565b9050919050565b6122cf816122b4565b81146122da57600080fd5b50565b6000813590506122ec816122c6565b92915050565b6000602082840312156123085761230761228f565b5b6000612316848285016122dd565b91505092915050565b6123288161225b565b811461233357600080fd5b50565b6000813590506123458161231f565b92915050565b600080604083850312156123625761236161228f565b5b600061237085828601612336565b925050602061238185828601612336565b9150509250929050565b60006040820190506123a06000830185612265565b6123ad6020830184612265565b9392505050565b600081519050919050565b600082825260208201905092915050565b6000819050602082019050919050565b6123e98161225b565b82525050565b60006123fb83836123e0565b60208301905092915050565b6000602082019050919050565b600061241f826123b4565b61242981856123bf565b9350612434836123d0565b8060005b8381101561246557815161244c88826123ef565b975061245783612407565b925050600181019050612438565b5085935050505092915050565b6000602082019050818103600083015261248c8184612414565b905092915050565b60008115159050919050565b6124a981612494565b82525050565b60006020820190506124c460008301846124a0565b92915050565b600081519050919050565b600082825260208201905092915050565b6000819050602082019050919050565b6124ff816122b4565b82525050565b600061251183836124f6565b60208301905092915050565b6000602082019050919050565b6000612535826124ca565b61253f81856124d5565b935061254a836124e6565b8060005b8381101561257b5781516125628882612505565b975061256d8361251d565b92505060018101905061254e565b5085935050505092915050565b600060208201905081810360008301526125a2818461252a565b905092915050565b6125b3816122b4565b82525050565b60006020820190506125ce60008301846125aa565b92915050565b600082825260208201905092915050565b7f4f776e61626c653a2063616c6c6572206973206e6f7420746865206f776e6572600082015250565b600061261b6020836125d4565b9150612626826125e5565b602082019050919050565b6000602082019050818103600083015261264a8161260e565b9050919050565b6000815190506126608161231f565b92915050565b60006020828403121561267c5761267b61228f565b5b600061268a84828501612651565b91505092915050565b7f4469766973696f6e206973204e6f7420506f737369626c65202c20427567206960008201527f6e204e756d626572732021000000000000000000000000000000000000000000602082015250565b60006126ef602b836125d4565b91506126fa82612693565b604082019050919050565b6000602082019050818103600083015261271e816126e2565b9050919050565b7f4e487b7100000000000000000000000000000000000000000000000000000000600052601260045260246000fd5b7f4e487b7100000000000000000000000000000000000000000000000000000000600052601160045260246000fd5b600061278e8261225b565b91506127998361225b565b9250826127a9576127a8612725565b5b828204905092915050565b60006127bf8261225b565b91506127ca8361225b565b9250817fffffffffffffffffffffffffffffffffffffffffffffffffffffffffffffffff048311821515161561280357612802612754565b5b828202905092915050565b60006128198261225b565b91506128248361225b565b92508282101561283757612836612754565b5b828203905092915050565b7f5065726d697373696f6e2044656e696564202121000000000000000000000000600082015250565b60006128786014836125d4565b915061288382612842565b602082019050919050565b600060208201905081810360008301526128a78161286b565b9050919050565b7f54686520506f74206973206e6f7420726561647920666f722053656c6563742060008201527f7468652057696e6e657200000000000000000000000000000000000000000000602082015250565b600061290a602a836125d4565b9150612915826128ae565b604082019050919050565b60006020820190508181036000830152612939816128fd565b9050919050565b600061294b8261225b565b91506129568361225b565b92508261296657612965612725565b5b828206905092915050565b7f4e487b7100000000000000000000000000000000000000000000000000000000600052603260045260246000fd5b60006060820190506129b56000830186612265565b6129c26020830185612265565b6129cf6040830184612265565b949350505050565b7f54686520506f742069732073746172746564206265666f726520210000000000600082015250565b6000612a0d601b836125d4565b9150612a18826129d7565b602082019050919050565b60006020820190508181036000830152612a3c81612a00565b9050919050565b7f54686520506f7420686173206e6f74206265656e20526561647920746f20506c60008201527f617920796574204f72205468652047616d65206973204f766572210000000000602082015250565b6000612a9f603b836125d4565b9150612aaa82612a43565b604082019050919050565b60006020820190508181036000830152612ace81612a92565b9050919050565b7f56616c75652073686f756c64206265206265747765656e20302e30312026203160008201527f303020424e420000000000000000000000000000000000000000000000000000602082015250565b6000612b316026836125d4565b9150612b3c82612ad5565b604082019050919050565b60006020820190508181036000830152612b6081612b24565b9050919050565b7f56616c75652073686f756c6420626520616e20496e7465676572206d7574697060008201527f6c65206f6620302e303120424e42000000000000000000000000000000000000602082015250565b6000612bc3602e836125d4565b9150612bce82612b67565b604082019050919050565b60006020820190508181036000830152612bf281612bb6565b9050919050565b6000612c048261225b565b91507fffffffffffffffffffffffffffffffffffffffffffffffffffffffffffffffff821415612c3757612c36612754565b5b600182019050919050565b6000612c4d8261225b565b9150612c588361225b565b9250827fffffffffffffffffffffffffffffffffffffffffffffffffffffffffffffffff03821115612c8d57612c8c612754565b5b828201905092915050565b6000608082019050612cad60008301876125aa565b612cba6020830186612265565b612cc76040830185612265565b612cd46060830184612265565b95945050505050565b600081549050919050565b60008190508160005260206000209050919050565b60008160001c9050919050565b6000819050919050565b6000612d27612d2283612cfd565b612d0a565b9050919050565b6000612d3a8254612d14565b9050919050565b6000600182019050919050565b6000612d5982612cdd565b612d6381856123bf565b9350612d6e83612ce8565b8060005b83811015612da657612d8382612d2e565b612d8d88826123ef565b9750612d9883612d41565b925050600181019050612d72565b5085935050505092915050565b600060a082019050612dc860008301886125aa565b8181036020830152612dda8187612d4e565b9050612de96040830186612265565b612df66060830185612265565b612e036080830184612265565b9695505050505050565b7f4f776e61626c653a206e6577206f776e657220697320746865207a65726f206160008201527f6464726573730000000000000000000000000000000000000000000000000000602082015250565b6000612e696026836125d4565b9150612e7482612e0d565b604082019050919050565b60006020820190508181036000830152612e9881612e5c565b9050919050565b6000819050919050565b600060ff82169050919050565b6000819050919050565b6000612edb612ed6612ed184612e9f565b612eb6565b612ea9565b9050919050565b612eeb81612ec0565b82525050565b6000608082019050612f0660008301876125aa565b612f136020830186612265565b612f2060408301856125aa565b612f2d6060830184612ee2565b95945050505050565b612f3f81612494565b8114612f4a57600080fd5b50565b600081519050612f5c81612f36565b92915050565b600060208284031215612f7857612f7761228f565b5b6000612f8684828501612f4d565b91505092915050565b6000604082019050612fa460008301856125aa565b612fb160208301846125aa565b9392505050565b6000612fd3612fce612fc984612294565b612eb6565b612294565b9050919050565b6000612fe582612fb8565b9050919050565b6000612ff782612fda565b9050919050565b61300781612fec565b82525050565b60006040820190506130226000830185612ffe565b61302f6020830184612265565b939250505056fea2646970667358221220cbf74569cf7cc44ff4e6d121468ac6842cd40666c8d06a73cad57dd1b013f32964736f6c63430008090033a2646970667358221220dc2a9d6e446188ae22ebb49369d0ee571b2f16ad732caaf7447addaf88e9813264736f6c63430008090033",
  "immutableReferences": {},
  "source": "// SPDX-License-Identifier: MIT\npragma solidity ^0.8.0;\n\nimport \"@openzeppelin/contracts/access/Ownable.sol\";\nimport \"./LotteryCore.sol\";\n\n\n/**\n  * @title Lottery Generator Smart Contract.\n  * @author Batis \n  * @notice This SmartContract is responsible for Lottery Generation.\n  * @dev Lottery Generator SmartContract - Parent of Core Lottery\n*/\ncontract LotteryGenerator is Ownable {\n\n    // uint constant TICKET_PRICE = 10 * 1e15; // finney (0.01 Ether)\n\n    enum LType {\n        Hourly,\n        Daily,\n        Weekly,\n        Monthly\n    }\n\n    address[] public lotteries;\n    struct lottery{\n        uint index;\n        address creator;\n        uint totalBalance;\n        address winnerAddress; \n        LType lotteryType;\n    }\n    mapping(address => lottery) lotteryStructs;\n\n    address[] public LotteryWinnersArray;\n    struct LotteryWinnerStr{\n        uint playersId;\n        uint winnerCount;\n    }\n    mapping (address => LotteryWinnerStr) public LotteryWinnersMap;\n\n    address[] public WeeklyWinnersArray;\n    struct WeeklyWinnerStr{\n        uint playersId;\n        uint winnerCount;\n    }\n    mapping (address => WeeklyWinnerStr) public WeeklyWinnersMap;\n\n    // event\n    event LotteryCreated(address newLottery);\n\n  /* ToDo : Add & Complete Fallback routine */\n    fallback() external payable {\n    }\n    receive() external payable {\n    }\n\n    function balanceInPot() public view returns(uint){\n        return address(this).balance;\n    }\n\n    function withdraw() external onlyOwner {\n        payable(msg.sender).transfer(address(this).balance);\n    }\n\n    function getWinners() public view returns(address[] memory) {\n        return LotteryWinnersArray;\n    }\n\n    function setlotteryStructs(address _lotteryAddress, uint _totalBalance, address _winnerAddress, uint8 _lotteryType) external returns (bool) {\n        lotteryStructs[_lotteryAddress].totalBalance = _totalBalance;\n        lotteryStructs[_lotteryAddress].winnerAddress = _winnerAddress;\n        lotteryStructs[_lotteryAddress].lotteryType = LType(_lotteryType);\n        return true;\n    }\n\n    function setlotteryWinnersArrayMap(address _lotteryAddress, address _winnerAddress) external returns (uint) {\n        LotteryWinnersArray.push(_winnerAddress);\n        LotteryWinnersMap[_winnerAddress].playersId = LotteryWinnersArray.length;  // -1\n        LotteryWinnersMap[_winnerAddress].winnerCount++;\n        return LotteryWinnersArray.length ;  // -1\n    }\n\n    function setWeeklyWinnersArrayMap(address _lotteryAddress, address _winnerAddress) external returns (uint) {\n        WeeklyWinnersArray.push(_winnerAddress);\n        WeeklyWinnersMap[_winnerAddress].playersId = WeeklyWinnersArray.length;  // -1\n        WeeklyWinnersMap[_winnerAddress].winnerCount++;\n        return WeeklyWinnersArray.length ;  // -1\n    }\n\n    function clearlotteryWinnersArrayMap(address _lotteryAddress) external returns (bool) {\n        address _lotteryWinAddress;\n        for (uint256 index = 0; index < LotteryWinnersArray.length - 1; index++) {\n            _lotteryWinAddress = LotteryWinnersArray[index];\n            // if (LotteryWinnersMap[_lotteryWinAddress].playersId > 0) {\n            //     LotteryWinnersMap[_lotteryWinAddress].playersId = 0;\n            //     LotteryWinnersMap[_lotteryWinAddress].winnerCount = 0;\n            // }\n            delete LotteryWinnersMap[_lotteryWinAddress];\n        }\n        delete LotteryWinnersArray;\n        return true;\n    }\n\n    function clearWeeklyWinnersArrayMap(address _lotteryAddress) external returns (bool) {\n        address _lotteryWinAddress;\n        for (uint256 index = 0; index < WeeklyWinnersArray.length - 1; index++) {\n            _lotteryWinAddress = WeeklyWinnersArray[index];\n            // if (WeeklyWinnersMap[_lotteryWinAddress].playersId > 0) {\n            //     WeeklyWinnersMap[_lotteryWinAddress].playersId = 0;\n            //     WeeklyWinnersMap[_lotteryWinAddress].winnerCount = 0;\n            // }\n            delete WeeklyWinnersMap[_lotteryWinAddress];\n        }\n        delete WeeklyWinnersArray;\n        return true;\n    }\n\n    function createLottery(address _VRF) public onlyOwner {\n\n        // require(bytes(name).length > 0);\n        address newLottery = address(new LotteryCore(_VRF));\n        lotteries.push(newLottery);\n        lotteryStructs[newLottery].index = lotteries.length - 1;\n        lotteryStructs[newLottery].creator = msg.sender;\n        lotteryStructs[newLottery].totalBalance = 0;\n        lotteryStructs[newLottery].winnerAddress = address(0);\n\n        emit LotteryCreated( newLottery );\n    }\n\n    // function getLotteries() public view returns(address[]) {\n    //     return lotteries;\n    // }\n\n    function deleteLottery(address lotteryAddress) public  onlyOwner {\n        require(msg.sender == lotteryStructs[lotteryAddress].creator);\n        uint indexToDelete = lotteryStructs[lotteryAddress].index;\n        address lastAddress = lotteries[lotteries.length - 1];\n        lotteries[indexToDelete] = lastAddress;\n        // lotteries.length --;\n    }\n\n    // Events\n    // event LotteryCreated(\n    //     address lotteryAddress\n    // );\n}\n\n\n\n",
  "sourcePath": "/home/batis/SrcCode/myPRJ/SmartContBlockChain/BSCLottery/contracts/LotteryGenerator.sol",
  "compiler": {
    "name": "solc",
    "version": "0.8.9+commit.e5eed63a.Emscripten.clang"
  },
  "schemaVersion": "3.4.3",
  "updatedAt": "2022-05-06T15:42:25.865Z",
  "devdoc": {
    "author": "Batis ",
    "details": "Lottery Generator SmartContract - Parent of Core Lottery",
    "kind": "dev",
    "methods": {
      "owner()": {
        "details": "Returns the address of the current owner."
      },
      "renounceOwnership()": {
        "details": "Leaves the contract without owner. It will not be possible to call `onlyOwner` functions anymore. Can only be called by the current owner. NOTE: Renouncing ownership will leave the contract without an owner, thereby removing any functionality that is only available to the owner."
      },
      "transferOwnership(address)": {
        "details": "Transfers ownership of the contract to a new account (`newOwner`). Can only be called by the current owner."
      }
    },
    "title": "Lottery Generator Smart Contract.",
    "version": 1
  },
  "userdoc": {
    "kind": "user",
    "methods": {},
    "notice": "This SmartContract is responsible for Lottery Generation.",
    "version": 1
  }
}