{
  "contractName": "LotteryGenerator",
  "abi": [
    {
      "inputs": [],
      "stateMutability": "nonpayable",
      "type": "constructor"
    },
    {
      "anonymous": false,
      "inputs": [
        {
          "indexed": false,
          "internalType": "address",
          "name": "newLottery",
          "type": "address"
        }
      ],
      "name": "LotteryCreated",
      "type": "event"
    },
    {
      "anonymous": false,
      "inputs": [
        {
          "indexed": true,
          "internalType": "address",
          "name": "previousOwner",
          "type": "address"
        },
        {
          "indexed": true,
          "internalType": "address",
          "name": "newOwner",
          "type": "address"
        }
      ],
      "name": "OwnershipTransferred",
      "type": "event"
    },
    {
      "stateMutability": "payable",
      "type": "fallback",
      "payable": true
    },
    {
      "inputs": [
        {
          "internalType": "uint256",
          "name": "",
          "type": "uint256"
        }
      ],
      "name": "LotteryWinnersArray",
      "outputs": [
        {
          "internalType": "address",
          "name": "",
          "type": "address"
        }
      ],
      "stateMutability": "view",
      "type": "function",
      "constant": true
    },
    {
      "inputs": [
        {
          "internalType": "address",
          "name": "",
          "type": "address"
        }
      ],
      "name": "LotteryWinnersMap",
      "outputs": [
        {
          "internalType": "uint256",
          "name": "playersId",
          "type": "uint256"
        },
        {
          "internalType": "uint256",
          "name": "winnerCount",
          "type": "uint256"
        }
      ],
      "stateMutability": "view",
      "type": "function",
      "constant": true
    },
    {
      "inputs": [
        {
          "internalType": "uint256",
          "name": "",
          "type": "uint256"
        }
      ],
      "name": "MonthlyWinnersArray",
      "outputs": [
        {
          "internalType": "address",
          "name": "",
          "type": "address"
        }
      ],
      "stateMutability": "view",
      "type": "function",
      "constant": true
    },
    {
      "inputs": [
        {
          "internalType": "address",
          "name": "",
          "type": "address"
        }
      ],
      "name": "MonthlyWinnersMap",
      "outputs": [
        {
          "internalType": "uint256",
          "name": "playersId",
          "type": "uint256"
        },
        {
          "internalType": "uint256",
          "name": "winnerCount",
          "type": "uint256"
        }
      ],
      "stateMutability": "view",
      "type": "function",
      "constant": true
    },
    {
      "inputs": [
        {
          "internalType": "uint256",
          "name": "",
          "type": "uint256"
        }
      ],
      "name": "WeeklyWinnersArray",
      "outputs": [
        {
          "internalType": "address",
          "name": "",
          "type": "address"
        }
      ],
      "stateMutability": "view",
      "type": "function",
      "constant": true
    },
    {
      "inputs": [
        {
          "internalType": "address",
          "name": "",
          "type": "address"
        }
      ],
      "name": "WeeklyWinnersMap",
      "outputs": [
        {
          "internalType": "uint256",
          "name": "playersId",
          "type": "uint256"
        },
        {
          "internalType": "uint256",
          "name": "winnerCount",
          "type": "uint256"
        }
      ],
      "stateMutability": "view",
      "type": "function",
      "constant": true
    },
    {
      "inputs": [
        {
          "internalType": "uint256",
          "name": "",
          "type": "uint256"
        }
      ],
      "name": "lotteries",
      "outputs": [
        {
          "internalType": "address",
          "name": "",
          "type": "address"
        }
      ],
      "stateMutability": "view",
      "type": "function",
      "constant": true
    },
    {
      "inputs": [],
      "name": "owner",
      "outputs": [
        {
          "internalType": "address",
          "name": "",
          "type": "address"
        }
      ],
      "stateMutability": "view",
      "type": "function",
      "constant": true
    },
    {
      "inputs": [],
      "name": "renounceOwnership",
      "outputs": [],
      "stateMutability": "nonpayable",
      "type": "function"
    },
    {
      "inputs": [
        {
          "internalType": "address",
          "name": "newOwner",
          "type": "address"
        }
      ],
      "name": "transferOwnership",
      "outputs": [],
      "stateMutability": "nonpayable",
      "type": "function"
    },
    {
      "stateMutability": "payable",
      "type": "receive",
      "payable": true
    },
    {
      "inputs": [],
      "name": "balanceInPot",
      "outputs": [
        {
          "internalType": "uint256",
          "name": "",
          "type": "uint256"
        }
      ],
      "stateMutability": "view",
      "type": "function",
      "constant": true
    },
    {
      "inputs": [],
      "name": "withdraw",
      "outputs": [],
      "stateMutability": "nonpayable",
      "type": "function"
    },
    {
      "inputs": [],
      "name": "getWinners",
      "outputs": [
        {
          "internalType": "address[]",
          "name": "",
          "type": "address[]"
        }
      ],
      "stateMutability": "view",
      "type": "function",
      "constant": true
    },
    {
      "inputs": [],
      "name": "getWeeklyWinners",
      "outputs": [
        {
          "internalType": "address[]",
          "name": "",
          "type": "address[]"
        }
      ],
      "stateMutability": "view",
      "type": "function",
      "constant": true
    },
    {
      "inputs": [],
      "name": "getMonthlyWinners",
      "outputs": [
        {
          "internalType": "address[]",
          "name": "",
          "type": "address[]"
        }
      ],
      "stateMutability": "view",
      "type": "function",
      "constant": true
    },
    {
      "inputs": [],
      "name": "getPotDirector",
      "outputs": [
        {
          "internalType": "address",
          "name": "",
          "type": "address"
        }
      ],
      "stateMutability": "view",
      "type": "function",
      "constant": true
    },
    {
      "inputs": [
        {
          "internalType": "address",
          "name": "_DirectorAddress",
          "type": "address"
        }
      ],
      "name": "setDirector",
      "outputs": [],
      "stateMutability": "nonpayable",
      "type": "function"
    },
    {
      "inputs": [
        {
          "internalType": "address",
          "name": "_lotteryAddress",
          "type": "address"
        },
        {
          "internalType": "uint256",
          "name": "_totalBalance",
          "type": "uint256"
        },
        {
          "internalType": "address",
          "name": "_winnerAddress",
          "type": "address"
        },
        {
          "internalType": "uint8",
          "name": "_lotteryType",
          "type": "uint8"
        }
      ],
      "name": "setlotteryStructs",
      "outputs": [
        {
          "internalType": "bool",
          "name": "",
          "type": "bool"
        }
      ],
      "stateMutability": "nonpayable",
      "type": "function"
    },
    {
      "inputs": [
        {
          "internalType": "address",
          "name": "_winnerAddress",
          "type": "address"
        }
      ],
      "name": "setlotteryWinnersArrayMap",
      "outputs": [
        {
          "internalType": "uint256",
          "name": "",
          "type": "uint256"
        }
      ],
      "stateMutability": "nonpayable",
      "type": "function"
    },
    {
      "inputs": [
        {
          "internalType": "address",
          "name": "_winnerAddress",
          "type": "address"
        }
      ],
      "name": "setWeeklyWinnersArrayMap",
      "outputs": [
        {
          "internalType": "uint256",
          "name": "",
          "type": "uint256"
        }
      ],
      "stateMutability": "nonpayable",
      "type": "function"
    },
    {
      "inputs": [
        {
          "internalType": "address",
          "name": "_winnerAddress",
          "type": "address"
        }
      ],
      "name": "setMonthlyWinnersArrayMap",
      "outputs": [
        {
          "internalType": "uint256",
          "name": "",
          "type": "uint256"
        }
      ],
      "stateMutability": "nonpayable",
      "type": "function"
    },
    {
      "inputs": [],
      "name": "clearlotteryWinnersArrayMap",
      "outputs": [
        {
          "internalType": "bool",
          "name": "",
          "type": "bool"
        }
      ],
      "stateMutability": "nonpayable",
      "type": "function"
    },
    {
      "inputs": [],
      "name": "clearWeeklyWinnersArrayMap",
      "outputs": [
        {
          "internalType": "bool",
          "name": "",
          "type": "bool"
        }
      ],
      "stateMutability": "nonpayable",
      "type": "function"
    },
    {
      "inputs": [],
      "name": "clearMonthlyWinnersArrayMap",
      "outputs": [
        {
          "internalType": "bool",
          "name": "",
          "type": "bool"
        }
      ],
      "stateMutability": "nonpayable",
      "type": "function"
    },
    {
      "inputs": [
        {
          "internalType": "address",
          "name": "_VRF",
          "type": "address"
        },
        {
          "internalType": "address",
          "name": "weeklyAddr",
          "type": "address"
        },
        {
          "internalType": "address",
          "name": "monthlyAddr",
          "type": "address"
        },
        {
          "internalType": "address",
          "name": "liquidityAddr",
          "type": "address"
        }
      ],
      "name": "createLottery",
      "outputs": [],
      "stateMutability": "nonpayable",
      "type": "function"
    },
    {
      "inputs": [
        {
          "internalType": "address",
          "name": "lotteryAddress",
          "type": "address"
        }
      ],
      "name": "deleteLottery",
      "outputs": [],
      "stateMutability": "nonpayable",
      "type": "function"
    }
  ],
  "bytecode": "0x608060405234801561001057600080fd5b5061002d61002261007360201b60201c565b61007b60201b60201c565b33600360006101000a81548173ffffffffffffffffffffffffffffffffffffffff021916908373ffffffffffffffffffffffffffffffffffffffff16021790555061013f565b600033905090565b60008060009054906101000a900473ffffffffffffffffffffffffffffffffffffffff169050816000806101000a81548173ffffffffffffffffffffffffffffffffffffffff021916908373ffffffffffffffffffffffffffffffffffffffff1602179055508173ffffffffffffffffffffffffffffffffffffffff168173ffffffffffffffffffffffffffffffffffffffff167f8be0079c531659141344cd1fd0a4f28419497f9722a3daafe3b4186f6b6457e060405160405180910390a35050565b615b5e806200014f6000396000f3fe608060405260043610620001ab5760003560e01c8063715018a611620000e5578063a7e46eac1162000097578063c5ae6f3e116200006d578063c5ae6f3e146200066e578063df15c37e146200069e578063f2fde38b14620006ce578063f671123914620006fc57620001b3565b8063a7e46eac14620005b7578063b14a60b114620005e5578063bb085b09146200062a57620001b3565b8063715018a614620004715780637a1fa9e3146200048b5780638da5cb5b14620004cf578063a1b8aad114620004ff578063a2d96705146200052f578063a35e151c146200057357620001b3565b806326ba4319116200015d5780634488d67911620001335780634488d679146200039c5780634cd9c25b14620003cc5780635f697d6014620003fc578063653ea439146200042c57620001b3565b806326ba43191462000310578063277550e9146200033e5780633ccfd60b146200038257620001b3565b806312592fc814620001b55780631398e07614620001f957806314e59987146200023d578063195b6e9d146200026d5780631c1f5389146200029d5780631cb9f1e714620002e257620001b3565b36620001b357005b005b348015620001c257600080fd5b50620001e16004803603810190620001db919062001c2f565b62000740565b604051620001f0919062001c7c565b60405180910390f35b3480156200020657600080fd5b506200022560048036038101906200021f919062001cca565b62000858565b60405162000234919062001d0d565b60405180910390f35b3480156200024a57600080fd5b506200025562000898565b60405162000264919062001c7c565b60405180910390f35b3480156200027a57600080fd5b5062000285620008a0565b60405162000294919062001df8565b60405180910390f35b348015620002aa57600080fd5b50620002c96004803603810190620002c3919062001c2f565b62000930565b604051620002d992919062001e1c565b60405180910390f35b348015620002ef57600080fd5b506200030e600480360381019062000308919062001e49565b62000954565b005b3480156200031d57600080fd5b506200033c600480360381019062000336919062001c2f565b62000c69565b005b3480156200034b57600080fd5b506200036a600480360381019062000364919062001cca565b62000d6b565b60405162000379919062001d0d565b60405180910390f35b3480156200038f57600080fd5b506200039a62000dab565b005b348015620003a957600080fd5b50620003b462000e78565b604051620003c3919062001df8565b60405180910390f35b348015620003d957600080fd5b50620003e462000f08565b604051620003f3919062001ed8565b60405180910390f35b3480156200040957600080fd5b506200041462000fef565b60405162000423919062001ed8565b60405180910390f35b3480156200043957600080fd5b5062000458600480360381019062000452919062001c2f565b620010d6565b6040516200046892919062001e1c565b60405180910390f35b3480156200047e57600080fd5b5062000489620010fa565b005b3480156200049857600080fd5b50620004b76004803603810190620004b1919062001f33565b6200118b565b604051620004c6919062001ed8565b60405180910390f35b348015620004dc57600080fd5b50620004e7620012e6565b604051620004f6919062001d0d565b60405180910390f35b3480156200050c57600080fd5b50620005176200130f565b60405162000526919062001ed8565b60405180910390f35b3480156200053c57600080fd5b506200055b600480360381019062000555919062001c2f565b620013f6565b6040516200056a919062001c7c565b60405180910390f35b3480156200058057600080fd5b506200059f600480360381019062000599919062001cca565b6200150e565b604051620005ae919062001d0d565b60405180910390f35b348015620005c457600080fd5b50620005e36004803603810190620005dd919062001c2f565b6200154e565b005b348015620005f257600080fd5b506200061160048036038101906200060b919062001c2f565b6200176f565b6040516200062192919062001e1c565b60405180910390f35b3480156200063757600080fd5b5062000656600480360381019062000650919062001c2f565b62001793565b60405162000665919062001c7c565b60405180910390f35b3480156200067b57600080fd5b5062000686620018ab565b60405162000695919062001d0d565b60405180910390f35b348015620006ab57600080fd5b50620006b6620018d5565b604051620006c5919062001df8565b60405180910390f35b348015620006db57600080fd5b50620006fa6004803603810190620006f4919062001c2f565b62001965565b005b3480156200070957600080fd5b5062000728600480360381019062000722919062001cca565b62001a69565b60405162000737919062001d0d565b60405180910390f35b60006005829080600181540180825580915050600190039060005260206000200160009091909190916101000a81548173ffffffffffffffffffffffffffffffffffffffff021916908373ffffffffffffffffffffffffffffffffffffffff160217905550600580549050600660008473ffffffffffffffffffffffffffffffffffffffff1673ffffffffffffffffffffffffffffffffffffffff16815260200190815260200160002060000181905550600660008373ffffffffffffffffffffffffffffffffffffffff1673ffffffffffffffffffffffffffffffffffffffff1681526020019081526020016000206001016000815480929190620008469062001fd4565b91905055506005805490509050919050565b600181815481106200086957600080fd5b906000526020600020016000915054906101000a900473ffffffffffffffffffffffffffffffffffffffff1681565b600047905090565b606060098054806020026020016040519081016040528092919081815260200182805480156200092657602002820191906000526020600020905b8160009054906101000a900473ffffffffffffffffffffffffffffffffffffffff1673ffffffffffffffffffffffffffffffffffffffff1681526020019060010190808311620008db575b5050505050905090565b60066020528060005260406000206000915090508060000154908060010154905082565b6200095e62001aa9565b73ffffffffffffffffffffffffffffffffffffffff166200097e620012e6565b73ffffffffffffffffffffffffffffffffffffffff1614620009d7576040517f08c379a0000000000000000000000000000000000000000000000000000000008152600401620009ce9062002083565b60405180910390fd5b600030905060008582868686604051620009f19062001b75565b62000a01959493929190620020a5565b604051809103906000f08015801562000a1e573d6000803e3d6000fd5b5090506001819080600181540180825580915050600190039060005260206000200160009091909190916101000a81548173ffffffffffffffffffffffffffffffffffffffff021916908373ffffffffffffffffffffffffffffffffffffffff1602179055506001808054905062000a97919062002102565b600260008373ffffffffffffffffffffffffffffffffffffffff1673ffffffffffffffffffffffffffffffffffffffff1681526020019081526020016000206000018190555033600260008373ffffffffffffffffffffffffffffffffffffffff1673ffffffffffffffffffffffffffffffffffffffff16815260200190815260200160002060010160006101000a81548173ffffffffffffffffffffffffffffffffffffffff021916908373ffffffffffffffffffffffffffffffffffffffff1602179055506000600260008373ffffffffffffffffffffffffffffffffffffffff1673ffffffffffffffffffffffffffffffffffffffff168152602001908152602001600020600201819055506000600260008373ffffffffffffffffffffffffffffffffffffffff1673ffffffffffffffffffffffffffffffffffffffff16815260200190815260200160002060030160006101000a81548173ffffffffffffffffffffffffffffffffffffffff021916908373ffffffffffffffffffffffffffffffffffffffff1602179055507fe610764cbcba803247df3450b7492f6a0084b7b5b734a7901c13fef8f84ffaf48160405162000c59919062001d0d565b60405180910390a1505050505050565b62000c7362001aa9565b73ffffffffffffffffffffffffffffffffffffffff1662000c93620012e6565b73ffffffffffffffffffffffffffffffffffffffff161462000cec576040517f08c379a000000000000000000000000000000000000000000000000000000000815260040162000ce39062002083565b60405180910390fd5b600073ffffffffffffffffffffffffffffffffffffffff168173ffffffffffffffffffffffffffffffffffffffff16141562000d2757600080fd5b80600460006101000a81548173ffffffffffffffffffffffffffffffffffffffff021916908373ffffffffffffffffffffffffffffffffffffffff16021790555050565b6009818154811062000d7c57600080fd5b906000526020600020016000915054906101000a900473ffffffffffffffffffffffffffffffffffffffff1681565b62000db562001aa9565b73ffffffffffffffffffffffffffffffffffffffff1662000dd5620012e6565b73ffffffffffffffffffffffffffffffffffffffff161462000e2e576040517f08c379a000000000000000000000000000000000000000000000000000000000815260040162000e259062002083565b60405180910390fd5b3373ffffffffffffffffffffffffffffffffffffffff166108fc479081150290604051600060405180830381858888f1935050505015801562000e75573d6000803e3d6000fd5b50565b6060600780548060200260200160405190810160405280929190818152602001828054801562000efe57602002820191906000526020600020905b8160009054906101000a900473ffffffffffffffffffffffffffffffffffffffff1673ffffffffffffffffffffffffffffffffffffffff168152602001906001019080831162000eb3575b5050505050905090565b60008060005b600160098054905062000f22919062002102565b81101562000fd6576009818154811062000f415762000f406200213d565b5b9060005260206000200160009054906101000a900473ffffffffffffffffffffffffffffffffffffffff169150600a60008373ffffffffffffffffffffffffffffffffffffffff1673ffffffffffffffffffffffffffffffffffffffff16815260200190815260200160002060008082016000905560018201600090555050808062000fcd9062001fd4565b91505062000f0e565b506009600062000fe7919062001b83565b600191505090565b60008060005b600160058054905062001009919062002102565b811015620010bd57600581815481106200102857620010276200213d565b5b9060005260206000200160009054906101000a900473ffffffffffffffffffffffffffffffffffffffff169150600660008373ffffffffffffffffffffffffffffffffffffffff1673ffffffffffffffffffffffffffffffffffffffff168152602001908152602001600020600080820160009055600182016000905550508080620010b49062001fd4565b91505062000ff5565b5060056000620010ce919062001b83565b600191505090565b60086020528060005260406000206000915090508060000154908060010154905082565b6200110462001aa9565b73ffffffffffffffffffffffffffffffffffffffff1662001124620012e6565b73ffffffffffffffffffffffffffffffffffffffff16146200117d576040517f08c379a0000000000000000000000000000000000000000000000000000000008152600401620011749062002083565b60405180910390fd5b62001189600062001ab1565b565b600083600260008773ffffffffffffffffffffffffffffffffffffffff1673ffffffffffffffffffffffffffffffffffffffff1681526020019081526020016000206002018190555082600260008773ffffffffffffffffffffffffffffffffffffffff1673ffffffffffffffffffffffffffffffffffffffff16815260200190815260200160002060030160006101000a81548173ffffffffffffffffffffffffffffffffffffffff021916908373ffffffffffffffffffffffffffffffffffffffff1602179055508160ff1660038111156200126e576200126d6200216c565b5b600260008773ffffffffffffffffffffffffffffffffffffffff1673ffffffffffffffffffffffffffffffffffffffff16815260200190815260200160002060030160146101000a81548160ff02191690836003811115620012d557620012d46200216c565b5b021790555060019050949350505050565b60008060009054906101000a900473ffffffffffffffffffffffffffffffffffffffff16905090565b60008060005b600160078054905062001329919062002102565b811015620013dd57600781815481106200134857620013476200213d565b5b9060005260206000200160009054906101000a900473ffffffffffffffffffffffffffffffffffffffff169150600860008373ffffffffffffffffffffffffffffffffffffffff1673ffffffffffffffffffffffffffffffffffffffff168152602001908152602001600020600080820160009055600182016000905550508080620013d49062001fd4565b91505062001315565b5060076000620013ee919062001b83565b600191505090565b60006007829080600181540180825580915050600190039060005260206000200160009091909190916101000a81548173ffffffffffffffffffffffffffffffffffffffff021916908373ffffffffffffffffffffffffffffffffffffffff160217905550600780549050600860008473ffffffffffffffffffffffffffffffffffffffff1673ffffffffffffffffffffffffffffffffffffffff16815260200190815260200160002060000181905550600860008373ffffffffffffffffffffffffffffffffffffffff1673ffffffffffffffffffffffffffffffffffffffff1681526020019081526020016000206001016000815480929190620014fc9062001fd4565b91905055506007805490509050919050565b600781815481106200151f57600080fd5b906000526020600020016000915054906101000a900473ffffffffffffffffffffffffffffffffffffffff1681565b6200155862001aa9565b73ffffffffffffffffffffffffffffffffffffffff1662001578620012e6565b73ffffffffffffffffffffffffffffffffffffffff1614620015d1576040517f08c379a0000000000000000000000000000000000000000000000000000000008152600401620015c89062002083565b60405180910390fd5b600260008273ffffffffffffffffffffffffffffffffffffffff1673ffffffffffffffffffffffffffffffffffffffff16815260200190815260200160002060010160009054906101000a900473ffffffffffffffffffffffffffffffffffffffff1673ffffffffffffffffffffffffffffffffffffffff163373ffffffffffffffffffffffffffffffffffffffff16146200166c57600080fd5b6000600260008373ffffffffffffffffffffffffffffffffffffffff1673ffffffffffffffffffffffffffffffffffffffff16815260200190815260200160002060000154905060006001808080549050620016c9919062002102565b81548110620016dd57620016dc6200213d565b5b9060005260206000200160009054906101000a900473ffffffffffffffffffffffffffffffffffffffff16905080600183815481106200172257620017216200213d565b5b9060005260206000200160006101000a81548173ffffffffffffffffffffffffffffffffffffffff021916908373ffffffffffffffffffffffffffffffffffffffff160217905550505050565b600a6020528060005260406000206000915090508060000154908060010154905082565b60006009829080600181540180825580915050600190039060005260206000200160009091909190916101000a81548173ffffffffffffffffffffffffffffffffffffffff021916908373ffffffffffffffffffffffffffffffffffffffff160217905550600980549050600a60008473ffffffffffffffffffffffffffffffffffffffff1673ffffffffffffffffffffffffffffffffffffffff16815260200190815260200160002060000181905550600a60008373ffffffffffffffffffffffffffffffffffffffff1673ffffffffffffffffffffffffffffffffffffffff1681526020019081526020016000206001016000815480929190620018999062001fd4565b91905055506009805490509050919050565b6000600460009054906101000a900473ffffffffffffffffffffffffffffffffffffffff16905090565b606060058054806020026020016040519081016040528092919081815260200182805480156200195b57602002820191906000526020600020905b8160009054906101000a900473ffffffffffffffffffffffffffffffffffffffff1673ffffffffffffffffffffffffffffffffffffffff168152602001906001019080831162001910575b5050505050905090565b6200196f62001aa9565b73ffffffffffffffffffffffffffffffffffffffff166200198f620012e6565b73ffffffffffffffffffffffffffffffffffffffff1614620019e8576040517f08c379a0000000000000000000000000000000000000000000000000000000008152600401620019df9062002083565b60405180910390fd5b600073ffffffffffffffffffffffffffffffffffffffff168173ffffffffffffffffffffffffffffffffffffffff16141562001a5b576040517f08c379a000000000000000000000000000000000000000000000000000000000815260040162001a529062002211565b60405180910390fd5b62001a668162001ab1565b50565b6005818154811062001a7a57600080fd5b906000526020600020016000915054906101000a900473ffffffffffffffffffffffffffffffffffffffff1681565b600033905090565b60008060009054906101000a900473ffffffffffffffffffffffffffffffffffffffff169050816000806101000a81548173ffffffffffffffffffffffffffffffffffffffff021916908373ffffffffffffffffffffffffffffffffffffffff1602179055508173ffffffffffffffffffffffffffffffffffffffff168173ffffffffffffffffffffffffffffffffffffffff167f8be0079c531659141344cd1fd0a4f28419497f9722a3daafe3b4186f6b6457e060405160405180910390a35050565b6138f5806200223483390190565b508054600082559060005260206000209081019062001ba3919062001ba6565b50565b5b8082111562001bc157600081600090555060010162001ba7565b5090565b600080fd5b600073ffffffffffffffffffffffffffffffffffffffff82169050919050565b600062001bf78262001bca565b9050919050565b62001c098162001bea565b811462001c1557600080fd5b50565b60008135905062001c298162001bfe565b92915050565b60006020828403121562001c485762001c4762001bc5565b5b600062001c588482850162001c18565b91505092915050565b6000819050919050565b62001c768162001c61565b82525050565b600060208201905062001c93600083018462001c6b565b92915050565b62001ca48162001c61565b811462001cb057600080fd5b50565b60008135905062001cc48162001c99565b92915050565b60006020828403121562001ce35762001ce262001bc5565b5b600062001cf38482850162001cb3565b91505092915050565b62001d078162001bea565b82525050565b600060208201905062001d24600083018462001cfc565b92915050565b600081519050919050565b600082825260208201905092915050565b6000819050602082019050919050565b62001d618162001bea565b82525050565b600062001d75838362001d56565b60208301905092915050565b6000602082019050919050565b600062001d9b8262001d2a565b62001da7818562001d35565b935062001db48362001d46565b8060005b8381101562001deb57815162001dcf888262001d67565b975062001ddc8362001d81565b92505060018101905062001db8565b5085935050505092915050565b6000602082019050818103600083015262001e14818462001d8e565b905092915050565b600060408201905062001e33600083018562001c6b565b62001e42602083018462001c6b565b9392505050565b6000806000806080858703121562001e665762001e6562001bc5565b5b600062001e768782880162001c18565b945050602062001e898782880162001c18565b935050604062001e9c8782880162001c18565b925050606062001eaf8782880162001c18565b91505092959194509250565b60008115159050919050565b62001ed28162001ebb565b82525050565b600060208201905062001eef600083018462001ec7565b92915050565b600060ff82169050919050565b62001f0d8162001ef5565b811462001f1957600080fd5b50565b60008135905062001f2d8162001f02565b92915050565b6000806000806080858703121562001f505762001f4f62001bc5565b5b600062001f608782880162001c18565b945050602062001f738782880162001cb3565b935050604062001f868782880162001c18565b925050606062001f998782880162001f1c565b91505092959194509250565b7f4e487b7100000000000000000000000000000000000000000000000000000000600052601160045260246000fd5b600062001fe18262001c61565b91507fffffffffffffffffffffffffffffffffffffffffffffffffffffffffffffffff82141562002017576200201662001fa5565b5b600182019050919050565b600082825260208201905092915050565b7f4f776e61626c653a2063616c6c6572206973206e6f7420746865206f776e6572600082015250565b60006200206b60208362002022565b9150620020788262002033565b602082019050919050565b600060208201905081810360008301526200209e816200205c565b9050919050565b600060a082019050620020bc600083018862001cfc565b620020cb602083018762001cfc565b620020da604083018662001cfc565b620020e9606083018562001cfc565b620020f8608083018462001cfc565b9695505050505050565b60006200210f8262001c61565b91506200211c8362001c61565b92508282101562002132576200213162001fa5565b5b828203905092915050565b7f4e487b7100000000000000000000000000000000000000000000000000000000600052603260045260246000fd5b7f4e487b7100000000000000000000000000000000000000000000000000000000600052602160045260246000fd5b7f4f776e61626c653a206e6577206f776e657220697320746865207a65726f206160008201527f6464726573730000000000000000000000000000000000000000000000000000602082015250565b6000620021f960268362002022565b915062002206826200219b565b604082019050919050565b600060208201905081810360008301526200222c81620021ea565b905091905056fe6080604052600060075560006008553480156200001b57600080fd5b50604051620038f5380380620038f5833981810160405281019062000041919062000365565b62000061620000556200022f60201b60201c565b6200023760201b60201c565b33600660006101000a81548173ffffffffffffffffffffffffffffffffffffffff021916908373ffffffffffffffffffffffffffffffffffffffff16021790555084600160006101000a81548173ffffffffffffffffffffffffffffffffffffffff021916908373ffffffffffffffffffffffffffffffffffffffff1602179055506001600660146101000a81548160ff0219169083151502179055506000600660156101000a81548160ff0219169083151502179055504260078190555083600260006101000a81548173ffffffffffffffffffffffffffffffffffffffff021916908373ffffffffffffffffffffffffffffffffffffffff16021790555080600360006101000a81548173ffffffffffffffffffffffffffffffffffffffff021916908373ffffffffffffffffffffffffffffffffffffffff16021790555082600460006101000a81548173ffffffffffffffffffffffffffffffffffffffff021916908373ffffffffffffffffffffffffffffffffffffffff16021790555081600560006101000a81548173ffffffffffffffffffffffffffffffffffffffff021916908373ffffffffffffffffffffffffffffffffffffffff1602179055505050505050620003ed565b600033905090565b60008060009054906101000a900473ffffffffffffffffffffffffffffffffffffffff169050816000806101000a81548173ffffffffffffffffffffffffffffffffffffffff021916908373ffffffffffffffffffffffffffffffffffffffff1602179055508173ffffffffffffffffffffffffffffffffffffffff168173ffffffffffffffffffffffffffffffffffffffff167f8be0079c531659141344cd1fd0a4f28419497f9722a3daafe3b4186f6b6457e060405160405180910390a35050565b600080fd5b600073ffffffffffffffffffffffffffffffffffffffff82169050919050565b60006200032d8262000300565b9050919050565b6200033f8162000320565b81146200034b57600080fd5b50565b6000815190506200035f8162000334565b92915050565b600080600080600060a08688031215620003845762000383620002fb565b5b600062000394888289016200034e565b9550506020620003a7888289016200034e565b9450506040620003ba888289016200034e565b9350506060620003cd888289016200034e565b9250506080620003e0888289016200034e565b9150509295509295909350565b6134f880620003fd6000396000f3fe6080604052600436106101d15760003560e01c80636cf69958116100f75780639e94d5ab11610095578063d7573c1111610064578063d7573c111461060a578063df15c37e14610635578063e8b05e3814610660578063f2fde38b1461068b576101d8565b80639e94d5ab1461054c578063a8078b7a14610589578063c5ae6f3e146105b4578063c7c15ac9146105df576101d8565b80638613e4cf116100d15780638613e4cf146104c357806387bb7ae0146104ec5780638da5cb5b1461051757806393e84cd914610542576101d8565b80636cf6995814610456578063715018a614610481578063766eef1114610498576101d8565b80633ccfd60b1161016f5780635efaf0441161013e5780635efaf044146103c2578063614f6f87146103eb57806364605d51146104145780636c2534371461043f576101d8565b80633ccfd60b1461032c5780633fa420c414610343578063442db8fb1461036c5780634442713c14610397576101d8565b806326ba4319116101ab57806326ba4319146102805780632ac75ab5146102a95780633298944a146102c05780633b33b61a146102fe576101d8565b806314e59987146101da57806314e5e90e14610205578063194d02d714610242576101d8565b366101d857005b005b3480156101e657600080fd5b506101ef6106b4565b6040516101fc9190612678565b60405180910390f35b34801561021157600080fd5b5061022c600480360381019061022791906126f6565b6106bc565b6040516102399190612678565b60405180910390f35b34801561024e57600080fd5b506102696004803603810190610264919061274f565b6107bf565b60405161027792919061278f565b60405180910390f35b34801561028c57600080fd5b506102a760048036038101906102a291906126f6565b610877565b005b3480156102b557600080fd5b506102be610971565b005b3480156102cc57600080fd5b506102e760048036038101906102e291906126f6565b610bcd565b6040516102f592919061278f565b60405180910390f35b34801561030a57600080fd5b50610313610c6b565b60405161032394939291906127c7565b60405180910390f35b34801561033857600080fd5b50610341610d0b565b005b34801561034f57600080fd5b5061036a600480360381019061036591906126f6565b610dd0565b005b34801561037857600080fd5b50610381610eca565b60405161038e91906128ca565b60405180910390f35b3480156103a357600080fd5b506103ac610f22565b6040516103b99190612907565b60405180910390f35b3480156103ce57600080fd5b506103e960048036038101906103e491906126f6565b610f39565b005b3480156103f757600080fd5b50610412600480360381019061040d91906126f6565b611033565b005b34801561042057600080fd5b5061042961112d565b60405161043691906129e0565b60405180910390f35b34801561044b57600080fd5b506104546111bb565b005b34801561046257600080fd5b5061046b611338565b6040516104789190612678565b60405180910390f35b34801561048d57600080fd5b50610496611345565b005b3480156104a457600080fd5b506104ad6113cd565b6040516104ba9190612678565b60405180910390f35b3480156104cf57600080fd5b506104ea60048036038101906104e591906126f6565b6113da565b005b3480156104f857600080fd5b5061050161149a565b60405161050e9190612678565b60405180910390f35b34801561052357600080fd5b5061052c6114a9565b6040516105399190612a02565b60405180910390f35b61054a6114d2565b005b34801561055857600080fd5b50610573600480360381019061056e91906126f6565b611bf6565b6040516105809190612678565b60405180910390f35b34801561059557600080fd5b5061059e611c47565b6040516105ab9190612678565b60405180910390f35b3480156105c057600080fd5b506105c9611c5c565b6040516105d69190612a02565b60405180910390f35b3480156105eb57600080fd5b506105f4611c86565b6040516106019190612678565b60405180910390f35b34801561061657600080fd5b5061061f611c8c565b60405161062c9190612678565b60405180910390f35b34801561064157600080fd5b5061064a611c92565b6040516106579190612a02565b60405180910390f35b34801561066c57600080fd5b50610675611cbc565b6040516106829190612907565b60405180910390f35b34801561069757600080fd5b506106b260048036038101906106ad91906126f6565b611cd3565b005b600047905090565b60006106c6611dcb565b73ffffffffffffffffffffffffffffffffffffffff166106e46114a9565b73ffffffffffffffffffffffffffffffffffffffff161461073a576040517f08c379a000000000000000000000000000000000000000000000000000000000815260040161073190612a7a565b60405180910390fd5b8173ffffffffffffffffffffffffffffffffffffffff166371f747906040518163ffffffff1660e01b815260040160206040518083038186803b15801561078057600080fd5b505afa158015610794573d6000803e3d6000fd5b505050506040513d601f19601f820116820180604052508101906107b89190612aaf565b9050919050565b6000806000831015610806576040517f08c379a00000000000000000000000000000000000000000000000000000000081526004016107fd90612b4e565b60405180910390fd5b60008411610849576040517f08c379a000000000000000000000000000000000000000000000000000000000815260040161084090612b4e565b60405180910390fd5b82846108559190612bcc565b915081836108639190612bfd565b8461086e9190612c57565b90509250929050565b61087f611dcb565b73ffffffffffffffffffffffffffffffffffffffff1661089d6114a9565b73ffffffffffffffffffffffffffffffffffffffff16146108f3576040517f08c379a00000000000000000000000000000000000000000000000000000000081526004016108ea90612a7a565b60405180910390fd5b600073ffffffffffffffffffffffffffffffffffffffff168173ffffffffffffffffffffffffffffffffffffffff16141561092d57600080fd5b80600e60006101000a81548173ffffffffffffffffffffffffffffffffffffffff021916908373ffffffffffffffffffffffffffffffffffffffff16021790555050565b600e60009054906101000a900473ffffffffffffffffffffffffffffffffffffffff1673ffffffffffffffffffffffffffffffffffffffff163373ffffffffffffffffffffffffffffffffffffffff161480610a1a5750600660009054906101000a900473ffffffffffffffffffffffffffffffffffffffff1673ffffffffffffffffffffffffffffffffffffffff163373ffffffffffffffffffffffffffffffffffffffff16145b610a59576040517f08c379a0000000000000000000000000000000000000000000000000000000008152600401610a5090612cd7565b60405180910390fd5b60011515600660159054906101000a900460ff16151514610aaf576040517f08c379a0000000000000000000000000000000000000000000000000000000008152600401610aa690612d69565b60405180910390fd5b6000610adc600160009054906101000a900473ffffffffffffffffffffffffffffffffffffffff166106bc565b90506000600b8054905082610af19190612d89565b9050600b8181548110610b0757610b06612dba565b5b90600052602060002001549050600080600080610b2385611dd3565b93509350935093507f274f2e5ea35472f60f411beb007713c0f1c1b574f260789eedee1789cd49d9f5854786604051610b5e93929190612de9565b60405180910390a1610b708547611eea565b50610b7b8585612123565b610b868383836121eb565b610b8e6123e2565b506000600660146101000a81548160ff0219169083151502179055506000600660156101000a81548160ff021916908315150217905550505050505050565b6000806000600960008573ffffffffffffffffffffffffffffffffffffffff1673ffffffffffffffffffffffffffffffffffffffff1681526020019081526020016000206000015490506000600960008673ffffffffffffffffffffffffffffffffffffffff1673ffffffffffffffffffffffffffffffffffffffff1681526020019081526020016000206001015490508181935093505050915091565b600080600080600260009054906101000a900473ffffffffffffffffffffffffffffffffffffffff169350600360009054906101000a900473ffffffffffffffffffffffffffffffffffffffff169250600460009054906101000a900473ffffffffffffffffffffffffffffffffffffffff169150600560009054906101000a900473ffffffffffffffffffffffffffffffffffffffff16905090919293565b610d13611dcb565b73ffffffffffffffffffffffffffffffffffffffff16610d316114a9565b73ffffffffffffffffffffffffffffffffffffffff1614610d87576040517f08c379a0000000000000000000000000000000000000000000000000000000008152600401610d7e90612a7a565b60405180910390fd5b3373ffffffffffffffffffffffffffffffffffffffff166108fc479081150290604051600060405180830381858888f19350505050158015610dcd573d6000803e3d6000fd5b50565b610dd8611dcb565b73ffffffffffffffffffffffffffffffffffffffff16610df66114a9565b73ffffffffffffffffffffffffffffffffffffffff1614610e4c576040517f08c379a0000000000000000000000000000000000000000000000000000000008152600401610e4390612a7a565b60405180910390fd5b600073ffffffffffffffffffffffffffffffffffffffff168173ffffffffffffffffffffffffffffffffffffffff161415610e8657600080fd5b80600460006101000a81548173ffffffffffffffffffffffffffffffffffffffff021916908373ffffffffffffffffffffffffffffffffffffffff16021790555050565b6060600b805480602002602001604051908101604052809291908181526020018280548015610f1857602002820191906000526020600020905b815481526020019060010190808311610f04575b5050505050905090565b6000600660149054906101000a900460ff16905090565b610f41611dcb565b73ffffffffffffffffffffffffffffffffffffffff16610f5f6114a9565b73ffffffffffffffffffffffffffffffffffffffff1614610fb5576040517f08c379a0000000000000000000000000000000000000000000000000000000008152600401610fac90612a7a565b60405180910390fd5b600073ffffffffffffffffffffffffffffffffffffffff168173ffffffffffffffffffffffffffffffffffffffff161415610fef57600080fd5b80600360006101000a81548173ffffffffffffffffffffffffffffffffffffffff021916908373ffffffffffffffffffffffffffffffffffffffff16021790555050565b61103b611dcb565b73ffffffffffffffffffffffffffffffffffffffff166110596114a9565b73ffffffffffffffffffffffffffffffffffffffff16146110af576040517f08c379a00000000000000000000000000000000000000000000000000000000081526004016110a690612a7a565b60405180910390fd5b600073ffffffffffffffffffffffffffffffffffffffff168173ffffffffffffffffffffffffffffffffffffffff1614156110e957600080fd5b80600560006101000a81548173ffffffffffffffffffffffffffffffffffffffff021916908373ffffffffffffffffffffffffffffffffffffffff16021790555050565b6060600a8054806020026020016040519081016040528092919081815260200182805480156111b157602002820191906000526020600020905b8160009054906101000a900473ffffffffffffffffffffffffffffffffffffffff1673ffffffffffffffffffffffffffffffffffffffff1681526020019060010190808311611167575b5050505050905090565b600e60009054906101000a900473ffffffffffffffffffffffffffffffffffffffff1673ffffffffffffffffffffffffffffffffffffffff163373ffffffffffffffffffffffffffffffffffffffff1614806112645750600660009054906101000a900473ffffffffffffffffffffffffffffffffffffffff1673ffffffffffffffffffffffffffffffffffffffff163373ffffffffffffffffffffffffffffffffffffffff16145b6112a3576040517f08c379a000000000000000000000000000000000000000000000000000000000815260040161129a90612cd7565b60405180910390fd5b60001515600660149054906101000a900460ff161515146112f9576040517f08c379a00000000000000000000000000000000000000000000000000000000081526004016112f090612e6c565b60405180910390fd5b6001600660146101000a81548160ff0219169083151502179055506000600660156101000a81548160ff02191690831515021790555042600781905550565b6000600b80549050905090565b61134d611dcb565b73ffffffffffffffffffffffffffffffffffffffff1661136b6114a9565b73ffffffffffffffffffffffffffffffffffffffff16146113c1576040517f08c379a00000000000000000000000000000000000000000000000000000000081526004016113b890612a7a565b60405180910390fd5b6113cb60006124fc565b565b6000600a80549050905090565b6113e2611dcb565b73ffffffffffffffffffffffffffffffffffffffff166114006114a9565b73ffffffffffffffffffffffffffffffffffffffff1614611456576040517f08c379a000000000000000000000000000000000000000000000000000000000815260040161144d90612a7a565b60405180910390fd5b80600260006101000a81548173ffffffffffffffffffffffffffffffffffffffff021916908373ffffffffffffffffffffffffffffffffffffffff16021790555050565b6000662386f26fc10000905090565b60008060009054906101000a900473ffffffffffffffffffffffffffffffffffffffff16905090565b600660149054906101000a900460ff16611521576040517f08c379a000000000000000000000000000000000000000000000000000000000815260040161151890612efe565b60405180910390fd5b662386f26fc100003410158015611540575068056bc75e2d6310000034105b61157f576040517f08c379a000000000000000000000000000000000000000000000000000000000815260040161157690612f90565b60405180910390fd5b6000600960003373ffffffffffffffffffffffffffffffffffffffff1673ffffffffffffffffffffffffffffffffffffffff168152602001908152602001600020600101549050678ac7230489e80000811115611611576040517f08c379a000000000000000000000000000000000000000000000000000000000815260040161160890612ffc565b60405180910390fd5b60008061162534662386f26fc100006107bf565b915091506000811461166c576040517f08c379a00000000000000000000000000000000000000000000000000000000081526004016116639061308e565b60405180910390fd5b600a339080600181540180825580915050600190039060005260206000200160009091909190916101000a81548173ffffffffffffffffffffffffffffffffffffffff021916908373ffffffffffffffffffffffffffffffffffffffff16021790555060006001600a805490506116e39190612c57565b90506000600b80549050905060005b8481101561173657600b839080600181540180825580915050600190039060005260206000200160009091909190915055808061172e906130ae565b9150506116f2565b506000600b805490509050600c60405180606001604052808581526020018481526020018381525090806001815401808255809150506001900390600052602060002090600302016000909190919091509060036117959291906125c0565b506000600c8054905090506001600960003373ffffffffffffffffffffffffffffffffffffffff1673ffffffffffffffffffffffffffffffffffffffff16815260200190815260200160002060000160008282546117f391906130f7565b9250508190555034600960003373ffffffffffffffffffffffffffffffffffffffff1673ffffffffffffffffffffffffffffffffffffffff168152602001908152602001600020600101600082825461184c91906130f7565b9250508190555085600960003373ffffffffffffffffffffffffffffffffffffffff1673ffffffffffffffffffffffffffffffffffffffff16815260200190815260200160002060020160008282546118a591906130f7565b92505081905550600960003373ffffffffffffffffffffffffffffffffffffffff1673ffffffffffffffffffffffffffffffffffffffff168152602001908152602001600020600401849080600181540180825580915050600190039060005260206000200160009091909190915055600960003373ffffffffffffffffffffffffffffffffffffffff1673ffffffffffffffffffffffffffffffffffffffff1681526020019081526020016000206003018190806001815401808255809150506001900390600052602060002001600090919091909150556001600960003373ffffffffffffffffffffffffffffffffffffffff1673ffffffffffffffffffffffffffffffffffffffff1681526020019081526020016000206000015414156119e257600860008154809291906119dc906130ae565b91905055505b67016345785d8a000047101580156119fd5750600560085410155b15611a1e576001600660156101000a81548160ff0219169083151502179055505b7f8de5754e4ed9d4994bdb4b2b8c12dfcd51b0e994c1d34a7f20fe7f3d3fbb7bc233853489604051611a53949392919061314d565b60405180910390a16001600960003373ffffffffffffffffffffffffffffffffffffffff1673ffffffffffffffffffffffffffffffffffffffff168152602001908152602001600020600001541115611bed577ff0b342fc13c65867c873cfbf6e19b5285bae679018bdf3376a4baca5ff066e0d33600960003373ffffffffffffffffffffffffffffffffffffffff1673ffffffffffffffffffffffffffffffffffffffff168152602001908152602001600020600401600960003373ffffffffffffffffffffffffffffffffffffffff1673ffffffffffffffffffffffffffffffffffffffff16815260200190815260200160002060000154600960003373ffffffffffffffffffffffffffffffffffffffff1673ffffffffffffffffffffffffffffffffffffffff16815260200190815260200160002060010154600960003373ffffffffffffffffffffffffffffffffffffffff1673ffffffffffffffffffffffffffffffffffffffff16815260200190815260200160002060020154604051611be4959493929190613268565b60405180910390a15b50505050505050565b600080600960008473ffffffffffffffffffffffffffffffffffffffff1673ffffffffffffffffffffffffffffffffffffffff16815260200190815260200160002060010154905080915050919050565b600060075442611c579190612c57565b905090565b6000600e60009054906101000a900473ffffffffffffffffffffffffffffffffffffffff16905090565b60085481565b60075481565b6000600d60009054906101000a900473ffffffffffffffffffffffffffffffffffffffff16905090565b6000600660159054906101000a900460ff16905090565b611cdb611dcb565b73ffffffffffffffffffffffffffffffffffffffff16611cf96114a9565b73ffffffffffffffffffffffffffffffffffffffff1614611d4f576040517f08c379a0000000000000000000000000000000000000000000000000000000008152600401611d4690612a7a565b60405180910390fd5b600073ffffffffffffffffffffffffffffffffffffffff168173ffffffffffffffffffffffffffffffffffffffff161415611dbf576040517f08c379a0000000000000000000000000000000000000000000000000000000008152600401611db690613334565b60405180910390fd5b611dc8816124fc565b50565b600033905090565b60008060008060004790506000600a8781548110611df457611df3612dba565b5b9060005260206000200160009054906101000a900473ffffffffffffffffffffffffffffffffffffffff1690506000600960008373ffffffffffffffffffffffffffffffffffffffff1673ffffffffffffffffffffffffffffffffffffffff1681526020019081526020016000206001015490508083611e749190612c57565b9650611e818760026107bf565b50809750508087611e9291906130f7565b965060008784611ea29190612c57565b9050611eaf8160146107bf565b508091505080965080955087816002611ec89190612bfd565b85611ed39190612c57565b611edd9190612c57565b9450505050509193509193565b6000806000600a8581548110611f0357611f02612dba565b5b9060005260206000200160009054906101000a900473ffffffffffffffffffffffffffffffffffffffff16600d60006101000a81548173ffffffffffffffffffffffffffffffffffffffff021916908373ffffffffffffffffffffffffffffffffffffffff160217905550600260009054906101000a900473ffffffffffffffffffffffffffffffffffffffff1673ffffffffffffffffffffffffffffffffffffffff16637a1fa9e33086600d60009054906101000a900473ffffffffffffffffffffffffffffffffffffffff1660006040518563ffffffff1660e01b8152600401611ff294939291906133a6565b602060405180830381600087803b15801561200c57600080fd5b505af1158015612020573d6000803e3d6000fd5b505050506040513d601f19601f820116820180604052508101906120449190613417565b9150600260009054906101000a900473ffffffffffffffffffffffffffffffffffffffff1673ffffffffffffffffffffffffffffffffffffffff166312592fc8600d60009054906101000a900473ffffffffffffffffffffffffffffffffffffffff166040518263ffffffff1660e01b81526004016120c39190612a02565b602060405180830381600087803b1580156120dd57600080fd5b505af11580156120f1573d6000803e3d6000fd5b505050506040513d601f19601f820116820180604052508101906121159190612aaf565b905060019250505092915050565b6000600a838154811061213957612138612dba565b5b9060005260206000200160009054906101000a900473ffffffffffffffffffffffffffffffffffffffff1690508073ffffffffffffffffffffffffffffffffffffffff166108fc839081150290604051600060405180830381858888f193505050501580156121ac573d6000803e3d6000fd5b507f9b320e270eb528aa46b3a21b196f1da153ccb2d5637e892594474e969fe6b7a981836040516121de929190613499565b60405180910390a1505050565b6000600460009054906101000a900473ffffffffffffffffffffffffffffffffffffffff1690508073ffffffffffffffffffffffffffffffffffffffff166108fc859081150290604051600060405180830381858888f19350505050158015612258573d6000803e3d6000fd5b507fd36f5f37e53a101e11e745c4b553773a94d17d9d7cec00640ac8331369a76d11818560405161228a929190613499565b60405180910390a1600560009054906101000a900473ffffffffffffffffffffffffffffffffffffffff1690508073ffffffffffffffffffffffffffffffffffffffff166108fc849081150290604051600060405180830381858888f193505050501580156122fd573d6000803e3d6000fd5b507fd36f5f37e53a101e11e745c4b553773a94d17d9d7cec00640ac8331369a76d11818460405161232f929190613499565b60405180910390a1600360009054906101000a900473ffffffffffffffffffffffffffffffffffffffff1690508073ffffffffffffffffffffffffffffffffffffffff166108fc839081150290604051600060405180830381858888f193505050501580156123a2573d6000803e3d6000fd5b507fd36f5f37e53a101e11e745c4b553773a94d17d9d7cec00640ac8331369a76d1181836040516123d4929190613499565b60405180910390a150505050565b60008060005b6001600a805490506123fa9190612c57565b8110156124cf57600a818154811061241557612414612dba565b5b9060005260206000200160009054906101000a900473ffffffffffffffffffffffffffffffffffffffff169150600960008373ffffffffffffffffffffffffffffffffffffffff1673ffffffffffffffffffffffffffffffffffffffff168152602001908152602001600020600080820160009055600182016000905560028201600090556003820160006124aa9190612600565b6004820160006124ba9190612600565b505080806124c7906130ae565b9150506123e8565b50600a60006124de9190612621565b600b60006124ec9190612600565b6000600881905550600191505090565b60008060009054906101000a900473ffffffffffffffffffffffffffffffffffffffff169050816000806101000a81548173ffffffffffffffffffffffffffffffffffffffff021916908373ffffffffffffffffffffffffffffffffffffffff1602179055508173ffffffffffffffffffffffffffffffffffffffff168173ffffffffffffffffffffffffffffffffffffffff167f8be0079c531659141344cd1fd0a4f28419497f9722a3daafe3b4186f6b6457e060405160405180910390a35050565b82600381019282156125ef579160200282015b828111156125ee5782518255916020019190600101906125d3565b5b5090506125fc9190612642565b5090565b508054600082559060005260206000209081019061261e9190612642565b50565b508054600082559060005260206000209081019061263f9190612642565b50565b5b8082111561265b576000816000905550600101612643565b5090565b6000819050919050565b6126728161265f565b82525050565b600060208201905061268d6000830184612669565b92915050565b600080fd5b600073ffffffffffffffffffffffffffffffffffffffff82169050919050565b60006126c382612698565b9050919050565b6126d3816126b8565b81146126de57600080fd5b50565b6000813590506126f0816126ca565b92915050565b60006020828403121561270c5761270b612693565b5b600061271a848285016126e1565b91505092915050565b61272c8161265f565b811461273757600080fd5b50565b60008135905061274981612723565b92915050565b6000806040838503121561276657612765612693565b5b60006127748582860161273a565b92505060206127858582860161273a565b9150509250929050565b60006040820190506127a46000830185612669565b6127b16020830184612669565b9392505050565b6127c1816126b8565b82525050565b60006080820190506127dc60008301876127b8565b6127e960208301866127b8565b6127f660408301856127b8565b61280360608301846127b8565b95945050505050565b600081519050919050565b600082825260208201905092915050565b6000819050602082019050919050565b6128418161265f565b82525050565b60006128538383612838565b60208301905092915050565b6000602082019050919050565b60006128778261280c565b6128818185612817565b935061288c83612828565b8060005b838110156128bd5781516128a48882612847565b97506128af8361285f565b925050600181019050612890565b5085935050505092915050565b600060208201905081810360008301526128e4818461286c565b905092915050565b60008115159050919050565b612901816128ec565b82525050565b600060208201905061291c60008301846128f8565b92915050565b600081519050919050565b600082825260208201905092915050565b6000819050602082019050919050565b612957816126b8565b82525050565b6000612969838361294e565b60208301905092915050565b6000602082019050919050565b600061298d82612922565b612997818561292d565b93506129a28361293e565b8060005b838110156129d35781516129ba888261295d565b97506129c583612975565b9250506001810190506129a6565b5085935050505092915050565b600060208201905081810360008301526129fa8184612982565b905092915050565b6000602082019050612a1760008301846127b8565b92915050565b600082825260208201905092915050565b7f4f776e61626c653a2063616c6c6572206973206e6f7420746865206f776e6572600082015250565b6000612a64602083612a1d565b9150612a6f82612a2e565b602082019050919050565b60006020820190508181036000830152612a9381612a57565b9050919050565b600081519050612aa981612723565b92915050565b600060208284031215612ac557612ac4612693565b5b6000612ad384828501612a9a565b91505092915050565b7f4469766973696f6e206973204e6f7420506f737369626c65202c20427567206960008201527f6e204e756d626572732021000000000000000000000000000000000000000000602082015250565b6000612b38602b83612a1d565b9150612b4382612adc565b604082019050919050565b60006020820190508181036000830152612b6781612b2b565b9050919050565b7f4e487b7100000000000000000000000000000000000000000000000000000000600052601260045260246000fd5b7f4e487b7100000000000000000000000000000000000000000000000000000000600052601160045260246000fd5b6000612bd78261265f565b9150612be28361265f565b925082612bf257612bf1612b6e565b5b828204905092915050565b6000612c088261265f565b9150612c138361265f565b9250817fffffffffffffffffffffffffffffffffffffffffffffffffffffffffffffffff0483118215151615612c4c57612c4b612b9d565b5b828202905092915050565b6000612c628261265f565b9150612c6d8361265f565b925082821015612c8057612c7f612b9d565b5b828203905092915050565b7f5065726d697373696f6e2044656e696564202121000000000000000000000000600082015250565b6000612cc1601483612a1d565b9150612ccc82612c8b565b602082019050919050565b60006020820190508181036000830152612cf081612cb4565b9050919050565b7f54686520506f74206973206e6f7420726561647920666f722053656c6563742060008201527f7468652057696e6e657200000000000000000000000000000000000000000000602082015250565b6000612d53602a83612a1d565b9150612d5e82612cf7565b604082019050919050565b60006020820190508181036000830152612d8281612d46565b9050919050565b6000612d948261265f565b9150612d9f8361265f565b925082612daf57612dae612b6e565b5b828206905092915050565b7f4e487b7100000000000000000000000000000000000000000000000000000000600052603260045260246000fd5b6000606082019050612dfe6000830186612669565b612e0b6020830185612669565b612e186040830184612669565b949350505050565b7f54686520506f742069732073746172746564206265666f726520210000000000600082015250565b6000612e56601b83612a1d565b9150612e6182612e20565b602082019050919050565b60006020820190508181036000830152612e8581612e49565b9050919050565b7f54686520506f7420686173206e6f74206265656e20526561647920746f20506c60008201527f617920796574204f72205468652047616d65206973204f766572210000000000602082015250565b6000612ee8603b83612a1d565b9150612ef382612e8c565b604082019050919050565b60006020820190508181036000830152612f1781612edb565b9050919050565b7f56616c75652073686f756c64206265206265747765656e20302e30312026203160008201527f303020424e420000000000000000000000000000000000000000000000000000602082015250565b6000612f7a602683612a1d565b9150612f8582612f1e565b604082019050919050565b60006020820190508181036000830152612fa981612f6d565b9050919050565b7f596f7520706c6179656420746f6f206d75636820212100000000000000000000600082015250565b6000612fe6601683612a1d565b9150612ff182612fb0565b602082019050919050565b6000602082019050818103600083015261301581612fd9565b9050919050565b7f56616c75652073686f756c6420626520616e20496e7465676572206d7574697060008201527f6c65206f6620302e303120424e42000000000000000000000000000000000000602082015250565b6000613078602e83612a1d565b91506130838261301c565b604082019050919050565b600060208201905081810360008301526130a78161306b565b9050919050565b60006130b98261265f565b91507fffffffffffffffffffffffffffffffffffffffffffffffffffffffffffffffff8214156130ec576130eb612b9d565b5b600182019050919050565b60006131028261265f565b915061310d8361265f565b9250827fffffffffffffffffffffffffffffffffffffffffffffffffffffffffffffffff0382111561314257613141612b9d565b5b828201905092915050565b600060808201905061316260008301876127b8565b61316f6020830186612669565b61317c6040830185612669565b6131896060830184612669565b95945050505050565b600081549050919050565b60008190508160005260206000209050919050565b60008160001c9050919050565b6000819050919050565b60006131dc6131d7836131b2565b6131bf565b9050919050565b60006131ef82546131c9565b9050919050565b6000600182019050919050565b600061320e82613192565b6132188185612817565b93506132238361319d565b8060005b8381101561325b57613238826131e3565b6132428882612847565b975061324d836131f6565b925050600181019050613227565b5085935050505092915050565b600060a08201905061327d60008301886127b8565b818103602083015261328f8187613203565b905061329e6040830186612669565b6132ab6060830185612669565b6132b86080830184612669565b9695505050505050565b7f4f776e61626c653a206e6577206f776e657220697320746865207a65726f206160008201527f6464726573730000000000000000000000000000000000000000000000000000602082015250565b600061331e602683612a1d565b9150613329826132c2565b604082019050919050565b6000602082019050818103600083015261334d81613311565b9050919050565b6000819050919050565b600060ff82169050919050565b6000819050919050565b600061339061338b61338684613354565b61336b565b61335e565b9050919050565b6133a081613375565b82525050565b60006080820190506133bb60008301876127b8565b6133c86020830186612669565b6133d560408301856127b8565b6133e26060830184613397565b95945050505050565b6133f4816128ec565b81146133ff57600080fd5b50565b600081519050613411816133eb565b92915050565b60006020828403121561342d5761342c612693565b5b600061343b84828501613402565b91505092915050565b600061345f61345a61345584612698565b61336b565b612698565b9050919050565b600061347182613444565b9050919050565b600061348382613466565b9050919050565b61349381613478565b82525050565b60006040820190506134ae600083018561348a565b6134bb6020830184612669565b939250505056fea26469706673582212206616eeaf980cac0481a036bcce5be1ee99e94393efa82528fff7c6b2bfaba52064736f6c63430008090033a26469706673582212209d4d122109233c783452834224c7c390b9b3662c5cbf8e235bba4960ca44274a64736f6c63430008090033",
  "immutableReferences": {},
  "source": "// SPDX-License-Identifier: MIT\npragma solidity ^0.8.0;\n\nimport \"@openzeppelin/contracts/access/Ownable.sol\";\nimport \"./LotteryCore.sol\";\n\n\n/**\n  * @title Lottery Generator Smart Contract.\n  * @author Batis \n  * @notice This SmartContract is responsible for Lottery Generation.\n  * @dev Lottery Generator SmartContract - Parent of Core Lottery\n*/\ncontract LotteryGenerator is Ownable {\n\n    // uint constant TICKET_PRICE = 10 * 1e15; // finney (0.01 Ether)\n\n    enum LType {\n        Hourly,\n        Daily,\n        Weekly,\n        Monthly\n    }\n\n    address[] public lotteries;\n    struct lottery{\n        uint index;\n        address creator;\n        uint totalBalance;\n        address winnerAddress; \n        LType lotteryType;\n    }\n    mapping(address => lottery) lotteryStructs;\n\n    address private LotteryOwner;\n    address private potDirector;  /* ToDo: All Main Action must be controlled only by Owner or Director */\n\n    address[] public LotteryWinnersArray;\n    struct LotteryWinnerStr{\n        uint playersId;\n        uint winnerCount;\n    }\n    mapping (address => LotteryWinnerStr) public LotteryWinnersMap;\n\n    address[] public WeeklyWinnersArray;\n    struct WeeklyWinnerStr{\n        uint playersId;\n        uint winnerCount;\n    }\n    mapping (address => WeeklyWinnerStr) public WeeklyWinnersMap;\n\n    address[] public MonthlyWinnersArray;\n    struct MonthlyWinnerStr{\n        uint playersId;\n        uint winnerCount;\n    }\n    mapping (address => MonthlyWinnerStr) public MonthlyWinnersMap;\n\n    // event\n    event LotteryCreated(address newLottery);\n\n    constructor() {   \n        LotteryOwner = msg.sender;\n    }\n\n\n  /* ToDo : Add & Complete Fallback routine */\n    fallback() external payable {\n    }\n    receive() external payable {\n    }\n\n    modifier isAllowedManager() {\n        require( msg.sender == potDirector || msg.sender == LotteryOwner , \"Permission Denied !!\" );\n        _;\n    }\n\n    function balanceInPot() public view returns(uint){\n        return address(this).balance;\n    }\n\n    function withdraw() external onlyOwner {\n        payable(msg.sender).transfer(address(this).balance);\n    }\n\n    function getWinners() external view returns(address[] memory) {\n        return LotteryWinnersArray;\n    }\n\n    function getWeeklyWinners() external view returns(address[] memory) {\n        return WeeklyWinnersArray;\n    }\n\n    function getMonthlyWinners() external view returns(address[] memory) {\n        return MonthlyWinnersArray;\n    }\n\n    function getPotDirector() public view returns(address) {\n        return potDirector;\n    }\n\n    function setDirector(address _DirectorAddress) external onlyOwner {\n        require(_DirectorAddress != address(0) );\n        potDirector = _DirectorAddress;\n    }\n\n    function setlotteryStructs(address _lotteryAddress, uint _totalBalance, address _winnerAddress, uint8 _lotteryType) external returns (bool) {\n        lotteryStructs[_lotteryAddress].totalBalance = _totalBalance;\n        lotteryStructs[_lotteryAddress].winnerAddress = _winnerAddress;\n        lotteryStructs[_lotteryAddress].lotteryType = LType(_lotteryType);\n        return true;\n    }\n\n    function setlotteryWinnersArrayMap(address _winnerAddress) external returns (uint) {\n        LotteryWinnersArray.push(_winnerAddress);\n        LotteryWinnersMap[_winnerAddress].playersId = LotteryWinnersArray.length;  // -1\n        LotteryWinnersMap[_winnerAddress].winnerCount++;\n        return LotteryWinnersArray.length ;  // -1\n    }\n\n    function setWeeklyWinnersArrayMap(address _winnerAddress) external returns (uint) {\n        WeeklyWinnersArray.push(_winnerAddress);\n        WeeklyWinnersMap[_winnerAddress].playersId = WeeklyWinnersArray.length;  // -1\n        WeeklyWinnersMap[_winnerAddress].winnerCount++;\n        return WeeklyWinnersArray.length ;  // -1\n    }\n\n    function setMonthlyWinnersArrayMap(address _winnerAddress) external returns (uint) {\n        MonthlyWinnersArray.push(_winnerAddress);\n        MonthlyWinnersMap[_winnerAddress].playersId = MonthlyWinnersArray.length;  // -1\n        MonthlyWinnersMap[_winnerAddress].winnerCount++;\n        return MonthlyWinnersArray.length ;  // -1\n    }\n\n    function clearlotteryWinnersArrayMap() external returns (bool) {\n        address _lotteryWinAddress;\n        for (uint256 index = 0; index < LotteryWinnersArray.length - 1; index++) {\n            _lotteryWinAddress = LotteryWinnersArray[index];\n            // if (LotteryWinnersMap[_lotteryWinAddress].playersId > 0) {\n            //     LotteryWinnersMap[_lotteryWinAddress].playersId = 0;\n            //     LotteryWinnersMap[_lotteryWinAddress].winnerCount = 0;\n            // }\n            delete LotteryWinnersMap[_lotteryWinAddress];\n        }\n        delete LotteryWinnersArray;\n        return true;\n    }\n\n    function clearWeeklyWinnersArrayMap() external returns (bool) {\n        address _lotteryWinAddress;\n        for (uint256 index = 0; index < WeeklyWinnersArray.length - 1; index++) {\n            _lotteryWinAddress = WeeklyWinnersArray[index];\n            // if (WeeklyWinnersMap[_lotteryWinAddress].playersId > 0) {\n            //     WeeklyWinnersMap[_lotteryWinAddress].playersId = 0;\n            //     WeeklyWinnersMap[_lotteryWinAddress].winnerCount = 0;\n            // }\n            delete WeeklyWinnersMap[_lotteryWinAddress];\n        }\n        delete WeeklyWinnersArray;\n        return true;\n    }\n\n    function clearMonthlyWinnersArrayMap() external returns (bool) {\n        address _lotteryWinAddress;\n        for (uint256 index = 0; index < MonthlyWinnersArray.length - 1; index++) {\n            _lotteryWinAddress = MonthlyWinnersArray[index];\n            // if (MonthlyWinnersMap[_lotteryWinAddress].playersId > 0) {\n            //     MonthlyWinnersMap[_lotteryWinAddress].playersId = 0;\n            //     MonthlyWinnersMap[_lotteryWinAddress].winnerCount = 0;\n            // }\n            delete MonthlyWinnersMap[_lotteryWinAddress];\n        }\n        delete MonthlyWinnersArray;\n        return true;\n    }\n\n\n    function createLottery(address _VRF, address weeklyAddr, address monthlyAddr, address liquidityAddr) public onlyOwner {\n\n        address generatorAddress = address(this);\n\n        // require(bytes(name).length > 0);\n        address newLottery = address(new LotteryCore(_VRF, generatorAddress, weeklyAddr, monthlyAddr, liquidityAddr));\n        lotteries.push(newLottery);\n        lotteryStructs[newLottery].index = lotteries.length - 1;\n        lotteryStructs[newLottery].creator = msg.sender;\n        lotteryStructs[newLottery].totalBalance = 0;\n        lotteryStructs[newLottery].winnerAddress = address(0);\n\n        emit LotteryCreated( newLottery );\n    }\n\n    // function getLotteries() public view returns(address[]) {\n    //     return lotteries;\n    // }\n\n    function deleteLottery(address lotteryAddress) public  onlyOwner {\n        require(msg.sender == lotteryStructs[lotteryAddress].creator);\n        uint indexToDelete = lotteryStructs[lotteryAddress].index;\n        address lastAddress = lotteries[lotteries.length - 1];\n        lotteries[indexToDelete] = lastAddress;\n        // lotteries.length --;\n    }\n\n    // Events\n    // event LotteryCreated(\n    //     address lotteryAddress\n    // );\n}\n\n\n\n",
  "sourcePath": "/home/batis/SrcCode/myPRJ/SmartContBlockChain/BSCLottery/contracts/LotteryGenerator.sol",
  "compiler": {
    "name": "solc",
    "version": "0.8.9+commit.e5eed63a.Emscripten.clang"
  },
  "schemaVersion": "3.4.3",
  "updatedAt": "2022-05-20T14:19:54.289Z",
  "networkType": "ethereum",
  "devdoc": {
    "author": "Batis ",
    "details": "Lottery Generator SmartContract - Parent of Core Lottery",
    "kind": "dev",
    "methods": {
      "owner()": {
        "details": "Returns the address of the current owner."
      },
      "renounceOwnership()": {
        "details": "Leaves the contract without owner. It will not be possible to call `onlyOwner` functions anymore. Can only be called by the current owner. NOTE: Renouncing ownership will leave the contract without an owner, thereby removing any functionality that is only available to the owner."
      },
      "transferOwnership(address)": {
        "details": "Transfers ownership of the contract to a new account (`newOwner`). Can only be called by the current owner."
      }
    },
    "title": "Lottery Generator Smart Contract.",
    "version": 1
  },
  "userdoc": {
    "kind": "user",
    "methods": {},
    "notice": "This SmartContract is responsible for Lottery Generation.",
    "version": 1
  }
}