{
  "contractName": "LotteryGenerator",
  "abi": [
    {
      "inputs": [],
      "stateMutability": "nonpayable",
      "type": "constructor"
    },
    {
      "anonymous": false,
      "inputs": [
        {
          "indexed": false,
          "internalType": "address",
          "name": "sender",
          "type": "address"
        },
        {
          "indexed": false,
          "internalType": "uint256",
          "name": "value",
          "type": "uint256"
        }
      ],
      "name": "LogDepositReceived",
      "type": "event"
    },
    {
      "anonymous": false,
      "inputs": [
        {
          "indexed": false,
          "internalType": "address",
          "name": "newLottery",
          "type": "address"
        }
      ],
      "name": "LotteryCreated",
      "type": "event"
    },
    {
      "anonymous": false,
      "inputs": [
        {
          "indexed": true,
          "internalType": "address",
          "name": "previousOwner",
          "type": "address"
        },
        {
          "indexed": true,
          "internalType": "address",
          "name": "newOwner",
          "type": "address"
        }
      ],
      "name": "OwnershipTransferred",
      "type": "event"
    },
    {
      "stateMutability": "payable",
      "type": "fallback",
      "payable": true
    },
    {
      "inputs": [
        {
          "internalType": "uint256",
          "name": "",
          "type": "uint256"
        }
      ],
      "name": "LotteryWinnersArray",
      "outputs": [
        {
          "internalType": "address",
          "name": "",
          "type": "address"
        }
      ],
      "stateMutability": "view",
      "type": "function",
      "constant": true
    },
    {
      "inputs": [
        {
          "internalType": "uint256",
          "name": "",
          "type": "uint256"
        }
      ],
      "name": "LotteryWinnersArrayPrizes",
      "outputs": [
        {
          "internalType": "uint256",
          "name": "",
          "type": "uint256"
        }
      ],
      "stateMutability": "view",
      "type": "function",
      "constant": true
    },
    {
      "inputs": [
        {
          "internalType": "address",
          "name": "",
          "type": "address"
        }
      ],
      "name": "LotteryWinnersMap",
      "outputs": [
        {
          "internalType": "uint256",
          "name": "playersId",
          "type": "uint256"
        },
        {
          "internalType": "uint256",
          "name": "winnerCount",
          "type": "uint256"
        }
      ],
      "stateMutability": "view",
      "type": "function",
      "constant": true
    },
    {
      "inputs": [
        {
          "internalType": "uint256",
          "name": "",
          "type": "uint256"
        }
      ],
      "name": "MonthlyWinnersArray",
      "outputs": [
        {
          "internalType": "address",
          "name": "",
          "type": "address"
        }
      ],
      "stateMutability": "view",
      "type": "function",
      "constant": true
    },
    {
      "inputs": [
        {
          "internalType": "uint256",
          "name": "",
          "type": "uint256"
        }
      ],
      "name": "MonthlyWinnersArrayPrizes",
      "outputs": [
        {
          "internalType": "uint256",
          "name": "",
          "type": "uint256"
        }
      ],
      "stateMutability": "view",
      "type": "function",
      "constant": true
    },
    {
      "inputs": [
        {
          "internalType": "address",
          "name": "",
          "type": "address"
        }
      ],
      "name": "MonthlyWinnersMap",
      "outputs": [
        {
          "internalType": "uint256",
          "name": "playersId",
          "type": "uint256"
        },
        {
          "internalType": "uint256",
          "name": "winnerCount",
          "type": "uint256"
        }
      ],
      "stateMutability": "view",
      "type": "function",
      "constant": true
    },
    {
      "inputs": [
        {
          "internalType": "uint256",
          "name": "",
          "type": "uint256"
        }
      ],
      "name": "WeeklyWinnersArray",
      "outputs": [
        {
          "internalType": "address",
          "name": "",
          "type": "address"
        }
      ],
      "stateMutability": "view",
      "type": "function",
      "constant": true
    },
    {
      "inputs": [
        {
          "internalType": "uint256",
          "name": "",
          "type": "uint256"
        }
      ],
      "name": "WeeklyWinnersArrayPrizes",
      "outputs": [
        {
          "internalType": "uint256",
          "name": "",
          "type": "uint256"
        }
      ],
      "stateMutability": "view",
      "type": "function",
      "constant": true
    },
    {
      "inputs": [
        {
          "internalType": "address",
          "name": "",
          "type": "address"
        }
      ],
      "name": "WeeklyWinnersMap",
      "outputs": [
        {
          "internalType": "uint256",
          "name": "playersId",
          "type": "uint256"
        },
        {
          "internalType": "uint256",
          "name": "winnerCount",
          "type": "uint256"
        }
      ],
      "stateMutability": "view",
      "type": "function",
      "constant": true
    },
    {
      "inputs": [
        {
          "internalType": "uint256",
          "name": "",
          "type": "uint256"
        }
      ],
      "name": "lotteries",
      "outputs": [
        {
          "internalType": "address",
          "name": "",
          "type": "address"
        }
      ],
      "stateMutability": "view",
      "type": "function",
      "constant": true
    },
    {
      "inputs": [],
      "name": "owner",
      "outputs": [
        {
          "internalType": "address",
          "name": "",
          "type": "address"
        }
      ],
      "stateMutability": "view",
      "type": "function",
      "constant": true
    },
    {
      "inputs": [],
      "name": "renounceOwnership",
      "outputs": [],
      "stateMutability": "nonpayable",
      "type": "function"
    },
    {
      "inputs": [
        {
          "internalType": "address",
          "name": "newOwner",
          "type": "address"
        }
      ],
      "name": "transferOwnership",
      "outputs": [],
      "stateMutability": "nonpayable",
      "type": "function"
    },
    {
      "stateMutability": "payable",
      "type": "receive",
      "payable": true
    },
    {
      "inputs": [],
      "name": "balanceInPot",
      "outputs": [
        {
          "internalType": "uint256",
          "name": "",
          "type": "uint256"
        }
      ],
      "stateMutability": "view",
      "type": "function",
      "constant": true
    },
    {
      "inputs": [],
      "name": "withdraw",
      "outputs": [],
      "stateMutability": "nonpayable",
      "type": "function"
    },
    {
      "inputs": [],
      "name": "getWinners",
      "outputs": [
        {
          "internalType": "address[]",
          "name": "",
          "type": "address[]"
        }
      ],
      "stateMutability": "view",
      "type": "function",
      "constant": true
    },
    {
      "inputs": [],
      "name": "getWeeklyWinners",
      "outputs": [
        {
          "internalType": "address[]",
          "name": "",
          "type": "address[]"
        }
      ],
      "stateMutability": "view",
      "type": "function",
      "constant": true
    },
    {
      "inputs": [],
      "name": "getMonthlyWinners",
      "outputs": [
        {
          "internalType": "address[]",
          "name": "",
          "type": "address[]"
        }
      ],
      "stateMutability": "view",
      "type": "function",
      "constant": true
    },
    {
      "inputs": [],
      "name": "getPotDirector",
      "outputs": [
        {
          "internalType": "address",
          "name": "",
          "type": "address"
        }
      ],
      "stateMutability": "view",
      "type": "function",
      "constant": true
    },
    {
      "inputs": [
        {
          "internalType": "address",
          "name": "_DirectorAddress",
          "type": "address"
        }
      ],
      "name": "setDirector",
      "outputs": [],
      "stateMutability": "nonpayable",
      "type": "function"
    },
    {
      "inputs": [
        {
          "internalType": "address",
          "name": "_lotteryAddress",
          "type": "address"
        },
        {
          "internalType": "address",
          "name": "_commander",
          "type": "address"
        },
        {
          "internalType": "uint256",
          "name": "_totalBalance",
          "type": "uint256"
        },
        {
          "internalType": "address",
          "name": "_winnerAddress",
          "type": "address"
        },
        {
          "internalType": "uint8",
          "name": "_lotteryType",
          "type": "uint8"
        }
      ],
      "name": "setlotteryStructs",
      "outputs": [
        {
          "internalType": "bool",
          "name": "",
          "type": "bool"
        }
      ],
      "stateMutability": "nonpayable",
      "type": "function"
    },
    {
      "inputs": [
        {
          "internalType": "address",
          "name": "_commander",
          "type": "address"
        },
        {
          "internalType": "address",
          "name": "_winnerAddress",
          "type": "address"
        },
        {
          "internalType": "uint256",
          "name": "_winnerPrize",
          "type": "uint256"
        }
      ],
      "name": "setlotteryWinnersArrayMap",
      "outputs": [
        {
          "internalType": "uint256",
          "name": "",
          "type": "uint256"
        }
      ],
      "stateMutability": "nonpayable",
      "type": "function"
    },
    {
      "inputs": [
        {
          "internalType": "address",
          "name": "_commander",
          "type": "address"
        },
        {
          "internalType": "address",
          "name": "_winnerAddress",
          "type": "address"
        },
        {
          "internalType": "uint256",
          "name": "_winnerPrize",
          "type": "uint256"
        }
      ],
      "name": "setWeeklyWinnersArrayMap",
      "outputs": [
        {
          "internalType": "uint256",
          "name": "",
          "type": "uint256"
        }
      ],
      "stateMutability": "nonpayable",
      "type": "function"
    },
    {
      "inputs": [
        {
          "internalType": "address",
          "name": "_commander",
          "type": "address"
        },
        {
          "internalType": "address",
          "name": "_winnerAddress",
          "type": "address"
        },
        {
          "internalType": "uint256",
          "name": "_winnerPrize",
          "type": "uint256"
        }
      ],
      "name": "setMonthlyWinnersArrayMap",
      "outputs": [
        {
          "internalType": "uint256",
          "name": "",
          "type": "uint256"
        }
      ],
      "stateMutability": "nonpayable",
      "type": "function"
    },
    {
      "inputs": [
        {
          "internalType": "address",
          "name": "_commander",
          "type": "address"
        }
      ],
      "name": "clearlotteryWinnersArrayMap",
      "outputs": [
        {
          "internalType": "bool",
          "name": "",
          "type": "bool"
        }
      ],
      "stateMutability": "nonpayable",
      "type": "function"
    },
    {
      "inputs": [
        {
          "internalType": "address",
          "name": "_commander",
          "type": "address"
        }
      ],
      "name": "clearWeeklyWinnersArrayMap",
      "outputs": [
        {
          "internalType": "bool",
          "name": "",
          "type": "bool"
        }
      ],
      "stateMutability": "nonpayable",
      "type": "function"
    },
    {
      "inputs": [
        {
          "internalType": "address",
          "name": "_commander",
          "type": "address"
        }
      ],
      "name": "clearMonthlyWinnersArrayMap",
      "outputs": [
        {
          "internalType": "bool",
          "name": "",
          "type": "bool"
        }
      ],
      "stateMutability": "nonpayable",
      "type": "function"
    },
    {
      "inputs": [],
      "name": "getAllContractAddresses",
      "outputs": [
        {
          "internalType": "address",
          "name": "hAddress",
          "type": "address"
        },
        {
          "internalType": "address",
          "name": "wAddress",
          "type": "address"
        },
        {
          "internalType": "address",
          "name": "mAddress",
          "type": "address"
        }
      ],
      "stateMutability": "view",
      "type": "function",
      "constant": true
    },
    {
      "inputs": [
        {
          "internalType": "address",
          "name": "_HourlyPotAddress",
          "type": "address"
        }
      ],
      "name": "set_HourlyPotAddress",
      "outputs": [],
      "stateMutability": "nonpayable",
      "type": "function"
    },
    {
      "inputs": [
        {
          "internalType": "address",
          "name": "_WeeklyPotAddress",
          "type": "address"
        }
      ],
      "name": "set_WeeklyPotAddress",
      "outputs": [],
      "stateMutability": "nonpayable",
      "type": "function"
    },
    {
      "inputs": [
        {
          "internalType": "address",
          "name": "_MonthlyPotAddress",
          "type": "address"
        }
      ],
      "name": "set_MonthlyPotAddress",
      "outputs": [],
      "stateMutability": "nonpayable",
      "type": "function"
    }
  ],
  "bytecode": "0x608060405234801561001057600080fd5b5061001a33610031565b600680546001600160a01b03191633179055610081565b600080546001600160a01b038381166001600160a01b0319831681178455604051919092169283917f8be0079c531659141344cd1fd0a4f28419497f9722a3daafe3b4186f6b6457e09190a35050565b6118ea806100906000396000f3fe6080604052600436106101dc5760003560e01c806354a1ec7311610102578063a55b4f9811610095578063df15c37e11610064578063df15c37e1461069a578063f0446ecb146106af578063f2fde38b146106cf578063f6711239146106ef576102b7565b8063a55b4f9814610608578063b14a60b114610628578063befb0b891461065c578063c5ae6f3e1461067c576102b7565b806379bc3ad8116100d157806379bc3ad81461058a5780638da5cb5b146105aa578063a0f56934146105c8578063a35e151c146105e8576102b7565b806354a1ec7314610501578063614f6f8714610521578063653ea43914610541578063715018a614610575576102b7565b806332f655fd1161017a5780633ccfd60b116101495780633ccfd60b146104975780633fa420c4146104ac5780634488d679146104cc5780634c56018f146104e1576102b7565b806332f655fd146103e75780633305bd3014610417578063330efa72146104375780633b33b61a14610457576102b7565b80631c1f5389116101b65780631c1f53891461033e57806326ba431914610387578063277550e9146103a757806328a1d4aa146103c7576102b7565b80631398e076146102c257806314e59987146102ff578063195b6e9d1461031c576102b7565b366102b757662386f26fc1000034101580156101ff5750678ac7230489e8000034105b6102765760405162461bcd60e51b815260206004820152602560248201527f56616c75652073686f756c64206265206265747765656e20302e30312026203160448201527f3020424e4200000000000000000000000000000000000000000000000000000060648201526084015b60405180910390fd5b34156102b557604080513381523460208201527f3916187166447a01764df803fb1147a37c55a4ca1c7271a7a75c0ab1079b2d95910160405180910390a15b005b361561027657600080fd5b3480156102ce57600080fd5b506102e26102dd3660046116fa565b61070f565b6040516001600160a01b0390911681526020015b60405180910390f35b34801561030b57600080fd5b50475b6040519081526020016102f6565b34801561032857600080fd5b50610331610739565b6040516102f69190611713565b34801561034a57600080fd5b5061037261035936600461177c565b600a602052600090815260409020805460019091015482565b604080519283526020830191909152016102f6565b34801561039357600080fd5b506102b56103a236600461177c565b61079b565b3480156103b357600080fd5b506102e26103c23660046116fa565b61082a565b3480156103d357600080fd5b5061030e6103e23660046116fa565b61083a565b3480156103f357600080fd5b5061040761040236600461177c565b61085b565b60405190151581526020016102f6565b34801561042357600080fd5b5061040761043236600461179e565b6109a3565b34801561044357600080fd5b5061030e6104523660046116fa565b610b36565b34801561046357600080fd5b50600154600254600354604080516001600160a01b03948516815292841660208401529216918101919091526060016102f6565b3480156104a357600080fd5b506102b5610b46565b3480156104b857600080fd5b506102b56104c736600461177c565b610bcf565b3480156104d857600080fd5b50610331610c5e565b3480156104ed57600080fd5b5061030e6104fc366004611806565b610cbe565b34801561050d57600080fd5b5061040761051c36600461177c565b610e2d565b34801561052d57600080fd5b506102b561053c36600461177c565b610f6a565b34801561054d57600080fd5b5061037261055c36600461177c565b600d602052600090815260409020805460019091015482565b34801561058157600080fd5b506102b5610ff9565b34801561059657600080fd5b506102b56105a536600461177c565b61105f565b3480156105b657600080fd5b506000546001600160a01b03166102e2565b3480156105d457600080fd5b5061030e6105e3366004611806565b6110ee565b3480156105f457600080fd5b506102e26106033660046116fa565b61125d565b34801561061457600080fd5b5061040761062336600461177c565b61126d565b34801561063457600080fd5b5061037261064336600461177c565b6010602052600090815260409020805460019091015482565b34801561066857600080fd5b5061030e610677366004611806565b6113aa565b34801561068857600080fd5b506007546001600160a01b03166102e2565b3480156106a657600080fd5b50610331611519565b3480156106bb57600080fd5b5061030e6106ca3660046116fa565b611579565b3480156106db57600080fd5b506102b56106ea36600461177c565b611589565b3480156106fb57600080fd5b506102e261070a3660046116fa565b611668565b6004818154811061071f57600080fd5b6000918252602090912001546001600160a01b0316905081565b6060600e80548060200260200160405190810160405280929190818152602001828054801561079157602002820191906000526020600020905b81546001600160a01b03168152600190910190602001808311610773575b5050505050905090565b6000546001600160a01b031633146107f55760405162461bcd60e51b815260206004820181905260248201527f4f776e61626c653a2063616c6c6572206973206e6f7420746865206f776e6572604482015260640161026d565b6001600160a01b03811661080857600080fd5b600780546001600160a01b0319166001600160a01b0392909216919091179055565b600e818154811061071f57600080fd5b600c818154811061084a57600080fd5b600091825260209091200154905081565b60075460009082906001600160a01b038083169116148061088957506006546001600160a01b038281169116145b6108d55760405162461bcd60e51b815260206004820152601c60248201527f284f776e657229205065726d697373696f6e2044656e69656420212100000000604482015260640161026d565b60015433906001600160a01b03168114806108fd57506002546001600160a01b038281169116145b8061091557506003546001600160a01b038281169116145b61091e57600080fd5b6000805b600b5461093190600190611858565b811161098b57600b818154811061094a5761094a61186f565b60009182526020808320909101546001600160a01b0316808352600d909152604082208281556001019190915591508061098381611885565b915050610922565b50610998600b60006116c8565b506001949350505050565b60075460009085906001600160a01b03808316911614806109d157506006546001600160a01b038281169116145b610a1d5760405162461bcd60e51b815260206004820152601c60248201527f284f776e657229205065726d697373696f6e2044656e69656420212100000000604482015260640161026d565b60015433906001600160a01b0316811480610a4557506002546001600160a01b038281169116145b80610a5d57506003546001600160a01b038281169116145b610a6657600080fd5b6001600160a01b03888116600090815260056020526040902060028101889055600390810180546001600160a01b0319169288169290921790915560ff851690811115610ab557610ab561189e565b6001600160a01b03891660009081526005602052604090206003908101805490917fffffffffffffffffffffff00ffffffffffffffffffffffffffffffffffffffff9091169074010000000000000000000000000000000000000000908490811115610b2357610b2361189e565b0217905550600198975050505050505050565b6009818154811061084a57600080fd5b6000546001600160a01b03163314610ba05760405162461bcd60e51b815260206004820181905260248201527f4f776e61626c653a2063616c6c6572206973206e6f7420746865206f776e6572604482015260640161026d565b60405133904780156108fc02916000818181858888f19350505050158015610bcc573d6000803e3d6000fd5b50565b6000546001600160a01b03163314610c295760405162461bcd60e51b815260206004820181905260248201527f4f776e61626c653a2063616c6c6572206973206e6f7420746865206f776e6572604482015260640161026d565b6001600160a01b038116610c3c57600080fd5b600280546001600160a01b0319166001600160a01b0392909216919091179055565b6060600b805480602002602001604051908101604052809291908181526020018280548015610791576020028201919060005260206000209081546001600160a01b03168152600190910190602001808311610773575050505050905090565b60075460009084906001600160a01b0380831691161480610cec57506006546001600160a01b038281169116145b610d385760405162461bcd60e51b815260206004820152601c60248201527f284f776e657229205065726d697373696f6e2044656e69656420212100000000604482015260640161026d565b60015433906001600160a01b0316811480610d6057506002546001600160a01b038281169116145b80610d7857506003546001600160a01b038281169116145b610d8157600080fd5b600e8054600180820183557fbb7b4a454dc3493923482f07822329ed19e8244eff582cc204f8554c3620c3fd90910180546001600160a01b0319166001600160a01b038916908117909155600f80548084019091557f8d1108e10bcb7c27dddfc02ed9d693a074039d026cf4ea4240b40f7d581ac802018790559154600092835260106020526040832090815501805491610e1b83611885565b9091555050600e549695505050505050565b60075460009082906001600160a01b0380831691161480610e5b57506006546001600160a01b038281169116145b610ea75760405162461bcd60e51b815260206004820152601c60248201527f284f776e657229205065726d697373696f6e2044656e69656420212100000000604482015260640161026d565b60015433906001600160a01b0316811480610ecf57506002546001600160a01b038281169116145b80610ee757506003546001600160a01b038281169116145b610ef057600080fd5b6000805b600854610f0390600190611858565b8111610f5d5760088181548110610f1c57610f1c61186f565b60009182526020808320909101546001600160a01b0316808352600a9091526040822082815560010191909155915080610f5581611885565b915050610ef4565b50610998600860006116c8565b6000546001600160a01b03163314610fc45760405162461bcd60e51b815260206004820181905260248201527f4f776e61626c653a2063616c6c6572206973206e6f7420746865206f776e6572604482015260640161026d565b6001600160a01b038116610fd757600080fd5b600380546001600160a01b0319166001600160a01b0392909216919091179055565b6000546001600160a01b031633146110535760405162461bcd60e51b815260206004820181905260248201527f4f776e61626c653a2063616c6c6572206973206e6f7420746865206f776e6572604482015260640161026d565b61105d6000611678565b565b6000546001600160a01b031633146110b95760405162461bcd60e51b815260206004820181905260248201527f4f776e61626c653a2063616c6c6572206973206e6f7420746865206f776e6572604482015260640161026d565b6001600160a01b0381166110cc57600080fd5b600180546001600160a01b0319166001600160a01b0392909216919091179055565b60075460009084906001600160a01b038083169116148061111c57506006546001600160a01b038281169116145b6111685760405162461bcd60e51b815260206004820152601c60248201527f284f776e657229205065726d697373696f6e2044656e69656420212100000000604482015260640161026d565b60015433906001600160a01b031681148061119057506002546001600160a01b038281169116145b806111a857506003546001600160a01b038281169116145b6111b157600080fd5b60088054600180820183557ff3f7a9fe364faab93b216da50a3214154f22a0a2b415b23a84c8169e8b636ee390910180546001600160a01b0319166001600160a01b038916908117909155600980548084019091557f6e1540171b6c0c960b71a7020d9f60077f6af931a8bbf590da0223dacf75c7af0187905591546000928352600a602052604083209081550180549161124b83611885565b90915550506008549695505050505050565b600b818154811061071f57600080fd5b60075460009082906001600160a01b038083169116148061129b57506006546001600160a01b038281169116145b6112e75760405162461bcd60e51b815260206004820152601c60248201527f284f776e657229205065726d697373696f6e2044656e69656420212100000000604482015260640161026d565b60015433906001600160a01b031681148061130f57506002546001600160a01b038281169116145b8061132757506003546001600160a01b038281169116145b61133057600080fd5b6000805b600e5461134390600190611858565b811161139d57600e818154811061135c5761135c61186f565b60009182526020808320909101546001600160a01b03168083526010909152604082208281556001019190915591508061139581611885565b915050611334565b50610998600e60006116c8565b60075460009084906001600160a01b03808316911614806113d857506006546001600160a01b038281169116145b6114245760405162461bcd60e51b815260206004820152601c60248201527f284f776e657229205065726d697373696f6e2044656e69656420212100000000604482015260640161026d565b60015433906001600160a01b031681148061144c57506002546001600160a01b038281169116145b8061146457506003546001600160a01b038281169116145b61146d57600080fd5b600b8054600180820183557f0175b7a638427703f0dbe7bb9bbf987a2551717b34e79f33b5b1008d1fa01db990910180546001600160a01b0319166001600160a01b038916908117909155600c80548084019091557fdf6966c971051c3d54ec59162606531493a51404a002842f56009d7e5cf4a8c70187905591546000928352600d602052604083209081550180549161150783611885565b9091555050600b549695505050505050565b60606008805480602002602001604051908101604052809291908181526020018280548015610791576020028201919060005260206000209081546001600160a01b03168152600190910190602001808311610773575050505050905090565b600f818154811061084a57600080fd5b6000546001600160a01b031633146115e35760405162461bcd60e51b815260206004820181905260248201527f4f776e61626c653a2063616c6c6572206973206e6f7420746865206f776e6572604482015260640161026d565b6001600160a01b03811661165f5760405162461bcd60e51b815260206004820152602660248201527f4f776e61626c653a206e6577206f776e657220697320746865207a65726f206160448201527f6464726573730000000000000000000000000000000000000000000000000000606482015260840161026d565b610bcc81611678565b6008818154811061071f57600080fd5b600080546001600160a01b038381166001600160a01b0319831681178455604051919092169283917f8be0079c531659141344cd1fd0a4f28419497f9722a3daafe3b4186f6b6457e09190a35050565b5080546000825590600052602060002090810190610bcc91905b808211156116f657600081556001016116e2565b5090565b60006020828403121561170c57600080fd5b5035919050565b6020808252825182820181905260009190848201906040850190845b818110156117545783516001600160a01b03168352928401929184019160010161172f565b50909695505050505050565b80356001600160a01b038116811461177757600080fd5b919050565b60006020828403121561178e57600080fd5b61179782611760565b9392505050565b600080600080600060a086880312156117b657600080fd5b6117bf86611760565b94506117cd60208701611760565b9350604086013592506117e260608701611760565b9150608086013560ff811681146117f857600080fd5b809150509295509295909350565b60008060006060848603121561181b57600080fd5b61182484611760565b925061183260208501611760565b9150604084013590509250925092565b634e487b7160e01b600052601160045260246000fd5b60008282101561186a5761186a611842565b500390565b634e487b7160e01b600052603260045260246000fd5b60006001820161189757611897611842565b5060010190565b634e487b7160e01b600052602160045260246000fdfea26469706673582212208f2e0d4d9f7b1676a9e48ca3901ddca2b0f73b3580adeb58137dd6e42d18827264736f6c634300080d0033",
  "immutableReferences": {},
  "source": "// SPDX-License-Identifier: GNU-GPLv3\npragma solidity ^0.8.0;\n\nimport \"@openzeppelin/contracts/access/Ownable.sol\";\n\n// import \"truffle/Console.sol\";\n// import \"hardhat/console.sol\";\n\nimport \"./LotteryCore.sol\";\n\n\n/**\n  * @title Lottery Generator Smart Contract.\n  * @author Batis Abhari (https://github.com/baties - ContactMe: abhari_Batis@hotmail.com)\n  * @notice This SmartContract will be responsible for Lottery Generation in next Versions.\n  * @dev Lottery Generator SmartContract - Parent of All Lottery MOdules - Also The Lottery DataBase is Here !\n*/\ncontract LotteryGenerator is Ownable {\n\n    // uint constant TICKET_PRICE = 10 * 1e15; // finney (0.01 Ether)\n\n    enum LType {\n        Hourly,\n        Daily,\n        Weekly,\n        Monthly\n    }\n\n    address private HourlyPotAddress;\n    address private WeeklyPotAddress;\n    address private MonthlyPotAddress;   \n\n    address[] public lotteries;\n    struct lottery{\n        uint index;\n        address creator;\n        uint totalBalance;\n        address winnerAddress; \n        LType lotteryType;\n    }\n    mapping(address => lottery) lotteryStructs;\n\n    address private LotteryOwner;\n    address private potDirector;  \n\n    address[] public LotteryWinnersArray;\n    uint[] public LotteryWinnersArrayPrizes;\n    struct LotteryWinnerStr{\n        uint playersId;\n        uint winnerCount;\n    }\n    mapping (address => LotteryWinnerStr) public LotteryWinnersMap;\n\n    address[] public WeeklyWinnersArray;\n    uint[] public WeeklyWinnersArrayPrizes;\n    struct WeeklyWinnerStr{\n        uint playersId;\n        uint winnerCount;\n    }\n    mapping (address => WeeklyWinnerStr) public WeeklyWinnersMap;\n\n    address[] public MonthlyWinnersArray;\n    uint[] public MonthlyWinnersArrayPrizes;\n    struct MonthlyWinnerStr{\n        uint playersId;\n        uint winnerCount;\n    }\n    mapping (address => MonthlyWinnerStr) public MonthlyWinnersMap;\n\n    // event\n    event LotteryCreated(address newLottery);\n    event LogDepositReceived(address sender, uint value);\n\n    constructor() {   \n        LotteryOwner = msg.sender;\n    }\n\n\n  /* ToDo : Add & Complete Fallback routine */\n    fallback() external payable {\n        require(msg.data.length == 0); \n        if (msg.value > 0) {\n            emit LogDepositReceived(msg.sender,msg.value);\n        }\n    }\n\n    receive() external payable {\n        require(msg.value >= 0.01 ether && msg.value < 10 ether, \"Value should be between 0.01 & 10 BNB\");\n        if (msg.value > 0) {\n            emit LogDepositReceived(msg.sender,msg.value);\n        }\n    }\n\n    modifier isAllowedManager() {\n        require( msg.sender == potDirector || msg.sender == LotteryOwner , \"(Manager) Permission Denied !!\" );\n        _;\n    }\n\n    modifier isAllowedOwner(address _caller) {\n        require( _caller == potDirector || _caller == LotteryOwner , \"(Owner) Permission Denied !!\" );\n        _;\n    }\n\n    modifier isAllowedCaller(address _caller){\n        require( (_caller == HourlyPotAddress) || (_caller == WeeklyPotAddress) || (_caller == MonthlyPotAddress) );\n        _;\n    }\n\n    function balanceInPot() public view returns(uint){\n        return address(this).balance;\n    }\n\n    function withdraw() external onlyOwner {\n        payable(msg.sender).transfer(address(this).balance);\n    }\n\n    /**\n        * @notice Get The Total List of Hourly Lottery Winners Wallet Addresses\n        * @return Hourly Lottery Winners Array List\n    */\n    function getWinners() external view returns(address[] memory) {\n        return LotteryWinnersArray;\n    }\n\n    /**\n        * @notice Get the List of Weekly Winners Wallet Addresses\n        * @return Weekly Lottery Winners Array List\n    */\n    function getWeeklyWinners() external view returns(address[] memory) {\n        return WeeklyWinnersArray;\n    }\n\n    /**\n        * @notice Get the List of Monthly Winners Wallet Addresses\n        * @return Monthly Lottery Winners Array List\n    */\n    function getMonthlyWinners() external view returns(address[] memory) {\n        return MonthlyWinnersArray;\n    }\n\n    /**\n        * @notice Get The Address of Current Pot Director (Pot Manager)\n        * @return The Current Pot Director \n    */\n    function getPotDirector() public view returns(address) {\n        return potDirector;\n    }\n\n    /**\n        * @notice Set or Change The Address of Current Pot Director (Pot Manager)\n        * @dev This function is Set a Pot Manager and Only should be called by the Owner\n    */\n    function setDirector(address _DirectorAddress) external onlyOwner {\n        require(_DirectorAddress != address(0) );\n        potDirector = _DirectorAddress;\n    }\n\n  /**\n    * @notice Save All (Hourly, Daily, Weekly & Monthly) Lotteries' Important Data in One Place.\n    * @dev A struct with Hourly, Daily, Weekly & Monthly Lotteries Data.\n    * @param _lotteryAddress : Address of Lottery .\n    * @param _commander : The Address of Owner or Lottery Manager Which are the Only Allowed addresses for Running This Function.  \n    * @param _totalBalance : Total Balance in this Lottery .\n    * @param _winnerAddress : The Lottery Winner Wallet Address. \n    * @param _lotteryType : Type of Lottery (Hourly - Daily - Weekly - Monthly)\n    * @return True\n  */\n    function setlotteryStructs(address _lotteryAddress, address _commander, uint _totalBalance, address _winnerAddress, uint8 _lotteryType) external isAllowedOwner(_commander) isAllowedCaller(msg.sender) returns (bool) {\n        lotteryStructs[_lotteryAddress].totalBalance = _totalBalance;\n        lotteryStructs[_lotteryAddress].winnerAddress = _winnerAddress;\n        lotteryStructs[_lotteryAddress].lotteryType = LType(_lotteryType);\n        return true;\n    }\n\n  /**\n    * @notice Save All Hourly Lotteries' Important Data \n    * @dev Save Hourly Data into Hourly Lottery Array & Hourly Lottery Map.\n    * @param _commander : The Address of Owner or Lottery Manager Which are the Only Allowed addresses for Running This Function.\n    * @param _winnerAddress : The Hourly Lottery Winner Wallet Address. \n    * @param _winnerPrize : The Amount of Hourly Lottery Winner's Prize .\n    * @return LotteryWinnerArray Lengh\n  */\n    function setlotteryWinnersArrayMap(address _commander, address _winnerAddress, uint _winnerPrize) external isAllowedOwner(_commander) isAllowedCaller(msg.sender) returns (uint) {\n        LotteryWinnersArray.push(_winnerAddress);\n        LotteryWinnersArrayPrizes.push(_winnerPrize);\n        LotteryWinnersMap[_winnerAddress].playersId = LotteryWinnersArray.length;  // -1\n        LotteryWinnersMap[_winnerAddress].winnerCount++;\n        return LotteryWinnersArray.length ;  // -1\n    }\n\n  /**\n    * @notice Save All Weekly Lotteries' Important Data \n    * @dev Save Weekly Data into Weekly Lottery Array & Weekly Lottery Map.\n    * @param _commander : The Address of Owner or Lottery Manager Which are the Only Allowed addresses for Running This Function.  \n    * @param _winnerAddress : The Weekly Lottery Winner Wallet Address. \n    * @param _winnerPrize : The Amount of Weekly Lottery Winner's Prize .\n    * @return WeeklyWinnerArray Lengh\n  */\n    function setWeeklyWinnersArrayMap(address _commander, address _winnerAddress, uint _winnerPrize) external isAllowedOwner(_commander) isAllowedCaller(msg.sender) returns (uint) {\n        WeeklyWinnersArray.push(_winnerAddress);\n        WeeklyWinnersArrayPrizes.push(_winnerPrize);\n        WeeklyWinnersMap[_winnerAddress].playersId = WeeklyWinnersArray.length;  // -1\n        WeeklyWinnersMap[_winnerAddress].winnerCount++;\n        return WeeklyWinnersArray.length ;  // -1\n    }\n\n  /**\n    * @notice Save All Monthly Lotteries' Important Data \n    * @dev Save Monthly Data into Monthly Lottery Array & Monthly Lottery Map.\n    * @param _commander : The Address of Owner or Lottery Manager Which are the Only Allowed addresses for Running This Function.  \n    * @param _winnerAddress : The Monthly Lottery Winner Wallet Address. \n    * @param _winnerPrize : The Amount of Monthly Lottery Winner's Prize .\n    * @return MonthlyWinnerArray Lengh\n  */\n    function setMonthlyWinnersArrayMap(address _commander, address _winnerAddress, uint _winnerPrize) external isAllowedOwner(_commander) isAllowedCaller(msg.sender) returns (uint) {\n        MonthlyWinnersArray.push(_winnerAddress);\n        MonthlyWinnersArrayPrizes.push(_winnerPrize);\n        MonthlyWinnersMap[_winnerAddress].playersId = MonthlyWinnersArray.length;  // -1\n        MonthlyWinnersMap[_winnerAddress].winnerCount++;\n        return MonthlyWinnersArray.length ;  // -1\n    }\n\n  /**\n    * @notice Clear Lottery Winner Array & Map Data \n    * @dev Clear Lottery Winner Array & Map Data and Releasing the Memory.\n    * @param _commander : The Address of Owner or Lottery Manager Which are the Only Allowed addresses for Running This Function.  \n    * @return True\n  */\n    function clearlotteryWinnersArrayMap(address _commander) external isAllowedOwner(_commander) isAllowedCaller(msg.sender) returns (bool) {\n        address _lotteryWinAddress;\n        for (uint256 index = 0; index <= LotteryWinnersArray.length - 1; index++) {\n            _lotteryWinAddress = LotteryWinnersArray[index];\n            // if (LotteryWinnersMap[_lotteryWinAddress].playersId > 0) {\n            //     LotteryWinnersMap[_lotteryWinAddress].playersId = 0;\n            //     LotteryWinnersMap[_lotteryWinAddress].winnerCount = 0;\n            // }\n            delete LotteryWinnersMap[_lotteryWinAddress];\n        }\n        delete LotteryWinnersArray;\n        return true;\n    }\n\n  /**\n    * @notice Clear Weekly Lottery Winner Array & Map Data \n    * @dev Clear Weekly Lottery Winner Array & Map Data and Releasing the Memory.\n    * @param _commander : The Address of Owner or Lottery Manager Which are the Only Allowed addresses for Running This Function.  \n    * @return True\n  */\n    function clearWeeklyWinnersArrayMap(address _commander) external isAllowedOwner(_commander) isAllowedCaller(msg.sender) returns (bool) {\n        address _lotteryWinAddress;\n        for (uint256 index = 0; index <= WeeklyWinnersArray.length - 1; index++) {\n            _lotteryWinAddress = WeeklyWinnersArray[index];\n            // if (WeeklyWinnersMap[_lotteryWinAddress].playersId > 0) {\n            //     WeeklyWinnersMap[_lotteryWinAddress].playersId = 0;\n            //     WeeklyWinnersMap[_lotteryWinAddress].winnerCount = 0;\n            // }\n            delete WeeklyWinnersMap[_lotteryWinAddress];\n        }\n        delete WeeklyWinnersArray;\n        return true;\n    }\n\n  /**\n    * @notice Clear Monthly Lottery Winner Array & Map Data \n    * @dev Clear MOnthly Lottery Winner Array & Map Data and Releasing the Memory.\n    * @param _commander : The Address of Owner or Lottery Manager Which are the Only Allowed addresses for Running This Function.  \n    * @return True\n  */\n    function clearMonthlyWinnersArrayMap(address _commander) external isAllowedOwner(_commander) isAllowedCaller(msg.sender) returns (bool) {\n        address _lotteryWinAddress;\n        for (uint256 index = 0; index <= MonthlyWinnersArray.length - 1; index++) {\n            _lotteryWinAddress = MonthlyWinnersArray[index];\n            // if (MonthlyWinnersMap[_lotteryWinAddress].playersId > 0) {\n            //     MonthlyWinnersMap[_lotteryWinAddress].playersId = 0;\n            //     MonthlyWinnersMap[_lotteryWinAddress].winnerCount = 0;\n            // }\n            delete MonthlyWinnersMap[_lotteryWinAddress];\n        }\n        delete MonthlyWinnersArray;\n        return true;\n    }\n\n    function getAllContractAddresses() public view returns(address hAddress, address wAddress, address mAddress) {\n        hAddress = HourlyPotAddress ;\n        wAddress = WeeklyPotAddress ;\n        mAddress = MonthlyPotAddress ;\n        return (hAddress, wAddress, mAddress); \n    }\n\n    function set_HourlyPotAddress(address _HourlyPotAddress) external onlyOwner {\n        require(_HourlyPotAddress != address(0) );\n        HourlyPotAddress = _HourlyPotAddress;\n    }\n\n    function set_WeeklyPotAddress(address _WeeklyPotAddress) external onlyOwner {\n        require(_WeeklyPotAddress != address(0) );\n        WeeklyPotAddress = _WeeklyPotAddress;\n    }\n\n    function set_MonthlyPotAddress(address _MonthlyPotAddress) external onlyOwner {\n        require(_MonthlyPotAddress != address(0) );\n        MonthlyPotAddress = _MonthlyPotAddress;\n    }\n\n    /*\n    function createLottery(address _VRF, address weeklyAddr, address monthlyAddr, address liquidityAddr) public onlyOwner {\n\n        address generatorAddress = address(this);\n\n        // require(bytes(name).length > 0);\n        address newLottery = address(new LotteryCore(_VRF, generatorAddress, weeklyAddr, monthlyAddr, liquidityAddr));\n        lotteries.push(newLottery);\n        lotteryStructs[newLottery].index = lotteries.length - 1;\n        lotteryStructs[newLottery].creator = msg.sender;\n        lotteryStructs[newLottery].totalBalance = 0;\n        lotteryStructs[newLottery].winnerAddress = address(0);\n\n        emit LotteryCreated( newLottery );\n    }\n\n    function deleteLottery(address lotteryAddress) public  onlyOwner {\n        require(msg.sender == lotteryStructs[lotteryAddress].creator);\n        uint indexToDelete = lotteryStructs[lotteryAddress].index;\n        address lastAddress = lotteries[lotteries.length - 1];\n        lotteries[indexToDelete] = lastAddress;\n        // lotteries.length --;\n    }\n    */\n\n    // function getLotteries() public view returns(address[]) {\n    //     return lotteries;\n    // }\n\n    // event LotteryCreated(\n    //     address lotteryAddress\n    // );\n}\n\n\n\n",
  "sourcePath": "/home/batis/SrcCode/myPRJ/SmartContBlockChain/BSCLottery/contracts/LotteryGenerator.sol",
  "compiler": {
    "name": "solc",
    "version": "0.8.13+commit.abaa5c0e.Emscripten.clang"
  },
  "schemaVersion": "3.4.3",
  "updatedAt": "2022-07-03T13:29:42.106Z",
  "networkType": "ethereum",
  "devdoc": {
    "author": "Batis Abhari (https://github.com/baties - ContactMe: abhari_Batis@hotmail.com)",
    "details": "Lottery Generator SmartContract - Parent of All Lottery MOdules - Also The Lottery DataBase is Here !",
    "kind": "dev",
    "methods": {
      "clearMonthlyWinnersArrayMap(address)": {
        "details": "Clear MOnthly Lottery Winner Array & Map Data and Releasing the Memory.",
        "params": {
          "_commander": ": The Address of Owner or Lottery Manager Which are the Only Allowed addresses for Running This Function.  "
        },
        "returns": {
          "_0": "True"
        }
      },
      "clearWeeklyWinnersArrayMap(address)": {
        "details": "Clear Weekly Lottery Winner Array & Map Data and Releasing the Memory.",
        "params": {
          "_commander": ": The Address of Owner or Lottery Manager Which are the Only Allowed addresses for Running This Function.  "
        },
        "returns": {
          "_0": "True"
        }
      },
      "clearlotteryWinnersArrayMap(address)": {
        "details": "Clear Lottery Winner Array & Map Data and Releasing the Memory.",
        "params": {
          "_commander": ": The Address of Owner or Lottery Manager Which are the Only Allowed addresses for Running This Function.  "
        },
        "returns": {
          "_0": "True"
        }
      },
      "getMonthlyWinners()": {
        "returns": {
          "_0": "Monthly Lottery Winners Array List"
        }
      },
      "getPotDirector()": {
        "returns": {
          "_0": "The Current Pot Director "
        }
      },
      "getWeeklyWinners()": {
        "returns": {
          "_0": "Weekly Lottery Winners Array List"
        }
      },
      "getWinners()": {
        "returns": {
          "_0": "Hourly Lottery Winners Array List"
        }
      },
      "owner()": {
        "details": "Returns the address of the current owner."
      },
      "renounceOwnership()": {
        "details": "Leaves the contract without owner. It will not be possible to call `onlyOwner` functions anymore. Can only be called by the current owner. NOTE: Renouncing ownership will leave the contract without an owner, thereby removing any functionality that is only available to the owner."
      },
      "setDirector(address)": {
        "details": "This function is Set a Pot Manager and Only should be called by the Owner"
      },
      "setMonthlyWinnersArrayMap(address,address,uint256)": {
        "details": "Save Monthly Data into Monthly Lottery Array & Monthly Lottery Map.",
        "params": {
          "_commander": ": The Address of Owner or Lottery Manager Which are the Only Allowed addresses for Running This Function.  ",
          "_winnerAddress": ": The Monthly Lottery Winner Wallet Address. ",
          "_winnerPrize": ": The Amount of Monthly Lottery Winner's Prize ."
        },
        "returns": {
          "_0": "MonthlyWinnerArray Lengh"
        }
      },
      "setWeeklyWinnersArrayMap(address,address,uint256)": {
        "details": "Save Weekly Data into Weekly Lottery Array & Weekly Lottery Map.",
        "params": {
          "_commander": ": The Address of Owner or Lottery Manager Which are the Only Allowed addresses for Running This Function.  ",
          "_winnerAddress": ": The Weekly Lottery Winner Wallet Address. ",
          "_winnerPrize": ": The Amount of Weekly Lottery Winner's Prize ."
        },
        "returns": {
          "_0": "WeeklyWinnerArray Lengh"
        }
      },
      "setlotteryStructs(address,address,uint256,address,uint8)": {
        "details": "A struct with Hourly, Daily, Weekly & Monthly Lotteries Data.",
        "params": {
          "_commander": ": The Address of Owner or Lottery Manager Which are the Only Allowed addresses for Running This Function.  ",
          "_lotteryAddress": ": Address of Lottery .",
          "_lotteryType": ": Type of Lottery (Hourly - Daily - Weekly - Monthly)",
          "_totalBalance": ": Total Balance in this Lottery .",
          "_winnerAddress": ": The Lottery Winner Wallet Address. "
        },
        "returns": {
          "_0": "True"
        }
      },
      "setlotteryWinnersArrayMap(address,address,uint256)": {
        "details": "Save Hourly Data into Hourly Lottery Array & Hourly Lottery Map.",
        "params": {
          "_commander": ": The Address of Owner or Lottery Manager Which are the Only Allowed addresses for Running This Function.",
          "_winnerAddress": ": The Hourly Lottery Winner Wallet Address. ",
          "_winnerPrize": ": The Amount of Hourly Lottery Winner's Prize ."
        },
        "returns": {
          "_0": "LotteryWinnerArray Lengh"
        }
      },
      "transferOwnership(address)": {
        "details": "Transfers ownership of the contract to a new account (`newOwner`). Can only be called by the current owner."
      }
    },
    "title": "Lottery Generator Smart Contract.",
    "version": 1
  },
  "userdoc": {
    "kind": "user",
    "methods": {
      "clearMonthlyWinnersArrayMap(address)": {
        "notice": "Clear Monthly Lottery Winner Array & Map Data "
      },
      "clearWeeklyWinnersArrayMap(address)": {
        "notice": "Clear Weekly Lottery Winner Array & Map Data "
      },
      "clearlotteryWinnersArrayMap(address)": {
        "notice": "Clear Lottery Winner Array & Map Data "
      },
      "getMonthlyWinners()": {
        "notice": "Get the List of Monthly Winners Wallet Addresses"
      },
      "getPotDirector()": {
        "notice": "Get The Address of Current Pot Director (Pot Manager)"
      },
      "getWeeklyWinners()": {
        "notice": "Get the List of Weekly Winners Wallet Addresses"
      },
      "getWinners()": {
        "notice": "Get The Total List of Hourly Lottery Winners Wallet Addresses"
      },
      "setDirector(address)": {
        "notice": "Set or Change The Address of Current Pot Director (Pot Manager)"
      },
      "setMonthlyWinnersArrayMap(address,address,uint256)": {
        "notice": "Save All Monthly Lotteries' Important Data "
      },
      "setWeeklyWinnersArrayMap(address,address,uint256)": {
        "notice": "Save All Weekly Lotteries' Important Data "
      },
      "setlotteryStructs(address,address,uint256,address,uint8)": {
        "notice": "Save All (Hourly, Daily, Weekly & Monthly) Lotteries' Important Data in One Place."
      },
      "setlotteryWinnersArrayMap(address,address,uint256)": {
        "notice": "Save All Hourly Lotteries' Important Data "
      }
    },
    "notice": "This SmartContract will be responsible for Lottery Generation in next Versions.",
    "version": 1
  }
}