{
  "contractName": "LotteryCore",
  "abi": [
    {
      "inputs": [
        {
          "internalType": "uint64",
          "name": "subscriptionId",
          "type": "uint64"
        },
        {
          "internalType": "address",
          "name": "generatorLotteryAddress",
          "type": "address"
        },
        {
          "internalType": "address",
          "name": "WeeklyLotteryAddress",
          "type": "address"
        },
        {
          "internalType": "address",
          "name": "MonthlyLotteryAddress",
          "type": "address"
        },
        {
          "internalType": "address",
          "name": "LiquidityPoolAddr",
          "type": "address"
        }
      ],
      "stateMutability": "nonpayable",
      "type": "constructor"
    },
    {
      "inputs": [
        {
          "internalType": "address",
          "name": "have",
          "type": "address"
        },
        {
          "internalType": "address",
          "name": "want",
          "type": "address"
        }
      ],
      "name": "OnlyCoordinatorCanFulfill",
      "type": "error"
    },
    {
      "anonymous": false,
      "inputs": [
        {
          "indexed": true,
          "internalType": "address",
          "name": "previousOwner",
          "type": "address"
        },
        {
          "indexed": true,
          "internalType": "address",
          "name": "newOwner",
          "type": "address"
        }
      ],
      "name": "OwnershipTransferred",
      "type": "event"
    },
    {
      "anonymous": false,
      "inputs": [
        {
          "indexed": false,
          "internalType": "address",
          "name": "potPlayer",
          "type": "address"
        },
        {
          "indexed": false,
          "internalType": "uint256",
          "name": "playerId",
          "type": "uint256"
        },
        {
          "indexed": false,
          "internalType": "uint256",
          "name": "PlayerValue",
          "type": "uint256"
        },
        {
          "indexed": false,
          "internalType": "uint256",
          "name": "ticketNumber",
          "type": "uint256"
        }
      ],
      "name": "PlayerRegister",
      "type": "event"
    },
    {
      "anonymous": false,
      "inputs": [
        {
          "indexed": false,
          "internalType": "address",
          "name": "potPlayer",
          "type": "address"
        },
        {
          "indexed": false,
          "internalType": "uint256[]",
          "name": "playerId",
          "type": "uint256[]"
        },
        {
          "indexed": false,
          "internalType": "uint256",
          "name": "playCount",
          "type": "uint256"
        },
        {
          "indexed": false,
          "internalType": "uint256",
          "name": "playerValue",
          "type": "uint256"
        },
        {
          "indexed": false,
          "internalType": "uint256",
          "name": "ticketNumber",
          "type": "uint256"
        }
      ],
      "name": "PlayerTotalValue",
      "type": "event"
    },
    {
      "anonymous": false,
      "inputs": [
        {
          "indexed": false,
          "internalType": "bool",
          "name": "isReadySelectWinner",
          "type": "bool"
        }
      ],
      "name": "ReadyForSelectWinner",
      "type": "event"
    },
    {
      "anonymous": false,
      "inputs": [
        {
          "indexed": false,
          "internalType": "address",
          "name": "potWinner",
          "type": "address"
        },
        {
          "indexed": false,
          "internalType": "uint256",
          "name": "winnerPrize",
          "type": "uint256"
        }
      ],
      "name": "SelectWinnerAddress",
      "type": "event"
    },
    {
      "anonymous": false,
      "inputs": [
        {
          "indexed": false,
          "internalType": "uint256",
          "name": "winnerIndex",
          "type": "uint256"
        },
        {
          "indexed": false,
          "internalType": "uint256",
          "name": "potBalance",
          "type": "uint256"
        },
        {
          "indexed": false,
          "internalType": "uint256",
          "name": "winnerPrize",
          "type": "uint256"
        }
      ],
      "name": "SelectWinnerIndex",
      "type": "event"
    },
    {
      "anonymous": false,
      "inputs": [
        {
          "indexed": false,
          "internalType": "uint256",
          "name": "vrfCalledTime",
          "type": "uint256"
        }
      ],
      "name": "StartSelectngWinner",
      "type": "event"
    },
    {
      "anonymous": false,
      "inputs": [
        {
          "indexed": false,
          "internalType": "address",
          "name": "receiver",
          "type": "address"
        },
        {
          "indexed": false,
          "internalType": "uint256",
          "name": "TrxValue",
          "type": "uint256"
        }
      ],
      "name": "TotalPayment",
      "type": "event"
    },
    {
      "stateMutability": "payable",
      "type": "fallback",
      "payable": true
    },
    {
      "inputs": [],
      "name": "owner",
      "outputs": [
        {
          "internalType": "address",
          "name": "",
          "type": "address"
        }
      ],
      "stateMutability": "view",
      "type": "function",
      "constant": true
    },
    {
      "inputs": [],
      "name": "potStartTime",
      "outputs": [
        {
          "internalType": "uint256",
          "name": "",
          "type": "uint256"
        }
      ],
      "stateMutability": "view",
      "type": "function",
      "constant": true
    },
    {
      "inputs": [],
      "name": "potWinnerPrize",
      "outputs": [
        {
          "internalType": "uint256",
          "name": "",
          "type": "uint256"
        }
      ],
      "stateMutability": "view",
      "type": "function",
      "constant": true
    },
    {
      "inputs": [
        {
          "internalType": "uint256",
          "name": "requestId",
          "type": "uint256"
        },
        {
          "internalType": "uint256[]",
          "name": "randomWords",
          "type": "uint256[]"
        }
      ],
      "name": "rawFulfillRandomWords",
      "outputs": [],
      "stateMutability": "nonpayable",
      "type": "function"
    },
    {
      "inputs": [],
      "name": "realPLayerCount",
      "outputs": [
        {
          "internalType": "uint256",
          "name": "",
          "type": "uint256"
        }
      ],
      "stateMutability": "view",
      "type": "function",
      "constant": true
    },
    {
      "inputs": [],
      "name": "renounceOwnership",
      "outputs": [],
      "stateMutability": "nonpayable",
      "type": "function"
    },
    {
      "inputs": [
        {
          "internalType": "uint256",
          "name": "",
          "type": "uint256"
        }
      ],
      "name": "s_randomWords",
      "outputs": [
        {
          "internalType": "uint256",
          "name": "",
          "type": "uint256"
        }
      ],
      "stateMutability": "view",
      "type": "function",
      "constant": true
    },
    {
      "inputs": [],
      "name": "s_requestId",
      "outputs": [
        {
          "internalType": "uint256",
          "name": "",
          "type": "uint256"
        }
      ],
      "stateMutability": "view",
      "type": "function",
      "constant": true
    },
    {
      "inputs": [
        {
          "internalType": "address",
          "name": "newOwner",
          "type": "address"
        }
      ],
      "name": "transferOwnership",
      "outputs": [],
      "stateMutability": "nonpayable",
      "type": "function"
    },
    {
      "stateMutability": "payable",
      "type": "receive",
      "payable": true
    },
    {
      "inputs": [],
      "name": "balanceInPot",
      "outputs": [
        {
          "internalType": "uint256",
          "name": "",
          "type": "uint256"
        }
      ],
      "stateMutability": "view",
      "type": "function",
      "constant": true
    },
    {
      "inputs": [],
      "name": "withdraw",
      "outputs": [],
      "stateMutability": "nonpayable",
      "type": "function"
    },
    {
      "inputs": [],
      "name": "requestRandomWords",
      "outputs": [],
      "stateMutability": "nonpayable",
      "type": "function"
    },
    {
      "inputs": [
        {
          "internalType": "uint256",
          "name": "numerator",
          "type": "uint256"
        },
        {
          "internalType": "uint256",
          "name": "denominator",
          "type": "uint256"
        }
      ],
      "name": "getDivided",
      "outputs": [
        {
          "internalType": "uint256",
          "name": "quotient",
          "type": "uint256"
        },
        {
          "internalType": "uint256",
          "name": "remainder",
          "type": "uint256"
        }
      ],
      "stateMutability": "pure",
      "type": "function",
      "constant": true
    },
    {
      "inputs": [],
      "name": "potInitialize",
      "outputs": [
        {
          "internalType": "bool",
          "name": "success",
          "type": "bool"
        }
      ],
      "stateMutability": "nonpayable",
      "type": "function"
    },
    {
      "inputs": [],
      "name": "play",
      "outputs": [
        {
          "internalType": "bool",
          "name": "success",
          "type": "bool"
        }
      ],
      "stateMutability": "payable",
      "type": "function",
      "payable": true
    },
    {
      "inputs": [],
      "name": "select_Winner",
      "outputs": [
        {
          "internalType": "bool",
          "name": "success",
          "type": "bool"
        }
      ],
      "stateMutability": "nonpayable",
      "type": "function"
    },
    {
      "inputs": [],
      "name": "select_Winner_Continue",
      "outputs": [
        {
          "internalType": "bool",
          "name": "success",
          "type": "bool"
        }
      ],
      "stateMutability": "nonpayable",
      "type": "function"
    },
    {
      "inputs": [
        {
          "internalType": "address",
          "name": "_WeeklyPotAddress",
          "type": "address"
        }
      ],
      "name": "set_WeeklyPotAddress",
      "outputs": [],
      "stateMutability": "nonpayable",
      "type": "function"
    },
    {
      "inputs": [
        {
          "internalType": "address",
          "name": "_MonthlyPotAddress",
          "type": "address"
        }
      ],
      "name": "set_MonthlyPotAddress",
      "outputs": [],
      "stateMutability": "nonpayable",
      "type": "function"
    },
    {
      "inputs": [
        {
          "internalType": "address",
          "name": "_contractAddr",
          "type": "address"
        }
      ],
      "name": "set_generatorLotteryAddress",
      "outputs": [],
      "stateMutability": "nonpayable",
      "type": "function"
    },
    {
      "inputs": [
        {
          "internalType": "address",
          "name": "_LiquidityPoolAddress",
          "type": "address"
        }
      ],
      "name": "set_LiquidityPoolAddress",
      "outputs": [],
      "stateMutability": "nonpayable",
      "type": "function"
    },
    {
      "inputs": [
        {
          "internalType": "address",
          "name": "_DirectorAddress",
          "type": "address"
        }
      ],
      "name": "setDirector",
      "outputs": [],
      "stateMutability": "nonpayable",
      "type": "function"
    },
    {
      "inputs": [],
      "name": "listPlayers",
      "outputs": [
        {
          "internalType": "address[]",
          "name": "",
          "type": "address[]"
        }
      ],
      "stateMutability": "view",
      "type": "function",
      "constant": true
    },
    {
      "inputs": [],
      "name": "getLotteryTickets",
      "outputs": [
        {
          "internalType": "uint256[]",
          "name": "",
          "type": "uint256[]"
        }
      ],
      "stateMutability": "view",
      "type": "function",
      "constant": true
    },
    {
      "inputs": [],
      "name": "isPotActive",
      "outputs": [
        {
          "internalType": "bool",
          "name": "",
          "type": "bool"
        }
      ],
      "stateMutability": "view",
      "type": "function",
      "constant": true
    },
    {
      "inputs": [],
      "name": "getTicketPrice",
      "outputs": [
        {
          "internalType": "uint256",
          "name": "",
          "type": "uint256"
        }
      ],
      "stateMutability": "pure",
      "type": "function",
      "constant": true
    },
    {
      "inputs": [],
      "name": "getTicketAmount",
      "outputs": [
        {
          "internalType": "uint256",
          "name": "",
          "type": "uint256"
        }
      ],
      "stateMutability": "view",
      "type": "function",
      "constant": true
    },
    {
      "inputs": [],
      "name": "getPlayersNumber",
      "outputs": [
        {
          "internalType": "uint256",
          "name": "",
          "type": "uint256"
        }
      ],
      "stateMutability": "view",
      "type": "function",
      "constant": true
    },
    {
      "inputs": [],
      "name": "getWinners",
      "outputs": [
        {
          "internalType": "address",
          "name": "",
          "type": "address"
        },
        {
          "internalType": "uint256",
          "name": "",
          "type": "uint256"
        }
      ],
      "stateMutability": "view",
      "type": "function",
      "constant": true
    },
    {
      "inputs": [],
      "name": "isReadySelectWinner",
      "outputs": [
        {
          "internalType": "bool",
          "name": "",
          "type": "bool"
        }
      ],
      "stateMutability": "view",
      "type": "function",
      "constant": true
    },
    {
      "inputs": [],
      "name": "isWinnerSelected",
      "outputs": [
        {
          "internalType": "bool",
          "name": "",
          "type": "bool"
        }
      ],
      "stateMutability": "view",
      "type": "function",
      "constant": true
    },
    {
      "inputs": [],
      "name": "getStartedTime",
      "outputs": [
        {
          "internalType": "uint256",
          "name": "",
          "type": "uint256"
        }
      ],
      "stateMutability": "view",
      "type": "function",
      "constant": true
    },
    {
      "inputs": [],
      "name": "getPotDirector",
      "outputs": [
        {
          "internalType": "address",
          "name": "",
          "type": "address"
        }
      ],
      "stateMutability": "view",
      "type": "function",
      "constant": true
    },
    {
      "inputs": [],
      "name": "getAllContractAddresses",
      "outputs": [
        {
          "internalType": "address",
          "name": "gAddress",
          "type": "address"
        },
        {
          "internalType": "address",
          "name": "lAddress",
          "type": "address"
        },
        {
          "internalType": "address",
          "name": "wAddress",
          "type": "address"
        },
        {
          "internalType": "address",
          "name": "mAddress",
          "type": "address"
        }
      ],
      "stateMutability": "view",
      "type": "function",
      "constant": true
    },
    {
      "inputs": [
        {
          "internalType": "address",
          "name": "PlayerAddress",
          "type": "address"
        }
      ],
      "name": "getPlayerAmounts",
      "outputs": [
        {
          "internalType": "uint256",
          "name": "",
          "type": "uint256"
        },
        {
          "internalType": "uint256",
          "name": "",
          "type": "uint256"
        }
      ],
      "stateMutability": "view",
      "type": "function",
      "constant": true
    },
    {
      "inputs": [
        {
          "internalType": "address",
          "name": "PlayerAddress",
          "type": "address"
        }
      ],
      "name": "getPlayerValue",
      "outputs": [
        {
          "internalType": "uint256",
          "name": "",
          "type": "uint256"
        }
      ],
      "stateMutability": "view",
      "type": "function",
      "constant": true
    }
  ],
  "bytecode": "0x60a0604052600380546001600160a01b0319908116736168499c0cffcacd319c818142124b7a15e857ab17909155600480549091167301be23585060835e02b77ef475b0cc51aa1e07091790557fd89b2bf150e3b9e13446986e571fb9cab24b13cea0a43ea20a6049a85cc807cc6005556006805466010003000186a06001600160501b03199091161790556000600e819055600f8190556010819055601155348015620000ac57600080fd5b506040516200256438038062002564833981016040819052620000cf916200021d565b6003546001600160a01b0316620000e633620001b0565b6001600160a01b03908116608052600354600180549183166001600160a01b0319928316179055600454600280549184166001600160e01b031990921691909117600160a01b6001600160401b03999099168902179055600d80546001600160a81b0319163360ff60a01b19161790971760ff60a81b19169096556012805460ff1916905542600e5560098054871695821695909517909455600a80548616918516919091179055600b8054851692841692909217909155600c805490931691161790556200029a565b600080546001600160a01b038381166001600160a01b0319831681178455604051919092169283917f8be0079c531659141344cd1fd0a4f28419497f9722a3daafe3b4186f6b6457e09190a35050565b80516001600160a01b03811681146200021857600080fd5b919050565b600080600080600060a086880312156200023657600080fd5b85516001600160401b03811681146200024e57600080fd5b94506200025e6020870162000200565b93506200026e6040870162000200565b92506200027e6060870162000200565b91506200028e6080870162000200565b90509295509295909350565b6080516122a7620002bd6000396000818161078201526107dd01526122a76000f3fe60806040526004361061022f5760003560e01c8063715018a611610126578063c5ae6f3e116100a7578063e0c8628911610079578063e8b05e3811610061578063e8b05e3814610668578063f2fde38b14610687578063f6eaffc8146106a757005b8063e0c862891461063d578063e89e106a1461065257005b8063c5ae6f3e146105b0578063c7c15ac9146105ce578063d7573c11146105e4578063df15c37e146105fa57005b80638da5cb5b116100f85780639e94d5ab116100e05780639e94d5ab1461054a578063a8078b7a14610583578063bfdf8b121461059857005b80638da5cb5b1461051057806393e84cd91461054257005b8063715018a6146104ac578063766eef11146104c15780638613e4cf146104d657806387bb7ae0146104f657005b80633f4600c3116101b05780635efaf0441161018257806364605d511161016a57806364605d51146104605780636c253437146104825780636cf699581461049757005b80635efaf04414610420578063614f6f871461044057005b80633f4600c3146103a95780633fa420c4146103bf578063442db8fb146103df5780634442713c1461040157005b80632ac75ab5116102015780633818b9ef116101e95780633818b9ef146103325780633b33b61a146103475780633ccfd60b1461039457005b80632ac75ab5146102cf5780633298944a146102f457005b806314e5998714610238578063194d02d71461025a5780631fe543e31461028f57806326ba4319146102af57005b3661023657005b005b34801561024457600080fd5b50475b6040519081526020015b60405180910390f35b34801561026657600080fd5b5061027a610275366004611f25565b6106c7565b60408051928352602083019190915201610251565b34801561029b57600080fd5b506102366102aa366004611f5d565b610777565b3480156102bb57600080fd5b506102366102ca366004612027565b610818565b3480156102db57600080fd5b506102e46108a7565b6040519015158152602001610251565b34801561030057600080fd5b5061027a61030f366004612027565b6001600160a01b0316600090815260136020526040902080546001909101549091565b34801561033e57600080fd5b506102e4610a44565b34801561035357600080fd5b50600954600a54600b54600c54604080516001600160a01b039586168152938516602085015291841691830191909152919091166060820152608001610251565b3480156103a057600080fd5b50610236610c98565b3480156103b557600080fd5b5061024760115481565b3480156103cb57600080fd5b506102366103da366004612027565b610d21565b3480156103eb57600080fd5b506103f4610db0565b6040516102519190612057565b34801561040d57600080fd5b50600d54600160a01b900460ff166102e4565b34801561042c57600080fd5b5061023661043b366004612027565b610e08565b34801561044c57600080fd5b5061023661045b366004612027565b610e97565b34801561046c57600080fd5b50610475610f26565b604051610251919061209b565b34801561048e57600080fd5b506102e4610f87565b3480156104a357600080fd5b50601554610247565b3480156104b857600080fd5b50610236611072565b3480156104cd57600080fd5b50601454610247565b3480156104e257600080fd5b506102366104f1366004612027565b6110d8565b34801561050257600080fd5b50662386f26fc10000610247565b34801561051c57600080fd5b506000546001600160a01b03165b6040516001600160a01b039091168152602001610251565b6102e4611154565b34801561055657600080fd5b50610247610565366004612027565b6001600160a01b031660009081526013602052604090206001015490565b34801561058f57600080fd5b50610247611652565b3480156105a457600080fd5b5060125460ff166102e4565b3480156105bc57600080fd5b506018546001600160a01b031661052a565b3480156105da57600080fd5b5061024760105481565b3480156105f057600080fd5b50610247600e5481565b34801561060657600080fd5b5061061e6017546011546001600160a01b0390911691565b604080516001600160a01b039093168352602083019190915201610251565b34801561064957600080fd5b50610236611667565b34801561065e57600080fd5b5061024760085481565b34801561067457600080fd5b50600d54600160a81b900460ff166102e4565b34801561069357600080fd5b506102366106a2366004612027565b6117aa565b3480156106b357600080fd5b506102476106c23660046120dc565b611889565b6000806106d8565b60405180910390fd5b6000841161074e5760405162461bcd60e51b815260206004820152602b60248201527f4469766973696f6e206973204e6f7420506f737369626c65202c20427567206960448201527f6e204e756d62657273202100000000000000000000000000000000000000000060648201526084016106cf565b6107588385612121565b91506107648284612135565b61076e9085612154565b90509250929050565b336001600160a01b037f0000000000000000000000000000000000000000000000000000000000000000161461080a576040517f1cf993f40000000000000000000000000000000000000000000000000000000081523360048201526001600160a01b037f00000000000000000000000000000000000000000000000000000000000000001660248201526044016106cf565b61081482826118aa565b5050565b6000546001600160a01b031633146108725760405162461bcd60e51b815260206004820181905260248201527f4f776e61626c653a2063616c6c6572206973206e6f7420746865206f776e657260448201526064016106cf565b6001600160a01b03811661088557600080fd5b601880546001600160a01b0319166001600160a01b0392909216919091179055565b6018546000906001600160a01b03163314806108cd5750600d546001600160a01b031633145b6109105760405162461bcd60e51b81526020600482015260146024820152735065726d697373696f6e2044656e69656420212160601b60448201526064016106cf565b600d54600160a81b900460ff1615156001146109845760405162461bcd60e51b815260206004820152602d60248201527f54686520506f74206973206e6f7420726561647920666f722053656c6563746960448201526c3733903a3432902bb4b73732b960991b60648201526084016106cf565b60125460ff16156109fd5760405162461bcd60e51b815260206004820152602660248201527f5468652057696e6e657220686173204e6f74206265656e2053656c656374656460448201527f205965742021000000000000000000000000000000000000000000000000000060648201526084016106cf565b42600f8190556040519081527f3b0b75510568e9c6916c9a7c853a3892b9634e5ca8717abbec6cea1b7f4ac2d79060200160405180910390a1610a3e611667565b50600190565b6018546000906001600160a01b0316331480610a6a5750600d546001600160a01b031633145b610aad5760405162461bcd60e51b81526020600482015260146024820152735065726d697373696f6e2044656e69656420212160601b60448201526064016106cf565b600d54600160a81b900460ff161515600114610b215760405162461bcd60e51b815260206004820152602d60248201527f54686520506f74206973206e6f7420726561647920666f722053656c6563746960448201526c3733903a3432902bb4b73732b960991b60648201526084016106cf565b60125460ff161515600114610b9e5760405162461bcd60e51b815260206004820152602660248201527f5468652057696e6e657220686173206265656e2053656c65637465642062656660448201527f6f7265202121000000000000000000000000000000000000000000000000000060648201526084016106cf565b60006015805490506007600081548110610bba57610bba61216b565b9060005260206000200154610bcf9190612181565b905060158181548110610be457610be461216b565b90600052602060002001549050600080600080610c0085611905565b604080518a8152476020820152908101859052939750919550935091507f274f2e5ea35472f60f411beb007713c0f1c1b574f260789eedee1789cd49d9f59060600160405180910390a1610c558547866119c5565b50610c608585611b4e565b610c6b838383611bee565b610c73611d73565b5050600d805461ffff60a01b1916905550506012805460ff1916905550600192915050565b6000546001600160a01b03163314610cf25760405162461bcd60e51b815260206004820181905260248201527f4f776e61626c653a2063616c6c6572206973206e6f7420746865206f776e657260448201526064016106cf565b60405133904780156108fc02916000818181858888f19350505050158015610d1e573d6000803e3d6000fd5b50565b6000546001600160a01b03163314610d7b5760405162461bcd60e51b815260206004820181905260248201527f4f776e61626c653a2063616c6c6572206973206e6f7420746865206f776e657260448201526064016106cf565b6001600160a01b038116610d8e57600080fd5b600b80546001600160a01b0319166001600160a01b0392909216919091179055565b60606015805480602002602001604051908101604052809291908181526020018280548015610dfe57602002820191906000526020600020905b815481526020019060010190808311610dea575b5050505050905090565b6000546001600160a01b03163314610e625760405162461bcd60e51b815260206004820181905260248201527f4f776e61626c653a2063616c6c6572206973206e6f7420746865206f776e657260448201526064016106cf565b6001600160a01b038116610e7557600080fd5b600a80546001600160a01b0319166001600160a01b0392909216919091179055565b6000546001600160a01b03163314610ef15760405162461bcd60e51b815260206004820181905260248201527f4f776e61626c653a2063616c6c6572206973206e6f7420746865206f776e657260448201526064016106cf565b6001600160a01b038116610f0457600080fd5b600c80546001600160a01b0319166001600160a01b0392909216919091179055565b60606014805480602002602001604051908101604052809291908181526020018280548015610dfe57602002820191906000526020600020905b81546001600160a01b03168152600190910190602001808311610f60575050505050905090565b6018546000906001600160a01b0316331480610fad5750600d546001600160a01b031633145b610ff05760405162461bcd60e51b81526020600482015260146024820152735065726d697373696f6e2044656e69656420212160601b60448201526064016106cf565b600d54600160a01b900460ff161561104a5760405162461bcd60e51b815260206004820152601b60248201527f54686520506f742069732073746172746564206265666f72652021000000000060448201526064016106cf565b50600d805461ffff60a01b1916600160a01b17905542600e556012805460ff19169055600190565b6000546001600160a01b031633146110cc5760405162461bcd60e51b815260206004820181905260248201527f4f776e61626c653a2063616c6c6572206973206e6f7420746865206f776e657260448201526064016106cf565b6110d66000611e2e565b565b6000546001600160a01b031633146111325760405162461bcd60e51b815260206004820181905260248201527f4f776e61626c653a2063616c6c6572206973206e6f7420746865206f776e657260448201526064016106cf565b600980546001600160a01b0319166001600160a01b0392909216919091179055565b600d54600090600160a01b900460ff166111d65760405162461bcd60e51b815260206004820152603b60248201527f54686520506f7420686173206e6f74206265656e20526561647920746f20506c60448201527f617920796574204f72205468652047616d65206973204f76657221000000000060648201526084016106cf565b662386f26fc1000034101580156111f5575068056bc75e2d6310000034105b6112675760405162461bcd60e51b815260206004820152602660248201527f56616c75652073686f756c64206265206265747765656e20302e30312026203160448201527f303020424e42000000000000000000000000000000000000000000000000000060648201526084016106cf565b33600090815260136020526040902060010154678ac7230489e800008111156112d25760405162461bcd60e51b815260206004820152601660248201527f596f7520706c6179656420746f6f206d7563682021210000000000000000000060448201526064016106cf565b6000806112e634662386f26fc100006106c7565b91509150806000146113605760405162461bcd60e51b815260206004820152602e60248201527f56616c75652073686f756c6420626520616e20496e7465676572206d7574697060448201527f6c65206f6620302e303120424e4200000000000000000000000000000000000060648201526084016106cf565b601480546001818101835560008381527fce6d7b5282bd9a3661ae061feed1dbda4e52ab073b1f9285be6e155d9c38d4ec90920180546001600160a01b03191633179055915490916113b191612154565b60155490915060005b8481101561140957601580546001810182556000919091527f55f448fdea98c4d29eb340757ef0a66cd03dbb9538908a6a81d96026b71ec475018390558061140181612195565b9150506113ba565b506015546040805160608101825284815260208101849052908101829052601680546001810182556000919091526114689160039182027fd833147d7dc355ba459fc788f669e58cfaf9dc25ddcd0702e87d69c7b51242890191611e7e565b5060165433600090815260136020526040812080546001929061148c9084906121ae565b909155505033600090815260136020526040812060010180543492906114b39084906121ae565b909155505033600090815260136020526040812060020180548892906114da9084906121ae565b90915550503360008181526013602090815260408220600481018054600181810183559185528385200189905560038201805480830182559085529284209092018590559290915290549003611540576010805490600061153a83612195565b91905055505b67016345785d8a0000471015801561155b5750600560105410155b1561158f57600d80547fffffffffffffffffffff00ffffffffffffffffffffffffffffffffffffffffff16600160a81b1790555b604080513381526020810186905234818301526060810188905290517f8de5754e4ed9d4994bdb4b2b8c12dfcd51b0e994c1d34a7f20fe7f3d3fbb7bc29181900360800190a1336000908152601360205260409020546001101561164857336000818152601360205260409081902080546001820154600283015493517ff0b342fc13c65867c873cfbf6e19b5285bae679018bdf3376a4baca5ff066e0d9561163f9590946004019392916121c6565b60405180910390a15b5050505050505090565b6000600e54426116629190612154565b905090565b6018546001600160a01b031633148061168a5750600d546001600160a01b031633145b6116cd5760405162461bcd60e51b81526020600482015260146024820152735065726d697373696f6e2044656e69656420212160601b60448201526064016106cf565b6001546005546002546006546040517f5d3b1d300000000000000000000000000000000000000000000000000000000081526004810193909352600160a01b90910467ffffffffffffffff166024830152640100000000810461ffff16604483015263ffffffff808216606484015266010000000000009091041660848201526001600160a01b0390911690635d3b1d309060a4016020604051808303816000875af1158015611781573d6000803e3d6000fd5b505050506040513d601f19601f820116820180604052508101906117a59190612236565b600855565b6000546001600160a01b031633146118045760405162461bcd60e51b815260206004820181905260248201527f4f776e61626c653a2063616c6c6572206973206e6f7420746865206f776e657260448201526064016106cf565b6001600160a01b0381166118805760405162461bcd60e51b815260206004820152602660248201527f4f776e61626c653a206e6577206f776e657220697320746865207a65726f206160448201527f646472657373000000000000000000000000000000000000000000000000000060648201526084016106cf565b610d1e81611e2e565b6007818154811061189957600080fd5b600091825260209091200154905081565b80516118bd906007906020840190611ebc565b506012805460ff191660019081179091556040519081527f320b3a07d7df24a614650bb07173e3a57f3e687cb2e87e07ab99e0854d09493c9060200160405180910390a15050565b60008060008060004790506000601487815481106119255761192561216b565b60009182526020808320909101546001600160a01b0316808352601390915260409091206001015490915061195a8184612154565b96506119678760026106c7565b50965061197481886121ae565b965060006119828885612154565b905061198f8160146106c7565b509650869550859050876119a4826002612135565b6119ae9086612154565b6119b89190612154565b9450505050509193509193565b6000806000601486815481106119dd576119dd61216b565b6000918252602082200154601780546001600160a01b0319166001600160a01b0392831690811790915560118790556009546040517f3305bd30000000000000000000000000000000000000000000000000000000008152306004820152336024820152604481018a905260648101929092526084820193909352911690633305bd309060a4016020604051808303816000875af1158015611a83573d6000803e3d6000fd5b505050506040513d601f19601f82011682018060405250810190611aa7919061224f565b6009546017546040517fa0f569340000000000000000000000000000000000000000000000000000000081523360048201526001600160a01b03918216602482015260448101889052929450169063a0f56934906064016020604051808303816000875af1158015611b1d573d6000803e3d6000fd5b505050506040513d601f19601f82011682018060405250810190611b419190612236565b5060019695505050505050565b600060148381548110611b6357611b6361216b565b60009182526020822001546040516001600160a01b039091169250829184156108fc02918591818181858888f19350505050158015611ba6573d6000803e3d6000fd5b50604080516001600160a01b0383168152602081018490527f9b320e270eb528aa46b3a21b196f1da153ccb2d5637e892594474e969fe6b7a9910160405180910390a1505050565b600b546040516001600160a01b0390911690819085156108fc029086906000818181858888f19350505050158015611c2a573d6000803e3d6000fd5b50604080516001600160a01b0383168152602081018690527fd36f5f37e53a101e11e745c4b553773a94d17d9d7cec00640ac8331369a76d11910160405180910390a150600c546040516001600160a01b0390911690819084156108fc029085906000818181858888f19350505050158015611caa573d6000803e3d6000fd5b50604080516001600160a01b0383168152602081018590527fd36f5f37e53a101e11e745c4b553773a94d17d9d7cec00640ac8331369a76d11910160405180910390a150600a546040516001600160a01b0390911690819083156108fc029084906000818181858888f19350505050158015611d2a573d6000803e3d6000fd5b50604080516001600160a01b0383168152602081018490527fd36f5f37e53a101e11e745c4b553773a94d17d9d7cec00640ac8331369a76d11910160405180910390a150505050565b60008060005b601454611d8890600190612154565b8111611e095760148181548110611da157611da161216b565b60009182526020808320909101546001600160a01b0316808352601390915260408220828155600181018390556002810183905590935090611de66003830182611ef6565b611df4600483016000611ef6565b50508080611e0190612195565b915050611d79565b50611e1660146000611ef6565b611e2260156000611ef6565b50506000601055600190565b600080546001600160a01b038381166001600160a01b0319831681178455604051919092169283917f8be0079c531659141344cd1fd0a4f28419497f9722a3daafe3b4186f6b6457e09190a35050565b8260038101928215611eac579160200282015b82811115611eac578251825591602001919060010190611e91565b50611eb8929150611f10565b5090565b828054828255906000526020600020908101928215611eac5791602002820182811115611eac578251825591602001919060010190611e91565b5080546000825590600052602060002090810190610d1e91905b5b80821115611eb85760008155600101611f11565b60008060408385031215611f3857600080fd5b50508035926020909101359150565b634e487b7160e01b600052604160045260246000fd5b60008060408385031215611f7057600080fd5b8235915060208084013567ffffffffffffffff80821115611f9057600080fd5b818601915086601f830112611fa457600080fd5b813581811115611fb657611fb6611f47565b8060051b604051601f19603f83011681018181108582111715611fdb57611fdb611f47565b604052918252848201925083810185019189831115611ff957600080fd5b938501935b8285101561201757843584529385019392850192611ffe565b8096505050505050509250929050565b60006020828403121561203957600080fd5b81356001600160a01b038116811461205057600080fd5b9392505050565b6020808252825182820181905260009190848201906040850190845b8181101561208f57835183529284019291840191600101612073565b50909695505050505050565b6020808252825182820181905260009190848201906040850190845b8181101561208f5783516001600160a01b0316835292840192918401916001016120b7565b6000602082840312156120ee57600080fd5b5035919050565b634e487b7160e01b600052601260045260246000fd5b634e487b7160e01b600052601160045260246000fd5b600082612130576121306120f5565b500490565b600081600019048311821515161561214f5761214f61210b565b500290565b6000828210156121665761216661210b565b500390565b634e487b7160e01b600052603260045260246000fd5b600082612190576121906120f5565b500690565b6000600182016121a7576121a761210b565b5060010190565b600082198211156121c1576121c161210b565b500190565b600060a082016001600160a01b0388168352602060a08185015281885480845260c0860191508960005282600020935060005b81811015612215578454835260019485019492840192016121f9565b50506040850197909752505050606081019290925260809091015292915050565b60006020828403121561224857600080fd5b5051919050565b60006020828403121561226157600080fd5b8151801515811461205057600080fdfea2646970667358221220e31eba0f6fc127db823c48e1aaa43605b1cfafc89d91512e345a2871643350f764736f6c634300080d0033",
  "immutableReferences": {
    "10": [
      {
        "length": 32,
        "start": 1922
      },
      {
        "length": 32,
        "start": 2013
      }
    ]
  },
  "source": "// SPDX-License-Identifier: GNU-GPLv3\npragma solidity ^0.8.0;\n// pragma experimental ABIEncoderV2;\n\nimport \"@openzeppelin/contracts/access/Ownable.sol\";\nimport \"@openzeppelin/contracts/utils/math/SafeMath.sol\";\n\nimport \"@chainlink/contracts/src/v0.8/interfaces/LinkTokenInterface.sol\";\nimport \"@chainlink/contracts/src/v0.8/interfaces/VRFCoordinatorV2Interface.sol\";\nimport \"@chainlink/contracts/src/v0.8/VRFConsumerBaseV2.sol\";\n\n\n// import \"./VRFv2SubscriptionManager.sol\";\n// import \"./VRFv2Consumer.sol\";\n\n// import \"truffle/Console.sol\";\n// import \"hardhat/console.sol\";\n\nimport \"./LotteryInterface.sol\";\n\n/**\n************************************************************************************\n************************************************************************************\n*/\n\n/**\n  * @title Core SmartContract for BNB Game Lottery \n  * @author Batis Abhari (https://github.com/baties - ContactMe: abhari_Batis@hotmail.com)\n  * @notice This SmartContract is responsible for implimentation of Lottery Core System and communication with the Players \n  * @dev  \n*/\ncontract LotteryCore is Ownable, VRFConsumerBaseV2 {\n\n  VRFCoordinatorV2Interface COORDINATOR;\n  LinkTokenInterface LINKTOKEN;\n  uint64 s_subscriptionId;\n\n  // Rinkeby coordinator. For other networks,\n  // see https://docs.chain.link/docs/vrf-contracts/#configurations\n  address vrfCoordinator = 0x6168499c0cFfCaCD319c818142124B7A15E857ab;  // Rinkeby\n  // address vrfCoordinator = 0x6A2AAd07396B36Fe02a22b33cf443582f682c82f;  // BSC TestNet coordinator\n\n  // Rinkeby LINK token contract. For other networks,\n  // see https://docs.chain.link/docs/vrf-contracts/#configurations\n  address link = 0x01BE23585060835E02B77ef475b0Cc51aA1e0709;  // Rinkeby\n  // address link = 0x84b9B910527Ad5C03A9Ca831909E21e236EA7b06;  //  BSC TestNet LINK token\n\n  // The gas lane to use, which specifies the maximum gas price to bump to.\n  // For a list of available gas lanes on each network,\n  // see https://docs.chain.link/docs/vrf-contracts/#configurations\n  bytes32 keyHash = 0xd89b2bf150e3b9e13446986e571fb9cab24b13cea0a43ea20a6049a85cc807cc;  // Rinkeby\n  // bytes32 keyHash = 0xd4bb89654db74673a187bd804519e65e3f71a52bc55f11da7601a13dcf505314;  //  BSC TestNet keyhash\n  \n\n  uint32 callbackGasLimit = 100000;\n  uint16 requestConfirmations = 3;\n  uint32 numWords =  1;\n\n  uint256[] public s_randomWords;\n  uint256 public s_requestId;\n\n\n  // address private _VRF;\n  address private generatorLotteryAddr;\n  address private LiquidityPoolAddress;\n  // address private MultiSigWalletAddress;\n  address private WeeklyPotAddress;\n  address private MonthlyPotAddress;   \n  address private LotteryOwner;\n\n  uint constant TICKET_PRICE = 10 * 1e15; // finney (0.01 Ether)\n\n  bool private lPotActive;  \n  bool private lReadySelectWinner; \n  uint public potStartTime = 0;\n  uint private vrfCalledTime = 0;\n  uint public realPLayerCount = 0;\n  uint public potWinnerPrize = 0;\n  bool private lWinnerSelected;\n\n  struct PotPlayerStr{\n    uint PaymentCount;\n    uint paymentValue;\n    uint TicketNumbers;\n    uint[] TicketsId;\n    uint[] PlayersId;\n  }\n\n  mapping (address => PotPlayerStr) private PotPlayersMap;  \n  address[] private potPlayersArray;  \n  uint[] private potTickets;\n  uint[3][] private potTicketIds;  /* ToDo: Change Search routine base on the Start and End of Tickets for each Address (ID)  */ \n  address private potWinnerAddress;\n  address private potDirector;  /* ToDo: All Main Action must be controlled only by Owner or Director */\n   \n  /* ToDo : Lottery Pot Generator Structure as a Wrapper for Lottery Core */\n  // struct LotteryPot{\n  //   string potLabel;\n  //   uint entryCount;\n  //   uint potSerial;\n  //   uint potValue;\n  //   // mapping(address => PotPlayer) players;\n  // }\n\n  event SelectWinnerIndex(uint winnerIndex, uint potBalance, uint winnerPrize);\n  event SelectWinnerAddress(address potWinner, uint winnerPrize);\n  event PlayerRegister(address potPlayer, uint playerId, uint PlayerValue, uint ticketNumber);\n  event PlayerTotalValue(address potPlayer, uint[] playerId, uint playCount, uint playerValue, uint ticketNumber);\n  event TotalPayment(address receiver, uint TrxValue);\n  event ReadyForSelectWinner(bool isReadySelectWinner);\n  event StartSelectngWinner(uint vrfCalledTime);\n\n  // constructor(address VRF, address generatorLotteryAddress, address WeeklyLotteryAddress, address MonthlyLotteryAddress, address LiquidityPoolAddr) {\n  constructor(uint64 subscriptionId, address generatorLotteryAddress, address WeeklyLotteryAddress, address MonthlyLotteryAddress, address LiquidityPoolAddr) VRFConsumerBaseV2(vrfCoordinator) {\n    COORDINATOR = VRFCoordinatorV2Interface(vrfCoordinator);\n    LINKTOKEN = LinkTokenInterface(link);\n    s_subscriptionId = subscriptionId;\n    LotteryOwner = msg.sender;\n    lPotActive = true;\n    lReadySelectWinner = false;\n    lWinnerSelected = false;\n    potStartTime = block.timestamp;\n    generatorLotteryAddr = generatorLotteryAddress;\n    LiquidityPoolAddress = LiquidityPoolAddr ;\n    WeeklyPotAddress = WeeklyLotteryAddress ;\n    MonthlyPotAddress = MonthlyLotteryAddress ;   \n    // _VRF = VRF;\n  }\n\n  /* ToDo : Add & Complete Fallback routine */\n  fallback() external payable {\n  }\n  receive() external payable {\n  }\n\n  // modifier onlyOwner() {\n  //   require(msg.sender == LotteryOwner, \"Owner Only! . You have not the right Access.\");\n  //   _;\n  // }\n\n  modifier isAllowedManager() {\n      require( msg.sender == potDirector || msg.sender == LotteryOwner , \"Permission Denied !!\" );\n      _;\n  }\n\n  modifier isGameOn() {\n      require(lPotActive , \"The Pot has not been Ready to Play yet Or The Game is Over!\");  // && !lReadySelectWinner \n      _;\n  }\n\n  modifier isPotValuable() {\n      require( (address(this).balance >= 0.1 ether && potPlayersArray.length >= 5) , \"The Pot is not Filled Enough !\");\n      _;\n  }\n\n  function balanceInPot() public view returns(uint){\n    return address(this).balance;\n  }\n\n  function withdraw() external onlyOwner {\n    payable(msg.sender).transfer(address(this).balance);\n  }\n\n  /**\n    * @notice Request Random Words From VRF Coordinator\n    * @dev For more Details refer to : https://docs.chain.link/docs/chainlink-vrf-best-practices/#getting-multiple-random-numbers\n  */\n  function requestRandomWords() public isAllowedManager {    // external   onlyOwner\n    // Will revert if subscription is not set and funded.\n    s_requestId = COORDINATOR.requestRandomWords(\n      keyHash,\n      s_subscriptionId,\n      requestConfirmations,\n      callbackGasLimit,\n      numWords\n    );\n  }\n\n  /**\n    * @notice VRF Coordinator Call Back this Function after generating Random Number\n    * @dev For more Details refer to : https://docs.chain.link/docs/chainlink-vrf-best-practices/#getting-multiple-random-numbers\n  */\n  function fulfillRandomWords(\n    uint256, /* requestId */\n    uint256[] memory randomWords\n  ) internal override {\n    s_randomWords = randomWords;\n    // select_Winner_Continue();\n    lWinnerSelected = true;\n    emit ReadyForSelectWinner(lWinnerSelected);\n  }\n\n  /* ToDo : Replace This function with OpenZeppelin SafeMath */\n  /**\n    * @notice Function for deviding two Integer Numbers and return the results.\n    * @dev Safe Function for Devision Operation.\n    * @param numerator : The Integer Number which is being devided on another Integer Number.\n    * @param denominator : The Integer Number which another Int NUmber is devided by this.  \n    * @return quotient and remainder of the Devision, Both are Integer Numbers. \n  */\n  function getDivided(uint numerator, uint denominator) public pure returns(uint quotient, uint remainder) {\n    require( denominator >= 0, \"Division is Not Possible , Bug in Numbers !\");\n    require( numerator > 0, \"Division is Not Possible , Bug in Numbers !\");\n    quotient  = numerator / denominator; \n    remainder = numerator - denominator * quotient;\n  }\n\n  /**\n    * @notice The Local Random Generator Function.\n    * @dev The Local Random Generator Function for Local Development and Running the Tests.\n    * @return None. \n  */\n  function randomGenerator() private view returns (uint) {\n    return uint(\n      keccak256(\n        abi.encodePacked(\n          block.difficulty, block.timestamp, potTickets ))) ;\n  }\n  \n  // function getlRandomWords() external view returns (uint256) {\n  //    return s_randomWords[0];\n  // }\n\n  // function lrequestRandomWords(address _VRFv2) public isAllowedManager {\n  //   VRFv2Consumer(_VRFv2).requestRandomWords() ;\n  // }\n\n  // function getRandomValue(address _VRFv2) public view onlyOwner returns (uint256 randomWords) {\n  //   // uint8 zeroOne = uint8(randomGenerator() % 2);\n  //   // randomWords = randomGenerator();\n  //   randomWords = VRFv2Consumer(_VRFv2).getlRandomWords();\n  // }\n\n  // function rRandomValue() public onlyOwner {\n  //   requestRandomWords();\n  // }\n\n  /**\n    * @notice Hourly Lottery Pot Initialization.\n    * @dev AtFirst The Hourly Lottery have been Initialized for Default but after each Pot it Must be Initialized for next Pot .\n    * @return success Flag \n  */\n  function potInitialize() external isAllowedManager returns(bool success) {\n    require(lPotActive == false, \"The Pot is started before !\");\n    lPotActive = true ;\n    lReadySelectWinner = false;\n    potStartTime = block.timestamp;\n    lWinnerSelected = false;\n    success = true;\n  }\n\n  /**\n    * @notice Players' Operation and Calculation after Sending Transaction to the SmartContract. \n    * @dev Payable Function. \n    * @dev This Function is resposible for Accepting new Gamers in Hourly Lottery \n    * @return success Flag\n  */\n  function play() public payable isGameOn returns(bool success) {\n    require(msg.value >= 0.01 ether && msg.value < 100 ether, \"Value should be between 0.01 & 100 BNB\");\n\n    uint userPotAmount = PotPlayersMap[msg.sender].paymentValue;\n    require(userPotAmount <= 10 ether, \"You played too much !!\");\n\n    /* ToDo: Replace with SafeMath */\n    (uint ticketNumber, uint remainder ) = getDivided(msg.value, TICKET_PRICE); // 10000000000000000\n    require(remainder == 0, \"Value should be an Integer mutiple of 0.01 BNB\");\n\n    potPlayersArray.push( msg.sender );\n    uint id = potPlayersArray.length - 1; \n\n    uint ticketStart = potTickets.length;\n    for (uint jj = 0; jj < ticketNumber; jj++) {\n      potTickets.push( id );\n    }\n    uint ticketEnd = potTickets.length;\n    potTicketIds.push([id, ticketStart, ticketEnd]);\n    uint id2 = potTicketIds.length;\n\n    PotPlayersMap[msg.sender].PaymentCount += 1;\n    PotPlayersMap[msg.sender].paymentValue += msg.value;\n    PotPlayersMap[msg.sender].TicketNumbers += ticketNumber;\n    PotPlayersMap[msg.sender].PlayersId.push( id );\n    PotPlayersMap[msg.sender].TicketsId.push( id2);\n    if (PotPlayersMap[msg.sender].PaymentCount == 1) {\n      realPLayerCount++;\n    }\n\n    if (address(this).balance >= 0.1 ether && realPLayerCount >= 5) {  // // potPlayersArray.length\n      lReadySelectWinner = true;\n    } \n\n    emit PlayerRegister(msg.sender, id, msg.value, ticketNumber) ;\n    if (PotPlayersMap[msg.sender].PaymentCount > 1) {\n        emit PlayerTotalValue(msg.sender, PotPlayersMap[msg.sender].PlayersId, PotPlayersMap[msg.sender].PaymentCount, PotPlayersMap[msg.sender].paymentValue, PotPlayersMap[msg.sender].TicketNumbers) ;\n    }    \n\n    return success;\n  }\n\n  /**\n    * @notice Hourly Lottery Pot Winner Selection, This Winner is Selected among Hourly Member List.\n    * @dev Hourly Lottery Pot Winner Selection Start Process, This Function Just Called Request Random Number Routine For Communicate with VRF Coordinator.\n    * @return success Flag \n  */\n  function select_Winner() public isAllowedManager returns(bool success) {  \n\n    require(lReadySelectWinner == true, \"The Pot is not ready for Selecting the Winner\");\n    require(lWinnerSelected == false, \"The Winner has Not been Selected Yet !\");\n\n    vrfCalledTime = block.timestamp;\n    emit StartSelectngWinner(vrfCalledTime);\n    requestRandomWords();\n\n    success = true;\n\n  }\n\n  /**\n    * @notice Hourly Lottery Pot Winner Selection Continue, This Function Selects The Winner With Random Number Generated.\n    * @dev Hourly Lottery Pot Winner Selection Continue, This Function Only Call after fulfillRandomWords is Called. \n    * @dev This Function is responsible for Updating Lottery Data, Pay the Winner Prize & then clear and Release the Memory\n    * @return success Flag \n  */\n  function select_Winner_Continue() public isAllowedManager returns(bool success) {  \n    \n    require(lReadySelectWinner == true, \"The Pot is not ready for Selecting the Winner\");\n    // if (planB_VRFDelay() == false) {\n      require(lWinnerSelected == true, \"The Winner has been Selected before !!\");\n    // }\n\n    uint winnerIndex = s_randomWords[0] % potTickets.length;    // l_randomWords\n    winnerIndex = potTickets[winnerIndex];\n    (uint winnerPrize, uint weeklyPot, uint monthlyPot, uint liquidityAmount) = Calculation(winnerIndex);\n    \n    emit SelectWinnerIndex(winnerIndex, address(this).balance, winnerPrize);\n\n    UpdateLotteryData(winnerIndex, address(this).balance, winnerPrize);\n    WinnerPrizePayment(winnerIndex, winnerPrize); \n    FinalPayment(weeklyPot, monthlyPot, liquidityAmount);\n    ClearDataBase();\n    // console.log(\"Select Winner Done !\");\n\n    lPotActive = false;\n    lReadySelectWinner = false;\n    lWinnerSelected = false;\n    success = true;\n\n  }\n\n  /**\n    * @notice Release Smart Contract Memory .\n    * @dev Clear All Storages .\n    * @return True\n  */\n  function ClearDataBase() private returns (bool) {\n    /* ToDo : Clear The Map Data and RElease the Memory */  \n    address playerAddress;\n    for (uint256 index = 0; index <= potPlayersArray.length - 1; index++) {\n        playerAddress = potPlayersArray[index];\n        // if (PotPlayersMap[playerAddress].PaymentCount > 0) {\n        //     PotPlayersMap[playerAddress].PaymentCount = 0;\n        //     PotPlayersMap[playerAddress].paymentValue = 0;\n        //     PotPlayersMap[playerAddress].TicketNumbers = 0;\n        //     delete PotPlayersMap[playerAddress].PlayersId;\n        //     delete PotPlayersMap[playerAddress].TicketsId;\n        // }\n        delete PotPlayersMap[playerAddress];\n    }\n    delete potPlayersArray;\n    delete potTickets;\n    realPLayerCount = 0;\n    return true;\n  }\n\n  /**\n    * @notice Calculation of Pot Winner Prize.\n    * @dev Findout the 50% of the Total Pot and The Winner payment and Calculation of Weekly & Monthly Pot Prizes.\n  */\n  function Calculation(uint _winnerIndex) private view returns (uint winnerPrize, uint weeklyPot, uint monthlyPot, uint liquidityAmount){\n\n    uint totalPot = address(this).balance;\n    address WinnerAddress = potPlayersArray[_winnerIndex];\n    uint WinnerPotAmount = PotPlayersMap[WinnerAddress].paymentValue;\n\n    winnerPrize = totalPot - WinnerPotAmount;\n    /* ToDo : Replace Calculation Parts with OpenZeppelin SafeMath ) */\n    (winnerPrize, ) = getDivided(winnerPrize, 2);\n    winnerPrize += WinnerPotAmount; \n\n    uint otherPots = totalPot - winnerPrize;\n    (otherPots, ) = getDivided(otherPots, 20);\n    weeklyPot = otherPots;\n    monthlyPot = otherPots;\n    liquidityAmount = totalPot - 2 * otherPots - winnerPrize;\n\n  }\n\n  /**\n    * @notice Pay Pot Prize to the Winner.\n    * @dev Transfer Pot Prize to the Winner.\n  */\n  function WinnerPrizePayment(uint _winnerIndex, uint _winnerPrize) private {\n\n    address payable potWinner = payable(potPlayersArray[_winnerIndex]);  \n    potWinner.transfer(_winnerPrize);\n    emit SelectWinnerAddress(potWinner, _winnerPrize);\n    // potPlayers[winnerIndex].transfer(address(this).balance);\n\n  }\n\n  /**\n    * @notice Remaining Pot Money Transfer.\n    * @dev Transfer remaining Money to the Weekly Pot, Monthly Pot & Liquidity Pool.\n  */\n  function FinalPayment(uint weeklyPot, uint monthlyPot, uint liquidityAmount) private {   // onlyOwner \n\n    // uint TrxValue = address(this).balance;\n    // address payable receiver = payable(WeeklyPotAddress);\n    // TrxValue = address(this).balance; \n    // receiver.transfer(TrxValue);\n    // emit TotalPayment(receiver, TrxValue);\n\n    address payable receiver = payable(WeeklyPotAddress);\n    receiver.transfer(weeklyPot);\n    emit TotalPayment(receiver, weeklyPot);\n\n    receiver = payable(MonthlyPotAddress);\n    receiver.transfer(monthlyPot);\n    emit TotalPayment(receiver, monthlyPot);\n\n    receiver = payable(LiquidityPoolAddress);\n    receiver.transfer(liquidityAmount);\n    emit TotalPayment(receiver, liquidityAmount);\n\n  }\n\n  /**\n    * @notice Save The Winner Address for Weekly Lottery\n    * @dev Update Generator Smart Contract For Saving Hourly Winner Address\n  */\n  function UpdateLotteryData(uint _winnerIndex, uint _balance, uint _winnerPrize) private returns(bool) {\n    bool _success;\n    uint _winnerId;\n    // address _winnerAddress = potPlayersArray[_winnerIndex];\n    potWinnerAddress = potPlayersArray[_winnerIndex];\n    potWinnerPrize = _winnerPrize;\n    _success = LotteryInterface(generatorLotteryAddr).setlotteryStructs(address(this), msg.sender, _balance, potWinnerAddress, 0);  \n    _winnerId = LotteryInterface(generatorLotteryAddr).setlotteryWinnersArrayMap(msg.sender, potWinnerAddress, _winnerPrize);  \n    return true;\n  }\n\n  function set_WeeklyPotAddress(address _WeeklyPotAddress) external onlyOwner {\n    require(_WeeklyPotAddress != address(0) );\n    WeeklyPotAddress = _WeeklyPotAddress;\n  }\n\n  function set_MonthlyPotAddress(address _MonthlyPotAddress) external onlyOwner {\n    require(_MonthlyPotAddress != address(0) );\n    MonthlyPotAddress = _MonthlyPotAddress;\n  }\n\n  function set_generatorLotteryAddress(address _contractAddr) external onlyOwner {\n    generatorLotteryAddr = _contractAddr;\n  }\n\n  function set_LiquidityPoolAddress(address _LiquidityPoolAddress) external onlyOwner {\n    require(_LiquidityPoolAddress != address(0) );\n    LiquidityPoolAddress = _LiquidityPoolAddress;\n  }\n\n  // function set_MultiSigWalletAddress(address _MultiSigWalletAddress) external onlyOwner {\n  //   require(_MultiSigWalletAddress != address(0) );\n  //   MultiSigWalletAddress = _MultiSigWalletAddress;\n  // }\n\n  function setDirector(address _DirectorAddress) external onlyOwner {\n    require(_DirectorAddress != address(0) );\n    potDirector = _DirectorAddress;\n  }\n\n  function listPlayers() public view returns (address[] memory){  \n    return potPlayersArray;  \n  }\n\n  function getLotteryTickets() public view returns(uint[] memory) {\n    return potTickets;\n  }\n\n  function isPotActive() public view returns(bool) {\n    return lPotActive;\n  }\n\n  function getTicketPrice() public pure returns(uint) {\n    return TICKET_PRICE;\n  }\n\n  function getTicketAmount() public view returns(uint) {\n    return potTickets.length;\n  }\n\n  function getPlayersNumber() public view returns(uint) {\n    return potPlayersArray.length;\n  }\n\n  function getWinners() public view returns(address, uint) {\n    return ( potWinnerAddress, potWinnerPrize ) ;  \n  }  \n\n  function isReadySelectWinner() public view returns(bool) {\n    return lReadySelectWinner;\n  }\n\n  function isWinnerSelected() public view returns(bool) {\n    return lWinnerSelected;\n  }\n\n  function getStartedTime() public view returns(uint) {\n    return block.timestamp - potStartTime;\n  }\n\n  function getPotDirector() public view returns(address) {\n    return potDirector;\n  }\n\n  // function getVerifier() public view returns(address) {\n  //   return _VRF;\n  // }\n\n  // function getAllContractAddresses() public view returns(address[] memory) {\n  //   address[] memory contractAddresses;\n  //   contractAddresses[0] = generatorLotteryAddr;\n  //   contractAddresses[1] = LiquidityPoolAddress;\n  //   contractAddresses[2] = WeeklyPotAddress;\n  //   contractAddresses[3] = MonthlyPotAddress;\n  //   return contractAddresses;\n  // }\n  function getAllContractAddresses() public view returns(address gAddress, address lAddress, address wAddress, address mAddress) {\n    gAddress = generatorLotteryAddr ;\n    lAddress = LiquidityPoolAddress ;\n    wAddress = WeeklyPotAddress ;\n    mAddress = MonthlyPotAddress ;\n    return (gAddress, lAddress, wAddress, mAddress); \n  }\n\n  function getPlayerAmounts(address PlayerAddress) public view returns(uint, uint) {\n    uint PaymentCount = PotPlayersMap[PlayerAddress].PaymentCount;\n    uint PaymentValue = PotPlayersMap[PlayerAddress].paymentValue;\n    return (PaymentCount, PaymentValue);\n  }\n\n  function getPlayerValue(address PlayerAddress) public view returns(uint) {\n    uint PaymentValue = PotPlayersMap[PlayerAddress].paymentValue;\n    return PaymentValue;\n  }\n\n  /**\n    * @notice This Function is Only a PLan B for When The VRF Coordinator does not respond in a short time .\n    * @dev Only If after 10 min the VRF Coordinator does not respond This function Change the lWinnerSelected to True so the Last Random Word used instead of a new one .\n    * @return isActive Flag \n  */\n  function planB_VRFDelay() private returns(bool isActive){ \n    require(lReadySelectWinner == true, \"The Pot is not ready for Selecting the Winner\");\n    require(lWinnerSelected == false, \"The Winner has been Selected before !!\");\n    uint nowTime = block.timestamp;\n    uint waitTime = 0;\n    if (nowTime > vrfCalledTime) {\n      waitTime = nowTime - vrfCalledTime ;\n      if (waitTime > 10 minutes) {\n          lWinnerSelected = true;\n          isActive = true;\n      } else {\n        isActive = false;\n      }\n    } else {\n      isActive = false;\n    }\n  }\n\n}\n\n\n/**\n************************************************************************************\n************************************************************************************\n**/\n",
  "sourcePath": "/home/batis/SrcCode/myPRJ/SmartContBlockChain/BSCLottery/contracts/LotteryCore.sol",
  "compiler": {
    "name": "solc",
    "version": "0.8.13+commit.abaa5c0e.Emscripten.clang"
  },
  "schemaVersion": "3.4.3",
  "updatedAt": "2022-06-21T17:38:58.256Z",
  "networkType": "ethereum",
  "devdoc": {
    "author": "Batis Abhari (https://github.com/baties - ContactMe: abhari_Batis@hotmail.com)",
    "kind": "dev",
    "methods": {
      "getDivided(uint256,uint256)": {
        "details": "Safe Function for Devision Operation.",
        "params": {
          "denominator": ": The Integer Number which another Int NUmber is devided by this.  ",
          "numerator": ": The Integer Number which is being devided on another Integer Number."
        },
        "returns": {
          "quotient": "and remainder of the Devision, Both are Integer Numbers. "
        }
      },
      "owner()": {
        "details": "Returns the address of the current owner."
      },
      "play()": {
        "details": "Payable Function. This Function is resposible for Accepting new Gamers in Hourly Lottery ",
        "returns": {
          "success": "Flag"
        }
      },
      "potInitialize()": {
        "details": "AtFirst The Hourly Lottery have been Initialized for Default but after each Pot it Must be Initialized for next Pot .",
        "returns": {
          "success": "Flag "
        }
      },
      "renounceOwnership()": {
        "details": "Leaves the contract without owner. It will not be possible to call `onlyOwner` functions anymore. Can only be called by the current owner. NOTE: Renouncing ownership will leave the contract without an owner, thereby removing any functionality that is only available to the owner."
      },
      "requestRandomWords()": {
        "details": "For more Details refer to : https://docs.chain.link/docs/chainlink-vrf-best-practices/#getting-multiple-random-numbers"
      },
      "select_Winner()": {
        "details": "Hourly Lottery Pot Winner Selection Start Process, This Function Just Called Request Random Number Routine For Communicate with VRF Coordinator.",
        "returns": {
          "success": "Flag "
        }
      },
      "select_Winner_Continue()": {
        "details": "Hourly Lottery Pot Winner Selection Continue, This Function Only Call after fulfillRandomWords is Called. This Function is responsible for Updating Lottery Data, Pay the Winner Prize & then clear and Release the Memory",
        "returns": {
          "success": "Flag "
        }
      },
      "transferOwnership(address)": {
        "details": "Transfers ownership of the contract to a new account (`newOwner`). Can only be called by the current owner."
      }
    },
    "title": "Core SmartContract for BNB Game Lottery ",
    "version": 1
  },
  "userdoc": {
    "kind": "user",
    "methods": {
      "getDivided(uint256,uint256)": {
        "notice": "Function for deviding two Integer Numbers and return the results."
      },
      "play()": {
        "notice": "Players' Operation and Calculation after Sending Transaction to the SmartContract. "
      },
      "potInitialize()": {
        "notice": "Hourly Lottery Pot Initialization."
      },
      "requestRandomWords()": {
        "notice": "Request Random Words From VRF Coordinator"
      },
      "select_Winner()": {
        "notice": "Hourly Lottery Pot Winner Selection, This Winner is Selected among Hourly Member List."
      },
      "select_Winner_Continue()": {
        "notice": "Hourly Lottery Pot Winner Selection Continue, This Function Selects The Winner With Random Number Generated."
      }
    },
    "notice": "This SmartContract is responsible for implimentation of Lottery Core System and communication with the Players ",
    "version": 1
  }
}