{
  "contractName": "LotteryCore",
  "abi": [
    {
      "inputs": [
        {
          "internalType": "address",
          "name": "VRF",
          "type": "address"
        }
      ],
      "stateMutability": "nonpayable",
      "type": "constructor"
    },
    {
      "anonymous": false,
      "inputs": [
        {
          "indexed": false,
          "internalType": "address",
          "name": "potPlayer",
          "type": "address"
        },
        {
          "indexed": false,
          "internalType": "uint256[]",
          "name": "playerId",
          "type": "uint256[]"
        },
        {
          "indexed": false,
          "internalType": "uint256",
          "name": "playerValue",
          "type": "uint256"
        },
        {
          "indexed": false,
          "internalType": "uint256",
          "name": "playCount",
          "type": "uint256"
        },
        {
          "indexed": false,
          "internalType": "uint256",
          "name": "ticketNumber",
          "type": "uint256"
        }
      ],
      "name": "PlayeTotalValue",
      "type": "event"
    },
    {
      "anonymous": false,
      "inputs": [
        {
          "indexed": false,
          "internalType": "address",
          "name": "potPlayer",
          "type": "address"
        },
        {
          "indexed": false,
          "internalType": "uint256",
          "name": "playerId",
          "type": "uint256"
        },
        {
          "indexed": false,
          "internalType": "uint256",
          "name": "PlayerValue",
          "type": "uint256"
        },
        {
          "indexed": false,
          "internalType": "uint256",
          "name": "ticketNumber",
          "type": "uint256"
        }
      ],
      "name": "PlayerRegister",
      "type": "event"
    },
    {
      "anonymous": false,
      "inputs": [
        {
          "indexed": false,
          "internalType": "address",
          "name": "potWinner",
          "type": "address"
        },
        {
          "indexed": false,
          "internalType": "uint256",
          "name": "winnerPrize",
          "type": "uint256"
        }
      ],
      "name": "SelectWinnerAddress",
      "type": "event"
    },
    {
      "anonymous": false,
      "inputs": [
        {
          "indexed": false,
          "internalType": "uint256",
          "name": "winnerIndex",
          "type": "uint256"
        },
        {
          "indexed": false,
          "internalType": "uint256",
          "name": "potBalance",
          "type": "uint256"
        },
        {
          "indexed": false,
          "internalType": "uint256",
          "name": "winnerPrize",
          "type": "uint256"
        }
      ],
      "name": "SelectWinnerIndex",
      "type": "event"
    },
    {
      "inputs": [
        {
          "internalType": "address",
          "name": "",
          "type": "address"
        }
      ],
      "name": "PotPlayersMap",
      "outputs": [
        {
          "internalType": "uint256",
          "name": "PaymentCount",
          "type": "uint256"
        },
        {
          "internalType": "uint256",
          "name": "paymentValue",
          "type": "uint256"
        },
        {
          "internalType": "uint256",
          "name": "TicketNumbers",
          "type": "uint256"
        }
      ],
      "stateMutability": "view",
      "type": "function"
    },
    {
      "inputs": [],
      "name": "lottoryOwner",
      "outputs": [
        {
          "internalType": "address",
          "name": "",
          "type": "address"
        }
      ],
      "stateMutability": "view",
      "type": "function"
    },
    {
      "inputs": [
        {
          "internalType": "uint256",
          "name": "",
          "type": "uint256"
        }
      ],
      "name": "potPlayersArray",
      "outputs": [
        {
          "internalType": "address",
          "name": "",
          "type": "address"
        }
      ],
      "stateMutability": "view",
      "type": "function"
    },
    {
      "inputs": [],
      "name": "balanceInPot",
      "outputs": [
        {
          "internalType": "uint256",
          "name": "",
          "type": "uint256"
        }
      ],
      "stateMutability": "view",
      "type": "function"
    },
    {
      "inputs": [
        {
          "internalType": "uint256",
          "name": "numerator",
          "type": "uint256"
        },
        {
          "internalType": "uint256",
          "name": "denominator",
          "type": "uint256"
        }
      ],
      "name": "getDivided",
      "outputs": [
        {
          "internalType": "uint256",
          "name": "quotient",
          "type": "uint256"
        },
        {
          "internalType": "uint256",
          "name": "remainder",
          "type": "uint256"
        }
      ],
      "stateMutability": "pure",
      "type": "function"
    },
    {
      "inputs": [],
      "name": "play",
      "outputs": [],
      "stateMutability": "payable",
      "type": "function"
    },
    {
      "inputs": [
        {
          "internalType": "address",
          "name": "_VRFv2",
          "type": "address"
        }
      ],
      "name": "getRandomValue",
      "outputs": [
        {
          "internalType": "uint256",
          "name": "randomWords",
          "type": "uint256"
        }
      ],
      "stateMutability": "view",
      "type": "function"
    },
    {
      "inputs": [],
      "name": "select_Winner",
      "outputs": [],
      "stateMutability": "nonpayable",
      "type": "function"
    },
    {
      "inputs": [],
      "name": "listPlayers",
      "outputs": [
        {
          "internalType": "address[]",
          "name": "",
          "type": "address[]"
        }
      ],
      "stateMutability": "view",
      "type": "function"
    },
    {
      "inputs": [],
      "name": "withdraw",
      "outputs": [],
      "stateMutability": "nonpayable",
      "type": "function"
    }
  ],
  "bytecode": "0x60806040523480156200001157600080fd5b506040516200188538038062001885833981810160405281019062000037919062000129565b336000806101000a81548173ffffffffffffffffffffffffffffffffffffffff021916908373ffffffffffffffffffffffffffffffffffffffff16021790555080600360006101000a81548173ffffffffffffffffffffffffffffffffffffffff021916908373ffffffffffffffffffffffffffffffffffffffff160217905550506200015b565b600080fd5b600073ffffffffffffffffffffffffffffffffffffffff82169050919050565b6000620000f182620000c4565b9050919050565b6200010381620000e4565b81146200010f57600080fd5b50565b6000815190506200012381620000f8565b92915050565b600060208284031215620001425762000141620000bf565b5b6000620001528482850162000112565b91505092915050565b61171a806200016b6000396000f3fe6080604052600436106100915760003560e01c806364605d511161005957806364605d511461016a5780638687e5991461019557806393e84cd9146101c0578063adb80e5a146101ca578063f30812991461020757610091565b806314e599871461009657806314e5e90e146100c1578063194d02d7146100fe5780632ac75ab51461013c5780633ccfd60b14610153575b600080fd5b3480156100a257600080fd5b506100ab610246565b6040516100b89190610d93565b60405180910390f35b3480156100cd57600080fd5b506100e860048036038101906100e39190610e11565b61024e565b6040516100f59190610d93565b60405180910390f35b34801561010a57600080fd5b5061012560048036038101906101209190610e6a565b610364565b604051610133929190610eaa565b60405180910390f35b34801561014857600080fd5b5061015161041c565b005b34801561015f57600080fd5b50610168610553565b005b34801561017657600080fd5b5061017f61062a565b60405161018c9190610f91565b60405180910390f35b3480156101a157600080fd5b506101aa6106b8565b6040516101b79190610fc2565b60405180910390f35b6101c86106dc565b005b3480156101d657600080fd5b506101f160048036038101906101ec9190610fdd565b610b55565b6040516101fe9190610fc2565b60405180910390f35b34801561021357600080fd5b5061022e60048036038101906102299190610e11565b610b94565b60405161023d9392919061100a565b60405180910390f35b600047905090565b60008060009054906101000a900473ffffffffffffffffffffffffffffffffffffffff1673ffffffffffffffffffffffffffffffffffffffff163373ffffffffffffffffffffffffffffffffffffffff16146102df576040517f08c379a00000000000000000000000000000000000000000000000000000000081526004016102d6906110c4565b60405180910390fd5b8173ffffffffffffffffffffffffffffffffffffffff166371f747906040518163ffffffff1660e01b815260040160206040518083038186803b15801561032557600080fd5b505afa158015610339573d6000803e3d6000fd5b505050506040513d601f19601f8201168201806040525081019061035d91906110f9565b9050919050565b60008060008310156103ab576040517f08c379a00000000000000000000000000000000000000000000000000000000081526004016103a290611198565b60405180910390fd5b600084116103ee576040517f08c379a00000000000000000000000000000000000000000000000000000000081526004016103e590611198565b60405180910390fd5b82846103fa9190611216565b915081836104089190611247565b8461041391906112a1565b90509250929050565b60008054906101000a900473ffffffffffffffffffffffffffffffffffffffff1673ffffffffffffffffffffffffffffffffffffffff163373ffffffffffffffffffffffffffffffffffffffff16146104aa576040517f08c379a00000000000000000000000000000000000000000000000000000000081526004016104a1906110c4565b60405180910390fd5b60006104d7600360009054906101000a900473ffffffffffffffffffffffffffffffffffffffff1661024e565b90506000600280549050826104ec91906112d5565b905060006104f982610bbe565b90507f274f2e5ea35472f60f411beb007713c0f1c1b574f260789eedee1789cd49d9f582478360405161052e9392919061100a565b60405180910390a16105408282610c74565b6002600061054e9190610d3c565b505050565b60008054906101000a900473ffffffffffffffffffffffffffffffffffffffff1673ffffffffffffffffffffffffffffffffffffffff163373ffffffffffffffffffffffffffffffffffffffff16146105e1576040517f08c379a00000000000000000000000000000000000000000000000000000000081526004016105d8906110c4565b60405180910390fd5b3373ffffffffffffffffffffffffffffffffffffffff166108fc479081150290604051600060405180830381858888f19350505050158015610627573d6000803e3d6000fd5b50565b606060028054806020026020016040519081016040528092919081815260200182805480156106ae57602002820191906000526020600020905b8160009054906101000a900473ffffffffffffffffffffffffffffffffffffffff1673ffffffffffffffffffffffffffffffffffffffff1681526020019060010190808311610664575b5050505050905090565b60008054906101000a900473ffffffffffffffffffffffffffffffffffffffff1681565b662386f26fc1000034101580156106fb575068056bc75e2d6310000034105b61073a576040517f08c379a000000000000000000000000000000000000000000000000000000000815260040161073190611378565b60405180910390fd5b60008061074e34662386f26fc10000610364565b9150915060008114610795576040517f08c379a000000000000000000000000000000000000000000000000000000000815260040161078c9061140a565b60405180910390fd5b6002339080600181540180825580915050600190039060005260206000200160009091909190916101000a81548173ffffffffffffffffffffffffffffffffffffffff021916908373ffffffffffffffffffffffffffffffffffffffff1602179055506000600160028054905061080c91906112a1565b905060018060003373ffffffffffffffffffffffffffffffffffffffff1673ffffffffffffffffffffffffffffffffffffffff1681526020019081526020016000206000016000828254610860919061142a565b9250508190555034600160003373ffffffffffffffffffffffffffffffffffffffff1673ffffffffffffffffffffffffffffffffffffffff16815260200190815260200160002060010160008282546108b9919061142a565b9250508190555082600160003373ffffffffffffffffffffffffffffffffffffffff1673ffffffffffffffffffffffffffffffffffffffff1681526020019081526020016000206002016000828254610912919061142a565b92505081905550600160003373ffffffffffffffffffffffffffffffffffffffff1673ffffffffffffffffffffffffffffffffffffffff1681526020019081526020016000206003018190806001815401808255809150506001900390600052602060002001600090919091909150557f8de5754e4ed9d4994bdb4b2b8c12dfcd51b0e994c1d34a7f20fe7f3d3fbb7bc2338234866040516109b79493929190611480565b60405180910390a160018060003373ffffffffffffffffffffffffffffffffffffffff1673ffffffffffffffffffffffffffffffffffffffff168152602001908152602001600020600001541115610b50577f50d8ee368d41fb05a48faba0bb81eff5b09d7f7bbe0d333b6ddac6d4b7a5a53633600160003373ffffffffffffffffffffffffffffffffffffffff1673ffffffffffffffffffffffffffffffffffffffff168152602001908152602001600020600301600160003373ffffffffffffffffffffffffffffffffffffffff1673ffffffffffffffffffffffffffffffffffffffff16815260200190815260200160002060000154600160003373ffffffffffffffffffffffffffffffffffffffff1673ffffffffffffffffffffffffffffffffffffffff16815260200190815260200160002060010154600160003373ffffffffffffffffffffffffffffffffffffffff1673ffffffffffffffffffffffffffffffffffffffff16815260200190815260200160002060020154604051610b479594939291906115d3565b60405180910390a15b505050565b60028181548110610b6557600080fd5b906000526020600020016000915054906101000a900473ffffffffffffffffffffffffffffffffffffffff1681565b60016020528060005260406000206000915090508060000154908060010154908060020154905083565b600080479050600060028481548110610bda57610bd961162d565b5b9060005260206000200160009054906101000a900473ffffffffffffffffffffffffffffffffffffffff1690506000600160008373ffffffffffffffffffffffffffffffffffffffff1673ffffffffffffffffffffffffffffffffffffffff1681526020019081526020016000206001015490508083610c5a91906112a1565b9350610c67846002610364565b5080945050505050919050565b600060028381548110610c8a57610c8961162d565b5b9060005260206000200160009054906101000a900473ffffffffffffffffffffffffffffffffffffffff1690508073ffffffffffffffffffffffffffffffffffffffff166108fc839081150290604051600060405180830381858888f19350505050158015610cfd573d6000803e3d6000fd5b507f9b320e270eb528aa46b3a21b196f1da153ccb2d5637e892594474e969fe6b7a98183604051610d2f9291906116bb565b60405180910390a1505050565b5080546000825590600052602060002090810190610d5a9190610d5d565b50565b5b80821115610d76576000816000905550600101610d5e565b5090565b6000819050919050565b610d8d81610d7a565b82525050565b6000602082019050610da86000830184610d84565b92915050565b600080fd5b600073ffffffffffffffffffffffffffffffffffffffff82169050919050565b6000610dde82610db3565b9050919050565b610dee81610dd3565b8114610df957600080fd5b50565b600081359050610e0b81610de5565b92915050565b600060208284031215610e2757610e26610dae565b5b6000610e3584828501610dfc565b91505092915050565b610e4781610d7a565b8114610e5257600080fd5b50565b600081359050610e6481610e3e565b92915050565b60008060408385031215610e8157610e80610dae565b5b6000610e8f85828601610e55565b9250506020610ea085828601610e55565b9150509250929050565b6000604082019050610ebf6000830185610d84565b610ecc6020830184610d84565b9392505050565b600081519050919050565b600082825260208201905092915050565b6000819050602082019050919050565b610f0881610dd3565b82525050565b6000610f1a8383610eff565b60208301905092915050565b6000602082019050919050565b6000610f3e82610ed3565b610f488185610ede565b9350610f5383610eef565b8060005b83811015610f84578151610f6b8882610f0e565b9750610f7683610f26565b925050600181019050610f57565b5085935050505092915050565b60006020820190508181036000830152610fab8184610f33565b905092915050565b610fbc81610dd3565b82525050565b6000602082019050610fd76000830184610fb3565b92915050565b600060208284031215610ff357610ff2610dae565b5b600061100184828501610e55565b91505092915050565b600060608201905061101f6000830186610d84565b61102c6020830185610d84565b6110396040830184610d84565b949350505050565b600082825260208201905092915050565b7f4f776e6572204f6e6c7921202e20596f752068617665206e6f7420746865207260008201527f69676874204163636573732e0000000000000000000000000000000000000000602082015250565b60006110ae602c83611041565b91506110b982611052565b604082019050919050565b600060208201905081810360008301526110dd816110a1565b9050919050565b6000815190506110f381610e3e565b92915050565b60006020828403121561110f5761110e610dae565b5b600061111d848285016110e4565b91505092915050565b7f4469766973696f6e206973204e6f7420506f737369626c65202c20427567206960008201527f6e204e756d626572732021000000000000000000000000000000000000000000602082015250565b6000611182602b83611041565b915061118d82611126565b604082019050919050565b600060208201905081810360008301526111b181611175565b9050919050565b7f4e487b7100000000000000000000000000000000000000000000000000000000600052601260045260246000fd5b7f4e487b7100000000000000000000000000000000000000000000000000000000600052601160045260246000fd5b600061122182610d7a565b915061122c83610d7a565b92508261123c5761123b6111b8565b5b828204905092915050565b600061125282610d7a565b915061125d83610d7a565b9250817fffffffffffffffffffffffffffffffffffffffffffffffffffffffffffffffff0483118215151615611296576112956111e7565b5b828202905092915050565b60006112ac82610d7a565b91506112b783610d7a565b9250828210156112ca576112c96111e7565b5b828203905092915050565b60006112e082610d7a565b91506112eb83610d7a565b9250826112fb576112fa6111b8565b5b828206905092915050565b7f56616c75652073686f756c64206265206265747765656e20302e30312026203160008201527f303020424e420000000000000000000000000000000000000000000000000000602082015250565b6000611362602683611041565b915061136d82611306565b604082019050919050565b6000602082019050818103600083015261139181611355565b9050919050565b7f56616c75652073686f756c6420626520616e20496e7465676572206d7574697060008201527f6c65206f6620302e303120424e42000000000000000000000000000000000000602082015250565b60006113f4602e83611041565b91506113ff82611398565b604082019050919050565b60006020820190508181036000830152611423816113e7565b9050919050565b600061143582610d7a565b915061144083610d7a565b9250827fffffffffffffffffffffffffffffffffffffffffffffffffffffffffffffffff03821115611475576114746111e7565b5b828201905092915050565b60006080820190506114956000830187610fb3565b6114a26020830186610d84565b6114af6040830185610d84565b6114bc6060830184610d84565b95945050505050565b600081549050919050565b600082825260208201905092915050565b60008190508160005260206000209050919050565b6114ff81610d7a565b82525050565b600061151183836114f6565b60208301905092915050565b60008160001c9050919050565b6000819050919050565b60006115476115428361151d565b61152a565b9050919050565b600061155a8254611534565b9050919050565b6000600182019050919050565b6000611579826114c5565b61158381856114d0565b935061158e836114e1565b8060005b838110156115c6576115a38261154e565b6115ad8882611505565b97506115b883611561565b925050600181019050611592565b5085935050505092915050565b600060a0820190506115e86000830188610fb3565b81810360208301526115fa818761156e565b90506116096040830186610d84565b6116166060830185610d84565b6116236080830184610d84565b9695505050505050565b7f4e487b7100000000000000000000000000000000000000000000000000000000600052603260045260246000fd5b6000819050919050565b600061168161167c61167784610db3565b61165c565b610db3565b9050919050565b600061169382611666565b9050919050565b60006116a582611688565b9050919050565b6116b58161169a565b82525050565b60006040820190506116d060008301856116ac565b6116dd6020830184610d84565b939250505056fea2646970667358221220a4ee29d153fd0e0a37852d05bcba6914aa3cb85944fd1ee1e5523a02a2fce67964736f6c63430008090033",
  "immutableReferences": {},
  "source": "// SPDX-License-Identifier: MIT\npragma solidity ^0.8.0;\n// pragma experimental ABIEncoderV2;\n\n/* ToDo : Use Ownable OpenZeppelin */\nimport '@openzeppelin/contracts/access/Ownable.sol';\nimport './VRFv2Consumer.sol' ;\n// import './VRFv2SubscriptionManager.sol';\n// import \"truffle/Console.sol\";\n\ncontract LotteryCore {\n\n  address public lottoryOwner;\n  // address[] public potPlayers;  /* Old Code may be removed soon */\n\n  struct PotPlayerStr{\n    uint PaymentCount ;\n    uint paymentValue ;\n    uint TicketNumbers ;\n    uint[] PlayersId ;\n  }\n\n  mapping (address => PotPlayerStr) public PotPlayersMap ;\n  address[] public potPlayersArray ;\n   \n  // PotPlayerStr[] public potPlayersArr ;\n  // mapping (uint => address) public PotPlayersToAddress ;\n  // mapping (address => uint) public PotPlayersToPotRate ;\n\n  /* ToDo : Generate Lottery Pot Structure as a Wrapper for Lottory Core */\n  struct LotteryPot{\n    string potLabel ;\n    uint entryCount ;\n    uint potSerial ;\n    uint potValue ;\n    // mapping(address => PotPlayer) players ;\n  }\n\n  address private _VRF ;\n\n  event SelectWinnerIndex(uint winnerIndex, uint potBalance, uint winnerPrize) ;\n  event SelectWinnerAddress(address potWinner, uint winnerPrize) ;\n  event PlayerRegister(address potPlayer, uint playerId, uint PlayerValue, uint ticketNumber) ;\n  event PlayeTotalValue(address potPlayer, uint[] playerId, uint playerValue, uint playCount, uint ticketNumber) ;\n\n  constructor(address VRF) {\n    lottoryOwner = msg.sender ;\n    _VRF = VRF ;\n  }\n\n  modifier ownerOnly() {\n    require(msg.sender == lottoryOwner, \"Owner Only! . You have not the right Access.\") ;\n    _;\n  }\n\n  /* ToDo : Add & Complete Fallback routine */\n  // fallback() external payable {\n  //       // player name will be unknown\n  // }\n\n  function balanceInPot() public view returns(uint){\n    return address(this).balance ;\n  }\n\n  /* ToDo : Replace This function with OpenZeppelin SafeMath */\n  function getDivided(uint numerator, uint denominator) public pure returns(uint quotient, uint remainder) {\n    require( denominator >= 0, \"Division is Not Possible , Bug in Numbers !\") ;\n    require( numerator > 0, \"Division is Not Possible , Bug in Numbers !\") ;\n    quotient  = numerator / denominator ; \n    remainder = numerator - denominator * quotient ;\n  }\n\n  function play() public payable {\n    /* ToDo: Convert Ether to BNB */\n    require(msg.value >= 0.01 ether && msg.value < 100 ether, \"Value should be between 0.01 & 100 BNB\") ;\n    // potPlayers.push(msg.sender) ; \n    (uint ticketNumber, uint remainder ) = getDivided(msg.value, 10000000000000000) ;\n    require(remainder == 0, \"Value should be an Integer mutiple of 0.01 BNB\") ;\n    // potPlayersArr.push( PotPlayerStr(1, msg.value, ticketNumber) ) ;\n    // uint id = potPlayersArr.length - 1 ;\n    // PotPlayersToAddress[id] = msg.sender ;\n    // PotPlayersToPotRate[msg.sender] = ticketNumber ;\n    potPlayersArray.push( msg.sender ) ;\n    uint id = potPlayersArray.length - 1 ; \n    PotPlayersMap[msg.sender].PaymentCount += 1 ;\n    PotPlayersMap[msg.sender].paymentValue += msg.value ;\n    PotPlayersMap[msg.sender].TicketNumbers += ticketNumber ;\n    PotPlayersMap[msg.sender].PlayersId.push( id ) ;\n    emit PlayerRegister(msg.sender, id, msg.value, ticketNumber) ;\n    if (PotPlayersMap[msg.sender].PaymentCount > 1) {\n        emit PlayeTotalValue(msg.sender, PotPlayersMap[msg.sender].PlayersId, PotPlayersMap[msg.sender].PaymentCount, PotPlayersMap[msg.sender].paymentValue, PotPlayersMap[msg.sender].TicketNumbers) ;\n    }\n  }\n\n  // function randomGenerator() private view returns (uint) {\n  //   return uint(\n  //     keccak256(\n  //       abi.encodePacked(\n  //         block.difficulty, block.timestamp, potPlayers ))) ;\n  // }\n\n  // function lrequestRandomWords(address _VRFv2) public {\n  //   VRFv2Consumer(_VRFv2).requestRandomWords(lottoryOwner) ;\n  // }\n\n  function getRandomValue(address _VRFv2) public view ownerOnly returns (uint256 randomWords) {\n    // uint8 zeroOne = uint8(randomGenerator() % 2) ;\n    randomWords = VRFv2Consumer(_VRFv2).getlRandomWords() ;\n  }\n\n  function select_Winner() public ownerOnly {\n    uint256 l_randomWords = getRandomValue(_VRF) ;\n    uint winnerIndex = l_randomWords % potPlayersArray.length ;  // potPlayers.length ;\n    uint winnerPrize = Calculation(winnerIndex) ;\n    emit SelectWinnerIndex(winnerIndex, address(this).balance, winnerPrize) ;\n    WinnerPrizePayment(winnerIndex, winnerPrize) ; \n    // potPlayersArr = new PotPlayerStr[](0) ;   // potPlayers\n    // delete potPlayersArr ;\n    delete potPlayersArray ;\n  }\n\n  function Calculation(uint winnerIndex) internal view returns (uint winnerPrize){\n    uint totalPot = address(this).balance ;\n    /* ToDo : Complete Winner Prize Calculation */\n    address WinnerAddress = potPlayersArray[winnerIndex] ;\n    uint WinnerPotAmount = PotPlayersMap[WinnerAddress].paymentValue ;\n    winnerPrize = totalPot - WinnerPotAmount ;\n    /* ToDo : Replace Calculation Parts with OpenZeppelin SafeMath ) */\n    (winnerPrize, ) = getDivided(winnerPrize, 2) ;\n  }\n\n  function WinnerPrizePayment(uint winnerIndex, uint winnerPrize) internal {\n    address payable potWinner = payable(potPlayersArray[winnerIndex]) ;  // PotPlayersToAddress   potPlayers \n    potWinner.transfer(winnerPrize) ;\n    emit SelectWinnerAddress(potWinner, winnerPrize) ;\n    // potWinner.transfer(address(this).balance) ;\n    //// potPlayers[winnerIndex].transfer(address(this).balance) ;\n  }\n\n  function listPlayers() external view returns (address[] memory){   // PotPlayerStr    (address[] memory   \n    return potPlayersArray ;  // potPlayersArr      potPlayers;\n  }\n\n  function withdraw() external ownerOnly {\n    payable(msg.sender).transfer(address(this).balance) ;\n  }\n\n}\n",
  "sourcePath": "/home/batis/SrcCode/myPRJ/SmartContBlockChain/BSCLottery/contracts/LotteryCore.sol",
  "compiler": {
    "name": "solc",
    "version": "0.8.9+commit.e5eed63a.Emscripten.clang"
  },
  "schemaVersion": "3.4.3",
  "updatedAt": "2022-04-02T15:38:09.974Z",
  "devdoc": {
    "kind": "dev",
    "methods": {},
    "version": 1
  },
  "userdoc": {
    "kind": "user",
    "methods": {},
    "version": 1
  }
}