{
  "contractName": "LotteryCore",
  "abi": [
    {
      "inputs": [
        {
          "internalType": "uint64",
          "name": "subscriptionId",
          "type": "uint64"
        },
        {
          "internalType": "address",
          "name": "generatorLotteryAddress",
          "type": "address"
        },
        {
          "internalType": "address",
          "name": "WeeklyLotteryAddress",
          "type": "address"
        },
        {
          "internalType": "address",
          "name": "MonthlyLotteryAddress",
          "type": "address"
        },
        {
          "internalType": "address",
          "name": "LiquidityPoolAddr",
          "type": "address"
        },
        {
          "internalType": "address",
          "name": "MultiSigWalletAddr",
          "type": "address"
        }
      ],
      "stateMutability": "nonpayable",
      "type": "constructor"
    },
    {
      "inputs": [
        {
          "internalType": "address",
          "name": "have",
          "type": "address"
        },
        {
          "internalType": "address",
          "name": "want",
          "type": "address"
        }
      ],
      "name": "OnlyCoordinatorCanFulfill",
      "type": "error"
    },
    {
      "anonymous": false,
      "inputs": [
        {
          "indexed": false,
          "internalType": "address",
          "name": "sender",
          "type": "address"
        },
        {
          "indexed": false,
          "internalType": "uint256",
          "name": "value",
          "type": "uint256"
        }
      ],
      "name": "LogDepositReceived",
      "type": "event"
    },
    {
      "anonymous": false,
      "inputs": [
        {
          "indexed": true,
          "internalType": "address",
          "name": "previousOwner",
          "type": "address"
        },
        {
          "indexed": true,
          "internalType": "address",
          "name": "newOwner",
          "type": "address"
        }
      ],
      "name": "OwnershipTransferred",
      "type": "event"
    },
    {
      "anonymous": false,
      "inputs": [
        {
          "indexed": false,
          "internalType": "address",
          "name": "potPlayer",
          "type": "address"
        },
        {
          "indexed": false,
          "internalType": "uint256",
          "name": "playerId",
          "type": "uint256"
        },
        {
          "indexed": false,
          "internalType": "uint256",
          "name": "PlayerValue",
          "type": "uint256"
        },
        {
          "indexed": false,
          "internalType": "uint256",
          "name": "ticketNumber",
          "type": "uint256"
        }
      ],
      "name": "PlayerRegister",
      "type": "event"
    },
    {
      "anonymous": false,
      "inputs": [
        {
          "indexed": false,
          "internalType": "address",
          "name": "potPlayer",
          "type": "address"
        },
        {
          "indexed": false,
          "internalType": "uint256[]",
          "name": "playerId",
          "type": "uint256[]"
        },
        {
          "indexed": false,
          "internalType": "uint256",
          "name": "playCount",
          "type": "uint256"
        },
        {
          "indexed": false,
          "internalType": "uint256",
          "name": "playerValue",
          "type": "uint256"
        },
        {
          "indexed": false,
          "internalType": "uint256",
          "name": "ticketNumber",
          "type": "uint256"
        }
      ],
      "name": "PlayerTotalValue",
      "type": "event"
    },
    {
      "anonymous": false,
      "inputs": [
        {
          "indexed": false,
          "internalType": "bool",
          "name": "isReadySelectWinner",
          "type": "bool"
        }
      ],
      "name": "ReadyForSelectWinner",
      "type": "event"
    },
    {
      "anonymous": false,
      "inputs": [
        {
          "indexed": false,
          "internalType": "address",
          "name": "potWinner",
          "type": "address"
        },
        {
          "indexed": false,
          "internalType": "uint256",
          "name": "winnerPrize",
          "type": "uint256"
        }
      ],
      "name": "SelectWinnerAddress",
      "type": "event"
    },
    {
      "anonymous": false,
      "inputs": [
        {
          "indexed": false,
          "internalType": "uint256",
          "name": "winnerIndex",
          "type": "uint256"
        },
        {
          "indexed": false,
          "internalType": "uint256",
          "name": "potBalance",
          "type": "uint256"
        },
        {
          "indexed": false,
          "internalType": "uint256",
          "name": "winnerPrize",
          "type": "uint256"
        }
      ],
      "name": "SelectWinnerIndex",
      "type": "event"
    },
    {
      "anonymous": false,
      "inputs": [
        {
          "indexed": false,
          "internalType": "uint256",
          "name": "vrfCalledTime",
          "type": "uint256"
        }
      ],
      "name": "StartSelectngWinner",
      "type": "event"
    },
    {
      "anonymous": false,
      "inputs": [
        {
          "indexed": false,
          "internalType": "address",
          "name": "receiver",
          "type": "address"
        },
        {
          "indexed": false,
          "internalType": "uint256",
          "name": "TrxValue",
          "type": "uint256"
        }
      ],
      "name": "TotalPayment",
      "type": "event"
    },
    {
      "stateMutability": "payable",
      "type": "fallback",
      "payable": true
    },
    {
      "inputs": [],
      "name": "owner",
      "outputs": [
        {
          "internalType": "address",
          "name": "",
          "type": "address"
        }
      ],
      "stateMutability": "view",
      "type": "function",
      "constant": true
    },
    {
      "inputs": [],
      "name": "potStartTime",
      "outputs": [
        {
          "internalType": "uint256",
          "name": "",
          "type": "uint256"
        }
      ],
      "stateMutability": "view",
      "type": "function",
      "constant": true
    },
    {
      "inputs": [],
      "name": "potWinnerPrize",
      "outputs": [
        {
          "internalType": "uint256",
          "name": "",
          "type": "uint256"
        }
      ],
      "stateMutability": "view",
      "type": "function",
      "constant": true
    },
    {
      "inputs": [
        {
          "internalType": "uint256",
          "name": "requestId",
          "type": "uint256"
        },
        {
          "internalType": "uint256[]",
          "name": "randomWords",
          "type": "uint256[]"
        }
      ],
      "name": "rawFulfillRandomWords",
      "outputs": [],
      "stateMutability": "nonpayable",
      "type": "function"
    },
    {
      "inputs": [],
      "name": "realPLayerCount",
      "outputs": [
        {
          "internalType": "uint256",
          "name": "",
          "type": "uint256"
        }
      ],
      "stateMutability": "view",
      "type": "function",
      "constant": true
    },
    {
      "inputs": [],
      "name": "renounceOwnership",
      "outputs": [],
      "stateMutability": "nonpayable",
      "type": "function"
    },
    {
      "inputs": [
        {
          "internalType": "uint256",
          "name": "",
          "type": "uint256"
        }
      ],
      "name": "s_randomWords",
      "outputs": [
        {
          "internalType": "uint256",
          "name": "",
          "type": "uint256"
        }
      ],
      "stateMutability": "view",
      "type": "function",
      "constant": true
    },
    {
      "inputs": [],
      "name": "s_requestId",
      "outputs": [
        {
          "internalType": "uint256",
          "name": "",
          "type": "uint256"
        }
      ],
      "stateMutability": "view",
      "type": "function",
      "constant": true
    },
    {
      "inputs": [
        {
          "internalType": "address",
          "name": "newOwner",
          "type": "address"
        }
      ],
      "name": "transferOwnership",
      "outputs": [],
      "stateMutability": "nonpayable",
      "type": "function"
    },
    {
      "stateMutability": "payable",
      "type": "receive",
      "payable": true
    },
    {
      "inputs": [],
      "name": "balanceInPot",
      "outputs": [
        {
          "internalType": "uint256",
          "name": "",
          "type": "uint256"
        }
      ],
      "stateMutability": "view",
      "type": "function",
      "constant": true
    },
    {
      "inputs": [],
      "name": "withdraw",
      "outputs": [],
      "stateMutability": "nonpayable",
      "type": "function"
    },
    {
      "inputs": [],
      "name": "close",
      "outputs": [],
      "stateMutability": "nonpayable",
      "type": "function"
    },
    {
      "inputs": [],
      "name": "potInitialize",
      "outputs": [
        {
          "internalType": "bool",
          "name": "success",
          "type": "bool"
        }
      ],
      "stateMutability": "nonpayable",
      "type": "function"
    },
    {
      "inputs": [],
      "name": "potPause",
      "outputs": [
        {
          "internalType": "bool",
          "name": "success",
          "type": "bool"
        }
      ],
      "stateMutability": "nonpayable",
      "type": "function"
    },
    {
      "inputs": [],
      "name": "play",
      "outputs": [
        {
          "internalType": "bool",
          "name": "success",
          "type": "bool"
        }
      ],
      "stateMutability": "payable",
      "type": "function",
      "payable": true
    },
    {
      "inputs": [],
      "name": "select_Winner",
      "outputs": [
        {
          "internalType": "bool",
          "name": "success",
          "type": "bool"
        }
      ],
      "stateMutability": "nonpayable",
      "type": "function"
    },
    {
      "inputs": [],
      "name": "select_Winner_Continue",
      "outputs": [
        {
          "internalType": "bool",
          "name": "success",
          "type": "bool"
        }
      ],
      "stateMutability": "nonpayable",
      "type": "function"
    },
    {
      "inputs": [],
      "name": "planB_VRFDelay",
      "outputs": [
        {
          "internalType": "bool",
          "name": "isActive",
          "type": "bool"
        }
      ],
      "stateMutability": "nonpayable",
      "type": "function"
    },
    {
      "inputs": [
        {
          "internalType": "address",
          "name": "_WeeklyPotAddress",
          "type": "address"
        }
      ],
      "name": "set_WeeklyPotAddress",
      "outputs": [],
      "stateMutability": "nonpayable",
      "type": "function"
    },
    {
      "inputs": [
        {
          "internalType": "address",
          "name": "_MonthlyPotAddress",
          "type": "address"
        }
      ],
      "name": "set_MonthlyPotAddress",
      "outputs": [],
      "stateMutability": "nonpayable",
      "type": "function"
    },
    {
      "inputs": [
        {
          "internalType": "address",
          "name": "_contractAddr",
          "type": "address"
        }
      ],
      "name": "set_generatorLotteryAddress",
      "outputs": [],
      "stateMutability": "nonpayable",
      "type": "function"
    },
    {
      "inputs": [
        {
          "internalType": "address",
          "name": "_LiquidityPoolAddress",
          "type": "address"
        }
      ],
      "name": "set_LiquidityPoolAddress",
      "outputs": [],
      "stateMutability": "nonpayable",
      "type": "function"
    },
    {
      "inputs": [
        {
          "internalType": "address",
          "name": "_MultiSigWalletAddress",
          "type": "address"
        }
      ],
      "name": "set_MultiSigWalletAddress",
      "outputs": [],
      "stateMutability": "nonpayable",
      "type": "function"
    },
    {
      "inputs": [
        {
          "internalType": "address",
          "name": "_DirectorAddress",
          "type": "address"
        }
      ],
      "name": "setDirector",
      "outputs": [],
      "stateMutability": "nonpayable",
      "type": "function"
    },
    {
      "inputs": [],
      "name": "listPlayers",
      "outputs": [
        {
          "internalType": "address[]",
          "name": "",
          "type": "address[]"
        }
      ],
      "stateMutability": "view",
      "type": "function",
      "constant": true
    },
    {
      "inputs": [],
      "name": "getLotteryTickets",
      "outputs": [
        {
          "internalType": "uint256[]",
          "name": "",
          "type": "uint256[]"
        }
      ],
      "stateMutability": "view",
      "type": "function",
      "constant": true
    },
    {
      "inputs": [],
      "name": "isPotActive",
      "outputs": [
        {
          "internalType": "bool",
          "name": "",
          "type": "bool"
        }
      ],
      "stateMutability": "view",
      "type": "function",
      "constant": true
    },
    {
      "inputs": [],
      "name": "getTicketPrice",
      "outputs": [
        {
          "internalType": "uint256",
          "name": "",
          "type": "uint256"
        }
      ],
      "stateMutability": "pure",
      "type": "function",
      "constant": true
    },
    {
      "inputs": [],
      "name": "getTicketAmount",
      "outputs": [
        {
          "internalType": "uint256",
          "name": "",
          "type": "uint256"
        }
      ],
      "stateMutability": "view",
      "type": "function",
      "constant": true
    },
    {
      "inputs": [],
      "name": "getPlayersNumber",
      "outputs": [
        {
          "internalType": "uint256",
          "name": "",
          "type": "uint256"
        }
      ],
      "stateMutability": "view",
      "type": "function",
      "constant": true
    },
    {
      "inputs": [],
      "name": "getWinners",
      "outputs": [
        {
          "internalType": "address",
          "name": "",
          "type": "address"
        },
        {
          "internalType": "uint256",
          "name": "",
          "type": "uint256"
        }
      ],
      "stateMutability": "view",
      "type": "function",
      "constant": true
    },
    {
      "inputs": [],
      "name": "isReadySelectWinner",
      "outputs": [
        {
          "internalType": "bool",
          "name": "",
          "type": "bool"
        }
      ],
      "stateMutability": "view",
      "type": "function",
      "constant": true
    },
    {
      "inputs": [],
      "name": "isWinnerSelected",
      "outputs": [
        {
          "internalType": "bool",
          "name": "",
          "type": "bool"
        }
      ],
      "stateMutability": "view",
      "type": "function",
      "constant": true
    },
    {
      "inputs": [],
      "name": "getStartedTime",
      "outputs": [
        {
          "internalType": "uint256",
          "name": "",
          "type": "uint256"
        }
      ],
      "stateMutability": "view",
      "type": "function",
      "constant": true
    },
    {
      "inputs": [],
      "name": "getPotDirector",
      "outputs": [
        {
          "internalType": "address",
          "name": "",
          "type": "address"
        }
      ],
      "stateMutability": "view",
      "type": "function",
      "constant": true
    },
    {
      "inputs": [],
      "name": "getAllContractAddresses",
      "outputs": [
        {
          "internalType": "address",
          "name": "gAddress",
          "type": "address"
        },
        {
          "internalType": "address",
          "name": "lAddress",
          "type": "address"
        },
        {
          "internalType": "address",
          "name": "wAddress",
          "type": "address"
        },
        {
          "internalType": "address",
          "name": "mAddress",
          "type": "address"
        },
        {
          "internalType": "address",
          "name": "sAddress",
          "type": "address"
        }
      ],
      "stateMutability": "view",
      "type": "function",
      "constant": true
    },
    {
      "inputs": [
        {
          "internalType": "address",
          "name": "PlayerAddress",
          "type": "address"
        }
      ],
      "name": "getPlayerAmounts",
      "outputs": [
        {
          "internalType": "uint256",
          "name": "",
          "type": "uint256"
        },
        {
          "internalType": "uint256",
          "name": "",
          "type": "uint256"
        }
      ],
      "stateMutability": "view",
      "type": "function",
      "constant": true
    },
    {
      "inputs": [
        {
          "internalType": "address",
          "name": "PlayerAddress",
          "type": "address"
        }
      ],
      "name": "getPlayerValue",
      "outputs": [
        {
          "internalType": "uint256",
          "name": "",
          "type": "uint256"
        }
      ],
      "stateMutability": "view",
      "type": "function",
      "constant": true
    }
  ],
  "bytecode": "0x60a0604052600380546001600160a01b0319908116736168499c0cffcacd319c818142124b7a15e857ab179091556004805482167301be23585060835e02b77ef475b0cc51aa1e07091790557fd89b2bf150e3b9e13446986e571fb9cab24b13cea0a43ea20a6049a85cc807cc6005556006805466010003000186a06001600160501b03199091161790556000600f819055601081905560118190556012556019805490911673893300d805a6db7d4e691fa7679db53c94802cde179055348015620000ca57600080fd5b5060405162002c6d38038062002c6d833981016040819052620000ed9162000247565b6003546001600160a01b03166200010433620001da565b6001600160a01b03908116608052600354600180549183166001600160a01b0319928316179055600454600280549184166001600160e01b031990921691909117600160a01b6001600160401b039a909a169990990298909817909755600e80546001600160b01b0319163361ffff60a01b19161790556013805460ff1916905542600f5560098054881696821696909617909555600a8054871692861692909217909155600c8054861693851693909317909255600d80548516918416919091179055600b80549093169116179055620002d5565b600080546001600160a01b038381166001600160a01b0319831681178455604051919092169283917f8be0079c531659141344cd1fd0a4f28419497f9722a3daafe3b4186f6b6457e09190a35050565b80516001600160a01b03811681146200024257600080fd5b919050565b60008060008060008060c087890312156200026157600080fd5b86516001600160401b03811681146200027957600080fd5b955062000289602088016200022a565b945062000299604088016200022a565b9350620002a9606088016200022a565b9250620002b9608088016200022a565b9150620002c960a088016200022a565b90509295509295509295565b608051612975620002f86000396000818161086101526108bc01526129756000f3fe6080604052600436106102895760003560e01c80636cf6995811610153578063a8078b7a116100cb578063df15c37e1161007f578063e8b05e3811610064578063e8b05e38146107f7578063f2fde38b14610816578063f6eaffc81461083657610314565b8063df15c37e1461079e578063e89e106a146107e157610314565b8063c5ae6f3e116100b0578063c5ae6f3e14610754578063c7c15ac914610772578063d7573c111461078857610314565b8063a8078b7a14610727578063bfdf8b121461073c57610314565b806387bb7ae0116101225780638da5cb5b116101075780638da5cb5b146106b457806393e84cd9146106e65780639e94d5ab146106ee57610314565b806387bb7ae0146106855780638b8ed6511461069f57610314565b80636cf6995814610626578063715018a61461063b578063766eef11146106505780638613e4cf1461066557610314565b80633ccfd60b116102015780634442713c116101b5578063614f6f871161019a578063614f6f87146105cf57806364605d51146105ef5780636c2534371461061157610314565b80634442713c146105905780635efaf044146105af57610314565b80633fa420c4116101e65780633fa420c41461053957806343d726d614610559578063442db8fb1461056e57610314565b80633ccfd60b1461050e5780633f4600c31461052357610314565b80632ac75ab51161025857806332aa8b2c1161023d57806332aa8b2c146104825780633818b9ef146104a25780633b33b61a146104b757610314565b80632ac75ab51461041a5780633298944a1461042f57610314565b806314e59987146103935780631fe543e3146103b557806326ba4319146103d55780632ac37c8d146103f557610314565b3661031457600e54600160a01b900460ff166103125760405162461bcd60e51b815260206004820152603b60248201527f54686520506f7420686173206e6f74206265656e20526561647920746f20506c60448201527f617920796574204f72205468652047616d65206973204f76657221000000000060648201526084015b60405180910390fd5b005b600e54600160a01b900460ff166103125760405162461bcd60e51b815260206004820152603b60248201527f54686520506f7420686173206e6f74206265656e20526561647920746f20506c60448201527f617920796574204f72205468652047616d65206973204f7665722100000000006064820152608401610309565b34801561039f57600080fd5b50475b6040519081526020015b60405180910390f35b3480156103c157600080fd5b506103126103d036600461262b565b610856565b3480156103e157600080fd5b506103126103f03660046126f5565b6108f7565b34801561040157600080fd5b5061040a610a1d565b60405190151581526020016103ac565b34801561042657600080fd5b5061040a610aa4565b34801561043b57600080fd5b5061046d61044a3660046126f5565b6001600160a01b0316600090815260146020526040902080546001909101549091565b604080519283526020830191909152016103ac565b34801561048e57600080fd5b5061031261049d3660046126f5565b610c41565b3480156104ae57600080fd5b5061040a610d0d565b3480156104c357600080fd5b50600954600a54600c54600d54600b54604080516001600160a01b0396871681529486166020860152928516928401929092528316606083015291909116608082015260a0016103ac565b34801561051a57600080fd5b50610312610f51565b34801561052f57600080fd5b506103a260125481565b34801561054557600080fd5b506103126105543660046126f5565b610fda565b34801561056557600080fd5b506103126110a6565b34801561057a57600080fd5b5061058361110f565b6040516103ac9190612725565b34801561059c57600080fd5b50600e54600160a01b900460ff1661040a565b3480156105bb57600080fd5b506103126105ca3660046126f5565b611167565b3480156105db57600080fd5b506103126105ea3660046126f5565b611233565b3480156105fb57600080fd5b506106046112ff565b6040516103ac9190612769565b34801561061d57600080fd5b5061040a611360565b34801561063257600080fd5b506016546103a2565b34801561064757600080fd5b5061031261144b565b34801561065c57600080fd5b506015546103a2565b34801561067157600080fd5b506103126106803660046126f5565b6114b1565b34801561069157600080fd5b50662386f26fc100006103a2565b3480156106ab57600080fd5b5061040a61157d565b3480156106c057600080fd5b506000546001600160a01b03165b6040516001600160a01b0390911681526020016103ac565b61040a611704565b3480156106fa57600080fd5b506103a26107093660046126f5565b6001600160a01b031660009081526014602052604090206001015490565b34801561073357600080fd5b506103a2611c01565b34801561074857600080fd5b5060135460ff1661040a565b34801561076057600080fd5b506019546001600160a01b03166106ce565b34801561077e57600080fd5b506103a260115481565b34801561079457600080fd5b506103a2600f5481565b3480156107aa57600080fd5b506107c26018546012546001600160a01b0390911691565b604080516001600160a01b0390931683526020830191909152016103ac565b3480156107ed57600080fd5b506103a260085481565b34801561080357600080fd5b50600e54600160a81b900460ff1661040a565b34801561082257600080fd5b506103126108313660046126f5565b611c16565b34801561084257600080fd5b506103a26108513660046127aa565b611cf5565b336001600160a01b037f000000000000000000000000000000000000000000000000000000000000000016146108e9576040517f1cf993f40000000000000000000000000000000000000000000000000000000081523360048201526001600160a01b037f0000000000000000000000000000000000000000000000000000000000000000166024820152604401610309565b6108f38282611d16565b5050565b6000546001600160a01b031633146109515760405162461bcd60e51b815260206004820181905260248201527f4f776e61626c653a2063616c6c6572206973206e6f7420746865206f776e65726044820152606401610309565b6001600160a01b0381166109a15760405162461bcd60e51b8152602060048201526017602482015276476976656e204164647265737320697320456d7074792160481b6044820152606401610309565b806001600160a01b0316316000036109fb5760405162461bcd60e51b815260206004820152601e60248201527f476976656e20416464726573732042616c616e6365206973205a65726f2100006044820152606401610309565b601980546001600160a01b0319166001600160a01b0392909216919091179055565b6019546000906001600160a01b0316331480610a435750600e546001600160a01b031633145b610a865760405162461bcd60e51b81526020600482015260146024820152735065726d697373696f6e2044656e69656420212160601b6044820152606401610309565b50600e805461ffff60a01b191690556013805460ff19169055600190565b6019546000906001600160a01b0316331480610aca5750600e546001600160a01b031633145b610b0d5760405162461bcd60e51b81526020600482015260146024820152735065726d697373696f6e2044656e69656420212160601b6044820152606401610309565b600e54600160a81b900460ff161515600114610b815760405162461bcd60e51b815260206004820152602d60248201527f54686520506f74206973206e6f7420726561647920666f722053656c6563746960448201526c3733903a3432902bb4b73732b960991b6064820152608401610309565b60135460ff1615610bfa5760405162461bcd60e51b815260206004820152602660248201527f5468652057696e6e657220686173204e6f74206265656e2053656c656374656460448201527f20596574202100000000000000000000000000000000000000000000000000006064820152608401610309565b4260108190556040519081527f3b0b75510568e9c6916c9a7c853a3892b9634e5ca8717abbec6cea1b7f4ac2d79060200160405180910390a1610c3b611d71565b50600190565b6000546001600160a01b03163314610c9b5760405162461bcd60e51b815260206004820181905260248201527f4f776e61626c653a2063616c6c6572206973206e6f7420746865206f776e65726044820152606401610309565b6001600160a01b038116610ceb5760405162461bcd60e51b8152602060048201526017602482015276476976656e204164647265737320697320456d7074792160481b6044820152606401610309565b600b80546001600160a01b0319166001600160a01b0392909216919091179055565b6019546000906001600160a01b0316331480610d335750600e546001600160a01b031633145b610d765760405162461bcd60e51b81526020600482015260146024820152735065726d697373696f6e2044656e69656420212160601b6044820152606401610309565b600e54600160a81b900460ff161515600114610dea5760405162461bcd60e51b815260206004820152602d60248201527f54686520506f74206973206e6f7420726561647920666f722053656c6563746960448201526c3733903a3432902bb4b73732b960991b6064820152608401610309565b60135460ff161515600114610e505760405162461bcd60e51b815260206004820152602660248201527f5468652057696e6e657220686173206265656e2053656c6563746564206265666044820152656f726520212160d01b6064820152608401610309565b60006016805490506007600081548110610e6c57610e6c6127c3565b9060005260206000200154610e8191906127ef565b905060168181548110610e9657610e966127c3565b906000526020600020015490506000806000806000610eb486611eb4565b604080518c8152476020820152908101869052949950929750909550935091507f274f2e5ea35472f60f411beb007713c0f1c1b574f260789eedee1789cd49d9f59060600160405180910390a1610f0c864787611f92565b50610f17868661211b565b610f23848484846121bb565b610f2b6123c1565b5050600e805461ffff60a01b1916905550506013805460ff191690555060019392505050565b6000546001600160a01b03163314610fab5760405162461bcd60e51b815260206004820181905260248201527f4f776e61626c653a2063616c6c6572206973206e6f7420746865206f776e65726044820152606401610309565b60405133904780156108fc02916000818181858888f19350505050158015610fd7573d6000803e3d6000fd5b50565b6000546001600160a01b031633146110345760405162461bcd60e51b815260206004820181905260248201527f4f776e61626c653a2063616c6c6572206973206e6f7420746865206f776e65726044820152606401610309565b6001600160a01b0381166110845760405162461bcd60e51b8152602060048201526017602482015276476976656e204164647265737320697320456d7074792160481b6044820152606401610309565b600c80546001600160a01b0319166001600160a01b0392909216919091179055565b6000546001600160a01b031633146111005760405162461bcd60e51b815260206004820181905260248201527f4f776e61626c653a2063616c6c6572206973206e6f7420746865206f776e65726044820152606401610309565b600e546001600160a01b031680ff5b6060601680548060200260200160405190810160405280929190818152602001828054801561115d57602002820191906000526020600020905b815481526020019060010190808311611149575b5050505050905090565b6000546001600160a01b031633146111c15760405162461bcd60e51b815260206004820181905260248201527f4f776e61626c653a2063616c6c6572206973206e6f7420746865206f776e65726044820152606401610309565b6001600160a01b0381166112115760405162461bcd60e51b8152602060048201526017602482015276476976656e204164647265737320697320456d7074792160481b6044820152606401610309565b600a80546001600160a01b0319166001600160a01b0392909216919091179055565b6000546001600160a01b0316331461128d5760405162461bcd60e51b815260206004820181905260248201527f4f776e61626c653a2063616c6c6572206973206e6f7420746865206f776e65726044820152606401610309565b6001600160a01b0381166112dd5760405162461bcd60e51b8152602060048201526017602482015276476976656e204164647265737320697320456d7074792160481b6044820152606401610309565b600d80546001600160a01b0319166001600160a01b0392909216919091179055565b6060601580548060200260200160405190810160405280929190818152602001828054801561115d57602002820191906000526020600020905b81546001600160a01b03168152600190910190602001808311611339575050505050905090565b6019546000906001600160a01b03163314806113865750600e546001600160a01b031633145b6113c95760405162461bcd60e51b81526020600482015260146024820152735065726d697373696f6e2044656e69656420212160601b6044820152606401610309565b600e54600160a01b900460ff16156114235760405162461bcd60e51b815260206004820152601b60248201527f54686520506f742069732073746172746564206265666f7265202100000000006044820152606401610309565b50600e805461ffff60a01b1916600160a01b17905542600f556013805460ff19169055600190565b6000546001600160a01b031633146114a55760405162461bcd60e51b815260206004820181905260248201527f4f776e61626c653a2063616c6c6572206973206e6f7420746865206f776e65726044820152606401610309565b6114af600061247c565b565b6000546001600160a01b0316331461150b5760405162461bcd60e51b815260206004820181905260248201527f4f776e61626c653a2063616c6c6572206973206e6f7420746865206f776e65726044820152606401610309565b6001600160a01b03811661155b5760405162461bcd60e51b8152602060048201526017602482015276476976656e204164647265737320697320456d7074792160481b6044820152606401610309565b600980546001600160a01b0319166001600160a01b0392909216919091179055565b6019546000906001600160a01b03163314806115a35750600e546001600160a01b031633145b6115e65760405162461bcd60e51b81526020600482015260146024820152735065726d697373696f6e2044656e69656420212160601b6044820152606401610309565b600e54600160a81b900460ff16151560011461165a5760405162461bcd60e51b815260206004820152602d60248201527f54686520506f74206973206e6f7420726561647920666f722053656c6563746960448201526c3733903a3432902bb4b73732b960991b6064820152608401610309565b60135460ff16156116bc5760405162461bcd60e51b815260206004820152602660248201527f5468652057696e6e657220686173206265656e2053656c6563746564206265666044820152656f726520212160d01b6064820152608401610309565b60105442906000908211156116fb576010546116d89083612819565b905061012c8111156116fb576013805460ff191660019081179091559250505090565b60009250505090565b600e54600090600160a01b900460ff166117865760405162461bcd60e51b815260206004820152603b60248201527f54686520506f7420686173206e6f74206265656e20526561647920746f20506c60448201527f617920796574204f72205468652047616d65206973204f7665722100000000006064820152608401610309565b662386f26fc1000034101580156117a45750678ac7230489e8000034105b6118165760405162461bcd60e51b815260206004820152602560248201527f56616c75652073686f756c64206265206265747765656e20302e30312026203160448201527f3020424e420000000000000000000000000000000000000000000000000000006064820152608401610309565b33600090815260146020526040902060010154678ac7230489e800008111156118815760405162461bcd60e51b815260206004820152601660248201527f596f7520706c6179656420746f6f206d756368202121000000000000000000006044820152606401610309565b60008061189534662386f26fc100006124cc565b915091508060001461190f5760405162461bcd60e51b815260206004820152602e60248201527f56616c75652073686f756c6420626520616e20496e7465676572206d7574697060448201527f6c65206f6620302e303120424e420000000000000000000000000000000000006064820152608401610309565b601580546001818101835560008381527f55f448fdea98c4d29eb340757ef0a66cd03dbb9538908a6a81d96026b71ec47590920180546001600160a01b031916331790559154909161196091612819565b60165490915060005b848110156119b857601680546001810182556000919091527fd833147d7dc355ba459fc788f669e58cfaf9dc25ddcd0702e87d69c7b512428901839055806119b081612830565b915050611969565b50601654604080516060810182528481526020810184905290810182905260178054600181018255600091909152611a179160039182027fc624b66cc0138b8fabc209247f72d758e1cf3343756d543badbf24212bed8c15019161256e565b50601754336000908152601460205260408120805460019290611a3b908490612849565b90915550503360009081526014602052604081206001018054349290611a62908490612849565b90915550503360009081526014602052604081206002018054889290611a89908490612849565b90915550503360008181526014602090815260408220600481018054600181810183559185528385200189905560038201805480830182559085529284209092018590559290915290549003611aef5760118054906000611ae983612830565b91905055505b67016345785d8a00004710158015611b0a5750600560115410155b15611b3e57600e80547fffffffffffffffffffff00ffffffffffffffffffffffffffffffffffffffffff16600160a81b1790555b604080513381526020810186905234818301526060810188905290517f8de5754e4ed9d4994bdb4b2b8c12dfcd51b0e994c1d34a7f20fe7f3d3fbb7bc29181900360800190a13360009081526014602052604090205460011015611bf757336000818152601460205260409081902080546001820154600283015493517ff0b342fc13c65867c873cfbf6e19b5285bae679018bdf3376a4baca5ff066e0d95611bee959094600401939291612861565b60405180910390a15b5050505050505090565b6000600f5442611c119190612819565b905090565b6000546001600160a01b03163314611c705760405162461bcd60e51b815260206004820181905260248201527f4f776e61626c653a2063616c6c6572206973206e6f7420746865206f776e65726044820152606401610309565b6001600160a01b038116611cec5760405162461bcd60e51b815260206004820152602660248201527f4f776e61626c653a206e6577206f776e657220697320746865207a65726f206160448201527f64647265737300000000000000000000000000000000000000000000000000006064820152608401610309565b610fd78161247c565b60078181548110611d0557600080fd5b600091825260209091200154905081565b8051611d299060079060208401906125ac565b506013805460ff191660019081179091556040519081527f320b3a07d7df24a614650bb07173e3a57f3e687cb2e87e07ab99e0854d09493c9060200160405180910390a15050565b6019546001600160a01b0316331480611d945750600e546001600160a01b031633145b611dd75760405162461bcd60e51b81526020600482015260146024820152735065726d697373696f6e2044656e69656420212160601b6044820152606401610309565b6001546005546002546006546040517f5d3b1d300000000000000000000000000000000000000000000000000000000081526004810193909352600160a01b90910467ffffffffffffffff166024830152640100000000810461ffff16604483015263ffffffff808216606484015266010000000000009091041660848201526001600160a01b0390911690635d3b1d309060a4016020604051808303816000875af1158015611e8b573d6000803e3d6000fd5b505050506040513d601f19601f82011682018060405250810190611eaf91906128d1565b600855565b600080600080600080479050600060158881548110611ed557611ed56127c3565b60009182526020808320909101546001600160a01b03168083526014909152604082206001015490925090611f0a8285612819565b9850611f178960026124cc565b509850611f24828a612849565b98506000611f328a86612819565b9050611f3f8160146124cc565b50985088975087905089611f548260026128ea565b611f5e9087612819565b611f689190612819565b9150611f758260056124cc565b509650611f828783612819565b9550505050505091939590929450565b600080600060158681548110611faa57611faa6127c3565b6000918252602082200154601880546001600160a01b0319166001600160a01b0392831690811790915560128790556009546040517f3305bd30000000000000000000000000000000000000000000000000000000008152306004820152336024820152604481018a905260648101929092526084820193909352911690633305bd309060a4016020604051808303816000875af1158015612050573d6000803e3d6000fd5b505050506040513d601f19601f820116820180604052508101906120749190612909565b6009546018546040517fa0f569340000000000000000000000000000000000000000000000000000000081523360048201526001600160a01b03918216602482015260448101889052929450169063a0f56934906064016020604051808303816000875af11580156120ea573d6000803e3d6000fd5b505050506040513d601f19601f8201168201806040525081019061210e91906128d1565b5060019695505050505050565b600060158381548110612130576121306127c3565b60009182526020822001546040516001600160a01b039091169250829184156108fc02918591818181858888f19350505050158015612173573d6000803e3d6000fd5b50604080516001600160a01b0383168152602081018490527f9b320e270eb528aa46b3a21b196f1da153ccb2d5637e892594474e969fe6b7a9910160405180910390a1505050565b600c546040516001600160a01b0390911690819086156108fc029087906000818181858888f193505050501580156121f7573d6000803e3d6000fd5b50604080516001600160a01b0383168152602081018790527fd36f5f37e53a101e11e745c4b553773a94d17d9d7cec00640ac8331369a76d11910160405180910390a150600d546040516001600160a01b0390911690819085156108fc029086906000818181858888f19350505050158015612277573d6000803e3d6000fd5b50604080516001600160a01b0383168152602081018690527fd36f5f37e53a101e11e745c4b553773a94d17d9d7cec00640ac8331369a76d11910160405180910390a150600a546040516001600160a01b0390911690819084156108fc029085906000818181858888f193505050501580156122f7573d6000803e3d6000fd5b50604080516001600160a01b0383168152602081018590527fd36f5f37e53a101e11e745c4b553773a94d17d9d7cec00640ac8331369a76d11910160405180910390a150600b546040516001600160a01b0390911690819083156108fc029084906000818181858888f19350505050158015612377573d6000803e3d6000fd5b50604080516001600160a01b0383168152602081018490527fd36f5f37e53a101e11e745c4b553773a94d17d9d7cec00640ac8331369a76d11910160405180910390a15050505050565b60008060005b6015546123d690600190612819565b811161245757601581815481106123ef576123ef6127c3565b60009182526020808320909101546001600160a01b031680835260149091526040822082815560018101839055600281018390559093509061243460038301826125e6565b6124426004830160006125e6565b5050808061244f90612830565b9150506123c7565b50612464601560006125e6565b612470601660006125e6565b50506000601155600190565b600080546001600160a01b038381166001600160a01b0319831681178455604051919092169283917f8be0079c531659141344cd1fd0a4f28419497f9722a3daafe3b4186f6b6457e09190a35050565b600080600084116125455760405162461bcd60e51b815260206004820152602b60248201527f4469766973696f6e206973204e6f7420506f737369626c65202c20427567206960448201527f6e204e756d6265727320210000000000000000000000000000000000000000006064820152608401610309565b61254f838561292b565b915061255b82846128ea565b6125659085612819565b90509250929050565b826003810192821561259c579160200282015b8281111561259c578251825591602001919060010190612581565b506125a8929150612600565b5090565b82805482825590600052602060002090810192821561259c579160200282018281111561259c578251825591602001919060010190612581565b5080546000825590600052602060002090810190610fd791905b5b808211156125a85760008155600101612601565b634e487b7160e01b600052604160045260246000fd5b6000806040838503121561263e57600080fd5b8235915060208084013567ffffffffffffffff8082111561265e57600080fd5b818601915086601f83011261267257600080fd5b81358181111561268457612684612615565b8060051b604051601f19603f830116810181811085821117156126a9576126a9612615565b6040529182528482019250838101850191898311156126c757600080fd5b938501935b828510156126e5578435845293850193928501926126cc565b8096505050505050509250929050565b60006020828403121561270757600080fd5b81356001600160a01b038116811461271e57600080fd5b9392505050565b6020808252825182820181905260009190848201906040850190845b8181101561275d57835183529284019291840191600101612741565b50909695505050505050565b6020808252825182820181905260009190848201906040850190845b8181101561275d5783516001600160a01b031683529284019291840191600101612785565b6000602082840312156127bc57600080fd5b5035919050565b634e487b7160e01b600052603260045260246000fd5b634e487b7160e01b600052601260045260246000fd5b6000826127fe576127fe6127d9565b500690565b634e487b7160e01b600052601160045260246000fd5b60008282101561282b5761282b612803565b500390565b60006001820161284257612842612803565b5060010190565b6000821982111561285c5761285c612803565b500190565b600060a082016001600160a01b0388168352602060a08185015281885480845260c0860191508960005282600020935060005b818110156128b057845483526001948501949284019201612894565b50506040850197909752505050606081019290925260809091015292915050565b6000602082840312156128e357600080fd5b5051919050565b600081600019048311821515161561290457612904612803565b500290565b60006020828403121561291b57600080fd5b8151801515811461271e57600080fd5b60008261293a5761293a6127d9565b50049056fea2646970667358221220528ac0f62b5655f27ee8f9057f83f5b4533846220b2858c5491a8341c272146f64736f6c634300080d0033",
  "immutableReferences": {
    "10": [
      {
        "length": 32,
        "start": 2145
      },
      {
        "length": 32,
        "start": 2236
      }
    ]
  },
  "source": "// SPDX-License-Identifier: GNU-GPLv3\npragma solidity ^0.8.0;\n// pragma experimental ABIEncoderV2;\n\nimport \"@openzeppelin/contracts/access/Ownable.sol\";\nimport \"@openzeppelin/contracts/utils/math/SafeMath.sol\";\n\nimport \"@chainlink/contracts/src/v0.8/interfaces/LinkTokenInterface.sol\";\nimport \"@chainlink/contracts/src/v0.8/interfaces/VRFCoordinatorV2Interface.sol\";\nimport \"@chainlink/contracts/src/v0.8/VRFConsumerBaseV2.sol\";\n\n\n// import \"./VRFv2SubscriptionManager.sol\";\n// import \"./VRFv2Consumer.sol\";\n\n// import \"truffle/Console.sol\";\n// import \"hardhat/console.sol\";  // Work in Local-Test in Remix\n\nimport \"./LotteryInterface.sol\";\n\n/**\n************************************************************************************\n************************************************************************************\n*/\n\n/**\n  * @title Core SmartContract for BNB Game Lottery \n  * @author Batis Abhari (https://github.com/baties - ContactMe: abhari_Batis@hotmail.com)\n  * @notice This SmartContract is responsible for implimentation of Lottery Core System and communication with the Players \n  * @dev  \n*/\ncontract LotteryCore is Ownable, VRFConsumerBaseV2 {\n\n  VRFCoordinatorV2Interface COORDINATOR;\n  LinkTokenInterface LINKTOKEN;\n  uint64 s_subscriptionId;\n \n  // Rinkeby coordinator. For other networks,\n  // see https://docs.chain.link/docs/vrf-contracts/#configurations\n  address vrfCoordinator = 0x6168499c0cFfCaCD319c818142124B7A15E857ab;  // Rinkeby\n  // address vrfCoordinator = 0x6A2AAd07396B36Fe02a22b33cf443582f682c82f;  // BSC TestNet coordinator\n  // address vrfCoordinator = 0xc587d9053cd1118f25F645F9E08BB98c9712A4EE;  // BSC MainNet coordinator\n\n\n  // Rinkeby LINK token contract. For other networks,\n  // see https://docs.chain.link/docs/vrf-contracts/#configurations\n  address link = 0x01BE23585060835E02B77ef475b0Cc51aA1e0709;  // Rinkeby\n  // address link = 0x84b9B910527Ad5C03A9Ca831909E21e236EA7b06;  //  BSC TestNet LINK token\n  // address link = 0x404460C6A5EdE2D891e8297795264fDe62ADBB75;  // BSC MainNet LINK token\n\n  // The gas lane to use, which specifies the maximum gas price to bump to.\n  // For a list of available gas lanes on each network,\n  // see https://docs.chain.link/docs/vrf-contracts/#configurations\n  bytes32 keyHash = 0xd89b2bf150e3b9e13446986e571fb9cab24b13cea0a43ea20a6049a85cc807cc;  // Rinkeby\n  // bytes32 keyHash = 0xd4bb89654db74673a187bd804519e65e3f71a52bc55f11da7601a13dcf505314;  //  BSC TestNet keyhash\n  // bytes32 keyHash = 0x114f3da0a805b6a67d6e9cd2ec746f7028f1b7376365af575cfea3550dd1aa04;  //  BSC MAinNet keyhash\n\n  uint32 callbackGasLimit = 100000;\n  uint16 requestConfirmations = 3;\n  uint32 numWords =  1;\n\n  uint256[] public s_randomWords;\n  uint256 public s_requestId;\n\n\n  // address private _VRF;\n  address private generatorLotteryAddr;\n  address private LiquidityPoolAddress;\n  address private MultiSigWalletAddress;\n  address private WeeklyPotAddress;\n  address private MonthlyPotAddress;   \n  address private LotteryOwner;\n\n  uint constant TICKET_PRICE = 10 * 1e15; // finney (0.01 Ether)\n\n  bool private lPotActive;  \n  bool private lReadySelectWinner; \n  uint public potStartTime = 0;\n  uint private vrfCalledTime = 0;\n  uint public realPLayerCount = 0;\n  uint public potWinnerPrize = 0;\n  bool private lWinnerSelected;\n\n  struct PotPlayerStr{\n    uint PaymentCount;\n    uint paymentValue;\n    uint TicketNumbers;\n    uint[] TicketsId;\n    uint[] PlayersId;\n  }\n\n  mapping (address => PotPlayerStr) private PotPlayersMap;  \n  address[] private potPlayersArray;  \n  uint[] private potTickets;\n  uint[3][] private potTicketIds;  /* ToDo: Change Search routine base on the Start and End of Tickets for each Address (ID)  */ \n  address private potWinnerAddress;\n  address private potDirector=0x893300D805A6dB7d4E691Fa7679dB53C94802cDE;  \n   \n  /* ToDo : Lottery Pot Generator Structure as a Wrapper for Lottery Core */\n  // struct LotteryPot{\n  //   string potLabel;\n  //   uint entryCount;\n  //   uint potSerial;\n  //   uint potValue;\n  //   // mapping(address => PotPlayer) players;\n  // }\n\n  event SelectWinnerIndex(uint winnerIndex, uint potBalance, uint winnerPrize);\n  event SelectWinnerAddress(address potWinner, uint winnerPrize);\n  event PlayerRegister(address potPlayer, uint playerId, uint PlayerValue, uint ticketNumber);\n  event PlayerTotalValue(address potPlayer, uint[] playerId, uint playCount, uint playerValue, uint ticketNumber);\n  event TotalPayment(address receiver, uint TrxValue);\n  event ReadyForSelectWinner(bool isReadySelectWinner);\n  event StartSelectngWinner(uint vrfCalledTime);\n  event LogDepositReceived(address sender, uint value);\n\n  // constructor(address VRF, address generatorLotteryAddress, address WeeklyLotteryAddress, address MonthlyLotteryAddress, address LiquidityPoolAddr) {\n  constructor(uint64 subscriptionId, address generatorLotteryAddress, address WeeklyLotteryAddress, address MonthlyLotteryAddress, address LiquidityPoolAddr, address MultiSigWalletAddr) VRFConsumerBaseV2(vrfCoordinator) {\n    COORDINATOR = VRFCoordinatorV2Interface(vrfCoordinator);\n    LINKTOKEN = LinkTokenInterface(link);\n    s_subscriptionId = subscriptionId;\n    LotteryOwner = msg.sender;\n    lPotActive = false;\n    lReadySelectWinner = false;\n    lWinnerSelected = false;\n    potStartTime = block.timestamp;\n    generatorLotteryAddr = generatorLotteryAddress;\n    LiquidityPoolAddress = LiquidityPoolAddr ;\n    WeeklyPotAddress = WeeklyLotteryAddress ;\n    MonthlyPotAddress = MonthlyLotteryAddress ;   \n    MultiSigWalletAddress = MultiSigWalletAddr ;\n    // _VRF = VRF;\n  }\n\n  /* ToDo : Add & Complete Fallback routine */\n  fallback() external payable isGameOn {\n  }\n\n  receive() external payable isGameOn {\n  }\n\n  // modifier onlyOwner() {\n  //   require(msg.sender == LotteryOwner, \"Owner Only! . You have not the right Access.\");\n  //   _;\n  // }\n\n  modifier isAllowedManager() {\n      require( msg.sender == potDirector || msg.sender == LotteryOwner , \"Permission Denied !!\" );\n      _;\n  }\n\n  modifier isGameOn() {\n      require(lPotActive , \"The Pot has not been Ready to Play yet Or The Game is Over!\");  // && !lReadySelectWinner \n      _;\n  }\n\n  modifier isPotValuable() {\n      require( (address(this).balance >= 0.1 ether && potPlayersArray.length >= 5) , \"The Pot is not Filled Enough !\");\n      _;\n  }\n\n  function balanceInPot() public view returns(uint){\n    return address(this).balance;\n  }\n\n  function withdraw() external onlyOwner {\n    payable(msg.sender).transfer(address(this).balance);\n  }\n\n  function close() public onlyOwner { \n    address payable addr = payable(address(LotteryOwner));  // owner\n    selfdestruct(addr); \n  }\n\n  /**\n    * @notice Request Random Words From VRF Coordinator\n    * @dev For more Details refer to : https://docs.chain.link/docs/chainlink-vrf-best-practices/#getting-multiple-random-numbers\n  */\n  function requestRandomWords() internal isAllowedManager {    \n    // Will revert if subscription is not set and funded.\n    s_requestId = COORDINATOR.requestRandomWords(\n      keyHash,\n      s_subscriptionId,\n      requestConfirmations,\n      callbackGasLimit,\n      numWords\n    );\n  }\n\n  /**\n    * @notice VRF Coordinator Call Back this Function after generating Random Number\n    * @dev For more Details refer to : https://docs.chain.link/docs/chainlink-vrf-best-practices/#getting-multiple-random-numbers\n  */\n  function fulfillRandomWords(\n    uint256, /* requestId */\n    uint256[] memory randomWords\n  ) internal override {\n    s_randomWords = randomWords;\n    // select_Winner_Continue();\n    lWinnerSelected = true;\n    emit ReadyForSelectWinner(lWinnerSelected);\n  }\n\n  /* ToDo : Replace This function with OpenZeppelin SafeMath */\n  /**\n    * @notice Function for deviding two Integer Numbers and return the results.\n    * @dev Safe Function for Devision Operation.\n    * @param numerator : The Integer Number which is being devided on another Integer Number.\n    * @param denominator : The Integer Number which another Int NUmber is devided by this.  \n    * @return quotient and remainder of the Devision, Both are Integer Numbers. \n  */\n  function getDivided(uint numerator, uint denominator) private pure returns(uint quotient, uint remainder) {\n    require( denominator >= 0, \"Division is Not Possible , Bug in Numbers !\");\n    require( numerator > 0, \"Division is Not Possible , Bug in Numbers !\");\n    quotient  = numerator / denominator; \n    remainder = numerator - denominator * quotient;\n  }\n\n  /**\n    * @notice The Local Random Generator Function.\n    * @dev The Local Random Generator Function for Local Development and Running the Tests.\n    * @return None. \n  */\n  function randomGenerator() private view returns (uint) {\n    return uint(\n      keccak256(\n        abi.encodePacked(\n          block.difficulty, block.timestamp, potTickets ))) ;\n  }\n  \n  // function getlRandomWords() external view returns (uint256) {\n  //    return s_randomWords[0];\n  // }\n\n  // function lrequestRandomWords(address _VRFv2) public isAllowedManager {\n  //   VRFv2Consumer(_VRFv2).requestRandomWords() ;\n  // }\n\n  // function getRandomValue(address _VRFv2) public view onlyOwner returns (uint256 randomWords) {\n  //   // uint8 zeroOne = uint8(randomGenerator() % 2);\n  //   // randomWords = randomGenerator();\n  //   randomWords = VRFv2Consumer(_VRFv2).getlRandomWords();\n  // }\n\n  // function rRandomValue() public onlyOwner {\n  //   requestRandomWords();\n  // }\n\n  /**\n    * @notice Hourly Lottery Pot Initialization.\n    * @dev AtFirst The Hourly Lottery have been Initialized for Default but after each Pot it Must be Initialized for next Pot .\n    * @return success Flag \n  */\n  function potInitialize() external isAllowedManager returns(bool success) {\n    require(lPotActive == false, \"The Pot is started before !\");\n    lPotActive = true ;\n    lReadySelectWinner = false;\n    potStartTime = block.timestamp;\n    lWinnerSelected = false;\n    success = true;\n  }\n\n  /**\n    * @notice Hourly Lottery Pot is Pausable, This is the Trigger.\n    * @dev THis Function just Pauses the current Pot Play and Select Winner Routines and Use only for Emergency .\n    * @return success Flag \n  */\n  function potPause() external isAllowedManager returns(bool success) {\n    lPotActive = false ;\n    lReadySelectWinner = false;\n    lWinnerSelected = false;\n    success = true;\n  }\n\n  /**\n    * @notice Players' Operation and Calculation after Sending Transaction to the SmartContract. \n    * @dev Payable Function. \n    * @dev This Function is resposible for Accepting new Gamers in Hourly Lottery \n    * @return success Flag\n  */\n  function play() public payable isGameOn returns(bool success) {\n    require(msg.value >= 0.01 ether && msg.value < 10 ether, \"Value should be between 0.01 & 10 BNB\");\n\n    uint userPotAmount = PotPlayersMap[msg.sender].paymentValue;\n    require(userPotAmount <= 10 ether, \"You played too much !!\");\n\n    /* ToDo: Replace with SafeMath */\n    (uint ticketNumber, uint remainder ) = getDivided(msg.value, TICKET_PRICE); // 10000000000000000\n    require(remainder == 0, \"Value should be an Integer mutiple of 0.01 BNB\");\n\n    potPlayersArray.push( msg.sender );\n    uint id = potPlayersArray.length - 1; \n\n    uint ticketStart = potTickets.length;\n    for (uint jj = 0; jj < ticketNumber; jj++) {\n      potTickets.push( id );\n    }\n    uint ticketEnd = potTickets.length;\n    potTicketIds.push([id, ticketStart, ticketEnd]);\n    uint id2 = potTicketIds.length;\n\n    PotPlayersMap[msg.sender].PaymentCount += 1;\n    PotPlayersMap[msg.sender].paymentValue += msg.value;\n    PotPlayersMap[msg.sender].TicketNumbers += ticketNumber;\n    PotPlayersMap[msg.sender].PlayersId.push( id );\n    PotPlayersMap[msg.sender].TicketsId.push( id2);\n    if (PotPlayersMap[msg.sender].PaymentCount == 1) {\n      realPLayerCount++;\n    }\n\n    if (address(this).balance >= 0.1 ether && realPLayerCount >= 5) {  // // potPlayersArray.length\n      lReadySelectWinner = true;\n    } \n\n    emit PlayerRegister(msg.sender, id, msg.value, ticketNumber) ;\n    if (PotPlayersMap[msg.sender].PaymentCount > 1) {\n        emit PlayerTotalValue(msg.sender, PotPlayersMap[msg.sender].PlayersId, PotPlayersMap[msg.sender].PaymentCount, PotPlayersMap[msg.sender].paymentValue, PotPlayersMap[msg.sender].TicketNumbers) ;\n    }    \n\n    return success;\n  }\n\n  /**\n    * @notice Hourly Lottery Pot Winner Selection, This Winner is Selected among Hourly Member List.\n    * @dev Hourly Lottery Pot Winner Selection Start Process, This Function Just Called Request Random Number Routine For Communicate with VRF Coordinator.\n    * @return success Flag \n  */\n  function select_Winner() public isAllowedManager returns(bool success) {  \n\n    require(lReadySelectWinner == true, \"The Pot is not ready for Selecting the Winner\");\n    require(lWinnerSelected == false, \"The Winner has Not been Selected Yet !\");\n\n    // lPotActive = false;\n    vrfCalledTime = block.timestamp;\n    emit StartSelectngWinner(vrfCalledTime);\n    \n    requestRandomWords();  // Comment For Local-Test in Remix  \n    // lWinnerSelected = true;  // UnComment For Local-Test in Remix\n\n    success = true;\n\n  }\n\n  /**\n    * @notice Hourly Lottery Pot Winner Selection Continue, This Function Selects The Winner With Random Number Generated.\n    * @dev Hourly Lottery Pot Winner Selection Continue, This Function Only Call after fulfillRandomWords is Called. \n    * @dev This Function is responsible for Updating Lottery Data, Pay the Winner Prize & then clear and Release the Memory\n    * @return success Flag \n  */\n  function select_Winner_Continue() public isAllowedManager returns(bool success) {  \n    \n    require(lReadySelectWinner == true, \"The Pot is not ready for Selecting the Winner\");\n    // if (planB_VRFDelay() == false) {\n      require(lWinnerSelected == true, \"The Winner has been Selected before !!\");\n    // }\n\n    uint winnerIndex = s_randomWords[0] % potTickets.length;    // l_randomWords    // Comment For Local-Test in Remix\n    // uint randomWords = randomGenerator();  // UnComment For Local-Test in Remix\n    // uint winnerIndex = randomWords % potTickets.length;  // UnComment For Local-Test in Remix   \n\n    winnerIndex = potTickets[winnerIndex];\n    (uint winnerPrize, uint weeklyPot, uint monthlyPot, uint liquidityAmount, uint multiSigWalletAmount) = Calculation(winnerIndex);\n    \n    emit SelectWinnerIndex(winnerIndex, address(this).balance, winnerPrize);\n\n    UpdateLotteryData(winnerIndex, address(this).balance, winnerPrize);\n    WinnerPrizePayment(winnerIndex, winnerPrize); \n    FinalPayment(weeklyPot, monthlyPot, liquidityAmount, multiSigWalletAmount);\n    ClearDataBase();\n    // console.log(\"Select Winner Done !\");\n\n    lPotActive = false;\n    lReadySelectWinner = false;\n    lWinnerSelected = false;\n    success = true;\n\n  }\n\n  /**\n    * @notice Release Smart Contract Memory .\n    * @dev Clear All Storages .\n    * @return True\n  */\n  function ClearDataBase() private returns (bool) {\n    address playerAddress;\n    for (uint256 index = 0; index <= potPlayersArray.length - 1; index++) {\n        playerAddress = potPlayersArray[index];\n        // if (PotPlayersMap[playerAddress].PaymentCount > 0) {\n        //     PotPlayersMap[playerAddress].PaymentCount = 0;\n        //     PotPlayersMap[playerAddress].paymentValue = 0;\n        //     PotPlayersMap[playerAddress].TicketNumbers = 0;\n        //     delete PotPlayersMap[playerAddress].PlayersId;\n        //     delete PotPlayersMap[playerAddress].TicketsId;\n        // }\n        delete PotPlayersMap[playerAddress];\n    }\n    delete potPlayersArray;\n    delete potTickets;\n    realPLayerCount = 0;\n    return true;\n  }\n\n  /**\n    * @notice Calculation of Pot Winner Prize.\n    * @dev Findout the 50% of the Total Pot and The Winner payment and Calculation of Weekly & Monthly Pot Prizes.\n  */\n  function Calculation(uint _winnerIndex) private view returns (uint winnerPrize, uint weeklyPot, uint monthlyPot, uint liquidityAmount, uint multiSigWalletAmount){\n\n    uint totalPot = address(this).balance;\n    address WinnerAddress = potPlayersArray[_winnerIndex];\n    uint WinnerPotAmount = PotPlayersMap[WinnerAddress].paymentValue;\n    uint calcAmount = 0;\n\n    winnerPrize = totalPot - WinnerPotAmount;\n    /* ToDo : Replace Calculation Parts with OpenZeppelin SafeMath ) */\n    (winnerPrize, ) = getDivided(winnerPrize, 2);\n    winnerPrize += WinnerPotAmount; \n\n    uint otherPots = totalPot - winnerPrize;\n    (otherPots, ) = getDivided(otherPots, 20);\n    weeklyPot = otherPots;\n    monthlyPot = otherPots;\n    calcAmount = totalPot - 2 * otherPots - winnerPrize;\n    (liquidityAmount, ) = getDivided(calcAmount, 5);\n    multiSigWalletAmount = calcAmount - liquidityAmount;\n\n  }\n\n  /**\n    * @notice Pay Pot Prize to the Winner.\n    * @dev Transfer Pot Prize to the Winner.\n  */\n  function WinnerPrizePayment(uint _winnerIndex, uint _winnerPrize) private {\n\n    address payable potWinner = payable(potPlayersArray[_winnerIndex]);  \n    potWinner.transfer(_winnerPrize);\n    emit SelectWinnerAddress(potWinner, _winnerPrize);\n    // potPlayers[winnerIndex].transfer(address(this).balance);\n\n  }\n\n  /**\n    * @notice Remaining Pot Money Transfer.\n    * @dev Transfer remaining Money to the Weekly Pot, Monthly Pot & Liquidity Pool & MultiSigWallet.\n  */\n  function FinalPayment(uint weeklyPot, uint monthlyPot, uint liquidityAmount, uint multiSigWalletAmount) private {   // onlyOwner \n\n    // uint TrxValue = address(this).balance;\n    // address payable receiver = payable(WeeklyPotAddress);\n    // TrxValue = address(this).balance; \n    // receiver.transfer(TrxValue);\n    // emit TotalPayment(receiver, TrxValue);\n\n    address payable receiver = payable(WeeklyPotAddress);\n    receiver.transfer(weeklyPot);\n    emit TotalPayment(receiver, weeklyPot);\n\n    receiver = payable(MonthlyPotAddress);\n    receiver.transfer(monthlyPot);\n    emit TotalPayment(receiver, monthlyPot);\n\n    receiver = payable(LiquidityPoolAddress);\n    receiver.transfer(liquidityAmount);\n    emit TotalPayment(receiver, liquidityAmount);\n\n    receiver = payable(MultiSigWalletAddress);\n    receiver.transfer(multiSigWalletAmount);\n    emit TotalPayment(receiver, multiSigWalletAmount);\n\n  }\n\n  /**\n    * @notice Save The Winner Address for Weekly Lottery\n    * @dev Update Generator Smart Contract For Saving Hourly Winner Address\n  */\n  function UpdateLotteryData(uint _winnerIndex, uint _balance, uint _winnerPrize) private returns(bool) {\n    bool _success;\n    uint _winnerId;\n    // address _winnerAddress = potPlayersArray[_winnerIndex];\n    potWinnerAddress = potPlayersArray[_winnerIndex];\n    potWinnerPrize = _winnerPrize;\n    _success = LotteryInterface(generatorLotteryAddr).setlotteryStructs(address(this), msg.sender, _balance, potWinnerAddress, 0);  \n    _winnerId = LotteryInterface(generatorLotteryAddr).setlotteryWinnersArrayMap(msg.sender, potWinnerAddress, _winnerPrize);  \n    return true;\n  }\n\n  /**\n    * @notice This Function is Only a PLan B for When The VRF Coordinator does not respond in a short time .\n    * @dev Only If after 5 min the VRF Coordinator does not respond This function Change the lWinnerSelected to True so the Last Random Word used instead of a new one .\n    * @return isActive Flag \n  */\n  function planB_VRFDelay() public isAllowedManager returns(bool isActive){ \n    require(lReadySelectWinner == true, \"The Pot is not ready for Selecting the Winner\");\n    require(lWinnerSelected == false, \"The Winner has been Selected before !!\");\n    uint nowTime = block.timestamp;\n    uint waitTime = 0;\n    if (nowTime > vrfCalledTime) {\n      waitTime = nowTime - vrfCalledTime ;\n      if (waitTime > 5 minutes) {\n          lWinnerSelected = true;\n          isActive = true;\n      } else {\n        isActive = false;\n      }\n    } else {\n      isActive = false;\n    }\n  }\n\n  function set_WeeklyPotAddress(address _WeeklyPotAddress) external onlyOwner {\n    require(_WeeklyPotAddress != address(0), \"Given Address is Empty!\");\n    WeeklyPotAddress = _WeeklyPotAddress;\n  }\n\n  function set_MonthlyPotAddress(address _MonthlyPotAddress) external onlyOwner {\n    require(_MonthlyPotAddress != address(0), \"Given Address is Empty!\");\n    MonthlyPotAddress = _MonthlyPotAddress;\n  }\n\n  function set_generatorLotteryAddress(address _contractAddr) external onlyOwner {\n    require(_contractAddr != address(0), \"Given Address is Empty!\");\n    generatorLotteryAddr = _contractAddr;\n  }\n\n  function set_LiquidityPoolAddress(address _LiquidityPoolAddress) external onlyOwner {\n    require(_LiquidityPoolAddress != address(0), \"Given Address is Empty!\");\n    LiquidityPoolAddress = _LiquidityPoolAddress;\n  }\n\n  function set_MultiSigWalletAddress(address _MultiSigWalletAddress) external onlyOwner {\n    require(_MultiSigWalletAddress != address(0), \"Given Address is Empty!\");\n    MultiSigWalletAddress = _MultiSigWalletAddress;\n  }\n\n  function setDirector(address _DirectorAddress) external onlyOwner {\n    require(_DirectorAddress != address(0), \"Given Address is Empty!\");\n    require(address(_DirectorAddress).balance != 0, \"Given Address Balance is Zero!\");\n    potDirector = _DirectorAddress;\n  }\n\n  function listPlayers() public view returns (address[] memory){  \n    return potPlayersArray;  \n  }\n\n  function getLotteryTickets() public view returns(uint[] memory) {\n    return potTickets;\n  }\n\n  function isPotActive() public view returns(bool) {\n    return lPotActive;\n  }\n\n  function getTicketPrice() public pure returns(uint) {\n    return TICKET_PRICE;\n  }\n\n  function getTicketAmount() public view returns(uint) {\n    return potTickets.length;\n  }\n\n  function getPlayersNumber() public view returns(uint) {\n    return potPlayersArray.length;\n  }\n\n  function getWinners() public view returns(address, uint) {\n    return ( potWinnerAddress, potWinnerPrize ) ;  \n  }  \n\n  function isReadySelectWinner() public view returns(bool) {\n    return lReadySelectWinner;\n  }\n\n  function isWinnerSelected() public view returns(bool) {\n    return lWinnerSelected;\n  }\n\n  function getStartedTime() public view returns(uint) {\n    return block.timestamp - potStartTime;\n  }\n\n  function getPotDirector() public view returns(address) {\n    return potDirector;\n  }\n\n  // function getVerifier() public view returns(address) {\n  //   return _VRF;\n  // }\n\n  // function getAllContractAddresses() public view returns(address[] memory) {\n  //   address[] memory contractAddresses;\n  //   contractAddresses[0] = generatorLotteryAddr;\n  //   contractAddresses[1] = LiquidityPoolAddress;\n  //   contractAddresses[2] = WeeklyPotAddress;\n  //   contractAddresses[3] = MonthlyPotAddress;\n  //   return contractAddresses;\n  // }\n  function getAllContractAddresses() public view returns(address gAddress, address lAddress, address wAddress, address mAddress, address sAddress) {\n    gAddress = generatorLotteryAddr ;\n    lAddress = LiquidityPoolAddress ;\n    wAddress = WeeklyPotAddress ;\n    mAddress = MonthlyPotAddress ;\n    sAddress = MultiSigWalletAddress ;\n    return (gAddress, lAddress, wAddress, mAddress, sAddress); \n  }\n\n  function getPlayerAmounts(address PlayerAddress) public view returns(uint, uint) {\n    uint PaymentCount = PotPlayersMap[PlayerAddress].PaymentCount;\n    uint PaymentValue = PotPlayersMap[PlayerAddress].paymentValue;\n    return (PaymentCount, PaymentValue);\n  }\n\n  function getPlayerValue(address PlayerAddress) public view returns(uint) {\n    uint PaymentValue = PotPlayersMap[PlayerAddress].paymentValue;\n    return PaymentValue;\n  }\n\n}\n\n\n/**\n************************************************************************************\n************************************************************************************\n**/\n",
  "sourcePath": "/home/batis/SrcCode/myPRJ/SmartContBlockChain/BSCLottery/contracts/LotteryCore.sol",
  "compiler": {
    "name": "solc",
    "version": "0.8.13+commit.abaa5c0e.Emscripten.clang"
  },
  "schemaVersion": "3.4.8",
  "updatedAt": "2022-07-30T19:23:04.875Z",
  "networkType": "ethereum",
  "devdoc": {
    "author": "Batis Abhari (https://github.com/baties - ContactMe: abhari_Batis@hotmail.com)",
    "kind": "dev",
    "methods": {
      "owner()": {
        "details": "Returns the address of the current owner."
      },
      "planB_VRFDelay()": {
        "details": "Only If after 5 min the VRF Coordinator does not respond This function Change the lWinnerSelected to True so the Last Random Word used instead of a new one .",
        "returns": {
          "isActive": "Flag "
        }
      },
      "play()": {
        "details": "Payable Function. This Function is resposible for Accepting new Gamers in Hourly Lottery ",
        "returns": {
          "success": "Flag"
        }
      },
      "potInitialize()": {
        "details": "AtFirst The Hourly Lottery have been Initialized for Default but after each Pot it Must be Initialized for next Pot .",
        "returns": {
          "success": "Flag "
        }
      },
      "potPause()": {
        "details": "THis Function just Pauses the current Pot Play and Select Winner Routines and Use only for Emergency .",
        "returns": {
          "success": "Flag "
        }
      },
      "renounceOwnership()": {
        "details": "Leaves the contract without owner. It will not be possible to call `onlyOwner` functions anymore. Can only be called by the current owner. NOTE: Renouncing ownership will leave the contract without an owner, thereby removing any functionality that is only available to the owner."
      },
      "select_Winner()": {
        "details": "Hourly Lottery Pot Winner Selection Start Process, This Function Just Called Request Random Number Routine For Communicate with VRF Coordinator.",
        "returns": {
          "success": "Flag "
        }
      },
      "select_Winner_Continue()": {
        "details": "Hourly Lottery Pot Winner Selection Continue, This Function Only Call after fulfillRandomWords is Called. This Function is responsible for Updating Lottery Data, Pay the Winner Prize & then clear and Release the Memory",
        "returns": {
          "success": "Flag "
        }
      },
      "transferOwnership(address)": {
        "details": "Transfers ownership of the contract to a new account (`newOwner`). Can only be called by the current owner."
      }
    },
    "title": "Core SmartContract for BNB Game Lottery ",
    "version": 1
  },
  "userdoc": {
    "kind": "user",
    "methods": {
      "planB_VRFDelay()": {
        "notice": "This Function is Only a PLan B for When The VRF Coordinator does not respond in a short time ."
      },
      "play()": {
        "notice": "Players' Operation and Calculation after Sending Transaction to the SmartContract. "
      },
      "potInitialize()": {
        "notice": "Hourly Lottery Pot Initialization."
      },
      "potPause()": {
        "notice": "Hourly Lottery Pot is Pausable, This is the Trigger."
      },
      "select_Winner()": {
        "notice": "Hourly Lottery Pot Winner Selection, This Winner is Selected among Hourly Member List."
      },
      "select_Winner_Continue()": {
        "notice": "Hourly Lottery Pot Winner Selection Continue, This Function Selects The Winner With Random Number Generated."
      }
    },
    "notice": "This SmartContract is responsible for implimentation of Lottery Core System and communication with the Players ",
    "version": 1
  }
}