{
  "contractName": "LotteryLiquidityPool",
  "abi": [
    {
      "inputs": [
        {
          "internalType": "address",
          "name": "MultiSigAddress",
          "type": "address"
        }
      ],
      "stateMutability": "nonpayable",
      "type": "constructor"
    },
    {
      "anonymous": false,
      "inputs": [
        {
          "indexed": true,
          "internalType": "address",
          "name": "previousOwner",
          "type": "address"
        },
        {
          "indexed": true,
          "internalType": "address",
          "name": "newOwner",
          "type": "address"
        }
      ],
      "name": "OwnershipTransferred",
      "type": "event"
    },
    {
      "stateMutability": "payable",
      "type": "fallback",
      "payable": true
    },
    {
      "inputs": [],
      "name": "owner",
      "outputs": [
        {
          "internalType": "address",
          "name": "",
          "type": "address"
        }
      ],
      "stateMutability": "view",
      "type": "function",
      "constant": true
    },
    {
      "inputs": [],
      "name": "renounceOwnership",
      "outputs": [],
      "stateMutability": "nonpayable",
      "type": "function"
    },
    {
      "inputs": [
        {
          "internalType": "address",
          "name": "newOwner",
          "type": "address"
        }
      ],
      "name": "transferOwnership",
      "outputs": [],
      "stateMutability": "nonpayable",
      "type": "function"
    },
    {
      "stateMutability": "payable",
      "type": "receive",
      "payable": true
    },
    {
      "inputs": [],
      "name": "balanceInPot",
      "outputs": [
        {
          "internalType": "uint256",
          "name": "",
          "type": "uint256"
        }
      ],
      "stateMutability": "view",
      "type": "function",
      "constant": true
    },
    {
      "inputs": [],
      "name": "close",
      "outputs": [],
      "stateMutability": "nonpayable",
      "type": "function"
    },
    {
      "inputs": [],
      "name": "withdraw",
      "outputs": [],
      "stateMutability": "nonpayable",
      "type": "function"
    },
    {
      "inputs": [
        {
          "internalType": "uint256",
          "name": "amount",
          "type": "uint256"
        }
      ],
      "name": "sendToMultiSig",
      "outputs": [],
      "stateMutability": "payable",
      "type": "function",
      "payable": true
    },
    {
      "inputs": [
        {
          "internalType": "address",
          "name": "_MultiSigAddress",
          "type": "address"
        }
      ],
      "name": "set_MultiSigAddress",
      "outputs": [],
      "stateMutability": "nonpayable",
      "type": "function"
    },
    {
      "inputs": [],
      "name": "get_MultiSigAddress",
      "outputs": [
        {
          "internalType": "address",
          "name": "",
          "type": "address"
        }
      ],
      "stateMutability": "view",
      "type": "function",
      "constant": true
    }
  ],
  "bytecode": "0x608060405234801561001057600080fd5b506040516107a23803806107a283398101604081905261002f916100bb565b6100383361006b565b60018054336001600160a01b031991821617909155600280549091166001600160a01b03929092169190911790556100eb565b600080546001600160a01b038381166001600160a01b0319831681178455604051919092169283917f8be0079c531659141344cd1fd0a4f28419497f9722a3daafe3b4186f6b6457e09190a35050565b6000602082840312156100cd57600080fd5b81516001600160a01b03811681146100e457600080fd5b9392505050565b6106a8806100fa6000396000f3fe6080604052600436106100915760003560e01c80637c5b6f0011610063578063995bb4731161004b578063995bb47314610149578063d7d346d514610169578063f2fde38b1461017c57005b80637c5b6f00146100f95780638da5cb5b1461012b57005b806314e599871461009a5780633ccfd60b146100ba57806343d726d6146100cf578063715018a6146100e457005b3661009857005b005b3480156100a657600080fd5b506040514781526020015b60405180910390f35b3480156100c657600080fd5b5061009861019c565b3480156100db57600080fd5b5061009861022a565b3480156100f057600080fd5b50610098610293565b34801561010557600080fd5b506002546001600160a01b03165b6040516001600160a01b0390911681526020016100b1565b34801561013757600080fd5b506000546001600160a01b0316610113565b34801561015557600080fd5b50610098610164366004610629565b6102f9565b610098610177366004610659565b6103d8565b34801561018857600080fd5b50610098610197366004610629565b6104f1565b6000546001600160a01b031633146101fb5760405162461bcd60e51b815260206004820181905260248201527f4f776e61626c653a2063616c6c6572206973206e6f7420746865206f776e657260448201526064015b60405180910390fd5b60405133904780156108fc02916000818181858888f19350505050158015610227573d6000803e3d6000fd5b50565b6000546001600160a01b031633146102845760405162461bcd60e51b815260206004820181905260248201527f4f776e61626c653a2063616c6c6572206973206e6f7420746865206f776e657260448201526064016101f2565b6001546001600160a01b031680ff5b6000546001600160a01b031633146102ed5760405162461bcd60e51b815260206004820181905260248201527f4f776e61626c653a2063616c6c6572206973206e6f7420746865206f776e657260448201526064016101f2565b6102f760006105cc565b565b6000546001600160a01b031633146103535760405162461bcd60e51b815260206004820181905260248201527f4f776e61626c653a2063616c6c6572206973206e6f7420746865206f776e657260448201526064016101f2565b6001600160a01b0381166103a95760405162461bcd60e51b815260206004820152601760248201527f476976656e204164647265737320697320456d7074792100000000000000000060448201526064016101f2565b6002805473ffffffffffffffffffffffffffffffffffffffff19166001600160a01b0392909216919091179055565b6000546001600160a01b031633146104325760405162461bcd60e51b815260206004820181905260248201527f4f776e61626c653a2063616c6c6572206973206e6f7420746865206f776e657260448201526064016101f2565b8060000361043d5750475b4781111561044a57600080fd5b6002546040516000916001600160a01b03169083908381818185875af1925050503d8060008114610497576040519150601f19603f3d011682016040523d82523d6000602084013e61049c565b606091505b50509050806104ed5760405162461bcd60e51b815260206004820152601460248201527f4661696c656420746f2073656e6420457468657200000000000000000000000060448201526064016101f2565b5050565b6000546001600160a01b0316331461054b5760405162461bcd60e51b815260206004820181905260248201527f4f776e61626c653a2063616c6c6572206973206e6f7420746865206f776e657260448201526064016101f2565b6001600160a01b0381166105c75760405162461bcd60e51b815260206004820152602660248201527f4f776e61626c653a206e6577206f776e657220697320746865207a65726f206160448201527f646472657373000000000000000000000000000000000000000000000000000060648201526084016101f2565b610227815b600080546001600160a01b0383811673ffffffffffffffffffffffffffffffffffffffff19831681178455604051919092169283917f8be0079c531659141344cd1fd0a4f28419497f9722a3daafe3b4186f6b6457e09190a35050565b60006020828403121561063b57600080fd5b81356001600160a01b038116811461065257600080fd5b9392505050565b60006020828403121561066b57600080fd5b503591905056fea26469706673582212209714f781eb0c69b4c4662c11f0e0214df361dae9a82207470840bdb3301634da64736f6c634300080d0033",
  "immutableReferences": {},
  "source": "// SPDX-License-Identifier: MIT\npragma solidity ^0.8.0;\n\nimport \"@openzeppelin/contracts/access/Ownable.sol\";\n\ncontract LotteryLiquidityPool is Ownable {\n\n  address contractOwner;\n  address multiSigAddr;\n\n  constructor(address MultiSigAddress) {\n    contractOwner = msg.sender;\n    multiSigAddr = MultiSigAddress;\n  }\n\n  fallback() external payable {\n  }\n  receive() external payable {\n  }\n\n  function balanceInPot() public view returns(uint){\n    return address(this).balance;\n  }\n\n  function close() public onlyOwner { \n    address payable addr = payable(address(contractOwner));  // owner\n    selfdestruct(addr); \n  }\n\n  function withdraw() external onlyOwner {\n    payable(msg.sender).transfer(address(this).balance);\n  }\n\n  function sendToMultiSig(uint amount) public payable onlyOwner {\n    if (amount == 0) {\n      amount = address(this).balance;\n    }\n    require(amount <= address(this).balance);\n    (bool sent, ) = multiSigAddr.call{value: amount}(\"\");  // bytes memory data\n    require(sent, \"Failed to send Ether\");\n  }\n\n  function set_MultiSigAddress(address _MultiSigAddress) external onlyOwner {\n    require(_MultiSigAddress != address(0), \"Given Address is Empty!\");\n    multiSigAddr = _MultiSigAddress;\n  }\n\n  function get_MultiSigAddress() external view returns(address) {\n    return multiSigAddr;\n  }\n\n}",
  "sourcePath": "/home/batis/SrcCode/myPRJ/SmartContBlockChain/BSCLottery/contracts/LotteryLiquidityPool.sol",
  "compiler": {
    "name": "solc",
    "version": "0.8.13+commit.abaa5c0e.Emscripten.clang"
  },
  "schemaVersion": "3.4.8",
  "updatedAt": "2022-07-30T19:23:04.941Z",
  "networkType": "ethereum",
  "devdoc": {
    "kind": "dev",
    "methods": {
      "owner()": {
        "details": "Returns the address of the current owner."
      },
      "renounceOwnership()": {
        "details": "Leaves the contract without owner. It will not be possible to call `onlyOwner` functions anymore. Can only be called by the current owner. NOTE: Renouncing ownership will leave the contract without an owner, thereby removing any functionality that is only available to the owner."
      },
      "transferOwnership(address)": {
        "details": "Transfers ownership of the contract to a new account (`newOwner`). Can only be called by the current owner."
      }
    },
    "version": 1
  },
  "userdoc": {
    "kind": "user",
    "methods": {},
    "version": 1
  }
}