{
  "contractName": "MonthlyLottery",
  "abi": [
    {
      "inputs": [
        {
          "internalType": "uint64",
          "name": "subscriptionId",
          "type": "uint64"
        },
        {
          "internalType": "address",
          "name": "generatorLotteryAddress",
          "type": "address"
        }
      ],
      "stateMutability": "nonpayable",
      "type": "constructor"
    },
    {
      "inputs": [
        {
          "internalType": "address",
          "name": "have",
          "type": "address"
        },
        {
          "internalType": "address",
          "name": "want",
          "type": "address"
        }
      ],
      "name": "OnlyCoordinatorCanFulfill",
      "type": "error"
    },
    {
      "anonymous": false,
      "inputs": [
        {
          "indexed": true,
          "internalType": "address",
          "name": "previousOwner",
          "type": "address"
        },
        {
          "indexed": true,
          "internalType": "address",
          "name": "newOwner",
          "type": "address"
        }
      ],
      "name": "OwnershipTransferred",
      "type": "event"
    },
    {
      "anonymous": false,
      "inputs": [
        {
          "indexed": false,
          "internalType": "bool",
          "name": "isReadySelectWinner",
          "type": "bool"
        }
      ],
      "name": "ReadyForSelectWinner",
      "type": "event"
    },
    {
      "anonymous": false,
      "inputs": [
        {
          "indexed": false,
          "internalType": "address",
          "name": "potWinner",
          "type": "address"
        },
        {
          "indexed": false,
          "internalType": "uint256",
          "name": "winnerPrize",
          "type": "uint256"
        }
      ],
      "name": "SelectWinnerAddress",
      "type": "event"
    },
    {
      "anonymous": false,
      "inputs": [
        {
          "indexed": false,
          "internalType": "uint256",
          "name": "winnerIndex",
          "type": "uint256"
        },
        {
          "indexed": false,
          "internalType": "uint256",
          "name": "potBalance",
          "type": "uint256"
        },
        {
          "indexed": false,
          "internalType": "uint256",
          "name": "winnerPrize",
          "type": "uint256"
        }
      ],
      "name": "SelectWinnerIndex",
      "type": "event"
    },
    {
      "anonymous": false,
      "inputs": [
        {
          "indexed": false,
          "internalType": "address",
          "name": "receiver",
          "type": "address"
        },
        {
          "indexed": false,
          "internalType": "uint256",
          "name": "TrxValue",
          "type": "uint256"
        }
      ],
      "name": "TotalPayment",
      "type": "event"
    },
    {
      "stateMutability": "payable",
      "type": "fallback"
    },
    {
      "inputs": [],
      "name": "owner",
      "outputs": [
        {
          "internalType": "address",
          "name": "",
          "type": "address"
        }
      ],
      "stateMutability": "view",
      "type": "function"
    },
    {
      "inputs": [
        {
          "internalType": "uint256",
          "name": "requestId",
          "type": "uint256"
        },
        {
          "internalType": "uint256[]",
          "name": "randomWords",
          "type": "uint256[]"
        }
      ],
      "name": "rawFulfillRandomWords",
      "outputs": [],
      "stateMutability": "nonpayable",
      "type": "function"
    },
    {
      "inputs": [],
      "name": "renounceOwnership",
      "outputs": [],
      "stateMutability": "nonpayable",
      "type": "function"
    },
    {
      "inputs": [
        {
          "internalType": "uint256",
          "name": "",
          "type": "uint256"
        }
      ],
      "name": "s_randomWords",
      "outputs": [
        {
          "internalType": "uint256",
          "name": "",
          "type": "uint256"
        }
      ],
      "stateMutability": "view",
      "type": "function"
    },
    {
      "inputs": [],
      "name": "s_requestId",
      "outputs": [
        {
          "internalType": "uint256",
          "name": "",
          "type": "uint256"
        }
      ],
      "stateMutability": "view",
      "type": "function"
    },
    {
      "inputs": [
        {
          "internalType": "address",
          "name": "newOwner",
          "type": "address"
        }
      ],
      "name": "transferOwnership",
      "outputs": [],
      "stateMutability": "nonpayable",
      "type": "function"
    },
    {
      "stateMutability": "payable",
      "type": "receive"
    },
    {
      "inputs": [],
      "name": "balanceInPot",
      "outputs": [
        {
          "internalType": "uint256",
          "name": "",
          "type": "uint256"
        }
      ],
      "stateMutability": "view",
      "type": "function"
    },
    {
      "inputs": [],
      "name": "withdraw",
      "outputs": [],
      "stateMutability": "nonpayable",
      "type": "function"
    },
    {
      "inputs": [],
      "name": "requestRandomWords",
      "outputs": [],
      "stateMutability": "nonpayable",
      "type": "function"
    },
    {
      "inputs": [
        {
          "internalType": "uint256",
          "name": "numerator",
          "type": "uint256"
        },
        {
          "internalType": "uint256",
          "name": "denominator",
          "type": "uint256"
        }
      ],
      "name": "getDivided",
      "outputs": [
        {
          "internalType": "uint256",
          "name": "quotient",
          "type": "uint256"
        },
        {
          "internalType": "uint256",
          "name": "remainder",
          "type": "uint256"
        }
      ],
      "stateMutability": "pure",
      "type": "function"
    },
    {
      "inputs": [],
      "name": "potInitialize",
      "outputs": [
        {
          "internalType": "bool",
          "name": "success",
          "type": "bool"
        }
      ],
      "stateMutability": "nonpayable",
      "type": "function"
    },
    {
      "inputs": [],
      "name": "select_Winner",
      "outputs": [
        {
          "internalType": "bool",
          "name": "success",
          "type": "bool"
        }
      ],
      "stateMutability": "nonpayable",
      "type": "function"
    },
    {
      "inputs": [],
      "name": "select_Winner_Continue",
      "outputs": [
        {
          "internalType": "bool",
          "name": "success",
          "type": "bool"
        }
      ],
      "stateMutability": "nonpayable",
      "type": "function"
    },
    {
      "inputs": [],
      "name": "getWeeklyWinnersArray",
      "outputs": [
        {
          "internalType": "address[]",
          "name": "",
          "type": "address[]"
        }
      ],
      "stateMutability": "view",
      "type": "function"
    },
    {
      "inputs": [
        {
          "internalType": "address",
          "name": "_contractAddr",
          "type": "address"
        }
      ],
      "name": "set_generatorLotteryAddress",
      "outputs": [],
      "stateMutability": "nonpayable",
      "type": "function"
    },
    {
      "inputs": [
        {
          "internalType": "address",
          "name": "_DirectorAddress",
          "type": "address"
        }
      ],
      "name": "setDirector",
      "outputs": [],
      "stateMutability": "nonpayable",
      "type": "function"
    },
    {
      "inputs": [],
      "name": "listPlayers",
      "outputs": [
        {
          "internalType": "address[]",
          "name": "",
          "type": "address[]"
        }
      ],
      "stateMutability": "view",
      "type": "function"
    },
    {
      "inputs": [],
      "name": "isPotActive",
      "outputs": [
        {
          "internalType": "bool",
          "name": "",
          "type": "bool"
        }
      ],
      "stateMutability": "view",
      "type": "function"
    },
    {
      "inputs": [],
      "name": "getPlayersNumber",
      "outputs": [
        {
          "internalType": "uint256",
          "name": "",
          "type": "uint256"
        }
      ],
      "stateMutability": "view",
      "type": "function"
    },
    {
      "inputs": [],
      "name": "getWinners",
      "outputs": [
        {
          "internalType": "address",
          "name": "",
          "type": "address"
        },
        {
          "internalType": "uint256",
          "name": "",
          "type": "uint256"
        }
      ],
      "stateMutability": "view",
      "type": "function"
    },
    {
      "inputs": [],
      "name": "isReadySelectWinner",
      "outputs": [
        {
          "internalType": "bool",
          "name": "",
          "type": "bool"
        }
      ],
      "stateMutability": "view",
      "type": "function"
    },
    {
      "inputs": [],
      "name": "isWinnerSelected",
      "outputs": [
        {
          "internalType": "bool",
          "name": "",
          "type": "bool"
        }
      ],
      "stateMutability": "view",
      "type": "function"
    },
    {
      "inputs": [],
      "name": "getPotDirector",
      "outputs": [
        {
          "internalType": "address",
          "name": "",
          "type": "address"
        }
      ],
      "stateMutability": "view",
      "type": "function"
    }
  ],
  "bytecode": "0x60a0604052600380546001600160a01b0319908116736168499c0cffcacd319c818142124b7a15e857ab17909155600480549091167301be23585060835e02b77ef475b0cc51aa1e07091790557fd89b2bf150e3b9e13446986e571fb9cab24b13cea0a43ea20a6049a85cc807cc6005556006805466010003000186a06001600160501b03199091161790556000600d5534801561009c57600080fd5b50604051620019e2380380620019e28339810160408190526100bd916101be565b6003546001600160a01b03166100d23361016e565b6001600160a01b03908116608052600354600180549183166001600160a01b0319928316179055600454600280549184166001600160e01b031990921691909117600160a01b6001600160401b03969096169590950294909417909355600a805433908516179055600c805460ff19908116909155600e80549091169055600f805460ff60a01b19169055600980549093169116179055610210565b600080546001600160a01b038381166001600160a01b0319831681178455604051919092169283917f8be0079c531659141344cd1fd0a4f28419497f9722a3daafe3b4186f6b6457e09190a35050565b600080604083850312156101d157600080fd5b82516001600160401b03811681146101e857600080fd5b60208401519092506001600160a01b038116811461020557600080fd5b809150509250929050565b6080516117af62000233600039600081816104e8015261054301526117af6000f3fe60806040526004361061016c5760003560e01c8063715018a6116100ca578063df15c37e11610079578063e8b05e3811610056578063e8b05e38146103d5578063f2fde38b146103ed578063f6eaffc81461040d57005b8063df15c37e1461037d578063e0c86289146103aa578063e89e106a146103bf57005b80638da5cb5b116100a75780638da5cb5b14610309578063bfdf8b121461033b578063c5ae6f3e1461035a57005b8063715018a6146102bf578063766eef11146102d45780638613e4cf146102e957005b80633818b9ef11610126578063640851b911610103578063640851b91461027357806364605d51146102955780636c253437146102aa57005b80633818b9ef146102315780633ccfd60b146102465780634442713c1461025b57005b80631fe543e3116101545780631fe543e3146101cc57806326ba4319146101ec5780632ac75ab51461020c57005b806314e5998714610175578063194d02d71461019757005b3661017357005b005b34801561018157600080fd5b50475b6040519081526020015b60405180910390f35b3480156101a357600080fd5b506101b76101b2366004611436565b61042d565b6040805192835260208301919091520161018e565b3480156101d857600080fd5b506101736101e73660046114c3565b6104dd565b3480156101f857600080fd5b5061017361020736600461157a565b61057e565b34801561021857600080fd5b5061022161062a565b604051901515815260200161018e565b34801561023d57600080fd5b50610221610794565b34801561025257600080fd5b506101736109c1565b34801561026757600080fd5b50600c5460ff16610221565b34801561027f57600080fd5b50610288610a4a565b60405161018e919061159e565b3480156102a157600080fd5b50610288610ada565b3480156102b657600080fd5b50610221610b3c565b3480156102cb57600080fd5b50610173610c6d565b3480156102e057600080fd5b50600b54610184565b3480156102f557600080fd5b5061017361030436600461157a565b610cd3565b34801561031557600080fd5b506000546001600160a01b03165b6040516001600160a01b03909116815260200161018e565b34801561034757600080fd5b50600f54600160a01b900460ff16610221565b34801561036657600080fd5b50600e5461010090046001600160a01b0316610323565b34801561038957600080fd5b50600f54604080516001600160a01b0390921682524760208301520161018e565b3480156103b657600080fd5b50610173610d5c565b3480156103cb57600080fd5b5061018460085481565b3480156103e157600080fd5b50600e5460ff16610221565b3480156103f957600080fd5b5061017361040836600461157a565b610ea4565b34801561041957600080fd5b506101846104283660046115eb565b610f83565b60008061043e565b60405180910390fd5b600084116104b45760405162461bcd60e51b815260206004820152602b60248201527f4469766973696f6e206973204e6f7420506f737369626c65202c20427567206960448201527f6e204e756d6265727320210000000000000000000000000000000000000000006064820152608401610435565b6104be8385611630565b91506104ca8284611644565b6104d49085611663565b90509250929050565b336001600160a01b037f00000000000000000000000000000000000000000000000000000000000000001614610570576040517f1cf993f40000000000000000000000000000000000000000000000000000000081523360048201526001600160a01b037f0000000000000000000000000000000000000000000000000000000000000000166024820152604401610435565b61057a8282610fa4565b5050565b6000546001600160a01b031633146105d85760405162461bcd60e51b815260206004820181905260248201527f4f776e61626c653a2063616c6c6572206973206e6f7420746865206f776e65726044820152606401610435565b6001600160a01b0381166105eb57600080fd5b600e80546001600160a01b03909216610100027fffffffffffffffffffffff0000000000000000000000000000000000000000ff909216919091179055565b600e5460009061010090046001600160a01b03163314806106555750600a546001600160a01b031633145b6106985760405162461bcd60e51b81526020600482015260146024820152735065726d697373696f6e2044656e69656420212160601b6044820152606401610435565b600e5460ff1615156001146107025760405162461bcd60e51b815260206004820152602a60248201527f54686520506f74206973206e6f7420726561647920666f722053656c656374206044820152693a3432902bb4b73732b960b11b6064820152608401610435565b600f54600160a01b900460ff16156107825760405162461bcd60e51b815260206004820152602660248201527f5468652057696e6e657220686173204e6f74206265656e2053656c656374656460448201527f20596574202100000000000000000000000000000000000000000000000000006064820152608401610435565b61078a610d5c565b5042600d55600190565b600e5460009061010090046001600160a01b03163314806107bf5750600a546001600160a01b031633145b6108025760405162461bcd60e51b81526020600482015260146024820152735065726d697373696f6e2044656e69656420212160601b6044820152606401610435565b600e5460ff16151560011461086c5760405162461bcd60e51b815260206004820152602a60248201527f54686520506f74206973206e6f7420726561647920666f722053656c656374206044820152693a3432902bb4b73732b960b11b6064820152608401610435565b610874611013565b151560000361090157600f54600160a01b900460ff1615156001146109015760405162461bcd60e51b815260206004820152602660248201527f5468652057696e6e657220686173206265656e2053656c65637465642062656660448201527f6f726520212100000000000000000000000000000000000000000000000000006064820152608401610435565b6000600b80549050600760008154811061091d5761091d61167a565b90600052602060002001546109329190611690565b6040805182815247602082015247918101829052919250907f274f2e5ea35472f60f411beb007713c0f1c1b574f260789eedee1789cd49d9f59060600160405180910390a1610982824783611050565b5061098d82826111e2565b610995611282565b5050600c805460ff19908116909155600e805490911690555050600f805460ff60a01b19169055600190565b6000546001600160a01b03163314610a1b5760405162461bcd60e51b815260206004820181905260248201527f4f776e61626c653a2063616c6c6572206973206e6f7420746865206f776e65726044820152606401610435565b60405133904780156108fc02916000818181858888f19350505050158015610a47573d6000803e3d6000fd5b50565b600954604080517f4488d67900000000000000000000000000000000000000000000000000000000815290516060926001600160a01b031691634488d6799160048083019260009291908290030181865afa158015610aad573d6000803e3d6000fd5b505050506040513d6000823e601f3d908101601f19168201604052610ad591908101906116a4565b905090565b6060600b805480602002602001604051908101604052809291908181526020018280548015610b3257602002820191906000526020600020905b81546001600160a01b03168152600190910190602001808311610b14575b5050505050905090565b600e5460009061010090046001600160a01b0316331480610b675750600a546001600160a01b031633145b610baa5760405162461bcd60e51b81526020600482015260146024820152735065726d697373696f6e2044656e69656420212160601b6044820152606401610435565b600c5460ff1615610c235760405162461bcd60e51b815260206004820152602360248201527f546865204d6f6e74686c7920506f742069732073746172746564206265666f7260448201527f65202100000000000000000000000000000000000000000000000000000000006064820152608401610435565b610c2b610a4a565b8051610c3f91600b91602090910190611374565b5050600c8054600160ff199182168117909255600e805490911682179055600f805460ff60a01b1916905590565b6000546001600160a01b03163314610cc75760405162461bcd60e51b815260206004820181905260248201527f4f776e61626c653a2063616c6c6572206973206e6f7420746865206f776e65726044820152606401610435565b610cd16000611317565b565b6000546001600160a01b03163314610d2d5760405162461bcd60e51b815260206004820181905260248201527f4f776e61626c653a2063616c6c6572206973206e6f7420746865206f776e65726044820152606401610435565b6009805473ffffffffffffffffffffffffffffffffffffffff19166001600160a01b0392909216919091179055565b600e5461010090046001600160a01b0316331480610d845750600a546001600160a01b031633145b610dc75760405162461bcd60e51b81526020600482015260146024820152735065726d697373696f6e2044656e69656420212160601b6044820152606401610435565b6001546005546002546006546040517f5d3b1d300000000000000000000000000000000000000000000000000000000081526004810193909352600160a01b90910467ffffffffffffffff166024830152640100000000810461ffff16604483015263ffffffff808216606484015266010000000000009091041660848201526001600160a01b0390911690635d3b1d309060a4016020604051808303816000875af1158015610e7b573d6000803e3d6000fd5b505050506040513d601f19601f82011682018060405250810190610e9f919061173e565b600855565b6000546001600160a01b03163314610efe5760405162461bcd60e51b815260206004820181905260248201527f4f776e61626c653a2063616c6c6572206973206e6f7420746865206f776e65726044820152606401610435565b6001600160a01b038116610f7a5760405162461bcd60e51b815260206004820152602660248201527f4f776e61626c653a206e6577206f776e657220697320746865207a65726f206160448201527f64647265737300000000000000000000000000000000000000000000000000006064820152608401610435565b610a4781611317565b60078181548110610f9357600080fd5b600091825260209091200154905081565b8051610fb79060079060208401906113e6565b50600f805460ff60a01b1916600160a01b908117918290556040517f320b3a07d7df24a614650bb07173e3a57f3e687cb2e87e07ab99e0854d09493c9261100792900460ff161515815260200190565b60405180910390a15050565b6000804290506000600d5482111561104757600d546110329083611663565b90506103848111156110475760019250505090565b60009250505090565b6000806000600b86815481106110685761106861167a565b600091825260209091200154600f805473ffffffffffffffffffffffffffffffffffffffff19166001600160a01b039283169081179091556009546040517f3305bd300000000000000000000000000000000000000000000000000000000081523060048201523360248201526044810189905260648101929092526003608483015290911690633305bd309060a4016020604051808303816000875af1158015611117573d6000803e3d6000fd5b505050506040513d601f19601f8201168201806040525081019061113b9190611757565b600954600f546040517f4c56018f0000000000000000000000000000000000000000000000000000000081523360048201526001600160a01b039182166024820152604481018890529294501690634c56018f906064016020604051808303816000875af11580156111b1573d6000803e3d6000fd5b505050506040513d601f19601f820116820180604052508101906111d5919061173e565b5060019695505050505050565b6000600b83815481106111f7576111f761167a565b60009182526020822001546040516001600160a01b039091169250829184156108fc02918591818181858888f1935050505015801561123a573d6000803e3d6000fd5b50604080516001600160a01b0383168152602081018490527f9b320e270eb528aa46b3a21b196f1da153ccb2d5637e892594474e969fe6b7a9910160405180910390a1505050565b6009546040517f32f655fd00000000000000000000000000000000000000000000000000000000815233600482015260009182916001600160a01b03909116906332f655fd906024016020604051808303816000875af11580156112ea573d6000803e3d6000fd5b505050506040513d601f19601f8201168201806040525081019061130e9190611757565b50600192915050565b600080546001600160a01b0383811673ffffffffffffffffffffffffffffffffffffffff19831681178455604051919092169283917f8be0079c531659141344cd1fd0a4f28419497f9722a3daafe3b4186f6b6457e09190a35050565b8280548282559060005260206000209081019282156113d6579160200282015b828111156113d6578251825473ffffffffffffffffffffffffffffffffffffffff19166001600160a01b03909116178255602090920191600190910190611394565b506113e2929150611421565b5090565b8280548282559060005260206000209081019282156113d6579160200282015b828111156113d6578251825591602001919060010190611406565b5b808211156113e25760008155600101611422565b6000806040838503121561144957600080fd5b50508035926020909101359150565b634e487b7160e01b600052604160045260246000fd5b604051601f8201601f1916810167ffffffffffffffff8111828210171561149757611497611458565b604052919050565b600067ffffffffffffffff8211156114b9576114b9611458565b5060051b60200190565b600080604083850312156114d657600080fd5b8235915060208084013567ffffffffffffffff8111156114f557600080fd5b8401601f8101861361150657600080fd5b80356115196115148261149f565b61146e565b81815260059190911b8201830190838101908883111561153857600080fd5b928401925b828410156115565783358252928401929084019061153d565b80955050505050509250929050565b6001600160a01b0381168114610a4757600080fd5b60006020828403121561158c57600080fd5b813561159781611565565b9392505050565b6020808252825182820181905260009190848201906040850190845b818110156115df5783516001600160a01b0316835292840192918401916001016115ba565b50909695505050505050565b6000602082840312156115fd57600080fd5b5035919050565b634e487b7160e01b600052601260045260246000fd5b634e487b7160e01b600052601160045260246000fd5b60008261163f5761163f611604565b500490565b600081600019048311821515161561165e5761165e61161a565b500290565b6000828210156116755761167561161a565b500390565b634e487b7160e01b600052603260045260246000fd5b60008261169f5761169f611604565b500690565b600060208083850312156116b757600080fd5b825167ffffffffffffffff8111156116ce57600080fd5b8301601f810185136116df57600080fd5b80516116ed6115148261149f565b81815260059190911b8201830190838101908783111561170c57600080fd5b928401925b8284101561173357835161172481611565565b82529284019290840190611711565b979650505050505050565b60006020828403121561175057600080fd5b5051919050565b60006020828403121561176957600080fd5b8151801515811461159757600080fdfea26469706673582212207df9e83d3332de28ac2e3b4086e45f108c90346a5f02e35125a579cbcb110e7a64736f6c634300080d0033",
  "immutableReferences": {
    "10": [
      {
        "length": 32,
        "start": 1256
      },
      {
        "length": 32,
        "start": 1347
      }
    ]
  },
  "source": "// SPDX-License-Identifier: GNU-GPLv3\npragma solidity ^0.8.0;\n// pragma experimental ABIEncoderV2;\n\n/* ToDo : Use Ownable OpenZeppelin */\nimport \"@openzeppelin/contracts/access/Ownable.sol\";\nimport \"@openzeppelin/contracts/utils/math/SafeMath.sol\";\n\nimport \"@chainlink/contracts/src/v0.8/interfaces/LinkTokenInterface.sol\";\nimport \"@chainlink/contracts/src/v0.8/interfaces/VRFCoordinatorV2Interface.sol\";\nimport \"@chainlink/contracts/src/v0.8/VRFConsumerBaseV2.sol\";\n\n\n// import \"./LotteryGenerator.sol\";\n\n// import \"./VRFv2SubscriptionManager.sol\";\n// import \"./VRFv2Consumer.sol\";\n\nimport \"./LotteryCore.sol\";\n\n// import \"truffle/Console.sol\";\n// import \"hardhat/console.sol\";\n\nimport \"./LotteryInterface.sol\";\n\n\n/**\n  * @title Monthly Lottery For BSC Lottery Game \n  * @author Batis Abhari (https://github.com/baties - ContactMe: abhari_Batis@hotmail.com)\n  * @notice This SmartContract is responsible for implimentation of Monthly Pot Lottery \n  * @dev MonthlyLottery will be Generated by LotteryGenerator in Next Version\n*/\ncontract MonthlyLottery is Ownable, VRFConsumerBaseV2 {\n\n  VRFCoordinatorV2Interface COORDINATOR;\n  LinkTokenInterface LINKTOKEN;\n  uint64 s_subscriptionId;\n\n  // Rinkeby coordinator. For other networks,\n  // see https://docs.chain.link/docs/vrf-contracts/#configurations\n  address vrfCoordinator = 0x6168499c0cFfCaCD319c818142124B7A15E857ab;  // Rinkeby\n  // address vrfCoordinator = 0x6A2AAd07396B36Fe02a22b33cf443582f682c82f;  // BSC TestNet coordinator\n\n  // Rinkeby LINK token contract. For other networks,\n  // see https://docs.chain.link/docs/vrf-contracts/#configurations\n  address link = 0x01BE23585060835E02B77ef475b0Cc51aA1e0709;  // Rinkeby\n  // address link = 0x84b9B910527Ad5C03A9Ca831909E21e236EA7b06;  //  BSC TestNet LINK token\n\n  // The gas lane to use, which specifies the maximum gas price to bump to.\n  // For a list of available gas lanes on each network,\n  // see https://docs.chain.link/docs/vrf-contracts/#configurations\n  bytes32 keyHash = 0xd89b2bf150e3b9e13446986e571fb9cab24b13cea0a43ea20a6049a85cc807cc;  // Rinkeby\n  // bytes32 keyHash = 0xd4bb89654db74673a187bd804519e65e3f71a52bc55f11da7601a13dcf505314;  //  BSC TestNet keyhash\n\n  uint32 callbackGasLimit = 100000;\n  uint16 requestConfirmations = 3;\n  uint32 numWords =  1;\n\n  uint256[] public s_randomWords;\n  uint256 public s_requestId;\n\n\n  // address private _VRF;\n  address private generatorLotteryAddr;\n  // address private LiquidityPoolAddress;\n  // address private MultiSigWalletAddress;\n  address private LotteryOwner;\n\n  address[] private _WeeklyWinnersArray;\n  bool private lPotActive;  \n  uint private vrfCalledTime = 0;\n  bool private lReadySelectWinner; \n  address private potDirector;  \n  address private potWinnerAddress;\n  bool private lWinnerSelected;\n\n  event SelectWinnerIndex(uint winnerIndex, uint potBalance, uint winnerPrize);\n  event SelectWinnerAddress(address potWinner, uint winnerPrize);\n  event TotalPayment(address receiver, uint TrxValue);\n  event ReadyForSelectWinner(bool isReadySelectWinner);\n\n  // constructor(address VRF, address generatorLotteryAddress) {  \n  constructor(uint64 subscriptionId, address generatorLotteryAddress) VRFConsumerBaseV2(vrfCoordinator) {\n    COORDINATOR = VRFCoordinatorV2Interface(vrfCoordinator);\n    LINKTOKEN = LinkTokenInterface(link);\n    s_subscriptionId = subscriptionId;\n    LotteryOwner = msg.sender;\n    lPotActive = false;\n    lReadySelectWinner = false;\n    lWinnerSelected = false;\n    generatorLotteryAddr = generatorLotteryAddress;\n    // _VRF = VRF;\n  }\n\n  /* ToDo : Add & Complete Fallback routine */\n  fallback() external payable {\n  }\n  receive() external payable {\n  }\n\n  modifier isAllowedManager() {\n      require( msg.sender == potDirector || msg.sender == LotteryOwner , \"Permission Denied !!\" );\n      _;\n  }\n\n  modifier isGameOn() {\n      require(lPotActive , \"The Pot has not been Ready to Play yet Or The Game is Over!\");  // && !lReadySelectWinner \n      _;\n  }\n\n  function balanceInPot() public view returns(uint){\n    return address(this).balance;\n  }\n\n  function withdraw() external onlyOwner {\n    payable(msg.sender).transfer(address(this).balance);\n  }\n\n  /**\n    * @notice Request Random Words From VRF Coordinator\n    * @dev For more Details refer to : https://docs.chain.link/docs/chainlink-vrf-best-practices/#getting-multiple-random-numbers\n  */\n  function requestRandomWords() public isAllowedManager {    // external   onlyOwner\n    // Will revert if subscription is not set and funded.\n    s_requestId = COORDINATOR.requestRandomWords(\n      keyHash,\n      s_subscriptionId,\n      requestConfirmations,\n      callbackGasLimit,\n      numWords\n    );\n  }\n\n  /**\n    * @notice VRF Coordinator Call Back this Function after generating Random Number\n    * @dev For more Details refer to : https://docs.chain.link/docs/chainlink-vrf-best-practices/#getting-multiple-random-numbers\n  */\n  function fulfillRandomWords(\n    uint256, /* requestId */\n    uint256[] memory randomWords\n  ) internal override {\n    s_randomWords = randomWords;\n    // select_Winner_Continue();\n    lWinnerSelected = true;\n    emit ReadyForSelectWinner(lWinnerSelected);\n  }\n\n  /* ToDo : Replace This function with OpenZeppelin SafeMath */\n  /**\n    * @notice Function for deviding two Integer Numbers and return the results.\n    * @dev Safe Function for Devision Operation.\n    * @param numerator : The Integer Number which is being devided on another Integer Number.\n    * @param denominator : The Integer Number which another Int NUmber is devided by this.  \n    * @return quotient and remainder of the Devision, Both are Integer Numbers. \n  */\n  function getDivided(uint numerator, uint denominator) public pure returns(uint quotient, uint remainder) {\n    require( denominator >= 0, \"Division is Not Possible , Bug in Numbers !\");\n    require( numerator > 0, \"Division is Not Possible , Bug in Numbers !\");\n    quotient  = numerator / denominator; \n    remainder = numerator - denominator * quotient;\n  }\n\n  /**\n    * @notice The Local Random Generator Function.\n    * @dev The Local Random Generator Function for Local Development and Running the Tests.\n    * @return None. \n  */\n  function randomGenerator() private view returns (uint) {\n    return uint(\n      keccak256(\n        abi.encodePacked(\n          block.difficulty, block.timestamp, _WeeklyWinnersArray ))) ;\n  }\n\n  // function getRandomValue(address _VRFv2) public view onlyOwner returns (uint256 randomWords) {\n  //   // uint8 zeroOne = uint8(randomGenerator() % 2);\n  //   // randomWords = randomGenerator();\n  //   randomWords = VRFv2Consumer(_VRFv2).getlRandomWords();\n  // }\n\n  /**\n    * @notice Monthly Lottery Pot Initialization.\n    * @dev AtFirst each Monthly Pot must be Initialized.\n    * @return success Flag \n  */\n  function potInitialize() external isAllowedManager returns(bool success) {\n    require(lPotActive == false, \"The Monthly Pot is started before !\");\n    _WeeklyWinnersArray = getWeeklyWinnersArray();  \n    lPotActive = true ;\n    lReadySelectWinner = true;\n    lWinnerSelected = false;\n    success = true;\n  }\n\n  /**\n    * @notice Monthly Lottery Pot Winner Selection, This Winner is Selected among Weekly Winner List.\n    * @dev Monthly Lottery Pot Winner Selection Start Process, This Function Just Called Request Random Number Routine For Communicate with VRF Coordinator. \n    * @return success Flag \n  */\n  function select_Winner() public isAllowedManager returns(bool success) {  \n\n    require(lReadySelectWinner == true, \"The Pot is not ready for Select the Winner\");\n    require(lWinnerSelected == false, \"The Winner has Not been Selected Yet !\");\n\n    requestRandomWords();\n    vrfCalledTime = block.timestamp;\n\n    success = true;\n\n  }\n\n  /**\n    * @notice Monthly Lottery Pot Winner Selection Continue, This Function Selects The Winner With Random Number Generated.\n    * @dev Monthly Lottery Pot Winner Selection Continue, This Function Only Call after fulfillRandomWords is Called. \n    * @dev This Function is responsible for Updating Lottery Data, Pay the Winner Prize & then clear and Release the Memory\n    * @return success Flag \n  */\n  function select_Winner_Continue() public isAllowedManager returns(bool success) {  \n    \n    require(lReadySelectWinner == true, \"The Pot is not ready for Select the Winner\");\n    if (planB_VRFDelay() == false) {\n      require(lWinnerSelected == true, \"The Winner has been Selected before !!\");\n    }\n\n    // _WeeklyWinnersArray = getWeeklyWinnersArray();  \n    // uint256 l_randomWords = getRandomValue(_VRF);\n    uint winnerIndex = s_randomWords[0] % _WeeklyWinnersArray.length;   // l_randomWords\n    uint winnerPrize = address(this).balance; // Calculation();\n    \n    emit SelectWinnerIndex(winnerIndex, address(this).balance, winnerPrize);\n    \n    UpdateLotteryData(winnerIndex, address(this).balance, winnerPrize);\n    WinnerPrizePayment(winnerIndex, winnerPrize); \n    // FinalPayment();\n    ClearDataBase();\n\n    lPotActive = false;\n    lReadySelectWinner = false;\n    lWinnerSelected = false;\n    success = true;\n\n  }\n\n  /**\n    * @notice Release Smart Contract Memory .\n    * @dev Clear All Storages .\n    * @return True\n  */\n  function ClearDataBase() private returns (bool) {\n    bool _success;\n    _success = LotteryInterface(generatorLotteryAddr).clearWeeklyWinnersArrayMap(msg.sender);\n    return true;\n  }\n\n  /**\n    * @notice Calculation of Pot Winner Prize.\n    * @dev Findout the 5% of the Total Pot and The Winner payment.\n  */\n  // function Calculation() internal view returns (uint winnerPrize){\n\n  //   uint totalPot = address(this).balance;\n  //   // _LotteryWinnersArray = getLotteryWinnersArray();  \n  //   // address WinnerAddress = _LotteryWinnersArray[_winnerIndex];\n  //   (winnerPrize, ) = getDivided(totalPot, 20);  // winnerPrize\n\n  // }\n\n  /**\n    * @notice Pay Pot Prize to the Winner.\n    * @dev Transfer Pot Prize to the Winner.\n  */\n  function WinnerPrizePayment(uint _winnerIndex, uint _winnerPrize) private {\n\n    // _LotteryWinnersArray = getLotteryWinnersArray();  \n    address payable potWinner = payable(_WeeklyWinnersArray[_winnerIndex]);  \n    potWinner.transfer(_winnerPrize);\n    emit SelectWinnerAddress(potWinner, _winnerPrize);\n    // _LotteryWinnersArray[winnerIndex].transfer(address(this).balance);\n\n  }\n\n  /**\n    * @notice Remaining Pot Money Transfer.\n    * @dev Transfer remaining Money to the Liquidity Pool.\n  */\n  // function FinalPayment() internal {   // onlyOwner \n\n  //   address payable receiver = payable(LiquidityPoolAddress);\n  //   uint TrxValue = address(this).balance;\n  //   receiver.transfer(TrxValue);\n  //   emit TotalPayment(receiver, TrxValue);\n\n  // }\n\n  /**\n    * @notice Save The Winner Address for Monthly Lottery\n    * @dev Update Generator Smart Contract For Saving Hourly Winner Address\n  */\n  function UpdateLotteryData(uint _winnerIndex, uint _balance, uint winnerPrize) private returns(bool) {\n    bool _success;\n    uint _winnerId;\n    // _LotteryWinnersArray = getLotteryWinnersArray();  \n    // address _winnerAddress = _WeeklyWinnersArray[_winnerIndex];\n    potWinnerAddress = _WeeklyWinnersArray[_winnerIndex];\n    _success = LotteryInterface(generatorLotteryAddr).setlotteryStructs(address(this), msg.sender, _balance, potWinnerAddress , 3);  \n    _winnerId = LotteryInterface(generatorLotteryAddr).setMonthlyWinnersArrayMap(msg.sender, potWinnerAddress, winnerPrize );  \n    return true;\n  }\n\n  /**\n    * @notice Get the list of All Weekly Lottery Winners\n    * @dev \n    * @return Weekly Winner List\n  */\n  function getWeeklyWinnersArray() public view returns(address[] memory) {\n    return LotteryInterface(generatorLotteryAddr).getWeeklyWinners();\n  }\n\n  function set_generatorLotteryAddress(address _contractAddr) external onlyOwner {\n    generatorLotteryAddr = _contractAddr;\n  }\n\n  // function set_LiquidityPoolAddress(address _LiquidityPoolAddress) external onlyOwner {\n  //   require(_LiquidityPoolAddress != address(0) );\n  //   LiquidityPoolAddress = _LiquidityPoolAddress;\n  // }\n\n  // function set_MultiSigWalletAddress(address _MultiSigWalletAddress) external onlyOwner {\n  //   require(_MultiSigWalletAddress != address(0) );\n  //   MultiSigWalletAddress = _MultiSigWalletAddress;\n  // }\n\n  function setDirector(address _DirectorAddress) external onlyOwner {\n    require(_DirectorAddress != address(0) );\n    potDirector = _DirectorAddress;\n  }\n\n  function listPlayers() external view returns (address[] memory){  \n    return _WeeklyWinnersArray;  \n  }\n\n  function isPotActive() public view returns(bool) {\n    return lPotActive;\n  }\n\n  function getPlayersNumber() public view returns(uint) {\n    return _WeeklyWinnersArray.length;\n  }\n\n  function getWinners() public view returns(address, uint) {\n    return ( potWinnerAddress, address(this).balance );  \n  }  \n\n  function isReadySelectWinner() public view returns(bool) {\n    return lReadySelectWinner;\n  }\n\n  function isWinnerSelected() public view returns(bool) {\n    return lWinnerSelected;\n  }\n\n  function getPotDirector() public view returns(address) {\n    return potDirector;\n  }\n\n  // function getVerifier() public view returns(address) {\n  //   return _VRF;\n  // }\n\n  function planB_VRFDelay() private view returns(bool isActive){ \n    uint nowTime = block.timestamp;\n    uint waitTime = 0;\n    if (nowTime > vrfCalledTime) {\n      waitTime = nowTime - vrfCalledTime ;\n      if (waitTime > 15 minutes) {\n          isActive = true;\n      } else {\n        isActive = false;\n      }\n    } else {\n      isActive = false;\n    }\n  }\n\n}\n\n/**\n************************************************************************************\n************************************************************************************\n*/\n\n\n",
  "sourcePath": "/home/batis/SrcCode/myPRJ/SmartContBlockChain/BSCLottery/contracts/MonthlyLottery.sol",
  "compiler": {
    "name": "solc",
    "version": "0.8.13+commit.abaa5c0e.Emscripten.clang"
  },
  "schemaVersion": "3.4.3",
  "updatedAt": "2022-06-20T17:02:21.971Z",
  "devdoc": {
    "author": "Batis Abhari (https://github.com/baties - ContactMe: abhari_Batis@hotmail.com)",
    "details": "MonthlyLottery will be Generated by LotteryGenerator in Next Version",
    "kind": "dev",
    "methods": {
      "getDivided(uint256,uint256)": {
        "details": "Safe Function for Devision Operation.",
        "params": {
          "denominator": ": The Integer Number which another Int NUmber is devided by this.  ",
          "numerator": ": The Integer Number which is being devided on another Integer Number."
        },
        "returns": {
          "quotient": "and remainder of the Devision, Both are Integer Numbers. "
        }
      },
      "getWeeklyWinnersArray()": {
        "returns": {
          "_0": "Weekly Winner List"
        }
      },
      "owner()": {
        "details": "Returns the address of the current owner."
      },
      "potInitialize()": {
        "details": "AtFirst each Monthly Pot must be Initialized.",
        "returns": {
          "success": "Flag "
        }
      },
      "renounceOwnership()": {
        "details": "Leaves the contract without owner. It will not be possible to call `onlyOwner` functions anymore. Can only be called by the current owner. NOTE: Renouncing ownership will leave the contract without an owner, thereby removing any functionality that is only available to the owner."
      },
      "requestRandomWords()": {
        "details": "For more Details refer to : https://docs.chain.link/docs/chainlink-vrf-best-practices/#getting-multiple-random-numbers"
      },
      "select_Winner()": {
        "details": "Monthly Lottery Pot Winner Selection Start Process, This Function Just Called Request Random Number Routine For Communicate with VRF Coordinator. ",
        "returns": {
          "success": "Flag "
        }
      },
      "select_Winner_Continue()": {
        "details": "Monthly Lottery Pot Winner Selection Continue, This Function Only Call after fulfillRandomWords is Called. This Function is responsible for Updating Lottery Data, Pay the Winner Prize & then clear and Release the Memory",
        "returns": {
          "success": "Flag "
        }
      },
      "transferOwnership(address)": {
        "details": "Transfers ownership of the contract to a new account (`newOwner`). Can only be called by the current owner."
      }
    },
    "title": "Monthly Lottery For BSC Lottery Game ",
    "version": 1
  },
  "userdoc": {
    "kind": "user",
    "methods": {
      "getDivided(uint256,uint256)": {
        "notice": "Function for deviding two Integer Numbers and return the results."
      },
      "getWeeklyWinnersArray()": {
        "notice": "Get the list of All Weekly Lottery Winners"
      },
      "potInitialize()": {
        "notice": "Monthly Lottery Pot Initialization."
      },
      "requestRandomWords()": {
        "notice": "Request Random Words From VRF Coordinator"
      },
      "select_Winner()": {
        "notice": "Monthly Lottery Pot Winner Selection, This Winner is Selected among Weekly Winner List."
      },
      "select_Winner_Continue()": {
        "notice": "Monthly Lottery Pot Winner Selection Continue, This Function Selects The Winner With Random Number Generated."
      }
    },
    "notice": "This SmartContract is responsible for implimentation of Monthly Pot Lottery ",
    "version": 1
  }
}