{
  "contractName": "MonthlyLottery",
  "abi": [
    {
      "inputs": [
        {
          "internalType": "address",
          "name": "VRF",
          "type": "address"
        },
        {
          "internalType": "address",
          "name": "generatorLotteryAddress",
          "type": "address"
        }
      ],
      "stateMutability": "nonpayable",
      "type": "constructor"
    },
    {
      "anonymous": false,
      "inputs": [
        {
          "indexed": true,
          "internalType": "address",
          "name": "previousOwner",
          "type": "address"
        },
        {
          "indexed": true,
          "internalType": "address",
          "name": "newOwner",
          "type": "address"
        }
      ],
      "name": "OwnershipTransferred",
      "type": "event"
    },
    {
      "anonymous": false,
      "inputs": [
        {
          "indexed": false,
          "internalType": "address",
          "name": "potWinner",
          "type": "address"
        },
        {
          "indexed": false,
          "internalType": "uint256",
          "name": "winnerPrize",
          "type": "uint256"
        }
      ],
      "name": "SelectWinnerAddress",
      "type": "event"
    },
    {
      "anonymous": false,
      "inputs": [
        {
          "indexed": false,
          "internalType": "uint256",
          "name": "winnerIndex",
          "type": "uint256"
        },
        {
          "indexed": false,
          "internalType": "uint256",
          "name": "potBalance",
          "type": "uint256"
        },
        {
          "indexed": false,
          "internalType": "uint256",
          "name": "winnerPrize",
          "type": "uint256"
        }
      ],
      "name": "SelectWinnerIndex",
      "type": "event"
    },
    {
      "anonymous": false,
      "inputs": [
        {
          "indexed": false,
          "internalType": "address",
          "name": "receiver",
          "type": "address"
        },
        {
          "indexed": false,
          "internalType": "uint256",
          "name": "TrxValue",
          "type": "uint256"
        }
      ],
      "name": "TotalPayment",
      "type": "event"
    },
    {
      "stateMutability": "payable",
      "type": "fallback",
      "payable": true
    },
    {
      "inputs": [],
      "name": "owner",
      "outputs": [
        {
          "internalType": "address",
          "name": "",
          "type": "address"
        }
      ],
      "stateMutability": "view",
      "type": "function",
      "constant": true
    },
    {
      "inputs": [],
      "name": "renounceOwnership",
      "outputs": [],
      "stateMutability": "nonpayable",
      "type": "function"
    },
    {
      "inputs": [
        {
          "internalType": "address",
          "name": "newOwner",
          "type": "address"
        }
      ],
      "name": "transferOwnership",
      "outputs": [],
      "stateMutability": "nonpayable",
      "type": "function"
    },
    {
      "stateMutability": "payable",
      "type": "receive",
      "payable": true
    },
    {
      "inputs": [],
      "name": "balanceInPot",
      "outputs": [
        {
          "internalType": "uint256",
          "name": "",
          "type": "uint256"
        }
      ],
      "stateMutability": "view",
      "type": "function",
      "constant": true
    },
    {
      "inputs": [],
      "name": "withdraw",
      "outputs": [],
      "stateMutability": "nonpayable",
      "type": "function"
    },
    {
      "inputs": [
        {
          "internalType": "uint256",
          "name": "numerator",
          "type": "uint256"
        },
        {
          "internalType": "uint256",
          "name": "denominator",
          "type": "uint256"
        }
      ],
      "name": "getDivided",
      "outputs": [
        {
          "internalType": "uint256",
          "name": "quotient",
          "type": "uint256"
        },
        {
          "internalType": "uint256",
          "name": "remainder",
          "type": "uint256"
        }
      ],
      "stateMutability": "pure",
      "type": "function",
      "constant": true
    },
    {
      "inputs": [],
      "name": "potInitialize",
      "outputs": [],
      "stateMutability": "nonpayable",
      "type": "function"
    },
    {
      "inputs": [
        {
          "internalType": "address",
          "name": "_VRFv2",
          "type": "address"
        }
      ],
      "name": "getRandomValue",
      "outputs": [
        {
          "internalType": "uint256",
          "name": "randomWords",
          "type": "uint256"
        }
      ],
      "stateMutability": "view",
      "type": "function",
      "constant": true
    },
    {
      "inputs": [],
      "name": "select_Winner",
      "outputs": [],
      "stateMutability": "nonpayable",
      "type": "function"
    },
    {
      "inputs": [],
      "name": "getWeeklyWinnersArray",
      "outputs": [
        {
          "internalType": "address[]",
          "name": "",
          "type": "address[]"
        }
      ],
      "stateMutability": "view",
      "type": "function",
      "constant": true
    },
    {
      "inputs": [
        {
          "internalType": "address",
          "name": "_contractAddr",
          "type": "address"
        }
      ],
      "name": "set_generatorLotteryAddress",
      "outputs": [],
      "stateMutability": "nonpayable",
      "type": "function"
    },
    {
      "inputs": [
        {
          "internalType": "address",
          "name": "_DirectorAddress",
          "type": "address"
        }
      ],
      "name": "setDirector",
      "outputs": [],
      "stateMutability": "nonpayable",
      "type": "function"
    },
    {
      "inputs": [],
      "name": "listPlayers",
      "outputs": [
        {
          "internalType": "address[]",
          "name": "",
          "type": "address[]"
        }
      ],
      "stateMutability": "view",
      "type": "function",
      "constant": true
    },
    {
      "inputs": [],
      "name": "isPotActive",
      "outputs": [
        {
          "internalType": "bool",
          "name": "",
          "type": "bool"
        }
      ],
      "stateMutability": "view",
      "type": "function",
      "constant": true
    },
    {
      "inputs": [],
      "name": "getPlayersNumber",
      "outputs": [
        {
          "internalType": "uint256",
          "name": "",
          "type": "uint256"
        }
      ],
      "stateMutability": "view",
      "type": "function",
      "constant": true
    },
    {
      "inputs": [],
      "name": "getWinners",
      "outputs": [
        {
          "internalType": "address",
          "name": "",
          "type": "address"
        }
      ],
      "stateMutability": "view",
      "type": "function",
      "constant": true
    },
    {
      "inputs": [],
      "name": "isReadySelectWinner",
      "outputs": [
        {
          "internalType": "bool",
          "name": "",
          "type": "bool"
        }
      ],
      "stateMutability": "view",
      "type": "function",
      "constant": true
    },
    {
      "inputs": [],
      "name": "getPotDirector",
      "outputs": [
        {
          "internalType": "address",
          "name": "",
          "type": "address"
        }
      ],
      "stateMutability": "view",
      "type": "function",
      "constant": true
    }
  ],
  "bytecode": "0x608060405234801561001057600080fd5b5060405161127c38038061127c83398101604081905261002f916100eb565b6100383361007f565b600380546001600160a01b03199081163317909155600180546001600160a01b039485169083161790556005805461ffff191690556002805492909316911617905561011e565b600080546001600160a01b038381166001600160a01b0319831681178455604051919092169283917f8be0079c531659141344cd1fd0a4f28419497f9722a3daafe3b4186f6b6457e09190a35050565b80516001600160a01b03811681146100e657600080fd5b919050565b600080604083850312156100fe57600080fd5b610107836100cf565b9150610115602084016100cf565b90509250929050565b61114f8061012d6000396000f3fe60806040526004361061011b5760003560e01c80636c2534371161009c5780638da5cb5b1161006e578063df15c37e11610056578063df15c37e146102f5578063e8b05e3814610313578063f2fde38b1461033057005b80638da5cb5b1461029f578063c5ae6f3e146102d157005b80636c25343714610240578063715018a614610255578063766eef111461026a5780638613e4cf1461027f57005b80632ac75ab5116100ed5780634442713c116100d55780634442713c146101e5578063640851b91461020957806364605d511461022b57005b80632ac75ab5146101bb5780633ccfd60b146101d057005b806314e599871461012457806314e5e90e14610146578063194d02d71461016657806326ba43191461019b57005b3661012257005b005b34801561013057600080fd5b50475b6040519081526020015b60405180910390f35b34801561015257600080fd5b50610133610161366004610ec0565b610350565b34801561017257600080fd5b50610186610181366004610ee4565b610427565b6040805192835260208301919091520161013d565b3480156101a757600080fd5b506101226101b6366004610ec0565b6104c9565b3480156101c757600080fd5b50610122610576565b3480156101dc57600080fd5b5061012261070c565b3480156101f157600080fd5b5060055460ff165b604051901515815260200161013d565b34801561021557600080fd5b5061021e610795565b60405161013d9190610f06565b34801561023757600080fd5b5061021e610834565b34801561024c57600080fd5b50610122610896565b34801561026157600080fd5b506101226109b2565b34801561027657600080fd5b50600454610133565b34801561028b57600080fd5b5061012261029a366004610ec0565b610a18565b3480156102ab57600080fd5b506000546001600160a01b03165b6040516001600160a01b03909116815260200161013d565b3480156102dd57600080fd5b506005546201000090046001600160a01b03166102b9565b34801561030157600080fd5b506006546001600160a01b03166102b9565b34801561031f57600080fd5b50600554610100900460ff166101f9565b34801561033c57600080fd5b5061012261034b366004610ec0565b610aa1565b600080546001600160a01b031633146103b05760405162461bcd60e51b815260206004820181905260248201527f4f776e61626c653a2063616c6c6572206973206e6f7420746865206f776e657260448201526064015b60405180910390fd5b816001600160a01b03166371f747906040518163ffffffff1660e01b815260040160206040518083038186803b1580156103e957600080fd5b505afa1580156103fd573d6000803e3d6000fd5b505050506040513d601f19601f820116820180604052508101906104219190610f53565b92915050565b600080600084116104a05760405162461bcd60e51b815260206004820152602b60248201527f4469766973696f6e206973204e6f7420506f737369626c65202c20427567206960448201527f6e204e756d62657273202100000000000000000000000000000000000000000060648201526084016103a7565b6104aa8385610f98565b91506104b68284610fac565b6104c09085610fcb565b90509250929050565b6000546001600160a01b031633146105235760405162461bcd60e51b815260206004820181905260248201527f4f776e61626c653a2063616c6c6572206973206e6f7420746865206f776e657260448201526064016103a7565b6001600160a01b03811661053657600080fd5b600580546001600160a01b0390921662010000027fffffffffffffffffffff0000000000000000000000000000000000000000ffff909216919091179055565b6005546201000090046001600160a01b031633148061059f57506003546001600160a01b031633145b6105eb5760405162461bcd60e51b815260206004820152601460248201527f5065726d697373696f6e2044656e69656420212100000000000000000000000060448201526064016103a7565b60055460ff61010090910416151560011461066e5760405162461bcd60e51b815260206004820152602a60248201527f54686520506f74206973206e6f7420726561647920666f722053656c6563742060448201527f7468652057696e6e65720000000000000000000000000000000000000000000060648201526084016103a7565b600154600090610686906001600160a01b0316610350565b6004549091506000906106999083610fe2565b6040805182815247602082015247918101829052919250907f274f2e5ea35472f60f411beb007713c0f1c1b574f260789eedee1789cd49d9f59060600160405180910390a16106e88247610b80565b506106f38282610c83565b6106fb610d23565b50506005805461ffff191690555050565b6000546001600160a01b031633146107665760405162461bcd60e51b815260206004820181905260248201527f4f776e61626c653a2063616c6c6572206973206e6f7420746865206f776e657260448201526064016103a7565b60405133904780156108fc02916000818181858888f19350505050158015610792573d6000803e3d6000fd5b50565b600254604080517f4488d67900000000000000000000000000000000000000000000000000000000815290516060926001600160a01b031691634488d679916004808301926000929190829003018186803b1580156107f357600080fd5b505afa158015610807573d6000803e3d6000fd5b505050506040513d6000823e601f3d908101601f1916820160405261082f919081019061101c565b905090565b6060600480548060200260200160405190810160405280929190818152602001828054801561088c57602002820191906000526020600020905b81546001600160a01b0316815260019091019060200180831161086e575b5050505050905090565b6005546201000090046001600160a01b03163314806108bf57506003546001600160a01b031633145b61090b5760405162461bcd60e51b815260206004820152601460248201527f5065726d697373696f6e2044656e69656420212100000000000000000000000060448201526064016103a7565b60055460ff16156109845760405162461bcd60e51b815260206004820152602360248201527f546865204d6f6e74686c7920506f742069732073746172746564206265666f7260448201527f652021000000000000000000000000000000000000000000000000000000000060648201526084016103a7565b61098c610795565b80516109a091600491602090910190610e24565b506005805461ffff1916610101179055565b6000546001600160a01b03163314610a0c5760405162461bcd60e51b815260206004820181905260248201527f4f776e61626c653a2063616c6c6572206973206e6f7420746865206f776e657260448201526064016103a7565b610a166000610dc7565b565b6000546001600160a01b03163314610a725760405162461bcd60e51b815260206004820181905260248201527f4f776e61626c653a2063616c6c6572206973206e6f7420746865206f776e657260448201526064016103a7565b6002805473ffffffffffffffffffffffffffffffffffffffff19166001600160a01b0392909216919091179055565b6000546001600160a01b03163314610afb5760405162461bcd60e51b815260206004820181905260248201527f4f776e61626c653a2063616c6c6572206973206e6f7420746865206f776e657260448201526064016103a7565b6001600160a01b038116610b775760405162461bcd60e51b815260206004820152602660248201527f4f776e61626c653a206e6577206f776e657220697320746865207a65726f206160448201527f646472657373000000000000000000000000000000000000000000000000000060648201526084016103a7565b61079281610dc7565b60008060048481548110610b9657610b966110e1565b6000918252602090912001546006805473ffffffffffffffffffffffffffffffffffffffff19166001600160a01b039283169081179091556002546040517f3305bd300000000000000000000000000000000000000000000000000000000081523060048201523360248201526044810187905260648101929092526003608483015290911690633305bd309060a401602060405180830381600087803b158015610c4057600080fd5b505af1158015610c54573d6000803e3d6000fd5b505050506040513d601f19601f82011682018060405250810190610c7891906110f7565b506001949350505050565b600060048381548110610c9857610c986110e1565b60009182526020822001546040516001600160a01b039091169250829184156108fc02918591818181858888f19350505050158015610cdb573d6000803e3d6000fd5b50604080516001600160a01b0383168152602081018490527f9b320e270eb528aa46b3a21b196f1da153ccb2d5637e892594474e969fe6b7a9910160405180910390a1505050565b6002546040517f32f655fd00000000000000000000000000000000000000000000000000000000815233600482015260009182916001600160a01b03909116906332f655fd90602401602060405180830381600087803b158015610d8657600080fd5b505af1158015610d9a573d6000803e3d6000fd5b505050506040513d601f19601f82011682018060405250810190610dbe91906110f7565b50600192915050565b600080546001600160a01b0383811673ffffffffffffffffffffffffffffffffffffffff19831681178455604051919092169283917f8be0079c531659141344cd1fd0a4f28419497f9722a3daafe3b4186f6b6457e09190a35050565b828054828255906000526020600020908101928215610e86579160200282015b82811115610e86578251825473ffffffffffffffffffffffffffffffffffffffff19166001600160a01b03909116178255602090920191600190910190610e44565b50610e92929150610e96565b5090565b5b80821115610e925760008155600101610e97565b6001600160a01b038116811461079257600080fd5b600060208284031215610ed257600080fd5b8135610edd81610eab565b9392505050565b60008060408385031215610ef757600080fd5b50508035926020909101359150565b6020808252825182820181905260009190848201906040850190845b81811015610f475783516001600160a01b031683529284019291840191600101610f22565b50909695505050505050565b600060208284031215610f6557600080fd5b5051919050565b634e487b7160e01b600052601260045260246000fd5b634e487b7160e01b600052601160045260246000fd5b600082610fa757610fa7610f6c565b500490565b6000816000190483118215151615610fc657610fc6610f82565b500290565b600082821015610fdd57610fdd610f82565b500390565b600082610ff157610ff1610f6c565b500690565b634e487b7160e01b600052604160045260246000fd5b805161101781610eab565b919050565b6000602080838503121561102f57600080fd5b825167ffffffffffffffff8082111561104757600080fd5b818501915085601f83011261105b57600080fd5b81518181111561106d5761106d610ff6565b8060051b604051601f19603f8301168101818110858211171561109257611092610ff6565b6040529182528482019250838101850191888311156110b057600080fd5b938501935b828510156110d5576110c68561100c565b845293850193928501926110b5565b98975050505050505050565b634e487b7160e01b600052603260045260246000fd5b60006020828403121561110957600080fd5b81518015158114610edd57600080fdfea2646970667358221220ef81dbdf693d786de812faed1ad143183f7e38ff313b99db589f475d8930293c64736f6c63430008090033",
  "immutableReferences": {},
  "source": "// SPDX-License-Identifier: MIT\npragma solidity ^0.8.0;\n// pragma experimental ABIEncoderV2;\n\n/* ToDo : Use Ownable OpenZeppelin */\nimport \"@openzeppelin/contracts/access/Ownable.sol\";\nimport \"@openzeppelin/contracts/utils/math/SafeMath.sol\";\n\n// import \"./LotteryGenerator.sol\";\nimport \"./VRFv2Consumer.sol\";\nimport \"./VRFv2SubscriptionManager.sol\";\n\nimport \"./LotteryCore.sol\";\n\n// import \"truffle/Console.sol\";\n// import \"hardhat/console.sol\";\n\nimport \"./LotteryInterface.sol\";\n\n\n/**\n************************************************************************************\n************************************************************************************\n*/\n\n/**\n************************************************************************************\n************************************************************************************\n**/\ncontract MonthlyLottery is Ownable {\n\n  address private _VRF;\n  address private generatorLotteryAddr;\n  // address private LiquidityPoolAddress;\n  // address private MultiSigWalletAddress;\n  address private LotteryOwner;\n\n  address[] private _WeeklyWinnersArray;\n  bool private lPotActive;  \n  bool private lReadySelectWinner; \n  address private potDirector;  /* ToDo: All Main Action must be controlled only by Owner or Director */\n  address private potWinnerAddress;\n\n  event SelectWinnerIndex(uint winnerIndex, uint potBalance, uint winnerPrize);\n  event SelectWinnerAddress(address potWinner, uint winnerPrize);\n  event TotalPayment(address receiver, uint TrxValue);\n\n  constructor(address VRF, address generatorLotteryAddress) {  \n    LotteryOwner = msg.sender;\n    _VRF = VRF;\n    lPotActive = false;\n    lReadySelectWinner = false;\n    generatorLotteryAddr = generatorLotteryAddress;\n  }\n\n  /* ToDo : Add & Complete Fallback routine */\n  fallback() external payable {\n  }\n  receive() external payable {\n  }\n\n  modifier isAllowedManager() {\n      require( msg.sender == potDirector || msg.sender == LotteryOwner , \"Permission Denied !!\" );\n      _;\n  }\n\n  modifier isGameOn() {\n      require(lPotActive , \"The Pot has not been Ready to Play yet Or The Game is Over!\");  // && !lReadySelectWinner \n      _;\n  }\n\n  function balanceInPot() public view returns(uint){\n    return address(this).balance;\n  }\n\n  function withdraw() external onlyOwner {\n    payable(msg.sender).transfer(address(this).balance);\n  }\n\n  /*\n  function randomGenerator() private view returns (uint) {\n    return uint(\n      keccak256(\n        abi.encodePacked(\n          block.difficulty, block.timestamp, _WeeklyWinnersArray ))) ;\n  }\n  */\n\n  /* ToDo : Replace This function with OpenZeppelin SafeMath */\n  /**\n    * @notice Function for deviding two Integer Numbers and return the results.\n    * @dev Safe Function for Devision Operation.\n    * @param numerator : The Integer Number which is being devided on another Integer Number.\n    * @param denominator : The Integer Number which another Int NUmber is devided by this.  \n    * @return quotient and remainder of the Devision, Both are Integer Numbers. \n  */\n  function getDivided(uint numerator, uint denominator) public pure returns(uint quotient, uint remainder) {\n    require( denominator >= 0, \"Division is Not Possible , Bug in Numbers !\");\n    require( numerator > 0, \"Division is Not Possible , Bug in Numbers !\");\n    quotient  = numerator / denominator; \n    remainder = numerator - denominator * quotient;\n  }\n\n  function potInitialize() external isAllowedManager {\n    require(lPotActive == false, \"The Monthly Pot is started before !\");\n    _WeeklyWinnersArray = getWeeklyWinnersArray();  \n    lPotActive = true ;\n    lReadySelectWinner = true;\n  }\n\n  function getRandomValue(address _VRFv2) public view onlyOwner returns (uint256 randomWords) {\n    // uint8 zeroOne = uint8(randomGenerator() % 2);\n    // randomWords = randomGenerator();\n    randomWords = VRFv2Consumer(_VRFv2).getlRandomWords();\n  }\n\n  function select_Winner() public isAllowedManager {  \n\n    require( lReadySelectWinner == true, \"The Pot is not ready for Select the Winner\" );\n\n    // _WeeklyWinnersArray = getWeeklyWinnersArray();  \n    uint256 l_randomWords = getRandomValue(_VRF);\n    uint winnerIndex = l_randomWords % _WeeklyWinnersArray.length;\n    uint winnerPrize = address(this).balance; // Calculation();\n    \n    emit SelectWinnerIndex(winnerIndex, address(this).balance, winnerPrize);\n    \n    UpdateLotteryData(winnerIndex, address(this).balance);\n    WinnerPrizePayment(winnerIndex, winnerPrize); \n    // FinalPayment();\n    ClearDataBase();\n\n    lPotActive = false;\n    lReadySelectWinner = false;\n\n  }\n\n  /**\n    * @notice Release Smart Contract Memory .\n    * @dev Clear All Storages .\n  */\n  function ClearDataBase() private returns (bool) {\n    bool _success;\n    _success = LotteryInterface(generatorLotteryAddr).clearWeeklyWinnersArrayMap(msg.sender);\n    return true;\n  }\n\n  /**\n    * @notice Calculation of Pot Winner Prize.\n    * @dev Findout the 5% of the Total Pot and The Winner payment.\n  */\n  // function Calculation() internal view returns (uint winnerPrize){\n\n  //   uint totalPot = address(this).balance;\n  //   // _LotteryWinnersArray = getLotteryWinnersArray();  \n  //   // address WinnerAddress = _LotteryWinnersArray[_winnerIndex];\n  //   (winnerPrize, ) = getDivided(totalPot, 20);  // winnerPrize\n\n  // }\n\n  /**\n    * @notice Pay Pot Prize to the Winner.\n    * @dev Transfer Pot Prize to the Winner.\n  */\n  function WinnerPrizePayment(uint _winnerIndex, uint _winnerPrize) private {\n\n    // _LotteryWinnersArray = getLotteryWinnersArray();  \n    address payable potWinner = payable(_WeeklyWinnersArray[_winnerIndex]);  \n    potWinner.transfer(_winnerPrize);\n    emit SelectWinnerAddress(potWinner, _winnerPrize);\n    // _LotteryWinnersArray[winnerIndex].transfer(address(this).balance);\n\n  }\n\n  /**\n    * @notice Remaining Pot Money Transfer.\n    * @dev Transfer remaining Money to the Liquidity Pool.\n  */\n  // function FinalPayment() internal {   // onlyOwner \n\n  //   address payable receiver = payable(LiquidityPoolAddress);\n  //   uint TrxValue = address(this).balance;\n  //   receiver.transfer(TrxValue);\n  //   emit TotalPayment(receiver, TrxValue);\n\n  // }\n\n  /**\n    * @notice Save The Winner Address for Weekly Lottery\n    * @dev Update Generator Smart Contract For Saving Hourly Winner Address\n  */\n  function UpdateLotteryData(uint _winnerIndex, uint _balance) private returns(bool) {\n    bool _success;\n    // uint _winnerId;\n    // _LotteryWinnersArray = getLotteryWinnersArray();  \n    // address _winnerAddress = _WeeklyWinnersArray[_winnerIndex];\n    potWinnerAddress = _WeeklyWinnersArray[_winnerIndex];\n    _success = LotteryInterface(generatorLotteryAddr).setlotteryStructs(address(this), msg.sender, _balance, potWinnerAddress , 3);  \n    // _winnerId = LotteryInterface(generatorLotteryAddr).setMonthlyWinnersArrayMap(msg.sender, potWinnerAddress );  \n    return true;\n  }\n\n  function getWeeklyWinnersArray() public view returns(address[] memory) {\n    return LotteryInterface(generatorLotteryAddr).getWeeklyWinners();\n  }\n\n  function set_generatorLotteryAddress(address _contractAddr) external onlyOwner {\n    generatorLotteryAddr = _contractAddr;\n  }\n\n  // function set_LiquidityPoolAddress(address _LiquidityPoolAddress) external onlyOwner {\n  //   require(_LiquidityPoolAddress != address(0) );\n  //   LiquidityPoolAddress = _LiquidityPoolAddress;\n  // }\n\n  // function set_MultiSigWalletAddress(address _MultiSigWalletAddress) external onlyOwner {\n  //   require(_MultiSigWalletAddress != address(0) );\n  //   MultiSigWalletAddress = _MultiSigWalletAddress;\n  // }\n\n  function setDirector(address _DirectorAddress) external onlyOwner {\n    require(_DirectorAddress != address(0) );\n    potDirector = _DirectorAddress;\n  }\n\n  function listPlayers() external view returns (address[] memory){  \n    return _WeeklyWinnersArray;  \n  }\n\n  function isPotActive() public view returns(bool) {\n    return lPotActive;\n  }\n\n  function getPlayersNumber() public view returns(uint) {\n    return _WeeklyWinnersArray.length;\n  }\n\n  function getWinners() public view returns(address) {\n    return potWinnerAddress;  \n  }  \n\n  function isReadySelectWinner() public view returns(bool) {\n    return lReadySelectWinner;\n  }\n\n  function getPotDirector() public view returns(address) {\n    return potDirector;\n  }\n\n}\n\n/**\n************************************************************************************\n************************************************************************************\n*/\n\n\n",
  "sourcePath": "/home/batis/SrcCode/myPRJ/SmartContBlockChain/BSCLottery/contracts/MonthlyLottery.sol",
  "compiler": {
    "name": "solc",
    "version": "0.8.9+commit.e5eed63a.Emscripten.clang"
  },
  "schemaVersion": "3.4.3",
  "updatedAt": "2022-05-22T08:46:09.294Z",
  "networkType": "ethereum",
  "devdoc": {
    "kind": "dev",
    "methods": {
      "getDivided(uint256,uint256)": {
        "details": "Safe Function for Devision Operation.",
        "params": {
          "denominator": ": The Integer Number which another Int NUmber is devided by this.  ",
          "numerator": ": The Integer Number which is being devided on another Integer Number."
        },
        "returns": {
          "quotient": "and remainder of the Devision, Both are Integer Numbers. "
        }
      },
      "owner()": {
        "details": "Returns the address of the current owner."
      },
      "renounceOwnership()": {
        "details": "Leaves the contract without owner. It will not be possible to call `onlyOwner` functions anymore. Can only be called by the current owner. NOTE: Renouncing ownership will leave the contract without an owner, thereby removing any functionality that is only available to the owner."
      },
      "transferOwnership(address)": {
        "details": "Transfers ownership of the contract to a new account (`newOwner`). Can only be called by the current owner."
      }
    },
    "version": 1
  },
  "userdoc": {
    "kind": "user",
    "methods": {
      "getDivided(uint256,uint256)": {
        "notice": "Function for deviding two Integer Numbers and return the results."
      }
    },
    "notice": "*************************************************************************************************************************************************************************",
    "version": 1
  }
}