{
  "contractName": "MonthlyLottery",
  "abi": [
    {
      "inputs": [
        {
          "internalType": "address",
          "name": "VRF",
          "type": "address"
        },
        {
          "internalType": "address",
          "name": "generatorLotteryAddress",
          "type": "address"
        }
      ],
      "stateMutability": "nonpayable",
      "type": "constructor"
    },
    {
      "anonymous": false,
      "inputs": [
        {
          "indexed": true,
          "internalType": "address",
          "name": "previousOwner",
          "type": "address"
        },
        {
          "indexed": true,
          "internalType": "address",
          "name": "newOwner",
          "type": "address"
        }
      ],
      "name": "OwnershipTransferred",
      "type": "event"
    },
    {
      "anonymous": false,
      "inputs": [
        {
          "indexed": false,
          "internalType": "address",
          "name": "potWinner",
          "type": "address"
        },
        {
          "indexed": false,
          "internalType": "uint256",
          "name": "winnerPrize",
          "type": "uint256"
        }
      ],
      "name": "SelectWinnerAddress",
      "type": "event"
    },
    {
      "anonymous": false,
      "inputs": [
        {
          "indexed": false,
          "internalType": "uint256",
          "name": "winnerIndex",
          "type": "uint256"
        },
        {
          "indexed": false,
          "internalType": "uint256",
          "name": "potBalance",
          "type": "uint256"
        },
        {
          "indexed": false,
          "internalType": "uint256",
          "name": "winnerPrize",
          "type": "uint256"
        }
      ],
      "name": "SelectWinnerIndex",
      "type": "event"
    },
    {
      "anonymous": false,
      "inputs": [
        {
          "indexed": false,
          "internalType": "address",
          "name": "receiver",
          "type": "address"
        },
        {
          "indexed": false,
          "internalType": "uint256",
          "name": "TrxValue",
          "type": "uint256"
        }
      ],
      "name": "TotalPayment",
      "type": "event"
    },
    {
      "stateMutability": "payable",
      "type": "fallback",
      "payable": true
    },
    {
      "inputs": [],
      "name": "owner",
      "outputs": [
        {
          "internalType": "address",
          "name": "",
          "type": "address"
        }
      ],
      "stateMutability": "view",
      "type": "function",
      "constant": true
    },
    {
      "inputs": [],
      "name": "renounceOwnership",
      "outputs": [],
      "stateMutability": "nonpayable",
      "type": "function"
    },
    {
      "inputs": [
        {
          "internalType": "address",
          "name": "newOwner",
          "type": "address"
        }
      ],
      "name": "transferOwnership",
      "outputs": [],
      "stateMutability": "nonpayable",
      "type": "function"
    },
    {
      "stateMutability": "payable",
      "type": "receive",
      "payable": true
    },
    {
      "inputs": [],
      "name": "balanceInPot",
      "outputs": [
        {
          "internalType": "uint256",
          "name": "",
          "type": "uint256"
        }
      ],
      "stateMutability": "view",
      "type": "function",
      "constant": true
    },
    {
      "inputs": [],
      "name": "withdraw",
      "outputs": [],
      "stateMutability": "nonpayable",
      "type": "function"
    },
    {
      "inputs": [
        {
          "internalType": "uint256",
          "name": "numerator",
          "type": "uint256"
        },
        {
          "internalType": "uint256",
          "name": "denominator",
          "type": "uint256"
        }
      ],
      "name": "getDivided",
      "outputs": [
        {
          "internalType": "uint256",
          "name": "quotient",
          "type": "uint256"
        },
        {
          "internalType": "uint256",
          "name": "remainder",
          "type": "uint256"
        }
      ],
      "stateMutability": "pure",
      "type": "function",
      "constant": true
    },
    {
      "inputs": [],
      "name": "potInitialize",
      "outputs": [],
      "stateMutability": "nonpayable",
      "type": "function"
    },
    {
      "inputs": [
        {
          "internalType": "address",
          "name": "_VRFv2",
          "type": "address"
        }
      ],
      "name": "getRandomValue",
      "outputs": [
        {
          "internalType": "uint256",
          "name": "randomWords",
          "type": "uint256"
        }
      ],
      "stateMutability": "view",
      "type": "function",
      "constant": true
    },
    {
      "inputs": [],
      "name": "select_Winner",
      "outputs": [],
      "stateMutability": "nonpayable",
      "type": "function"
    },
    {
      "inputs": [],
      "name": "getWeeklyWinnersArray",
      "outputs": [
        {
          "internalType": "address[]",
          "name": "",
          "type": "address[]"
        }
      ],
      "stateMutability": "view",
      "type": "function",
      "constant": true
    },
    {
      "inputs": [
        {
          "internalType": "address",
          "name": "_contractAddr",
          "type": "address"
        }
      ],
      "name": "set_generatorLotteryAddress",
      "outputs": [],
      "stateMutability": "nonpayable",
      "type": "function"
    },
    {
      "inputs": [
        {
          "internalType": "address",
          "name": "_DirectorAddress",
          "type": "address"
        }
      ],
      "name": "setDirector",
      "outputs": [],
      "stateMutability": "nonpayable",
      "type": "function"
    },
    {
      "inputs": [],
      "name": "listPlayers",
      "outputs": [
        {
          "internalType": "address[]",
          "name": "",
          "type": "address[]"
        }
      ],
      "stateMutability": "view",
      "type": "function",
      "constant": true
    },
    {
      "inputs": [],
      "name": "isPotActive",
      "outputs": [
        {
          "internalType": "bool",
          "name": "",
          "type": "bool"
        }
      ],
      "stateMutability": "view",
      "type": "function",
      "constant": true
    },
    {
      "inputs": [],
      "name": "getPlayersNumber",
      "outputs": [
        {
          "internalType": "uint256",
          "name": "",
          "type": "uint256"
        }
      ],
      "stateMutability": "view",
      "type": "function",
      "constant": true
    },
    {
      "inputs": [],
      "name": "getWinners",
      "outputs": [
        {
          "internalType": "address",
          "name": "",
          "type": "address"
        }
      ],
      "stateMutability": "view",
      "type": "function",
      "constant": true
    },
    {
      "inputs": [],
      "name": "isReadySelectWinner",
      "outputs": [
        {
          "internalType": "bool",
          "name": "",
          "type": "bool"
        }
      ],
      "stateMutability": "view",
      "type": "function",
      "constant": true
    },
    {
      "inputs": [],
      "name": "getPotDirector",
      "outputs": [
        {
          "internalType": "address",
          "name": "",
          "type": "address"
        }
      ],
      "stateMutability": "view",
      "type": "function",
      "constant": true
    }
  ],
  "bytecode": "0x60806040523480156200001157600080fd5b50604051620021403803806200214083398181016040528101906200003791906200028e565b620000576200004b6200015860201b60201c565b6200016060201b60201c565b33600360006101000a81548173ffffffffffffffffffffffffffffffffffffffff021916908373ffffffffffffffffffffffffffffffffffffffff16021790555081600160006101000a81548173ffffffffffffffffffffffffffffffffffffffff021916908373ffffffffffffffffffffffffffffffffffffffff1602179055506000600560006101000a81548160ff0219169083151502179055506000600560016101000a81548160ff02191690831515021790555080600260006101000a81548173ffffffffffffffffffffffffffffffffffffffff021916908373ffffffffffffffffffffffffffffffffffffffff1602179055505050620002d5565b600033905090565b60008060009054906101000a900473ffffffffffffffffffffffffffffffffffffffff169050816000806101000a81548173ffffffffffffffffffffffffffffffffffffffff021916908373ffffffffffffffffffffffffffffffffffffffff1602179055508173ffffffffffffffffffffffffffffffffffffffff168173ffffffffffffffffffffffffffffffffffffffff167f8be0079c531659141344cd1fd0a4f28419497f9722a3daafe3b4186f6b6457e060405160405180910390a35050565b600080fd5b600073ffffffffffffffffffffffffffffffffffffffff82169050919050565b6000620002568262000229565b9050919050565b620002688162000249565b81146200027457600080fd5b50565b60008151905062000288816200025d565b92915050565b60008060408385031215620002a857620002a762000224565b5b6000620002b88582860162000277565b9250506020620002cb8582860162000277565b9150509250929050565b611e5b80620002e56000396000f3fe60806040526004361061010d5760003560e01c80636c253437116100955780638da5cb5b116100645780638da5cb5b14610316578063c5ae6f3e14610341578063df15c37e1461036c578063e8b05e3814610397578063f2fde38b146103c257610114565b80636c25343714610294578063715018a6146102ab578063766eef11146102c25780638613e4cf146102ed57610114565b80632ac75ab5116100dc5780632ac75ab5146101e55780633ccfd60b146101fc5780634442713c14610213578063640851b91461023e57806364605d511461026957610114565b806314e599871461011657806314e5e90e14610141578063194d02d71461017e57806326ba4319146101bc57610114565b3661011457005b005b34801561012257600080fd5b5061012b6103eb565b604051610138919061134a565b60405180910390f35b34801561014d57600080fd5b50610168600480360381019061016391906113d7565b6103f3565b604051610175919061134a565b60405180910390f35b34801561018a57600080fd5b506101a560048036038101906101a09190611430565b6104f6565b6040516101b3929190611470565b60405180910390f35b3480156101c857600080fd5b506101e360048036038101906101de91906113d7565b6105ae565b005b3480156101f157600080fd5b506101fa6106a8565b005b34801561020857600080fd5b50610211610857565b005b34801561021f57600080fd5b5061022861091c565b60405161023591906114b4565b60405180910390f35b34801561024a57600080fd5b50610253610933565b604051610260919061158d565b60405180910390f35b34801561027557600080fd5b5061027e6109df565b60405161028b919061158d565b60405180910390f35b3480156102a057600080fd5b506102a9610a6d565b005b3480156102b757600080fd5b506102c0610c01565b005b3480156102ce57600080fd5b506102d7610c89565b6040516102e4919061134a565b60405180910390f35b3480156102f957600080fd5b50610314600480360381019061030f91906113d7565b610c96565b005b34801561032257600080fd5b5061032b610d56565b60405161033891906115be565b60405180910390f35b34801561034d57600080fd5b50610356610d7f565b60405161036391906115be565b60405180910390f35b34801561037857600080fd5b50610381610da9565b60405161038e91906115be565b60405180910390f35b3480156103a357600080fd5b506103ac610dd3565b6040516103b991906114b4565b60405180910390f35b3480156103ce57600080fd5b506103e960048036038101906103e491906113d7565b610dea565b005b600047905090565b60006103fd610ee2565b73ffffffffffffffffffffffffffffffffffffffff1661041b610d56565b73ffffffffffffffffffffffffffffffffffffffff1614610471576040517f08c379a000000000000000000000000000000000000000000000000000000000815260040161046890611636565b60405180910390fd5b8173ffffffffffffffffffffffffffffffffffffffff166371f747906040518163ffffffff1660e01b815260040160206040518083038186803b1580156104b757600080fd5b505afa1580156104cb573d6000803e3d6000fd5b505050506040513d601f19601f820116820180604052508101906104ef919061166b565b9050919050565b600080600083101561053d576040517f08c379a00000000000000000000000000000000000000000000000000000000081526004016105349061170a565b60405180910390fd5b60008411610580576040517f08c379a00000000000000000000000000000000000000000000000000000000081526004016105779061170a565b60405180910390fd5b828461058c9190611788565b9150818361059a91906117b9565b846105a59190611813565b90509250929050565b6105b6610ee2565b73ffffffffffffffffffffffffffffffffffffffff166105d4610d56565b73ffffffffffffffffffffffffffffffffffffffff161461062a576040517f08c379a000000000000000000000000000000000000000000000000000000000815260040161062190611636565b60405180910390fd5b600073ffffffffffffffffffffffffffffffffffffffff168173ffffffffffffffffffffffffffffffffffffffff16141561066457600080fd5b80600560026101000a81548173ffffffffffffffffffffffffffffffffffffffff021916908373ffffffffffffffffffffffffffffffffffffffff16021790555050565b6106b0610ee2565b73ffffffffffffffffffffffffffffffffffffffff166106ce610d56565b73ffffffffffffffffffffffffffffffffffffffff1614610724576040517f08c379a000000000000000000000000000000000000000000000000000000000815260040161071b90611636565b60405180910390fd5b60011515600560019054906101000a900460ff1615151461077a576040517f08c379a0000000000000000000000000000000000000000000000000000000008152600401610771906118b9565b60405180910390fd5b60006107a7600160009054906101000a900473ffffffffffffffffffffffffffffffffffffffff166103f3565b90506000600480549050826107bc91906118d9565b905060004790507f274f2e5ea35472f60f411beb007713c0f1c1b574f260789eedee1789cd49d9f58247836040516107f69392919061190a565b60405180910390a16108088247610eea565b50610813828261104f565b61081b611117565b506000600560006101000a81548160ff0219169083151502179055506000600560016101000a81548160ff021916908315150217905550505050565b61085f610ee2565b73ffffffffffffffffffffffffffffffffffffffff1661087d610d56565b73ffffffffffffffffffffffffffffffffffffffff16146108d3576040517f08c379a00000000000000000000000000000000000000000000000000000000081526004016108ca90611636565b60405180910390fd5b3373ffffffffffffffffffffffffffffffffffffffff166108fc479081150290604051600060405180830381858888f19350505050158015610919573d6000803e3d6000fd5b50565b6000600560009054906101000a900460ff16905090565b6060600260009054906101000a900473ffffffffffffffffffffffffffffffffffffffff1673ffffffffffffffffffffffffffffffffffffffff16634488d6796040518163ffffffff1660e01b815260040160006040518083038186803b15801561099d57600080fd5b505afa1580156109b1573d6000803e3d6000fd5b505050506040513d6000823e3d601f19601f820116820180604052508101906109da9190611aaf565b905090565b60606004805480602002602001604051908101604052809291908181526020018280548015610a6357602002820191906000526020600020905b8160009054906101000a900473ffffffffffffffffffffffffffffffffffffffff1673ffffffffffffffffffffffffffffffffffffffff1681526020019060010190808311610a19575b5050505050905090565b600560029054906101000a900473ffffffffffffffffffffffffffffffffffffffff1673ffffffffffffffffffffffffffffffffffffffff163373ffffffffffffffffffffffffffffffffffffffff161480610b165750600360009054906101000a900473ffffffffffffffffffffffffffffffffffffffff1673ffffffffffffffffffffffffffffffffffffffff163373ffffffffffffffffffffffffffffffffffffffff16145b610b55576040517f08c379a0000000000000000000000000000000000000000000000000000000008152600401610b4c90611b44565b60405180910390fd5b60001515600560009054906101000a900460ff16151514610bab576040517f08c379a0000000000000000000000000000000000000000000000000000000008152600401610ba290611bd6565b60405180910390fd5b610bb3610933565b60049080519060200190610bc892919061128a565b506001600560006101000a81548160ff0219169083151502179055506001600560016101000a81548160ff021916908315150217905550565b610c09610ee2565b73ffffffffffffffffffffffffffffffffffffffff16610c27610d56565b73ffffffffffffffffffffffffffffffffffffffff1614610c7d576040517f08c379a0000000000000000000000000000000000000000000000000000000008152600401610c7490611636565b60405180910390fd5b610c8760006111c6565b565b6000600480549050905090565b610c9e610ee2565b73ffffffffffffffffffffffffffffffffffffffff16610cbc610d56565b73ffffffffffffffffffffffffffffffffffffffff1614610d12576040517f08c379a0000000000000000000000000000000000000000000000000000000008152600401610d0990611636565b60405180910390fd5b80600260006101000a81548173ffffffffffffffffffffffffffffffffffffffff021916908373ffffffffffffffffffffffffffffffffffffffff16021790555050565b60008060009054906101000a900473ffffffffffffffffffffffffffffffffffffffff16905090565b6000600560029054906101000a900473ffffffffffffffffffffffffffffffffffffffff16905090565b6000600660009054906101000a900473ffffffffffffffffffffffffffffffffffffffff16905090565b6000600560019054906101000a900460ff16905090565b610df2610ee2565b73ffffffffffffffffffffffffffffffffffffffff16610e10610d56565b73ffffffffffffffffffffffffffffffffffffffff1614610e66576040517f08c379a0000000000000000000000000000000000000000000000000000000008152600401610e5d90611636565b60405180910390fd5b600073ffffffffffffffffffffffffffffffffffffffff168173ffffffffffffffffffffffffffffffffffffffff161415610ed6576040517f08c379a0000000000000000000000000000000000000000000000000000000008152600401610ecd90611c68565b60405180910390fd5b610edf816111c6565b50565b600033905090565b60008060048481548110610f0157610f00611c88565b5b9060005260206000200160009054906101000a900473ffffffffffffffffffffffffffffffffffffffff16600660006101000a81548173ffffffffffffffffffffffffffffffffffffffff021916908373ffffffffffffffffffffffffffffffffffffffff160217905550600260009054906101000a900473ffffffffffffffffffffffffffffffffffffffff1673ffffffffffffffffffffffffffffffffffffffff16637a1fa9e33085600660009054906101000a900473ffffffffffffffffffffffffffffffffffffffff1660036040518563ffffffff1660e01b8152600401610ff09493929190611d09565b602060405180830381600087803b15801561100a57600080fd5b505af115801561101e573d6000803e3d6000fd5b505050506040513d601f19601f820116820180604052508101906110429190611d7a565b9050600191505092915050565b60006004838154811061106557611064611c88565b5b9060005260206000200160009054906101000a900473ffffffffffffffffffffffffffffffffffffffff1690508073ffffffffffffffffffffffffffffffffffffffff166108fc839081150290604051600060405180830381858888f193505050501580156110d8573d6000803e3d6000fd5b507f9b320e270eb528aa46b3a21b196f1da153ccb2d5637e892594474e969fe6b7a9818360405161110a929190611dfc565b60405180910390a1505050565b600080600260009054906101000a900473ffffffffffffffffffffffffffffffffffffffff1673ffffffffffffffffffffffffffffffffffffffff1663a1b8aad16040518163ffffffff1660e01b8152600401602060405180830381600087803b15801561118457600080fd5b505af1158015611198573d6000803e3d6000fd5b505050506040513d601f19601f820116820180604052508101906111bc9190611d7a565b9050600191505090565b60008060009054906101000a900473ffffffffffffffffffffffffffffffffffffffff169050816000806101000a81548173ffffffffffffffffffffffffffffffffffffffff021916908373ffffffffffffffffffffffffffffffffffffffff1602179055508173ffffffffffffffffffffffffffffffffffffffff168173ffffffffffffffffffffffffffffffffffffffff167f8be0079c531659141344cd1fd0a4f28419497f9722a3daafe3b4186f6b6457e060405160405180910390a35050565b828054828255906000526020600020908101928215611303579160200282015b828111156113025782518260006101000a81548173ffffffffffffffffffffffffffffffffffffffff021916908373ffffffffffffffffffffffffffffffffffffffff160217905550916020019190600101906112aa565b5b5090506113109190611314565b5090565b5b8082111561132d576000816000905550600101611315565b5090565b6000819050919050565b61134481611331565b82525050565b600060208201905061135f600083018461133b565b92915050565b6000604051905090565b600080fd5b600080fd5b600073ffffffffffffffffffffffffffffffffffffffff82169050919050565b60006113a482611379565b9050919050565b6113b481611399565b81146113bf57600080fd5b50565b6000813590506113d1816113ab565b92915050565b6000602082840312156113ed576113ec61136f565b5b60006113fb848285016113c2565b91505092915050565b61140d81611331565b811461141857600080fd5b50565b60008135905061142a81611404565b92915050565b600080604083850312156114475761144661136f565b5b60006114558582860161141b565b92505060206114668582860161141b565b9150509250929050565b6000604082019050611485600083018561133b565b611492602083018461133b565b9392505050565b60008115159050919050565b6114ae81611499565b82525050565b60006020820190506114c960008301846114a5565b92915050565b600081519050919050565b600082825260208201905092915050565b6000819050602082019050919050565b61150481611399565b82525050565b600061151683836114fb565b60208301905092915050565b6000602082019050919050565b600061153a826114cf565b61154481856114da565b935061154f836114eb565b8060005b83811015611580578151611567888261150a565b975061157283611522565b925050600181019050611553565b5085935050505092915050565b600060208201905081810360008301526115a7818461152f565b905092915050565b6115b881611399565b82525050565b60006020820190506115d360008301846115af565b92915050565b600082825260208201905092915050565b7f4f776e61626c653a2063616c6c6572206973206e6f7420746865206f776e6572600082015250565b60006116206020836115d9565b915061162b826115ea565b602082019050919050565b6000602082019050818103600083015261164f81611613565b9050919050565b60008151905061166581611404565b92915050565b6000602082840312156116815761168061136f565b5b600061168f84828501611656565b91505092915050565b7f4469766973696f6e206973204e6f7420506f737369626c65202c20427567206960008201527f6e204e756d626572732021000000000000000000000000000000000000000000602082015250565b60006116f4602b836115d9565b91506116ff82611698565b604082019050919050565b60006020820190508181036000830152611723816116e7565b9050919050565b7f4e487b7100000000000000000000000000000000000000000000000000000000600052601260045260246000fd5b7f4e487b7100000000000000000000000000000000000000000000000000000000600052601160045260246000fd5b600061179382611331565b915061179e83611331565b9250826117ae576117ad61172a565b5b828204905092915050565b60006117c482611331565b91506117cf83611331565b9250817fffffffffffffffffffffffffffffffffffffffffffffffffffffffffffffffff048311821515161561180857611807611759565b5b828202905092915050565b600061181e82611331565b915061182983611331565b92508282101561183c5761183b611759565b5b828203905092915050565b7f54686520506f74206973206e6f7420726561647920666f722053656c6563742060008201527f7468652057696e6e657200000000000000000000000000000000000000000000602082015250565b60006118a3602a836115d9565b91506118ae82611847565b604082019050919050565b600060208201905081810360008301526118d281611896565b9050919050565b60006118e482611331565b91506118ef83611331565b9250826118ff576118fe61172a565b5b828206905092915050565b600060608201905061191f600083018661133b565b61192c602083018561133b565b611939604083018461133b565b949350505050565b600080fd5b6000601f19601f8301169050919050565b7f4e487b7100000000000000000000000000000000000000000000000000000000600052604160045260246000fd5b61198f82611946565b810181811067ffffffffffffffff821117156119ae576119ad611957565b5b80604052505050565b60006119c1611365565b90506119cd8282611986565b919050565b600067ffffffffffffffff8211156119ed576119ec611957565b5b602082029050602081019050919050565b600080fd5b600081519050611a12816113ab565b92915050565b6000611a2b611a26846119d2565b6119b7565b90508083825260208201905060208402830185811115611a4e57611a4d6119fe565b5b835b81811015611a775780611a638882611a03565b845260208401935050602081019050611a50565b5050509392505050565b600082601f830112611a9657611a95611941565b5b8151611aa6848260208601611a18565b91505092915050565b600060208284031215611ac557611ac461136f565b5b600082015167ffffffffffffffff811115611ae357611ae2611374565b5b611aef84828501611a81565b91505092915050565b7f5065726d697373696f6e2044656e696564202121000000000000000000000000600082015250565b6000611b2e6014836115d9565b9150611b3982611af8565b602082019050919050565b60006020820190508181036000830152611b5d81611b21565b9050919050565b7f546865204d6f6e74686c7920506f742069732073746172746564206265666f7260008201527f6520210000000000000000000000000000000000000000000000000000000000602082015250565b6000611bc06023836115d9565b9150611bcb82611b64565b604082019050919050565b60006020820190508181036000830152611bef81611bb3565b9050919050565b7f4f776e61626c653a206e6577206f776e657220697320746865207a65726f206160008201527f6464726573730000000000000000000000000000000000000000000000000000602082015250565b6000611c526026836115d9565b9150611c5d82611bf6565b604082019050919050565b60006020820190508181036000830152611c8181611c45565b9050919050565b7f4e487b7100000000000000000000000000000000000000000000000000000000600052603260045260246000fd5b6000819050919050565b600060ff82169050919050565b6000819050919050565b6000611cf3611cee611ce984611cb7565b611cce565b611cc1565b9050919050565b611d0381611cd8565b82525050565b6000608082019050611d1e60008301876115af565b611d2b602083018661133b565b611d3860408301856115af565b611d456060830184611cfa565b95945050505050565b611d5781611499565b8114611d6257600080fd5b50565b600081519050611d7481611d4e565b92915050565b600060208284031215611d9057611d8f61136f565b5b6000611d9e84828501611d65565b91505092915050565b6000611dc2611dbd611db884611379565b611cce565b611379565b9050919050565b6000611dd482611da7565b9050919050565b6000611de682611dc9565b9050919050565b611df681611ddb565b82525050565b6000604082019050611e116000830185611ded565b611e1e602083018461133b565b939250505056fea2646970667358221220e66418b8169e3dc08035256c113733551cd33aea804abe5437ae7bb46f78660364736f6c63430008090033",
  "immutableReferences": {},
  "source": "// SPDX-License-Identifier: MIT\npragma solidity ^0.8.0;\n// pragma experimental ABIEncoderV2;\n\n/* ToDo : Use Ownable OpenZeppelin */\nimport \"@openzeppelin/contracts/access/Ownable.sol\";\nimport \"@openzeppelin/contracts/utils/math/SafeMath.sol\";\n\n// import \"./LotteryGenerator.sol\";\nimport \"./VRFv2Consumer.sol\";\nimport \"./VRFv2SubscriptionManager.sol\";\n\nimport \"./LotteryCore.sol\";\n\n// import \"truffle/Console.sol\";\n// import \"hardhat/console.sol\";\n\nimport \"./LotteryInterface.sol\";\n\n// interface IiilotteryGenerator {\n//     function WeeklyWinnersArray() external view returns (address[] memory);\n//     function setlotteryStructs(address _lotteryAddress, uint _totalBalance, address _winnerAddress, uint8 _lotteryType) external returns (bool);\n//     function clearWeeklyWinnersArrayMap(address _lotteryAddress) external returns (bool);\n// }\n\n\n/**\n************************************************************************************\n************************************************************************************\n*/\n\n/**\n************************************************************************************\n************************************************************************************\n**/\ncontract MonthlyLottery is Ownable {\n\n  address private _VRF;\n  address private generatorLotteryAddr;\n  // address private LiquidityPoolAddress;\n  // address private MultiSigWalletAddress;\n  address private LotteryOwner;\n\n  address[] private _WeeklyWinnersArray;\n  bool private lPotActive;  \n  bool private lReadySelectWinner; \n  address private potDirector;  /* ToDo: All Main Action must be controlled only by Owner or Director */\n  address private potWinnerAddress;\n\n  event SelectWinnerIndex(uint winnerIndex, uint potBalance, uint winnerPrize);\n  event SelectWinnerAddress(address potWinner, uint winnerPrize);\n  event TotalPayment(address receiver, uint TrxValue);\n\n  constructor(address VRF, address generatorLotteryAddress) {  \n    LotteryOwner = msg.sender;\n    _VRF = VRF;\n    lPotActive = false;\n    lReadySelectWinner = false;\n    generatorLotteryAddr = generatorLotteryAddress;\n  }\n\n  /* ToDo : Add & Complete Fallback routine */\n  fallback() external payable {\n  }\n  receive() external payable {\n  }\n\n  modifier isAllowedManager() {\n      require( msg.sender == potDirector || msg.sender == LotteryOwner , \"Permission Denied !!\" );\n      _;\n  }\n\n  modifier isGameOn() {\n      require(lPotActive , \"The Pot has not been Ready to Play yet Or The Game is Over!\");  // && !lReadySelectWinner \n      _;\n  }\n\n  function balanceInPot() public view returns(uint){\n    return address(this).balance;\n  }\n\n  function withdraw() external onlyOwner {\n    payable(msg.sender).transfer(address(this).balance);\n  }\n\n  /*\n  function randomGenerator() private view returns (uint) {\n    return uint(\n      keccak256(\n        abi.encodePacked(\n          block.difficulty, block.timestamp, _WeeklyWinnersArray ))) ;\n  }\n  */\n\n  /* ToDo : Replace This function with OpenZeppelin SafeMath */\n  /**\n    * @notice Function for deviding two Integer Numbers and return the results.\n    * @dev Safe Function for Devision Operation.\n    * @param numerator : The Integer Number which is being devided on another Integer Number.\n    * @param denominator : The Integer Number which another Int NUmber is devided by this.  \n    * @return quotient and remainder of the Devision, Both are Integer Numbers. \n  */\n  function getDivided(uint numerator, uint denominator) public pure returns(uint quotient, uint remainder) {\n    require( denominator >= 0, \"Division is Not Possible , Bug in Numbers !\");\n    require( numerator > 0, \"Division is Not Possible , Bug in Numbers !\");\n    quotient  = numerator / denominator; \n    remainder = numerator - denominator * quotient;\n  }\n\n  function potInitialize() external isAllowedManager {\n    require(lPotActive == false, \"The Monthly Pot is started before !\");\n    _WeeklyWinnersArray = getWeeklyWinnersArray();  \n    lPotActive = true ;\n    lReadySelectWinner = true;\n  }\n\n  function getRandomValue(address _VRFv2) public view onlyOwner returns (uint256 randomWords) {\n    // uint8 zeroOne = uint8(randomGenerator() % 2);\n    // randomWords = randomGenerator();\n    randomWords = VRFv2Consumer(_VRFv2).getlRandomWords();\n  }\n\n  function select_Winner() public onlyOwner {  \n\n    require( lReadySelectWinner == true, \"The Pot is not ready for Select the Winner\" );\n\n    // _WeeklyWinnersArray = getWeeklyWinnersArray();  \n    uint256 l_randomWords = getRandomValue(_VRF);\n    uint winnerIndex = l_randomWords % _WeeklyWinnersArray.length;\n    uint winnerPrize = address(this).balance; // Calculation();\n    \n    emit SelectWinnerIndex(winnerIndex, address(this).balance, winnerPrize);\n    \n    UpdateLotteryData(winnerIndex, address(this).balance);\n    WinnerPrizePayment(winnerIndex, winnerPrize); \n    // FinalPayment();\n    ClearDataBase();\n\n    lPotActive = false;\n    lReadySelectWinner = false;\n\n  }\n\n  /**\n    * @notice Release Smart Contract Memory .\n    * @dev Clear All Storages .\n  */\n  function ClearDataBase() private returns (bool) {\n    bool _success;\n    _success = LotteryInterface(generatorLotteryAddr).clearWeeklyWinnersArrayMap();\n    return true;\n  }\n\n  /**\n    * @notice Calculation of Pot Winner Prize.\n    * @dev Findout the 5% of the Total Pot and The Winner payment.\n  */\n  // function Calculation() internal view returns (uint winnerPrize){\n\n  //   uint totalPot = address(this).balance;\n  //   // _LotteryWinnersArray = getLotteryWinnersArray();  \n  //   // address WinnerAddress = _LotteryWinnersArray[_winnerIndex];\n  //   (winnerPrize, ) = getDivided(totalPot, 20);  // winnerPrize\n\n  // }\n\n  /**\n    * @notice Pay Pot Prize to the Winner.\n    * @dev Transfer Pot Prize to the Winner.\n  */\n  function WinnerPrizePayment(uint _winnerIndex, uint _winnerPrize) private {\n\n    // _LotteryWinnersArray = getLotteryWinnersArray();  \n    address payable potWinner = payable(_WeeklyWinnersArray[_winnerIndex]);  \n    potWinner.transfer(_winnerPrize);\n    emit SelectWinnerAddress(potWinner, _winnerPrize);\n    // _LotteryWinnersArray[winnerIndex].transfer(address(this).balance);\n\n  }\n\n  /**\n    * @notice Remaining Pot Money Transfer.\n    * @dev Transfer remaining Money to the Liquidity Pool.\n  */\n  // function FinalPayment() internal {   // onlyOwner \n\n  //   address payable receiver = payable(LiquidityPoolAddress);\n  //   uint TrxValue = address(this).balance;\n  //   receiver.transfer(TrxValue);\n  //   emit TotalPayment(receiver, TrxValue);\n\n  // }\n\n  /**\n    * @notice Save The Winner Address for Weekly Lottery\n    * @dev Update Generator Smart Contract For Saving Hourly Winner Address\n  */\n  function UpdateLotteryData(uint _winnerIndex, uint _balance) private returns(bool) {\n    bool _success;\n    // uint _winnerId;\n    // _LotteryWinnersArray = getLotteryWinnersArray();  \n    // address _winnerAddress = _WeeklyWinnersArray[_winnerIndex];\n    potWinnerAddress = _WeeklyWinnersArray[_winnerIndex];\n    _success = LotteryInterface(generatorLotteryAddr).setlotteryStructs(address(this), _balance, potWinnerAddress , 3);  \n    // _winnerId = LotteryInterface(generatorLotteryAddr).setMonthlyWinnersArrayMap(potWinnerAddress );  \n    return true;\n  }\n\n  function getWeeklyWinnersArray() public view returns(address[] memory) {\n    return LotteryInterface(generatorLotteryAddr).getWeeklyWinners();\n  }\n\n  function set_generatorLotteryAddress(address _contractAddr) external onlyOwner {\n    generatorLotteryAddr = _contractAddr;\n  }\n\n  // function set_LiquidityPoolAddress(address _LiquidityPoolAddress) external onlyOwner {\n  //   require(_LiquidityPoolAddress != address(0) );\n  //   LiquidityPoolAddress = _LiquidityPoolAddress;\n  // }\n\n  // function set_MultiSigWalletAddress(address _MultiSigWalletAddress) external onlyOwner {\n  //   require(_MultiSigWalletAddress != address(0) );\n  //   MultiSigWalletAddress = _MultiSigWalletAddress;\n  // }\n\n  function setDirector(address _DirectorAddress) external onlyOwner {\n    require(_DirectorAddress != address(0) );\n    potDirector = _DirectorAddress;\n  }\n\n  function listPlayers() external view returns (address[] memory){  \n    return _WeeklyWinnersArray;  \n  }\n\n  function isPotActive() public view returns(bool) {\n    return lPotActive;\n  }\n\n  function getPlayersNumber() public view returns(uint) {\n    return _WeeklyWinnersArray.length;\n  }\n\n  function getWinners() public view returns(address) {\n    return potWinnerAddress;  \n  }  \n\n  function isReadySelectWinner() public view returns(bool) {\n    return lReadySelectWinner;\n  }\n\n  function getPotDirector() public view returns(address) {\n    return potDirector;\n  }\n\n}\n\n/**\n************************************************************************************\n************************************************************************************\n*/\n\n\n",
  "sourcePath": "/home/batis/SrcCode/myPRJ/SmartContBlockChain/BSCLottery/contracts/MonthlyLottery.sol",
  "compiler": {
    "name": "solc",
    "version": "0.8.9+commit.e5eed63a.Emscripten.clang"
  },
  "schemaVersion": "3.4.3",
  "updatedAt": "2022-05-20T12:02:12.057Z",
  "networkType": "ethereum",
  "devdoc": {
    "kind": "dev",
    "methods": {
      "getDivided(uint256,uint256)": {
        "details": "Safe Function for Devision Operation.",
        "params": {
          "denominator": ": The Integer Number which another Int NUmber is devided by this.  ",
          "numerator": ": The Integer Number which is being devided on another Integer Number."
        },
        "returns": {
          "quotient": "and remainder of the Devision, Both are Integer Numbers. "
        }
      },
      "owner()": {
        "details": "Returns the address of the current owner."
      },
      "renounceOwnership()": {
        "details": "Leaves the contract without owner. It will not be possible to call `onlyOwner` functions anymore. Can only be called by the current owner. NOTE: Renouncing ownership will leave the contract without an owner, thereby removing any functionality that is only available to the owner."
      },
      "transferOwnership(address)": {
        "details": "Transfers ownership of the contract to a new account (`newOwner`). Can only be called by the current owner."
      }
    },
    "version": 1
  },
  "userdoc": {
    "kind": "user",
    "methods": {
      "getDivided(uint256,uint256)": {
        "notice": "Function for deviding two Integer Numbers and return the results."
      }
    },
    "notice": "*************************************************************************************************************************************************************************",
    "version": 1
  }
}