{
  "contractName": "MonthlyLottery",
  "abi": [
    {
      "inputs": [
        {
          "internalType": "address",
          "name": "VRF",
          "type": "address"
        }
      ],
      "stateMutability": "nonpayable",
      "type": "constructor"
    },
    {
      "anonymous": false,
      "inputs": [
        {
          "indexed": true,
          "internalType": "address",
          "name": "previousOwner",
          "type": "address"
        },
        {
          "indexed": true,
          "internalType": "address",
          "name": "newOwner",
          "type": "address"
        }
      ],
      "name": "OwnershipTransferred",
      "type": "event"
    },
    {
      "anonymous": false,
      "inputs": [
        {
          "indexed": false,
          "internalType": "address",
          "name": "potWinner",
          "type": "address"
        },
        {
          "indexed": false,
          "internalType": "uint256",
          "name": "winnerPrize",
          "type": "uint256"
        }
      ],
      "name": "SelectWinnerAddress",
      "type": "event"
    },
    {
      "anonymous": false,
      "inputs": [
        {
          "indexed": false,
          "internalType": "uint256",
          "name": "winnerIndex",
          "type": "uint256"
        },
        {
          "indexed": false,
          "internalType": "uint256",
          "name": "potBalance",
          "type": "uint256"
        },
        {
          "indexed": false,
          "internalType": "uint256",
          "name": "winnerPrize",
          "type": "uint256"
        }
      ],
      "name": "SelectWinnerIndex",
      "type": "event"
    },
    {
      "anonymous": false,
      "inputs": [
        {
          "indexed": false,
          "internalType": "address",
          "name": "receiver",
          "type": "address"
        },
        {
          "indexed": false,
          "internalType": "uint256",
          "name": "TrxValue",
          "type": "uint256"
        }
      ],
      "name": "TotalPayment",
      "type": "event"
    },
    {
      "stateMutability": "payable",
      "type": "fallback"
    },
    {
      "inputs": [],
      "name": "LiquidityPoolAddress",
      "outputs": [
        {
          "internalType": "address",
          "name": "",
          "type": "address"
        }
      ],
      "stateMutability": "view",
      "type": "function"
    },
    {
      "inputs": [],
      "name": "owner",
      "outputs": [
        {
          "internalType": "address",
          "name": "",
          "type": "address"
        }
      ],
      "stateMutability": "view",
      "type": "function"
    },
    {
      "inputs": [],
      "name": "renounceOwnership",
      "outputs": [],
      "stateMutability": "nonpayable",
      "type": "function"
    },
    {
      "inputs": [
        {
          "internalType": "address",
          "name": "newOwner",
          "type": "address"
        }
      ],
      "name": "transferOwnership",
      "outputs": [],
      "stateMutability": "nonpayable",
      "type": "function"
    },
    {
      "stateMutability": "payable",
      "type": "receive"
    },
    {
      "inputs": [],
      "name": "balanceInPot",
      "outputs": [
        {
          "internalType": "uint256",
          "name": "",
          "type": "uint256"
        }
      ],
      "stateMutability": "view",
      "type": "function"
    },
    {
      "inputs": [],
      "name": "withdraw",
      "outputs": [],
      "stateMutability": "nonpayable",
      "type": "function"
    },
    {
      "inputs": [
        {
          "internalType": "address",
          "name": "_VRFv2",
          "type": "address"
        }
      ],
      "name": "getRandomValue",
      "outputs": [
        {
          "internalType": "uint256",
          "name": "randomWords",
          "type": "uint256"
        }
      ],
      "stateMutability": "view",
      "type": "function"
    },
    {
      "inputs": [
        {
          "internalType": "uint256",
          "name": "numerator",
          "type": "uint256"
        },
        {
          "internalType": "uint256",
          "name": "denominator",
          "type": "uint256"
        }
      ],
      "name": "getDivided",
      "outputs": [
        {
          "internalType": "uint256",
          "name": "quotient",
          "type": "uint256"
        },
        {
          "internalType": "uint256",
          "name": "remainder",
          "type": "uint256"
        }
      ],
      "stateMutability": "pure",
      "type": "function"
    },
    {
      "inputs": [],
      "name": "select_Winner",
      "outputs": [],
      "stateMutability": "nonpayable",
      "type": "function"
    },
    {
      "inputs": [
        {
          "internalType": "address",
          "name": "_LiquidityPoolAddress",
          "type": "address"
        }
      ],
      "name": "set_LiquidityPoolAddress",
      "outputs": [],
      "stateMutability": "nonpayable",
      "type": "function"
    },
    {
      "inputs": [
        {
          "internalType": "address",
          "name": "_contractAddr",
          "type": "address"
        }
      ],
      "name": "generatorLotteryAddress",
      "outputs": [],
      "stateMutability": "nonpayable",
      "type": "function"
    }
  ],
  "bytecode": "0x60806040523480156200001157600080fd5b50604051620019e0380380620019e08339818101604052810190620000379190620001d5565b620000576200004b6200009f60201b60201c565b620000a760201b60201c565b80600160006101000a81548173ffffffffffffffffffffffffffffffffffffffff021916908373ffffffffffffffffffffffffffffffffffffffff1602179055505062000207565b600033905090565b60008060009054906101000a900473ffffffffffffffffffffffffffffffffffffffff169050816000806101000a81548173ffffffffffffffffffffffffffffffffffffffff021916908373ffffffffffffffffffffffffffffffffffffffff1602179055508173ffffffffffffffffffffffffffffffffffffffff168173ffffffffffffffffffffffffffffffffffffffff167f8be0079c531659141344cd1fd0a4f28419497f9722a3daafe3b4186f6b6457e060405160405180910390a35050565b600080fd5b600073ffffffffffffffffffffffffffffffffffffffff82169050919050565b60006200019d8262000170565b9050919050565b620001af8162000190565b8114620001bb57600080fd5b50565b600081519050620001cf81620001a4565b92915050565b600060208284031215620001ee57620001ed6200016b565b5b6000620001fe84828501620001be565b91505092915050565b6117c980620002176000396000f3fe6080604052600436106100a05760003560e01c80635efaf044116100645780635efaf0441461017d578063715018a6146101a6578063737bb723146101bd5780638da5cb5b146101e6578063d22b46b514610211578063f2fde38b1461023c576100a7565b806314e59987146100a957806314e5e90e146100d4578063194d02d7146101115780632ac75ab51461014f5780633ccfd60b14610166576100a7565b366100a757005b005b3480156100b557600080fd5b506100be610265565b6040516100cb9190610f52565b60405180910390f35b3480156100e057600080fd5b506100fb60048036038101906100f69190610fdf565b61026d565b6040516101089190610f52565b60405180910390f35b34801561011d57600080fd5b5061013860048036038101906101339190611038565b610370565b604051610146929190611078565b60405180910390f35b34801561015b57600080fd5b50610164610428565b005b34801561017257600080fd5b5061017b610578565b005b34801561018957600080fd5b506101a4600480360381019061019f9190610fdf565b61063d565b005b3480156101b257600080fd5b506101bb610737565b005b3480156101c957600080fd5b506101e460048036038101906101df9190610fdf565b6107bf565b005b3480156101f257600080fd5b506101fb61087f565b60405161020891906110b0565b60405180910390f35b34801561021d57600080fd5b506102266108a8565b60405161023391906110b0565b60405180910390f35b34801561024857600080fd5b50610263600480360381019061025e9190610fdf565b6108ce565b005b600047905090565b60006102776109c6565b73ffffffffffffffffffffffffffffffffffffffff1661029561087f565b73ffffffffffffffffffffffffffffffffffffffff16146102eb576040517f08c379a00000000000000000000000000000000000000000000000000000000081526004016102e290611128565b60405180910390fd5b8173ffffffffffffffffffffffffffffffffffffffff166371f747906040518163ffffffff1660e01b815260040160206040518083038186803b15801561033157600080fd5b505afa158015610345573d6000803e3d6000fd5b505050506040513d601f19601f82011682018060405250810190610369919061115d565b9050919050565b60008060008310156103b7576040517f08c379a00000000000000000000000000000000000000000000000000000000081526004016103ae906111fc565b60405180910390fd5b600084116103fa576040517f08c379a00000000000000000000000000000000000000000000000000000000081526004016103f1906111fc565b60405180910390fd5b8284610406919061127a565b9150818361041491906112ab565b8461041f9190611305565b90509250929050565b6104306109c6565b73ffffffffffffffffffffffffffffffffffffffff1661044e61087f565b73ffffffffffffffffffffffffffffffffffffffff16146104a4576040517f08c379a000000000000000000000000000000000000000000000000000000000815260040161049b90611128565b60405180910390fd5b6104ac6109ce565b600390805190602001906104c1929190610e92565b5060006104ef600160009054906101000a900473ffffffffffffffffffffffffffffffffffffffff1661026d565b90506000600380549050826105049190611339565b90506000610510610a7a565b90507f274f2e5ea35472f60f411beb007713c0f1c1b574f260789eedee1789cd49d9f58247836040516105459392919061136a565b60405180910390a16105578247610a94565b506105628282610b9c565b61056a610c64565b610572610d14565b50505050565b6105806109c6565b73ffffffffffffffffffffffffffffffffffffffff1661059e61087f565b73ffffffffffffffffffffffffffffffffffffffff16146105f4576040517f08c379a00000000000000000000000000000000000000000000000000000000081526004016105eb90611128565b60405180910390fd5b3373ffffffffffffffffffffffffffffffffffffffff166108fc479081150290604051600060405180830381858888f1935050505015801561063a573d6000803e3d6000fd5b50565b6106456109c6565b73ffffffffffffffffffffffffffffffffffffffff1661066361087f565b73ffffffffffffffffffffffffffffffffffffffff16146106b9576040517f08c379a00000000000000000000000000000000000000000000000000000000081526004016106b090611128565b60405180910390fd5b600073ffffffffffffffffffffffffffffffffffffffff168173ffffffffffffffffffffffffffffffffffffffff1614156106f357600080fd5b80600460006101000a81548173ffffffffffffffffffffffffffffffffffffffff021916908373ffffffffffffffffffffffffffffffffffffffff16021790555050565b61073f6109c6565b73ffffffffffffffffffffffffffffffffffffffff1661075d61087f565b73ffffffffffffffffffffffffffffffffffffffff16146107b3576040517f08c379a00000000000000000000000000000000000000000000000000000000081526004016107aa90611128565b60405180910390fd5b6107bd6000610dce565b565b6107c76109c6565b73ffffffffffffffffffffffffffffffffffffffff166107e561087f565b73ffffffffffffffffffffffffffffffffffffffff161461083b576040517f08c379a000000000000000000000000000000000000000000000000000000000815260040161083290611128565b60405180910390fd5b80600260006101000a81548173ffffffffffffffffffffffffffffffffffffffff021916908373ffffffffffffffffffffffffffffffffffffffff16021790555050565b60008060009054906101000a900473ffffffffffffffffffffffffffffffffffffffff16905090565b600460009054906101000a900473ffffffffffffffffffffffffffffffffffffffff1681565b6108d66109c6565b73ffffffffffffffffffffffffffffffffffffffff166108f461087f565b73ffffffffffffffffffffffffffffffffffffffff161461094a576040517f08c379a000000000000000000000000000000000000000000000000000000000815260040161094190611128565b60405180910390fd5b600073ffffffffffffffffffffffffffffffffffffffff168173ffffffffffffffffffffffffffffffffffffffff1614156109ba576040517f08c379a00000000000000000000000000000000000000000000000000000000081526004016109b190611413565b60405180910390fd5b6109c381610dce565b50565b600033905090565b6060600260009054906101000a900473ffffffffffffffffffffffffffffffffffffffff1673ffffffffffffffffffffffffffffffffffffffff1663716e5a466040518163ffffffff1660e01b815260040160006040518083038186803b158015610a3857600080fd5b505afa158015610a4c573d6000803e3d6000fd5b505050506040513d6000823e3d601f19601f82011682018060405250810190610a7591906115a1565b905090565b600080479050610a8b816014610370565b50809250505090565b600080600060038581548110610aad57610aac6115ea565b5b9060005260206000200160009054906101000a900473ffffffffffffffffffffffffffffffffffffffff169050600260009054906101000a900473ffffffffffffffffffffffffffffffffffffffff1673ffffffffffffffffffffffffffffffffffffffff16637a1fa9e330868460036040518563ffffffff1660e01b8152600401610b3c949392919061166b565b602060405180830381600087803b158015610b5657600080fd5b505af1158015610b6a573d6000803e3d6000fd5b505050506040513d601f19601f82011682018060405250810190610b8e91906116e8565b915060019250505092915050565b600060038381548110610bb257610bb16115ea565b5b9060005260206000200160009054906101000a900473ffffffffffffffffffffffffffffffffffffffff1690508073ffffffffffffffffffffffffffffffffffffffff166108fc839081150290604051600060405180830381858888f19350505050158015610c25573d6000803e3d6000fd5b507f9b320e270eb528aa46b3a21b196f1da153ccb2d5637e892594474e969fe6b7a98183604051610c5792919061176a565b60405180910390a1505050565b6000600460009054906101000a900473ffffffffffffffffffffffffffffffffffffffff16905060004790508173ffffffffffffffffffffffffffffffffffffffff166108fc829081150290604051600060405180830381858888f19350505050158015610cd6573d6000803e3d6000fd5b507fd36f5f37e53a101e11e745c4b553773a94d17d9d7cec00640ac8331369a76d118282604051610d0892919061176a565b60405180910390a15050565b600080600260009054906101000a900473ffffffffffffffffffffffffffffffffffffffff1673ffffffffffffffffffffffffffffffffffffffff166332f655fd306040518263ffffffff1660e01b8152600401610d7291906110b0565b602060405180830381600087803b158015610d8c57600080fd5b505af1158015610da0573d6000803e3d6000fd5b505050506040513d601f19601f82011682018060405250810190610dc491906116e8565b9050600191505090565b60008060009054906101000a900473ffffffffffffffffffffffffffffffffffffffff169050816000806101000a81548173ffffffffffffffffffffffffffffffffffffffff021916908373ffffffffffffffffffffffffffffffffffffffff1602179055508173ffffffffffffffffffffffffffffffffffffffff168173ffffffffffffffffffffffffffffffffffffffff167f8be0079c531659141344cd1fd0a4f28419497f9722a3daafe3b4186f6b6457e060405160405180910390a35050565b828054828255906000526020600020908101928215610f0b579160200282015b82811115610f0a5782518260006101000a81548173ffffffffffffffffffffffffffffffffffffffff021916908373ffffffffffffffffffffffffffffffffffffffff16021790555091602001919060010190610eb2565b5b509050610f189190610f1c565b5090565b5b80821115610f35576000816000905550600101610f1d565b5090565b6000819050919050565b610f4c81610f39565b82525050565b6000602082019050610f676000830184610f43565b92915050565b6000604051905090565b600080fd5b600080fd5b600073ffffffffffffffffffffffffffffffffffffffff82169050919050565b6000610fac82610f81565b9050919050565b610fbc81610fa1565b8114610fc757600080fd5b50565b600081359050610fd981610fb3565b92915050565b600060208284031215610ff557610ff4610f77565b5b600061100384828501610fca565b91505092915050565b61101581610f39565b811461102057600080fd5b50565b6000813590506110328161100c565b92915050565b6000806040838503121561104f5761104e610f77565b5b600061105d85828601611023565b925050602061106e85828601611023565b9150509250929050565b600060408201905061108d6000830185610f43565b61109a6020830184610f43565b9392505050565b6110aa81610fa1565b82525050565b60006020820190506110c560008301846110a1565b92915050565b600082825260208201905092915050565b7f4f776e61626c653a2063616c6c6572206973206e6f7420746865206f776e6572600082015250565b60006111126020836110cb565b915061111d826110dc565b602082019050919050565b6000602082019050818103600083015261114181611105565b9050919050565b6000815190506111578161100c565b92915050565b60006020828403121561117357611172610f77565b5b600061118184828501611148565b91505092915050565b7f4469766973696f6e206973204e6f7420506f737369626c65202c20427567206960008201527f6e204e756d626572732021000000000000000000000000000000000000000000602082015250565b60006111e6602b836110cb565b91506111f18261118a565b604082019050919050565b60006020820190508181036000830152611215816111d9565b9050919050565b7f4e487b7100000000000000000000000000000000000000000000000000000000600052601260045260246000fd5b7f4e487b7100000000000000000000000000000000000000000000000000000000600052601160045260246000fd5b600061128582610f39565b915061129083610f39565b9250826112a05761129f61121c565b5b828204905092915050565b60006112b682610f39565b91506112c183610f39565b9250817fffffffffffffffffffffffffffffffffffffffffffffffffffffffffffffffff04831182151516156112fa576112f961124b565b5b828202905092915050565b600061131082610f39565b915061131b83610f39565b92508282101561132e5761132d61124b565b5b828203905092915050565b600061134482610f39565b915061134f83610f39565b92508261135f5761135e61121c565b5b828206905092915050565b600060608201905061137f6000830186610f43565b61138c6020830185610f43565b6113996040830184610f43565b949350505050565b7f4f776e61626c653a206e6577206f776e657220697320746865207a65726f206160008201527f6464726573730000000000000000000000000000000000000000000000000000602082015250565b60006113fd6026836110cb565b9150611408826113a1565b604082019050919050565b6000602082019050818103600083015261142c816113f0565b9050919050565b600080fd5b6000601f19601f8301169050919050565b7f4e487b7100000000000000000000000000000000000000000000000000000000600052604160045260246000fd5b61148182611438565b810181811067ffffffffffffffff821117156114a05761149f611449565b5b80604052505050565b60006114b3610f6d565b90506114bf8282611478565b919050565b600067ffffffffffffffff8211156114df576114de611449565b5b602082029050602081019050919050565b600080fd5b60008151905061150481610fb3565b92915050565b600061151d611518846114c4565b6114a9565b905080838252602082019050602084028301858111156115405761153f6114f0565b5b835b81811015611569578061155588826114f5565b845260208401935050602081019050611542565b5050509392505050565b600082601f83011261158857611587611433565b5b815161159884826020860161150a565b91505092915050565b6000602082840312156115b7576115b6610f77565b5b600082015167ffffffffffffffff8111156115d5576115d4610f7c565b5b6115e184828501611573565b91505092915050565b7f4e487b7100000000000000000000000000000000000000000000000000000000600052603260045260246000fd5b6000819050919050565b600060ff82169050919050565b6000819050919050565b600061165561165061164b84611619565b611630565b611623565b9050919050565b6116658161163a565b82525050565b600060808201905061168060008301876110a1565b61168d6020830186610f43565b61169a60408301856110a1565b6116a7606083018461165c565b95945050505050565b60008115159050919050565b6116c5816116b0565b81146116d057600080fd5b50565b6000815190506116e2816116bc565b92915050565b6000602082840312156116fe576116fd610f77565b5b600061170c848285016116d3565b91505092915050565b600061173061172b61172684610f81565b611630565b610f81565b9050919050565b600061174282611715565b9050919050565b600061175482611737565b9050919050565b61176481611749565b82525050565b600060408201905061177f600083018561175b565b61178c6020830184610f43565b939250505056fea2646970667358221220f64907f7650afd41bce55239b18af5f4ded9f60635d82ed73ca0bf11487002bc64736f6c63430008090033",
  "immutableReferences": {},
  "source": "// SPDX-License-Identifier: MIT\npragma solidity ^0.8.0;\n// pragma experimental ABIEncoderV2;\n\n/* ToDo : Use Ownable OpenZeppelin */\nimport \"@openzeppelin/contracts/access/Ownable.sol\";\nimport \"@openzeppelin/contracts/utils/math/SafeMath.sol\";\n\n// import \"./LotteryGenerator.sol\";\nimport \"./VRFv2Consumer.sol\";\nimport \"./VRFv2SubscriptionManager.sol\";\n\nimport \"./LotteryCore.sol\";\n\n// import \"truffle/Console.sol\";\n// import \"hardhat/console.sol\";\n\nimport \"./LotteryInterface.sol\";\n\n// interface IiilotteryGenerator {\n//     function WeeklyWinnersArray() external view returns (address[] memory);\n//     function setlotteryStructs(address _lotteryAddress, uint _totalBalance, address _winnerAddress, uint8 _lotteryType) external returns (bool);\n//     function clearWeeklyWinnersArrayMap(address _lotteryAddress) external returns (bool);\n// }\n\n\n/**\n************************************************************************************\n************************************************************************************\n*/\n\n/**\n************************************************************************************\n************************************************************************************\n**/\ncontract MonthlyLottery is Ownable {\n\n  address private _VRF;\n  address private generatorLotteryAddr;\n  \n  address[] private _WeeklyWinnersArray;\n  address public LiquidityPoolAddress;   \n\n  event SelectWinnerIndex(uint winnerIndex, uint potBalance, uint winnerPrize);\n  event SelectWinnerAddress(address potWinner, uint winnerPrize);\n  event TotalPayment(address receiver, uint TrxValue);\n\n  constructor(address VRF) {   // , address lOwner\n    _VRF = VRF;\n  }\n\n  fallback() external payable {\n  }\n  receive() external payable {\n  }\n\n  function balanceInPot() public view returns(uint){\n    return address(this).balance;\n  }\n\n  function withdraw() external onlyOwner {\n    payable(msg.sender).transfer(address(this).balance);\n  }\n\n  function getRandomValue(address _VRFv2) public view onlyOwner returns (uint256 randomWords) {\n    // uint8 zeroOne = uint8(randomGenerator() % 2);\n    randomWords = VRFv2Consumer(_VRFv2).getlRandomWords();\n  }\n\n  /* ToDo : Replace This function with OpenZeppelin SafeMath */\n  /**\n    * @notice Function for deviding two Integer Numbers and return the results.\n    * @dev Safe Function for Devision Operation.\n    * @param numerator : The Integer Number which is being devided on another Integer Number.\n    * @param denominator : The Integer Number which another Int NUmber is devided by this.  \n    * @return quotient and remainder of the Devision, Both are Integer Numbers. \n  */\n  function getDivided(uint numerator, uint denominator) public pure returns(uint quotient, uint remainder) {\n    require( denominator >= 0, \"Division is Not Possible , Bug in Numbers !\");\n    require( numerator > 0, \"Division is Not Possible , Bug in Numbers !\");\n    quotient  = numerator / denominator; \n    remainder = numerator - denominator * quotient;\n  }\n\n  function getWeeklyWinnersArray() internal view returns(address[] memory) {\n    return LotteryInterface(generatorLotteryAddr).WeeklyWinnersArray();\n  }\n\n  function select_Winner() public onlyOwner {  \n\n    _WeeklyWinnersArray = getWeeklyWinnersArray();  \n    uint256 l_randomWords = getRandomValue(_VRF);\n    uint winnerIndex = l_randomWords % _WeeklyWinnersArray.length;\n    uint winnerPrize = Calculation();\n    \n    emit SelectWinnerIndex(winnerIndex, address(this).balance, winnerPrize);\n    \n    UpdateLotteryData(winnerIndex, address(this).balance);\n    WinnerPrizePayment(winnerIndex, winnerPrize); \n    FinalPayment();\n    ClearDataBase();\n\n  }\n\n  /**\n    * @notice Release Smart Contract Memory .\n    * @dev Clear All Storages .\n  */\n  function ClearDataBase() internal returns (bool) {\n    bool _success;\n    _success = LotteryInterface(generatorLotteryAddr).clearWeeklyWinnersArrayMap(address(this));\n    return true;\n  }\n\n  /**\n    * @notice Calculation of Pot Winner Prize.\n    * @dev Findout the 5% of the Total Pot and The Winner payment.\n  */\n  function Calculation() internal view returns (uint winnerPrize){\n\n    uint totalPot = address(this).balance;\n    // _LotteryWinnersArray = getLotteryWinnersArray();  \n    // address WinnerAddress = _LotteryWinnersArray[_winnerIndex];\n    /* ToDo : Replace Calculation Parts with OpenZeppelin SafeMath ) */\n    (winnerPrize, ) = getDivided(totalPot, 20);  // winnerPrize\n\n  }\n\n  /**\n    * @notice Pay Pot Prize to the Winner.\n    * @dev Transfer Pot Prize to the Winner.\n  */\n  function WinnerPrizePayment(uint _winnerIndex, uint _winnerPrize) internal {\n\n    // _LotteryWinnersArray = getLotteryWinnersArray();  \n    address payable potWinner = payable(_WeeklyWinnersArray[_winnerIndex]);  \n    potWinner.transfer(_winnerPrize);\n    emit SelectWinnerAddress(potWinner, _winnerPrize);\n    // _LotteryWinnersArray[winnerIndex].transfer(address(this).balance);\n\n  }\n\n  /**\n    * @notice Remaining Pot Money Transfer.\n    * @dev Transfer remaining Money to the Liquidity Pool.\n  */\n  function FinalPayment() internal {   // onlyOwner \n\n    address payable receiver = payable(LiquidityPoolAddress);\n    uint TrxValue = address(this).balance;\n    receiver.transfer(TrxValue);\n    emit TotalPayment(receiver, TrxValue);\n\n  }\n\n  function set_LiquidityPoolAddress(address _LiquidityPoolAddress) external onlyOwner {\n    require(_LiquidityPoolAddress != address(0) );\n    LiquidityPoolAddress = _LiquidityPoolAddress;\n  }\n\n  /**\n    * @notice Save The Winner Address for Weekly Lottery\n    * @dev Update Generator Smart Contract For Saving Hourly Winner Address\n  */\n  function UpdateLotteryData(uint _winnerIndex, uint _balance) internal returns(bool) {\n    bool _success;\n    // uint _winnerId;\n    // _LotteryWinnersArray = getLotteryWinnersArray();  \n    address _winnerAddress = _WeeklyWinnersArray[_winnerIndex];\n    _success = LotteryInterface(generatorLotteryAddr).setlotteryStructs(address(this), _balance, _winnerAddress, 3);\n    // _winnerId = IiilotteryGenerator(generatorLotteryAddr).setWeeklyWinnersArrayMap(address(this), _winnerAddress);\n    return true;\n  }\n\n  function generatorLotteryAddress(address _contractAddr) external onlyOwner {\n    generatorLotteryAddr = _contractAddr;\n  }\n\n}\n\n/**\n************************************************************************************\n************************************************************************************\n*/\n\n\n",
  "sourcePath": "/home/batis/SrcCode/myPRJ/SmartContBlockChain/BSCLottery/contracts/MonthlyLottery.sol",
  "compiler": {
    "name": "solc",
    "version": "0.8.9+commit.e5eed63a.Emscripten.clang"
  },
  "schemaVersion": "3.4.3",
  "updatedAt": "2022-05-02T18:38:08.157Z",
  "devdoc": {
    "kind": "dev",
    "methods": {
      "getDivided(uint256,uint256)": {
        "details": "Safe Function for Devision Operation.",
        "params": {
          "denominator": ": The Integer Number which another Int NUmber is devided by this.  ",
          "numerator": ": The Integer Number which is being devided on another Integer Number."
        },
        "returns": {
          "quotient": "and remainder of the Devision, Both are Integer Numbers. "
        }
      },
      "owner()": {
        "details": "Returns the address of the current owner."
      },
      "renounceOwnership()": {
        "details": "Leaves the contract without owner. It will not be possible to call `onlyOwner` functions anymore. Can only be called by the current owner. NOTE: Renouncing ownership will leave the contract without an owner, thereby removing any functionality that is only available to the owner."
      },
      "transferOwnership(address)": {
        "details": "Transfers ownership of the contract to a new account (`newOwner`). Can only be called by the current owner."
      }
    },
    "version": 1
  },
  "userdoc": {
    "kind": "user",
    "methods": {
      "getDivided(uint256,uint256)": {
        "notice": "Function for deviding two Integer Numbers and return the results."
      }
    },
    "notice": "*************************************************************************************************************************************************************************",
    "version": 1
  }
}