{
  "contractName": "MultiSigWallet",
  "abi": [
    {
      "inputs": [
        {
          "internalType": "address[]",
          "name": "_owners",
          "type": "address[]"
        },
        {
          "internalType": "uint256",
          "name": "_numConfirmationsRequired",
          "type": "uint256"
        }
      ],
      "stateMutability": "nonpayable",
      "type": "constructor"
    },
    {
      "anonymous": false,
      "inputs": [
        {
          "indexed": true,
          "internalType": "address",
          "name": "owner",
          "type": "address"
        },
        {
          "indexed": true,
          "internalType": "uint256",
          "name": "txIndex",
          "type": "uint256"
        }
      ],
      "name": "ConfirmTransaction",
      "type": "event"
    },
    {
      "anonymous": false,
      "inputs": [
        {
          "indexed": true,
          "internalType": "address",
          "name": "sender",
          "type": "address"
        },
        {
          "indexed": false,
          "internalType": "uint256",
          "name": "amount",
          "type": "uint256"
        },
        {
          "indexed": false,
          "internalType": "uint256",
          "name": "balance",
          "type": "uint256"
        }
      ],
      "name": "Deposit",
      "type": "event"
    },
    {
      "anonymous": false,
      "inputs": [
        {
          "indexed": true,
          "internalType": "address",
          "name": "owner",
          "type": "address"
        },
        {
          "indexed": true,
          "internalType": "uint256",
          "name": "txIndex",
          "type": "uint256"
        }
      ],
      "name": "ExecuteTransaction",
      "type": "event"
    },
    {
      "anonymous": false,
      "inputs": [
        {
          "indexed": true,
          "internalType": "address",
          "name": "owner",
          "type": "address"
        },
        {
          "indexed": true,
          "internalType": "uint256",
          "name": "txIndex",
          "type": "uint256"
        }
      ],
      "name": "RevokeConfirmation",
      "type": "event"
    },
    {
      "anonymous": false,
      "inputs": [
        {
          "indexed": true,
          "internalType": "address",
          "name": "owner",
          "type": "address"
        },
        {
          "indexed": true,
          "internalType": "uint256",
          "name": "txIndex",
          "type": "uint256"
        },
        {
          "indexed": true,
          "internalType": "address",
          "name": "to",
          "type": "address"
        },
        {
          "indexed": false,
          "internalType": "uint256",
          "name": "value",
          "type": "uint256"
        },
        {
          "indexed": false,
          "internalType": "bytes",
          "name": "data",
          "type": "bytes"
        }
      ],
      "name": "SubmitTransaction",
      "type": "event"
    },
    {
      "inputs": [
        {
          "internalType": "uint256",
          "name": "",
          "type": "uint256"
        },
        {
          "internalType": "address",
          "name": "",
          "type": "address"
        }
      ],
      "name": "isConfirmed",
      "outputs": [
        {
          "internalType": "bool",
          "name": "",
          "type": "bool"
        }
      ],
      "stateMutability": "view",
      "type": "function"
    },
    {
      "inputs": [
        {
          "internalType": "address",
          "name": "",
          "type": "address"
        }
      ],
      "name": "isOwner",
      "outputs": [
        {
          "internalType": "bool",
          "name": "",
          "type": "bool"
        }
      ],
      "stateMutability": "view",
      "type": "function"
    },
    {
      "inputs": [],
      "name": "numConfirmationsRequired",
      "outputs": [
        {
          "internalType": "uint256",
          "name": "",
          "type": "uint256"
        }
      ],
      "stateMutability": "view",
      "type": "function"
    },
    {
      "inputs": [
        {
          "internalType": "uint256",
          "name": "",
          "type": "uint256"
        }
      ],
      "name": "owners",
      "outputs": [
        {
          "internalType": "address",
          "name": "",
          "type": "address"
        }
      ],
      "stateMutability": "view",
      "type": "function"
    },
    {
      "inputs": [
        {
          "internalType": "uint256",
          "name": "",
          "type": "uint256"
        }
      ],
      "name": "transactions",
      "outputs": [
        {
          "internalType": "address",
          "name": "to",
          "type": "address"
        },
        {
          "internalType": "uint256",
          "name": "value",
          "type": "uint256"
        },
        {
          "internalType": "bytes",
          "name": "data",
          "type": "bytes"
        },
        {
          "internalType": "bool",
          "name": "executed",
          "type": "bool"
        },
        {
          "internalType": "uint256",
          "name": "numConfirmations",
          "type": "uint256"
        },
        {
          "internalType": "bool",
          "name": "firstOwnerConfirm",
          "type": "bool"
        }
      ],
      "stateMutability": "view",
      "type": "function"
    },
    {
      "stateMutability": "payable",
      "type": "receive"
    },
    {
      "inputs": [
        {
          "internalType": "address",
          "name": "_to",
          "type": "address"
        },
        {
          "internalType": "uint256",
          "name": "_value",
          "type": "uint256"
        },
        {
          "internalType": "bytes",
          "name": "_data",
          "type": "bytes"
        }
      ],
      "name": "submitTransaction",
      "outputs": [],
      "stateMutability": "nonpayable",
      "type": "function"
    },
    {
      "inputs": [
        {
          "internalType": "uint256",
          "name": "_txIndex",
          "type": "uint256"
        }
      ],
      "name": "confirmTransaction",
      "outputs": [],
      "stateMutability": "nonpayable",
      "type": "function"
    },
    {
      "inputs": [
        {
          "internalType": "uint256",
          "name": "_txIndex",
          "type": "uint256"
        }
      ],
      "name": "executeTransaction",
      "outputs": [],
      "stateMutability": "nonpayable",
      "type": "function"
    },
    {
      "inputs": [
        {
          "internalType": "uint256",
          "name": "_txIndex",
          "type": "uint256"
        }
      ],
      "name": "revokeConfirmation",
      "outputs": [],
      "stateMutability": "nonpayable",
      "type": "function"
    },
    {
      "inputs": [],
      "name": "getOwners",
      "outputs": [
        {
          "internalType": "address[]",
          "name": "",
          "type": "address[]"
        }
      ],
      "stateMutability": "view",
      "type": "function"
    },
    {
      "inputs": [],
      "name": "getMainOwner",
      "outputs": [
        {
          "internalType": "address",
          "name": "",
          "type": "address"
        }
      ],
      "stateMutability": "view",
      "type": "function"
    },
    {
      "inputs": [],
      "name": "getTransactionCount",
      "outputs": [
        {
          "internalType": "uint256",
          "name": "",
          "type": "uint256"
        }
      ],
      "stateMutability": "view",
      "type": "function"
    },
    {
      "inputs": [
        {
          "internalType": "uint256",
          "name": "_txIndex",
          "type": "uint256"
        }
      ],
      "name": "getTransaction",
      "outputs": [
        {
          "internalType": "address",
          "name": "to",
          "type": "address"
        },
        {
          "internalType": "uint256",
          "name": "value",
          "type": "uint256"
        },
        {
          "internalType": "bytes",
          "name": "data",
          "type": "bytes"
        },
        {
          "internalType": "bool",
          "name": "executed",
          "type": "bool"
        },
        {
          "internalType": "uint256",
          "name": "numConfirmations",
          "type": "uint256"
        },
        {
          "internalType": "bool",
          "name": "firstOwnerConfirm",
          "type": "bool"
        }
      ],
      "stateMutability": "view",
      "type": "function"
    },
    {
      "inputs": [
        {
          "internalType": "uint256",
          "name": "_txIndex",
          "type": "uint256"
        },
        {
          "internalType": "address",
          "name": "_owner",
          "type": "address"
        }
      ],
      "name": "isConfirmedByAddress",
      "outputs": [
        {
          "internalType": "bool",
          "name": "",
          "type": "bool"
        }
      ],
      "stateMutability": "view",
      "type": "function"
    },
    {
      "inputs": [],
      "name": "deposit",
      "outputs": [],
      "stateMutability": "payable",
      "type": "function"
    },
    {
      "inputs": [],
      "name": "balanceInVault",
      "outputs": [
        {
          "internalType": "uint256",
          "name": "",
          "type": "uint256"
        }
      ],
      "stateMutability": "view",
      "type": "function"
    },
    {
      "inputs": [],
      "name": "close",
      "outputs": [],
      "stateMutability": "nonpayable",
      "type": "function"
    }
  ],
  "bytecode": "0x60806040523480156200001157600080fd5b5060405162001a3138038062001a3183398101604081905262000034916200030e565b60008251116200007d5760405162461bcd60e51b815260206004820152600f60248201526e1bdddb995c9cc81c995c5d5a5c9959608a1b60448201526064015b60405180910390fd5b6000811180156200008f575081518111155b620000ee5760405162461bcd60e51b815260206004820152602860248201527f696e76616c6964206e756d626572206f6620726571756972656420636f6e6669604482015267726d6174696f6e7360c01b606482015260840162000074565b600180546001600160a01b0319163317905560005b8251811015620002d0576000838281518110620001245762000124620003e8565b6020026020010151905060006001600160a01b0316816001600160a01b031603620001825760405162461bcd60e51b815260206004820152600d60248201526c34b73b30b634b21037bbb732b960991b604482015260640162000074565b6001600160a01b03811660009081526002602052604090205460ff1615620001e05760405162461bcd60e51b815260206004820152601060248201526f6f776e6572206e6f7420756e6971756560801b604482015260640162000074565b6001546001600160a01b0390811690821603620002595760405162461bcd60e51b815260206004820152603060248201527f6e6f6e65206f6620746865206f776e6572732063616e2062652074686520736160448201526f36b29030b9903334b939ba27bbb732b960811b606482015260840162000074565b6001600160a01b03166000818152600260205260408120805460ff19166001908117909155815490810182559080527f290decd9548b62a8d60345a988386fc84ba6bc95484008f6362f93160ef3e5630180546001600160a01b031916909117905580620002c781620003fe565b91505062000103565b506003555062000426565b634e487b7160e01b600052604160045260246000fd5b80516001600160a01b03811681146200030957600080fd5b919050565b600080604083850312156200032257600080fd5b82516001600160401b03808211156200033a57600080fd5b818501915085601f8301126200034f57600080fd5b8151602082821115620003665762000366620002db565b8160051b604051601f19603f830116810181811086821117156200038e576200038e620002db565b604052928352818301935084810182019289841115620003ad57600080fd5b948201945b83861015620003d657620003c686620002f1565b85529482019493820193620003b2565b97909101519698969750505050505050565b634e487b7160e01b600052603260045260246000fd5b6000600182016200041f57634e487b7160e01b600052601160045260246000fd5b5060010190565b6115fb80620004366000396000f3fe6080604052600436106101125760003560e01c80639ace38c2116100a5578063d0549b8511610074578063ee22610b11610059578063ee22610b1461034b578063fa3413d71461036b578063fced62481461038b57600080fd5b8063d0549b851461032d578063d0e30db01461034357600080fd5b80639ace38c2146102ab578063a0e67e2b146102cb578063c01a8c84146102ed578063c64274741461030d57600080fd5b806333ea3dc8116100e157806333ea3dc81461021657806343d726d614610248578063596252fc1461025d57806380f59a651461027057600080fd5b8063025e7c271461015857806320ea8d86146101955780632e7700f0146101b75780632f54bf6e146101d657600080fd5b36610153576040805134815247602082015233917f90890809c654f11d6e72a28fa60149770a0d11ec6c92319d6ceb2bb0a4ea1a15910160405180910390a2005b600080fd5b34801561016457600080fd5b5061017861017336600461122e565b6103a9565b6040516001600160a01b0390911681526020015b60405180910390f35b3480156101a157600080fd5b506101b56101b036600461122e565b6103d3565b005b3480156101c357600080fd5b506005545b60405190815260200161018c565b3480156101e257600080fd5b506102066101f1366004611263565b60026020526000908152604090205460ff1681565b604051901515815260200161018c565b34801561022257600080fd5b5061023661023136600461122e565b610681565b60405161018c969594939291906112d2565b34801561025457600080fd5b506101b5610788565b34801561026957600080fd5b50476101c8565b34801561027c57600080fd5b5061020661028b36600461131a565b600460209081526000928352604080842090915290825290205460ff1681565b3480156102b757600080fd5b506102366102c636600461122e565b6107f1565b3480156102d757600080fd5b506102e06108d3565b60405161018c9190611346565b3480156102f957600080fd5b506101b561030836600461122e565b610935565b34801561031957600080fd5b506101b56103283660046113a9565b610b94565b34801561033957600080fd5b506101c860035481565b6101b5610d93565b34801561035757600080fd5b506101b561036636600461122e565b610de6565b34801561037757600080fd5b5061020661038636600461131a565b611111565b34801561039757600080fd5b506001546001600160a01b0316610178565b600081815481106103b957600080fd5b6000918252602090912001546001600160a01b0316905081565b3360009081526002602052604090205460ff16806103fb57506001546001600160a01b031633145b61044c5760405162461bcd60e51b815260206004820152601660248201527f53656e646572206973206e6f7420616e204f776e65720000000000000000000060448201526064015b60405180910390fd5b600554819081106104935760405162461bcd60e51b81526020600482015260116024820152701d1e08191bd95cc81b9bdd08195e1a5cdd607a1b6044820152606401610443565b81600581815481106104a7576104a7611474565b600091825260209091206003600690920201015460ff161561050b5760405162461bcd60e51b815260206004820152601360248201527f747820616c7265616479206578656375746564000000000000000000000000006044820152606401610443565b60006005848154811061052057610520611474565b6000918252602090912060015460069092020191506001600160a01b031633036105a957600581015460ff166105985760405162461bcd60e51b815260206004820152601e60248201527f7478206e6f7420636f6e6669726d65642062792066697273744f776e657200006044820152606401610443565b60058101805460ff1916905561064e565b600084815260046020908152604080832033845290915290205460ff166106125760405162461bcd60e51b815260206004820152601060248201527f7478206e6f7420636f6e6669726d6564000000000000000000000000000000006044820152606401610443565b600181600401600082825461062791906114a0565b909155505060008481526004602090815260408083203384529091529020805460ff191690555b604051849033907ff0dca620e2e81f7841d07bcc105e1704fb01475b278a9d4c236e1c62945edd5590600090a350505050565b60008060606000806000806005888154811061069f5761069f611474565b60009182526020909120600690910201805460018201546003830154600484015460058501546002860180549697506001600160a01b039095169593949360ff938416939091169084906106f2906114b7565b80601f016020809104026020016040519081016040528092919081815260200182805461071e906114b7565b801561076b5780601f106107405761010080835404028352916020019161076b565b820191906000526020600020905b81548152906001019060200180831161074e57829003601f168201915b505050505093509650965096509650965096505091939550919395565b6001546001600160a01b031633146107e25760405162461bcd60e51b815260206004820152600f60248201527f6e6f74204669727374204f776e657200000000000000000000000000000000006044820152606401610443565b6001546001600160a01b031680ff5b6005818154811061080157600080fd5b60009182526020909120600690910201805460018201546002830180546001600160a01b039093169450909291610837906114b7565b80601f0160208091040260200160405190810160405280929190818152602001828054610863906114b7565b80156108b05780601f10610885576101008083540402835291602001916108b0565b820191906000526020600020905b81548152906001019060200180831161089357829003601f168201915b5050505060038301546004840154600590940154929360ff918216939092501686565b6060600080548060200260200160405190810160405280929190818152602001828054801561092b57602002820191906000526020600020905b81546001600160a01b0316815260019091019060200180831161090d575b5050505050905090565b3360009081526002602052604090205460ff168061095d57506001546001600160a01b031633145b6109a95760405162461bcd60e51b815260206004820152601660248201527f53656e646572206973206e6f7420616e204f776e6572000000000000000000006044820152606401610443565b600554819081106109f05760405162461bcd60e51b81526020600482015260116024820152701d1e08191bd95cc81b9bdd08195e1a5cdd607a1b6044820152606401610443565b8160058181548110610a0457610a04611474565b600091825260209091206003600690920201015460ff1615610a685760405162461bcd60e51b815260206004820152601360248201527f747820616c7265616479206578656375746564000000000000000000000000006044820152606401610443565b6000838152600460209081526040808320338452909152902054839060ff1615610ad45760405162461bcd60e51b815260206004820152601460248201527f747820616c726561647920636f6e6669726d65640000000000000000000000006044820152606401610443565b600060058581548110610ae957610ae9611474565b6000918252602090912060015460069092020191506001600160a01b03163303610b215760058101805460ff19166001179055610b60565b6001816004016000828254610b3691906114f1565b909155505060008581526004602090815260408083203384529091529020805460ff191660011790555b604051859033907f5cbe105e36805f7820e291f799d5794ff948af2a5f664e580382defb6339004190600090a35050505050565b3360009081526002602052604090205460ff1680610bbc57506001546001600160a01b031633145b610c085760405162461bcd60e51b815260206004820152601660248201527f53656e646572206973206e6f7420616e204f776e6572000000000000000000006044820152606401610443565b600580546040805160c0810182526001600160a01b03878116825260208083018881529383018781526000606085018190526080850181905260a085018190526001870188559690965282517f036b6384b5eca791c62761152d0c79bb0604c104a5fb6f4eb0703f3154bb3db06006870290810180547fffffffffffffffffffffffff0000000000000000000000000000000000000000169290941691909117835593517f036b6384b5eca791c62761152d0c79bb0604c104a5fb6f4eb0703f3154bb3db185015594518051949592949193610d0b937f036b6384b5eca791c62761152d0c79bb0604c104a5fb6f4eb0703f3154bb3db290910192910190611195565b50606082015160038201805491151560ff199283161790556080830151600483015560a09092015160059091018054911515919092161790556040516001600160a01b03851690829033907fd5a05bf70715ad82a09a756320284a1b54c9ff74cd0f8cce6219e79b563fe59d90610d859088908890611509565b60405180910390a450505050565b34600003610da057600080fd5b33610daa57600080fd5b6040805134815247602082015233917f90890809c654f11d6e72a28fa60149770a0d11ec6c92319d6ceb2bb0a4ea1a15910160405180910390a2565b3360009081526002602052604090205460ff1680610e0e57506001546001600160a01b031633145b610e5a5760405162461bcd60e51b815260206004820152601660248201527f53656e646572206973206e6f7420616e204f776e6572000000000000000000006044820152606401610443565b60055481908110610ea15760405162461bcd60e51b81526020600482015260116024820152701d1e08191bd95cc81b9bdd08195e1a5cdd607a1b6044820152606401610443565b8160058181548110610eb557610eb5611474565b600091825260209091206003600690920201015460ff1615610f195760405162461bcd60e51b815260206004820152601360248201527f747820616c7265616479206578656375746564000000000000000000000000006044820152606401610443565b600060058481548110610f2e57610f2e611474565b9060005260206000209060060201905060035481600401541015610f945760405162461bcd60e51b815260206004820152601160248201527f63616e6e6f7420657865637574652074780000000000000000000000000000006044820152606401610443565b600581015460ff1615156001146110135760405162461bcd60e51b815260206004820152602960248201527f4669727374204f776e657220686173206e6f7420636f6e6669726d656420746860448201527f69732054582079657400000000000000000000000000000000000000000000006064820152608401610443565b60038101805460ff191660019081179091558154908201546040516000926001600160a01b0316919061104a90600286019061152a565b60006040518083038185875af1925050503d8060008114611087576040519150601f19603f3d011682016040523d82523d6000602084013e61108c565b606091505b50509050806110dd5760405162461bcd60e51b815260206004820152600960248201527f7478206661696c656400000000000000000000000000000000000000000000006044820152606401610443565b604051859033907f5445f318f4f5fcfb66592e68e0cc5822aa15664039bd5f0ffde24c5a8142b1ac90600090a35050505050565b6000806000905060006005858154811061112d5761112d611474565b6000918252602090912060015460069092020191506001600160a01b039081169085160361116457600581015460ff16915061118d565b60008581526004602090815260408083206001600160a01b038816845290915290205460ff1691505b509392505050565b8280546111a1906114b7565b90600052602060002090601f0160209004810192826111c35760008555611209565b82601f106111dc57805160ff1916838001178555611209565b82800160010185558215611209579182015b828111156112095782518255916020019190600101906111ee565b50611215929150611219565b5090565b5b80821115611215576000815560010161121a565b60006020828403121561124057600080fd5b5035919050565b80356001600160a01b038116811461125e57600080fd5b919050565b60006020828403121561127557600080fd5b61127e82611247565b9392505050565b6000815180845260005b818110156112ab5760208185018101518683018201520161128f565b818111156112bd576000602083870101525b50601f01601f19169290920160200192915050565b6001600160a01b038716815285602082015260c0604082015260006112fa60c0830187611285565b9415156060830152506080810192909252151560a0909101529392505050565b6000806040838503121561132d57600080fd5b8235915061133d60208401611247565b90509250929050565b6020808252825182820181905260009190848201906040850190845b818110156113875783516001600160a01b031683529284019291840191600101611362565b50909695505050505050565b634e487b7160e01b600052604160045260246000fd5b6000806000606084860312156113be57600080fd5b6113c784611247565b925060208401359150604084013567ffffffffffffffff808211156113eb57600080fd5b818601915086601f8301126113ff57600080fd5b81358181111561141157611411611393565b604051601f8201601f19908116603f0116810190838211818310171561143957611439611393565b8160405282815289602084870101111561145257600080fd5b8260208601602083013760006020848301015280955050505050509250925092565b634e487b7160e01b600052603260045260246000fd5b634e487b7160e01b600052601160045260246000fd5b6000828210156114b2576114b261148a565b500390565b600181811c908216806114cb57607f821691505b6020821081036114eb57634e487b7160e01b600052602260045260246000fd5b50919050565b600082198211156115045761150461148a565b500190565b8281526040602082015260006115226040830184611285565b949350505050565b600080835481600182811c91508083168061154657607f831692505b6020808410820361156557634e487b7160e01b86526022600452602486fd5b818015611579576001811461158a576115b7565b60ff198616895284890196506115b7565b60008a81526020902060005b868110156115af5781548b820152908501908301611596565b505084890196505b50949897505050505050505056fea264697066735822122057670fe0d9d0e15354447fc5a3eb2729327ae83ea8ef279ee97ef484aa05f98864736f6c634300080d0033",
  "immutableReferences": {},
  "source": "// SPDX-License-Identifier: MIT\npragma solidity ^0.8.13;\n\ncontract MultiSigWallet {\n    event Deposit(address indexed sender, uint amount, uint balance);\n    event SubmitTransaction(address indexed owner, uint indexed txIndex, address indexed to, uint value, bytes data);\n    event ConfirmTransaction(address indexed owner, uint indexed txIndex);\n    event RevokeConfirmation(address indexed owner, uint indexed txIndex);\n    event ExecuteTransaction(address indexed owner, uint indexed txIndex);\n\n    address[] public owners;\n    address private firstOwner;\n    mapping(address => bool) public isOwner;\n    uint public numConfirmationsRequired;\n    //bool private firstOwnerConfirmation;\n\n    struct Transaction {\n        address to;\n        uint value;\n        bytes data;\n        bool executed;\n        uint numConfirmations;\n        bool firstOwnerConfirm;\n    }\n\n    // mapping from tx index => owner => bool\n    mapping(uint => mapping(address => bool)) public isConfirmed;\n\n    Transaction[] public transactions;\n\n    modifier onlyFirstOwner() {\n        require(msg.sender == firstOwner , \"not First Owner\");\n        _;\n    }\n\n    modifier onlyOwner() {\n        require((isOwner[msg.sender] || msg.sender == firstOwner), \"Sender is not an Owner\");\n        _;\n    }\n\n    modifier txExists(uint _txIndex) {\n        require(_txIndex < transactions.length, \"tx does not exist\");\n        _;\n    }\n\n    modifier notExecuted(uint _txIndex) {\n        require(!transactions[_txIndex].executed, \"tx already executed\");\n        _;\n    }\n\n    modifier notConfirmed(uint _txIndex) {\n        require(!isConfirmed[_txIndex][msg.sender], \"tx already confirmed\");\n        _;\n    }\n\n    constructor(address[] memory _owners, uint _numConfirmationsRequired) {\n        require(_owners.length > 0, \"owners required\");\n        require(\n            _numConfirmationsRequired > 0 &&\n                _numConfirmationsRequired <= _owners.length,\n            \"invalid number of required confirmations\"\n        );\n\n        firstOwner =  msg.sender;\n\n        for (uint i = 0; i < _owners.length; i++) {\n            address owner = _owners[i];\n\n            require(owner != address(0), \"invalid owner\");\n            require(!isOwner[owner], \"owner not unique\");\n            require(owner != firstOwner, \"none of the owners can be the same as firstOwner\");\n\n            isOwner[owner] = true;\n            owners.push(owner);\n        }\n\n        numConfirmationsRequired = _numConfirmationsRequired;\n    }\n\n    receive() external payable {\n        emit Deposit(msg.sender, msg.value, address(this).balance);\n    }\n\n    function submitTransaction(\n        address _to,\n        uint _value,\n        bytes memory _data\n    ) public onlyOwner {\n        uint txIndex = transactions.length;\n\n        transactions.push(\n            Transaction({\n                to: _to,\n                value: _value,\n                data: _data,\n                executed: false,\n                numConfirmations: 0,\n                firstOwnerConfirm: false\n            })\n        );\n\n        emit SubmitTransaction(msg.sender, txIndex, _to, _value, _data);\n    }\n\n    function confirmTransaction(uint _txIndex)\n        public\n        onlyOwner\n        txExists(_txIndex)\n        notExecuted(_txIndex)\n        notConfirmed(_txIndex)\n    {\n        Transaction storage transaction = transactions[_txIndex];\n        if (msg.sender == firstOwner) {\n            transaction.firstOwnerConfirm = true;\n        } else {\n            transaction.numConfirmations += 1;\n            isConfirmed[_txIndex][msg.sender] = true;\n        }\n\n        emit ConfirmTransaction(msg.sender, _txIndex);\n    }\n\n    function executeTransaction(uint _txIndex)\n        public\n        onlyOwner\n        txExists(_txIndex)\n        notExecuted(_txIndex)\n    {\n        Transaction storage transaction = transactions[_txIndex];\n\n        require(transaction.numConfirmations >= numConfirmationsRequired, \"cannot execute tx\");\n        require(transaction.firstOwnerConfirm == true, \"First Owner has not confirmed this TX yet\");\n\n        transaction.executed = true;\n\n        (bool success, ) = transaction.to.call{value: transaction.value}(transaction.data);\n        require(success, \"tx failed\");\n\n        emit ExecuteTransaction(msg.sender, _txIndex);\n    }\n\n    function revokeConfirmation(uint _txIndex)\n        public\n        onlyOwner\n        txExists(_txIndex)\n        notExecuted(_txIndex)\n    {\n        Transaction storage transaction = transactions[_txIndex];\n\n        if (msg.sender == firstOwner) {\n            require(transaction.firstOwnerConfirm, \"tx not confirmed by firstOwner\");\n            transaction.firstOwnerConfirm = false;\n        } else {\n            require(isConfirmed[_txIndex][msg.sender], \"tx not confirmed\");\n            transaction.numConfirmations -= 1;\n            isConfirmed[_txIndex][msg.sender] = false;\n        }\n\n        emit RevokeConfirmation(msg.sender, _txIndex);\n    }\n\n    function getOwners() public view returns (address[] memory) {\n        return owners;\n    }\n\n    function getMainOwner() public view returns (address) {\n        return firstOwner;\n    }\n\n    function getTransactionCount() public view returns (uint) {\n        return transactions.length;\n    }\n\n    function getTransaction(uint _txIndex)\n        public\n        view\n        returns (\n            address to,\n            uint value,\n            bytes memory data,\n            bool executed,\n            uint numConfirmations,\n            bool firstOwnerConfirm\n        )\n    {\n        Transaction storage transaction = transactions[_txIndex];\n\n        return (\n            transaction.to,\n            transaction.value,\n            transaction.data,\n            transaction.executed,\n            transaction.numConfirmations,\n            transaction.firstOwnerConfirm\n        );\n    }\n\n    function isConfirmedByAddress(uint _txIndex, address _owner)\n        public\n        view\n        returns (bool)\n    {\n        bool returnValue = false;\n        Transaction storage transaction = transactions[_txIndex];\n\n        if (_owner == firstOwner) {\n            returnValue = transaction.firstOwnerConfirm;\n        } else {\n            returnValue = isConfirmed[_txIndex][_owner];\n        }\n\n        return returnValue;\n    }\n\n    function deposit() public payable{\n        require(msg.value != 0);\n        require(msg.sender != address(0));\n        // address(this).balance += msg.value;\n        emit Deposit(msg.sender, msg.value, address(this).balance);\n    }\n\n    function balanceInVault() public view returns(uint){\n        return address(this).balance;\n    }\n\n    function close() public onlyFirstOwner { \n        address payable addr = payable(address(firstOwner));\n        selfdestruct(addr); \n    }\n\n}\n",
  "sourcePath": "/home/batis/SrcCode/myPRJ/SmartContBlockChain/BSCLottery/contracts/LotteryMultiSigWallet.sol",
  "compiler": {
    "name": "solc",
    "version": "0.8.13+commit.abaa5c0e.Emscripten.clang"
  },
  "schemaVersion": "3.4.8",
  "updatedAt": "2022-07-30T19:14:55.986Z",
  "devdoc": {
    "kind": "dev",
    "methods": {},
    "version": 1
  },
  "userdoc": {
    "kind": "user",
    "methods": {},
    "version": 1
  }
}