{
  "contractName": "VRFv2Consumer",
  "abi": [
    {
      "inputs": [
        {
          "internalType": "uint64",
          "name": "subscriptionId",
          "type": "uint64"
        }
      ],
      "stateMutability": "nonpayable",
      "type": "constructor"
    },
    {
      "inputs": [
        {
          "internalType": "address",
          "name": "have",
          "type": "address"
        },
        {
          "internalType": "address",
          "name": "want",
          "type": "address"
        }
      ],
      "name": "OnlyCoordinatorCanFulfill",
      "type": "error"
    },
    {
      "inputs": [
        {
          "internalType": "uint256",
          "name": "requestId",
          "type": "uint256"
        },
        {
          "internalType": "uint256[]",
          "name": "randomWords",
          "type": "uint256[]"
        }
      ],
      "name": "rawFulfillRandomWords",
      "outputs": [],
      "stateMutability": "nonpayable",
      "type": "function"
    },
    {
      "inputs": [
        {
          "internalType": "uint256",
          "name": "",
          "type": "uint256"
        }
      ],
      "name": "s_randomWords",
      "outputs": [
        {
          "internalType": "uint256",
          "name": "",
          "type": "uint256"
        }
      ],
      "stateMutability": "view",
      "type": "function"
    },
    {
      "inputs": [],
      "name": "s_requestId",
      "outputs": [
        {
          "internalType": "uint256",
          "name": "",
          "type": "uint256"
        }
      ],
      "stateMutability": "view",
      "type": "function"
    },
    {
      "inputs": [],
      "name": "requestRandomWords",
      "outputs": [],
      "stateMutability": "nonpayable",
      "type": "function"
    },
    {
      "inputs": [],
      "name": "getlRandomWords",
      "outputs": [
        {
          "internalType": "uint256",
          "name": "",
          "type": "uint256"
        }
      ],
      "stateMutability": "view",
      "type": "function"
    }
  ],
  "bytecode": "0x60a0604052600280546001600160a01b0319908116736a2aad07396b36fe02a22b33cf443582f682c82f17909155600380549091167384b9b910527ad5c03a9ca831909e21e236ea7b061790557fd4bb89654db74673a187bd804519e65e3f71a52bc55f11da7601a13dcf5053146004556005805466010003000186a06001600160501b031990911617905534801561009757600080fd5b506040516106263803806106268339810160408190526100b69161011c565b6002546001600160a01b039081166080819052600080546001600160a01b03199081169092179055600354600180546008805490941633179093556001600160401b03909416600160a01b026001600160e01b031990921692169190911717905561014c565b60006020828403121561012e57600080fd5b81516001600160401b038116811461014557600080fd5b9392505050565b6080516104b961016d6000396000818160d7015261013f01526104b96000f3fe608060405234801561001057600080fd5b50600436106100675760003560e01c8063e0c8628911610050578063e0c862891461009b578063e89e106a146100a3578063f6eaffc8146100ac57600080fd5b80631fe543e31461006c57806371f7479014610081575b600080fd5b61007f61007a366004610371565b6100bf565b005b61008961017e565b60405190815260200160405180910390f35b61007f6101a4565b61008960075481565b6100896100ba36600461043b565b6102c2565b3373ffffffffffffffffffffffffffffffffffffffff7f00000000000000000000000000000000000000000000000000000000000000001614610170576040517f1cf993f400000000000000000000000000000000000000000000000000000000815233600482015273ffffffffffffffffffffffffffffffffffffffff7f000000000000000000000000000000000000000000000000000000000000000016602482015260440160405180910390fd5b61017a82826102e3565b5050565b6000600660008154811061019457610194610454565b9060005260206000200154905090565b60085473ffffffffffffffffffffffffffffffffffffffff1633146101c857600080fd5b600054600480546001546005546040517f5d3b1d300000000000000000000000000000000000000000000000000000000081529384019290925274010000000000000000000000000000000000000000900467ffffffffffffffff166024830152640100000000810461ffff16604483015263ffffffff8082166064840152660100000000000090910416608482015273ffffffffffffffffffffffffffffffffffffffff90911690635d3b1d309060a4016020604051808303816000875af1158015610299573d6000803e3d6000fd5b505050506040513d601f19601f820116820180604052508101906102bd919061046a565b600755565b600681815481106102d257600080fd5b600091825260209091200154905081565b80516102f69060069060208401906102fb565b505050565b828054828255906000526020600020908101928215610336579160200282015b8281111561033657825182559160200191906001019061031b565b50610342929150610346565b5090565b5b808211156103425760008155600101610347565b634e487b7160e01b600052604160045260246000fd5b6000806040838503121561038457600080fd5b8235915060208084013567ffffffffffffffff808211156103a457600080fd5b818601915086601f8301126103b857600080fd5b8135818111156103ca576103ca61035b565b8060051b604051601f19603f830116810181811085821117156103ef576103ef61035b565b60405291825284820192508381018501918983111561040d57600080fd5b938501935b8285101561042b57843584529385019392850192610412565b8096505050505050509250929050565b60006020828403121561044d57600080fd5b5035919050565b634e487b7160e01b600052603260045260246000fd5b60006020828403121561047c57600080fd5b505191905056fea2646970667358221220f5a8be87733d572784fc739b7d80a521e7c58ebfb0757331bc9bdd9a095ed5dd64736f6c634300080d0033",
  "immutableReferences": {
    "10": [
      {
        "length": 32,
        "start": 215
      },
      {
        "length": 32,
        "start": 319
      }
    ]
  },
  "source": "// SPDX-License-Identifier: MIT\n// An example of a consumer contract that relies on a subscription for funding.\npragma solidity ^0.8.7;\n\nimport \"@chainlink/contracts/src/v0.8/interfaces/LinkTokenInterface.sol\";\nimport \"@chainlink/contracts/src/v0.8/interfaces/VRFCoordinatorV2Interface.sol\";\nimport \"@chainlink/contracts/src/v0.8/VRFConsumerBaseV2.sol\";\n\ncontract VRFv2Consumer is VRFConsumerBaseV2 {\n  VRFCoordinatorV2Interface COORDINATOR;\n  LinkTokenInterface LINKTOKEN;\n\n  // Your subscription ID.\n  uint64 s_subscriptionId;\n\n  // Rinkeby coordinator. For other networks,\n  // see https://docs.chain.link/docs/vrf-contracts/#configurations\n  // address vrfCoordinator = 0x6168499c0cFfCaCD319c818142124B7A15E857ab;  // Rinkeby\n\n  // Rinkeby LINK token contract. For other networks,\n  // see https://docs.chain.link/docs/vrf-contracts/#configurations\n  // address link = 0x01BE23585060835E02B77ef475b0Cc51aA1e0709;  // Rinkeby\n\n  // The gas lane to use, which specifies the maximum gas price to bump to.\n  // For a list of available gas lanes on each network,\n  // see https://docs.chain.link/docs/vrf-contracts/#configurations\n  // bytes32 keyHash = 0xd89b2bf150e3b9e13446986e571fb9cab24b13cea0a43ea20a6049a85cc807cc;  // Rinkeby\n\n  address vrfCoordinator = 0x6A2AAd07396B36Fe02a22b33cf443582f682c82f;  // BSC TestNet coordinator\n  address link = 0x84b9B910527Ad5C03A9Ca831909E21e236EA7b06;  //  BSC TestNet LINK token\n  bytes32 keyHash = 0xd4bb89654db74673a187bd804519e65e3f71a52bc55f11da7601a13dcf505314;  //  BSC TestNet keyhash\n\n\n  // Depends on the number of requested values that you want sent to the\n  // fulfillRandomWords() function. Storing each word costs about 20,000 gas,\n  // so 100,000 is a safe default for this example contract. Test and adjust\n  // this limit based on the network that you select, the size of the request,\n  // and the processing of the callback request in the fulfillRandomWords()\n  // function.\n  uint32 callbackGasLimit = 100000;\n\n  // The default is 3, but you can set this higher.\n  uint16 requestConfirmations = 3;\n\n  // For this example, retrieve 2 random values in one request.\n  // Cannot exceed VRFCoordinatorV2.MAX_NUM_WORDS.\n  uint32 numWords =  1;\n\n  uint256[] public s_randomWords;\n  uint256 public s_requestId;\n  address s_owner;\n\n  constructor(uint64 subscriptionId) VRFConsumerBaseV2(vrfCoordinator) {\n    COORDINATOR = VRFCoordinatorV2Interface(vrfCoordinator);\n    LINKTOKEN = LinkTokenInterface(link);\n    s_owner = msg.sender;\n    s_subscriptionId = subscriptionId;\n  }\n\n  // Assumes the subscription is funded sufficiently.\n  function requestRandomWords() external onlyOwner {\n    // Will revert if subscription is not set and funded.\n    s_requestId = COORDINATOR.requestRandomWords(\n      keyHash,\n      s_subscriptionId,\n      requestConfirmations,\n      callbackGasLimit,\n      numWords\n    );\n  }\n  \n  function fulfillRandomWords(\n    uint256, /* requestId */\n    uint256[] memory randomWords\n  ) internal override {\n    s_randomWords = randomWords;\n  }\n\n  modifier onlyOwner() {\n    require(msg.sender == s_owner);\n    _;\n  }\n  \n  function getlRandomWords() external view returns (uint256) {\n     return s_randomWords[0];\n  }\n\n}\n\n",
  "sourcePath": "/home/batis/SrcCode/myPRJ/SmartContBlockChain/BSCLottery/contracts/VRFv2Consumer.sol",
  "compiler": {
    "name": "solc",
    "version": "0.8.13+commit.abaa5c0e.Emscripten.clang"
  },
  "schemaVersion": "3.4.3",
  "updatedAt": "2022-07-05T16:37:33.045Z",
  "devdoc": {
    "kind": "dev",
    "methods": {},
    "version": 1
  },
  "userdoc": {
    "kind": "user",
    "methods": {},
    "version": 1
  }
}