{
  "contractName": "VRFv2SubscriptionManager",
  "abi": [
    {
      "inputs": [],
      "stateMutability": "nonpayable",
      "type": "constructor"
    },
    {
      "inputs": [
        {
          "internalType": "address",
          "name": "have",
          "type": "address"
        },
        {
          "internalType": "address",
          "name": "want",
          "type": "address"
        }
      ],
      "name": "OnlyCoordinatorCanFulfill",
      "type": "error"
    },
    {
      "inputs": [
        {
          "internalType": "uint256",
          "name": "requestId",
          "type": "uint256"
        },
        {
          "internalType": "uint256[]",
          "name": "randomWords",
          "type": "uint256[]"
        }
      ],
      "name": "rawFulfillRandomWords",
      "outputs": [],
      "stateMutability": "nonpayable",
      "type": "function"
    },
    {
      "inputs": [
        {
          "internalType": "uint256",
          "name": "",
          "type": "uint256"
        }
      ],
      "name": "s_randomWords",
      "outputs": [
        {
          "internalType": "uint256",
          "name": "",
          "type": "uint256"
        }
      ],
      "stateMutability": "view",
      "type": "function"
    },
    {
      "inputs": [],
      "name": "s_requestId",
      "outputs": [
        {
          "internalType": "uint256",
          "name": "",
          "type": "uint256"
        }
      ],
      "stateMutability": "view",
      "type": "function"
    },
    {
      "inputs": [],
      "name": "s_subscriptionId",
      "outputs": [
        {
          "internalType": "uint64",
          "name": "",
          "type": "uint64"
        }
      ],
      "stateMutability": "view",
      "type": "function"
    },
    {
      "inputs": [],
      "name": "requestRandomWords",
      "outputs": [],
      "stateMutability": "nonpayable",
      "type": "function"
    },
    {
      "inputs": [
        {
          "internalType": "uint256",
          "name": "amount",
          "type": "uint256"
        }
      ],
      "name": "topUpSubscription",
      "outputs": [],
      "stateMutability": "nonpayable",
      "type": "function"
    },
    {
      "inputs": [
        {
          "internalType": "address",
          "name": "consumerAddress",
          "type": "address"
        }
      ],
      "name": "addConsumer",
      "outputs": [],
      "stateMutability": "nonpayable",
      "type": "function"
    },
    {
      "inputs": [
        {
          "internalType": "address",
          "name": "consumerAddress",
          "type": "address"
        }
      ],
      "name": "removeConsumer",
      "outputs": [],
      "stateMutability": "nonpayable",
      "type": "function"
    },
    {
      "inputs": [
        {
          "internalType": "address",
          "name": "receivingWallet",
          "type": "address"
        }
      ],
      "name": "cancelSubscription",
      "outputs": [],
      "stateMutability": "nonpayable",
      "type": "function"
    },
    {
      "inputs": [
        {
          "internalType": "uint256",
          "name": "amount",
          "type": "uint256"
        },
        {
          "internalType": "address",
          "name": "to",
          "type": "address"
        }
      ],
      "name": "withdraw",
      "outputs": [],
      "stateMutability": "nonpayable",
      "type": "function"
    }
  ],
  "bytecode": "0x60a0604052736a2aad07396b36fe02a22b33cf443582f682c82f600260006101000a81548173ffffffffffffffffffffffffffffffffffffffff021916908373ffffffffffffffffffffffffffffffffffffffff1602179055507384b9b910527ad5c03a9ca831909e21e236ea7b06600360006101000a81548173ffffffffffffffffffffffffffffffffffffffff021916908373ffffffffffffffffffffffffffffffffffffffff1602179055507fd4bb89654db74673a187bd804519e65e3f71a52bc55f11da7601a13dcf50531460001b600455620186a0600560006101000a81548163ffffffff021916908363ffffffff1602179055506003600560046101000a81548161ffff021916908361ffff1602179055506002600560066101000a81548163ffffffff021916908363ffffffff1602179055503480156200014657600080fd5b50600260009054906101000a900473ffffffffffffffffffffffffffffffffffffffff168073ffffffffffffffffffffffffffffffffffffffff1660808173ffffffffffffffffffffffffffffffffffffffff168152505050600260009054906101000a900473ffffffffffffffffffffffffffffffffffffffff166000806101000a81548173ffffffffffffffffffffffffffffffffffffffff021916908373ffffffffffffffffffffffffffffffffffffffff160217905550600360009054906101000a900473ffffffffffffffffffffffffffffffffffffffff16600160006101000a81548173ffffffffffffffffffffffffffffffffffffffff021916908373ffffffffffffffffffffffffffffffffffffffff160217905550336008806101000a81548173ffffffffffffffffffffffffffffffffffffffff021916908373ffffffffffffffffffffffffffffffffffffffff160217905550620002b4620002ba60201b60201c565b620006a8565b60088054906101000a900473ffffffffffffffffffffffffffffffffffffffff1673ffffffffffffffffffffffffffffffffffffffff163373ffffffffffffffffffffffffffffffffffffffff16146200031357600080fd5b6000600167ffffffffffffffff8111156200033357620003326200054b565b5b604051908082528060200260200182016040528015620003625781602001602082028036833780820191505090505b50905030816000815181106200037d576200037c6200057a565b5b602002602001019073ffffffffffffffffffffffffffffffffffffffff16908173ffffffffffffffffffffffffffffffffffffffff168152505060008054906101000a900473ffffffffffffffffffffffffffffffffffffffff1673ffffffffffffffffffffffffffffffffffffffff1663a21a23e46040518163ffffffff1660e01b8152600401602060405180830381600087803b1580156200042057600080fd5b505af115801562000435573d6000803e3d6000fd5b505050506040513d601f19601f820116820180604052508101906200045b9190620005f3565b600860006101000a81548167ffffffffffffffff021916908367ffffffffffffffff16021790555060008054906101000a900473ffffffffffffffffffffffffffffffffffffffff1673ffffffffffffffffffffffffffffffffffffffff16637341c10c600860009054906101000a900467ffffffffffffffff1683600081518110620004ed57620004ec6200057a565b5b60200260200101516040518363ffffffff1660e01b8152600401620005149291906200067b565b600060405180830381600087803b1580156200052f57600080fd5b505af115801562000544573d6000803e3d6000fd5b5050505050565b7f4e487b7100000000000000000000000000000000000000000000000000000000600052604160045260246000fd5b7f4e487b7100000000000000000000000000000000000000000000000000000000600052603260045260246000fd5b600080fd5b600067ffffffffffffffff82169050919050565b620005cd81620005ae565b8114620005d957600080fd5b50565b600081519050620005ed81620005c2565b92915050565b6000602082840312156200060c576200060b620005a9565b5b60006200061c84828501620005dc565b91505092915050565b6200063081620005ae565b82525050565b600073ffffffffffffffffffffffffffffffffffffffff82169050919050565b6000620006638262000636565b9050919050565b620006758162000656565b82525050565b600060408201905062000692600083018562000625565b620006a160208301846200066a565b9392505050565b60805161106e620006cb600039600081816104ca015261051e015261106e6000f3fe608060405234801561001057600080fd5b506004361061009d5760003560e01c80638ac00021116100665780638ac000211461012e57806393d81d581461014c578063e0c8628914610168578063e89e106a14610172578063f6eaffc8146101905761009d565b8062f714ce146100a25780630e27e3df146100be578063112940f9146100da5780631fe543e3146100f657806386850e9314610112575b600080fd5b6100bc60048036038101906100b79190610ae2565b6101c0565b005b6100d860048036038101906100d39190610b22565b6102cc565b005b6100f460048036038101906100ef9190610b22565b6103ca565b005b610110600480360381019061010b9190610ca8565b6104c8565b005b61012c60048036038101906101279190610d04565b610588565b005b6101366106ea565b6040516101439190610d54565b60405180910390f35b61016660048036038101906101619190610b22565b610704565b005b61017061082c565b005b61017a61098b565b6040516101879190610d7e565b60405180910390f35b6101aa60048036038101906101a59190610d04565b610991565b6040516101b79190610d7e565b60405180910390f35b60088054906101000a900473ffffffffffffffffffffffffffffffffffffffff1673ffffffffffffffffffffffffffffffffffffffff163373ffffffffffffffffffffffffffffffffffffffff161461021857600080fd5b600160009054906101000a900473ffffffffffffffffffffffffffffffffffffffff1673ffffffffffffffffffffffffffffffffffffffff1663a9059cbb82846040518363ffffffff1660e01b8152600401610275929190610da8565b602060405180830381600087803b15801561028f57600080fd5b505af11580156102a3573d6000803e3d6000fd5b505050506040513d601f19601f820116820180604052508101906102c79190610e09565b505050565b60088054906101000a900473ffffffffffffffffffffffffffffffffffffffff1673ffffffffffffffffffffffffffffffffffffffff163373ffffffffffffffffffffffffffffffffffffffff161461032457600080fd5b60008054906101000a900473ffffffffffffffffffffffffffffffffffffffff1673ffffffffffffffffffffffffffffffffffffffff16639f87fad7600860009054906101000a900467ffffffffffffffff16836040518363ffffffff1660e01b8152600401610395929190610e36565b600060405180830381600087803b1580156103af57600080fd5b505af11580156103c3573d6000803e3d6000fd5b5050505050565b60088054906101000a900473ffffffffffffffffffffffffffffffffffffffff1673ffffffffffffffffffffffffffffffffffffffff163373ffffffffffffffffffffffffffffffffffffffff161461042257600080fd5b60008054906101000a900473ffffffffffffffffffffffffffffffffffffffff1673ffffffffffffffffffffffffffffffffffffffff16637341c10c600860009054906101000a900467ffffffffffffffff16836040518363ffffffff1660e01b8152600401610493929190610e36565b600060405180830381600087803b1580156104ad57600080fd5b505af11580156104c1573d6000803e3d6000fd5b5050505050565b7f000000000000000000000000000000000000000000000000000000000000000073ffffffffffffffffffffffffffffffffffffffff163373ffffffffffffffffffffffffffffffffffffffff161461057a57337f00000000000000000000000000000000000000000000000000000000000000006040517f1cf993f4000000000000000000000000000000000000000000000000000000008152600401610571929190610e5f565b60405180910390fd5b61058482826109b5565b5050565b60088054906101000a900473ffffffffffffffffffffffffffffffffffffffff1673ffffffffffffffffffffffffffffffffffffffff163373ffffffffffffffffffffffffffffffffffffffff16146105e057600080fd5b600160009054906101000a900473ffffffffffffffffffffffffffffffffffffffff1673ffffffffffffffffffffffffffffffffffffffff16634000aea060008054906101000a900473ffffffffffffffffffffffffffffffffffffffff1683600860009054906101000a900467ffffffffffffffff166040516020016106679190610d54565b6040516020818303038152906040526040518463ffffffff1660e01b815260040161069493929190610f10565b602060405180830381600087803b1580156106ae57600080fd5b505af11580156106c2573d6000803e3d6000fd5b505050506040513d601f19601f820116820180604052508101906106e69190610e09565b5050565b600860009054906101000a900467ffffffffffffffff1681565b60088054906101000a900473ffffffffffffffffffffffffffffffffffffffff1673ffffffffffffffffffffffffffffffffffffffff163373ffffffffffffffffffffffffffffffffffffffff161461075c57600080fd5b60008054906101000a900473ffffffffffffffffffffffffffffffffffffffff1673ffffffffffffffffffffffffffffffffffffffff1663d7ae1d30600860009054906101000a900467ffffffffffffffff16836040518363ffffffff1660e01b81526004016107cd929190610e36565b600060405180830381600087803b1580156107e757600080fd5b505af11580156107fb573d6000803e3d6000fd5b505050506000600860006101000a81548167ffffffffffffffff021916908367ffffffffffffffff16021790555050565b60088054906101000a900473ffffffffffffffffffffffffffffffffffffffff1673ffffffffffffffffffffffffffffffffffffffff163373ffffffffffffffffffffffffffffffffffffffff161461088457600080fd5b60008054906101000a900473ffffffffffffffffffffffffffffffffffffffff1673ffffffffffffffffffffffffffffffffffffffff16635d3b1d30600454600860009054906101000a900467ffffffffffffffff16600560049054906101000a900461ffff16600560009054906101000a900463ffffffff16600560069054906101000a900463ffffffff166040518663ffffffff1660e01b8152600401610931959493929190610fa3565b602060405180830381600087803b15801561094b57600080fd5b505af115801561095f573d6000803e3d6000fd5b505050506040513d601f19601f82011682018060405250810190610983919061100b565b600781905550565b60075481565b600681815481106109a157600080fd5b906000526020600020016000915090505481565b80600690805190602001906109cb9291906109d0565b505050565b828054828255906000526020600020908101928215610a0c579160200282015b82811115610a0b5782518255916020019190600101906109f0565b5b509050610a199190610a1d565b5090565b5b80821115610a36576000816000905550600101610a1e565b5090565b6000604051905090565b600080fd5b600080fd5b6000819050919050565b610a6181610a4e565b8114610a6c57600080fd5b50565b600081359050610a7e81610a58565b92915050565b600073ffffffffffffffffffffffffffffffffffffffff82169050919050565b6000610aaf82610a84565b9050919050565b610abf81610aa4565b8114610aca57600080fd5b50565b600081359050610adc81610ab6565b92915050565b60008060408385031215610af957610af8610a44565b5b6000610b0785828601610a6f565b9250506020610b1885828601610acd565b9150509250929050565b600060208284031215610b3857610b37610a44565b5b6000610b4684828501610acd565b91505092915050565b600080fd5b6000601f19601f8301169050919050565b7f4e487b7100000000000000000000000000000000000000000000000000000000600052604160045260246000fd5b610b9d82610b54565b810181811067ffffffffffffffff82111715610bbc57610bbb610b65565b5b80604052505050565b6000610bcf610a3a565b9050610bdb8282610b94565b919050565b600067ffffffffffffffff821115610bfb57610bfa610b65565b5b602082029050602081019050919050565b600080fd5b6000610c24610c1f84610be0565b610bc5565b90508083825260208201905060208402830185811115610c4757610c46610c0c565b5b835b81811015610c705780610c5c8882610a6f565b845260208401935050602081019050610c49565b5050509392505050565b600082601f830112610c8f57610c8e610b4f565b5b8135610c9f848260208601610c11565b91505092915050565b60008060408385031215610cbf57610cbe610a44565b5b6000610ccd85828601610a6f565b925050602083013567ffffffffffffffff811115610cee57610ced610a49565b5b610cfa85828601610c7a565b9150509250929050565b600060208284031215610d1a57610d19610a44565b5b6000610d2884828501610a6f565b91505092915050565b600067ffffffffffffffff82169050919050565b610d4e81610d31565b82525050565b6000602082019050610d696000830184610d45565b92915050565b610d7881610a4e565b82525050565b6000602082019050610d936000830184610d6f565b92915050565b610da281610aa4565b82525050565b6000604082019050610dbd6000830185610d99565b610dca6020830184610d6f565b9392505050565b60008115159050919050565b610de681610dd1565b8114610df157600080fd5b50565b600081519050610e0381610ddd565b92915050565b600060208284031215610e1f57610e1e610a44565b5b6000610e2d84828501610df4565b91505092915050565b6000604082019050610e4b6000830185610d45565b610e586020830184610d99565b9392505050565b6000604082019050610e746000830185610d99565b610e816020830184610d99565b9392505050565b600081519050919050565b600082825260208201905092915050565b60005b83811015610ec2578082015181840152602081019050610ea7565b83811115610ed1576000848401525b50505050565b6000610ee282610e88565b610eec8185610e93565b9350610efc818560208601610ea4565b610f0581610b54565b840191505092915050565b6000606082019050610f256000830186610d99565b610f326020830185610d6f565b8181036040830152610f448184610ed7565b9050949350505050565b6000819050919050565b610f6181610f4e565b82525050565b600061ffff82169050919050565b610f7e81610f67565b82525050565b600063ffffffff82169050919050565b610f9d81610f84565b82525050565b600060a082019050610fb86000830188610f58565b610fc56020830187610d45565b610fd26040830186610f75565b610fdf6060830185610f94565b610fec6080830184610f94565b9695505050505050565b60008151905061100581610a58565b92915050565b60006020828403121561102157611020610a44565b5b600061102f84828501610ff6565b9150509291505056fea26469706673582212201e7ab8f846ce2e9a1f2ceb243c19ab3d204e4b6f1b8a88ef86c02c0c79f962ee64736f6c63430008090033",
  "immutableReferences": {
    "10": [
      {
        "length": 32,
        "start": 1226
      },
      {
        "length": 32,
        "start": 1310
      }
    ]
  },
  "source": "// SPDX-License-Identifier: MIT\n// An example of a consumer contract that also owns and manages the subscription\npragma solidity ^0.8.7;\n\nimport \"@chainlink/contracts/src/v0.8/interfaces/LinkTokenInterface.sol\";\nimport \"@chainlink/contracts/src/v0.8/interfaces/VRFCoordinatorV2Interface.sol\";\nimport \"@chainlink/contracts/src/v0.8/VRFConsumerBaseV2.sol\";\n\ncontract VRFv2SubscriptionManager is VRFConsumerBaseV2 {\n  VRFCoordinatorV2Interface COORDINATOR;\n  LinkTokenInterface LINKTOKEN;\n\n  // Rinkeby coordinator. For other networks,\n  // see https://docs.chain.link/docs/vrf-contracts/#configurations\n  // address vrfCoordinator = 0x6168499c0cFfCaCD319c818142124B7A15E857ab;  // Rinkeby\n\n  // Rinkeby LINK token contract. For other networks, see\n  // https://docs.chain.link/docs/vrf-contracts/#configurations\n  // address link_token_contract = 0x01BE23585060835E02B77ef475b0Cc51aA1e0709;  // Rinkeby\n\n  // The gas lane to use, which specifies the maximum gas price to bump to.\n  // For a list of available gas lanes on each network,\n  // see https://docs.chain.link/docs/vrf-contracts/#configurations\n  // bytes32 keyHash = 0xd89b2bf150e3b9e13446986e571fb9cab24b13cea0a43ea20a6049a85cc807cc;  // Rinkeby\n\n  address vrfCoordinator = 0x6A2AAd07396B36Fe02a22b33cf443582f682c82f;  // BSC TestNet coordinator\n  address link_token_contract = 0x84b9B910527Ad5C03A9Ca831909E21e236EA7b06;  //  BSC TestNet LINK token\n  bytes32 keyHash = 0xd4bb89654db74673a187bd804519e65e3f71a52bc55f11da7601a13dcf505314;  //  BSC TestNet keyhash\n\n\n  // A reasonable default is 100000, but this value could be different\n  // on other networks.\n  uint32 callbackGasLimit = 100000;\n\n  // The default is 3, but you can set this higher.\n  uint16 requestConfirmations = 3;\n\n  // For this example, retrieve 2 random values in one request.\n  // Cannot exceed VRFCoordinatorV2.MAX_NUM_WORDS.\n  uint32 numWords =  2;\n\n  // Storage parameters\n  uint256[] public s_randomWords;\n  uint256 public s_requestId;\n  uint64 public s_subscriptionId;\n  address s_owner;\n\n  constructor() VRFConsumerBaseV2(vrfCoordinator) {\n    COORDINATOR = VRFCoordinatorV2Interface(vrfCoordinator);\n    LINKTOKEN = LinkTokenInterface(link_token_contract);\n    s_owner = msg.sender;\n    //Create a new subscription when you deploy the contract.\n    createNewSubscription();\n  }\n\n  // Assumes the subscription is funded sufficiently.\n  function requestRandomWords() external onlyOwner {\n    // Will revert if subscription is not set and funded.\n    s_requestId = COORDINATOR.requestRandomWords(\n      keyHash,\n      s_subscriptionId,\n      requestConfirmations,\n      callbackGasLimit,\n      numWords\n    );\n  }\n\n  function fulfillRandomWords(\n    uint256, /* requestId */\n    uint256[] memory randomWords\n  ) internal override {\n    s_randomWords = randomWords;\n  }\n\n  // Create a new subscription when the contract is initially deployed.\n  function createNewSubscription() private onlyOwner {\n    // Create a subscription with a new subscription ID.\n    address[] memory consumers = new address[](1);\n    consumers[0] = address(this);\n    s_subscriptionId = COORDINATOR.createSubscription();\n    // Add this contract as a consumer of its own subscription.\n    COORDINATOR.addConsumer(s_subscriptionId, consumers[0]);\n  }\n\n  // Assumes this contract owns link.\n  // 1000000000000000000 = 1 LINK\n  function topUpSubscription(uint256 amount) external onlyOwner {\n    LINKTOKEN.transferAndCall(address(COORDINATOR), amount, abi.encode(s_subscriptionId));\n  }\n\n  function addConsumer(address consumerAddress) external onlyOwner {\n    // Add a consumer contract to the subscription.\n    COORDINATOR.addConsumer(s_subscriptionId, consumerAddress);\n  }\n\n  function removeConsumer(address consumerAddress) external onlyOwner {\n    // Remove a consumer contract from the subscription.\n    COORDINATOR.removeConsumer(s_subscriptionId, consumerAddress);\n  }\n\n  function cancelSubscription(address receivingWallet) external onlyOwner {\n    // Cancel the subscription and send the remaining LINK to a wallet address.\n    COORDINATOR.cancelSubscription(s_subscriptionId, receivingWallet);\n    s_subscriptionId = 0;\n  }\n\n  // Transfer this contract's funds to an address.\n  // 1000000000000000000 = 1 LINK\n  function withdraw(uint256 amount, address to) external onlyOwner {\n    LINKTOKEN.transfer(to, amount);\n  }\n\n  modifier onlyOwner() {\n    require(msg.sender == s_owner);\n    _;\n  }\n}\n\n",
  "sourcePath": "/root/SC/BSCLottery/contracts/VRFv2SubscriptionManager.sol",
  "compiler": {
    "name": "solc",
    "version": "0.8.9+commit.e5eed63a.Emscripten.clang"
  },
  "schemaVersion": "3.4.3",
  "updatedAt": "2022-05-09T08:09:17.259Z",
  "devdoc": {
    "kind": "dev",
    "methods": {},
    "version": 1
  },
  "userdoc": {
    "kind": "user",
    "methods": {},
    "version": 1
  }
}