{
  "contractName": "VRFv2SubscriptionManager",
  "abi": [
    {
      "inputs": [],
      "stateMutability": "nonpayable",
      "type": "constructor"
    },
    {
      "inputs": [
        {
          "internalType": "address",
          "name": "have",
          "type": "address"
        },
        {
          "internalType": "address",
          "name": "want",
          "type": "address"
        }
      ],
      "name": "OnlyCoordinatorCanFulfill",
      "type": "error"
    },
    {
      "inputs": [
        {
          "internalType": "uint256",
          "name": "requestId",
          "type": "uint256"
        },
        {
          "internalType": "uint256[]",
          "name": "randomWords",
          "type": "uint256[]"
        }
      ],
      "name": "rawFulfillRandomWords",
      "outputs": [],
      "stateMutability": "nonpayable",
      "type": "function"
    },
    {
      "inputs": [
        {
          "internalType": "uint256",
          "name": "",
          "type": "uint256"
        }
      ],
      "name": "s_randomWords",
      "outputs": [
        {
          "internalType": "uint256",
          "name": "",
          "type": "uint256"
        }
      ],
      "stateMutability": "view",
      "type": "function"
    },
    {
      "inputs": [],
      "name": "s_requestId",
      "outputs": [
        {
          "internalType": "uint256",
          "name": "",
          "type": "uint256"
        }
      ],
      "stateMutability": "view",
      "type": "function"
    },
    {
      "inputs": [],
      "name": "s_subscriptionId",
      "outputs": [
        {
          "internalType": "uint64",
          "name": "",
          "type": "uint64"
        }
      ],
      "stateMutability": "view",
      "type": "function"
    },
    {
      "inputs": [],
      "name": "requestRandomWords",
      "outputs": [],
      "stateMutability": "nonpayable",
      "type": "function"
    },
    {
      "inputs": [
        {
          "internalType": "uint256",
          "name": "amount",
          "type": "uint256"
        }
      ],
      "name": "topUpSubscription",
      "outputs": [],
      "stateMutability": "nonpayable",
      "type": "function"
    },
    {
      "inputs": [
        {
          "internalType": "address",
          "name": "consumerAddress",
          "type": "address"
        }
      ],
      "name": "addConsumer",
      "outputs": [],
      "stateMutability": "nonpayable",
      "type": "function"
    },
    {
      "inputs": [
        {
          "internalType": "address",
          "name": "consumerAddress",
          "type": "address"
        }
      ],
      "name": "removeConsumer",
      "outputs": [],
      "stateMutability": "nonpayable",
      "type": "function"
    },
    {
      "inputs": [
        {
          "internalType": "address",
          "name": "receivingWallet",
          "type": "address"
        }
      ],
      "name": "cancelSubscription",
      "outputs": [],
      "stateMutability": "nonpayable",
      "type": "function"
    },
    {
      "inputs": [
        {
          "internalType": "uint256",
          "name": "amount",
          "type": "uint256"
        },
        {
          "internalType": "address",
          "name": "to",
          "type": "address"
        }
      ],
      "name": "withdraw",
      "outputs": [],
      "stateMutability": "nonpayable",
      "type": "function"
    }
  ],
  "bytecode": "0x60a0604052600280546001600160a01b0319908116736a2aad07396b36fe02a22b33cf443582f682c82f17909155600380549091167384b9b910527ad5c03a9ca831909e21e236ea7b061790557fd4bb89654db74673a187bd804519e65e3f71a52bc55f11da7601a13dcf5053146004556005805466020003000186a06001600160501b031990911617905534801561009757600080fd5b506002546001600160a01b039081166080819052600080546001600160a01b031990811690921790556003546001805491909316911617905560088054600160401b600160e01b0319163368010000000000000000021790556100f86100fd565b610301565b6008546801000000000000000090046001600160a01b0316331461012057600080fd5b604080516001808252818301909252600091602080830190803683370190505090503081600081518110610156576101566102bb565b60200260200101906001600160a01b031690816001600160a01b03168152505060008054906101000a90046001600160a01b03166001600160a01b031663a21a23e46040518163ffffffff1660e01b8152600401602060405180830381600087803b1580156101c457600080fd5b505af11580156101d8573d6000803e3d6000fd5b505050506040513d601f19601f820116820180604052508101906101fc91906102d1565b600880546001600160401b0319166001600160401b039290921691821790556000805483516001600160a01b0390911692637341c10c929091859190610244576102446102bb565b60200260200101516040518363ffffffff1660e01b81526004016102869291906001600160401b039290921682526001600160a01b0316602082015260400190565b600060405180830381600087803b1580156102a057600080fd5b505af11580156102b4573d6000803e3d6000fd5b5050505050565b634e487b7160e01b600052603260045260246000fd5b6000602082840312156102e357600080fd5b81516001600160401b03811681146102fa57600080fd5b9392505050565b6080516109df610323600039600081816103a101526103fc01526109df6000f3fe608060405234801561001057600080fd5b50600436106100bd5760003560e01c80638ac0002111610076578063e0c862891161005b578063e0c8628914610168578063e89e106a14610170578063f6eaffc81461018757600080fd5b80638ac000211461012357806393d81d581461015557600080fd5b8063112940f9116100a7578063112940f9146100ea5780631fe543e3146100fd57806386850e931461011057600080fd5b8062f714ce146100c25780630e27e3df146100d7575b600080fd5b6100d56100d03660046107a1565b61019a565b005b6100d56100e53660046107cd565b610261565b6100d56100f83660046107cd565b610314565b6100d561010b36600461081e565b610396565b6100d561011e3660046108e8565b61043b565b6008546101379067ffffffffffffffff1681565b60405167ffffffffffffffff90911681526020015b60405180910390f35b6100d56101633660046107cd565b610512565b6100d56105d5565b61017960075481565b60405190815260200161014c565b6101796101953660046108e8565b6106dc565b6008546801000000000000000090046001600160a01b031633146101bd57600080fd5b6001546040517fa9059cbb0000000000000000000000000000000000000000000000000000000081526001600160a01b038381166004830152602482018590529091169063a9059cbb90604401602060405180830381600087803b15801561022457600080fd5b505af1158015610238573d6000803e3d6000fd5b505050506040513d601f19601f8201168201806040525081019061025c9190610901565b505050565b6008546801000000000000000090046001600160a01b0316331461028457600080fd5b6000546008546040517f9f87fad700000000000000000000000000000000000000000000000000000000815267ffffffffffffffff90911660048201526001600160a01b03838116602483015290911690639f87fad7906044015b600060405180830381600087803b1580156102f957600080fd5b505af115801561030d573d6000803e3d6000fd5b5050505050565b6008546801000000000000000090046001600160a01b0316331461033757600080fd5b6000546008546040517f7341c10c00000000000000000000000000000000000000000000000000000000815267ffffffffffffffff90911660048201526001600160a01b03838116602483015290911690637341c10c906044016102df565b336001600160a01b037f0000000000000000000000000000000000000000000000000000000000000000161461042d576040517f1cf993f40000000000000000000000000000000000000000000000000000000081523360048201526001600160a01b037f000000000000000000000000000000000000000000000000000000000000000016602482015260440160405180910390fd5b61043782826106fd565b5050565b6008546801000000000000000090046001600160a01b0316331461045e57600080fd5b6001546000546008546040805167ffffffffffffffff90921660208301526001600160a01b0393841693634000aea09316918591016040516020818303038152906040526040518463ffffffff1660e01b81526004016104c093929190610923565b602060405180830381600087803b1580156104da57600080fd5b505af11580156104ee573d6000803e3d6000fd5b505050506040513d601f19601f820116820180604052508101906104379190610901565b6008546801000000000000000090046001600160a01b0316331461053557600080fd5b6000546008546040517fd7ae1d3000000000000000000000000000000000000000000000000000000000815267ffffffffffffffff90911660048201526001600160a01b0383811660248301529091169063d7ae1d3090604401600060405180830381600087803b1580156105a957600080fd5b505af11580156105bd573d6000803e3d6000fd5b50506008805467ffffffffffffffff19169055505050565b6008546801000000000000000090046001600160a01b031633146105f857600080fd5b600054600480546008546005546040517f5d3b1d300000000000000000000000000000000000000000000000000000000081529384019290925267ffffffffffffffff166024830152640100000000810461ffff16604483015263ffffffff808216606484015266010000000000009091041660848201526001600160a01b0390911690635d3b1d309060a401602060405180830381600087803b15801561069f57600080fd5b505af11580156106b3573d6000803e3d6000fd5b505050506040513d601f19601f820116820180604052508101906106d79190610990565b600755565b600681815481106106ec57600080fd5b600091825260209091200154905081565b805160068054828255600082905261025c927ff652222313e28459528d920b65115c16c04f3efc82aaedc97be59f3f377c0d3f91820191602086018215610760579160200282015b82811115610760578251825591602001919060010190610745565b5061076c929150610770565b5090565b5b8082111561076c5760008155600101610771565b80356001600160a01b038116811461079c57600080fd5b919050565b600080604083850312156107b457600080fd5b823591506107c460208401610785565b90509250929050565b6000602082840312156107df57600080fd5b6107e882610785565b9392505050565b7f4e487b7100000000000000000000000000000000000000000000000000000000600052604160045260246000fd5b6000806040838503121561083157600080fd5b8235915060208084013567ffffffffffffffff8082111561085157600080fd5b818601915086601f83011261086557600080fd5b813581811115610877576108776107ef565b8060051b604051601f19603f8301168101818110858211171561089c5761089c6107ef565b6040529182528482019250838101850191898311156108ba57600080fd5b938501935b828510156108d8578435845293850193928501926108bf565b8096505050505050509250929050565b6000602082840312156108fa57600080fd5b5035919050565b60006020828403121561091357600080fd5b815180151581146107e857600080fd5b6001600160a01b038416815260006020848184015260606040840152835180606085015260005b818110156109665785810183015185820160800152820161094a565b81811115610978576000608083870101525b50601f01601f19169290920160800195945050505050565b6000602082840312156109a257600080fd5b505191905056fea26469706673582212205d3697531a7f7f05349cf62332796f29355a6af226b16323aab65a45dee9339d64736f6c63430008090033",
  "immutableReferences": {
    "10": [
      {
        "length": 32,
        "start": 929
      },
      {
        "length": 32,
        "start": 1020
      }
    ]
  },
  "source": "// SPDX-License-Identifier: MIT\n// An example of a consumer contract that also owns and manages the subscription\npragma solidity ^0.8.7;\n\nimport \"@chainlink/contracts/src/v0.8/interfaces/LinkTokenInterface.sol\";\nimport \"@chainlink/contracts/src/v0.8/interfaces/VRFCoordinatorV2Interface.sol\";\nimport \"@chainlink/contracts/src/v0.8/VRFConsumerBaseV2.sol\";\n\ncontract VRFv2SubscriptionManager is VRFConsumerBaseV2 {\n  VRFCoordinatorV2Interface COORDINATOR;\n  LinkTokenInterface LINKTOKEN;\n\n  // Rinkeby coordinator. For other networks,\n  // see https://docs.chain.link/docs/vrf-contracts/#configurations\n  // address vrfCoordinator = 0x6168499c0cFfCaCD319c818142124B7A15E857ab;  // Rinkeby\n\n  // Rinkeby LINK token contract. For other networks, see\n  // https://docs.chain.link/docs/vrf-contracts/#configurations\n  // address link_token_contract = 0x01BE23585060835E02B77ef475b0Cc51aA1e0709;  // Rinkeby\n\n  // The gas lane to use, which specifies the maximum gas price to bump to.\n  // For a list of available gas lanes on each network,\n  // see https://docs.chain.link/docs/vrf-contracts/#configurations\n  // bytes32 keyHash = 0xd89b2bf150e3b9e13446986e571fb9cab24b13cea0a43ea20a6049a85cc807cc;  // Rinkeby\n\n  address vrfCoordinator = 0x6A2AAd07396B36Fe02a22b33cf443582f682c82f;  // BSC TestNet coordinator\n  address link_token_contract = 0x84b9B910527Ad5C03A9Ca831909E21e236EA7b06;  //  BSC TestNet LINK token\n  bytes32 keyHash = 0xd4bb89654db74673a187bd804519e65e3f71a52bc55f11da7601a13dcf505314;  //  BSC TestNet keyhash\n\n\n  // A reasonable default is 100000, but this value could be different\n  // on other networks.\n  uint32 callbackGasLimit = 100000;\n\n  // The default is 3, but you can set this higher.\n  uint16 requestConfirmations = 3;\n\n  // For this example, retrieve 2 random values in one request.\n  // Cannot exceed VRFCoordinatorV2.MAX_NUM_WORDS.\n  uint32 numWords =  2;\n\n  // Storage parameters\n  uint256[] public s_randomWords;\n  uint256 public s_requestId;\n  uint64 public s_subscriptionId;\n  address s_owner;\n\n  constructor() VRFConsumerBaseV2(vrfCoordinator) {\n    COORDINATOR = VRFCoordinatorV2Interface(vrfCoordinator);\n    LINKTOKEN = LinkTokenInterface(link_token_contract);\n    s_owner = msg.sender;\n    //Create a new subscription when you deploy the contract.\n    createNewSubscription();\n  }\n\n  // Assumes the subscription is funded sufficiently.\n  function requestRandomWords() external onlyOwner {\n    // Will revert if subscription is not set and funded.\n    s_requestId = COORDINATOR.requestRandomWords(\n      keyHash,\n      s_subscriptionId,\n      requestConfirmations,\n      callbackGasLimit,\n      numWords\n    );\n  }\n\n  function fulfillRandomWords(\n    uint256, /* requestId */\n    uint256[] memory randomWords\n  ) internal override {\n    s_randomWords = randomWords;\n  }\n\n  // Create a new subscription when the contract is initially deployed.\n  function createNewSubscription() private onlyOwner {\n    // Create a subscription with a new subscription ID.\n    address[] memory consumers = new address[](1);\n    consumers[0] = address(this);\n    s_subscriptionId = COORDINATOR.createSubscription();\n    // Add this contract as a consumer of its own subscription.\n    COORDINATOR.addConsumer(s_subscriptionId, consumers[0]);\n  }\n\n  // Assumes this contract owns link.\n  // 1000000000000000000 = 1 LINK\n  function topUpSubscription(uint256 amount) external onlyOwner {\n    LINKTOKEN.transferAndCall(address(COORDINATOR), amount, abi.encode(s_subscriptionId));\n  }\n\n  function addConsumer(address consumerAddress) external onlyOwner {\n    // Add a consumer contract to the subscription.\n    COORDINATOR.addConsumer(s_subscriptionId, consumerAddress);\n  }\n\n  function removeConsumer(address consumerAddress) external onlyOwner {\n    // Remove a consumer contract from the subscription.\n    COORDINATOR.removeConsumer(s_subscriptionId, consumerAddress);\n  }\n\n  function cancelSubscription(address receivingWallet) external onlyOwner {\n    // Cancel the subscription and send the remaining LINK to a wallet address.\n    COORDINATOR.cancelSubscription(s_subscriptionId, receivingWallet);\n    s_subscriptionId = 0;\n  }\n\n  // Transfer this contract's funds to an address.\n  // 1000000000000000000 = 1 LINK\n  function withdraw(uint256 amount, address to) external onlyOwner {\n    LINKTOKEN.transfer(to, amount);\n  }\n\n  modifier onlyOwner() {\n    require(msg.sender == s_owner);\n    _;\n  }\n}\n\n",
  "sourcePath": "/home/batis/SrcCode/myPRJ/SmartContBlockChain/BSCLottery/contracts/VRFv2SubscriptionManager.sol",
  "compiler": {
    "name": "solc",
    "version": "0.8.9+commit.e5eed63a.Emscripten.clang"
  },
  "schemaVersion": "3.4.3",
  "updatedAt": "2022-06-09T06:00:22.378Z",
  "devdoc": {
    "kind": "dev",
    "methods": {},
    "version": 1
  },
  "userdoc": {
    "kind": "user",
    "methods": {},
    "version": 1
  }
}