{
  "contractName": "WeeklyLottery",
  "abi": [
    {
      "inputs": [
        {
          "internalType": "address",
          "name": "VRF",
          "type": "address"
        },
        {
          "internalType": "address",
          "name": "generatorLotteryAddress",
          "type": "address"
        }
      ],
      "stateMutability": "nonpayable",
      "type": "constructor"
    },
    {
      "anonymous": false,
      "inputs": [
        {
          "indexed": true,
          "internalType": "address",
          "name": "previousOwner",
          "type": "address"
        },
        {
          "indexed": true,
          "internalType": "address",
          "name": "newOwner",
          "type": "address"
        }
      ],
      "name": "OwnershipTransferred",
      "type": "event"
    },
    {
      "anonymous": false,
      "inputs": [
        {
          "indexed": false,
          "internalType": "address",
          "name": "potWinner",
          "type": "address"
        },
        {
          "indexed": false,
          "internalType": "uint256",
          "name": "winnerPrize",
          "type": "uint256"
        }
      ],
      "name": "SelectWinnerAddress",
      "type": "event"
    },
    {
      "anonymous": false,
      "inputs": [
        {
          "indexed": false,
          "internalType": "uint256",
          "name": "winnerIndex",
          "type": "uint256"
        },
        {
          "indexed": false,
          "internalType": "uint256",
          "name": "potBalance",
          "type": "uint256"
        },
        {
          "indexed": false,
          "internalType": "uint256",
          "name": "winnerPrize",
          "type": "uint256"
        }
      ],
      "name": "SelectWinnerIndex",
      "type": "event"
    },
    {
      "anonymous": false,
      "inputs": [
        {
          "indexed": false,
          "internalType": "address",
          "name": "receiver",
          "type": "address"
        },
        {
          "indexed": false,
          "internalType": "uint256",
          "name": "TrxValue",
          "type": "uint256"
        }
      ],
      "name": "TotalPayment",
      "type": "event"
    },
    {
      "stateMutability": "payable",
      "type": "fallback",
      "payable": true
    },
    {
      "inputs": [],
      "name": "owner",
      "outputs": [
        {
          "internalType": "address",
          "name": "",
          "type": "address"
        }
      ],
      "stateMutability": "view",
      "type": "function",
      "constant": true
    },
    {
      "inputs": [],
      "name": "renounceOwnership",
      "outputs": [],
      "stateMutability": "nonpayable",
      "type": "function"
    },
    {
      "inputs": [
        {
          "internalType": "address",
          "name": "newOwner",
          "type": "address"
        }
      ],
      "name": "transferOwnership",
      "outputs": [],
      "stateMutability": "nonpayable",
      "type": "function"
    },
    {
      "stateMutability": "payable",
      "type": "receive",
      "payable": true
    },
    {
      "inputs": [],
      "name": "balanceInPot",
      "outputs": [
        {
          "internalType": "uint256",
          "name": "",
          "type": "uint256"
        }
      ],
      "stateMutability": "view",
      "type": "function",
      "constant": true
    },
    {
      "inputs": [],
      "name": "withdraw",
      "outputs": [],
      "stateMutability": "nonpayable",
      "type": "function"
    },
    {
      "inputs": [
        {
          "internalType": "uint256",
          "name": "numerator",
          "type": "uint256"
        },
        {
          "internalType": "uint256",
          "name": "denominator",
          "type": "uint256"
        }
      ],
      "name": "getDivided",
      "outputs": [
        {
          "internalType": "uint256",
          "name": "quotient",
          "type": "uint256"
        },
        {
          "internalType": "uint256",
          "name": "remainder",
          "type": "uint256"
        }
      ],
      "stateMutability": "pure",
      "type": "function",
      "constant": true
    },
    {
      "inputs": [],
      "name": "potInitialize",
      "outputs": [],
      "stateMutability": "nonpayable",
      "type": "function"
    },
    {
      "inputs": [
        {
          "internalType": "address",
          "name": "_VRFv2",
          "type": "address"
        }
      ],
      "name": "getRandomValue",
      "outputs": [
        {
          "internalType": "uint256",
          "name": "randomWords",
          "type": "uint256"
        }
      ],
      "stateMutability": "view",
      "type": "function",
      "constant": true
    },
    {
      "inputs": [],
      "name": "select_Winner",
      "outputs": [],
      "stateMutability": "nonpayable",
      "type": "function"
    },
    {
      "inputs": [],
      "name": "getLotteryWinnersArray",
      "outputs": [
        {
          "internalType": "address[]",
          "name": "",
          "type": "address[]"
        }
      ],
      "stateMutability": "view",
      "type": "function",
      "constant": true
    },
    {
      "inputs": [
        {
          "internalType": "address",
          "name": "_contractAddr",
          "type": "address"
        }
      ],
      "name": "set_generatorLotteryAddress",
      "outputs": [],
      "stateMutability": "nonpayable",
      "type": "function"
    },
    {
      "inputs": [
        {
          "internalType": "address",
          "name": "_DirectorAddress",
          "type": "address"
        }
      ],
      "name": "setDirector",
      "outputs": [],
      "stateMutability": "nonpayable",
      "type": "function"
    },
    {
      "inputs": [],
      "name": "listPlayers",
      "outputs": [
        {
          "internalType": "address[]",
          "name": "",
          "type": "address[]"
        }
      ],
      "stateMutability": "view",
      "type": "function",
      "constant": true
    },
    {
      "inputs": [],
      "name": "isPotActive",
      "outputs": [
        {
          "internalType": "bool",
          "name": "",
          "type": "bool"
        }
      ],
      "stateMutability": "view",
      "type": "function",
      "constant": true
    },
    {
      "inputs": [],
      "name": "getPlayersNumber",
      "outputs": [
        {
          "internalType": "uint256",
          "name": "",
          "type": "uint256"
        }
      ],
      "stateMutability": "view",
      "type": "function",
      "constant": true
    },
    {
      "inputs": [],
      "name": "getWinners",
      "outputs": [
        {
          "internalType": "address",
          "name": "",
          "type": "address"
        }
      ],
      "stateMutability": "view",
      "type": "function",
      "constant": true
    },
    {
      "inputs": [],
      "name": "isReadySelectWinner",
      "outputs": [
        {
          "internalType": "bool",
          "name": "",
          "type": "bool"
        }
      ],
      "stateMutability": "view",
      "type": "function",
      "constant": true
    },
    {
      "inputs": [],
      "name": "getPotDirector",
      "outputs": [
        {
          "internalType": "address",
          "name": "",
          "type": "address"
        }
      ],
      "stateMutability": "view",
      "type": "function",
      "constant": true
    }
  ],
  "bytecode": "0x60806040523480156200001157600080fd5b50604051620022143803806200221483398181016040528101906200003791906200028e565b620000576200004b6200015860201b60201c565b6200016060201b60201c565b33600360006101000a81548173ffffffffffffffffffffffffffffffffffffffff021916908373ffffffffffffffffffffffffffffffffffffffff16021790555081600160006101000a81548173ffffffffffffffffffffffffffffffffffffffff021916908373ffffffffffffffffffffffffffffffffffffffff1602179055506000600560006101000a81548160ff0219169083151502179055506000600560016101000a81548160ff02191690831515021790555080600260006101000a81548173ffffffffffffffffffffffffffffffffffffffff021916908373ffffffffffffffffffffffffffffffffffffffff1602179055505050620002d5565b600033905090565b60008060009054906101000a900473ffffffffffffffffffffffffffffffffffffffff169050816000806101000a81548173ffffffffffffffffffffffffffffffffffffffff021916908373ffffffffffffffffffffffffffffffffffffffff1602179055508173ffffffffffffffffffffffffffffffffffffffff168173ffffffffffffffffffffffffffffffffffffffff167f8be0079c531659141344cd1fd0a4f28419497f9722a3daafe3b4186f6b6457e060405160405180910390a35050565b600080fd5b600073ffffffffffffffffffffffffffffffffffffffff82169050919050565b6000620002568262000229565b9050919050565b620002688162000249565b81146200027457600080fd5b50565b60008151905062000288816200025d565b92915050565b60008060408385031215620002a857620002a762000224565b5b6000620002b88582860162000277565b9250506020620002cb8582860162000277565b9150509250929050565b611f2f80620002e56000396000f3fe60806040526004361061010d5760003560e01c8063715018a6116100955780638da5cb5b116100645780638da5cb5b14610316578063c5ae6f3e14610341578063df15c37e1461036c578063e8b05e3814610397578063f2fde38b146103c257610114565b8063715018a6146102805780637459089414610297578063766eef11146102c25780638613e4cf146102ed57610114565b80632ac75ab5116100dc5780632ac75ab5146101e55780633ccfd60b146101fc5780634442713c1461021357806364605d511461023e5780636c2534371461026957610114565b806314e599871461011657806314e5e90e14610141578063194d02d71461017e57806326ba4319146101bc57610114565b3661011457005b005b34801561012257600080fd5b5061012b6103eb565b604051610138919061141e565b60405180910390f35b34801561014d57600080fd5b50610168600480360381019061016391906114ab565b6103f3565b604051610175919061141e565b60405180910390f35b34801561018a57600080fd5b506101a560048036038101906101a09190611504565b6104f6565b6040516101b3929190611544565b60405180910390f35b3480156101c857600080fd5b506101e360048036038101906101de91906114ab565b6105ae565b005b3480156101f157600080fd5b506101fa6106a8565b005b34801561020857600080fd5b50610211610857565b005b34801561021f57600080fd5b5061022861091c565b6040516102359190611588565b60405180910390f35b34801561024a57600080fd5b50610253610933565b6040516102609190611661565b60405180910390f35b34801561027557600080fd5b5061027e6109c1565b005b34801561028c57600080fd5b50610295610b55565b005b3480156102a357600080fd5b506102ac610bdd565b6040516102b99190611661565b60405180910390f35b3480156102ce57600080fd5b506102d7610c89565b6040516102e4919061141e565b60405180910390f35b3480156102f957600080fd5b50610314600480360381019061030f91906114ab565b610c96565b005b34801561032257600080fd5b5061032b610d56565b6040516103389190611692565b60405180910390f35b34801561034d57600080fd5b50610356610d7f565b6040516103639190611692565b60405180910390f35b34801561037857600080fd5b50610381610da9565b60405161038e9190611692565b60405180910390f35b3480156103a357600080fd5b506103ac610dd3565b6040516103b99190611588565b60405180910390f35b3480156103ce57600080fd5b506103e960048036038101906103e491906114ab565b610dea565b005b600047905090565b60006103fd610ee2565b73ffffffffffffffffffffffffffffffffffffffff1661041b610d56565b73ffffffffffffffffffffffffffffffffffffffff1614610471576040517f08c379a00000000000000000000000000000000000000000000000000000000081526004016104689061170a565b60405180910390fd5b8173ffffffffffffffffffffffffffffffffffffffff166371f747906040518163ffffffff1660e01b815260040160206040518083038186803b1580156104b757600080fd5b505afa1580156104cb573d6000803e3d6000fd5b505050506040513d601f19601f820116820180604052508101906104ef919061173f565b9050919050565b600080600083101561053d576040517f08c379a0000000000000000000000000000000000000000000000000000000008152600401610534906117de565b60405180910390fd5b60008411610580576040517f08c379a0000000000000000000000000000000000000000000000000000000008152600401610577906117de565b60405180910390fd5b828461058c919061185c565b9150818361059a919061188d565b846105a591906118e7565b90509250929050565b6105b6610ee2565b73ffffffffffffffffffffffffffffffffffffffff166105d4610d56565b73ffffffffffffffffffffffffffffffffffffffff161461062a576040517f08c379a00000000000000000000000000000000000000000000000000000000081526004016106219061170a565b60405180910390fd5b600073ffffffffffffffffffffffffffffffffffffffff168173ffffffffffffffffffffffffffffffffffffffff16141561066457600080fd5b80600560026101000a81548173ffffffffffffffffffffffffffffffffffffffff021916908373ffffffffffffffffffffffffffffffffffffffff16021790555050565b6106b0610ee2565b73ffffffffffffffffffffffffffffffffffffffff166106ce610d56565b73ffffffffffffffffffffffffffffffffffffffff1614610724576040517f08c379a000000000000000000000000000000000000000000000000000000000815260040161071b9061170a565b60405180910390fd5b60011515600560019054906101000a900460ff1615151461077a576040517f08c379a00000000000000000000000000000000000000000000000000000000081526004016107719061198d565b60405180910390fd5b60006107a7600160009054906101000a900473ffffffffffffffffffffffffffffffffffffffff166103f3565b90506000600480549050826107bc91906119ad565b905060004790507f274f2e5ea35472f60f411beb007713c0f1c1b574f260789eedee1789cd49d9f58247836040516107f6939291906119de565b60405180910390a16108088247610eea565b506108138282611123565b61081b6111eb565b506000600560006101000a81548160ff0219169083151502179055506000600560016101000a81548160ff021916908315150217905550505050565b61085f610ee2565b73ffffffffffffffffffffffffffffffffffffffff1661087d610d56565b73ffffffffffffffffffffffffffffffffffffffff16146108d3576040517f08c379a00000000000000000000000000000000000000000000000000000000081526004016108ca9061170a565b60405180910390fd5b3373ffffffffffffffffffffffffffffffffffffffff166108fc479081150290604051600060405180830381858888f19350505050158015610919573d6000803e3d6000fd5b50565b6000600560009054906101000a900460ff16905090565b606060048054806020026020016040519081016040528092919081815260200182805480156109b757602002820191906000526020600020905b8160009054906101000a900473ffffffffffffffffffffffffffffffffffffffff1673ffffffffffffffffffffffffffffffffffffffff168152602001906001019080831161096d575b5050505050905090565b600560029054906101000a900473ffffffffffffffffffffffffffffffffffffffff1673ffffffffffffffffffffffffffffffffffffffff163373ffffffffffffffffffffffffffffffffffffffff161480610a6a5750600360009054906101000a900473ffffffffffffffffffffffffffffffffffffffff1673ffffffffffffffffffffffffffffffffffffffff163373ffffffffffffffffffffffffffffffffffffffff16145b610aa9576040517f08c379a0000000000000000000000000000000000000000000000000000000008152600401610aa090611a61565b60405180910390fd5b60001515600560009054906101000a900460ff16151514610aff576040517f08c379a0000000000000000000000000000000000000000000000000000000008152600401610af690611af3565b60405180910390fd5b610b07610bdd565b60049080519060200190610b1c92919061135e565b506001600560006101000a81548160ff0219169083151502179055506001600560016101000a81548160ff021916908315150217905550565b610b5d610ee2565b73ffffffffffffffffffffffffffffffffffffffff16610b7b610d56565b73ffffffffffffffffffffffffffffffffffffffff1614610bd1576040517f08c379a0000000000000000000000000000000000000000000000000000000008152600401610bc89061170a565b60405180910390fd5b610bdb600061129a565b565b6060600260009054906101000a900473ffffffffffffffffffffffffffffffffffffffff1673ffffffffffffffffffffffffffffffffffffffff1663df15c37e6040518163ffffffff1660e01b815260040160006040518083038186803b158015610c4757600080fd5b505afa158015610c5b573d6000803e3d6000fd5b505050506040513d6000823e3d601f19601f82011682018060405250810190610c849190611c81565b905090565b6000600480549050905090565b610c9e610ee2565b73ffffffffffffffffffffffffffffffffffffffff16610cbc610d56565b73ffffffffffffffffffffffffffffffffffffffff1614610d12576040517f08c379a0000000000000000000000000000000000000000000000000000000008152600401610d099061170a565b60405180910390fd5b80600260006101000a81548173ffffffffffffffffffffffffffffffffffffffff021916908373ffffffffffffffffffffffffffffffffffffffff16021790555050565b60008060009054906101000a900473ffffffffffffffffffffffffffffffffffffffff16905090565b6000600560029054906101000a900473ffffffffffffffffffffffffffffffffffffffff16905090565b6000600660009054906101000a900473ffffffffffffffffffffffffffffffffffffffff16905090565b6000600560019054906101000a900460ff16905090565b610df2610ee2565b73ffffffffffffffffffffffffffffffffffffffff16610e10610d56565b73ffffffffffffffffffffffffffffffffffffffff1614610e66576040517f08c379a0000000000000000000000000000000000000000000000000000000008152600401610e5d9061170a565b60405180910390fd5b600073ffffffffffffffffffffffffffffffffffffffff168173ffffffffffffffffffffffffffffffffffffffff161415610ed6576040517f08c379a0000000000000000000000000000000000000000000000000000000008152600401610ecd90611d3c565b60405180910390fd5b610edf8161129a565b50565b600033905090565b600080600060048581548110610f0357610f02611d5c565b5b9060005260206000200160009054906101000a900473ffffffffffffffffffffffffffffffffffffffff16600660006101000a81548173ffffffffffffffffffffffffffffffffffffffff021916908373ffffffffffffffffffffffffffffffffffffffff160217905550600260009054906101000a900473ffffffffffffffffffffffffffffffffffffffff1673ffffffffffffffffffffffffffffffffffffffff16637a1fa9e33086600660009054906101000a900473ffffffffffffffffffffffffffffffffffffffff1660026040518563ffffffff1660e01b8152600401610ff29493929190611ddd565b602060405180830381600087803b15801561100c57600080fd5b505af1158015611020573d6000803e3d6000fd5b505050506040513d601f19601f820116820180604052508101906110449190611e4e565b9150600260009054906101000a900473ffffffffffffffffffffffffffffffffffffffff1673ffffffffffffffffffffffffffffffffffffffff1663a2d96705600660009054906101000a900473ffffffffffffffffffffffffffffffffffffffff166040518263ffffffff1660e01b81526004016110c39190611692565b602060405180830381600087803b1580156110dd57600080fd5b505af11580156110f1573d6000803e3d6000fd5b505050506040513d601f19601f82011682018060405250810190611115919061173f565b905060019250505092915050565b60006004838154811061113957611138611d5c565b5b9060005260206000200160009054906101000a900473ffffffffffffffffffffffffffffffffffffffff1690508073ffffffffffffffffffffffffffffffffffffffff166108fc839081150290604051600060405180830381858888f193505050501580156111ac573d6000803e3d6000fd5b507f9b320e270eb528aa46b3a21b196f1da153ccb2d5637e892594474e969fe6b7a981836040516111de929190611ed0565b60405180910390a1505050565b600080600260009054906101000a900473ffffffffffffffffffffffffffffffffffffffff1673ffffffffffffffffffffffffffffffffffffffff16635f697d606040518163ffffffff1660e01b8152600401602060405180830381600087803b15801561125857600080fd5b505af115801561126c573d6000803e3d6000fd5b505050506040513d601f19601f820116820180604052508101906112909190611e4e565b9050600191505090565b60008060009054906101000a900473ffffffffffffffffffffffffffffffffffffffff169050816000806101000a81548173ffffffffffffffffffffffffffffffffffffffff021916908373ffffffffffffffffffffffffffffffffffffffff1602179055508173ffffffffffffffffffffffffffffffffffffffff168173ffffffffffffffffffffffffffffffffffffffff167f8be0079c531659141344cd1fd0a4f28419497f9722a3daafe3b4186f6b6457e060405160405180910390a35050565b8280548282559060005260206000209081019282156113d7579160200282015b828111156113d65782518260006101000a81548173ffffffffffffffffffffffffffffffffffffffff021916908373ffffffffffffffffffffffffffffffffffffffff1602179055509160200191906001019061137e565b5b5090506113e491906113e8565b5090565b5b808211156114015760008160009055506001016113e9565b5090565b6000819050919050565b61141881611405565b82525050565b6000602082019050611433600083018461140f565b92915050565b6000604051905090565b600080fd5b600080fd5b600073ffffffffffffffffffffffffffffffffffffffff82169050919050565b60006114788261144d565b9050919050565b6114888161146d565b811461149357600080fd5b50565b6000813590506114a58161147f565b92915050565b6000602082840312156114c1576114c0611443565b5b60006114cf84828501611496565b91505092915050565b6114e181611405565b81146114ec57600080fd5b50565b6000813590506114fe816114d8565b92915050565b6000806040838503121561151b5761151a611443565b5b6000611529858286016114ef565b925050602061153a858286016114ef565b9150509250929050565b6000604082019050611559600083018561140f565b611566602083018461140f565b9392505050565b60008115159050919050565b6115828161156d565b82525050565b600060208201905061159d6000830184611579565b92915050565b600081519050919050565b600082825260208201905092915050565b6000819050602082019050919050565b6115d88161146d565b82525050565b60006115ea83836115cf565b60208301905092915050565b6000602082019050919050565b600061160e826115a3565b61161881856115ae565b9350611623836115bf565b8060005b8381101561165457815161163b88826115de565b9750611646836115f6565b925050600181019050611627565b5085935050505092915050565b6000602082019050818103600083015261167b8184611603565b905092915050565b61168c8161146d565b82525050565b60006020820190506116a76000830184611683565b92915050565b600082825260208201905092915050565b7f4f776e61626c653a2063616c6c6572206973206e6f7420746865206f776e6572600082015250565b60006116f46020836116ad565b91506116ff826116be565b602082019050919050565b60006020820190508181036000830152611723816116e7565b9050919050565b600081519050611739816114d8565b92915050565b60006020828403121561175557611754611443565b5b60006117638482850161172a565b91505092915050565b7f4469766973696f6e206973204e6f7420506f737369626c65202c20427567206960008201527f6e204e756d626572732021000000000000000000000000000000000000000000602082015250565b60006117c8602b836116ad565b91506117d38261176c565b604082019050919050565b600060208201905081810360008301526117f7816117bb565b9050919050565b7f4e487b7100000000000000000000000000000000000000000000000000000000600052601260045260246000fd5b7f4e487b7100000000000000000000000000000000000000000000000000000000600052601160045260246000fd5b600061186782611405565b915061187283611405565b925082611882576118816117fe565b5b828204905092915050565b600061189882611405565b91506118a383611405565b9250817fffffffffffffffffffffffffffffffffffffffffffffffffffffffffffffffff04831182151516156118dc576118db61182d565b5b828202905092915050565b60006118f282611405565b91506118fd83611405565b9250828210156119105761190f61182d565b5b828203905092915050565b7f54686520506f74206973206e6f7420726561647920666f722053656c6563742060008201527f7468652057696e6e657200000000000000000000000000000000000000000000602082015250565b6000611977602a836116ad565b91506119828261191b565b604082019050919050565b600060208201905081810360008301526119a68161196a565b9050919050565b60006119b882611405565b91506119c383611405565b9250826119d3576119d26117fe565b5b828206905092915050565b60006060820190506119f3600083018661140f565b611a00602083018561140f565b611a0d604083018461140f565b949350505050565b7f5065726d697373696f6e2044656e696564202121000000000000000000000000600082015250565b6000611a4b6014836116ad565b9150611a5682611a15565b602082019050919050565b60006020820190508181036000830152611a7a81611a3e565b9050919050565b7f546865205765656b6c7920506f742069732073746172746564206265666f726560008201527f2021000000000000000000000000000000000000000000000000000000000000602082015250565b6000611add6022836116ad565b9150611ae882611a81565b604082019050919050565b60006020820190508181036000830152611b0c81611ad0565b9050919050565b600080fd5b6000601f19601f8301169050919050565b7f4e487b7100000000000000000000000000000000000000000000000000000000600052604160045260246000fd5b611b6182611b18565b810181811067ffffffffffffffff82111715611b8057611b7f611b29565b5b80604052505050565b6000611b93611439565b9050611b9f8282611b58565b919050565b600067ffffffffffffffff821115611bbf57611bbe611b29565b5b602082029050602081019050919050565b600080fd5b600081519050611be48161147f565b92915050565b6000611bfd611bf884611ba4565b611b89565b90508083825260208201905060208402830185811115611c2057611c1f611bd0565b5b835b81811015611c495780611c358882611bd5565b845260208401935050602081019050611c22565b5050509392505050565b600082601f830112611c6857611c67611b13565b5b8151611c78848260208601611bea565b91505092915050565b600060208284031215611c9757611c96611443565b5b600082015167ffffffffffffffff811115611cb557611cb4611448565b5b611cc184828501611c53565b91505092915050565b7f4f776e61626c653a206e6577206f776e657220697320746865207a65726f206160008201527f6464726573730000000000000000000000000000000000000000000000000000602082015250565b6000611d266026836116ad565b9150611d3182611cca565b604082019050919050565b60006020820190508181036000830152611d5581611d19565b9050919050565b7f4e487b7100000000000000000000000000000000000000000000000000000000600052603260045260246000fd5b6000819050919050565b600060ff82169050919050565b6000819050919050565b6000611dc7611dc2611dbd84611d8b565b611da2565b611d95565b9050919050565b611dd781611dac565b82525050565b6000608082019050611df26000830187611683565b611dff602083018661140f565b611e0c6040830185611683565b611e196060830184611dce565b95945050505050565b611e2b8161156d565b8114611e3657600080fd5b50565b600081519050611e4881611e22565b92915050565b600060208284031215611e6457611e63611443565b5b6000611e7284828501611e39565b91505092915050565b6000611e96611e91611e8c8461144d565b611da2565b61144d565b9050919050565b6000611ea882611e7b565b9050919050565b6000611eba82611e9d565b9050919050565b611eca81611eaf565b82525050565b6000604082019050611ee56000830185611ec1565b611ef2602083018461140f565b939250505056fea2646970667358221220a05d2966482f157f81d16e6e6841baa1185fd10aa882c2dc3c8eee241aa2489564736f6c63430008090033",
  "immutableReferences": {},
  "source": "// SPDX-License-Identifier: MIT\npragma solidity ^0.8.0;\n// pragma experimental ABIEncoderV2;\n\n/* ToDo : Use Ownable OpenZeppelin */\nimport \"@openzeppelin/contracts/access/Ownable.sol\";\nimport \"@openzeppelin/contracts/utils/math/SafeMath.sol\";\n\n// import \"./LotteryGenerator.sol\";\nimport \"./VRFv2Consumer.sol\";\nimport \"./VRFv2SubscriptionManager.sol\";\n\nimport \"./LotteryCore.sol\";\n\n// import \"truffle/Console.sol\";\n// import \"hardhat/console.sol\";\n\nimport \"./LotteryInterface.sol\";\n\n// interface IilotteryGenerator {\n//     function LotteryWinnersArray() external view returns (address[] memory);\n//     function setlotteryStructs(address _lotteryAddress, uint _totalBalance, address _winnerAddress, uint8 _lotteryType) external returns (bool);\n//     function setWeeklyWinnersArrayMap(address _lotteryAddress, address _winnerAddress) external returns (uint);\n//     function clearlotteryWinnersArrayMap(address _lotteryAddress) external returns (bool);\n// }\n\n\n/**\n************************************************************************************\n************************************************************************************\n\n\n/**\n************************************************************************************\n************************************************************************************\n**/\n/**\n  * @title Weekly Lottery For BSC Lottery Game \n  * @author Batis \n  * @notice This SmartContract is responsible for implimentation of Weekly Pot Lottery \n  * @dev WeeklyLottery will be Generated by LotteryGenerator\n*/\ncontract WeeklyLottery is Ownable {\n\n  address private _VRF;\n  address private generatorLotteryAddr;\n  // address private LiquidityPoolAddress;\n  // address private MultiSigWalletAddress;\n  // address private MonthlyPotAddress;   \n  address private LotteryOwner;\n\n  address[] private _LotteryWinnersArray;\n  bool private lPotActive;  \n  bool private lReadySelectWinner; \n  address private potDirector;  /* ToDo: All Main Action must be controlled only by Owner or Director */\n  address private potWinnerAddress;\n\n  event SelectWinnerIndex(uint winnerIndex, uint potBalance, uint winnerPrize);\n  event SelectWinnerAddress(address potWinner, uint winnerPrize);\n  event TotalPayment(address receiver, uint TrxValue);\n\n  constructor(address VRF, address generatorLotteryAddress) {   \n    LotteryOwner = msg.sender;\n    _VRF = VRF;\n    lPotActive = false;\n    lReadySelectWinner = false;\n    generatorLotteryAddr = generatorLotteryAddress;\n  }\n\n  /* ToDo : Add & Complete Fallback routine */\n  fallback() external payable {\n  }\n  receive() external payable {\n  }\n\n  modifier isAllowedManager() {\n      require( msg.sender == potDirector || msg.sender == LotteryOwner , \"Permission Denied !!\" );\n      _;\n  }\n\n  modifier isGameOn() {\n      require(lPotActive , \"The Pot has not been Ready to Play yet Or The Game is Over!\");  // && !lReadySelectWinner \n      _;\n  }\n\n  function balanceInPot() public view returns(uint){\n    return address(this).balance;\n  }\n\n  function withdraw() external onlyOwner {\n    payable(msg.sender).transfer(address(this).balance);\n  }\n\n  /*\n  function randomGenerator() private view returns (uint) {\n    return uint(\n      keccak256(\n        abi.encodePacked(\n          block.difficulty, block.timestamp, _LotteryWinnersArray ))) ;\n  }\n  */\n\n  /* ToDo : Replace This function with OpenZeppelin SafeMath */\n  /**\n    * @notice Function for deviding two Integer Numbers and return the results.\n    * @dev Safe Function for Devision Operation.\n    * @param numerator : The Integer Number which is being devided on another Integer Number.\n    * @param denominator : The Integer Number which another Int NUmber is devided by this.  \n    * @return quotient and remainder of the Devision, Both are Integer Numbers. \n  */\n  function getDivided(uint numerator, uint denominator) public pure returns(uint quotient, uint remainder) {\n    require( denominator >= 0, \"Division is Not Possible , Bug in Numbers !\");\n    require( numerator > 0, \"Division is Not Possible , Bug in Numbers !\");\n    quotient  = numerator / denominator; \n    remainder = numerator - denominator * quotient;\n  }\n\n  function potInitialize() external isAllowedManager {\n    require(lPotActive == false, \"The Weekly Pot is started before !\");\n    _LotteryWinnersArray = getLotteryWinnersArray();  \n    lPotActive = true ;\n    lReadySelectWinner = true;\n  }\n\n  function getRandomValue(address _VRFv2) public view onlyOwner returns (uint256 randomWords) {\n    // uint8 zeroOne = uint8(randomGenerator() % 2);\n    // randomWords = randomGenerator();\n    randomWords = VRFv2Consumer(_VRFv2).getlRandomWords();\n  }\n\n  function select_Winner() public onlyOwner {  \n\n    require( lReadySelectWinner == true, \"The Pot is not ready for Select the Winner\" );\n\n    // _LotteryWinnersArray = getLotteryWinnersArray();  \n    uint256 l_randomWords = getRandomValue(_VRF);\n    uint winnerIndex = l_randomWords % _LotteryWinnersArray.length;\n    uint winnerPrize = address(this).balance; // Calculation();\n    \n    emit SelectWinnerIndex(winnerIndex, address(this).balance, winnerPrize);\n    \n    UpdateLotteryData(winnerIndex, address(this).balance);\n    WinnerPrizePayment(winnerIndex, winnerPrize); \n    // FinalPayment();\n    ClearDataBase();\n\n    lPotActive = false;\n    lReadySelectWinner = false;\n\n  }\n\n  /**\n    * @notice Release Smart Contract Memory .\n    * @dev Clear All Storages .\n  */\n  function ClearDataBase() private returns (bool) {\n    bool _success;\n    _success = LotteryInterface(generatorLotteryAddr).clearlotteryWinnersArrayMap();\n    return true;\n  }\n\n  /**\n    * @notice Calculation of Pot Winner Prize.\n    * @dev Findout the 5% of the Total Pot and The Winner payment.\n  */\n  // function Calculation() internal view returns (uint winnerPrize){\n\n  //   uint totalPot = address(this).balance;\n  //   // _LotteryWinnersArray = getLotteryWinnersArray();  \n  //   // address WinnerAddress = _LotteryWinnersArray[_winnerIndex];\n  //   (winnerPrize, ) = getDivided(totalPot, 20);  // winnerPrize\n\n  // }\n\n  /**\n    * @notice Pay Pot Prize to the Winner.\n    * @dev Transfer Pot Prize to the Winner.\n  */\n  function WinnerPrizePayment(uint _winnerIndex, uint _winnerPrize) private {\n\n    // _LotteryWinnersArray = getLotteryWinnersArray();  \n    address payable potWinner = payable(_LotteryWinnersArray[_winnerIndex]);  \n    potWinner.transfer(_winnerPrize);\n    emit SelectWinnerAddress(potWinner, _winnerPrize);\n    // _LotteryWinnersArray[winnerIndex].transfer(address(this).balance);\n\n  }\n\n  /**\n    * @notice Remaining Pot Money Transfer.\n    * @dev Transfer remaining Money to the Liquidity Pool.\n  */\n  // function FinalPayment() internal {   //  onlyOwner\n\n  //   address payable receiver = payable(MonthlyPotAddress);\n  //   uint TrxValue = address(this).balance;\n  //   receiver.transfer(TrxValue);\n  //   emit TotalPayment(receiver, TrxValue);\n\n  // }\n\n  /**\n    * @notice Save The Winner Address for Weekly Lottery\n    * @dev Update Generator Smart Contract For Saving Hourly Winner Address\n  */\n  function UpdateLotteryData(uint _winnerIndex, uint _balance) private returns(bool) {\n    bool _success;\n    uint _winnerId;\n    // _LotteryWinnersArray = getLotteryWinnersArray();  \n    // address _winnerAddress = _LotteryWinnersArray[_winnerIndex];\n    potWinnerAddress = _LotteryWinnersArray[_winnerIndex];\n    _success = LotteryInterface(generatorLotteryAddr).setlotteryStructs(address(this), _balance, potWinnerAddress, 2);  // _winnerAddress\n    _winnerId = LotteryInterface(generatorLotteryAddr).setWeeklyWinnersArrayMap(potWinnerAddress);  // _winnerAddress\n    return true;\n  }\n\n  function getLotteryWinnersArray() public view returns(address[] memory) {\n    return LotteryInterface(generatorLotteryAddr).getWinners();\n  }\n\n  // function set_MonthlyPotAddress(address _MonthlyPotAddress) external onlyOwner {\n  //   require(_MonthlyPotAddress != address(0) );\n  //   MonthlyPotAddress = _MonthlyPotAddress;\n  // }\n\n  function set_generatorLotteryAddress(address _contractAddr) external onlyOwner {\n    generatorLotteryAddr = _contractAddr;\n  }\n\n  // function set_LiquidityPoolAddress(address _LiquidityPoolAddress) external onlyOwner {\n  //   require(_LiquidityPoolAddress != address(0) );\n  //   LiquidityPoolAddress = _LiquidityPoolAddress;\n  // }\n\n  // function set_MultiSigWalletAddress(address _MultiSigWalletAddress) external onlyOwner {\n  //   require(_MultiSigWalletAddress != address(0) );\n  //   MultiSigWalletAddress = _MultiSigWalletAddress;\n  // }\n\n  function setDirector(address _DirectorAddress) external onlyOwner {\n    require(_DirectorAddress != address(0) );\n    potDirector = _DirectorAddress;\n  }\n\n  function listPlayers() external view returns (address[] memory){  \n    return _LotteryWinnersArray;  \n  }\n\n  function isPotActive() public view returns(bool) {\n    return lPotActive;\n  }\n\n  function getPlayersNumber() public view returns(uint) {\n    return _LotteryWinnersArray.length;\n  }\n\n  function getWinners() public view returns(address) {\n    return potWinnerAddress;  \n  }  \n\n  function isReadySelectWinner() public view returns(bool) {\n    return lReadySelectWinner;\n  }\n\n  function getPotDirector() public view returns(address) {\n    return potDirector;\n  }\n\n}\n\n/**\n************************************************************************************\n************************************************************************************\n**/\n\n\n",
  "sourcePath": "/home/batis/SrcCode/myPRJ/SmartContBlockChain/BSCLottery/contracts/WeeklyLottery.sol",
  "compiler": {
    "name": "solc",
    "version": "0.8.9+commit.e5eed63a.Emscripten.clang"
  },
  "schemaVersion": "3.4.3",
  "updatedAt": "2022-05-20T12:02:12.005Z",
  "networkType": "ethereum",
  "devdoc": {
    "author": "Batis ",
    "details": "WeeklyLottery will be Generated by LotteryGenerator",
    "kind": "dev",
    "methods": {
      "getDivided(uint256,uint256)": {
        "details": "Safe Function for Devision Operation.",
        "params": {
          "denominator": ": The Integer Number which another Int NUmber is devided by this.  ",
          "numerator": ": The Integer Number which is being devided on another Integer Number."
        },
        "returns": {
          "quotient": "and remainder of the Devision, Both are Integer Numbers. "
        }
      },
      "owner()": {
        "details": "Returns the address of the current owner."
      },
      "renounceOwnership()": {
        "details": "Leaves the contract without owner. It will not be possible to call `onlyOwner` functions anymore. Can only be called by the current owner. NOTE: Renouncing ownership will leave the contract without an owner, thereby removing any functionality that is only available to the owner."
      },
      "transferOwnership(address)": {
        "details": "Transfers ownership of the contract to a new account (`newOwner`). Can only be called by the current owner."
      }
    },
    "title": "Weekly Lottery For BSC Lottery Game ",
    "version": 1
  },
  "userdoc": {
    "kind": "user",
    "methods": {
      "getDivided(uint256,uint256)": {
        "notice": "Function for deviding two Integer Numbers and return the results."
      }
    },
    "notice": "This SmartContract is responsible for implimentation of Weekly Pot Lottery ",
    "version": 1
  }
}