{
  "contractName": "WeeklyLottery",
  "abi": [
    {
      "inputs": [
        {
          "internalType": "address",
          "name": "VRF",
          "type": "address"
        }
      ],
      "stateMutability": "nonpayable",
      "type": "constructor"
    },
    {
      "anonymous": false,
      "inputs": [
        {
          "indexed": true,
          "internalType": "address",
          "name": "previousOwner",
          "type": "address"
        },
        {
          "indexed": true,
          "internalType": "address",
          "name": "newOwner",
          "type": "address"
        }
      ],
      "name": "OwnershipTransferred",
      "type": "event"
    },
    {
      "anonymous": false,
      "inputs": [
        {
          "indexed": false,
          "internalType": "address",
          "name": "potWinner",
          "type": "address"
        },
        {
          "indexed": false,
          "internalType": "uint256",
          "name": "winnerPrize",
          "type": "uint256"
        }
      ],
      "name": "SelectWinnerAddress",
      "type": "event"
    },
    {
      "anonymous": false,
      "inputs": [
        {
          "indexed": false,
          "internalType": "uint256",
          "name": "winnerIndex",
          "type": "uint256"
        },
        {
          "indexed": false,
          "internalType": "uint256",
          "name": "potBalance",
          "type": "uint256"
        },
        {
          "indexed": false,
          "internalType": "uint256",
          "name": "winnerPrize",
          "type": "uint256"
        }
      ],
      "name": "SelectWinnerIndex",
      "type": "event"
    },
    {
      "anonymous": false,
      "inputs": [
        {
          "indexed": false,
          "internalType": "address",
          "name": "receiver",
          "type": "address"
        },
        {
          "indexed": false,
          "internalType": "uint256",
          "name": "TrxValue",
          "type": "uint256"
        }
      ],
      "name": "TotalPayment",
      "type": "event"
    },
    {
      "stateMutability": "payable",
      "type": "fallback",
      "payable": true
    },
    {
      "inputs": [],
      "name": "owner",
      "outputs": [
        {
          "internalType": "address",
          "name": "",
          "type": "address"
        }
      ],
      "stateMutability": "view",
      "type": "function",
      "constant": true
    },
    {
      "inputs": [],
      "name": "renounceOwnership",
      "outputs": [],
      "stateMutability": "nonpayable",
      "type": "function"
    },
    {
      "inputs": [
        {
          "internalType": "address",
          "name": "newOwner",
          "type": "address"
        }
      ],
      "name": "transferOwnership",
      "outputs": [],
      "stateMutability": "nonpayable",
      "type": "function"
    },
    {
      "stateMutability": "payable",
      "type": "receive",
      "payable": true
    },
    {
      "inputs": [],
      "name": "balanceInPot",
      "outputs": [
        {
          "internalType": "uint256",
          "name": "",
          "type": "uint256"
        }
      ],
      "stateMutability": "view",
      "type": "function",
      "constant": true
    },
    {
      "inputs": [],
      "name": "withdraw",
      "outputs": [],
      "stateMutability": "nonpayable",
      "type": "function"
    },
    {
      "inputs": [
        {
          "internalType": "uint256",
          "name": "numerator",
          "type": "uint256"
        },
        {
          "internalType": "uint256",
          "name": "denominator",
          "type": "uint256"
        }
      ],
      "name": "getDivided",
      "outputs": [
        {
          "internalType": "uint256",
          "name": "quotient",
          "type": "uint256"
        },
        {
          "internalType": "uint256",
          "name": "remainder",
          "type": "uint256"
        }
      ],
      "stateMutability": "pure",
      "type": "function",
      "constant": true
    },
    {
      "inputs": [],
      "name": "potInitialize",
      "outputs": [],
      "stateMutability": "nonpayable",
      "type": "function"
    },
    {
      "inputs": [
        {
          "internalType": "address",
          "name": "_VRFv2",
          "type": "address"
        }
      ],
      "name": "getRandomValue",
      "outputs": [
        {
          "internalType": "uint256",
          "name": "randomWords",
          "type": "uint256"
        }
      ],
      "stateMutability": "view",
      "type": "function",
      "constant": true
    },
    {
      "inputs": [],
      "name": "select_Winner",
      "outputs": [],
      "stateMutability": "nonpayable",
      "type": "function"
    },
    {
      "inputs": [],
      "name": "getLotteryWinnersArray",
      "outputs": [
        {
          "internalType": "address[]",
          "name": "",
          "type": "address[]"
        }
      ],
      "stateMutability": "view",
      "type": "function",
      "constant": true
    },
    {
      "inputs": [
        {
          "internalType": "address",
          "name": "_contractAddr",
          "type": "address"
        }
      ],
      "name": "generatorLotteryAddress",
      "outputs": [],
      "stateMutability": "nonpayable",
      "type": "function"
    },
    {
      "inputs": [
        {
          "internalType": "address",
          "name": "_DirectorAddress",
          "type": "address"
        }
      ],
      "name": "setDirector",
      "outputs": [],
      "stateMutability": "nonpayable",
      "type": "function"
    },
    {
      "inputs": [],
      "name": "listPlayers",
      "outputs": [
        {
          "internalType": "address[]",
          "name": "",
          "type": "address[]"
        }
      ],
      "stateMutability": "view",
      "type": "function",
      "constant": true
    },
    {
      "inputs": [],
      "name": "isPotActive",
      "outputs": [
        {
          "internalType": "bool",
          "name": "",
          "type": "bool"
        }
      ],
      "stateMutability": "view",
      "type": "function",
      "constant": true
    },
    {
      "inputs": [],
      "name": "getPlayersNumber",
      "outputs": [
        {
          "internalType": "uint256",
          "name": "",
          "type": "uint256"
        }
      ],
      "stateMutability": "view",
      "type": "function",
      "constant": true
    },
    {
      "inputs": [],
      "name": "getWinners",
      "outputs": [
        {
          "internalType": "address",
          "name": "",
          "type": "address"
        }
      ],
      "stateMutability": "view",
      "type": "function",
      "constant": true
    },
    {
      "inputs": [],
      "name": "isReadySelectWinner",
      "outputs": [
        {
          "internalType": "bool",
          "name": "",
          "type": "bool"
        }
      ],
      "stateMutability": "view",
      "type": "function",
      "constant": true
    },
    {
      "inputs": [],
      "name": "getPotDirector",
      "outputs": [
        {
          "internalType": "address",
          "name": "",
          "type": "address"
        }
      ],
      "stateMutability": "view",
      "type": "function",
      "constant": true
    }
  ],
  "bytecode": "0x60806040523480156200001157600080fd5b50604051620021f3380380620021f383398181016040528101906200003791906200024c565b620000576200004b6200011660201b60201c565b6200011e60201b60201c565b33600360006101000a81548173ffffffffffffffffffffffffffffffffffffffff021916908373ffffffffffffffffffffffffffffffffffffffff16021790555080600160006101000a81548173ffffffffffffffffffffffffffffffffffffffff021916908373ffffffffffffffffffffffffffffffffffffffff1602179055506000600560006101000a81548160ff0219169083151502179055506000600560016101000a81548160ff021916908315150217905550506200027e565b600033905090565b60008060009054906101000a900473ffffffffffffffffffffffffffffffffffffffff169050816000806101000a81548173ffffffffffffffffffffffffffffffffffffffff021916908373ffffffffffffffffffffffffffffffffffffffff1602179055508173ffffffffffffffffffffffffffffffffffffffff168173ffffffffffffffffffffffffffffffffffffffff167f8be0079c531659141344cd1fd0a4f28419497f9722a3daafe3b4186f6b6457e060405160405180910390a35050565b600080fd5b600073ffffffffffffffffffffffffffffffffffffffff82169050919050565b60006200021482620001e7565b9050919050565b620002268162000207565b81146200023257600080fd5b50565b60008151905062000246816200021b565b92915050565b600060208284031215620002655762000264620001e2565b5b6000620002758482850162000235565b91505092915050565b611f65806200028e6000396000f3fe60806040526004361061010d5760003560e01c8063715018a6116100955780638da5cb5b116100645780638da5cb5b14610316578063c5ae6f3e14610341578063df15c37e1461036c578063e8b05e3814610397578063f2fde38b146103c257610114565b8063715018a614610280578063737bb7231461029757806374590894146102c0578063766eef11146102eb57610114565b80632ac75ab5116100dc5780632ac75ab5146101e55780633ccfd60b146101fc5780634442713c1461021357806364605d511461023e5780636c2534371461026957610114565b806314e599871461011657806314e5e90e14610141578063194d02d71461017e57806326ba4319146101bc57610114565b3661011457005b005b34801561012257600080fd5b5061012b6103eb565b604051610138919061142b565b60405180910390f35b34801561014d57600080fd5b50610168600480360381019061016391906114b8565b6103f3565b604051610175919061142b565b60405180910390f35b34801561018a57600080fd5b506101a560048036038101906101a09190611511565b6104f6565b6040516101b3929190611551565b60405180910390f35b3480156101c857600080fd5b506101e360048036038101906101de91906114b8565b6105ae565b005b3480156101f157600080fd5b506101fa6106a8565b005b34801561020857600080fd5b50610211610875565b005b34801561021f57600080fd5b5061022861093a565b6040516102359190611595565b60405180910390f35b34801561024a57600080fd5b50610253610951565b604051610260919061166e565b60405180910390f35b34801561027557600080fd5b5061027e6109df565b005b34801561028c57600080fd5b50610295610b55565b005b3480156102a357600080fd5b506102be60048036038101906102b991906114b8565b610bdd565b005b3480156102cc57600080fd5b506102d5610c9d565b6040516102e2919061166e565b60405180910390f35b3480156102f757600080fd5b50610300610d49565b60405161030d919061142b565b60405180910390f35b34801561032257600080fd5b5061032b610d56565b604051610338919061169f565b60405180910390f35b34801561034d57600080fd5b50610356610d7f565b604051610363919061169f565b60405180910390f35b34801561037857600080fd5b50610381610da9565b60405161038e919061169f565b60405180910390f35b3480156103a357600080fd5b506103ac610dd3565b6040516103b99190611595565b60405180910390f35b3480156103ce57600080fd5b506103e960048036038101906103e491906114b8565b610dea565b005b600047905090565b60006103fd610ee2565b73ffffffffffffffffffffffffffffffffffffffff1661041b610d56565b73ffffffffffffffffffffffffffffffffffffffff1614610471576040517f08c379a000000000000000000000000000000000000000000000000000000000815260040161046890611717565b60405180910390fd5b8173ffffffffffffffffffffffffffffffffffffffff166371f747906040518163ffffffff1660e01b815260040160206040518083038186803b1580156104b757600080fd5b505afa1580156104cb573d6000803e3d6000fd5b505050506040513d601f19601f820116820180604052508101906104ef919061174c565b9050919050565b600080600083101561053d576040517f08c379a0000000000000000000000000000000000000000000000000000000008152600401610534906117eb565b60405180910390fd5b60008411610580576040517f08c379a0000000000000000000000000000000000000000000000000000000008152600401610577906117eb565b60405180910390fd5b828461058c9190611869565b9150818361059a919061189a565b846105a591906118f4565b90509250929050565b6105b6610ee2565b73ffffffffffffffffffffffffffffffffffffffff166105d4610d56565b73ffffffffffffffffffffffffffffffffffffffff161461062a576040517f08c379a000000000000000000000000000000000000000000000000000000000815260040161062190611717565b60405180910390fd5b600073ffffffffffffffffffffffffffffffffffffffff168173ffffffffffffffffffffffffffffffffffffffff16141561066457600080fd5b80600560026101000a81548173ffffffffffffffffffffffffffffffffffffffff021916908373ffffffffffffffffffffffffffffffffffffffff16021790555050565b6106b0610ee2565b73ffffffffffffffffffffffffffffffffffffffff166106ce610d56565b73ffffffffffffffffffffffffffffffffffffffff1614610724576040517f08c379a000000000000000000000000000000000000000000000000000000000815260040161071b90611717565b60405180910390fd5b60011515600560019054906101000a900460ff1615151461077a576040517f08c379a00000000000000000000000000000000000000000000000000000000081526004016107719061199a565b60405180910390fd5b610782610c9d565b6004908051906020019061079792919061136b565b5060006107c5600160009054906101000a900473ffffffffffffffffffffffffffffffffffffffff166103f3565b90506000600480549050826107da91906119ba565b905060004790507f274f2e5ea35472f60f411beb007713c0f1c1b574f260789eedee1789cd49d9f5824783604051610814939291906119eb565b60405180910390a16108268247610eea565b506108318282611125565b6108396111ed565b506000600560006101000a81548160ff0219169083151502179055506000600560016101000a81548160ff021916908315150217905550505050565b61087d610ee2565b73ffffffffffffffffffffffffffffffffffffffff1661089b610d56565b73ffffffffffffffffffffffffffffffffffffffff16146108f1576040517f08c379a00000000000000000000000000000000000000000000000000000000081526004016108e890611717565b60405180910390fd5b3373ffffffffffffffffffffffffffffffffffffffff166108fc479081150290604051600060405180830381858888f19350505050158015610937573d6000803e3d6000fd5b50565b6000600560009054906101000a900460ff16905090565b606060048054806020026020016040519081016040528092919081815260200182805480156109d557602002820191906000526020600020905b8160009054906101000a900473ffffffffffffffffffffffffffffffffffffffff1673ffffffffffffffffffffffffffffffffffffffff168152602001906001019080831161098b575b5050505050905090565b600560029054906101000a900473ffffffffffffffffffffffffffffffffffffffff1673ffffffffffffffffffffffffffffffffffffffff163373ffffffffffffffffffffffffffffffffffffffff161480610a885750600360009054906101000a900473ffffffffffffffffffffffffffffffffffffffff1673ffffffffffffffffffffffffffffffffffffffff163373ffffffffffffffffffffffffffffffffffffffff16145b610ac7576040517f08c379a0000000000000000000000000000000000000000000000000000000008152600401610abe90611a6e565b60405180910390fd5b60001515600560009054906101000a900460ff16151514610b1d576040517f08c379a0000000000000000000000000000000000000000000000000000000008152600401610b1490611b00565b60405180910390fd5b6001600560006101000a81548160ff0219169083151502179055506001600560016101000a81548160ff021916908315150217905550565b610b5d610ee2565b73ffffffffffffffffffffffffffffffffffffffff16610b7b610d56565b73ffffffffffffffffffffffffffffffffffffffff1614610bd1576040517f08c379a0000000000000000000000000000000000000000000000000000000008152600401610bc890611717565b60405180910390fd5b610bdb60006112a7565b565b610be5610ee2565b73ffffffffffffffffffffffffffffffffffffffff16610c03610d56565b73ffffffffffffffffffffffffffffffffffffffff1614610c59576040517f08c379a0000000000000000000000000000000000000000000000000000000008152600401610c5090611717565b60405180910390fd5b80600260006101000a81548173ffffffffffffffffffffffffffffffffffffffff021916908373ffffffffffffffffffffffffffffffffffffffff16021790555050565b6060600260009054906101000a900473ffffffffffffffffffffffffffffffffffffffff1673ffffffffffffffffffffffffffffffffffffffff1663abaccb326040518163ffffffff1660e01b815260040160006040518083038186803b158015610d0757600080fd5b505afa158015610d1b573d6000803e3d6000fd5b505050506040513d6000823e3d601f19601f82011682018060405250810190610d449190611c8e565b905090565b6000600480549050905090565b60008060009054906101000a900473ffffffffffffffffffffffffffffffffffffffff16905090565b6000600560029054906101000a900473ffffffffffffffffffffffffffffffffffffffff16905090565b6000600660009054906101000a900473ffffffffffffffffffffffffffffffffffffffff16905090565b6000600560019054906101000a900460ff16905090565b610df2610ee2565b73ffffffffffffffffffffffffffffffffffffffff16610e10610d56565b73ffffffffffffffffffffffffffffffffffffffff1614610e66576040517f08c379a0000000000000000000000000000000000000000000000000000000008152600401610e5d90611717565b60405180910390fd5b600073ffffffffffffffffffffffffffffffffffffffff168173ffffffffffffffffffffffffffffffffffffffff161415610ed6576040517f08c379a0000000000000000000000000000000000000000000000000000000008152600401610ecd90611d49565b60405180910390fd5b610edf816112a7565b50565b600033905090565b600080600060048581548110610f0357610f02611d69565b5b9060005260206000200160009054906101000a900473ffffffffffffffffffffffffffffffffffffffff16600660006101000a81548173ffffffffffffffffffffffffffffffffffffffff021916908373ffffffffffffffffffffffffffffffffffffffff160217905550600260009054906101000a900473ffffffffffffffffffffffffffffffffffffffff1673ffffffffffffffffffffffffffffffffffffffff16637a1fa9e33086600660009054906101000a900473ffffffffffffffffffffffffffffffffffffffff1660026040518563ffffffff1660e01b8152600401610ff29493929190611dea565b602060405180830381600087803b15801561100c57600080fd5b505af1158015611020573d6000803e3d6000fd5b505050506040513d601f19601f820116820180604052508101906110449190611e5b565b9150600260009054906101000a900473ffffffffffffffffffffffffffffffffffffffff1673ffffffffffffffffffffffffffffffffffffffff166394c31c9b30600660009054906101000a900473ffffffffffffffffffffffffffffffffffffffff166040518363ffffffff1660e01b81526004016110c5929190611e88565b602060405180830381600087803b1580156110df57600080fd5b505af11580156110f3573d6000803e3d6000fd5b505050506040513d601f19601f82011682018060405250810190611117919061174c565b905060019250505092915050565b60006004838154811061113b5761113a611d69565b5b9060005260206000200160009054906101000a900473ffffffffffffffffffffffffffffffffffffffff1690508073ffffffffffffffffffffffffffffffffffffffff166108fc839081150290604051600060405180830381858888f193505050501580156111ae573d6000803e3d6000fd5b507f9b320e270eb528aa46b3a21b196f1da153ccb2d5637e892594474e969fe6b7a981836040516111e0929190611f06565b60405180910390a1505050565b600080600260009054906101000a900473ffffffffffffffffffffffffffffffffffffffff1673ffffffffffffffffffffffffffffffffffffffff166354a1ec73306040518263ffffffff1660e01b815260040161124b919061169f565b602060405180830381600087803b15801561126557600080fd5b505af1158015611279573d6000803e3d6000fd5b505050506040513d601f19601f8201168201806040525081019061129d9190611e5b565b9050600191505090565b60008060009054906101000a900473ffffffffffffffffffffffffffffffffffffffff169050816000806101000a81548173ffffffffffffffffffffffffffffffffffffffff021916908373ffffffffffffffffffffffffffffffffffffffff1602179055508173ffffffffffffffffffffffffffffffffffffffff168173ffffffffffffffffffffffffffffffffffffffff167f8be0079c531659141344cd1fd0a4f28419497f9722a3daafe3b4186f6b6457e060405160405180910390a35050565b8280548282559060005260206000209081019282156113e4579160200282015b828111156113e35782518260006101000a81548173ffffffffffffffffffffffffffffffffffffffff021916908373ffffffffffffffffffffffffffffffffffffffff1602179055509160200191906001019061138b565b5b5090506113f191906113f5565b5090565b5b8082111561140e5760008160009055506001016113f6565b5090565b6000819050919050565b61142581611412565b82525050565b6000602082019050611440600083018461141c565b92915050565b6000604051905090565b600080fd5b600080fd5b600073ffffffffffffffffffffffffffffffffffffffff82169050919050565b60006114858261145a565b9050919050565b6114958161147a565b81146114a057600080fd5b50565b6000813590506114b28161148c565b92915050565b6000602082840312156114ce576114cd611450565b5b60006114dc848285016114a3565b91505092915050565b6114ee81611412565b81146114f957600080fd5b50565b60008135905061150b816114e5565b92915050565b6000806040838503121561152857611527611450565b5b6000611536858286016114fc565b9250506020611547858286016114fc565b9150509250929050565b6000604082019050611566600083018561141c565b611573602083018461141c565b9392505050565b60008115159050919050565b61158f8161157a565b82525050565b60006020820190506115aa6000830184611586565b92915050565b600081519050919050565b600082825260208201905092915050565b6000819050602082019050919050565b6115e58161147a565b82525050565b60006115f783836115dc565b60208301905092915050565b6000602082019050919050565b600061161b826115b0565b61162581856115bb565b9350611630836115cc565b8060005b8381101561166157815161164888826115eb565b975061165383611603565b925050600181019050611634565b5085935050505092915050565b600060208201905081810360008301526116888184611610565b905092915050565b6116998161147a565b82525050565b60006020820190506116b46000830184611690565b92915050565b600082825260208201905092915050565b7f4f776e61626c653a2063616c6c6572206973206e6f7420746865206f776e6572600082015250565b60006117016020836116ba565b915061170c826116cb565b602082019050919050565b60006020820190508181036000830152611730816116f4565b9050919050565b600081519050611746816114e5565b92915050565b60006020828403121561176257611761611450565b5b600061177084828501611737565b91505092915050565b7f4469766973696f6e206973204e6f7420506f737369626c65202c20427567206960008201527f6e204e756d626572732021000000000000000000000000000000000000000000602082015250565b60006117d5602b836116ba565b91506117e082611779565b604082019050919050565b60006020820190508181036000830152611804816117c8565b9050919050565b7f4e487b7100000000000000000000000000000000000000000000000000000000600052601260045260246000fd5b7f4e487b7100000000000000000000000000000000000000000000000000000000600052601160045260246000fd5b600061187482611412565b915061187f83611412565b92508261188f5761188e61180b565b5b828204905092915050565b60006118a582611412565b91506118b083611412565b9250817fffffffffffffffffffffffffffffffffffffffffffffffffffffffffffffffff04831182151516156118e9576118e861183a565b5b828202905092915050565b60006118ff82611412565b915061190a83611412565b92508282101561191d5761191c61183a565b5b828203905092915050565b7f54686520506f74206973206e6f7420726561647920666f722053656c6563742060008201527f7468652057696e6e657200000000000000000000000000000000000000000000602082015250565b6000611984602a836116ba565b915061198f82611928565b604082019050919050565b600060208201905081810360008301526119b381611977565b9050919050565b60006119c582611412565b91506119d083611412565b9250826119e0576119df61180b565b5b828206905092915050565b6000606082019050611a00600083018661141c565b611a0d602083018561141c565b611a1a604083018461141c565b949350505050565b7f5065726d697373696f6e2044656e696564202121000000000000000000000000600082015250565b6000611a586014836116ba565b9150611a6382611a22565b602082019050919050565b60006020820190508181036000830152611a8781611a4b565b9050919050565b7f546865205765656b6c7920506f742069732073746172746564206265666f726560008201527f2021000000000000000000000000000000000000000000000000000000000000602082015250565b6000611aea6022836116ba565b9150611af582611a8e565b604082019050919050565b60006020820190508181036000830152611b1981611add565b9050919050565b600080fd5b6000601f19601f8301169050919050565b7f4e487b7100000000000000000000000000000000000000000000000000000000600052604160045260246000fd5b611b6e82611b25565b810181811067ffffffffffffffff82111715611b8d57611b8c611b36565b5b80604052505050565b6000611ba0611446565b9050611bac8282611b65565b919050565b600067ffffffffffffffff821115611bcc57611bcb611b36565b5b602082029050602081019050919050565b600080fd5b600081519050611bf18161148c565b92915050565b6000611c0a611c0584611bb1565b611b96565b90508083825260208201905060208402830185811115611c2d57611c2c611bdd565b5b835b81811015611c565780611c428882611be2565b845260208401935050602081019050611c2f565b5050509392505050565b600082601f830112611c7557611c74611b20565b5b8151611c85848260208601611bf7565b91505092915050565b600060208284031215611ca457611ca3611450565b5b600082015167ffffffffffffffff811115611cc257611cc1611455565b5b611cce84828501611c60565b91505092915050565b7f4f776e61626c653a206e6577206f776e657220697320746865207a65726f206160008201527f6464726573730000000000000000000000000000000000000000000000000000602082015250565b6000611d336026836116ba565b9150611d3e82611cd7565b604082019050919050565b60006020820190508181036000830152611d6281611d26565b9050919050565b7f4e487b7100000000000000000000000000000000000000000000000000000000600052603260045260246000fd5b6000819050919050565b600060ff82169050919050565b6000819050919050565b6000611dd4611dcf611dca84611d98565b611daf565b611da2565b9050919050565b611de481611db9565b82525050565b6000608082019050611dff6000830187611690565b611e0c602083018661141c565b611e196040830185611690565b611e266060830184611ddb565b95945050505050565b611e388161157a565b8114611e4357600080fd5b50565b600081519050611e5581611e2f565b92915050565b600060208284031215611e7157611e70611450565b5b6000611e7f84828501611e46565b91505092915050565b6000604082019050611e9d6000830185611690565b611eaa6020830184611690565b9392505050565b6000611ecc611ec7611ec28461145a565b611daf565b61145a565b9050919050565b6000611ede82611eb1565b9050919050565b6000611ef082611ed3565b9050919050565b611f0081611ee5565b82525050565b6000604082019050611f1b6000830185611ef7565b611f28602083018461141c565b939250505056fea2646970667358221220467dccd8f1c9dbc472285bdcc752e4eb0b26223ee7e9c22f808d203ba64e0f3264736f6c63430008090033",
  "immutableReferences": {},
  "source": "// SPDX-License-Identifier: MIT\npragma solidity ^0.8.0;\n// pragma experimental ABIEncoderV2;\n\n/* ToDo : Use Ownable OpenZeppelin */\nimport \"@openzeppelin/contracts/access/Ownable.sol\";\nimport \"@openzeppelin/contracts/utils/math/SafeMath.sol\";\n\n// import \"./LotteryGenerator.sol\";\nimport \"./VRFv2Consumer.sol\";\nimport \"./VRFv2SubscriptionManager.sol\";\n\nimport \"./LotteryCore.sol\";\n\n// import \"truffle/Console.sol\";\n// import \"hardhat/console.sol\";\n\nimport \"./LotteryInterface.sol\";\n\n// interface IilotteryGenerator {\n//     function LotteryWinnersArray() external view returns (address[] memory);\n//     function setlotteryStructs(address _lotteryAddress, uint _totalBalance, address _winnerAddress, uint8 _lotteryType) external returns (bool);\n//     function setWeeklyWinnersArrayMap(address _lotteryAddress, address _winnerAddress) external returns (uint);\n//     function clearlotteryWinnersArrayMap(address _lotteryAddress) external returns (bool);\n// }\n\n\n/**\n************************************************************************************\n************************************************************************************\n\n\n/**\n************************************************************************************\n************************************************************************************\n**/\n/**\n  * @title Weekly Lottery For BSC Lottery Game \n  * @author Batis \n  * @notice This SmartContract is responsible for implimentation of Weekly Pot Lottery \n  * @dev WeeklyLottery will be Generated by LotteryGenerator\n*/\ncontract WeeklyLottery is Ownable {\n\n  address private _VRF;\n  address private generatorLotteryAddr;\n  // address private LiquidityPoolAddress;\n  // address private MultiSigWalletAddress;\n  // address private MonthlyPotAddress;   \n  address private LotteryOwner;\n\n  address[] private _LotteryWinnersArray;\n  bool private lPotActive;  \n  bool private lReadySelectWinner; \n  address private potDirector;  /* ToDo: All Main Action must be controlled only by Owner or Director */\n  address private potWinnerAddress;\n\n  event SelectWinnerIndex(uint winnerIndex, uint potBalance, uint winnerPrize);\n  event SelectWinnerAddress(address potWinner, uint winnerPrize);\n  event TotalPayment(address receiver, uint TrxValue);\n\n  constructor(address VRF) {   // , address lOwner\n    LotteryOwner = msg.sender;\n    _VRF = VRF;\n    lPotActive = false;\n    lReadySelectWinner = false;\n  }\n\n  /* ToDo : Add & Complete Fallback routine */\n  fallback() external payable {\n  }\n  receive() external payable {\n  }\n\n  modifier isAllowedManager() {\n      require( msg.sender == potDirector || msg.sender == LotteryOwner , \"Permission Denied !!\" );\n      _;\n  }\n\n  modifier isGameOn() {\n      require(lPotActive , \"The Pot has not been Ready to Play yet Or The Game is Over!\");  // && !lReadySelectWinner \n      _;\n  }\n\n  function balanceInPot() public view returns(uint){\n    return address(this).balance;\n  }\n\n  function withdraw() external onlyOwner {\n    payable(msg.sender).transfer(address(this).balance);\n  }\n\n  /*\n  function randomGenerator() private view returns (uint) {\n    return uint(\n      keccak256(\n        abi.encodePacked(\n          block.difficulty, block.timestamp, potTickets ))) ;\n  }\n  */\n\n  /* ToDo : Replace This function with OpenZeppelin SafeMath */\n  /**\n    * @notice Function for deviding two Integer Numbers and return the results.\n    * @dev Safe Function for Devision Operation.\n    * @param numerator : The Integer Number which is being devided on another Integer Number.\n    * @param denominator : The Integer Number which another Int NUmber is devided by this.  \n    * @return quotient and remainder of the Devision, Both are Integer Numbers. \n  */\n  function getDivided(uint numerator, uint denominator) public pure returns(uint quotient, uint remainder) {\n    require( denominator >= 0, \"Division is Not Possible , Bug in Numbers !\");\n    require( numerator > 0, \"Division is Not Possible , Bug in Numbers !\");\n    quotient  = numerator / denominator; \n    remainder = numerator - denominator * quotient;\n  }\n\n  function potInitialize() external isAllowedManager {\n    require(lPotActive == false, \"The Weekly Pot is started before !\");\n    lPotActive = true ;\n    lReadySelectWinner = true;\n  }\n\n  function getRandomValue(address _VRFv2) public view onlyOwner returns (uint256 randomWords) {\n    // uint8 zeroOne = uint8(randomGenerator() % 2);\n    // randomWords = randomGenerator();\n    randomWords = VRFv2Consumer(_VRFv2).getlRandomWords();\n  }\n\n  function select_Winner() public onlyOwner {  \n\n    require( lReadySelectWinner == true, \"The Pot is not ready for Select the Winner\" );\n\n    _LotteryWinnersArray = getLotteryWinnersArray();  \n    uint256 l_randomWords = getRandomValue(_VRF);\n    uint winnerIndex = l_randomWords % _LotteryWinnersArray.length;\n    uint winnerPrize = address(this).balance; // Calculation();\n    \n    emit SelectWinnerIndex(winnerIndex, address(this).balance, winnerPrize);\n    \n    UpdateLotteryData(winnerIndex, address(this).balance);\n    WinnerPrizePayment(winnerIndex, winnerPrize); \n    // FinalPayment();\n    ClearDataBase();\n\n    lPotActive = false;\n    lReadySelectWinner = false;\n\n  }\n\n  /**\n    * @notice Release Smart Contract Memory .\n    * @dev Clear All Storages .\n  */\n  function ClearDataBase() private returns (bool) {\n    bool _success;\n    _success = LotteryInterface(generatorLotteryAddr).clearlotteryWinnersArrayMap(address(this));\n    return true;\n  }\n\n  /**\n    * @notice Calculation of Pot Winner Prize.\n    * @dev Findout the 5% of the Total Pot and The Winner payment.\n  */\n  // function Calculation() internal view returns (uint winnerPrize){\n\n  //   uint totalPot = address(this).balance;\n  //   // _LotteryWinnersArray = getLotteryWinnersArray();  \n  //   // address WinnerAddress = _LotteryWinnersArray[_winnerIndex];\n  //   (winnerPrize, ) = getDivided(totalPot, 20);  // winnerPrize\n\n  // }\n\n  /**\n    * @notice Pay Pot Prize to the Winner.\n    * @dev Transfer Pot Prize to the Winner.\n  */\n  function WinnerPrizePayment(uint _winnerIndex, uint _winnerPrize) private {\n\n    // _LotteryWinnersArray = getLotteryWinnersArray();  \n    address payable potWinner = payable(_LotteryWinnersArray[_winnerIndex]);  \n    potWinner.transfer(_winnerPrize);\n    emit SelectWinnerAddress(potWinner, _winnerPrize);\n    // _LotteryWinnersArray[winnerIndex].transfer(address(this).balance);\n\n  }\n\n  /**\n    * @notice Remaining Pot Money Transfer.\n    * @dev Transfer remaining Money to the Liquidity Pool.\n  */\n  // function FinalPayment() internal {   //  onlyOwner\n\n  //   address payable receiver = payable(MonthlyPotAddress);\n  //   uint TrxValue = address(this).balance;\n  //   receiver.transfer(TrxValue);\n  //   emit TotalPayment(receiver, TrxValue);\n\n  // }\n\n  /**\n    * @notice Save The Winner Address for Weekly Lottery\n    * @dev Update Generator Smart Contract For Saving Hourly Winner Address\n  */\n  function UpdateLotteryData(uint _winnerIndex, uint _balance) private returns(bool) {\n    bool _success;\n    uint _winnerId;\n    // _LotteryWinnersArray = getLotteryWinnersArray();  \n    // address _winnerAddress = _LotteryWinnersArray[_winnerIndex];\n    potWinnerAddress = _LotteryWinnersArray[_winnerIndex];\n    _success = LotteryInterface(generatorLotteryAddr).setlotteryStructs(address(this), _balance, potWinnerAddress, 2);  // _winnerAddress\n    _winnerId = LotteryInterface(generatorLotteryAddr).setWeeklyWinnersArrayMap(address(this), potWinnerAddress);  // _winnerAddress\n    return true;\n  }\n\n  function getLotteryWinnersArray() public view returns(address[] memory) {\n    return LotteryInterface(generatorLotteryAddr).LotteryWinnersArray();\n  }\n\n  // function set_MonthlyPotAddress(address _MonthlyPotAddress) external onlyOwner {\n  //   require(_MonthlyPotAddress != address(0) );\n  //   MonthlyPotAddress = _MonthlyPotAddress;\n  // }\n\n  function generatorLotteryAddress(address _contractAddr) external onlyOwner {\n    generatorLotteryAddr = _contractAddr;\n  }\n\n  // function set_LiquidityPoolAddress(address _LiquidityPoolAddress) external onlyOwner {\n  //   require(_LiquidityPoolAddress != address(0) );\n  //   LiquidityPoolAddress = _LiquidityPoolAddress;\n  // }\n\n  // function set_MultiSigWalletAddress(address _MultiSigWalletAddress) external onlyOwner {\n  //   require(_MultiSigWalletAddress != address(0) );\n  //   MultiSigWalletAddress = _MultiSigWalletAddress;\n  // }\n\n  function setDirector(address _DirectorAddress) external onlyOwner {\n    require(_DirectorAddress != address(0) );\n    potDirector = _DirectorAddress;\n  }\n\n  function listPlayers() external view returns (address[] memory){  \n    return _LotteryWinnersArray;  \n  }\n\n  function isPotActive() public view returns(bool) {\n    return lPotActive;\n  }\n\n  function getPlayersNumber() public view returns(uint) {\n    return _LotteryWinnersArray.length;\n  }\n\n  function getWinners() public view returns(address) {\n    return potWinnerAddress;  \n  }  \n\n  function isReadySelectWinner() public view returns(bool) {\n    return lReadySelectWinner;\n  }\n\n  function getPotDirector() public view returns(address) {\n    return potDirector;\n  }\n\n}\n\n/**\n************************************************************************************\n************************************************************************************\n**/\n\n\n",
  "sourcePath": "/home/batis/SrcCode/myPRJ/SmartContBlockChain/BSCLottery/contracts/WeeklyLottery.sol",
  "compiler": {
    "name": "solc",
    "version": "0.8.9+commit.e5eed63a.Emscripten.clang"
  },
  "schemaVersion": "3.4.3",
  "updatedAt": "2022-05-13T11:13:24.021Z",
  "networkType": "ethereum",
  "devdoc": {
    "author": "Batis ",
    "details": "WeeklyLottery will be Generated by LotteryGenerator",
    "kind": "dev",
    "methods": {
      "getDivided(uint256,uint256)": {
        "details": "Safe Function for Devision Operation.",
        "params": {
          "denominator": ": The Integer Number which another Int NUmber is devided by this.  ",
          "numerator": ": The Integer Number which is being devided on another Integer Number."
        },
        "returns": {
          "quotient": "and remainder of the Devision, Both are Integer Numbers. "
        }
      },
      "owner()": {
        "details": "Returns the address of the current owner."
      },
      "renounceOwnership()": {
        "details": "Leaves the contract without owner. It will not be possible to call `onlyOwner` functions anymore. Can only be called by the current owner. NOTE: Renouncing ownership will leave the contract without an owner, thereby removing any functionality that is only available to the owner."
      },
      "transferOwnership(address)": {
        "details": "Transfers ownership of the contract to a new account (`newOwner`). Can only be called by the current owner."
      }
    },
    "title": "Weekly Lottery For BSC Lottery Game ",
    "version": 1
  },
  "userdoc": {
    "kind": "user",
    "methods": {
      "getDivided(uint256,uint256)": {
        "notice": "Function for deviding two Integer Numbers and return the results."
      }
    },
    "notice": "This SmartContract is responsible for implimentation of Weekly Pot Lottery ",
    "version": 1
  }
}