{
  "contractName": "WeeklyLottery",
  "abi": [
    {
      "inputs": [
        {
          "internalType": "address",
          "name": "VRF",
          "type": "address"
        }
      ],
      "stateMutability": "nonpayable",
      "type": "constructor"
    },
    {
      "anonymous": false,
      "inputs": [
        {
          "indexed": true,
          "internalType": "address",
          "name": "previousOwner",
          "type": "address"
        },
        {
          "indexed": true,
          "internalType": "address",
          "name": "newOwner",
          "type": "address"
        }
      ],
      "name": "OwnershipTransferred",
      "type": "event"
    },
    {
      "anonymous": false,
      "inputs": [
        {
          "indexed": false,
          "internalType": "address",
          "name": "potWinner",
          "type": "address"
        },
        {
          "indexed": false,
          "internalType": "uint256",
          "name": "winnerPrize",
          "type": "uint256"
        }
      ],
      "name": "SelectWinnerAddress",
      "type": "event"
    },
    {
      "anonymous": false,
      "inputs": [
        {
          "indexed": false,
          "internalType": "uint256",
          "name": "winnerIndex",
          "type": "uint256"
        },
        {
          "indexed": false,
          "internalType": "uint256",
          "name": "potBalance",
          "type": "uint256"
        },
        {
          "indexed": false,
          "internalType": "uint256",
          "name": "winnerPrize",
          "type": "uint256"
        }
      ],
      "name": "SelectWinnerIndex",
      "type": "event"
    },
    {
      "anonymous": false,
      "inputs": [
        {
          "indexed": false,
          "internalType": "address",
          "name": "receiver",
          "type": "address"
        },
        {
          "indexed": false,
          "internalType": "uint256",
          "name": "TrxValue",
          "type": "uint256"
        }
      ],
      "name": "TotalPayment",
      "type": "event"
    },
    {
      "stateMutability": "payable",
      "type": "fallback"
    },
    {
      "inputs": [],
      "name": "owner",
      "outputs": [
        {
          "internalType": "address",
          "name": "",
          "type": "address"
        }
      ],
      "stateMutability": "view",
      "type": "function"
    },
    {
      "inputs": [],
      "name": "renounceOwnership",
      "outputs": [],
      "stateMutability": "nonpayable",
      "type": "function"
    },
    {
      "inputs": [
        {
          "internalType": "address",
          "name": "newOwner",
          "type": "address"
        }
      ],
      "name": "transferOwnership",
      "outputs": [],
      "stateMutability": "nonpayable",
      "type": "function"
    },
    {
      "stateMutability": "payable",
      "type": "receive"
    },
    {
      "inputs": [],
      "name": "balanceInPot",
      "outputs": [
        {
          "internalType": "uint256",
          "name": "",
          "type": "uint256"
        }
      ],
      "stateMutability": "view",
      "type": "function"
    },
    {
      "inputs": [],
      "name": "withdraw",
      "outputs": [],
      "stateMutability": "nonpayable",
      "type": "function"
    },
    {
      "inputs": [
        {
          "internalType": "address",
          "name": "_VRFv2",
          "type": "address"
        }
      ],
      "name": "getRandomValue",
      "outputs": [
        {
          "internalType": "uint256",
          "name": "randomWords",
          "type": "uint256"
        }
      ],
      "stateMutability": "view",
      "type": "function"
    },
    {
      "inputs": [
        {
          "internalType": "uint256",
          "name": "numerator",
          "type": "uint256"
        },
        {
          "internalType": "uint256",
          "name": "denominator",
          "type": "uint256"
        }
      ],
      "name": "getDivided",
      "outputs": [
        {
          "internalType": "uint256",
          "name": "quotient",
          "type": "uint256"
        },
        {
          "internalType": "uint256",
          "name": "remainder",
          "type": "uint256"
        }
      ],
      "stateMutability": "pure",
      "type": "function"
    },
    {
      "inputs": [],
      "name": "select_Winner",
      "outputs": [],
      "stateMutability": "nonpayable",
      "type": "function"
    },
    {
      "inputs": [
        {
          "internalType": "address",
          "name": "_contractAddr",
          "type": "address"
        }
      ],
      "name": "generatorLotteryAddress",
      "outputs": [],
      "stateMutability": "nonpayable",
      "type": "function"
    },
    {
      "inputs": [],
      "name": "listPlayers",
      "outputs": [
        {
          "internalType": "address[]",
          "name": "",
          "type": "address[]"
        }
      ],
      "stateMutability": "view",
      "type": "function"
    }
  ],
  "bytecode": "0x60806040523480156200001157600080fd5b50604051620019fd380380620019fd8339818101604052810190620000379190620001d5565b620000576200004b6200009f60201b60201c565b620000a760201b60201c565b80600160006101000a81548173ffffffffffffffffffffffffffffffffffffffff021916908373ffffffffffffffffffffffffffffffffffffffff1602179055505062000207565b600033905090565b60008060009054906101000a900473ffffffffffffffffffffffffffffffffffffffff169050816000806101000a81548173ffffffffffffffffffffffffffffffffffffffff021916908373ffffffffffffffffffffffffffffffffffffffff1602179055508173ffffffffffffffffffffffffffffffffffffffff168173ffffffffffffffffffffffffffffffffffffffff167f8be0079c531659141344cd1fd0a4f28419497f9722a3daafe3b4186f6b6457e060405160405180910390a35050565b600080fd5b600073ffffffffffffffffffffffffffffffffffffffff82169050919050565b60006200019d8262000170565b9050919050565b620001af8162000190565b8114620001bb57600080fd5b50565b600081519050620001cf81620001a4565b92915050565b600060208284031215620001ee57620001ed6200016b565b5b6000620001fe84828501620001be565b91505092915050565b6117e680620002176000396000f3fe6080604052600436106100955760003560e01c806364605d511161005957806364605d5114610172578063715018a61461019d578063737bb723146101b45780638da5cb5b146101dd578063f2fde38b146102085761009c565b806314e599871461009e57806314e5e90e146100c9578063194d02d7146101065780632ac75ab5146101445780633ccfd60b1461015b5761009c565b3661009c57005b005b3480156100aa57600080fd5b506100b3610231565b6040516100c09190610e66565b60405180910390f35b3480156100d557600080fd5b506100f060048036038101906100eb9190610ef3565b610239565b6040516100fd9190610e66565b60405180910390f35b34801561011257600080fd5b5061012d60048036038101906101289190610f4c565b61033c565b60405161013b929190610f8c565b60405180910390f35b34801561015057600080fd5b506101596103f4565b005b34801561016757600080fd5b50610170610535565b005b34801561017e57600080fd5b506101876105fa565b6040516101949190611073565b60405180910390f35b3480156101a957600080fd5b506101b2610688565b005b3480156101c057600080fd5b506101db60048036038101906101d69190610ef3565b610710565b005b3480156101e957600080fd5b506101f26107d0565b6040516101ff91906110a4565b60405180910390f35b34801561021457600080fd5b5061022f600480360381019061022a9190610ef3565b6107f9565b005b600047905090565b60006102436108f1565b73ffffffffffffffffffffffffffffffffffffffff166102616107d0565b73ffffffffffffffffffffffffffffffffffffffff16146102b7576040517f08c379a00000000000000000000000000000000000000000000000000000000081526004016102ae9061111c565b60405180910390fd5b8173ffffffffffffffffffffffffffffffffffffffff166371f747906040518163ffffffff1660e01b815260040160206040518083038186803b1580156102fd57600080fd5b505afa158015610311573d6000803e3d6000fd5b505050506040513d601f19601f820116820180604052508101906103359190611151565b9050919050565b6000806000831015610383576040517f08c379a000000000000000000000000000000000000000000000000000000000815260040161037a906111f0565b60405180910390fd5b600084116103c6576040517f08c379a00000000000000000000000000000000000000000000000000000000081526004016103bd906111f0565b60405180910390fd5b82846103d2919061126e565b915081836103e0919061129f565b846103eb91906112f9565b90509250929050565b6103fc6108f1565b73ffffffffffffffffffffffffffffffffffffffff1661041a6107d0565b73ffffffffffffffffffffffffffffffffffffffff1614610470576040517f08c379a00000000000000000000000000000000000000000000000000000000081526004016104679061111c565b60405180910390fd5b6104786108f9565b6003908051906020019061048d929190610da6565b5060006104bb600160009054906101000a900473ffffffffffffffffffffffffffffffffffffffff16610239565b90506000600380549050826104d0919061132d565b905060004790507f274f2e5ea35472f60f411beb007713c0f1c1b574f260789eedee1789cd49d9f582478360405161050a9392919061135e565b60405180910390a161051c82476109a5565b506105278282610b60565b61052f610c28565b50505050565b61053d6108f1565b73ffffffffffffffffffffffffffffffffffffffff1661055b6107d0565b73ffffffffffffffffffffffffffffffffffffffff16146105b1576040517f08c379a00000000000000000000000000000000000000000000000000000000081526004016105a89061111c565b60405180910390fd5b3373ffffffffffffffffffffffffffffffffffffffff166108fc479081150290604051600060405180830381858888f193505050501580156105f7573d6000803e3d6000fd5b50565b6060600380548060200260200160405190810160405280929190818152602001828054801561067e57602002820191906000526020600020905b8160009054906101000a900473ffffffffffffffffffffffffffffffffffffffff1673ffffffffffffffffffffffffffffffffffffffff1681526020019060010190808311610634575b5050505050905090565b6106906108f1565b73ffffffffffffffffffffffffffffffffffffffff166106ae6107d0565b73ffffffffffffffffffffffffffffffffffffffff1614610704576040517f08c379a00000000000000000000000000000000000000000000000000000000081526004016106fb9061111c565b60405180910390fd5b61070e6000610ce2565b565b6107186108f1565b73ffffffffffffffffffffffffffffffffffffffff166107366107d0565b73ffffffffffffffffffffffffffffffffffffffff161461078c576040517f08c379a00000000000000000000000000000000000000000000000000000000081526004016107839061111c565b60405180910390fd5b80600260006101000a81548173ffffffffffffffffffffffffffffffffffffffff021916908373ffffffffffffffffffffffffffffffffffffffff16021790555050565b60008060009054906101000a900473ffffffffffffffffffffffffffffffffffffffff16905090565b6108016108f1565b73ffffffffffffffffffffffffffffffffffffffff1661081f6107d0565b73ffffffffffffffffffffffffffffffffffffffff1614610875576040517f08c379a000000000000000000000000000000000000000000000000000000000815260040161086c9061111c565b60405180910390fd5b600073ffffffffffffffffffffffffffffffffffffffff168173ffffffffffffffffffffffffffffffffffffffff1614156108e5576040517f08c379a00000000000000000000000000000000000000000000000000000000081526004016108dc90611407565b60405180910390fd5b6108ee81610ce2565b50565b600033905090565b6060600260009054906101000a900473ffffffffffffffffffffffffffffffffffffffff1673ffffffffffffffffffffffffffffffffffffffff1663abaccb326040518163ffffffff1660e01b815260040160006040518083038186803b15801561096357600080fd5b505afa158015610977573d6000803e3d6000fd5b505050506040513d6000823e3d601f19601f820116820180604052508101906109a09190611595565b905090565b600080600080600386815481106109bf576109be6115de565b5b9060005260206000200160009054906101000a900473ffffffffffffffffffffffffffffffffffffffff169050600260009054906101000a900473ffffffffffffffffffffffffffffffffffffffff1673ffffffffffffffffffffffffffffffffffffffff16637a1fa9e330878460026040518563ffffffff1660e01b8152600401610a4e949392919061165f565b602060405180830381600087803b158015610a6857600080fd5b505af1158015610a7c573d6000803e3d6000fd5b505050506040513d601f19601f82011682018060405250810190610aa091906116dc565b9250600260009054906101000a900473ffffffffffffffffffffffffffffffffffffffff1673ffffffffffffffffffffffffffffffffffffffff166394c31c9b30836040518363ffffffff1660e01b8152600401610aff929190611709565b602060405180830381600087803b158015610b1957600080fd5b505af1158015610b2d573d6000803e3d6000fd5b505050506040513d601f19601f82011682018060405250810190610b519190611151565b91506001935050505092915050565b600060038381548110610b7657610b756115de565b5b9060005260206000200160009054906101000a900473ffffffffffffffffffffffffffffffffffffffff1690508073ffffffffffffffffffffffffffffffffffffffff166108fc839081150290604051600060405180830381858888f19350505050158015610be9573d6000803e3d6000fd5b507f9b320e270eb528aa46b3a21b196f1da153ccb2d5637e892594474e969fe6b7a98183604051610c1b929190611787565b60405180910390a1505050565b600080600260009054906101000a900473ffffffffffffffffffffffffffffffffffffffff1673ffffffffffffffffffffffffffffffffffffffff166354a1ec73306040518263ffffffff1660e01b8152600401610c8691906110a4565b602060405180830381600087803b158015610ca057600080fd5b505af1158015610cb4573d6000803e3d6000fd5b505050506040513d601f19601f82011682018060405250810190610cd891906116dc565b9050600191505090565b60008060009054906101000a900473ffffffffffffffffffffffffffffffffffffffff169050816000806101000a81548173ffffffffffffffffffffffffffffffffffffffff021916908373ffffffffffffffffffffffffffffffffffffffff1602179055508173ffffffffffffffffffffffffffffffffffffffff168173ffffffffffffffffffffffffffffffffffffffff167f8be0079c531659141344cd1fd0a4f28419497f9722a3daafe3b4186f6b6457e060405160405180910390a35050565b828054828255906000526020600020908101928215610e1f579160200282015b82811115610e1e5782518260006101000a81548173ffffffffffffffffffffffffffffffffffffffff021916908373ffffffffffffffffffffffffffffffffffffffff16021790555091602001919060010190610dc6565b5b509050610e2c9190610e30565b5090565b5b80821115610e49576000816000905550600101610e31565b5090565b6000819050919050565b610e6081610e4d565b82525050565b6000602082019050610e7b6000830184610e57565b92915050565b6000604051905090565b600080fd5b600080fd5b600073ffffffffffffffffffffffffffffffffffffffff82169050919050565b6000610ec082610e95565b9050919050565b610ed081610eb5565b8114610edb57600080fd5b50565b600081359050610eed81610ec7565b92915050565b600060208284031215610f0957610f08610e8b565b5b6000610f1784828501610ede565b91505092915050565b610f2981610e4d565b8114610f3457600080fd5b50565b600081359050610f4681610f20565b92915050565b60008060408385031215610f6357610f62610e8b565b5b6000610f7185828601610f37565b9250506020610f8285828601610f37565b9150509250929050565b6000604082019050610fa16000830185610e57565b610fae6020830184610e57565b9392505050565b600081519050919050565b600082825260208201905092915050565b6000819050602082019050919050565b610fea81610eb5565b82525050565b6000610ffc8383610fe1565b60208301905092915050565b6000602082019050919050565b600061102082610fb5565b61102a8185610fc0565b935061103583610fd1565b8060005b8381101561106657815161104d8882610ff0565b975061105883611008565b925050600181019050611039565b5085935050505092915050565b6000602082019050818103600083015261108d8184611015565b905092915050565b61109e81610eb5565b82525050565b60006020820190506110b96000830184611095565b92915050565b600082825260208201905092915050565b7f4f776e61626c653a2063616c6c6572206973206e6f7420746865206f776e6572600082015250565b60006111066020836110bf565b9150611111826110d0565b602082019050919050565b60006020820190508181036000830152611135816110f9565b9050919050565b60008151905061114b81610f20565b92915050565b60006020828403121561116757611166610e8b565b5b60006111758482850161113c565b91505092915050565b7f4469766973696f6e206973204e6f7420506f737369626c65202c20427567206960008201527f6e204e756d626572732021000000000000000000000000000000000000000000602082015250565b60006111da602b836110bf565b91506111e58261117e565b604082019050919050565b60006020820190508181036000830152611209816111cd565b9050919050565b7f4e487b7100000000000000000000000000000000000000000000000000000000600052601260045260246000fd5b7f4e487b7100000000000000000000000000000000000000000000000000000000600052601160045260246000fd5b600061127982610e4d565b915061128483610e4d565b92508261129457611293611210565b5b828204905092915050565b60006112aa82610e4d565b91506112b583610e4d565b9250817fffffffffffffffffffffffffffffffffffffffffffffffffffffffffffffffff04831182151516156112ee576112ed61123f565b5b828202905092915050565b600061130482610e4d565b915061130f83610e4d565b9250828210156113225761132161123f565b5b828203905092915050565b600061133882610e4d565b915061134383610e4d565b92508261135357611352611210565b5b828206905092915050565b60006060820190506113736000830186610e57565b6113806020830185610e57565b61138d6040830184610e57565b949350505050565b7f4f776e61626c653a206e6577206f776e657220697320746865207a65726f206160008201527f6464726573730000000000000000000000000000000000000000000000000000602082015250565b60006113f16026836110bf565b91506113fc82611395565b604082019050919050565b60006020820190508181036000830152611420816113e4565b9050919050565b600080fd5b6000601f19601f8301169050919050565b7f4e487b7100000000000000000000000000000000000000000000000000000000600052604160045260246000fd5b6114758261142c565b810181811067ffffffffffffffff821117156114945761149361143d565b5b80604052505050565b60006114a7610e81565b90506114b3828261146c565b919050565b600067ffffffffffffffff8211156114d3576114d261143d565b5b602082029050602081019050919050565b600080fd5b6000815190506114f881610ec7565b92915050565b600061151161150c846114b8565b61149d565b90508083825260208201905060208402830185811115611534576115336114e4565b5b835b8181101561155d578061154988826114e9565b845260208401935050602081019050611536565b5050509392505050565b600082601f83011261157c5761157b611427565b5b815161158c8482602086016114fe565b91505092915050565b6000602082840312156115ab576115aa610e8b565b5b600082015167ffffffffffffffff8111156115c9576115c8610e90565b5b6115d584828501611567565b91505092915050565b7f4e487b7100000000000000000000000000000000000000000000000000000000600052603260045260246000fd5b6000819050919050565b600060ff82169050919050565b6000819050919050565b600061164961164461163f8461160d565b611624565b611617565b9050919050565b6116598161162e565b82525050565b60006080820190506116746000830187611095565b6116816020830186610e57565b61168e6040830185611095565b61169b6060830184611650565b95945050505050565b60008115159050919050565b6116b9816116a4565b81146116c457600080fd5b50565b6000815190506116d6816116b0565b92915050565b6000602082840312156116f2576116f1610e8b565b5b6000611700848285016116c7565b91505092915050565b600060408201905061171e6000830185611095565b61172b6020830184611095565b9392505050565b600061174d61174861174384610e95565b611624565b610e95565b9050919050565b600061175f82611732565b9050919050565b600061177182611754565b9050919050565b61178181611766565b82525050565b600060408201905061179c6000830185611778565b6117a96020830184610e57565b939250505056fea2646970667358221220c14e8a0e98e1b3d23747a0a513009a6540b2159e2f99d3918ef5e16da58cb1be64736f6c63430008090033",
  "immutableReferences": {},
  "source": "// SPDX-License-Identifier: MIT\npragma solidity ^0.8.0;\n// pragma experimental ABIEncoderV2;\n\n/* ToDo : Use Ownable OpenZeppelin */\nimport \"@openzeppelin/contracts/access/Ownable.sol\";\nimport \"@openzeppelin/contracts/utils/math/SafeMath.sol\";\n\n// import \"./LotteryGenerator.sol\";\nimport \"./VRFv2Consumer.sol\";\nimport \"./VRFv2SubscriptionManager.sol\";\n\nimport \"./LotteryCore.sol\";\n\n// import \"truffle/Console.sol\";\n// import \"hardhat/console.sol\";\n\nimport \"./LotteryInterface.sol\";\n\n// interface IilotteryGenerator {\n//     function LotteryWinnersArray() external view returns (address[] memory);\n//     function setlotteryStructs(address _lotteryAddress, uint _totalBalance, address _winnerAddress, uint8 _lotteryType) external returns (bool);\n//     function setWeeklyWinnersArrayMap(address _lotteryAddress, address _winnerAddress) external returns (uint);\n//     function clearlotteryWinnersArrayMap(address _lotteryAddress) external returns (bool);\n// }\n\n\n/**\n************************************************************************************\n************************************************************************************\n\n\n/**\n************************************************************************************\n************************************************************************************\n**/\n/**\n  * @title Weekly Lottery For BSC Lottery Game \n  * @author Batis \n  * @notice This SmartContract is responsible for implimentation of Weekly Pot Lottery \n  * @dev WeeklyLottery will be Generated by LotteryGenerator\n*/\ncontract WeeklyLottery is Ownable {\n\n  address private _VRF;\n  address private generatorLotteryAddr;\n  // address private LiquidityPoolAddress;\n  // address private MultiSigWalletAddress;\n  // address private MonthlyPotAddress;   \n\n  address[] private _LotteryWinnersArray;\n  bool private lPotActive;  \n  bool private lReadySelectWinner; \n  address private potDirector;  /* ToDo: All Main Action must be controlled only by Owner or Director */\n  \n  event SelectWinnerIndex(uint winnerIndex, uint potBalance, uint winnerPrize);\n  event SelectWinnerAddress(address potWinner, uint winnerPrize);\n  event TotalPayment(address receiver, uint TrxValue);\n\n  constructor(address VRF) {   // , address lOwner\n    _VRF = VRF;\n  }\n\n  fallback() external payable {\n  }\n  receive() external payable {\n  }\n\n  function balanceInPot() public view returns(uint){\n    return address(this).balance;\n  }\n\n  function withdraw() external onlyOwner {\n    payable(msg.sender).transfer(address(this).balance);\n  }\n\n  /*\n  function randomGenerator() private view returns (uint) {\n    return uint(\n      keccak256(\n        abi.encodePacked(\n          block.difficulty, block.timestamp, potTickets ))) ;\n  }\n  */\n\n  function getRandomValue(address _VRFv2) public view onlyOwner returns (uint256 randomWords) {\n    // uint8 zeroOne = uint8(randomGenerator() % 2);\n    // randomWords = randomGenerator();\n    randomWords = VRFv2Consumer(_VRFv2).getlRandomWords();\n  }\n\n  /* ToDo : Replace This function with OpenZeppelin SafeMath */\n  /**\n    * @notice Function for deviding two Integer Numbers and return the results.\n    * @dev Safe Function for Devision Operation.\n    * @param numerator : The Integer Number which is being devided on another Integer Number.\n    * @param denominator : The Integer Number which another Int NUmber is devided by this.  \n    * @return quotient and remainder of the Devision, Both are Integer Numbers. \n  */\n  function getDivided(uint numerator, uint denominator) public pure returns(uint quotient, uint remainder) {\n    require( denominator >= 0, \"Division is Not Possible , Bug in Numbers !\");\n    require( numerator > 0, \"Division is Not Possible , Bug in Numbers !\");\n    quotient  = numerator / denominator; \n    remainder = numerator - denominator * quotient;\n  }\n\n  function select_Winner() public onlyOwner {  \n\n    _LotteryWinnersArray = getLotteryWinnersArray();  \n    uint256 l_randomWords = getRandomValue(_VRF);\n    uint winnerIndex = l_randomWords % _LotteryWinnersArray.length;\n    uint winnerPrize = address(this).balance; // Calculation();\n    \n    emit SelectWinnerIndex(winnerIndex, address(this).balance, winnerPrize);\n    \n    UpdateLotteryData(winnerIndex, address(this).balance);\n    WinnerPrizePayment(winnerIndex, winnerPrize); \n    // FinalPayment();\n    ClearDataBase();\n\n  }\n\n  /**\n    * @notice Release Smart Contract Memory .\n    * @dev Clear All Storages .\n  */\n  function ClearDataBase() internal returns (bool) {\n    bool _success;\n    _success = LotteryInterface(generatorLotteryAddr).clearlotteryWinnersArrayMap(address(this));\n    return true;\n  }\n\n  /**\n    * @notice Calculation of Pot Winner Prize.\n    * @dev Findout the 5% of the Total Pot and The Winner payment.\n  */\n  // function Calculation() internal view returns (uint winnerPrize){\n\n  //   uint totalPot = address(this).balance;\n  //   // _LotteryWinnersArray = getLotteryWinnersArray();  \n  //   // address WinnerAddress = _LotteryWinnersArray[_winnerIndex];\n  //   /* ToDo : Replace Calculation Parts with OpenZeppelin SafeMath ) */\n  //   (winnerPrize, ) = getDivided(totalPot, 20);  // winnerPrize\n\n  // }\n\n  /**\n    * @notice Pay Pot Prize to the Winner.\n    * @dev Transfer Pot Prize to the Winner.\n  */\n  function WinnerPrizePayment(uint _winnerIndex, uint _winnerPrize) internal {\n\n    // _LotteryWinnersArray = getLotteryWinnersArray();  \n    address payable potWinner = payable(_LotteryWinnersArray[_winnerIndex]);  \n    potWinner.transfer(_winnerPrize);\n    emit SelectWinnerAddress(potWinner, _winnerPrize);\n    // _LotteryWinnersArray[winnerIndex].transfer(address(this).balance);\n\n  }\n\n  /**\n    * @notice Remaining Pot Money Transfer.\n    * @dev Transfer remaining Money to the Liquidity Pool.\n  */\n  // function FinalPayment() internal {   //  onlyOwner\n\n  //   address payable receiver = payable(MonthlyPotAddress);\n  //   uint TrxValue = address(this).balance;\n  //   receiver.transfer(TrxValue);\n  //   emit TotalPayment(receiver, TrxValue);\n\n  // }\n\n  /**\n    * @notice Save The Winner Address for Weekly Lottery\n    * @dev Update Generator Smart Contract For Saving Hourly Winner Address\n  */\n  function UpdateLotteryData(uint _winnerIndex, uint _balance) internal returns(bool) {\n    bool _success;\n    uint _winnerId;\n    // _LotteryWinnersArray = getLotteryWinnersArray();  \n    address _winnerAddress = _LotteryWinnersArray[_winnerIndex];\n    _success = LotteryInterface(generatorLotteryAddr).setlotteryStructs(address(this), _balance, _winnerAddress, 2);\n    _winnerId = LotteryInterface(generatorLotteryAddr).setWeeklyWinnersArrayMap(address(this), _winnerAddress);\n    return true;\n  }\n\n  function getLotteryWinnersArray() internal view returns(address[] memory) {\n    return LotteryInterface(generatorLotteryAddr).LotteryWinnersArray();\n  }\n\n  // function set_MonthlyPotAddress(address _MonthlyPotAddress) external onlyOwner {\n  //   require(_MonthlyPotAddress != address(0) );\n  //   MonthlyPotAddress = _MonthlyPotAddress;\n  // }\n\n  function generatorLotteryAddress(address _contractAddr) external onlyOwner {\n    generatorLotteryAddr = _contractAddr;\n  }\n\n  // function set_LiquidityPoolAddress(address _LiquidityPoolAddress) external onlyOwner {\n  //   require(_LiquidityPoolAddress != address(0) );\n  //   LiquidityPoolAddress = _LiquidityPoolAddress;\n  // }\n\n  // function set_MultiSigWalletAddress(address _MultiSigWalletAddress) external onlyOwner {\n  //   require(_MultiSigWalletAddress != address(0) );\n  //   MultiSigWalletAddress = _MultiSigWalletAddress;\n  // }\n\n  function listPlayers() external view returns (address[] memory){  \n    return _LotteryWinnersArray;  \n  }\n\n}\n\n/**\n************************************************************************************\n************************************************************************************\n**/\n\n\n",
  "sourcePath": "/home/batis/SrcCode/myPRJ/SmartContBlockChain/BSCLottery/contracts/WeeklyLottery.sol",
  "compiler": {
    "name": "solc",
    "version": "0.8.9+commit.e5eed63a.Emscripten.clang"
  },
  "schemaVersion": "3.4.3",
  "updatedAt": "2022-05-08T14:04:23.673Z",
  "devdoc": {
    "author": "Batis ",
    "details": "WeeklyLottery will be Generated by LotteryGenerator",
    "kind": "dev",
    "methods": {
      "getDivided(uint256,uint256)": {
        "details": "Safe Function for Devision Operation.",
        "params": {
          "denominator": ": The Integer Number which another Int NUmber is devided by this.  ",
          "numerator": ": The Integer Number which is being devided on another Integer Number."
        },
        "returns": {
          "quotient": "and remainder of the Devision, Both are Integer Numbers. "
        }
      },
      "owner()": {
        "details": "Returns the address of the current owner."
      },
      "renounceOwnership()": {
        "details": "Leaves the contract without owner. It will not be possible to call `onlyOwner` functions anymore. Can only be called by the current owner. NOTE: Renouncing ownership will leave the contract without an owner, thereby removing any functionality that is only available to the owner."
      },
      "transferOwnership(address)": {
        "details": "Transfers ownership of the contract to a new account (`newOwner`). Can only be called by the current owner."
      }
    },
    "title": "Weekly Lottery For BSC Lottery Game ",
    "version": 1
  },
  "userdoc": {
    "kind": "user",
    "methods": {
      "getDivided(uint256,uint256)": {
        "notice": "Function for deviding two Integer Numbers and return the results."
      }
    },
    "notice": "This SmartContract is responsible for implimentation of Weekly Pot Lottery ",
    "version": 1
  }
}