{
  "contractName": "WeeklyLottery",
  "abi": [
    {
      "inputs": [
        {
          "internalType": "uint64",
          "name": "subscriptionId",
          "type": "uint64"
        },
        {
          "internalType": "address",
          "name": "generatorLotteryAddress",
          "type": "address"
        }
      ],
      "stateMutability": "nonpayable",
      "type": "constructor"
    },
    {
      "inputs": [
        {
          "internalType": "address",
          "name": "have",
          "type": "address"
        },
        {
          "internalType": "address",
          "name": "want",
          "type": "address"
        }
      ],
      "name": "OnlyCoordinatorCanFulfill",
      "type": "error"
    },
    {
      "anonymous": false,
      "inputs": [
        {
          "indexed": true,
          "internalType": "address",
          "name": "previousOwner",
          "type": "address"
        },
        {
          "indexed": true,
          "internalType": "address",
          "name": "newOwner",
          "type": "address"
        }
      ],
      "name": "OwnershipTransferred",
      "type": "event"
    },
    {
      "anonymous": false,
      "inputs": [
        {
          "indexed": false,
          "internalType": "bool",
          "name": "isReadySelectWinner",
          "type": "bool"
        }
      ],
      "name": "ReadyForSelectWinner",
      "type": "event"
    },
    {
      "anonymous": false,
      "inputs": [
        {
          "indexed": false,
          "internalType": "address",
          "name": "potWinner",
          "type": "address"
        },
        {
          "indexed": false,
          "internalType": "uint256",
          "name": "winnerPrize",
          "type": "uint256"
        }
      ],
      "name": "SelectWinnerAddress",
      "type": "event"
    },
    {
      "anonymous": false,
      "inputs": [
        {
          "indexed": false,
          "internalType": "uint256",
          "name": "winnerIndex",
          "type": "uint256"
        },
        {
          "indexed": false,
          "internalType": "uint256",
          "name": "potBalance",
          "type": "uint256"
        },
        {
          "indexed": false,
          "internalType": "uint256",
          "name": "winnerPrize",
          "type": "uint256"
        }
      ],
      "name": "SelectWinnerIndex",
      "type": "event"
    },
    {
      "anonymous": false,
      "inputs": [
        {
          "indexed": false,
          "internalType": "uint256",
          "name": "vrfCalledTime",
          "type": "uint256"
        }
      ],
      "name": "StartSelectngWinner",
      "type": "event"
    },
    {
      "anonymous": false,
      "inputs": [
        {
          "indexed": false,
          "internalType": "address",
          "name": "receiver",
          "type": "address"
        },
        {
          "indexed": false,
          "internalType": "uint256",
          "name": "TrxValue",
          "type": "uint256"
        }
      ],
      "name": "TotalPayment",
      "type": "event"
    },
    {
      "stateMutability": "payable",
      "type": "fallback",
      "payable": true
    },
    {
      "inputs": [],
      "name": "owner",
      "outputs": [
        {
          "internalType": "address",
          "name": "",
          "type": "address"
        }
      ],
      "stateMutability": "view",
      "type": "function",
      "constant": true
    },
    {
      "inputs": [
        {
          "internalType": "uint256",
          "name": "requestId",
          "type": "uint256"
        },
        {
          "internalType": "uint256[]",
          "name": "randomWords",
          "type": "uint256[]"
        }
      ],
      "name": "rawFulfillRandomWords",
      "outputs": [],
      "stateMutability": "nonpayable",
      "type": "function"
    },
    {
      "inputs": [],
      "name": "renounceOwnership",
      "outputs": [],
      "stateMutability": "nonpayable",
      "type": "function"
    },
    {
      "inputs": [
        {
          "internalType": "uint256",
          "name": "",
          "type": "uint256"
        }
      ],
      "name": "s_randomWords",
      "outputs": [
        {
          "internalType": "uint256",
          "name": "",
          "type": "uint256"
        }
      ],
      "stateMutability": "view",
      "type": "function",
      "constant": true
    },
    {
      "inputs": [],
      "name": "s_requestId",
      "outputs": [
        {
          "internalType": "uint256",
          "name": "",
          "type": "uint256"
        }
      ],
      "stateMutability": "view",
      "type": "function",
      "constant": true
    },
    {
      "inputs": [
        {
          "internalType": "address",
          "name": "newOwner",
          "type": "address"
        }
      ],
      "name": "transferOwnership",
      "outputs": [],
      "stateMutability": "nonpayable",
      "type": "function"
    },
    {
      "stateMutability": "payable",
      "type": "receive",
      "payable": true
    },
    {
      "inputs": [],
      "name": "balanceInPot",
      "outputs": [
        {
          "internalType": "uint256",
          "name": "",
          "type": "uint256"
        }
      ],
      "stateMutability": "view",
      "type": "function",
      "constant": true
    },
    {
      "inputs": [],
      "name": "withdraw",
      "outputs": [],
      "stateMutability": "nonpayable",
      "type": "function"
    },
    {
      "inputs": [],
      "name": "potInitialize",
      "outputs": [
        {
          "internalType": "bool",
          "name": "success",
          "type": "bool"
        }
      ],
      "stateMutability": "nonpayable",
      "type": "function"
    },
    {
      "inputs": [],
      "name": "potPause",
      "outputs": [
        {
          "internalType": "bool",
          "name": "success",
          "type": "bool"
        }
      ],
      "stateMutability": "nonpayable",
      "type": "function"
    },
    {
      "inputs": [],
      "name": "select_Winner",
      "outputs": [
        {
          "internalType": "bool",
          "name": "success",
          "type": "bool"
        }
      ],
      "stateMutability": "nonpayable",
      "type": "function"
    },
    {
      "inputs": [],
      "name": "select_Winner_Continue",
      "outputs": [
        {
          "internalType": "bool",
          "name": "success",
          "type": "bool"
        }
      ],
      "stateMutability": "nonpayable",
      "type": "function"
    },
    {
      "inputs": [],
      "name": "planB_VRFDelay",
      "outputs": [
        {
          "internalType": "bool",
          "name": "isActive",
          "type": "bool"
        }
      ],
      "stateMutability": "nonpayable",
      "type": "function"
    },
    {
      "inputs": [],
      "name": "getLotteryWinnersArray",
      "outputs": [
        {
          "internalType": "address[]",
          "name": "",
          "type": "address[]"
        }
      ],
      "stateMutability": "view",
      "type": "function",
      "constant": true
    },
    {
      "inputs": [
        {
          "internalType": "address",
          "name": "_contractAddr",
          "type": "address"
        }
      ],
      "name": "set_generatorLotteryAddress",
      "outputs": [],
      "stateMutability": "nonpayable",
      "type": "function"
    },
    {
      "inputs": [
        {
          "internalType": "address",
          "name": "_DirectorAddress",
          "type": "address"
        }
      ],
      "name": "setDirector",
      "outputs": [],
      "stateMutability": "nonpayable",
      "type": "function"
    },
    {
      "inputs": [],
      "name": "listPlayers",
      "outputs": [
        {
          "internalType": "address[]",
          "name": "",
          "type": "address[]"
        }
      ],
      "stateMutability": "view",
      "type": "function",
      "constant": true
    },
    {
      "inputs": [],
      "name": "isPotActive",
      "outputs": [
        {
          "internalType": "bool",
          "name": "",
          "type": "bool"
        }
      ],
      "stateMutability": "view",
      "type": "function",
      "constant": true
    },
    {
      "inputs": [],
      "name": "getPlayersNumber",
      "outputs": [
        {
          "internalType": "uint256",
          "name": "",
          "type": "uint256"
        }
      ],
      "stateMutability": "view",
      "type": "function",
      "constant": true
    },
    {
      "inputs": [],
      "name": "getWinners",
      "outputs": [
        {
          "internalType": "address",
          "name": "",
          "type": "address"
        },
        {
          "internalType": "uint256",
          "name": "",
          "type": "uint256"
        }
      ],
      "stateMutability": "view",
      "type": "function",
      "constant": true
    },
    {
      "inputs": [],
      "name": "isReadySelectWinner",
      "outputs": [
        {
          "internalType": "bool",
          "name": "",
          "type": "bool"
        }
      ],
      "stateMutability": "view",
      "type": "function",
      "constant": true
    },
    {
      "inputs": [],
      "name": "isWinnerSelected",
      "outputs": [
        {
          "internalType": "bool",
          "name": "",
          "type": "bool"
        }
      ],
      "stateMutability": "view",
      "type": "function",
      "constant": true
    },
    {
      "inputs": [],
      "name": "getPotDirector",
      "outputs": [
        {
          "internalType": "address",
          "name": "",
          "type": "address"
        }
      ],
      "stateMutability": "view",
      "type": "function",
      "constant": true
    }
  ],
  "bytecode": "0x60a0604052600380546001600160a01b0319908116736168499c0cffcacd319c818142124b7a15e857ab17909155600480549091167301be23585060835e02b77ef475b0cc51aa1e07091790557fd89b2bf150e3b9e13446986e571fb9cab24b13cea0a43ea20a6049a85cc807cc6005556006805466010003000186a06001600160501b03199091161790556000600d5534801561009c57600080fd5b5060405162001a9d38038062001a9d8339810160408190526100bd916101be565b6003546001600160a01b03166100d23361016e565b6001600160a01b03908116608052600354600180549183166001600160a01b0319928316179055600454600280549184166001600160e01b031990921691909117600160a01b6001600160401b03969096169590950294909417909355600a805433908516179055600c805460ff19908116909155600e80549091169055600f805460ff60a01b19169055600980549093169116179055610210565b600080546001600160a01b038381166001600160a01b0319831681178455604051919092169283917f8be0079c531659141344cd1fd0a4f28419497f9722a3daafe3b4186f6b6457e09190a35050565b600080604083850312156101d157600080fd5b82516001600160401b03811681146101e857600080fd5b60208401519092506001600160a01b038116811461020557600080fd5b809150509250929050565b60805161186a62000233600039600081816104180152610473015261186a6000f3fe60806040526004361061016c5760003560e01c806374590894116100ca578063c5ae6f3e11610079578063e8b05e3811610056578063e8b05e38146103b5578063f2fde38b146103cd578063f6eaffc8146103ed57005b8063c5ae6f3e1461034f578063df15c37e14610372578063e89e106a1461039f57005b80638b8ed651116100a75780638b8ed651146102e95780638da5cb5b146102fe578063bfdf8b121461033057005b8063745908941461029f578063766eef11146102b45780638613e4cf146102c957005b80633818b9ef1161012657806364605d511161010357806364605d51146102535780636c25343714610275578063715018a61461028a57005b80633818b9ef146102115780633ccfd60b146102265780634442713c1461023b57005b806326ba43191161015457806326ba4319146101b75780632ac37c8d146101d75780632ac75ab5146101fc57005b806314e59987146101755780631fe543e31461019757005b3661017357005b005b34801561018157600080fd5b50475b6040519081526020015b60405180910390f35b3480156101a357600080fd5b506101736101b23660046115c1565b61040d565b3480156101c357600080fd5b506101736101d2366004611678565b6104b3565b3480156101e357600080fd5b506101ec61055f565b604051901515815260200161018e565b34801561020857600080fd5b506101ec6105e3565b34801561021d57600080fd5b506101ec610785565b34801561023257600080fd5b5061017361098d565b34801561024757600080fd5b50600c5460ff166101ec565b34801561025f57600080fd5b50610268610a16565b60405161018e919061169c565b34801561028157600080fd5b506101ec610a78565b34801561029657600080fd5b50610173610ba9565b3480156102ab57600080fd5b50610268610c0f565b3480156102c057600080fd5b50600b54610184565b3480156102d557600080fd5b506101736102e4366004611678565b610c9f565b3480156102f557600080fd5b506101ec610d28565b34801561030a57600080fd5b506000546001600160a01b03165b6040516001600160a01b03909116815260200161018e565b34801561033c57600080fd5b50600f54600160a01b900460ff166101ec565b34801561035b57600080fd5b50600e5461010090046001600160a01b0316610318565b34801561037e57600080fd5b50600f54604080516001600160a01b0390921682524760208301520161018e565b3480156103ab57600080fd5b5061018460085481565b3480156103c157600080fd5b50600e5460ff166101ec565b3480156103d957600080fd5b506101736103e8366004611678565b610eb9565b3480156103f957600080fd5b506101846104083660046116e9565b610f98565b336001600160a01b037f000000000000000000000000000000000000000000000000000000000000000016146104a5576040517f1cf993f40000000000000000000000000000000000000000000000000000000081523360048201526001600160a01b037f00000000000000000000000000000000000000000000000000000000000000001660248201526044015b60405180910390fd5b6104af8282610fb9565b5050565b6000546001600160a01b0316331461050d5760405162461bcd60e51b815260206004820181905260248201527f4f776e61626c653a2063616c6c6572206973206e6f7420746865206f776e6572604482015260640161049c565b6001600160a01b03811661052057600080fd5b600e80546001600160a01b03909216610100027fffffffffffffffffffffff0000000000000000000000000000000000000000ff909216919091179055565b600080546001600160a01b031633146105ba5760405162461bcd60e51b815260206004820181905260248201527f4f776e61626c653a2063616c6c6572206973206e6f7420746865206f776e6572604482015260640161049c565b50600c805460ff19908116909155600e80549091169055600f805460ff60a01b19169055600190565b600e5460009061010090046001600160a01b031633148061060e5750600a546001600160a01b031633145b6106515760405162461bcd60e51b81526020600482015260146024820152735065726d697373696f6e2044656e69656420212160601b604482015260640161049c565b600e5460ff1615156001146106be5760405162461bcd60e51b815260206004820152602d60248201527f54686520506f74206973206e6f7420726561647920666f722053656c6563746960448201526c3733903a3432902bb4b73732b960991b606482015260840161049c565b600f54600160a01b900460ff161561073e5760405162461bcd60e51b815260206004820152602660248201527f5468652057696e6e657220686173204e6f74206265656e2053656c656374656460448201527f2059657420210000000000000000000000000000000000000000000000000000606482015260840161049c565b42600d8190556040519081527f3b0b75510568e9c6916c9a7c853a3892b9634e5ca8717abbec6cea1b7f4ac2d79060200160405180910390a161077f611028565b50600190565b600e5460009061010090046001600160a01b03163314806107b05750600a546001600160a01b031633145b6107f35760405162461bcd60e51b81526020600482015260146024820152735065726d697373696f6e2044656e69656420212160601b604482015260640161049c565b600e5460ff1615156001146108605760405162461bcd60e51b815260206004820152602d60248201527f54686520506f74206973206e6f7420726561647920666f722053656c6563746960448201526c3733903a3432902bb4b73732b960991b606482015260840161049c565b600f54600160a01b900460ff1615156001146108cd5760405162461bcd60e51b815260206004820152602660248201527f5468652057696e6e657220686173206265656e2053656c6563746564206265666044820152656f726520212160d01b606482015260840161049c565b6000600b8054905060076000815481106108e9576108e9611702565b90600052602060002001546108fe9190611718565b6040805182815247602082015247918101829052919250907f274f2e5ea35472f60f411beb007713c0f1c1b574f260789eedee1789cd49d9f59060600160405180910390a161094e824783611170565b506109598282611302565b6109616113a2565b5050600c805460ff19908116909155600e805490911690555050600f805460ff60a01b19169055600190565b6000546001600160a01b031633146109e75760405162461bcd60e51b815260206004820181905260248201527f4f776e61626c653a2063616c6c6572206973206e6f7420746865206f776e6572604482015260640161049c565b60405133904780156108fc02916000818181858888f19350505050158015610a13573d6000803e3d6000fd5b50565b6060600b805480602002602001604051908101604052809291908181526020018280548015610a6e57602002820191906000526020600020905b81546001600160a01b03168152600190910190602001808311610a50575b5050505050905090565b600e5460009061010090046001600160a01b0316331480610aa35750600a546001600160a01b031633145b610ae65760405162461bcd60e51b81526020600482015260146024820152735065726d697373696f6e2044656e69656420212160601b604482015260640161049c565b600c5460ff1615610b5f5760405162461bcd60e51b815260206004820152602260248201527f546865205765656b6c7920506f742069732073746172746564206265666f726560448201527f2021000000000000000000000000000000000000000000000000000000000000606482015260840161049c565b610b67610c0f565b8051610b7b91600b91602090910190611494565b5050600c8054600160ff199182168117909255600e805490911682179055600f805460ff60a01b1916905590565b6000546001600160a01b03163314610c035760405162461bcd60e51b815260206004820181905260248201527f4f776e61626c653a2063616c6c6572206973206e6f7420746865206f776e6572604482015260640161049c565b610c0d6000611437565b565b600954604080517fdf15c37e00000000000000000000000000000000000000000000000000000000815290516060926001600160a01b03169163df15c37e9160048083019260009291908290030181865afa158015610c72573d6000803e3d6000fd5b505050506040513d6000823e601f3d908101601f19168201604052610c9a919081019061173a565b905090565b6000546001600160a01b03163314610cf95760405162461bcd60e51b815260206004820181905260248201527f4f776e61626c653a2063616c6c6572206973206e6f7420746865206f776e6572604482015260640161049c565b6009805473ffffffffffffffffffffffffffffffffffffffff19166001600160a01b0392909216919091179055565b600e5460009061010090046001600160a01b0316331480610d535750600a546001600160a01b031633145b610d965760405162461bcd60e51b81526020600482015260146024820152735065726d697373696f6e2044656e69656420212160601b604482015260640161049c565b600e5460ff161515600114610e035760405162461bcd60e51b815260206004820152602d60248201527f54686520506f74206973206e6f7420726561647920666f722053656c6563746960448201526c3733903a3432902bb4b73732b960991b606482015260840161049c565b600f54600160a01b900460ff1615610e6c5760405162461bcd60e51b815260206004820152602660248201527f5468652057696e6e657220686173206265656e2053656c6563746564206265666044820152656f726520212160d01b606482015260840161049c565b600d544290600090821115610eb057600d54610e8890836117d4565b9050610258811115610eb057600f805460ff60a01b1916600160a01b17905560019250505090565b60009250505090565b6000546001600160a01b03163314610f135760405162461bcd60e51b815260206004820181905260248201527f4f776e61626c653a2063616c6c6572206973206e6f7420746865206f776e6572604482015260640161049c565b6001600160a01b038116610f8f5760405162461bcd60e51b815260206004820152602660248201527f4f776e61626c653a206e6577206f776e657220697320746865207a65726f206160448201527f6464726573730000000000000000000000000000000000000000000000000000606482015260840161049c565b610a1381611437565b60078181548110610fa857600080fd5b600091825260209091200154905081565b8051610fcc906007906020840190611506565b50600f805460ff60a01b1916600160a01b908117918290556040517f320b3a07d7df24a614650bb07173e3a57f3e687cb2e87e07ab99e0854d09493c9261101c92900460ff161515815260200190565b60405180910390a15050565b600e5461010090046001600160a01b03163314806110505750600a546001600160a01b031633145b6110935760405162461bcd60e51b81526020600482015260146024820152735065726d697373696f6e2044656e69656420212160601b604482015260640161049c565b6001546005546002546006546040517f5d3b1d300000000000000000000000000000000000000000000000000000000081526004810193909352600160a01b90910467ffffffffffffffff166024830152640100000000810461ffff16604483015263ffffffff808216606484015266010000000000009091041660848201526001600160a01b0390911690635d3b1d309060a4016020604051808303816000875af1158015611147573d6000803e3d6000fd5b505050506040513d601f19601f8201168201806040525081019061116b91906117f9565b600855565b6000806000600b868154811061118857611188611702565b600091825260209091200154600f805473ffffffffffffffffffffffffffffffffffffffff19166001600160a01b039283169081179091556009546040517f3305bd300000000000000000000000000000000000000000000000000000000081523060048201523360248201526044810189905260648101929092526002608483015290911690633305bd309060a4016020604051808303816000875af1158015611237573d6000803e3d6000fd5b505050506040513d601f19601f8201168201806040525081019061125b9190611812565b600954600f546040517fbefb0b890000000000000000000000000000000000000000000000000000000081523360048201526001600160a01b03918216602482015260448101889052929450169063befb0b89906064016020604051808303816000875af11580156112d1573d6000803e3d6000fd5b505050506040513d601f19601f820116820180604052508101906112f591906117f9565b5060019695505050505050565b6000600b838154811061131757611317611702565b60009182526020822001546040516001600160a01b039091169250829184156108fc02918591818181858888f1935050505015801561135a573d6000803e3d6000fd5b50604080516001600160a01b0383168152602081018490527f9b320e270eb528aa46b3a21b196f1da153ccb2d5637e892594474e969fe6b7a9910160405180910390a1505050565b6009546040517f54a1ec7300000000000000000000000000000000000000000000000000000000815233600482015260009182916001600160a01b03909116906354a1ec73906024016020604051808303816000875af115801561140a573d6000803e3d6000fd5b505050506040513d601f19601f8201168201806040525081019061142e9190611812565b50600192915050565b600080546001600160a01b0383811673ffffffffffffffffffffffffffffffffffffffff19831681178455604051919092169283917f8be0079c531659141344cd1fd0a4f28419497f9722a3daafe3b4186f6b6457e09190a35050565b8280548282559060005260206000209081019282156114f6579160200282015b828111156114f6578251825473ffffffffffffffffffffffffffffffffffffffff19166001600160a01b039091161782556020909201916001909101906114b4565b50611502929150611541565b5090565b8280548282559060005260206000209081019282156114f6579160200282015b828111156114f6578251825591602001919060010190611526565b5b808211156115025760008155600101611542565b634e487b7160e01b600052604160045260246000fd5b604051601f8201601f1916810167ffffffffffffffff8111828210171561159557611595611556565b604052919050565b600067ffffffffffffffff8211156115b7576115b7611556565b5060051b60200190565b600080604083850312156115d457600080fd5b8235915060208084013567ffffffffffffffff8111156115f357600080fd5b8401601f8101861361160457600080fd5b80356116176116128261159d565b61156c565b81815260059190911b8201830190838101908883111561163657600080fd5b928401925b828410156116545783358252928401929084019061163b565b80955050505050509250929050565b6001600160a01b0381168114610a1357600080fd5b60006020828403121561168a57600080fd5b813561169581611663565b9392505050565b6020808252825182820181905260009190848201906040850190845b818110156116dd5783516001600160a01b0316835292840192918401916001016116b8565b50909695505050505050565b6000602082840312156116fb57600080fd5b5035919050565b634e487b7160e01b600052603260045260246000fd5b60008261173557634e487b7160e01b600052601260045260246000fd5b500690565b6000602080838503121561174d57600080fd5b825167ffffffffffffffff81111561176457600080fd5b8301601f8101851361177557600080fd5b80516117836116128261159d565b81815260059190911b820183019083810190878311156117a257600080fd5b928401925b828410156117c95783516117ba81611663565b825292840192908401906117a7565b979650505050505050565b6000828210156117f457634e487b7160e01b600052601160045260246000fd5b500390565b60006020828403121561180b57600080fd5b5051919050565b60006020828403121561182457600080fd5b8151801515811461169557600080fdfea2646970667358221220ec079f2c44e2dc6dfb71647c5ea1236bd20a7f82b911a5d1594e1fc5728acb0c64736f6c634300080d0033",
  "immutableReferences": {
    "10": [
      {
        "length": 32,
        "start": 1048
      },
      {
        "length": 32,
        "start": 1139
      }
    ]
  },
  "source": "// SPDX-License-Identifier: GNU-GPLv3\npragma solidity ^0.8.0;\n// pragma experimental ABIEncoderV2;\n\n/* ToDo : Use Ownable OpenZeppelin */\nimport \"@openzeppelin/contracts/access/Ownable.sol\";\nimport \"@openzeppelin/contracts/utils/math/SafeMath.sol\";\n\nimport \"@chainlink/contracts/src/v0.8/interfaces/LinkTokenInterface.sol\";\nimport \"@chainlink/contracts/src/v0.8/interfaces/VRFCoordinatorV2Interface.sol\";\nimport \"@chainlink/contracts/src/v0.8/VRFConsumerBaseV2.sol\";\n\n\n// import \"./LotteryGenerator.sol\";\n\n// import \"./VRFv2SubscriptionManager.sol\";\n// import \"./VRFv2Consumer.sol\";\n\nimport \"./LotteryCore.sol\";\n\n// import \"truffle/Console.sol\";\n// import \"hardhat/console.sol\";\n\nimport \"./LotteryInterface.sol\";\n\n\n/**\n************************************************************************************\n************************************************************************************\n\n\n/**\n************************************************************************************\n************************************************************************************\n**/\n/**\n  * @title Weekly Lottery For BSC Lottery Game \n  * @author Batis Abhari (https://github.com/baties - ContactMe: abhari_Batis@hotmail.com)\n  * @notice This SmartContract is responsible for implimentation of Weekly Pot Lottery \n  * @dev WeeklyLottery will be Generated by LotteryGenerator in Next Version\n*/\ncontract WeeklyLottery is Ownable, VRFConsumerBaseV2 {\n\n  VRFCoordinatorV2Interface COORDINATOR;\n  LinkTokenInterface LINKTOKEN;\n  uint64 s_subscriptionId;\n\n  // Rinkeby coordinator. For other networks,\n  // see https://docs.chain.link/docs/vrf-contracts/#configurations\n  address vrfCoordinator = 0x6168499c0cFfCaCD319c818142124B7A15E857ab;  // Rinkeby\n  // address vrfCoordinator = 0x6A2AAd07396B36Fe02a22b33cf443582f682c82f;  // BSC TestNet coordinator\n\n  // Rinkeby LINK token contract. For other networks,\n  // see https://docs.chain.link/docs/vrf-contracts/#configurations\n  address link = 0x01BE23585060835E02B77ef475b0Cc51aA1e0709;  // Rinkeby\n  // address link = 0x84b9B910527Ad5C03A9Ca831909E21e236EA7b06;  //  BSC TestNet LINK token\n\n  // The gas lane to use, which specifies the maximum gas price to bump to.\n  // For a list of available gas lanes on each network,\n  // see https://docs.chain.link/docs/vrf-contracts/#configurations\n  bytes32 keyHash = 0xd89b2bf150e3b9e13446986e571fb9cab24b13cea0a43ea20a6049a85cc807cc;  // Rinkeby\n  // bytes32 keyHash = 0xd4bb89654db74673a187bd804519e65e3f71a52bc55f11da7601a13dcf505314;  //  BSC TestNet keyhash\n\n  uint32 callbackGasLimit = 100000;\n  uint16 requestConfirmations = 3;\n  uint32 numWords =  1;\n\n  uint256[] public s_randomWords;\n  uint256 public s_requestId;\n\n\n  // address private _VRF;\n  address private generatorLotteryAddr;\n  // address private LiquidityPoolAddress;\n  // address private MultiSigWalletAddress;\n  // address private MonthlyPotAddress;   \n  address private LotteryOwner;\n\n  address[] private _LotteryWinnersArray;\n  bool private lPotActive;  \n  uint private vrfCalledTime = 0;\n  bool private lReadySelectWinner; \n  address private potDirector;  \n  address private potWinnerAddress;\n  bool private lWinnerSelected;\n\n  event SelectWinnerIndex(uint winnerIndex, uint potBalance, uint winnerPrize);\n  event SelectWinnerAddress(address potWinner, uint winnerPrize);\n  event TotalPayment(address receiver, uint TrxValue);\n  event ReadyForSelectWinner(bool isReadySelectWinner);\n  event StartSelectngWinner(uint vrfCalledTime);\n\n  // constructor(address VRF, address generatorLotteryAddress) {  \n  constructor(uint64 subscriptionId, address generatorLotteryAddress) VRFConsumerBaseV2(vrfCoordinator) {\n    COORDINATOR = VRFCoordinatorV2Interface(vrfCoordinator);\n    LINKTOKEN = LinkTokenInterface(link);\n    s_subscriptionId = subscriptionId;\n    LotteryOwner = msg.sender;\n    lPotActive = false;\n    lReadySelectWinner = false;\n    lWinnerSelected = false;\n    generatorLotteryAddr = generatorLotteryAddress;\n    // _VRF = VRF;\n  }\n\n  /* ToDo : Add & Complete Fallback routine */\n  fallback() external payable {\n  }\n  receive() external payable {\n  }\n\n  modifier isAllowedManager() {\n      require( msg.sender == potDirector || msg.sender == LotteryOwner , \"Permission Denied !!\" );\n      _;\n  }\n\n  modifier isGameOn() {\n      require(lPotActive , \"The Pot has not been Ready to Play yet Or The Game is Over!\");  // && !lReadySelectWinner \n      _;\n  }\n\n  function balanceInPot() public view returns(uint){\n    return address(this).balance;\n  }\n\n  function withdraw() external onlyOwner {\n    payable(msg.sender).transfer(address(this).balance);\n  }\n\n  /**\n    * @notice Request Random Words From VRF Coordinator\n    * @dev For more Details refer to : https://docs.chain.link/docs/chainlink-vrf-best-practices/#getting-multiple-random-numbers\n  */\n  function requestRandomWords() internal isAllowedManager {    \n    // Will revert if subscription is not set and funded.\n    s_requestId = COORDINATOR.requestRandomWords(\n      keyHash,\n      s_subscriptionId,\n      requestConfirmations,\n      callbackGasLimit,\n      numWords\n    );\n  }\n\n  /**\n    * @notice VRF Coordinator Call Back this Function after generating Random Number\n    * @dev For more Details refer to : https://docs.chain.link/docs/chainlink-vrf-best-practices/#getting-multiple-random-numbers\n  */\n  function fulfillRandomWords(\n    uint256, /* requestId */\n    uint256[] memory randomWords\n  ) internal override {\n    s_randomWords = randomWords;\n    // select_Winner_Continue();\n    lWinnerSelected = true;\n    emit ReadyForSelectWinner(lWinnerSelected);\n  }\n\n  /* ToDo : Replace This function with OpenZeppelin SafeMath */\n  /**\n    * @notice Function for deviding two Integer Numbers and return the results.\n    * @dev Safe Function for Devision Operation.\n    * @param numerator : The Integer Number which is being devided on another Integer Number.\n    * @param denominator : The Integer Number which another Int NUmber is devided by this.  \n    * @return quotient and remainder of the Devision, Both are Integer Numbers. \n  */\n  function getDivided(uint numerator, uint denominator) private pure returns(uint quotient, uint remainder) {\n    require( denominator >= 0, \"Division is Not Possible , Bug in Numbers !\");\n    require( numerator > 0, \"Division is Not Possible , Bug in Numbers !\");\n    quotient  = numerator / denominator; \n    remainder = numerator - denominator * quotient;\n  }\n\n  /**\n    * @notice The Local Random Generator Function.\n    * @dev The Local Random Generator Function for Local Development and Running the Tests.\n    * @return None. \n  */\n  function randomGenerator() private view returns (uint) {\n    return uint(\n      keccak256(\n        abi.encodePacked(\n          block.difficulty, block.timestamp, _LotteryWinnersArray ))) ;\n  }\n\n  // function getRandomValue(address _VRFv2) public view onlyOwner returns (uint256 randomWords) {\n  //   // uint8 zeroOne = uint8(randomGenerator() % 2);\n  //   // randomWords = randomGenerator();\n  //   randomWords = VRFv2Consumer(_VRFv2).getlRandomWords();\n  // }\n\n  /**\n    * @notice Weekly Lottery Pot Initialization.\n    * @dev AtFirst each Weekly Pot must be Initialized.\n    * @return success Flag \n  */\n  function potInitialize() external isAllowedManager returns(bool success) {\n    require(lPotActive == false, \"The Weekly Pot is started before !\");\n    _LotteryWinnersArray = getLotteryWinnersArray();  \n    lPotActive = true ;\n    lReadySelectWinner = true;\n    lWinnerSelected = false;\n    success = true;\n  }\n\n  /**\n    * @notice Weekly Lottery Pot is Pausable, This is the Trigger.\n    * @dev THis Function just Pauses the current Pot Play and Select Winner Routines and Use only for Emergency .\n    * @return success Flag \n  */\n  function potPause() external onlyOwner returns(bool success) {\n    lPotActive = false ;\n    lReadySelectWinner = false;\n    lWinnerSelected = false;\n    success = true;\n  }\n\n  /**\n    * @notice Weekly Lottery Pot Winner Selection, This Winner is Selected among Hourly Winner List.\n    * @dev Weekly Lottery Pot Winner Selection Start Process, This Function Just Called Request Random Number Routine For Communicate with VRF Coordinator.\n    * @return success Flag \n  */\n  function select_Winner() public isAllowedManager returns (bool success){  \n\n    require(lReadySelectWinner == true, \"The Pot is not ready for Selecting the Winner\");\n    require(lWinnerSelected == false, \"The Winner has Not been Selected Yet !\");\n\n    vrfCalledTime = block.timestamp;\n    emit StartSelectngWinner(vrfCalledTime);\n    requestRandomWords();\n\n    success = true;\n\n  }\n\n  /**\n    * @notice Weekly Lottery Pot Winner Selection Continue, This Function Selects The Winner With Random Number Generated.\n    * @dev Weekly Lottery Pot Winner Selection Continue, This Function Only Call after fulfillRandomWords is Called. \n    * @dev This Function is responsible for Updating Lottery Data, Pay the Winner Prize & then clear and Release the Memory\n    * @return success Flag \n  */\n  function select_Winner_Continue() public isAllowedManager returns(bool success) {  \n    \n    require(lReadySelectWinner == true, \"The Pot is not ready for Selecting the Winner\");\n    // if (planB_VRFDelay() == false) {\n      require(lWinnerSelected == true, \"The Winner has been Selected before !!\");\n    // }\n\n    // _LotteryWinnersArray = getLotteryWinnersArray();  \n    // uint256 l_randomWords = getRandomValue(_VRF);\n    uint winnerIndex = s_randomWords[0] % _LotteryWinnersArray.length;   // l_randomWords\n    uint winnerPrize = address(this).balance; // Calculation();\n    \n    emit SelectWinnerIndex(winnerIndex, address(this).balance, winnerPrize);\n    \n    UpdateLotteryData(winnerIndex, address(this).balance, winnerPrize);\n    WinnerPrizePayment(winnerIndex, winnerPrize); \n    // FinalPayment();\n    ClearDataBase();\n\n    lPotActive = false;\n    lReadySelectWinner = false;\n    lWinnerSelected = false;\n    success = true;\n\n  }\n\n  /**\n    * @notice Release Smart Contract Memory .\n    * @dev Clear All Storages .\n    * @return True\n  */\n  function ClearDataBase() private returns (bool) {\n    bool _success;\n    _success = LotteryInterface(generatorLotteryAddr).clearlotteryWinnersArrayMap(msg.sender);\n    return true;\n  }\n\n  /**\n    * @notice Calculation of Pot Winner Prize.\n    * @dev Findout the 5% of the Total Pot and The Winner payment.\n  */\n  // function Calculation() internal view returns (uint winnerPrize){\n\n  //   uint totalPot = address(this).balance;\n  //   // _LotteryWinnersArray = getLotteryWinnersArray();  \n  //   // address WinnerAddress = _LotteryWinnersArray[_winnerIndex];\n  //   (winnerPrize, ) = getDivided(totalPot, 20);  // winnerPrize\n\n  // }\n\n  /**\n    * @notice Pay Pot Prize to the Winner.\n    * @dev Transfer Pot Prize to the Winner.\n  */\n  function WinnerPrizePayment(uint _winnerIndex, uint _winnerPrize) private {\n\n    // _LotteryWinnersArray = getLotteryWinnersArray();  \n    address payable potWinner = payable(_LotteryWinnersArray[_winnerIndex]);  \n    potWinner.transfer(_winnerPrize);\n    emit SelectWinnerAddress(potWinner, _winnerPrize);\n    // _LotteryWinnersArray[winnerIndex].transfer(address(this).balance);\n\n  }\n\n  /**\n    * @notice Remaining Pot Money Transfer.\n    * @dev Transfer remaining Money to the Liquidity Pool.\n  */\n  // function FinalPayment() internal {   //  onlyOwner\n\n  //   address payable receiver = payable(MonthlyPotAddress);\n  //   uint TrxValue = address(this).balance;\n  //   receiver.transfer(TrxValue);\n  //   emit TotalPayment(receiver, TrxValue);\n\n  // }\n\n  /**\n    * @notice Save The Winner Address for Weekly Lottery\n    * @dev Update Generator Smart Contract For Saving Weekly Winner Address\n  */\n  function UpdateLotteryData(uint _winnerIndex, uint _balance, uint _winnerPrize) private returns(bool) {\n    bool _success;\n    uint _winnerId;\n    // _LotteryWinnersArray = getLotteryWinnersArray();  \n    // address _winnerAddress = _LotteryWinnersArray[_winnerIndex];\n    potWinnerAddress = _LotteryWinnersArray[_winnerIndex];\n    _success = LotteryInterface(generatorLotteryAddr).setlotteryStructs(address(this), msg.sender, _balance, potWinnerAddress, 2);  // _winnerAddress\n    _winnerId = LotteryInterface(generatorLotteryAddr).setWeeklyWinnersArrayMap(msg.sender, potWinnerAddress, _winnerPrize);  // _winnerAddress\n    return true;\n  }\n\n  /**\n    * @notice This Function is Only a PLan B for When The VRF Coordinator does not respond in a short time .\n    * @dev Only If after 10 min the VRF Coordinator does not respond This function Change the lWinnerSelected to True so the Last Random Word used instead of a new one .\n    * @return isActive Flag \n  */\n  function planB_VRFDelay() public isAllowedManager returns(bool isActive){ \n    require(lReadySelectWinner == true, \"The Pot is not ready for Selecting the Winner\");\n    require(lWinnerSelected == false, \"The Winner has been Selected before !!\");\n    uint nowTime = block.timestamp;\n    uint waitTime = 0;\n    if (nowTime > vrfCalledTime) {\n      waitTime = nowTime - vrfCalledTime ;\n      if (waitTime > 10 minutes) {\n          lWinnerSelected = true;\n          isActive = true;\n      } else {\n        isActive = false;\n      }\n    } else {\n      isActive = false;\n    }\n  }\n\n  /**\n    * @notice Get the list of All Hourly Lottery Winners\n    * @dev \n    * @return Houly Winner List\n  */\n  function getLotteryWinnersArray() public view returns(address[] memory) {\n    return LotteryInterface(generatorLotteryAddr).getWinners();\n  }\n\n  // function set_MonthlyPotAddress(address _MonthlyPotAddress) external onlyOwner {\n  //   require(_MonthlyPotAddress != address(0) );\n  //   MonthlyPotAddress = _MonthlyPotAddress;\n  // }\n\n  function set_generatorLotteryAddress(address _contractAddr) external onlyOwner {\n    generatorLotteryAddr = _contractAddr;\n  }\n\n  // function set_LiquidityPoolAddress(address _LiquidityPoolAddress) external onlyOwner {\n  //   require(_LiquidityPoolAddress != address(0) );\n  //   LiquidityPoolAddress = _LiquidityPoolAddress;\n  // }\n\n  // function set_MultiSigWalletAddress(address _MultiSigWalletAddress) external onlyOwner {\n  //   require(_MultiSigWalletAddress != address(0) );\n  //   MultiSigWalletAddress = _MultiSigWalletAddress;\n  // }\n\n  function setDirector(address _DirectorAddress) external onlyOwner {\n    require(_DirectorAddress != address(0) );\n    potDirector = _DirectorAddress;\n  }\n\n  function listPlayers() external view returns (address[] memory){  \n    return _LotteryWinnersArray;  \n  }\n\n  function isPotActive() public view returns(bool) {\n    return lPotActive;\n  }\n\n  function getPlayersNumber() public view returns(uint) {\n    return _LotteryWinnersArray.length;\n  }\n\n  function getWinners() public view returns(address, uint) {\n    return ( potWinnerAddress, address(this).balance );  \n  }  \n\n  function isReadySelectWinner() public view returns(bool) {\n    return lReadySelectWinner;\n  }\n\n  function isWinnerSelected() public view returns(bool) {\n    return lWinnerSelected;\n  }\n\n  function getPotDirector() public view returns(address) {\n    return potDirector;\n  }\n\n  // function getVerifier() public view returns(address) {\n  //   return _VRF;\n  // }\n\n}\n\n/**\n************************************************************************************\n************************************************************************************\n**/\n\n\n",
  "sourcePath": "/home/batis/SrcCode/myPRJ/SmartContBlockChain/BSCLottery/contracts/WeeklyLottery.sol",
  "compiler": {
    "name": "solc",
    "version": "0.8.13+commit.abaa5c0e.Emscripten.clang"
  },
  "schemaVersion": "3.4.3",
  "updatedAt": "2022-06-22T13:12:37.851Z",
  "networkType": "ethereum",
  "devdoc": {
    "author": "Batis Abhari (https://github.com/baties - ContactMe: abhari_Batis@hotmail.com)",
    "details": "WeeklyLottery will be Generated by LotteryGenerator in Next Version",
    "kind": "dev",
    "methods": {
      "getLotteryWinnersArray()": {
        "returns": {
          "_0": "Houly Winner List"
        }
      },
      "owner()": {
        "details": "Returns the address of the current owner."
      },
      "planB_VRFDelay()": {
        "details": "Only If after 10 min the VRF Coordinator does not respond This function Change the lWinnerSelected to True so the Last Random Word used instead of a new one .",
        "returns": {
          "isActive": "Flag "
        }
      },
      "potInitialize()": {
        "details": "AtFirst each Weekly Pot must be Initialized.",
        "returns": {
          "success": "Flag "
        }
      },
      "potPause()": {
        "details": "THis Function just Pauses the current Pot Play and Select Winner Routines and Use only for Emergency .",
        "returns": {
          "success": "Flag "
        }
      },
      "renounceOwnership()": {
        "details": "Leaves the contract without owner. It will not be possible to call `onlyOwner` functions anymore. Can only be called by the current owner. NOTE: Renouncing ownership will leave the contract without an owner, thereby removing any functionality that is only available to the owner."
      },
      "select_Winner()": {
        "details": "Weekly Lottery Pot Winner Selection Start Process, This Function Just Called Request Random Number Routine For Communicate with VRF Coordinator.",
        "returns": {
          "success": "Flag "
        }
      },
      "select_Winner_Continue()": {
        "details": "Weekly Lottery Pot Winner Selection Continue, This Function Only Call after fulfillRandomWords is Called. This Function is responsible for Updating Lottery Data, Pay the Winner Prize & then clear and Release the Memory",
        "returns": {
          "success": "Flag "
        }
      },
      "transferOwnership(address)": {
        "details": "Transfers ownership of the contract to a new account (`newOwner`). Can only be called by the current owner."
      }
    },
    "title": "Weekly Lottery For BSC Lottery Game ",
    "version": 1
  },
  "userdoc": {
    "kind": "user",
    "methods": {
      "getLotteryWinnersArray()": {
        "notice": "Get the list of All Hourly Lottery Winners"
      },
      "planB_VRFDelay()": {
        "notice": "This Function is Only a PLan B for When The VRF Coordinator does not respond in a short time ."
      },
      "potInitialize()": {
        "notice": "Weekly Lottery Pot Initialization."
      },
      "potPause()": {
        "notice": "Weekly Lottery Pot is Pausable, This is the Trigger."
      },
      "select_Winner()": {
        "notice": "Weekly Lottery Pot Winner Selection, This Winner is Selected among Hourly Winner List."
      },
      "select_Winner_Continue()": {
        "notice": "Weekly Lottery Pot Winner Selection Continue, This Function Selects The Winner With Random Number Generated."
      }
    },
    "notice": "This SmartContract is responsible for implimentation of Weekly Pot Lottery ",
    "version": 1
  }
}